{
  "contractName": "PaperMastersNFI",
  "abi": [
    {
      "inputs": [],
      "stateMutability": "nonpayable",
      "type": "constructor"
    },
    {
      "anonymous": false,
      "inputs": [
        {
          "indexed": true,
          "internalType": "address",
          "name": "owner",
          "type": "address"
        },
        {
          "indexed": true,
          "internalType": "address",
          "name": "approved",
          "type": "address"
        },
        {
          "indexed": true,
          "internalType": "uint256",
          "name": "tokenId",
          "type": "uint256"
        }
      ],
      "name": "Approval",
      "type": "event"
    },
    {
      "anonymous": false,
      "inputs": [
        {
          "indexed": true,
          "internalType": "address",
          "name": "owner",
          "type": "address"
        },
        {
          "indexed": true,
          "internalType": "address",
          "name": "operator",
          "type": "address"
        },
        {
          "indexed": false,
          "internalType": "bool",
          "name": "approved",
          "type": "bool"
        }
      ],
      "name": "ApprovalForAll",
      "type": "event"
    },
    {
      "anonymous": false,
      "inputs": [
        {
          "indexed": false,
          "internalType": "uint256",
          "name": "amount",
          "type": "uint256"
        },
        {
          "indexed": false,
          "internalType": "uint256",
          "name": "balance",
          "type": "uint256"
        },
        {
          "indexed": false,
          "internalType": "address",
          "name": "donationSender",
          "type": "address"
        },
        {
          "indexed": false,
          "internalType": "uint256",
          "name": "totalDonationsBySender",
          "type": "uint256"
        }
      ],
      "name": "DonationMade",
      "type": "event"
    },
    {
      "anonymous": false,
      "inputs": [
        {
          "indexed": false,
          "internalType": "uint256",
          "name": "gas",
          "type": "uint256"
        }
      ],
      "name": "Log",
      "type": "event"
    },
    {
      "anonymous": false,
      "inputs": [
        {
          "indexed": true,
          "internalType": "address",
          "name": "_from",
          "type": "address"
        },
        {
          "indexed": false,
          "internalType": "uint256",
          "name": "tokenId",
          "type": "uint256"
        },
        {
          "indexed": false,
          "internalType": "uint256",
          "name": "timeStamp",
          "type": "uint256"
        }
      ],
      "name": "NFIMinted",
      "type": "event"
    },
    {
      "anonymous": false,
      "inputs": [
        {
          "indexed": true,
          "internalType": "address",
          "name": "previousOwner",
          "type": "address"
        },
        {
          "indexed": true,
          "internalType": "address",
          "name": "newOwner",
          "type": "address"
        }
      ],
      "name": "OwnershipTransferred",
      "type": "event"
    },
    {
      "anonymous": false,
      "inputs": [],
      "name": "Pause",
      "type": "event"
    },
    {
      "anonymous": false,
      "inputs": [
        {
          "indexed": true,
          "internalType": "address",
          "name": "from",
          "type": "address"
        },
        {
          "indexed": true,
          "internalType": "address",
          "name": "to",
          "type": "address"
        },
        {
          "indexed": true,
          "internalType": "uint256",
          "name": "tokenId",
          "type": "uint256"
        }
      ],
      "name": "Transfer",
      "type": "event"
    },
    {
      "anonymous": false,
      "inputs": [],
      "name": "Unpause",
      "type": "event"
    },
    {
      "anonymous": false,
      "inputs": [
        {
          "indexed": false,
          "internalType": "uint256",
          "name": "amount",
          "type": "uint256"
        },
        {
          "indexed": false,
          "internalType": "uint256",
          "name": "balance",
          "type": "uint256"
        },
        {
          "indexed": false,
          "internalType": "address",
          "name": "withdrawAddress",
          "type": "address"
        }
      ],
      "name": "Withdraw",
      "type": "event"
    },
    {
      "stateMutability": "payable",
      "type": "fallback",
      "payable": true
    },
    {
      "inputs": [
        {
          "internalType": "address",
          "name": "to",
          "type": "address"
        },
        {
          "internalType": "uint256",
          "name": "tokenId",
          "type": "uint256"
        }
      ],
      "name": "approve",
      "outputs": [],
      "stateMutability": "nonpayable",
      "type": "function"
    },
    {
      "inputs": [
        {
          "internalType": "address",
          "name": "owner",
          "type": "address"
        }
      ],
      "name": "balanceOf",
      "outputs": [
        {
          "internalType": "uint256",
          "name": "",
          "type": "uint256"
        }
      ],
      "stateMutability": "view",
      "type": "function",
      "constant": true
    },
    {
      "inputs": [
        {
          "internalType": "uint256",
          "name": "tokenId",
          "type": "uint256"
        }
      ],
      "name": "getApproved",
      "outputs": [
        {
          "internalType": "address",
          "name": "",
          "type": "address"
        }
      ],
      "stateMutability": "view",
      "type": "function",
      "constant": true
    },
    {
      "inputs": [],
      "name": "name",
      "outputs": [
        {
          "internalType": "string",
          "name": "",
          "type": "string"
        }
      ],
      "stateMutability": "view",
      "type": "function",
      "constant": true
    },
    {
      "inputs": [],
      "name": "owner",
      "outputs": [
        {
          "internalType": "address",
          "name": "",
          "type": "address"
        }
      ],
      "stateMutability": "view",
      "type": "function",
      "constant": true
    },
    {
      "inputs": [
        {
          "internalType": "uint256",
          "name": "tokenId",
          "type": "uint256"
        }
      ],
      "name": "ownerOf",
      "outputs": [
        {
          "internalType": "address",
          "name": "",
          "type": "address"
        }
      ],
      "stateMutability": "view",
      "type": "function",
      "constant": true
    },
    {
      "inputs": [],
      "name": "paused",
      "outputs": [
        {
          "internalType": "bool",
          "name": "",
          "type": "bool"
        }
      ],
      "stateMutability": "view",
      "type": "function",
      "constant": true
    },
    {
      "inputs": [],
      "name": "renounceOwnership",
      "outputs": [],
      "stateMutability": "nonpayable",
      "type": "function"
    },
    {
      "inputs": [
        {
          "internalType": "bytes4",
          "name": "interfaceId",
          "type": "bytes4"
        }
      ],
      "name": "supportsInterface",
      "outputs": [
        {
          "internalType": "bool",
          "name": "",
          "type": "bool"
        }
      ],
      "stateMutability": "view",
      "type": "function",
      "constant": true
    },
    {
      "inputs": [],
      "name": "symbol",
      "outputs": [
        {
          "internalType": "string",
          "name": "",
          "type": "string"
        }
      ],
      "stateMutability": "view",
      "type": "function",
      "constant": true
    },
    {
      "inputs": [
        {
          "internalType": "address",
          "name": "newOwner",
          "type": "address"
        }
      ],
      "name": "transferOwnership",
      "outputs": [],
      "stateMutability": "nonpayable",
      "type": "function"
    },
    {
      "stateMutability": "payable",
      "type": "receive",
      "payable": true
    },
    {
      "inputs": [
        {
          "internalType": "address",
          "name": "walletAddress",
          "type": "address"
        }
      ],
      "name": "addressToTokenID",
      "outputs": [
        {
          "internalType": "uint256",
          "name": "",
          "type": "uint256"
        }
      ],
      "stateMutability": "view",
      "type": "function",
      "constant": true
    },
    {
      "inputs": [
        {
          "internalType": "uint256",
          "name": "_tokenid",
          "type": "uint256"
        }
      ],
      "name": "tokenIDtoIdentityStruct",
      "outputs": [
        {
          "components": [
            {
              "internalType": "address",
              "name": "walletAccount",
              "type": "address"
            },
            {
              "internalType": "string",
              "name": "name",
              "type": "string"
            },
            {
              "internalType": "string",
              "name": "email",
              "type": "string"
            },
            {
              "internalType": "string",
              "name": "profession",
              "type": "string"
            },
            {
              "internalType": "string",
              "name": "organization",
              "type": "string"
            },
            {
              "internalType": "string",
              "name": "slogan",
              "type": "string"
            },
            {
              "internalType": "string",
              "name": "website",
              "type": "string"
            },
            {
              "internalType": "string",
              "name": "uniqueYou",
              "type": "string"
            },
            {
              "internalType": "string",
              "name": "bgRGB",
              "type": "string"
            },
            {
              "internalType": "uint256",
              "name": "originDate",
              "type": "uint256"
            }
          ],
          "internalType": "struct PaperMastersNFI.identity",
          "name": "",
          "type": "tuple"
        }
      ],
      "stateMutability": "view",
      "type": "function",
      "constant": true
    },
    {
      "inputs": [
        {
          "internalType": "address",
          "name": "walletAddress",
          "type": "address"
        }
      ],
      "name": "addressHasTokenBool",
      "outputs": [
        {
          "internalType": "bool",
          "name": "",
          "type": "bool"
        }
      ],
      "stateMutability": "view",
      "type": "function",
      "constant": true
    },
    {
      "inputs": [
        {
          "internalType": "string",
          "name": "changeBaseURI",
          "type": "string"
        }
      ],
      "name": "setBaseURI",
      "outputs": [],
      "stateMutability": "nonpayable",
      "type": "function"
    },
    {
      "inputs": [
        {
          "internalType": "uint256",
          "name": "tokenId",
          "type": "uint256"
        }
      ],
      "name": "tokenURI",
      "outputs": [
        {
          "internalType": "string",
          "name": "",
          "type": "string"
        }
      ],
      "stateMutability": "view",
      "type": "function",
      "constant": true
    },
    {
      "inputs": [],
      "name": "getIdentityFee",
      "outputs": [
        {
          "internalType": "uint256",
          "name": "",
          "type": "uint256"
        }
      ],
      "stateMutability": "view",
      "type": "function",
      "constant": true
    },
    {
      "inputs": [
        {
          "internalType": "uint256",
          "name": "val",
          "type": "uint256"
        }
      ],
      "name": "setIdentityFee",
      "outputs": [],
      "stateMutability": "nonpayable",
      "type": "function"
    },
    {
      "inputs": [],
      "name": "deposit",
      "outputs": [],
      "stateMutability": "payable",
      "type": "function",
      "payable": true
    },
    {
      "inputs": [],
      "name": "getBalance",
      "outputs": [
        {
          "internalType": "uint256",
          "name": "",
          "type": "uint256"
        }
      ],
      "stateMutability": "view",
      "type": "function",
      "constant": true
    },
    {
      "inputs": [],
      "name": "withdraw",
      "outputs": [],
      "stateMutability": "nonpayable",
      "type": "function"
    },
    {
      "inputs": [],
      "name": "totalSupply",
      "outputs": [
        {
          "internalType": "uint256",
          "name": "",
          "type": "uint256"
        }
      ],
      "stateMutability": "view",
      "type": "function",
      "constant": true
    },
    {
      "inputs": [],
      "name": "pause",
      "outputs": [],
      "stateMutability": "nonpayable",
      "type": "function"
    },
    {
      "inputs": [],
      "name": "unpause",
      "outputs": [],
      "stateMutability": "nonpayable",
      "type": "function"
    },
    {
      "inputs": [
        {
          "internalType": "string",
          "name": "_name",
          "type": "string"
        },
        {
          "internalType": "string",
          "name": "_email",
          "type": "string"
        },
        {
          "internalType": "string",
          "name": "_profession",
          "type": "string"
        },
        {
          "internalType": "string",
          "name": "_organization",
          "type": "string"
        },
        {
          "internalType": "string",
          "name": "_slogan",
          "type": "string"
        },
        {
          "internalType": "string",
          "name": "_website",
          "type": "string"
        },
        {
          "internalType": "string",
          "name": "_uniqueYou",
          "type": "string"
        },
        {
          "internalType": "string",
          "name": "_bgRGB",
          "type": "string"
        },
        {
          "internalType": "uint256",
          "name": "_originDate",
          "type": "uint256"
        }
      ],
      "name": "mintNFI",
      "outputs": [],
      "stateMutability": "payable",
      "type": "function",
      "payable": true
    },
    {
      "inputs": [
        {
          "internalType": "address",
          "name": "operator",
          "type": "address"
        },
        {
          "internalType": "bool",
          "name": "approved",
          "type": "bool"
        }
      ],
      "name": "setApprovalForAll",
      "outputs": [],
      "stateMutability": "nonpayable",
      "type": "function"
    },
    {
      "inputs": [
        {
          "internalType": "address",
          "name": "owner",
          "type": "address"
        },
        {
          "internalType": "address",
          "name": "operator",
          "type": "address"
        }
      ],
      "name": "isApprovedForAll",
      "outputs": [
        {
          "internalType": "bool",
          "name": "",
          "type": "bool"
        }
      ],
      "stateMutability": "view",
      "type": "function",
      "constant": true
    },
    {
      "inputs": [
        {
          "internalType": "address",
          "name": "from",
          "type": "address"
        },
        {
          "internalType": "address",
          "name": "to",
          "type": "address"
        },
        {
          "internalType": "uint256",
          "name": "tokenId",
          "type": "uint256"
        }
      ],
      "name": "transferFrom",
      "outputs": [],
      "stateMutability": "nonpayable",
      "type": "function"
    },
    {
      "inputs": [
        {
          "internalType": "address",
          "name": "from",
          "type": "address"
        },
        {
          "internalType": "address",
          "name": "to",
          "type": "address"
        },
        {
          "internalType": "uint256",
          "name": "tokenId",
          "type": "uint256"
        }
      ],
      "name": "safeTransferFrom",
      "outputs": [],
      "stateMutability": "nonpayable",
      "type": "function"
    },
    {
      "inputs": [
        {
          "internalType": "address",
          "name": "from",
          "type": "address"
        },
        {
          "internalType": "address",
          "name": "to",
          "type": "address"
        },
        {
          "internalType": "uint256",
          "name": "tokenId",
          "type": "uint256"
        },
        {
          "internalType": "bytes",
          "name": "_data",
          "type": "bytes"
        }
      ],
      "name": "safeTransferFrom",
      "outputs": [],
      "stateMutability": "nonpayable",
      "type": "function"
    }
  ],
  "bytecode": "0x60806040526000600c60016101000a81548160ff0219169083151502179055503480156200002c57600080fd5b506040518060400160405280600f81526020017f70617065726d6173746572732e696f00000000000000000000000000000000008152506040518060400160405280600381526020017f4e464900000000000000000000000000000000000000000000000000000000008152508160009080519060200190620000b19291906200046b565b508060019080519060200190620000ca9291906200046b565b505050620000ed620000e16200039d60201b60201c565b620003a560201b60201c565b6040518060400160405280601c81526020017f7777772e70617065726d6173746572732e696f2f6964656e7469747900000000815250600790805190602001906200013a9291906200046b565b5067016345785d8a000060088190555060096040518061014001604052803073ffffffffffffffffffffffffffffffffffffffff168152602001604051806020016040528060008152508152602001604051806020016040528060008152508152602001604051806020016040528060008152508152602001604051806020016040528060008152508152602001604051806020016040528060008152508152602001604051806020016040528060008152508152602001604051806020016040528060008152508152602001604051806020016040528060008152508152602001600081525090806001815401808255809150506001900390600052602060002090600a020160009091909190915060008201518160000160006101000a81548173ffffffffffffffffffffffffffffffffffffffff021916908373ffffffffffffffffffffffffffffffffffffffff1602179055506020820151816001019080519060200190620002af9291906200046b565b506040820151816002019080519060200190620002ce9291906200046b565b506060820151816003019080519060200190620002ed9291906200046b565b5060808201518160040190805190602001906200030c9291906200046b565b5060a08201518160050190805190602001906200032b9291906200046b565b5060c08201518160060190805190602001906200034a9291906200046b565b5060e0820151816007019080519060200190620003699291906200046b565b50610100820151816008019080519060200190620003899291906200046b565b506101208201518160090155505062000580565b600033905090565b6000600660009054906101000a900473ffffffffffffffffffffffffffffffffffffffff16905081600660006101000a81548173ffffffffffffffffffffffffffffffffffffffff021916908373ffffffffffffffffffffffffffffffffffffffff1602179055508173ffffffffffffffffffffffffffffffffffffffff168173ffffffffffffffffffffffffffffffffffffffff167f8be0079c531659141344cd1fd0a4f28419497f9722a3daafe3b4186f6b6457e060405160405180910390a35050565b82805462000479906200054a565b90600052602060002090601f0160209004810192826200049d5760008555620004e9565b82601f10620004b857805160ff1916838001178555620004e9565b82800160010185558215620004e9579182015b82811115620004e8578251825591602001919060010190620004cb565b5b509050620004f89190620004fc565b5090565b5b8082111562000517576000816000905550600101620004fd565b5090565b7f4e487b7100000000000000000000000000000000000000000000000000000000600052602260045260246000fd5b600060028204905060018216806200056357607f821691505b602082108114156200057a57620005796200051b565b5b50919050565b613e6d80620005906000396000f3fe6080604052600436106101d15760003560e01c806370a08231116100f7578063a3925b2511610095578063d0e30db011610064578063d0e30db014610694578063e985e9c51461069e578063f2fde38b146106db578063f9c1f36f14610704576101d8565b8063a3925b25146105b4578063adde18b0146105f1578063b88d4fde1461062e578063c87b56dd14610657576101d8565b80638ae23730116100d15780638ae237301461050a5780638da5cb5b1461053557806395d89b4114610560578063a22cb4651461058b576101d8565b806370a082311461049f578063715018a6146104dc5780638456cb59146104f3576101d8565b806323b872dd1161016f57806342842e0e1161013e57806342842e0e146103e557806355f804b31461040e5780635c975abb146104375780636352211e14610462576101d8565b806323b872dd14610372578063269e12da1461039b5780633ccfd60b146103b75780633f4ba83a146103ce576101d8565b8063095ea7b3116101ab578063095ea7b3146102b657806312065fe0146102df57806318160ddd1461030a5780631a0740a814610335576101d8565b806301ffc9a71461021157806306fdde031461024e578063081812fc14610279576101d8565b366101d857005b7f909c57d5c6ac08245cf2a6de3900e2b868513fa59099b92b27d8db823d92df9c5a60405161020791906128d1565b60405180910390a1005b34801561021d57600080fd5b5061023860048036038101906102339190612958565b61072d565b60405161024591906129a0565b60405180910390f35b34801561025a57600080fd5b5061026361080f565b6040516102709190612a54565b60405180910390f35b34801561028557600080fd5b506102a0600480360381019061029b9190612aa2565b6108a1565b6040516102ad9190612b10565b60405180910390f35b3480156102c257600080fd5b506102dd60048036038101906102d89190612b57565b610926565b005b3480156102eb57600080fd5b506102f4610a3e565b60405161030191906128d1565b60405180910390f35b34801561031657600080fd5b5061031f610ac2565b60405161032c91906128d1565b60405180910390f35b34801561034157600080fd5b5061035c60048036038101906103579190612b97565b610acf565b60405161036991906129a0565b60405180910390f35b34801561037e57600080fd5b5061039960048036038101906103949190612bc4565b610aea565b005b6103b560048036038101906103b09190612d4c565b610b6b565b005b3480156103c357600080fd5b506103cc610f23565b005b3480156103da57600080fd5b506103e3611115565b005b3480156103f157600080fd5b5061040c60048036038101906104079190612bc4565b6111f3565b005b34801561041a57600080fd5b5061043560048036038101906104309190612ef6565b611274565b005b34801561044357600080fd5b5061044c61130a565b60405161045991906129a0565b60405180910390f35b34801561046e57600080fd5b5061048960048036038101906104849190612aa2565b61131d565b6040516104969190612b10565b60405180910390f35b3480156104ab57600080fd5b506104c660048036038101906104c19190612b97565b6113cf565b6040516104d391906128d1565b60405180910390f35b3480156104e857600080fd5b506104f1611487565b005b3480156104ff57600080fd5b5061050861150f565b005b34801561051657600080fd5b5061051f6115ee565b60405161052c91906128d1565b60405180910390f35b34801561054157600080fd5b5061054a6115f8565b6040516105579190612b10565b60405180910390f35b34801561056c57600080fd5b50610575611622565b6040516105829190612a54565b60405180910390f35b34801561059757600080fd5b506105b260048036038101906105ad9190612f6b565b6116b4565b005b3480156105c057600080fd5b506105db60048036038101906105d69190612aa2565b611734565b6040516105e8919061311e565b60405180910390f35b3480156105fd57600080fd5b5061061860048036038101906106139190612b97565b611c61565b60405161062591906128d1565b60405180910390f35b34801561063a57600080fd5b50610655600480360381019061065091906131e1565b611caa565b005b34801561066357600080fd5b5061067e60048036038101906106799190612aa2565b611d2c565b60405161068b9190612a54565b60405180910390f35b61069c611dd9565b005b3480156106aa57600080fd5b506106c560048036038101906106c09190613264565b611eb3565b6040516106d291906129a0565b60405180910390f35b3480156106e757600080fd5b5061070260048036038101906106fd9190612b97565b611f37565b005b34801561071057600080fd5b5061072b60048036038101906107269190612aa2565b61202f565b005b60007f80ac58cd000000000000000000000000000000000000000000000000000000007bffffffffffffffffffffffffffffffffffffffffffffffffffffffff1916827bffffffffffffffffffffffffffffffffffffffffffffffffffffffff191614806107f857507f5b5e139f000000000000000000000000000000000000000000000000000000007bffffffffffffffffffffffffffffffffffffffffffffffffffffffff1916827bffffffffffffffffffffffffffffffffffffffffffffffffffffffff1916145b806108085750610807826120b5565b5b9050919050565b60606000805461081e906132d3565b80601f016020809104026020016040519081016040528092919081815260200182805461084a906132d3565b80156108975780601f1061086c57610100808354040283529160200191610897565b820191906000526020600020905b81548152906001019060200180831161087a57829003601f168201915b5050505050905090565b60006108ac8261211f565b6108eb576040517f08c379a00000000000000000000000000000000000000000000000000000000081526004016108e290613377565b60405180910390fd5b6004600083815260200190815260200160002060009054906101000a900473ffffffffffffffffffffffffffffffffffffffff169050919050565b60006109318261131d565b90508073ffffffffffffffffffffffffffffffffffffffff168373ffffffffffffffffffffffffffffffffffffffff1614156109a2576040517f08c379a000000000000000000000000000000000000000000000000000000000815260040161099990613409565b60405180910390fd5b8073ffffffffffffffffffffffffffffffffffffffff166109c161218b565b73ffffffffffffffffffffffffffffffffffffffff1614806109f057506109ef816109ea61218b565b611eb3565b5b610a2f576040517f08c379a0000000000000000000000000000000000000000000000000000000008152600401610a269061349b565b60405180910390fd5b610a398383612193565b505050565b6000610a4861218b565b73ffffffffffffffffffffffffffffffffffffffff16610a666115f8565b73ffffffffffffffffffffffffffffffffffffffff1614610abc576040517f08c379a0000000000000000000000000000000000000000000000000000000008152600401610ab390613507565b60405180910390fd5b47905090565b6000600980549050905090565b600080610adb83611c61565b90506001811015915050919050565b610af261218b565b73ffffffffffffffffffffffffffffffffffffffff16610b106115f8565b73ffffffffffffffffffffffffffffffffffffffff1614610b66576040517f08c379a0000000000000000000000000000000000000000000000000000000008152600401610b5d90613507565b60405180910390fd5b505050565b600c60009054906101000a900460ff1615610bbb576040517f08c379a0000000000000000000000000000000000000000000000000000000008152600401610bb290613573565b60405180910390fd5b6001600c60006101000a81548160ff021916908315150217905550600c60019054906101000a900460ff1615610bf057600080fd5b610bf933610acf565b15610c39576040517f08c379a0000000000000000000000000000000000000000000000000000000008152600401610c3090613605565b60405180910390fd5b600854341015610c7e576040517f08c379a0000000000000000000000000000000000000000000000000000000008152600401610c7590613697565b60405180910390fd5b60006040518061014001604052803373ffffffffffffffffffffffffffffffffffffffff1681526020018b81526020018a815260200189815260200188815260200187815260200186815260200185815260200184815260200183815250905060098190806001815401808255809150506001900390600052602060002090600a020160009091909190915060008201518160000160006101000a81548173ffffffffffffffffffffffffffffffffffffffff021916908373ffffffffffffffffffffffffffffffffffffffff1602179055506020820151816001019080519060200190610d6d9291906127ac565b506040820151816002019080519060200190610d8a9291906127ac565b506060820151816003019080519060200190610da79291906127ac565b506080820151816004019080519060200190610dc49291906127ac565b5060a0820151816005019080519060200190610de19291906127ac565b5060c0820151816006019080519060200190610dfe9291906127ac565b5060e0820151816007019080519060200190610e1b9291906127ac565b50610100820151816008019080519060200190610e399291906127ac565b506101208201518160090155505060006001600980549050610e5b91906136e6565b905080600a60003373ffffffffffffffffffffffffffffffffffffffff1673ffffffffffffffffffffffffffffffffffffffff16815260200190815260200160002081905550610eab338261224c565b3373ffffffffffffffffffffffffffffffffffffffff167f4ea273c4ebd127f9f6deeecbd243fa6dc62d01535ba9c37b409c44e2bb92e7c38242604051610ef392919061371a565b60405180910390a250506000600c60006101000a81548160ff021916908315150217905550505050505050505050565b600c60009054906101000a900460ff1615610f73576040517f08c379a0000000000000000000000000000000000000000000000000000000008152600401610f6a90613573565b60405180910390fd5b6001600c60006101000a81548160ff021916908315150217905550610f9661218b565b73ffffffffffffffffffffffffffffffffffffffff16610fb46115f8565b73ffffffffffffffffffffffffffffffffffffffff161461100a576040517f08c379a000000000000000000000000000000000000000000000000000000000815260040161100190613507565b60405180910390fd5b600047905060003373ffffffffffffffffffffffffffffffffffffffff168260405161103590613774565b60006040518083038185875af1925050503d8060008114611072576040519150601f19603f3d011682016040523d82523d6000602084013e611077565b606091505b50509050806110bb576040517f08c379a00000000000000000000000000000000000000000000000000000000081526004016110b2906137d5565b60405180910390fd5b7f71ef96c43343734b1d843bb85d52ef329f5e9143e4d35827771e3b0dd90c5f848247336040516110ee939291906137f5565b60405180910390a150506000600c60006101000a81548160ff021916908315150217905550565b61111d61218b565b73ffffffffffffffffffffffffffffffffffffffff1661113b6115f8565b73ffffffffffffffffffffffffffffffffffffffff1614611191576040517f08c379a000000000000000000000000000000000000000000000000000000000815260040161118890613507565b60405180910390fd5b600c60019054906101000a900460ff166111aa57600080fd5b6000600c60016101000a81548160ff0219169083151502179055507f7805862f689e2f13df9f062ff482ad3ad112aca9e0847911ed832e158c525b3360405160405180910390a1565b6111fb61218b565b73ffffffffffffffffffffffffffffffffffffffff166112196115f8565b73ffffffffffffffffffffffffffffffffffffffff161461126f576040517f08c379a000000000000000000000000000000000000000000000000000000000815260040161126690613507565b60405180910390fd5b505050565b61127c61218b565b73ffffffffffffffffffffffffffffffffffffffff1661129a6115f8565b73ffffffffffffffffffffffffffffffffffffffff16146112f0576040517f08c379a00000000000000000000000000000000000000000000000000000000081526004016112e790613507565b60405180910390fd5b80600790805190602001906113069291906127ac565b5050565b600c60019054906101000a900460ff1681565b6000806002600084815260200190815260200160002060009054906101000a900473ffffffffffffffffffffffffffffffffffffffff169050600073ffffffffffffffffffffffffffffffffffffffff168173ffffffffffffffffffffffffffffffffffffffff1614156113c6576040517f08c379a00000000000000000000000000000000000000000000000000000000081526004016113bd9061389e565b60405180910390fd5b80915050919050565b60008073ffffffffffffffffffffffffffffffffffffffff168273ffffffffffffffffffffffffffffffffffffffff161415611440576040517f08c379a000000000000000000000000000000000000000000000000000000000815260040161143790613930565b60405180910390fd5b600360008373ffffffffffffffffffffffffffffffffffffffff1673ffffffffffffffffffffffffffffffffffffffff168152602001908152602001600020549050919050565b61148f61218b565b73ffffffffffffffffffffffffffffffffffffffff166114ad6115f8565b73ffffffffffffffffffffffffffffffffffffffff1614611503576040517f08c379a00000000000000000000000000000000000000000000000000000000081526004016114fa90613507565b60405180910390fd5b61150d600061226a565b565b61151761218b565b73ffffffffffffffffffffffffffffffffffffffff166115356115f8565b73ffffffffffffffffffffffffffffffffffffffff161461158b576040517f08c379a000000000000000000000000000000000000000000000000000000000815260040161158290613507565b60405180910390fd5b600c60019054906101000a900460ff16156115a557600080fd5b6001600c60016101000a81548160ff0219169083151502179055507f6985a02210a168e66602d3235cb6db0e70f92b3ba4d376a33c0f3d9434bff62560405160405180910390a1565b6000600854905090565b6000600660009054906101000a900473ffffffffffffffffffffffffffffffffffffffff16905090565b606060018054611631906132d3565b80601f016020809104026020016040519081016040528092919081815260200182805461165d906132d3565b80156116aa5780601f1061167f576101008083540402835291602001916116aa565b820191906000526020600020905b81548152906001019060200180831161168d57829003601f168201915b5050505050905090565b6116bc61218b565b73ffffffffffffffffffffffffffffffffffffffff166116da6115f8565b73ffffffffffffffffffffffffffffffffffffffff1614611730576040517f08c379a000000000000000000000000000000000000000000000000000000000815260040161172790613507565b60405180910390fd5b5050565b61173c612832565b600982815481106117505761174f613950565b5b90600052602060002090600a0201604051806101400160405290816000820160009054906101000a900473ffffffffffffffffffffffffffffffffffffffff1673ffffffffffffffffffffffffffffffffffffffff1673ffffffffffffffffffffffffffffffffffffffff1681526020016001820180546117d0906132d3565b80601f01602080910402602001604051908101604052809291908181526020018280546117fc906132d3565b80156118495780601f1061181e57610100808354040283529160200191611849565b820191906000526020600020905b81548152906001019060200180831161182c57829003601f168201915b50505050508152602001600282018054611862906132d3565b80601f016020809104026020016040519081016040528092919081815260200182805461188e906132d3565b80156118db5780601f106118b0576101008083540402835291602001916118db565b820191906000526020600020905b8154815290600101906020018083116118be57829003601f168201915b505050505081526020016003820180546118f4906132d3565b80601f0160208091040260200160405190810160405280929190818152602001828054611920906132d3565b801561196d5780601f106119425761010080835404028352916020019161196d565b820191906000526020600020905b81548152906001019060200180831161195057829003601f168201915b50505050508152602001600482018054611986906132d3565b80601f01602080910402602001604051908101604052809291908181526020018280546119b2906132d3565b80156119ff5780601f106119d4576101008083540402835291602001916119ff565b820191906000526020600020905b8154815290600101906020018083116119e257829003601f168201915b50505050508152602001600582018054611a18906132d3565b80601f0160208091040260200160405190810160405280929190818152602001828054611a44906132d3565b8015611a915780601f10611a6657610100808354040283529160200191611a91565b820191906000526020600020905b815481529060010190602001808311611a7457829003601f168201915b50505050508152602001600682018054611aaa906132d3565b80601f0160208091040260200160405190810160405280929190818152602001828054611ad6906132d3565b8015611b235780601f10611af857610100808354040283529160200191611b23565b820191906000526020600020905b815481529060010190602001808311611b0657829003601f168201915b50505050508152602001600782018054611b3c906132d3565b80601f0160208091040260200160405190810160405280929190818152602001828054611b68906132d3565b8015611bb55780601f10611b8a57610100808354040283529160200191611bb5565b820191906000526020600020905b815481529060010190602001808311611b9857829003601f168201915b50505050508152602001600882018054611bce906132d3565b80601f0160208091040260200160405190810160405280929190818152602001828054611bfa906132d3565b8015611c475780601f10611c1c57610100808354040283529160200191611c47565b820191906000526020600020905b815481529060010190602001808311611c2a57829003601f168201915b505050505081526020016009820154815250509050919050565b6000600a60008373ffffffffffffffffffffffffffffffffffffffff1673ffffffffffffffffffffffffffffffffffffffff168152602001908152602001600020549050919050565b611cb261218b565b73ffffffffffffffffffffffffffffffffffffffff16611cd06115f8565b73ffffffffffffffffffffffffffffffffffffffff1614611d26576040517f08c379a0000000000000000000000000000000000000000000000000000000008152600401611d1d90613507565b60405180910390fd5b50505050565b6060611d378261211f565b611d76576040517f08c379a0000000000000000000000000000000000000000000000000000000008152600401611d6d906139f1565b60405180910390fd5b6000611d818361131d565b90506000611d8d612330565b90506000815111611dad5760405180602001604052806000815250611dd0565b8082604051602001611dc0929190613a95565b6040516020818303038152906040525b92505050919050565b600034905034600b60003373ffffffffffffffffffffffffffffffffffffffff1673ffffffffffffffffffffffffffffffffffffffff1681526020019081526020016000206000828254611e2d9190613abd565b925050819055507fb9c87592ed73f7a26fff471ef513f8065a243208d84daa291fb0e770635014e2814733600b60003373ffffffffffffffffffffffffffffffffffffffff1673ffffffffffffffffffffffffffffffffffffffff16815260200190815260200160002054604051611ea89493929190613b13565b60405180910390a150565b6000611ebd61218b565b73ffffffffffffffffffffffffffffffffffffffff16611edb6115f8565b73ffffffffffffffffffffffffffffffffffffffff1614611f31576040517f08c379a0000000000000000000000000000000000000000000000000000000008152600401611f2890613507565b60405180910390fd5b92915050565b611f3f61218b565b73ffffffffffffffffffffffffffffffffffffffff16611f5d6115f8565b73ffffffffffffffffffffffffffffffffffffffff1614611fb3576040517f08c379a0000000000000000000000000000000000000000000000000000000008152600401611faa90613507565b60405180910390fd5b600073ffffffffffffffffffffffffffffffffffffffff168173ffffffffffffffffffffffffffffffffffffffff161415612023576040517f08c379a000000000000000000000000000000000000000000000000000000000815260040161201a90613bca565b60405180910390fd5b61202c8161226a565b50565b61203761218b565b73ffffffffffffffffffffffffffffffffffffffff166120556115f8565b73ffffffffffffffffffffffffffffffffffffffff16146120ab576040517f08c379a00000000000000000000000000000000000000000000000000000000081526004016120a290613507565b60405180910390fd5b8060088190555050565b60007f01ffc9a7000000000000000000000000000000000000000000000000000000007bffffffffffffffffffffffffffffffffffffffffffffffffffffffff1916827bffffffffffffffffffffffffffffffffffffffffffffffffffffffff1916149050919050565b60008073ffffffffffffffffffffffffffffffffffffffff166002600084815260200190815260200160002060009054906101000a900473ffffffffffffffffffffffffffffffffffffffff1673ffffffffffffffffffffffffffffffffffffffff1614159050919050565b600033905090565b816004600083815260200190815260200160002060006101000a81548173ffffffffffffffffffffffffffffffffffffffff021916908373ffffffffffffffffffffffffffffffffffffffff160217905550808273ffffffffffffffffffffffffffffffffffffffff166122068361131d565b73ffffffffffffffffffffffffffffffffffffffff167f8c5be1e5ebec7d5bd14f71427d1e84f3dd0314c0f7b2291e5b200ac8c7c3b92560405160405180910390a45050565b6122668282604051806020016040528060008152506123c2565b5050565b6000600660009054906101000a900473ffffffffffffffffffffffffffffffffffffffff16905081600660006101000a81548173ffffffffffffffffffffffffffffffffffffffff021916908373ffffffffffffffffffffffffffffffffffffffff1602179055508173ffffffffffffffffffffffffffffffffffffffff168173ffffffffffffffffffffffffffffffffffffffff167f8be0079c531659141344cd1fd0a4f28419497f9722a3daafe3b4186f6b6457e060405160405180910390a35050565b60606007805461233f906132d3565b80601f016020809104026020016040519081016040528092919081815260200182805461236b906132d3565b80156123b85780601f1061238d576101008083540402835291602001916123b8565b820191906000526020600020905b81548152906001019060200180831161239b57829003601f168201915b5050505050905090565b6123cc838361241d565b6123d960008484846125f7565b612418576040517f08c379a000000000000000000000000000000000000000000000000000000000815260040161240f90613c5c565b60405180910390fd5b505050565b600073ffffffffffffffffffffffffffffffffffffffff168273ffffffffffffffffffffffffffffffffffffffff16141561248d576040517f08c379a000000000000000000000000000000000000000000000000000000000815260040161248490613cc8565b60405180910390fd5b6124968161211f565b156124d6576040517f08c379a00000000000000000000000000000000000000000000000000000000081526004016124cd90613d34565b60405180910390fd5b6124e26000838361277f565b6001600360008473ffffffffffffffffffffffffffffffffffffffff1673ffffffffffffffffffffffffffffffffffffffff16815260200190815260200160002060008282546125329190613abd565b92505081905550816002600083815260200190815260200160002060006101000a81548173ffffffffffffffffffffffffffffffffffffffff021916908373ffffffffffffffffffffffffffffffffffffffff160217905550808273ffffffffffffffffffffffffffffffffffffffff16600073ffffffffffffffffffffffffffffffffffffffff167fddf252ad1be2c89b69c2b068fc378daa952ba7f163c4a11628f55a4df523b3ef60405160405180910390a46125f360008383612784565b5050565b60006126188473ffffffffffffffffffffffffffffffffffffffff16612789565b15612772578373ffffffffffffffffffffffffffffffffffffffff1663150b7a0261264161218b565b8786866040518563ffffffff1660e01b81526004016126639493929190613da9565b6020604051808303816000875af192505050801561269f57506040513d601f19601f8201168201806040525081019061269c9190613e0a565b60015b612722573d80600081146126cf576040519150601f19603f3d011682016040523d82523d6000602084013e6126d4565b606091505b5060008151141561271a576040517f08c379a000000000000000000000000000000000000000000000000000000000815260040161271190613c5c565b60405180910390fd5b805181602001fd5b63150b7a0260e01b7bffffffffffffffffffffffffffffffffffffffffffffffffffffffff1916817bffffffffffffffffffffffffffffffffffffffffffffffffffffffff191614915050612777565b600190505b949350505050565b505050565b505050565b6000808273ffffffffffffffffffffffffffffffffffffffff163b119050919050565b8280546127b8906132d3565b90600052602060002090601f0160209004810192826127da5760008555612821565b82601f106127f357805160ff1916838001178555612821565b82800160010185558215612821579182015b82811115612820578251825591602001919060010190612805565b5b50905061282e919061289b565b5090565b604051806101400160405280600073ffffffffffffffffffffffffffffffffffffffff1681526020016060815260200160608152602001606081526020016060815260200160608152602001606081526020016060815260200160608152602001600081525090565b5b808211156128b457600081600090555060010161289c565b5090565b6000819050919050565b6128cb816128b8565b82525050565b60006020820190506128e660008301846128c2565b92915050565b6000604051905090565b600080fd5b600080fd5b60007fffffffff0000000000000000000000000000000000000000000000000000000082169050919050565b61293581612900565b811461294057600080fd5b50565b6000813590506129528161292c565b92915050565b60006020828403121561296e5761296d6128f6565b5b600061297c84828501612943565b91505092915050565b60008115159050919050565b61299a81612985565b82525050565b60006020820190506129b56000830184612991565b92915050565b600081519050919050565b600082825260208201905092915050565b60005b838110156129f55780820151818401526020810190506129da565b83811115612a04576000848401525b50505050565b6000601f19601f8301169050919050565b6000612a26826129bb565b612a3081856129c6565b9350612a408185602086016129d7565b612a4981612a0a565b840191505092915050565b60006020820190508181036000830152612a6e8184612a1b565b905092915050565b612a7f816128b8565b8114612a8a57600080fd5b50565b600081359050612a9c81612a76565b92915050565b600060208284031215612ab857612ab76128f6565b5b6000612ac684828501612a8d565b91505092915050565b600073ffffffffffffffffffffffffffffffffffffffff82169050919050565b6000612afa82612acf565b9050919050565b612b0a81612aef565b82525050565b6000602082019050612b256000830184612b01565b92915050565b612b3481612aef565b8114612b3f57600080fd5b50565b600081359050612b5181612b2b565b92915050565b60008060408385031215612b6e57612b6d6128f6565b5b6000612b7c85828601612b42565b9250506020612b8d85828601612a8d565b9150509250929050565b600060208284031215612bad57612bac6128f6565b5b6000612bbb84828501612b42565b91505092915050565b600080600060608486031215612bdd57612bdc6128f6565b5b6000612beb86828701612b42565b9350506020612bfc86828701612b42565b9250506040612c0d86828701612a8d565b9150509250925092565b600080fd5b600080fd5b7f4e487b7100000000000000000000000000000000000000000000000000000000600052604160045260246000fd5b612c5982612a0a565b810181811067ffffffffffffffff82111715612c7857612c77612c21565b5b80604052505050565b6000612c8b6128ec565b9050612c978282612c50565b919050565b600067ffffffffffffffff821115612cb757612cb6612c21565b5b612cc082612a0a565b9050602081019050919050565b82818337600083830152505050565b6000612cef612cea84612c9c565b612c81565b905082815260208101848484011115612d0b57612d0a612c1c565b5b612d16848285612ccd565b509392505050565b600082601f830112612d3357612d32612c17565b5b8135612d43848260208601612cdc565b91505092915050565b60008060008060008060008060006101208a8c031215612d6f57612d6e6128f6565b5b60008a013567ffffffffffffffff811115612d8d57612d8c6128fb565b5b612d998c828d01612d1e565b99505060208a013567ffffffffffffffff811115612dba57612db96128fb565b5b612dc68c828d01612d1e565b98505060408a013567ffffffffffffffff811115612de757612de66128fb565b5b612df38c828d01612d1e565b97505060608a013567ffffffffffffffff811115612e1457612e136128fb565b5b612e208c828d01612d1e565b96505060808a013567ffffffffffffffff811115612e4157612e406128fb565b5b612e4d8c828d01612d1e565b95505060a08a013567ffffffffffffffff811115612e6e57612e6d6128fb565b5b612e7a8c828d01612d1e565b94505060c08a013567ffffffffffffffff811115612e9b57612e9a6128fb565b5b612ea78c828d01612d1e565b93505060e08a013567ffffffffffffffff811115612ec857612ec76128fb565b5b612ed48c828d01612d1e565b925050610100612ee68c828d01612a8d565b9150509295985092959850929598565b600060208284031215612f0c57612f0b6128f6565b5b600082013567ffffffffffffffff811115612f2a57612f296128fb565b5b612f3684828501612d1e565b91505092915050565b612f4881612985565b8114612f5357600080fd5b50565b600081359050612f6581612f3f565b92915050565b60008060408385031215612f8257612f816128f6565b5b6000612f9085828601612b42565b9250506020612fa185828601612f56565b9150509250929050565b612fb481612aef565b82525050565b600082825260208201905092915050565b6000612fd6826129bb565b612fe08185612fba565b9350612ff08185602086016129d7565b612ff981612a0a565b840191505092915050565b61300d816128b8565b82525050565b60006101408301600083015161302c6000860182612fab565b50602083015184820360208601526130448282612fcb565b9150506040830151848203604086015261305e8282612fcb565b915050606083015184820360608601526130788282612fcb565b915050608083015184820360808601526130928282612fcb565b91505060a083015184820360a08601526130ac8282612fcb565b91505060c083015184820360c08601526130c68282612fcb565b91505060e083015184820360e08601526130e08282612fcb565b9150506101008301518482036101008601526130fc8282612fcb565b915050610120830151613113610120860182613004565b508091505092915050565b600060208201905081810360008301526131388184613013565b905092915050565b600067ffffffffffffffff82111561315b5761315a612c21565b5b61316482612a0a565b9050602081019050919050565b600061318461317f84613140565b612c81565b9050828152602081018484840111156131a05761319f612c1c565b5b6131ab848285612ccd565b509392505050565b600082601f8301126131c8576131c7612c17565b5b81356131d8848260208601613171565b91505092915050565b600080600080608085870312156131fb576131fa6128f6565b5b600061320987828801612b42565b945050602061321a87828801612b42565b935050604061322b87828801612a8d565b925050606085013567ffffffffffffffff81111561324c5761324b6128fb565b5b613258878288016131b3565b91505092959194509250565b6000806040838503121561327b5761327a6128f6565b5b600061328985828601612b42565b925050602061329a85828601612b42565b9150509250929050565b7f4e487b7100000000000000000000000000000000000000000000000000000000600052602260045260246000fd5b600060028204905060018216806132eb57607f821691505b602082108114156132ff576132fe6132a4565b5b50919050565b7f4552433732313a20617070726f76656420717565727920666f72206e6f6e657860008201527f697374656e7420746f6b656e0000000000000000000000000000000000000000602082015250565b6000613361602c836129c6565b915061336c82613305565b604082019050919050565b6000602082019050818103600083015261339081613354565b9050919050565b7f4552433732313a20617070726f76616c20746f2063757272656e74206f776e6560008201527f7200000000000000000000000000000000000000000000000000000000000000602082015250565b60006133f36021836129c6565b91506133fe82613397565b604082019050919050565b60006020820190508181036000830152613422816133e6565b9050919050565b7f4552433732313a20617070726f76652063616c6c6572206973206e6f74206f7760008201527f6e6572206e6f7220617070726f76656420666f7220616c6c0000000000000000602082015250565b60006134856038836129c6565b915061349082613429565b604082019050919050565b600060208201905081810360008301526134b481613478565b9050919050565b7f4f776e61626c653a2063616c6c6572206973206e6f7420746865206f776e6572600082015250565b60006134f16020836129c6565b91506134fc826134bb565b602082019050919050565b60006020820190508181036000830152613520816134e4565b9050919050565b7f4e6f2072652d656e7472616e6379000000000000000000000000000000000000600082015250565b600061355d600e836129c6565b915061356882613527565b602082019050919050565b6000602082019050818103600083015261358c81613550565b9050919050565b7f2057616c6c657420616c72656164792068617320616e204e46492120596f752060008201527f676574206f6e65207065722077616c6c6574206163636f756e74000000000000602082015250565b60006135ef603a836129c6565b91506135fa82613593565b604082019050919050565b6000602082019050818103600083015261361e816135e2565b9050919050565b7f4e6f7420656e6f756768204554482073656e743b20636865636b20707269636560008201527f2100000000000000000000000000000000000000000000000000000000000000602082015250565b60006136816021836129c6565b915061368c82613625565b604082019050919050565b600060208201905081810360008301526136b081613674565b9050919050565b7f4e487b7100000000000000000000000000000000000000000000000000000000600052601160045260246000fd5b60006136f1826128b8565b91506136fc836128b8565b92508282101561370f5761370e6136b7565b5b828203905092915050565b600060408201905061372f60008301856128c2565b61373c60208301846128c2565b9392505050565b600081905092915050565b50565b600061375e600083613743565b91506137698261374e565b600082019050919050565b600061377f82613751565b9150819050919050565b7f5472616e73666572206661696c65642e00000000000000000000000000000000600082015250565b60006137bf6010836129c6565b91506137ca82613789565b602082019050919050565b600060208201905081810360008301526137ee816137b2565b9050919050565b600060608201905061380a60008301866128c2565b61381760208301856128c2565b6138246040830184612b01565b949350505050565b7f4552433732313a206f776e657220717565727920666f72206e6f6e657869737460008201527f656e7420746f6b656e0000000000000000000000000000000000000000000000602082015250565b60006138886029836129c6565b91506138938261382c565b604082019050919050565b600060208201905081810360008301526138b78161387b565b9050919050565b7f4552433732313a2062616c616e636520717565727920666f7220746865207a6560008201527f726f206164647265737300000000000000000000000000000000000000000000602082015250565b600061391a602a836129c6565b9150613925826138be565b604082019050919050565b600060208201905081810360008301526139498161390d565b9050919050565b7f4e487b7100000000000000000000000000000000000000000000000000000000600052603260045260246000fd5b7f4552433732314d657461646174613a2055524920717565727920666f72206e6f60008201527f6e6578697374656e7420746f6b656e0000000000000000000000000000000000602082015250565b60006139db602f836129c6565b91506139e68261397f565b604082019050919050565b60006020820190508181036000830152613a0a816139ce565b9050919050565b600081905092915050565b6000613a27826129bb565b613a318185613a11565b9350613a418185602086016129d7565b80840191505092915050565b60008160601b9050919050565b6000613a6582613a4d565b9050919050565b6000613a7782613a5a565b9050919050565b613a8f613a8a82612aef565b613a6c565b82525050565b6000613aa18285613a1c565b9150613aad8284613a7e565b6014820191508190509392505050565b6000613ac8826128b8565b9150613ad3836128b8565b9250827fffffffffffffffffffffffffffffffffffffffffffffffffffffffffffffffff03821115613b0857613b076136b7565b5b828201905092915050565b6000608082019050613b2860008301876128c2565b613b3560208301866128c2565b613b426040830185612b01565b613b4f60608301846128c2565b95945050505050565b7f4f776e61626c653a206e6577206f776e657220697320746865207a65726f206160008201527f6464726573730000000000000000000000000000000000000000000000000000602082015250565b6000613bb46026836129c6565b9150613bbf82613b58565b604082019050919050565b60006020820190508181036000830152613be381613ba7565b9050919050565b7f4552433732313a207472616e7366657220746f206e6f6e20455243373231526560008201527f63656976657220696d706c656d656e7465720000000000000000000000000000602082015250565b6000613c466032836129c6565b9150613c5182613bea565b604082019050919050565b60006020820190508181036000830152613c7581613c39565b9050919050565b7f4552433732313a206d696e7420746f20746865207a65726f2061646472657373600082015250565b6000613cb26020836129c6565b9150613cbd82613c7c565b602082019050919050565b60006020820190508181036000830152613ce181613ca5565b9050919050565b7f4552433732313a20746f6b656e20616c7265616479206d696e74656400000000600082015250565b6000613d1e601c836129c6565b9150613d2982613ce8565b602082019050919050565b60006020820190508181036000830152613d4d81613d11565b9050919050565b600081519050919050565b600082825260208201905092915050565b6000613d7b82613d54565b613d858185613d5f565b9350613d958185602086016129d7565b613d9e81612a0a565b840191505092915050565b6000608082019050613dbe6000830187612b01565b613dcb6020830186612b01565b613dd860408301856128c2565b8181036060830152613dea8184613d70565b905095945050505050565b600081519050613e048161292c565b92915050565b600060208284031215613e2057613e1f6128f6565b5b6000613e2e84828501613df5565b9150509291505056fea2646970667358221220ee40ee420bc4b9a52ece65c79e0b91796312ec9183f994a0be30dc65327af51064736f6c634300080a0033",
  "immutableReferences": {},
  "source": "// SPDX-License-Identifier: GPL-3.0\r\npragma solidity >=0.8.0 <0.9.0;\r\n\r\nimport \"@openzeppelin/contracts/token/ERC721/ERC721.sol\";\r\nimport \"@openzeppelin/contracts/access/Ownable.sol\";\r\nimport \"@openzeppelin/contracts/token/ERC721/extensions/IERC721Metadata.sol\";\r\n\r\ncontract PaperMastersNFI is ERC721, Ownable {\r\n//do I need to bring in SafeMath???\r\n    string private _setBaseURI;\r\n    uint256 private identityFee;\r\n\r\n    struct identity\r\n    {\r\n        address walletAccount;\r\n        string name;\r\n        string email;\r\n        string profession;\r\n        string organization;\r\n        string slogan;\r\n        string website;\r\n        string uniqueYou;\r\n        string bgRGB;\r\n        uint originDate;\r\n    }\r\n\r\n    identity[] totalIdentities;\r\n\r\n    mapping(address => uint256) _dictionaryNFIs;\r\n    mapping(address => uint256) _supportPMDonations;\r\n\r\n    //prevents ren-entry when modifier is added to a function\r\n    bool internal locked;\r\n    modifier noReentrant() {\r\n        require(!locked, \"No re-entrancy\");\r\n        locked = true;\r\n        _;\r\n        locked = false;\r\n    }\r\n\r\n    constructor() ERC721(\"papermasters.io\", \"NFI\") {\r\n        _setBaseURI = \"www.papermasters.io/identity\";\r\n        identityFee = 100000000000000000;\r\n        totalIdentities.push(identity(address(this),'','','','','','','','',0));\r\n    }\r\n\r\n    function addressToTokenID(address walletAddress) public view returns(uint256) {\r\n        return _dictionaryNFIs[walletAddress];\r\n    }\r\n\r\n    function tokenIDtoIdentityStruct(uint256 _tokenid) public view returns(identity memory) {\r\n        return totalIdentities[_tokenid];\r\n    }\r\n\r\n    function addressHasTokenBool(address walletAddress) public view returns(bool) {\r\n        uint256 _tokenId = addressToTokenID(walletAddress);\r\n        return _tokenId >= 1;\r\n    }\r\n\r\n    function setBaseURI(string memory changeBaseURI) public onlyOwner{\r\n        _setBaseURI = changeBaseURI;\r\n    }\r\n\r\n    function _baseURI() internal view virtual override returns (string memory) {\r\n        return _setBaseURI;\r\n    }\r\n\r\n    function tokenURI(uint256 tokenId) public view virtual override returns (string memory) {\r\n        require(_exists(tokenId), \"ERC721Metadata: URI query for nonexistent token\");\r\n\r\n        address owner = ownerOf(tokenId);\r\n\r\n        string memory baseURI = _baseURI();\r\n\r\n        return bytes(baseURI).length > 0 ? string(abi.encodePacked(baseURI, owner)) : \"\";\r\n\r\n        //string memory tokenURI = baseURI/identity[tokenId];\r\n    }\r\n\r\n    function getIdentityFee() public view returns (uint256) {\r\n        return identityFee;\r\n    }\r\n\r\n    function setIdentityFee(uint256 val) external onlyOwner {\r\n        identityFee = val;\r\n    }\r\n\r\n    event Log(uint gas);\r\n\r\n    // Fallback function must be declared as external.\r\n    fallback() external payable {\r\n        // send / transfer (forwards 2300 gas to this fallback function)\r\n        // call (forwards all of the gas)\r\n        emit Log(gasleft());\r\n    }\r\n\r\n    receive() external payable {}\r\n\r\n    function deposit() public payable {\r\n        uint amount = msg.value;\r\n        _supportPMDonations[msg.sender] += msg.value;\r\n        emit DonationMade(amount, address(this).balance, msg.sender, _supportPMDonations[msg.sender]);\r\n    }\r\n        event DonationMade(uint256 amount, uint balance, address donationSender, uint totalDonationsBySender);\r\n\r\n\r\n    function getBalance() public view onlyOwner returns (uint) {\r\n        return address(this).balance;\r\n    }\r\n\r\n    function withdraw() external noReentrant onlyOwner{\r\n        // This forwards all available gas. Be sure to check the return value!\r\n        uint amount = address(this).balance;\r\n        (bool success, ) = msg.sender.call{value: amount}(\"\");\r\n        require(success, \"Transfer failed.\");\r\n        emit Withdraw(amount, address(this).balance, msg.sender);\r\n    }\r\n    event Withdraw(uint256 amount, uint256 balance, address withdrawAddress);\r\n\r\n    function totalSupply() public view returns (uint256) {\r\n        return totalIdentities.length;\r\n    }\r\n\r\n    event Pause();\r\n    event Unpause();\r\n\r\n    bool public paused = false;\r\n\r\n    modifier whenNotPaused() {\r\n        require(!paused);\r\n        _;\r\n    }\r\n\r\n    modifier whenPaused() {\r\n        require(paused);\r\n        _;\r\n    }\r\n\r\n    function pause() onlyOwner whenNotPaused public {\r\n        paused = true;\r\n        emit Pause();\r\n    }\r\n\r\n    function unpause() onlyOwner whenPaused public {\r\n        paused = false;\r\n        emit Unpause();\r\n    }\r\n\r\n    function mintNFI (\r\n        string memory _name,\r\n        string memory _email,\r\n        string memory _profession,\r\n        string memory _organization,\r\n        string memory _slogan,\r\n        string memory _website,\r\n        string memory _uniqueYou,\r\n        string memory _bgRGB,\r\n        uint _originDate\r\n    ) public virtual noReentrant payable whenNotPaused\r\n    {\r\n        require(!addressHasTokenBool(msg.sender),\" Wallet already has an NFI! You get one per wallet account\");\r\n        require(msg.value >= identityFee, \"Not enough ETH sent; check price!\");\r\n\r\n        identity memory _identity = identity({\r\n        walletAccount: msg.sender,\r\n        name: _name,\r\n        email: _email,\r\n        profession: _profession,\r\n        organization: _organization,\r\n        slogan: _slogan,\r\n        website: _website,\r\n        uniqueYou: _uniqueYou,\r\n        bgRGB: _bgRGB,\r\n        originDate: _originDate\r\n        });\r\n\r\n        totalIdentities.push(_identity);\r\n\r\n        uint256 newTokenID = totalIdentities.length - 1;\r\n\r\n        _dictionaryNFIs[msg.sender] = newTokenID;\r\n\r\n        _safeMint(msg.sender, newTokenID);\r\n\r\n        emit NFIMinted(msg.sender, newTokenID, block.timestamp );\r\n\r\n    }\r\n    event NFIMinted(address indexed _from, uint256 tokenId, uint256 timeStamp);\r\n\r\n    function setApprovalForAll(address operator, bool approved) public virtual override onlyOwner{}\r\n    function isApprovedForAll(address owner, address operator) public view virtual override onlyOwner returns (bool) {}\r\n    function transferFrom(address from, address to, uint256 tokenId) public virtual override onlyOwner{}\r\n    function safeTransferFrom(address from, address to, uint256 tokenId) public virtual override  onlyOwner {}\r\n    function safeTransferFrom(address from, address to, uint256 tokenId, bytes memory _data) public virtual override onlyOwner {}\r\n    function _safeTransfer(address from, address to, uint256 tokenId, bytes memory _data) internal virtual override onlyOwner {}\r\n}",
  "sourcePath": "/home/ramona/gitrepos/MintIdentityTPM/truffle/contracts/MintIdentity.sol",
  "compiler": {
    "name": "solc",
    "version": "0.8.10+commit.fc410830.Emscripten.clang"
  },
  "schemaVersion": "3.4.4",
  "updatedAt": "2022-03-04T02:39:00.181Z",
  "networkType": "ethereum",
  "devdoc": {
    "kind": "dev",
    "methods": {
      "approve(address,uint256)": {
        "details": "See {IERC721-approve}."
      },
      "balanceOf(address)": {
        "details": "See {IERC721-balanceOf}."
      },
      "getApproved(uint256)": {
        "details": "See {IERC721-getApproved}."
      },
      "isApprovedForAll(address,address)": {
        "details": "See {IERC721-isApprovedForAll}."
      },
      "name()": {
        "details": "See {IERC721Metadata-name}."
      },
      "owner()": {
        "details": "Returns the address of the current owner."
      },
      "ownerOf(uint256)": {
        "details": "See {IERC721-ownerOf}."
      },
      "renounceOwnership()": {
        "details": "Leaves the contract without owner. It will not be possible to call `onlyOwner` functions anymore. Can only be called by the current owner. NOTE: Renouncing ownership will leave the contract without an owner, thereby removing any functionality that is only available to the owner."
      },
      "safeTransferFrom(address,address,uint256)": {
        "details": "See {IERC721-safeTransferFrom}."
      },
      "safeTransferFrom(address,address,uint256,bytes)": {
        "details": "See {IERC721-safeTransferFrom}."
      },
      "setApprovalForAll(address,bool)": {
        "details": "See {IERC721-setApprovalForAll}."
      },
      "supportsInterface(bytes4)": {
        "details": "See {IERC165-supportsInterface}."
      },
      "symbol()": {
        "details": "See {IERC721Metadata-symbol}."
      },
      "tokenURI(uint256)": {
        "details": "See {IERC721Metadata-tokenURI}."
      },
      "transferFrom(address,address,uint256)": {
        "details": "See {IERC721-transferFrom}."
      },
      "transferOwnership(address)": {
        "details": "Transfers ownership of the contract to a new account (`newOwner`). Can only be called by the current owner."
      }
    },
    "version": 1
  },
  "userdoc": {
    "kind": "user",
    "methods": {},
    "version": 1
  }
}