{
  "contractName": "PaperMastersNFI",
  "abi": [
    {
      "inputs": [],
      "stateMutability": "nonpayable",
      "type": "constructor"
    },
    {
      "anonymous": false,
      "inputs": [
        {
          "indexed": true,
          "internalType": "address",
          "name": "owner",
          "type": "address"
        },
        {
          "indexed": true,
          "internalType": "address",
          "name": "approved",
          "type": "address"
        },
        {
          "indexed": true,
          "internalType": "uint256",
          "name": "tokenId",
          "type": "uint256"
        }
      ],
      "name": "Approval",
      "type": "event"
    },
    {
      "anonymous": false,
      "inputs": [
        {
          "indexed": true,
          "internalType": "address",
          "name": "owner",
          "type": "address"
        },
        {
          "indexed": true,
          "internalType": "address",
          "name": "operator",
          "type": "address"
        },
        {
          "indexed": false,
          "internalType": "bool",
          "name": "approved",
          "type": "bool"
        }
      ],
      "name": "ApprovalForAll",
      "type": "event"
    },
    {
      "anonymous": false,
      "inputs": [
        {
          "indexed": false,
          "internalType": "uint256",
          "name": "gas",
          "type": "uint256"
        }
      ],
      "name": "Log",
      "type": "event"
    },
    {
      "anonymous": false,
      "inputs": [
        {
          "indexed": true,
          "internalType": "address",
          "name": "_from",
          "type": "address"
        },
        {
          "indexed": false,
          "internalType": "uint256",
          "name": "tokenId",
          "type": "uint256"
        }
      ],
      "name": "NFIMinted",
      "type": "event"
    },
    {
      "anonymous": false,
      "inputs": [
        {
          "indexed": true,
          "internalType": "address",
          "name": "previousOwner",
          "type": "address"
        },
        {
          "indexed": true,
          "internalType": "address",
          "name": "newOwner",
          "type": "address"
        }
      ],
      "name": "OwnershipTransferred",
      "type": "event"
    },
    {
      "anonymous": false,
      "inputs": [],
      "name": "Pause",
      "type": "event"
    },
    {
      "anonymous": false,
      "inputs": [
        {
          "indexed": true,
          "internalType": "address",
          "name": "from",
          "type": "address"
        },
        {
          "indexed": true,
          "internalType": "address",
          "name": "to",
          "type": "address"
        },
        {
          "indexed": true,
          "internalType": "uint256",
          "name": "tokenId",
          "type": "uint256"
        }
      ],
      "name": "Transfer",
      "type": "event"
    },
    {
      "anonymous": false,
      "inputs": [],
      "name": "Unpause",
      "type": "event"
    },
    {
      "anonymous": false,
      "inputs": [
        {
          "indexed": false,
          "internalType": "uint256",
          "name": "amount",
          "type": "uint256"
        },
        {
          "indexed": false,
          "internalType": "uint256",
          "name": "balance",
          "type": "uint256"
        },
        {
          "indexed": false,
          "internalType": "address",
          "name": "withdrawAddress",
          "type": "address"
        }
      ],
      "name": "Withdraw",
      "type": "event"
    },
    {
      "stateMutability": "payable",
      "type": "fallback",
      "payable": true
    },
    {
      "inputs": [
        {
          "internalType": "address",
          "name": "",
          "type": "address"
        }
      ],
      "name": "_dictionaryNFIs",
      "outputs": [
        {
          "internalType": "uint256",
          "name": "",
          "type": "uint256"
        }
      ],
      "stateMutability": "view",
      "type": "function",
      "constant": true
    },
    {
      "inputs": [
        {
          "internalType": "address",
          "name": "to",
          "type": "address"
        },
        {
          "internalType": "uint256",
          "name": "tokenId",
          "type": "uint256"
        }
      ],
      "name": "approve",
      "outputs": [],
      "stateMutability": "nonpayable",
      "type": "function"
    },
    {
      "inputs": [
        {
          "internalType": "address",
          "name": "owner",
          "type": "address"
        }
      ],
      "name": "balanceOf",
      "outputs": [
        {
          "internalType": "uint256",
          "name": "",
          "type": "uint256"
        }
      ],
      "stateMutability": "view",
      "type": "function",
      "constant": true
    },
    {
      "inputs": [
        {
          "internalType": "uint256",
          "name": "tokenId",
          "type": "uint256"
        }
      ],
      "name": "getApproved",
      "outputs": [
        {
          "internalType": "address",
          "name": "",
          "type": "address"
        }
      ],
      "stateMutability": "view",
      "type": "function",
      "constant": true
    },
    {
      "inputs": [],
      "name": "name",
      "outputs": [
        {
          "internalType": "string",
          "name": "",
          "type": "string"
        }
      ],
      "stateMutability": "view",
      "type": "function",
      "constant": true
    },
    {
      "inputs": [],
      "name": "owner",
      "outputs": [
        {
          "internalType": "address",
          "name": "",
          "type": "address"
        }
      ],
      "stateMutability": "view",
      "type": "function",
      "constant": true
    },
    {
      "inputs": [
        {
          "internalType": "uint256",
          "name": "tokenId",
          "type": "uint256"
        }
      ],
      "name": "ownerOf",
      "outputs": [
        {
          "internalType": "address",
          "name": "",
          "type": "address"
        }
      ],
      "stateMutability": "view",
      "type": "function",
      "constant": true
    },
    {
      "inputs": [],
      "name": "paused",
      "outputs": [
        {
          "internalType": "bool",
          "name": "",
          "type": "bool"
        }
      ],
      "stateMutability": "view",
      "type": "function",
      "constant": true
    },
    {
      "inputs": [],
      "name": "renounceOwnership",
      "outputs": [],
      "stateMutability": "nonpayable",
      "type": "function"
    },
    {
      "inputs": [
        {
          "internalType": "bytes4",
          "name": "interfaceId",
          "type": "bytes4"
        }
      ],
      "name": "supportsInterface",
      "outputs": [
        {
          "internalType": "bool",
          "name": "",
          "type": "bool"
        }
      ],
      "stateMutability": "view",
      "type": "function",
      "constant": true
    },
    {
      "inputs": [],
      "name": "symbol",
      "outputs": [
        {
          "internalType": "string",
          "name": "",
          "type": "string"
        }
      ],
      "stateMutability": "view",
      "type": "function",
      "constant": true
    },
    {
      "inputs": [
        {
          "internalType": "address",
          "name": "newOwner",
          "type": "address"
        }
      ],
      "name": "transferOwnership",
      "outputs": [],
      "stateMutability": "nonpayable",
      "type": "function"
    },
    {
      "stateMutability": "payable",
      "type": "receive",
      "payable": true
    },
    {
      "inputs": [
        {
          "internalType": "address",
          "name": "walletAddress",
          "type": "address"
        }
      ],
      "name": "addressToTokenID",
      "outputs": [
        {
          "internalType": "uint256",
          "name": "",
          "type": "uint256"
        }
      ],
      "stateMutability": "view",
      "type": "function",
      "constant": true
    },
    {
      "inputs": [
        {
          "internalType": "uint256",
          "name": "_tokenid",
          "type": "uint256"
        }
      ],
      "name": "tokenIDtoIdentity",
      "outputs": [
        {
          "components": [
            {
              "internalType": "string",
              "name": "name",
              "type": "string"
            },
            {
              "internalType": "string",
              "name": "email",
              "type": "string"
            },
            {
              "internalType": "string",
              "name": "profession",
              "type": "string"
            },
            {
              "internalType": "string",
              "name": "organization",
              "type": "string"
            },
            {
              "internalType": "string",
              "name": "slogan",
              "type": "string"
            },
            {
              "internalType": "string",
              "name": "website",
              "type": "string"
            },
            {
              "internalType": "string",
              "name": "uniqueYou",
              "type": "string"
            },
            {
              "internalType": "string",
              "name": "backGroundRGB",
              "type": "string"
            },
            {
              "internalType": "uint256",
              "name": "originDate",
              "type": "uint256"
            },
            {
              "internalType": "string",
              "name": "linkToFinishedAvatar",
              "type": "string"
            }
          ],
          "internalType": "struct PaperMastersNFI.identity",
          "name": "",
          "type": "tuple"
        }
      ],
      "stateMutability": "view",
      "type": "function",
      "constant": true
    },
    {
      "inputs": [
        {
          "internalType": "address",
          "name": "walletAddress",
          "type": "address"
        }
      ],
      "name": "addressHasToken",
      "outputs": [
        {
          "internalType": "bool",
          "name": "",
          "type": "bool"
        }
      ],
      "stateMutability": "view",
      "type": "function",
      "constant": true
    },
    {
      "inputs": [
        {
          "internalType": "string",
          "name": "changeBaseURI",
          "type": "string"
        }
      ],
      "name": "setBaseURI",
      "outputs": [],
      "stateMutability": "nonpayable",
      "type": "function"
    },
    {
      "inputs": [
        {
          "internalType": "uint256",
          "name": "tokenId",
          "type": "uint256"
        }
      ],
      "name": "tokenURI",
      "outputs": [
        {
          "internalType": "string",
          "name": "",
          "type": "string"
        }
      ],
      "stateMutability": "view",
      "type": "function",
      "constant": true
    },
    {
      "inputs": [],
      "name": "getIdentityFee",
      "outputs": [
        {
          "internalType": "uint256",
          "name": "",
          "type": "uint256"
        }
      ],
      "stateMutability": "view",
      "type": "function",
      "constant": true
    },
    {
      "inputs": [
        {
          "internalType": "uint256",
          "name": "val",
          "type": "uint256"
        }
      ],
      "name": "setIdentityFee",
      "outputs": [],
      "stateMutability": "nonpayable",
      "type": "function"
    },
    {
      "inputs": [],
      "name": "deposit",
      "outputs": [],
      "stateMutability": "payable",
      "type": "function",
      "payable": true
    },
    {
      "inputs": [],
      "name": "getBalance",
      "outputs": [
        {
          "internalType": "uint256",
          "name": "",
          "type": "uint256"
        }
      ],
      "stateMutability": "view",
      "type": "function",
      "constant": true
    },
    {
      "inputs": [],
      "name": "withdraw",
      "outputs": [],
      "stateMutability": "nonpayable",
      "type": "function"
    },
    {
      "inputs": [],
      "name": "totalSupply",
      "outputs": [
        {
          "internalType": "uint256",
          "name": "",
          "type": "uint256"
        }
      ],
      "stateMutability": "view",
      "type": "function",
      "constant": true
    },
    {
      "inputs": [],
      "name": "pause",
      "outputs": [],
      "stateMutability": "nonpayable",
      "type": "function"
    },
    {
      "inputs": [],
      "name": "unpause",
      "outputs": [],
      "stateMutability": "nonpayable",
      "type": "function"
    },
    {
      "inputs": [
        {
          "internalType": "string",
          "name": "_name",
          "type": "string"
        },
        {
          "internalType": "string",
          "name": "_email",
          "type": "string"
        },
        {
          "internalType": "string",
          "name": "_profession",
          "type": "string"
        },
        {
          "internalType": "string",
          "name": "_organization",
          "type": "string"
        },
        {
          "internalType": "string",
          "name": "_slogan",
          "type": "string"
        },
        {
          "internalType": "string",
          "name": "_website",
          "type": "string"
        },
        {
          "internalType": "string",
          "name": "_uniqueYou",
          "type": "string"
        },
        {
          "internalType": "string",
          "name": "_backGroundRGB",
          "type": "string"
        },
        {
          "internalType": "uint256",
          "name": "_originDate",
          "type": "uint256"
        },
        {
          "internalType": "string",
          "name": "_linkToFinishedAvatar",
          "type": "string"
        }
      ],
      "name": "mintNFI",
      "outputs": [],
      "stateMutability": "payable",
      "type": "function",
      "payable": true
    },
    {
      "inputs": [
        {
          "internalType": "address",
          "name": "operator",
          "type": "address"
        },
        {
          "internalType": "bool",
          "name": "approved",
          "type": "bool"
        }
      ],
      "name": "setApprovalForAll",
      "outputs": [],
      "stateMutability": "nonpayable",
      "type": "function"
    },
    {
      "inputs": [
        {
          "internalType": "address",
          "name": "owner",
          "type": "address"
        },
        {
          "internalType": "address",
          "name": "operator",
          "type": "address"
        }
      ],
      "name": "isApprovedForAll",
      "outputs": [
        {
          "internalType": "bool",
          "name": "",
          "type": "bool"
        }
      ],
      "stateMutability": "view",
      "type": "function",
      "constant": true
    },
    {
      "inputs": [
        {
          "internalType": "address",
          "name": "from",
          "type": "address"
        },
        {
          "internalType": "address",
          "name": "to",
          "type": "address"
        },
        {
          "internalType": "uint256",
          "name": "tokenId",
          "type": "uint256"
        }
      ],
      "name": "transferFrom",
      "outputs": [],
      "stateMutability": "nonpayable",
      "type": "function"
    },
    {
      "inputs": [
        {
          "internalType": "address",
          "name": "from",
          "type": "address"
        },
        {
          "internalType": "address",
          "name": "to",
          "type": "address"
        },
        {
          "internalType": "uint256",
          "name": "tokenId",
          "type": "uint256"
        }
      ],
      "name": "safeTransferFrom",
      "outputs": [],
      "stateMutability": "nonpayable",
      "type": "function"
    },
    {
      "inputs": [
        {
          "internalType": "address",
          "name": "from",
          "type": "address"
        },
        {
          "internalType": "address",
          "name": "to",
          "type": "address"
        },
        {
          "internalType": "uint256",
          "name": "tokenId",
          "type": "uint256"
        },
        {
          "internalType": "bytes",
          "name": "_data",
          "type": "bytes"
        }
      ],
      "name": "safeTransferFrom",
      "outputs": [],
      "stateMutability": "nonpayable",
      "type": "function"
    }
  ],
  "bytecode": "0x60806040526000600b60016101000a81548160ff0219169083151502179055503480156200002c57600080fd5b506040518060400160405280600f81526020017f50617065724d6173746572734e464900000000000000000000000000000000008152506040518060400160405280600381526020017f4e464900000000000000000000000000000000000000000000000000000000008152508160009080519060200190620000b19291906200043b565b508060019080519060200190620000ca9291906200043b565b505050620000ed620000e16200036d60201b60201c565b6200037560201b60201c565b6040518060400160405280601c81526020017f7777772e70617065726d6173746572732e696f2f6964656e7469747900000000815250600790805190602001906200013a9291906200043b565b5066b1a2bc2ec500006008819055506009604051806101400160405280604051806020016040528060008152508152602001604051806020016040528060008152508152602001604051806020016040528060008152508152602001604051806020016040528060008152508152602001604051806020016040528060008152508152602001604051806020016040528060008152508152602001604051806020016040528060008152508152602001604051806020016040528060008152508152602001600081526020016040518060200160405280600081525081525090806001815401808255809150506001900390600052602060002090600a02016000909190919091506000820151816000019080519060200190620002609291906200043b565b5060208201518160010190805190602001906200027f9291906200043b565b5060408201518160020190805190602001906200029e9291906200043b565b506060820151816003019080519060200190620002bd9291906200043b565b506080820151816004019080519060200190620002dc9291906200043b565b5060a0820151816005019080519060200190620002fb9291906200043b565b5060c08201518160060190805190602001906200031a9291906200043b565b5060e0820151816007019080519060200190620003399291906200043b565b506101008201518160080155610120820151816009019080519060200190620003649291906200043b565b50505062000550565b600033905090565b6000600660009054906101000a900473ffffffffffffffffffffffffffffffffffffffff16905081600660006101000a81548173ffffffffffffffffffffffffffffffffffffffff021916908373ffffffffffffffffffffffffffffffffffffffff1602179055508173ffffffffffffffffffffffffffffffffffffffff168173ffffffffffffffffffffffffffffffffffffffff167f8be0079c531659141344cd1fd0a4f28419497f9722a3daafe3b4186f6b6457e060405160405180910390a35050565b82805462000449906200051a565b90600052602060002090601f0160209004810192826200046d5760008555620004b9565b82601f106200048857805160ff1916838001178555620004b9565b82800160010185558215620004b9579182015b82811115620004b85782518255916020019190600101906200049b565b5b509050620004c89190620004cc565b5090565b5b80821115620004e7576000816000905550600101620004cd565b5090565b7f4e487b7100000000000000000000000000000000000000000000000000000000600052602260045260246000fd5b600060028204905060018216806200053357607f821691505b602082108114156200054a5762000549620004eb565b5b50919050565b613d9580620005606000396000f3fe6080604052600436106101dc5760003560e01c8063715018a611610102578063adde18b011610095578063d0e30db011610064578063d0e30db0146106dc578063e985e9c5146106e6578063f2fde38b14610723578063f9c1f36f1461074c576101e3565b8063adde18b0146105fc578063b090218f14610639578063b88d4fde14610676578063c87b56dd1461069f576101e3565b8063916d26da116100d1578063916d26da1461054f57806395d89b411461058c578063a02275d9146105b7578063a22cb465146105d3576101e3565b8063715018a6146104cb5780638456cb59146104e25780638ae23730146104f95780638da5cb5b14610524576101e3565b806323b872dd1161017a57806355f804b31161014957806355f804b3146103fd5780635c975abb146104265780636352211e1461045157806370a082311461048e576101e3565b806323b872dd1461037d5780633ccfd60b146103a65780633f4ba83a146103bd57806342842e0e146103d4576101e3565b8063095ea7b3116101b6578063095ea7b3146102c15780630b3b1112146102ea57806312065fe01461032757806318160ddd14610352576101e3565b806301ffc9a71461021c57806306fdde0314610259578063081812fc14610284576101e3565b366101e357005b7f909c57d5c6ac08245cf2a6de3900e2b868513fa59099b92b27d8db823d92df9c5a604051610212919061283e565b60405180910390a1005b34801561022857600080fd5b50610243600480360381019061023e91906128c5565b610775565b604051610250919061290d565b60405180910390f35b34801561026557600080fd5b5061026e610857565b60405161027b91906129c1565b60405180910390f35b34801561029057600080fd5b506102ab60048036038101906102a69190612a0f565b6108e9565b6040516102b89190612a7d565b60405180910390f35b3480156102cd57600080fd5b506102e860048036038101906102e39190612ac4565b61096e565b005b3480156102f657600080fd5b50610311600480360381019061030c9190612a0f565b610a86565b60405161031e9190612c6f565b60405180910390f35b34801561033357600080fd5b5061033c610fef565b604051610349919061283e565b60405180910390f35b34801561035e57600080fd5b50610367611073565b604051610374919061283e565b60405180910390f35b34801561038957600080fd5b506103a4600480360381019061039f9190612c91565b611080565b005b3480156103b257600080fd5b506103bb611101565b005b3480156103c957600080fd5b506103d26112f3565b005b3480156103e057600080fd5b506103fb60048036038101906103f69190612c91565b6113d1565b005b34801561040957600080fd5b50610424600480360381019061041f9190612e19565b611452565b005b34801561043257600080fd5b5061043b6114e8565b604051610448919061290d565b60405180910390f35b34801561045d57600080fd5b5061047860048036038101906104739190612a0f565b6114fb565b6040516104859190612a7d565b60405180910390f35b34801561049a57600080fd5b506104b560048036038101906104b09190612e62565b6115ad565b6040516104c2919061283e565b60405180910390f35b3480156104d757600080fd5b506104e0611665565b005b3480156104ee57600080fd5b506104f76116ed565b005b34801561050557600080fd5b5061050e6117cc565b60405161051b919061283e565b60405180910390f35b34801561053057600080fd5b506105396117d6565b6040516105469190612a7d565b60405180910390f35b34801561055b57600080fd5b5061057660048036038101906105719190612e62565b611800565b604051610583919061283e565b60405180910390f35b34801561059857600080fd5b506105a1611818565b6040516105ae91906129c1565b60405180910390f35b6105d160048036038101906105cc9190612e8f565b6118aa565b005b3480156105df57600080fd5b506105fa60048036038101906105f59190613096565b611c21565b005b34801561060857600080fd5b50610623600480360381019061061e9190612e62565b611ca1565b604051610630919061283e565b60405180910390f35b34801561064557600080fd5b50610660600480360381019061065b9190612e62565b611cea565b60405161066d919061290d565b60405180910390f35b34801561068257600080fd5b5061069d60048036038101906106989190613177565b611d05565b005b3480156106ab57600080fd5b506106c660048036038101906106c19190612a0f565b611d87565b6040516106d391906129c1565b60405180910390f35b6106e4611e34565b005b3480156106f257600080fd5b5061070d600480360381019061070891906131fa565b611e36565b60405161071a919061290d565b60405180910390f35b34801561072f57600080fd5b5061074a60048036038101906107459190612e62565b611eba565b005b34801561075857600080fd5b50610773600480360381019061076e9190612a0f565b611fb2565b005b60007f80ac58cd000000000000000000000000000000000000000000000000000000007bffffffffffffffffffffffffffffffffffffffffffffffffffffffff1916827bffffffffffffffffffffffffffffffffffffffffffffffffffffffff1916148061084057507f5b5e139f000000000000000000000000000000000000000000000000000000007bffffffffffffffffffffffffffffffffffffffffffffffffffffffff1916827bffffffffffffffffffffffffffffffffffffffffffffffffffffffff1916145b80610850575061084f82612038565b5b9050919050565b60606000805461086690613269565b80601f016020809104026020016040519081016040528092919081815260200182805461089290613269565b80156108df5780601f106108b4576101008083540402835291602001916108df565b820191906000526020600020905b8154815290600101906020018083116108c257829003601f168201915b5050505050905090565b60006108f4826120a2565b610933576040517f08c379a000000000000000000000000000000000000000000000000000000000815260040161092a9061330d565b60405180910390fd5b6004600083815260200190815260200160002060009054906101000a900473ffffffffffffffffffffffffffffffffffffffff169050919050565b6000610979826114fb565b90508073ffffffffffffffffffffffffffffffffffffffff168373ffffffffffffffffffffffffffffffffffffffff1614156109ea576040517f08c379a00000000000000000000000000000000000000000000000000000000081526004016109e19061339f565b60405180910390fd5b8073ffffffffffffffffffffffffffffffffffffffff16610a0961210e565b73ffffffffffffffffffffffffffffffffffffffff161480610a385750610a3781610a3261210e565b611e36565b5b610a77576040517f08c379a0000000000000000000000000000000000000000000000000000000008152600401610a6e90613431565b60405180910390fd5b610a818383612116565b505050565b610a8e61272f565b60098281548110610aa257610aa1613451565b5b90600052602060002090600a020160405180610140016040529081600082018054610acc90613269565b80601f0160208091040260200160405190810160405280929190818152602001828054610af890613269565b8015610b455780601f10610b1a57610100808354040283529160200191610b45565b820191906000526020600020905b815481529060010190602001808311610b2857829003601f168201915b50505050508152602001600182018054610b5e90613269565b80601f0160208091040260200160405190810160405280929190818152602001828054610b8a90613269565b8015610bd75780601f10610bac57610100808354040283529160200191610bd7565b820191906000526020600020905b815481529060010190602001808311610bba57829003601f168201915b50505050508152602001600282018054610bf090613269565b80601f0160208091040260200160405190810160405280929190818152602001828054610c1c90613269565b8015610c695780601f10610c3e57610100808354040283529160200191610c69565b820191906000526020600020905b815481529060010190602001808311610c4c57829003601f168201915b50505050508152602001600382018054610c8290613269565b80601f0160208091040260200160405190810160405280929190818152602001828054610cae90613269565b8015610cfb5780601f10610cd057610100808354040283529160200191610cfb565b820191906000526020600020905b815481529060010190602001808311610cde57829003601f168201915b50505050508152602001600482018054610d1490613269565b80601f0160208091040260200160405190810160405280929190818152602001828054610d4090613269565b8015610d8d5780601f10610d6257610100808354040283529160200191610d8d565b820191906000526020600020905b815481529060010190602001808311610d7057829003601f168201915b50505050508152602001600582018054610da690613269565b80601f0160208091040260200160405190810160405280929190818152602001828054610dd290613269565b8015610e1f5780601f10610df457610100808354040283529160200191610e1f565b820191906000526020600020905b815481529060010190602001808311610e0257829003601f168201915b50505050508152602001600682018054610e3890613269565b80601f0160208091040260200160405190810160405280929190818152602001828054610e6490613269565b8015610eb15780601f10610e8657610100808354040283529160200191610eb1565b820191906000526020600020905b815481529060010190602001808311610e9457829003601f168201915b50505050508152602001600782018054610eca90613269565b80601f0160208091040260200160405190810160405280929190818152602001828054610ef690613269565b8015610f435780601f10610f1857610100808354040283529160200191610f43565b820191906000526020600020905b815481529060010190602001808311610f2657829003601f168201915b5050505050815260200160088201548152602001600982018054610f6690613269565b80601f0160208091040260200160405190810160405280929190818152602001828054610f9290613269565b8015610fdf5780601f10610fb457610100808354040283529160200191610fdf565b820191906000526020600020905b815481529060010190602001808311610fc257829003601f168201915b5050505050815250509050919050565b6000610ff961210e565b73ffffffffffffffffffffffffffffffffffffffff166110176117d6565b73ffffffffffffffffffffffffffffffffffffffff161461106d576040517f08c379a0000000000000000000000000000000000000000000000000000000008152600401611064906134cc565b60405180910390fd5b47905090565b6000600980549050905090565b61108861210e565b73ffffffffffffffffffffffffffffffffffffffff166110a66117d6565b73ffffffffffffffffffffffffffffffffffffffff16146110fc576040517f08c379a00000000000000000000000000000000000000000000000000000000081526004016110f3906134cc565b60405180910390fd5b505050565b600b60009054906101000a900460ff1615611151576040517f08c379a000000000000000000000000000000000000000000000000000000000815260040161114890613538565b60405180910390fd5b6001600b60006101000a81548160ff02191690831515021790555061117461210e565b73ffffffffffffffffffffffffffffffffffffffff166111926117d6565b73ffffffffffffffffffffffffffffffffffffffff16146111e8576040517f08c379a00000000000000000000000000000000000000000000000000000000081526004016111df906134cc565b60405180910390fd5b600047905060003373ffffffffffffffffffffffffffffffffffffffff168260405161121390613589565b60006040518083038185875af1925050503d8060008114611250576040519150601f19603f3d011682016040523d82523d6000602084013e611255565b606091505b5050905080611299576040517f08c379a0000000000000000000000000000000000000000000000000000000008152600401611290906135ea565b60405180910390fd5b7f71ef96c43343734b1d843bb85d52ef329f5e9143e4d35827771e3b0dd90c5f848247336040516112cc9392919061360a565b60405180910390a150506000600b60006101000a81548160ff021916908315150217905550565b6112fb61210e565b73ffffffffffffffffffffffffffffffffffffffff166113196117d6565b73ffffffffffffffffffffffffffffffffffffffff161461136f576040517f08c379a0000000000000000000000000000000000000000000000000000000008152600401611366906134cc565b60405180910390fd5b600b60019054906101000a900460ff1661138857600080fd5b6000600b60016101000a81548160ff0219169083151502179055507f7805862f689e2f13df9f062ff482ad3ad112aca9e0847911ed832e158c525b3360405160405180910390a1565b6113d961210e565b73ffffffffffffffffffffffffffffffffffffffff166113f76117d6565b73ffffffffffffffffffffffffffffffffffffffff161461144d576040517f08c379a0000000000000000000000000000000000000000000000000000000008152600401611444906134cc565b60405180910390fd5b505050565b61145a61210e565b73ffffffffffffffffffffffffffffffffffffffff166114786117d6565b73ffffffffffffffffffffffffffffffffffffffff16146114ce576040517f08c379a00000000000000000000000000000000000000000000000000000000081526004016114c5906134cc565b60405180910390fd5b80600790805190602001906114e4929190612782565b5050565b600b60019054906101000a900460ff1681565b6000806002600084815260200190815260200160002060009054906101000a900473ffffffffffffffffffffffffffffffffffffffff169050600073ffffffffffffffffffffffffffffffffffffffff168173ffffffffffffffffffffffffffffffffffffffff1614156115a4576040517f08c379a000000000000000000000000000000000000000000000000000000000815260040161159b906136b3565b60405180910390fd5b80915050919050565b60008073ffffffffffffffffffffffffffffffffffffffff168273ffffffffffffffffffffffffffffffffffffffff16141561161e576040517f08c379a000000000000000000000000000000000000000000000000000000000815260040161161590613745565b60405180910390fd5b600360008373ffffffffffffffffffffffffffffffffffffffff1673ffffffffffffffffffffffffffffffffffffffff168152602001908152602001600020549050919050565b61166d61210e565b73ffffffffffffffffffffffffffffffffffffffff1661168b6117d6565b73ffffffffffffffffffffffffffffffffffffffff16146116e1576040517f08c379a00000000000000000000000000000000000000000000000000000000081526004016116d8906134cc565b60405180910390fd5b6116eb60006121cf565b565b6116f561210e565b73ffffffffffffffffffffffffffffffffffffffff166117136117d6565b73ffffffffffffffffffffffffffffffffffffffff1614611769576040517f08c379a0000000000000000000000000000000000000000000000000000000008152600401611760906134cc565b60405180910390fd5b600b60019054906101000a900460ff161561178357600080fd5b6001600b60016101000a81548160ff0219169083151502179055507f6985a02210a168e66602d3235cb6db0e70f92b3ba4d376a33c0f3d9434bff62560405160405180910390a1565b6000600854905090565b6000600660009054906101000a900473ffffffffffffffffffffffffffffffffffffffff16905090565b600a6020528060005260406000206000915090505481565b60606001805461182790613269565b80601f016020809104026020016040519081016040528092919081815260200182805461185390613269565b80156118a05780601f10611875576101008083540402835291602001916118a0565b820191906000526020600020905b81548152906001019060200180831161188357829003601f168201915b5050505050905090565b600b60009054906101000a900460ff16156118fa576040517f08c379a00000000000000000000000000000000000000000000000000000000081526004016118f190613538565b60405180910390fd5b6001600b60006101000a81548160ff021916908315150217905550600b60019054906101000a900460ff161561192f57600080fd5b61193833611cea565b15611978576040517f08c379a000000000000000000000000000000000000000000000000000000000815260040161196f906137d7565b60405180910390fd5b6008543410156119bd576040517f08c379a00000000000000000000000000000000000000000000000000000000081526004016119b490613869565b60405180910390fd5b60006040518061014001604052808c81526020018b81526020018a815260200189815260200188815260200187815260200186815260200185815260200184815260200183815250905060098190806001815401808255809150506001900390600052602060002090600a02016000909190919091506000820151816000019080519060200190611a4f929190612782565b506020820151816001019080519060200190611a6c929190612782565b506040820151816002019080519060200190611a89929190612782565b506060820151816003019080519060200190611aa6929190612782565b506080820151816004019080519060200190611ac3929190612782565b5060a0820151816005019080519060200190611ae0929190612782565b5060c0820151816006019080519060200190611afd929190612782565b5060e0820151816007019080519060200190611b1a929190612782565b506101008201518160080155610120820151816009019080519060200190611b43929190612782565b50505060006001600980549050611b5a91906138b8565b905080600a60003373ffffffffffffffffffffffffffffffffffffffff1673ffffffffffffffffffffffffffffffffffffffff16815260200190815260200160002081905550611baa3382612295565b3373ffffffffffffffffffffffffffffffffffffffff167f95a6674962ea809502bf598594df766970752159ed9a7a2e33bab16608e708cc82604051611bf0919061283e565b60405180910390a250506000600b60006101000a81548160ff02191690831515021790555050505050505050505050565b611c2961210e565b73ffffffffffffffffffffffffffffffffffffffff16611c476117d6565b73ffffffffffffffffffffffffffffffffffffffff1614611c9d576040517f08c379a0000000000000000000000000000000000000000000000000000000008152600401611c94906134cc565b60405180910390fd5b5050565b6000600a60008373ffffffffffffffffffffffffffffffffffffffff1673ffffffffffffffffffffffffffffffffffffffff168152602001908152602001600020549050919050565b600080611cf683611ca1565b90506001811015915050919050565b611d0d61210e565b73ffffffffffffffffffffffffffffffffffffffff16611d2b6117d6565b73ffffffffffffffffffffffffffffffffffffffff1614611d81576040517f08c379a0000000000000000000000000000000000000000000000000000000008152600401611d78906134cc565b60405180910390fd5b50505050565b6060611d92826120a2565b611dd1576040517f08c379a0000000000000000000000000000000000000000000000000000000008152600401611dc89061395e565b60405180910390fd5b6000611ddc836114fb565b90506000611de86122b3565b90506000815111611e085760405180602001604052806000815250611e2b565b8082604051602001611e1b929190613a02565b6040516020818303038152906040525b92505050919050565b565b6000611e4061210e565b73ffffffffffffffffffffffffffffffffffffffff16611e5e6117d6565b73ffffffffffffffffffffffffffffffffffffffff1614611eb4576040517f08c379a0000000000000000000000000000000000000000000000000000000008152600401611eab906134cc565b60405180910390fd5b92915050565b611ec261210e565b73ffffffffffffffffffffffffffffffffffffffff16611ee06117d6565b73ffffffffffffffffffffffffffffffffffffffff1614611f36576040517f08c379a0000000000000000000000000000000000000000000000000000000008152600401611f2d906134cc565b60405180910390fd5b600073ffffffffffffffffffffffffffffffffffffffff168173ffffffffffffffffffffffffffffffffffffffff161415611fa6576040517f08c379a0000000000000000000000000000000000000000000000000000000008152600401611f9d90613a9c565b60405180910390fd5b611faf816121cf565b50565b611fba61210e565b73ffffffffffffffffffffffffffffffffffffffff16611fd86117d6565b73ffffffffffffffffffffffffffffffffffffffff161461202e576040517f08c379a0000000000000000000000000000000000000000000000000000000008152600401612025906134cc565b60405180910390fd5b8060088190555050565b60007f01ffc9a7000000000000000000000000000000000000000000000000000000007bffffffffffffffffffffffffffffffffffffffffffffffffffffffff1916827bffffffffffffffffffffffffffffffffffffffffffffffffffffffff1916149050919050565b60008073ffffffffffffffffffffffffffffffffffffffff166002600084815260200190815260200160002060009054906101000a900473ffffffffffffffffffffffffffffffffffffffff1673ffffffffffffffffffffffffffffffffffffffff1614159050919050565b600033905090565b816004600083815260200190815260200160002060006101000a81548173ffffffffffffffffffffffffffffffffffffffff021916908373ffffffffffffffffffffffffffffffffffffffff160217905550808273ffffffffffffffffffffffffffffffffffffffff16612189836114fb565b73ffffffffffffffffffffffffffffffffffffffff167f8c5be1e5ebec7d5bd14f71427d1e84f3dd0314c0f7b2291e5b200ac8c7c3b92560405160405180910390a45050565b6000600660009054906101000a900473ffffffffffffffffffffffffffffffffffffffff16905081600660006101000a81548173ffffffffffffffffffffffffffffffffffffffff021916908373ffffffffffffffffffffffffffffffffffffffff1602179055508173ffffffffffffffffffffffffffffffffffffffff168173ffffffffffffffffffffffffffffffffffffffff167f8be0079c531659141344cd1fd0a4f28419497f9722a3daafe3b4186f6b6457e060405160405180910390a35050565b6122af828260405180602001604052806000815250612345565b5050565b6060600780546122c290613269565b80601f01602080910402602001604051908101604052809291908181526020018280546122ee90613269565b801561233b5780601f106123105761010080835404028352916020019161233b565b820191906000526020600020905b81548152906001019060200180831161231e57829003601f168201915b5050505050905090565b61234f83836123a0565b61235c600084848461257a565b61239b576040517f08c379a000000000000000000000000000000000000000000000000000000000815260040161239290613b2e565b60405180910390fd5b505050565b600073ffffffffffffffffffffffffffffffffffffffff168273ffffffffffffffffffffffffffffffffffffffff161415612410576040517f08c379a000000000000000000000000000000000000000000000000000000000815260040161240790613b9a565b60405180910390fd5b612419816120a2565b15612459576040517f08c379a000000000000000000000000000000000000000000000000000000000815260040161245090613c06565b60405180910390fd5b61246560008383612702565b6001600360008473ffffffffffffffffffffffffffffffffffffffff1673ffffffffffffffffffffffffffffffffffffffff16815260200190815260200160002060008282546124b59190613c26565b92505081905550816002600083815260200190815260200160002060006101000a81548173ffffffffffffffffffffffffffffffffffffffff021916908373ffffffffffffffffffffffffffffffffffffffff160217905550808273ffffffffffffffffffffffffffffffffffffffff16600073ffffffffffffffffffffffffffffffffffffffff167fddf252ad1be2c89b69c2b068fc378daa952ba7f163c4a11628f55a4df523b3ef60405160405180910390a461257660008383612707565b5050565b600061259b8473ffffffffffffffffffffffffffffffffffffffff1661270c565b156126f5578373ffffffffffffffffffffffffffffffffffffffff1663150b7a026125c461210e565b8786866040518563ffffffff1660e01b81526004016125e69493929190613cd1565b6020604051808303816000875af192505050801561262257506040513d601f19601f8201168201806040525081019061261f9190613d32565b60015b6126a5573d8060008114612652576040519150601f19603f3d011682016040523d82523d6000602084013e612657565b606091505b5060008151141561269d576040517f08c379a000000000000000000000000000000000000000000000000000000000815260040161269490613b2e565b60405180910390fd5b805181602001fd5b63150b7a0260e01b7bffffffffffffffffffffffffffffffffffffffffffffffffffffffff1916817bffffffffffffffffffffffffffffffffffffffffffffffffffffffff1916149150506126fa565b600190505b949350505050565b505050565b505050565b6000808273ffffffffffffffffffffffffffffffffffffffff163b119050919050565b604051806101400160405280606081526020016060815260200160608152602001606081526020016060815260200160608152602001606081526020016060815260200160008152602001606081525090565b82805461278e90613269565b90600052602060002090601f0160209004810192826127b057600085556127f7565b82601f106127c957805160ff19168380011785556127f7565b828001600101855582156127f7579182015b828111156127f65782518255916020019190600101906127db565b5b5090506128049190612808565b5090565b5b80821115612821576000816000905550600101612809565b5090565b6000819050919050565b61283881612825565b82525050565b6000602082019050612853600083018461282f565b92915050565b6000604051905090565b600080fd5b600080fd5b60007fffffffff0000000000000000000000000000000000000000000000000000000082169050919050565b6128a28161286d565b81146128ad57600080fd5b50565b6000813590506128bf81612899565b92915050565b6000602082840312156128db576128da612863565b5b60006128e9848285016128b0565b91505092915050565b60008115159050919050565b612907816128f2565b82525050565b600060208201905061292260008301846128fe565b92915050565b600081519050919050565b600082825260208201905092915050565b60005b83811015612962578082015181840152602081019050612947565b83811115612971576000848401525b50505050565b6000601f19601f8301169050919050565b600061299382612928565b61299d8185612933565b93506129ad818560208601612944565b6129b681612977565b840191505092915050565b600060208201905081810360008301526129db8184612988565b905092915050565b6129ec81612825565b81146129f757600080fd5b50565b600081359050612a09816129e3565b92915050565b600060208284031215612a2557612a24612863565b5b6000612a33848285016129fa565b91505092915050565b600073ffffffffffffffffffffffffffffffffffffffff82169050919050565b6000612a6782612a3c565b9050919050565b612a7781612a5c565b82525050565b6000602082019050612a926000830184612a6e565b92915050565b612aa181612a5c565b8114612aac57600080fd5b50565b600081359050612abe81612a98565b92915050565b60008060408385031215612adb57612ada612863565b5b6000612ae985828601612aaf565b9250506020612afa858286016129fa565b9150509250929050565b600082825260208201905092915050565b6000612b2082612928565b612b2a8185612b04565b9350612b3a818560208601612944565b612b4381612977565b840191505092915050565b612b5781612825565b82525050565b6000610140830160008301518482036000860152612b7b8282612b15565b91505060208301518482036020860152612b958282612b15565b91505060408301518482036040860152612baf8282612b15565b91505060608301518482036060860152612bc98282612b15565b91505060808301518482036080860152612be38282612b15565b91505060a083015184820360a0860152612bfd8282612b15565b91505060c083015184820360c0860152612c178282612b15565b91505060e083015184820360e0860152612c318282612b15565b915050610100830151612c48610100860182612b4e565b50610120830151848203610120860152612c628282612b15565b9150508091505092915050565b60006020820190508181036000830152612c898184612b5d565b905092915050565b600080600060608486031215612caa57612ca9612863565b5b6000612cb886828701612aaf565b9350506020612cc986828701612aaf565b9250506040612cda868287016129fa565b9150509250925092565b600080fd5b600080fd5b7f4e487b7100000000000000000000000000000000000000000000000000000000600052604160045260246000fd5b612d2682612977565b810181811067ffffffffffffffff82111715612d4557612d44612cee565b5b80604052505050565b6000612d58612859565b9050612d648282612d1d565b919050565b600067ffffffffffffffff821115612d8457612d83612cee565b5b612d8d82612977565b9050602081019050919050565b82818337600083830152505050565b6000612dbc612db784612d69565b612d4e565b905082815260208101848484011115612dd857612dd7612ce9565b5b612de3848285612d9a565b509392505050565b600082601f830112612e0057612dff612ce4565b5b8135612e10848260208601612da9565b91505092915050565b600060208284031215612e2f57612e2e612863565b5b600082013567ffffffffffffffff811115612e4d57612e4c612868565b5b612e5984828501612deb565b91505092915050565b600060208284031215612e7857612e77612863565b5b6000612e8684828501612aaf565b91505092915050565b6000806000806000806000806000806101408b8d031215612eb357612eb2612863565b5b60008b013567ffffffffffffffff811115612ed157612ed0612868565b5b612edd8d828e01612deb565b9a505060208b013567ffffffffffffffff811115612efe57612efd612868565b5b612f0a8d828e01612deb565b99505060408b013567ffffffffffffffff811115612f2b57612f2a612868565b5b612f378d828e01612deb565b98505060608b013567ffffffffffffffff811115612f5857612f57612868565b5b612f648d828e01612deb565b97505060808b013567ffffffffffffffff811115612f8557612f84612868565b5b612f918d828e01612deb565b96505060a08b013567ffffffffffffffff811115612fb257612fb1612868565b5b612fbe8d828e01612deb565b95505060c08b013567ffffffffffffffff811115612fdf57612fde612868565b5b612feb8d828e01612deb565b94505060e08b013567ffffffffffffffff81111561300c5761300b612868565b5b6130188d828e01612deb565b93505061010061302a8d828e016129fa565b9250506101208b013567ffffffffffffffff81111561304c5761304b612868565b5b6130588d828e01612deb565b9150509295989b9194979a5092959850565b613073816128f2565b811461307e57600080fd5b50565b6000813590506130908161306a565b92915050565b600080604083850312156130ad576130ac612863565b5b60006130bb85828601612aaf565b92505060206130cc85828601613081565b9150509250929050565b600067ffffffffffffffff8211156130f1576130f0612cee565b5b6130fa82612977565b9050602081019050919050565b600061311a613115846130d6565b612d4e565b90508281526020810184848401111561313657613135612ce9565b5b613141848285612d9a565b509392505050565b600082601f83011261315e5761315d612ce4565b5b813561316e848260208601613107565b91505092915050565b6000806000806080858703121561319157613190612863565b5b600061319f87828801612aaf565b94505060206131b087828801612aaf565b93505060406131c1878288016129fa565b925050606085013567ffffffffffffffff8111156131e2576131e1612868565b5b6131ee87828801613149565b91505092959194509250565b6000806040838503121561321157613210612863565b5b600061321f85828601612aaf565b925050602061323085828601612aaf565b9150509250929050565b7f4e487b7100000000000000000000000000000000000000000000000000000000600052602260045260246000fd5b6000600282049050600182168061328157607f821691505b602082108114156132955761329461323a565b5b50919050565b7f4552433732313a20617070726f76656420717565727920666f72206e6f6e657860008201527f697374656e7420746f6b656e0000000000000000000000000000000000000000602082015250565b60006132f7602c83612933565b91506133028261329b565b604082019050919050565b60006020820190508181036000830152613326816132ea565b9050919050565b7f4552433732313a20617070726f76616c20746f2063757272656e74206f776e6560008201527f7200000000000000000000000000000000000000000000000000000000000000602082015250565b6000613389602183612933565b91506133948261332d565b604082019050919050565b600060208201905081810360008301526133b88161337c565b9050919050565b7f4552433732313a20617070726f76652063616c6c6572206973206e6f74206f7760008201527f6e6572206e6f7220617070726f76656420666f7220616c6c0000000000000000602082015250565b600061341b603883612933565b9150613426826133bf565b604082019050919050565b6000602082019050818103600083015261344a8161340e565b9050919050565b7f4e487b7100000000000000000000000000000000000000000000000000000000600052603260045260246000fd5b7f4f776e61626c653a2063616c6c6572206973206e6f7420746865206f776e6572600082015250565b60006134b6602083612933565b91506134c182613480565b602082019050919050565b600060208201905081810360008301526134e5816134a9565b9050919050565b7f4e6f2072652d656e7472616e6379000000000000000000000000000000000000600082015250565b6000613522600e83612933565b915061352d826134ec565b602082019050919050565b6000602082019050818103600083015261355181613515565b9050919050565b600081905092915050565b50565b6000613573600083613558565b915061357e82613563565b600082019050919050565b600061359482613566565b9150819050919050565b7f5472616e73666572206661696c65642e00000000000000000000000000000000600082015250565b60006135d4601083612933565b91506135df8261359e565b602082019050919050565b60006020820190508181036000830152613603816135c7565b9050919050565b600060608201905061361f600083018661282f565b61362c602083018561282f565b6136396040830184612a6e565b949350505050565b7f4552433732313a206f776e657220717565727920666f72206e6f6e657869737460008201527f656e7420746f6b656e0000000000000000000000000000000000000000000000602082015250565b600061369d602983612933565b91506136a882613641565b604082019050919050565b600060208201905081810360008301526136cc81613690565b9050919050565b7f4552433732313a2062616c616e636520717565727920666f7220746865207a6560008201527f726f206164647265737300000000000000000000000000000000000000000000602082015250565b600061372f602a83612933565b915061373a826136d3565b604082019050919050565b6000602082019050818103600083015261375e81613722565b9050919050565b7f2057616c6c657420616c72656164792068617320616e204e46492120596f752060008201527f676574206f6e65207065722077616c6c6574206163636f756e74000000000000602082015250565b60006137c1603a83612933565b91506137cc82613765565b604082019050919050565b600060208201905081810360008301526137f0816137b4565b9050919050565b7f4e6f7420656e6f756768204554482073656e743b20636865636b20707269636560008201527f2100000000000000000000000000000000000000000000000000000000000000602082015250565b6000613853602183612933565b915061385e826137f7565b604082019050919050565b6000602082019050818103600083015261388281613846565b9050919050565b7f4e487b7100000000000000000000000000000000000000000000000000000000600052601160045260246000fd5b60006138c382612825565b91506138ce83612825565b9250828210156138e1576138e0613889565b5b828203905092915050565b7f4552433732314d657461646174613a2055524920717565727920666f72206e6f60008201527f6e6578697374656e7420746f6b656e0000000000000000000000000000000000602082015250565b6000613948602f83612933565b9150613953826138ec565b604082019050919050565b600060208201905081810360008301526139778161393b565b9050919050565b600081905092915050565b600061399482612928565b61399e818561397e565b93506139ae818560208601612944565b80840191505092915050565b60008160601b9050919050565b60006139d2826139ba565b9050919050565b60006139e4826139c7565b9050919050565b6139fc6139f782612a5c565b6139d9565b82525050565b6000613a0e8285613989565b9150613a1a82846139eb565b6014820191508190509392505050565b7f4f776e61626c653a206e6577206f776e657220697320746865207a65726f206160008201527f6464726573730000000000000000000000000000000000000000000000000000602082015250565b6000613a86602683612933565b9150613a9182613a2a565b604082019050919050565b60006020820190508181036000830152613ab581613a79565b9050919050565b7f4552433732313a207472616e7366657220746f206e6f6e20455243373231526560008201527f63656976657220696d706c656d656e7465720000000000000000000000000000602082015250565b6000613b18603283612933565b9150613b2382613abc565b604082019050919050565b60006020820190508181036000830152613b4781613b0b565b9050919050565b7f4552433732313a206d696e7420746f20746865207a65726f2061646472657373600082015250565b6000613b84602083612933565b9150613b8f82613b4e565b602082019050919050565b60006020820190508181036000830152613bb381613b77565b9050919050565b7f4552433732313a20746f6b656e20616c7265616479206d696e74656400000000600082015250565b6000613bf0601c83612933565b9150613bfb82613bba565b602082019050919050565b60006020820190508181036000830152613c1f81613be3565b9050919050565b6000613c3182612825565b9150613c3c83612825565b9250827fffffffffffffffffffffffffffffffffffffffffffffffffffffffffffffffff03821115613c7157613c70613889565b5b828201905092915050565b600081519050919050565b600082825260208201905092915050565b6000613ca382613c7c565b613cad8185613c87565b9350613cbd818560208601612944565b613cc681612977565b840191505092915050565b6000608082019050613ce66000830187612a6e565b613cf36020830186612a6e565b613d00604083018561282f565b8181036060830152613d128184613c98565b905095945050505050565b600081519050613d2c81612899565b92915050565b600060208284031215613d4857613d47612863565b5b6000613d5684828501613d1d565b9150509291505056fea2646970667358221220daab5203e577bc7395da78b9207a8b318ccc6fbfae6fd9629479866905e6d09264736f6c634300080a0033",
  "immutableReferences": {},
  "source": "// SPDX-License-Identifier: GPL-3.0\r\npragma solidity >=0.8.0 <0.9.0;\r\n\r\nimport \"@openzeppelin/contracts/token/ERC721/ERC721.sol\";\r\nimport \"@openzeppelin/contracts/access/Ownable.sol\";\r\n\r\ncontract PaperMastersNFI is ERC721, Ownable {\r\n\r\n    string private _setBaseURI;\r\n    uint256 private identityFee;\r\n\r\n    struct identity\r\n    {\r\n        string name;\r\n        string email;\r\n        string profession;\r\n        string organization;\r\n        string slogan;\r\n        string website;\r\n        string uniqueYou;\r\n        string backGroundRGB;\r\n        uint originDate;\r\n        string linkToFinishedAvatar;\r\n    }\r\n\r\n    //an array of type identity of the total identities minted\r\n    identity[] totalIdentities;\r\n\r\n    //just making a generic mapping of address to number\r\n    mapping(address => uint256) public _dictionaryNFIs;\r\n\r\n    //prevents ren-entry when modifier is added to a function\r\n    bool internal locked;\r\n    modifier noReentrant() {\r\n        require(!locked, \"No re-entrancy\");\r\n        locked = true;\r\n        _;\r\n        locked = false;\r\n    }\r\n\r\n    constructor() ERC721(\"PaperMastersNFI\", \"NFI\") {\r\n        _setBaseURI = \"www.papermasters.io/identity\";\r\n        identityFee = 5e16;\r\n        totalIdentities.push(identity('','','','','','','','',0,'')); // This is needed to fill the 0 token. The 0 Token is an invalid token\r\n    }\r\n\r\n    function addressToTokenID(address walletAddress) public view returns(uint256) {\r\n        return _dictionaryNFIs[walletAddress];\r\n    }\r\n\r\n    function tokenIDtoIdentity(uint256 _tokenid) public view returns(identity memory) {\r\n        return totalIdentities[_tokenid];\r\n    }\r\n\r\n\r\n    function addressHasToken(address walletAddress) public view returns(bool) {\r\n        uint256 _tokenId = addressToTokenID(walletAddress);\r\n        return _tokenId >= 1;\r\n    }\r\n\r\n    function setBaseURI(string memory changeBaseURI) public onlyOwner{\r\n        _setBaseURI = changeBaseURI;\r\n    }\r\n\r\n\r\n    function _baseURI() internal view virtual override returns (string memory) {\r\n        return _setBaseURI;\r\n    }\r\n\r\n    function tokenURI(uint256 tokenId) public view virtual override returns (string memory) {\r\n        require(_exists(tokenId), \"ERC721Metadata: URI query for nonexistent token\");\r\n\r\n        address owner = ownerOf(tokenId);\r\n\r\n        string memory baseURI = _baseURI();\r\n\r\n        return bytes(baseURI).length > 0 ? string(abi.encodePacked(baseURI, owner)) : \"\";\r\n    }\r\n\r\n    function getIdentityFee() public view returns (uint256) {\r\n        return identityFee;\r\n    }\r\n\r\n    function setIdentityFee(uint256 val) external onlyOwner {\r\n        identityFee = val;\r\n    }\r\n\r\n    event Log(uint gas);\r\n\r\n    // Fallback function must be declared as external.\r\n    fallback() external payable {\r\n        // send / transfer (forwards 2300 gas to this fallback function)\r\n        // call (forwards all of the gas)\r\n        emit Log(gasleft());\r\n    }\r\n\r\n    receive() external payable {}\r\n\r\n    function deposit() public payable {}\r\n\r\n    function getBalance() public view onlyOwner returns (uint) {\r\n        return address(this).balance;\r\n    }\r\n\r\n    function withdraw() external noReentrant onlyOwner{\r\n        // This forwards all available gas. Be sure to check the return value!\r\n        uint amount = address(this).balance;\r\n        (bool success, ) = msg.sender.call{value: amount}(\"\");\r\n        require(success, \"Transfer failed.\");\r\n        emit Withdraw(amount, address(this).balance, msg.sender);\r\n    }\r\n    event Withdraw(uint256 amount, uint256 balance, address withdrawAddress);\r\n\r\n\r\n    function totalSupply() public view returns (uint256) {\r\n        return totalIdentities.length;\r\n    }\r\n\r\n    event Pause();\r\n    event Unpause();\r\n\r\n    bool public paused = false;\r\n\r\n    modifier whenNotPaused() {\r\n        require(!paused);\r\n        _;\r\n    }\r\n\r\n\r\n    modifier whenPaused() {\r\n        require(paused);\r\n        _;\r\n    }\r\n\r\n\r\n    function pause() onlyOwner whenNotPaused public {\r\n        paused = true;\r\n        emit Pause();\r\n    }\r\n\r\n    function unpause() onlyOwner whenPaused public {\r\n        paused = false;\r\n        emit Unpause();\r\n    }\r\n\r\n    function mintNFI (\r\n        string memory _name,\r\n        string memory _email,\r\n        string memory _profession,\r\n        string memory _organization,\r\n        string memory _slogan,\r\n        string memory _website,\r\n        string memory _uniqueYou,\r\n        string memory _backGroundRGB,\r\n        uint _originDate,\r\n        string memory _linkToFinishedAvatar\r\n    ) public virtual noReentrant payable whenNotPaused\r\n\r\n    {\r\n        require(!addressHasToken(msg.sender),\" Wallet already has an NFI! You get one per wallet account\");\r\n        require(msg.value >= identityFee, \"Not enough ETH sent; check price!\");\r\n\r\n        identity memory _identity = identity({\r\n        name: _name,\r\n        email: _email,\r\n        profession: _profession,\r\n        organization: _organization,\r\n        slogan: _slogan,\r\n        website: _website,\r\n        uniqueYou: _uniqueYou,\r\n        backGroundRGB: _backGroundRGB,\r\n        originDate: _originDate,\r\n        linkToFinishedAvatar: _linkToFinishedAvatar\r\n        });\r\n\r\n        totalIdentities.push(_identity);\r\n\r\n        uint256 newTokenID = totalIdentities.length - 1;\r\n\r\n        _dictionaryNFIs[msg.sender] = newTokenID;\r\n\r\n        _safeMint(msg.sender, newTokenID);\r\n\r\n        emit NFIMinted(msg.sender, newTokenID);\r\n\r\n    }\r\n\r\n    event NFIMinted(address indexed _from, uint256 tokenId);\r\n\r\n    function setApprovalForAll(address operator, bool approved) public virtual override onlyOwner{}\r\n    function isApprovedForAll(address owner, address operator) public view virtual override onlyOwner returns (bool) {}\r\n    function transferFrom(address from, address to, uint256 tokenId) public virtual override onlyOwner{}\r\n    function safeTransferFrom(address from, address to, uint256 tokenId) public virtual override  onlyOwner {}\r\n    function safeTransferFrom(address from, address to, uint256 tokenId, bytes memory _data) public virtual override onlyOwner {}\r\n    function _safeTransfer(address from, address to, uint256 tokenId, bytes memory _data) internal virtual override onlyOwner {}\r\n\r\n}",
  "sourcePath": "/home/ramona/gitrepos/MintIdentityTPM/truffle/contracts/MintIdentity.sol",
  "compiler": {
    "name": "solc",
    "version": "0.8.10+commit.fc410830.Emscripten.clang"
  },
  "schemaVersion": "3.4.4",
  "updatedAt": "2022-02-18T04:37:38.885Z",
  "networkType": "ethereum",
  "devdoc": {
    "kind": "dev",
    "methods": {
      "approve(address,uint256)": {
        "details": "See {IERC721-approve}."
      },
      "balanceOf(address)": {
        "details": "See {IERC721-balanceOf}."
      },
      "getApproved(uint256)": {
        "details": "See {IERC721-getApproved}."
      },
      "isApprovedForAll(address,address)": {
        "details": "See {IERC721-isApprovedForAll}."
      },
      "name()": {
        "details": "See {IERC721Metadata-name}."
      },
      "owner()": {
        "details": "Returns the address of the current owner."
      },
      "ownerOf(uint256)": {
        "details": "See {IERC721-ownerOf}."
      },
      "renounceOwnership()": {
        "details": "Leaves the contract without owner. It will not be possible to call `onlyOwner` functions anymore. Can only be called by the current owner. NOTE: Renouncing ownership will leave the contract without an owner, thereby removing any functionality that is only available to the owner."
      },
      "safeTransferFrom(address,address,uint256)": {
        "details": "See {IERC721-safeTransferFrom}."
      },
      "safeTransferFrom(address,address,uint256,bytes)": {
        "details": "See {IERC721-safeTransferFrom}."
      },
      "setApprovalForAll(address,bool)": {
        "details": "See {IERC721-setApprovalForAll}."
      },
      "supportsInterface(bytes4)": {
        "details": "See {IERC165-supportsInterface}."
      },
      "symbol()": {
        "details": "See {IERC721Metadata-symbol}."
      },
      "tokenURI(uint256)": {
        "details": "See {IERC721Metadata-tokenURI}."
      },
      "transferFrom(address,address,uint256)": {
        "details": "See {IERC721-transferFrom}."
      },
      "transferOwnership(address)": {
        "details": "Transfers ownership of the contract to a new account (`newOwner`). Can only be called by the current owner."
      }
    },
    "version": 1
  },
  "userdoc": {
    "kind": "user",
    "methods": {},
    "version": 1
  }
}