{
  "_format": "hh-sol-artifact-1",
  "contractName": "PaperMastersNFI",
  "sourceName": "contracts/PaperMastersNFI.sol",
  "abi": [
    {
      "inputs": [],
      "stateMutability": "nonpayable",
      "type": "constructor"
    },
    {
      "anonymous": false,
      "inputs": [
        {
          "indexed": true,
          "internalType": "address",
          "name": "owner",
          "type": "address"
        },
        {
          "indexed": true,
          "internalType": "address",
          "name": "approved",
          "type": "address"
        },
        {
          "indexed": true,
          "internalType": "uint256",
          "name": "tokenId",
          "type": "uint256"
        }
      ],
      "name": "Approval",
      "type": "event"
    },
    {
      "anonymous": false,
      "inputs": [
        {
          "indexed": true,
          "internalType": "address",
          "name": "owner",
          "type": "address"
        },
        {
          "indexed": true,
          "internalType": "address",
          "name": "operator",
          "type": "address"
        },
        {
          "indexed": false,
          "internalType": "bool",
          "name": "approved",
          "type": "bool"
        }
      ],
      "name": "ApprovalForAll",
      "type": "event"
    },
    {
      "anonymous": false,
      "inputs": [
        {
          "indexed": false,
          "internalType": "uint256",
          "name": "amount",
          "type": "uint256"
        },
        {
          "indexed": false,
          "internalType": "uint256",
          "name": "balance",
          "type": "uint256"
        },
        {
          "indexed": false,
          "internalType": "address",
          "name": "donationSender",
          "type": "address"
        },
        {
          "indexed": false,
          "internalType": "uint256",
          "name": "totalDonationsBySender",
          "type": "uint256"
        }
      ],
      "name": "DonationMade",
      "type": "event"
    },
    {
      "anonymous": false,
      "inputs": [
        {
          "indexed": false,
          "internalType": "uint256",
          "name": "gas",
          "type": "uint256"
        }
      ],
      "name": "Log",
      "type": "event"
    },
    {
      "anonymous": false,
      "inputs": [
        {
          "indexed": false,
          "internalType": "uint256",
          "name": "chainId",
          "type": "uint256"
        },
        {
          "indexed": true,
          "internalType": "address",
          "name": "_from",
          "type": "address"
        },
        {
          "indexed": false,
          "internalType": "uint256",
          "name": "tokenId",
          "type": "uint256"
        },
        {
          "indexed": false,
          "internalType": "uint256",
          "name": "timeStamp",
          "type": "uint256"
        },
        {
          "indexed": false,
          "internalType": "uint256",
          "name": "contractFee",
          "type": "uint256"
        },
        {
          "components": [
            {
              "internalType": "uint256",
              "name": "chainId",
              "type": "uint256"
            },
            {
              "internalType": "address",
              "name": "walletAccount",
              "type": "address"
            },
            {
              "internalType": "string",
              "name": "name",
              "type": "string"
            },
            {
              "internalType": "string",
              "name": "email",
              "type": "string"
            },
            {
              "internalType": "string",
              "name": "profession",
              "type": "string"
            },
            {
              "internalType": "string",
              "name": "organization",
              "type": "string"
            },
            {
              "internalType": "string",
              "name": "slogan",
              "type": "string"
            },
            {
              "internalType": "string",
              "name": "website",
              "type": "string"
            },
            {
              "internalType": "string",
              "name": "uniqueYou",
              "type": "string"
            },
            {
              "internalType": "string",
              "name": "bgRGB",
              "type": "string"
            },
            {
              "internalType": "uint256",
              "name": "originDate",
              "type": "uint256"
            }
          ],
          "indexed": false,
          "internalType": "struct PaperMastersNFI.identity",
          "name": "identityStruct",
          "type": "tuple"
        }
      ],
      "name": "NFIMinted",
      "type": "event"
    },
    {
      "anonymous": false,
      "inputs": [
        {
          "indexed": true,
          "internalType": "address",
          "name": "previousOwner",
          "type": "address"
        },
        {
          "indexed": true,
          "internalType": "address",
          "name": "newOwner",
          "type": "address"
        }
      ],
      "name": "OwnershipTransferred",
      "type": "event"
    },
    {
      "anonymous": false,
      "inputs": [],
      "name": "Pause",
      "type": "event"
    },
    {
      "anonymous": false,
      "inputs": [
        {
          "indexed": true,
          "internalType": "address",
          "name": "from",
          "type": "address"
        },
        {
          "indexed": true,
          "internalType": "address",
          "name": "to",
          "type": "address"
        },
        {
          "indexed": true,
          "internalType": "uint256",
          "name": "tokenId",
          "type": "uint256"
        }
      ],
      "name": "Transfer",
      "type": "event"
    },
    {
      "anonymous": false,
      "inputs": [],
      "name": "Unpause",
      "type": "event"
    },
    {
      "anonymous": false,
      "inputs": [
        {
          "indexed": false,
          "internalType": "uint256",
          "name": "amount",
          "type": "uint256"
        },
        {
          "indexed": false,
          "internalType": "uint256",
          "name": "balance",
          "type": "uint256"
        },
        {
          "indexed": false,
          "internalType": "address",
          "name": "withdrawAddress",
          "type": "address"
        }
      ],
      "name": "Withdraw",
      "type": "event"
    },
    {
      "stateMutability": "payable",
      "type": "fallback"
    },
    {
      "inputs": [
        {
          "internalType": "address",
          "name": "walletAddress",
          "type": "address"
        }
      ],
      "name": "addressHasTokenBool",
      "outputs": [
        {
          "internalType": "bool",
          "name": "",
          "type": "bool"
        }
      ],
      "stateMutability": "view",
      "type": "function"
    },
    {
      "inputs": [
        {
          "internalType": "address",
          "name": "walletAddress",
          "type": "address"
        }
      ],
      "name": "addressToIdentityStruct",
      "outputs": [
        {
          "components": [
            {
              "internalType": "uint256",
              "name": "chainId",
              "type": "uint256"
            },
            {
              "internalType": "address",
              "name": "walletAccount",
              "type": "address"
            },
            {
              "internalType": "string",
              "name": "name",
              "type": "string"
            },
            {
              "internalType": "string",
              "name": "email",
              "type": "string"
            },
            {
              "internalType": "string",
              "name": "profession",
              "type": "string"
            },
            {
              "internalType": "string",
              "name": "organization",
              "type": "string"
            },
            {
              "internalType": "string",
              "name": "slogan",
              "type": "string"
            },
            {
              "internalType": "string",
              "name": "website",
              "type": "string"
            },
            {
              "internalType": "string",
              "name": "uniqueYou",
              "type": "string"
            },
            {
              "internalType": "string",
              "name": "bgRGB",
              "type": "string"
            },
            {
              "internalType": "uint256",
              "name": "originDate",
              "type": "uint256"
            }
          ],
          "internalType": "struct PaperMastersNFI.identity",
          "name": "",
          "type": "tuple"
        }
      ],
      "stateMutability": "view",
      "type": "function"
    },
    {
      "inputs": [
        {
          "internalType": "address",
          "name": "walletAddress",
          "type": "address"
        }
      ],
      "name": "addressToTokenID",
      "outputs": [
        {
          "internalType": "uint256",
          "name": "",
          "type": "uint256"
        }
      ],
      "stateMutability": "view",
      "type": "function"
    },
    {
      "inputs": [],
      "name": "allIdentityStructs",
      "outputs": [
        {
          "components": [
            {
              "internalType": "uint256",
              "name": "chainId",
              "type": "uint256"
            },
            {
              "internalType": "address",
              "name": "walletAccount",
              "type": "address"
            },
            {
              "internalType": "string",
              "name": "name",
              "type": "string"
            },
            {
              "internalType": "string",
              "name": "email",
              "type": "string"
            },
            {
              "internalType": "string",
              "name": "profession",
              "type": "string"
            },
            {
              "internalType": "string",
              "name": "organization",
              "type": "string"
            },
            {
              "internalType": "string",
              "name": "slogan",
              "type": "string"
            },
            {
              "internalType": "string",
              "name": "website",
              "type": "string"
            },
            {
              "internalType": "string",
              "name": "uniqueYou",
              "type": "string"
            },
            {
              "internalType": "string",
              "name": "bgRGB",
              "type": "string"
            },
            {
              "internalType": "uint256",
              "name": "originDate",
              "type": "uint256"
            }
          ],
          "internalType": "struct PaperMastersNFI.identity[]",
          "name": "",
          "type": "tuple[]"
        }
      ],
      "stateMutability": "view",
      "type": "function"
    },
    {
      "inputs": [
        {
          "internalType": "address",
          "name": "to",
          "type": "address"
        },
        {
          "internalType": "uint256",
          "name": "tokenId",
          "type": "uint256"
        }
      ],
      "name": "approve",
      "outputs": [],
      "stateMutability": "nonpayable",
      "type": "function"
    },
    {
      "inputs": [
        {
          "internalType": "address",
          "name": "owner",
          "type": "address"
        }
      ],
      "name": "balanceOf",
      "outputs": [
        {
          "internalType": "uint256",
          "name": "",
          "type": "uint256"
        }
      ],
      "stateMutability": "view",
      "type": "function"
    },
    {
      "inputs": [],
      "name": "deposit",
      "outputs": [],
      "stateMutability": "payable",
      "type": "function"
    },
    {
      "inputs": [
        {
          "internalType": "uint256",
          "name": "tokenId",
          "type": "uint256"
        }
      ],
      "name": "getApproved",
      "outputs": [
        {
          "internalType": "address",
          "name": "",
          "type": "address"
        }
      ],
      "stateMutability": "view",
      "type": "function"
    },
    {
      "inputs": [],
      "name": "getBalance",
      "outputs": [
        {
          "internalType": "uint256",
          "name": "",
          "type": "uint256"
        }
      ],
      "stateMutability": "view",
      "type": "function"
    },
    {
      "inputs": [],
      "name": "getChainID",
      "outputs": [
        {
          "internalType": "uint256",
          "name": "",
          "type": "uint256"
        }
      ],
      "stateMutability": "view",
      "type": "function"
    },
    {
      "inputs": [],
      "name": "getIdentityFee",
      "outputs": [
        {
          "internalType": "uint256",
          "name": "",
          "type": "uint256"
        }
      ],
      "stateMutability": "view",
      "type": "function"
    },
    {
      "inputs": [
        {
          "internalType": "address",
          "name": "owner",
          "type": "address"
        },
        {
          "internalType": "address",
          "name": "operator",
          "type": "address"
        }
      ],
      "name": "isApprovedForAll",
      "outputs": [
        {
          "internalType": "bool",
          "name": "",
          "type": "bool"
        }
      ],
      "stateMutability": "view",
      "type": "function"
    },
    {
      "inputs": [
        {
          "internalType": "string",
          "name": "_name",
          "type": "string"
        },
        {
          "internalType": "string",
          "name": "_email",
          "type": "string"
        },
        {
          "internalType": "string",
          "name": "_profession",
          "type": "string"
        },
        {
          "internalType": "string",
          "name": "_organization",
          "type": "string"
        },
        {
          "internalType": "string",
          "name": "_slogan",
          "type": "string"
        },
        {
          "internalType": "string",
          "name": "_website",
          "type": "string"
        },
        {
          "internalType": "string",
          "name": "_uniqueYou",
          "type": "string"
        },
        {
          "internalType": "string",
          "name": "_bgRGB",
          "type": "string"
        }
      ],
      "name": "mintNFI",
      "outputs": [],
      "stateMutability": "payable",
      "type": "function"
    },
    {
      "inputs": [],
      "name": "name",
      "outputs": [
        {
          "internalType": "string",
          "name": "",
          "type": "string"
        }
      ],
      "stateMutability": "view",
      "type": "function"
    },
    {
      "inputs": [],
      "name": "owner",
      "outputs": [
        {
          "internalType": "address",
          "name": "",
          "type": "address"
        }
      ],
      "stateMutability": "view",
      "type": "function"
    },
    {
      "inputs": [
        {
          "internalType": "uint256",
          "name": "tokenId",
          "type": "uint256"
        }
      ],
      "name": "ownerOf",
      "outputs": [
        {
          "internalType": "address",
          "name": "",
          "type": "address"
        }
      ],
      "stateMutability": "view",
      "type": "function"
    },
    {
      "inputs": [],
      "name": "pause",
      "outputs": [],
      "stateMutability": "nonpayable",
      "type": "function"
    },
    {
      "inputs": [],
      "name": "paused",
      "outputs": [
        {
          "internalType": "bool",
          "name": "",
          "type": "bool"
        }
      ],
      "stateMutability": "view",
      "type": "function"
    },
    {
      "inputs": [],
      "name": "renounceOwnership",
      "outputs": [],
      "stateMutability": "nonpayable",
      "type": "function"
    },
    {
      "inputs": [
        {
          "internalType": "address",
          "name": "from",
          "type": "address"
        },
        {
          "internalType": "address",
          "name": "to",
          "type": "address"
        },
        {
          "internalType": "uint256",
          "name": "tokenId",
          "type": "uint256"
        }
      ],
      "name": "safeTransferFrom",
      "outputs": [],
      "stateMutability": "nonpayable",
      "type": "function"
    },
    {
      "inputs": [
        {
          "internalType": "address",
          "name": "from",
          "type": "address"
        },
        {
          "internalType": "address",
          "name": "to",
          "type": "address"
        },
        {
          "internalType": "uint256",
          "name": "tokenId",
          "type": "uint256"
        },
        {
          "internalType": "bytes",
          "name": "_data",
          "type": "bytes"
        }
      ],
      "name": "safeTransferFrom",
      "outputs": [],
      "stateMutability": "nonpayable",
      "type": "function"
    },
    {
      "inputs": [
        {
          "internalType": "address",
          "name": "operator",
          "type": "address"
        },
        {
          "internalType": "bool",
          "name": "approved",
          "type": "bool"
        }
      ],
      "name": "setApprovalForAll",
      "outputs": [],
      "stateMutability": "nonpayable",
      "type": "function"
    },
    {
      "inputs": [
        {
          "internalType": "string",
          "name": "changeBaseURI",
          "type": "string"
        }
      ],
      "name": "setBaseURI",
      "outputs": [],
      "stateMutability": "nonpayable",
      "type": "function"
    },
    {
      "inputs": [
        {
          "internalType": "uint256",
          "name": "val",
          "type": "uint256"
        }
      ],
      "name": "setIdentityFee",
      "outputs": [],
      "stateMutability": "nonpayable",
      "type": "function"
    },
    {
      "inputs": [
        {
          "internalType": "bytes4",
          "name": "interfaceId",
          "type": "bytes4"
        }
      ],
      "name": "supportsInterface",
      "outputs": [
        {
          "internalType": "bool",
          "name": "",
          "type": "bool"
        }
      ],
      "stateMutability": "view",
      "type": "function"
    },
    {
      "inputs": [],
      "name": "symbol",
      "outputs": [
        {
          "internalType": "string",
          "name": "",
          "type": "string"
        }
      ],
      "stateMutability": "view",
      "type": "function"
    },
    {
      "inputs": [
        {
          "internalType": "uint256",
          "name": "_tokenid",
          "type": "uint256"
        }
      ],
      "name": "tokenIDtoIdentityStruct",
      "outputs": [
        {
          "components": [
            {
              "internalType": "uint256",
              "name": "chainId",
              "type": "uint256"
            },
            {
              "internalType": "address",
              "name": "walletAccount",
              "type": "address"
            },
            {
              "internalType": "string",
              "name": "name",
              "type": "string"
            },
            {
              "internalType": "string",
              "name": "email",
              "type": "string"
            },
            {
              "internalType": "string",
              "name": "profession",
              "type": "string"
            },
            {
              "internalType": "string",
              "name": "organization",
              "type": "string"
            },
            {
              "internalType": "string",
              "name": "slogan",
              "type": "string"
            },
            {
              "internalType": "string",
              "name": "website",
              "type": "string"
            },
            {
              "internalType": "string",
              "name": "uniqueYou",
              "type": "string"
            },
            {
              "internalType": "string",
              "name": "bgRGB",
              "type": "string"
            },
            {
              "internalType": "uint256",
              "name": "originDate",
              "type": "uint256"
            }
          ],
          "internalType": "struct PaperMastersNFI.identity",
          "name": "",
          "type": "tuple"
        }
      ],
      "stateMutability": "view",
      "type": "function"
    },
    {
      "inputs": [
        {
          "internalType": "uint256",
          "name": "tokenId",
          "type": "uint256"
        }
      ],
      "name": "tokenURI",
      "outputs": [
        {
          "internalType": "string",
          "name": "",
          "type": "string"
        }
      ],
      "stateMutability": "view",
      "type": "function"
    },
    {
      "inputs": [],
      "name": "totalSupply",
      "outputs": [
        {
          "internalType": "uint256",
          "name": "",
          "type": "uint256"
        }
      ],
      "stateMutability": "view",
      "type": "function"
    },
    {
      "inputs": [
        {
          "internalType": "address",
          "name": "from",
          "type": "address"
        },
        {
          "internalType": "address",
          "name": "to",
          "type": "address"
        },
        {
          "internalType": "uint256",
          "name": "tokenId",
          "type": "uint256"
        }
      ],
      "name": "transferFrom",
      "outputs": [],
      "stateMutability": "nonpayable",
      "type": "function"
    },
    {
      "inputs": [
        {
          "internalType": "address",
          "name": "newOwner",
          "type": "address"
        }
      ],
      "name": "transferOwnership",
      "outputs": [],
      "stateMutability": "nonpayable",
      "type": "function"
    },
    {
      "inputs": [],
      "name": "unpause",
      "outputs": [],
      "stateMutability": "nonpayable",
      "type": "function"
    },
    {
      "inputs": [],
      "name": "withdraw",
      "outputs": [],
      "stateMutability": "nonpayable",
      "type": "function"
    },
    {
      "stateMutability": "payable",
      "type": "receive"
    }
  ],
  "bytecode": "0x60806040526000600c60016101000a81548160ff0219169083151502179055503480156200002c57600080fd5b506040518060400160405280600f81526020017f70617065726d6173746572732e696f00000000000000000000000000000000008152506040518060400160405280600381526020017f4e464900000000000000000000000000000000000000000000000000000000008152508160009080519060200190620000b19291906200047b565b508060019080519060200190620000ca9291906200047b565b505050620000ed620000e1620003ad60201b60201c565b620003b560201b60201c565b6040518060400160405280601c81526020017f7777772e70617065726d6173746572732e696f2f6964656e7469747900000000815250600790805190602001906200013a9291906200047b565b5067016345785d8a000060088190555060096040518061016001604052804681526020013073ffffffffffffffffffffffffffffffffffffffff1681526020016040518060200160405280600081525081526020016040518060200160405280600081525081526020016040518060200160405280600081525081526020016040518060200160405280600081525081526020016040518060200160405280600081525081526020016040518060200160405280600081525081526020016040518060200160405280600081525081526020016040518060200160405280600081525081526020014281525090806001815401808255809150506001900390600052602060002090600b02016000909190919091506000820151816000015560208201518160010160006101000a81548173ffffffffffffffffffffffffffffffffffffffff021916908373ffffffffffffffffffffffffffffffffffffffff1602179055506040820151816002019080519060200190620002be9291906200047b565b506060820151816003019080519060200190620002dd9291906200047b565b506080820151816004019080519060200190620002fc9291906200047b565b5060a08201518160050190805190602001906200031b9291906200047b565b5060c08201518160060190805190602001906200033a9291906200047b565b5060e0820151816007019080519060200190620003599291906200047b565b50610100820151816008019080519060200190620003799291906200047b565b50610120820151816009019080519060200190620003999291906200047b565b5061014082015181600a0155505062000590565b600033905090565b6000600660009054906101000a900473ffffffffffffffffffffffffffffffffffffffff16905081600660006101000a81548173ffffffffffffffffffffffffffffffffffffffff021916908373ffffffffffffffffffffffffffffffffffffffff1602179055508173ffffffffffffffffffffffffffffffffffffffff168173ffffffffffffffffffffffffffffffffffffffff167f8be0079c531659141344cd1fd0a4f28419497f9722a3daafe3b4186f6b6457e060405160405180910390a35050565b82805462000489906200052b565b90600052602060002090601f016020900481019282620004ad5760008555620004f9565b82601f10620004c857805160ff1916838001178555620004f9565b82800160010185558215620004f9579182015b82811115620004f8578251825591602001919060010190620004db565b5b5090506200050891906200050c565b5090565b5b80821115620005275760008160009055506001016200050d565b5090565b600060028204905060018216806200054457607f821691505b602082108114156200055b576200055a62000561565b5b50919050565b7f4e487b7100000000000000000000000000000000000000000000000000000000600052602260045260246000fd5b614bd980620005a06000396000f3fe6080604052600436106101f25760003560e01c806363b9910f1161010d578063a3925b25116100a0578063d0e30db01161006f578063d0e30db01461072c578063e985e9c514610736578063f2fde38b14610773578063f9c1f36f1461079c578063ff87a2b9146107c5576101f9565b8063a3925b251461064c578063adde18b014610689578063b88d4fde146106c6578063c87b56dd146106ef576101f9565b80638ae23730116100dc5780638ae23730146105a25780638da5cb5b146105cd57806395d89b41146105f8578063a22cb46514610623576101f9565b806363b9910f1461050c57806370a0823114610537578063715018a6146105745780638456cb591461058b576101f9565b80633ccfd60b1161018557806355f804b31161015457806355f804b314610450578063564b81ef146104795780635c975abb146104a45780636352211e146104cf576101f9565b80633ccfd60b146103bc5780633f4ba83a146103d357806342842e0e146103ea578063532de8e914610413576101f9565b806312065fe0116101c157806312065fe01461030057806318160ddd1461032b5780631a0740a81461035657806323b872dd14610393576101f9565b806301ffc9a71461023257806306fdde031461026f578063081812fc1461029a578063095ea7b3146102d7576101f9565b366101f957005b7f909c57d5c6ac08245cf2a6de3900e2b868513fa59099b92b27d8db823d92df9c5a60405161022891906142df565b60405180910390a1005b34801561023e57600080fd5b5061025960048036038101906102549190613775565b6107e1565b60405161026691906140a0565b60405180910390f35b34801561027b57600080fd5b506102846108c3565b60405161029191906140bb565b60405180910390f35b3480156102a657600080fd5b506102c160048036038101906102bc919061397a565b610955565b6040516102ce9190614017565b60405180910390f35b3480156102e357600080fd5b506102fe60048036038101906102f99190613739565b6109da565b005b34801561030c57600080fd5b50610315610af2565b60405161032291906142df565b60405180910390f35b34801561033757600080fd5b50610340610b76565b60405161034d91906142df565b60405180910390f35b34801561036257600080fd5b5061037d600480360381019061037891906135ce565b610b83565b60405161038a91906140a0565b60405180910390f35b34801561039f57600080fd5b506103ba60048036038101906103b59190613633565b610b9e565b005b3480156103c857600080fd5b506103d1610c1f565b005b3480156103df57600080fd5b506103e8610e11565b005b3480156103f657600080fd5b50610411600480360381019061040c9190613633565b610eef565b005b34801561041f57600080fd5b5061043a600480360381019061043591906135ce565b610f70565b60405161044791906142bd565b60405180910390f35b34801561045c57600080fd5b50610477600480360381019061047291906137c7565b6114db565b005b34801561048557600080fd5b5061048e611571565b60405161049b91906142df565b60405180910390f35b3480156104b057600080fd5b506104b9611579565b6040516104c691906140a0565b60405180910390f35b3480156104db57600080fd5b506104f660048036038101906104f1919061397a565b61158c565b6040516105039190614017565b60405180910390f35b34801561051857600080fd5b5061052161163e565b60405161052e919061407e565b60405180910390f35b34801561054357600080fd5b5061055e600480360381019061055991906135ce565b611b98565b60405161056b91906142df565b60405180910390f35b34801561058057600080fd5b50610589611c50565b005b34801561059757600080fd5b506105a0611cd8565b005b3480156105ae57600080fd5b506105b7611db7565b6040516105c491906142df565b60405180910390f35b3480156105d957600080fd5b506105e2611dc1565b6040516105ef9190614017565b60405180910390f35b34801561060457600080fd5b5061060d611deb565b60405161061a91906140bb565b60405180910390f35b34801561062f57600080fd5b5061064a600480360381019061064591906136fd565b611e7d565b005b34801561065857600080fd5b50610673600480360381019061066e919061397a565b611efd565b60405161068091906142bd565b60405180910390f35b34801561069557600080fd5b506106b060048036038101906106ab91906135ce565b61245a565b6040516106bd91906142df565b60405180910390f35b3480156106d257600080fd5b506106ed60048036038101906106e89190613682565b6124a3565b005b3480156106fb57600080fd5b506107166004803603810190610711919061397a565b612525565b60405161072391906140bb565b60405180910390f35b6107346125d2565b005b34801561074257600080fd5b5061075d600480360381019061075891906135f7565b6126ac565b60405161076a91906140a0565b60405180910390f35b34801561077f57600080fd5b5061079a600480360381019061079591906135ce565b612730565b005b3480156107a857600080fd5b506107c360048036038101906107be919061397a565b612828565b005b6107df60048036038101906107da9190613808565b6128ae565b005b60007f80ac58cd000000000000000000000000000000000000000000000000000000007bffffffffffffffffffffffffffffffffffffffffffffffffffffffff1916827bffffffffffffffffffffffffffffffffffffffffffffffffffffffff191614806108ac57507f5b5e139f000000000000000000000000000000000000000000000000000000007bffffffffffffffffffffffffffffffffffffffffffffffffffffffff1916827bffffffffffffffffffffffffffffffffffffffffffffffffffffffff1916145b806108bc57506108bb82612c7c565b5b9050919050565b6060600080546108d29061462f565b80601f01602080910402602001604051908101604052809291908181526020018280546108fe9061462f565b801561094b5780601f106109205761010080835404028352916020019161094b565b820191906000526020600020905b81548152906001019060200180831161092e57829003601f168201915b5050505050905090565b600061096082612ce6565b61099f576040517f08c379a0000000000000000000000000000000000000000000000000000000008152600401610996906141dd565b60405180910390fd5b6004600083815260200190815260200160002060009054906101000a900473ffffffffffffffffffffffffffffffffffffffff169050919050565b60006109e58261158c565b90508073ffffffffffffffffffffffffffffffffffffffff168373ffffffffffffffffffffffffffffffffffffffff161415610a56576040517f08c379a0000000000000000000000000000000000000000000000000000000008152600401610a4d9061423d565b60405180910390fd5b8073ffffffffffffffffffffffffffffffffffffffff16610a75612d52565b73ffffffffffffffffffffffffffffffffffffffff161480610aa45750610aa381610a9e612d52565b6126ac565b5b610ae3576040517f08c379a0000000000000000000000000000000000000000000000000000000008152600401610ada9061415d565b60405180910390fd5b610aed8383612d5a565b505050565b6000610afc612d52565b73ffffffffffffffffffffffffffffffffffffffff16610b1a611dc1565b73ffffffffffffffffffffffffffffffffffffffff1614610b70576040517f08c379a0000000000000000000000000000000000000000000000000000000008152600401610b67906141fd565b60405180910390fd5b47905090565b6000600980549050905090565b600080610b8f8361245a565b90506001811015915050919050565b610ba6612d52565b73ffffffffffffffffffffffffffffffffffffffff16610bc4611dc1565b73ffffffffffffffffffffffffffffffffffffffff1614610c1a576040517f08c379a0000000000000000000000000000000000000000000000000000000008152600401610c11906141fd565b60405180910390fd5b505050565b600c60009054906101000a900460ff1615610c6f576040517f08c379a0000000000000000000000000000000000000000000000000000000008152600401610c669061425d565b60405180910390fd5b6001600c60006101000a81548160ff021916908315150217905550610c92612d52565b73ffffffffffffffffffffffffffffffffffffffff16610cb0611dc1565b73ffffffffffffffffffffffffffffffffffffffff1614610d06576040517f08c379a0000000000000000000000000000000000000000000000000000000008152600401610cfd906141fd565b60405180910390fd5b600047905060003373ffffffffffffffffffffffffffffffffffffffff1682604051610d3190614002565b60006040518083038185875af1925050503d8060008114610d6e576040519150601f19603f3d011682016040523d82523d6000602084013e610d73565b606091505b5050905080610db7576040517f08c379a0000000000000000000000000000000000000000000000000000000008152600401610dae9061427d565b60405180910390fd5b7f71ef96c43343734b1d843bb85d52ef329f5e9143e4d35827771e3b0dd90c5f84824733604051610dea939291906142fa565b60405180910390a150506000600c60006101000a81548160ff021916908315150217905550565b610e19612d52565b73ffffffffffffffffffffffffffffffffffffffff16610e37611dc1565b73ffffffffffffffffffffffffffffffffffffffff1614610e8d576040517f08c379a0000000000000000000000000000000000000000000000000000000008152600401610e84906141fd565b60405180910390fd5b600c60019054906101000a900460ff16610ea657600080fd5b6000600c60016101000a81548160ff0219169083151502179055507f7805862f689e2f13df9f062ff482ad3ad112aca9e0847911ed832e158c525b3360405160405180910390a1565b610ef7612d52565b73ffffffffffffffffffffffffffffffffffffffff16610f15611dc1565b73ffffffffffffffffffffffffffffffffffffffff1614610f6b576040517f08c379a0000000000000000000000000000000000000000000000000000000008152600401610f62906141fd565b60405180910390fd5b505050565b610f78613382565b6000610f838361245a565b905060098181548110610fbf577f4e487b7100000000000000000000000000000000000000000000000000000000600052603260045260246000fd5b90600052602060002090600b020160405180610160016040529081600082015481526020016001820160009054906101000a900473ffffffffffffffffffffffffffffffffffffffff1673ffffffffffffffffffffffffffffffffffffffff1673ffffffffffffffffffffffffffffffffffffffff1681526020016002820180546110499061462f565b80601f01602080910402602001604051908101604052809291908181526020018280546110759061462f565b80156110c25780601f10611097576101008083540402835291602001916110c2565b820191906000526020600020905b8154815290600101906020018083116110a557829003601f168201915b505050505081526020016003820180546110db9061462f565b80601f01602080910402602001604051908101604052809291908181526020018280546111079061462f565b80156111545780601f1061112957610100808354040283529160200191611154565b820191906000526020600020905b81548152906001019060200180831161113757829003601f168201915b5050505050815260200160048201805461116d9061462f565b80601f01602080910402602001604051908101604052809291908181526020018280546111999061462f565b80156111e65780601f106111bb576101008083540402835291602001916111e6565b820191906000526020600020905b8154815290600101906020018083116111c957829003601f168201915b505050505081526020016005820180546111ff9061462f565b80601f016020809104026020016040519081016040528092919081815260200182805461122b9061462f565b80156112785780601f1061124d57610100808354040283529160200191611278565b820191906000526020600020905b81548152906001019060200180831161125b57829003601f168201915b505050505081526020016006820180546112919061462f565b80601f01602080910402602001604051908101604052809291908181526020018280546112bd9061462f565b801561130a5780601f106112df5761010080835404028352916020019161130a565b820191906000526020600020905b8154815290600101906020018083116112ed57829003601f168201915b505050505081526020016007820180546113239061462f565b80601f016020809104026020016040519081016040528092919081815260200182805461134f9061462f565b801561139c5780601f106113715761010080835404028352916020019161139c565b820191906000526020600020905b81548152906001019060200180831161137f57829003601f168201915b505050505081526020016008820180546113b59061462f565b80601f01602080910402602001604051908101604052809291908181526020018280546113e19061462f565b801561142e5780601f106114035761010080835404028352916020019161142e565b820191906000526020600020905b81548152906001019060200180831161141157829003601f168201915b505050505081526020016009820180546114479061462f565b80601f01602080910402602001604051908101604052809291908181526020018280546114739061462f565b80156114c05780601f10611495576101008083540402835291602001916114c0565b820191906000526020600020905b8154815290600101906020018083116114a357829003601f168201915b50505050508152602001600a82015481525050915050919050565b6114e3612d52565b73ffffffffffffffffffffffffffffffffffffffff16611501611dc1565b73ffffffffffffffffffffffffffffffffffffffff1614611557576040517f08c379a000000000000000000000000000000000000000000000000000000000815260040161154e906141fd565b60405180910390fd5b806007908051906020019061156d9291906133f2565b5050565b600046905090565b600c60019054906101000a900460ff1681565b6000806002600084815260200190815260200160002060009054906101000a900473ffffffffffffffffffffffffffffffffffffffff169050600073ffffffffffffffffffffffffffffffffffffffff168173ffffffffffffffffffffffffffffffffffffffff161415611635576040517f08c379a000000000000000000000000000000000000000000000000000000000815260040161162c9061419d565b60405180910390fd5b80915050919050565b60606009805480602002602001604051908101604052809291908181526020016000905b82821015611b8f57838290600052602060002090600b020160405180610160016040529081600082015481526020016001820160009054906101000a900473ffffffffffffffffffffffffffffffffffffffff1673ffffffffffffffffffffffffffffffffffffffff1673ffffffffffffffffffffffffffffffffffffffff1681526020016002820180546116f69061462f565b80601f01602080910402602001604051908101604052809291908181526020018280546117229061462f565b801561176f5780601f106117445761010080835404028352916020019161176f565b820191906000526020600020905b81548152906001019060200180831161175257829003601f168201915b505050505081526020016003820180546117889061462f565b80601f01602080910402602001604051908101604052809291908181526020018280546117b49061462f565b80156118015780601f106117d657610100808354040283529160200191611801565b820191906000526020600020905b8154815290600101906020018083116117e457829003601f168201915b5050505050815260200160048201805461181a9061462f565b80601f01602080910402602001604051908101604052809291908181526020018280546118469061462f565b80156118935780601f1061186857610100808354040283529160200191611893565b820191906000526020600020905b81548152906001019060200180831161187657829003601f168201915b505050505081526020016005820180546118ac9061462f565b80601f01602080910402602001604051908101604052809291908181526020018280546118d89061462f565b80156119255780601f106118fa57610100808354040283529160200191611925565b820191906000526020600020905b81548152906001019060200180831161190857829003601f168201915b5050505050815260200160068201805461193e9061462f565b80601f016020809104026020016040519081016040528092919081815260200182805461196a9061462f565b80156119b75780601f1061198c576101008083540402835291602001916119b7565b820191906000526020600020905b81548152906001019060200180831161199a57829003601f168201915b505050505081526020016007820180546119d09061462f565b80601f01602080910402602001604051908101604052809291908181526020018280546119fc9061462f565b8015611a495780601f10611a1e57610100808354040283529160200191611a49565b820191906000526020600020905b815481529060010190602001808311611a2c57829003601f168201915b50505050508152602001600882018054611a629061462f565b80601f0160208091040260200160405190810160405280929190818152602001828054611a8e9061462f565b8015611adb5780601f10611ab057610100808354040283529160200191611adb565b820191906000526020600020905b815481529060010190602001808311611abe57829003601f168201915b50505050508152602001600982018054611af49061462f565b80601f0160208091040260200160405190810160405280929190818152602001828054611b209061462f565b8015611b6d5780601f10611b4257610100808354040283529160200191611b6d565b820191906000526020600020905b815481529060010190602001808311611b5057829003601f168201915b50505050508152602001600a8201548152505081526020019060010190611662565b50505050905090565b60008073ffffffffffffffffffffffffffffffffffffffff168273ffffffffffffffffffffffffffffffffffffffff161415611c09576040517f08c379a0000000000000000000000000000000000000000000000000000000008152600401611c009061417d565b60405180910390fd5b600360008373ffffffffffffffffffffffffffffffffffffffff1673ffffffffffffffffffffffffffffffffffffffff168152602001908152602001600020549050919050565b611c58612d52565b73ffffffffffffffffffffffffffffffffffffffff16611c76611dc1565b73ffffffffffffffffffffffffffffffffffffffff1614611ccc576040517f08c379a0000000000000000000000000000000000000000000000000000000008152600401611cc3906141fd565b60405180910390fd5b611cd66000612e13565b565b611ce0612d52565b73ffffffffffffffffffffffffffffffffffffffff16611cfe611dc1565b73ffffffffffffffffffffffffffffffffffffffff1614611d54576040517f08c379a0000000000000000000000000000000000000000000000000000000008152600401611d4b906141fd565b60405180910390fd5b600c60019054906101000a900460ff1615611d6e57600080fd5b6001600c60016101000a81548160ff0219169083151502179055507f6985a02210a168e66602d3235cb6db0e70f92b3ba4d376a33c0f3d9434bff62560405160405180910390a1565b6000600854905090565b6000600660009054906101000a900473ffffffffffffffffffffffffffffffffffffffff16905090565b606060018054611dfa9061462f565b80601f0160208091040260200160405190810160405280929190818152602001828054611e269061462f565b8015611e735780601f10611e4857610100808354040283529160200191611e73565b820191906000526020600020905b815481529060010190602001808311611e5657829003601f168201915b5050505050905090565b611e85612d52565b73ffffffffffffffffffffffffffffffffffffffff16611ea3611dc1565b73ffffffffffffffffffffffffffffffffffffffff1614611ef9576040517f08c379a0000000000000000000000000000000000000000000000000000000008152600401611ef0906141fd565b60405180910390fd5b5050565b611f05613382565b60098281548110611f3f577f4e487b7100000000000000000000000000000000000000000000000000000000600052603260045260246000fd5b90600052602060002090600b020160405180610160016040529081600082015481526020016001820160009054906101000a900473ffffffffffffffffffffffffffffffffffffffff1673ffffffffffffffffffffffffffffffffffffffff1673ffffffffffffffffffffffffffffffffffffffff168152602001600282018054611fc99061462f565b80601f0160208091040260200160405190810160405280929190818152602001828054611ff59061462f565b80156120425780601f1061201757610100808354040283529160200191612042565b820191906000526020600020905b81548152906001019060200180831161202557829003601f168201915b5050505050815260200160038201805461205b9061462f565b80601f01602080910402602001604051908101604052809291908181526020018280546120879061462f565b80156120d45780601f106120a9576101008083540402835291602001916120d4565b820191906000526020600020905b8154815290600101906020018083116120b757829003601f168201915b505050505081526020016004820180546120ed9061462f565b80601f01602080910402602001604051908101604052809291908181526020018280546121199061462f565b80156121665780601f1061213b57610100808354040283529160200191612166565b820191906000526020600020905b81548152906001019060200180831161214957829003601f168201915b5050505050815260200160058201805461217f9061462f565b80601f01602080910402602001604051908101604052809291908181526020018280546121ab9061462f565b80156121f85780601f106121cd576101008083540402835291602001916121f8565b820191906000526020600020905b8154815290600101906020018083116121db57829003601f168201915b505050505081526020016006820180546122119061462f565b80601f016020809104026020016040519081016040528092919081815260200182805461223d9061462f565b801561228a5780601f1061225f5761010080835404028352916020019161228a565b820191906000526020600020905b81548152906001019060200180831161226d57829003601f168201915b505050505081526020016007820180546122a39061462f565b80601f01602080910402602001604051908101604052809291908181526020018280546122cf9061462f565b801561231c5780601f106122f15761010080835404028352916020019161231c565b820191906000526020600020905b8154815290600101906020018083116122ff57829003601f168201915b505050505081526020016008820180546123359061462f565b80601f01602080910402602001604051908101604052809291908181526020018280546123619061462f565b80156123ae5780601f10612383576101008083540402835291602001916123ae565b820191906000526020600020905b81548152906001019060200180831161239157829003601f168201915b505050505081526020016009820180546123c79061462f565b80601f01602080910402602001604051908101604052809291908181526020018280546123f39061462f565b80156124405780601f1061241557610100808354040283529160200191612440565b820191906000526020600020905b81548152906001019060200180831161242357829003601f168201915b50505050508152602001600a820154815250509050919050565b6000600a60008373ffffffffffffffffffffffffffffffffffffffff1673ffffffffffffffffffffffffffffffffffffffff168152602001908152602001600020549050919050565b6124ab612d52565b73ffffffffffffffffffffffffffffffffffffffff166124c9611dc1565b73ffffffffffffffffffffffffffffffffffffffff161461251f576040517f08c379a0000000000000000000000000000000000000000000000000000000008152600401612516906141fd565b60405180910390fd5b50505050565b606061253082612ce6565b61256f576040517f08c379a00000000000000000000000000000000000000000000000000000000081526004016125669061421d565b60405180910390fd5b600061257a8361158c565b90506000612586612ed9565b905060008151116125a657604051806020016040528060008152506125c9565b80826040516020016125b9929190613fda565b6040516020818303038152906040525b92505050919050565b600034905034600b60003373ffffffffffffffffffffffffffffffffffffffff1673ffffffffffffffffffffffffffffffffffffffff168152602001908152602001600020600082825461262691906144ef565b925050819055507fb9c87592ed73f7a26fff471ef513f8065a243208d84daa291fb0e770635014e2814733600b60003373ffffffffffffffffffffffffffffffffffffffff1673ffffffffffffffffffffffffffffffffffffffff168152602001908152602001600020546040516126a19493929190614331565b60405180910390a150565b60006126b6612d52565b73ffffffffffffffffffffffffffffffffffffffff166126d4611dc1565b73ffffffffffffffffffffffffffffffffffffffff161461272a576040517f08c379a0000000000000000000000000000000000000000000000000000000008152600401612721906141fd565b60405180910390fd5b92915050565b612738612d52565b73ffffffffffffffffffffffffffffffffffffffff16612756611dc1565b73ffffffffffffffffffffffffffffffffffffffff16146127ac576040517f08c379a00000000000000000000000000000000000000000000000000000000081526004016127a3906141fd565b60405180910390fd5b600073ffffffffffffffffffffffffffffffffffffffff168173ffffffffffffffffffffffffffffffffffffffff16141561281c576040517f08c379a0000000000000000000000000000000000000000000000000000000008152600401612813906140fd565b60405180910390fd5b61282581612e13565b50565b612830612d52565b73ffffffffffffffffffffffffffffffffffffffff1661284e611dc1565b73ffffffffffffffffffffffffffffffffffffffff16146128a4576040517f08c379a000000000000000000000000000000000000000000000000000000000815260040161289b906141fd565b60405180910390fd5b8060088190555050565b600c60009054906101000a900460ff16156128fe576040517f08c379a00000000000000000000000000000000000000000000000000000000081526004016128f59061425d565b60405180910390fd5b6001600c60006101000a81548160ff021916908315150217905550600c60019054906101000a900460ff161561293357600080fd5b61293c33610b83565b1561297c576040517f08c379a00000000000000000000000000000000000000000000000000000000081526004016129739061413d565b60405180910390fd5b6008543410156129c1576040517f08c379a00000000000000000000000000000000000000000000000000000000081526004016129b89061429d565b60405180910390fd5b60006040518061016001604052804681526020013373ffffffffffffffffffffffffffffffffffffffff1681526020018a815260200189815260200188815260200187815260200186815260200185815260200184815260200183815260200142815250905060098190806001815401808255809150506001900390600052602060002090600b02016000909190919091506000820151816000015560208201518160010160006101000a81548173ffffffffffffffffffffffffffffffffffffffff021916908373ffffffffffffffffffffffffffffffffffffffff1602179055506040820151816002019080519060200190612ac09291906133f2565b506060820151816003019080519060200190612add9291906133f2565b506080820151816004019080519060200190612afa9291906133f2565b5060a0820151816005019080519060200190612b179291906133f2565b5060c0820151816006019080519060200190612b349291906133f2565b5060e0820151816007019080519060200190612b519291906133f2565b50610100820151816008019080519060200190612b6f9291906133f2565b50610120820151816009019080519060200190612b8d9291906133f2565b5061014082015181600a0155505060006001600980549050612baf9190614545565b905080600a60003373ffffffffffffffffffffffffffffffffffffffff1673ffffffffffffffffffffffffffffffffffffffff16815260200190815260200160002081905550612bff3382612f6b565b3373ffffffffffffffffffffffffffffffffffffffff167fe09ced628f3762d567e1169c16f935b4e4d73f93ac0671eb3f443ea8324fd11e4683423487604051612c4d959493929190614376565b60405180910390a250506000600c60006101000a81548160ff0219169083151502179055505050505050505050565b60007f01ffc9a7000000000000000000000000000000000000000000000000000000007bffffffffffffffffffffffffffffffffffffffffffffffffffffffff1916827bffffffffffffffffffffffffffffffffffffffffffffffffffffffff1916149050919050565b60008073ffffffffffffffffffffffffffffffffffffffff166002600084815260200190815260200160002060009054906101000a900473ffffffffffffffffffffffffffffffffffffffff1673ffffffffffffffffffffffffffffffffffffffff1614159050919050565b600033905090565b816004600083815260200190815260200160002060006101000a81548173ffffffffffffffffffffffffffffffffffffffff021916908373ffffffffffffffffffffffffffffffffffffffff160217905550808273ffffffffffffffffffffffffffffffffffffffff16612dcd8361158c565b73ffffffffffffffffffffffffffffffffffffffff167f8c5be1e5ebec7d5bd14f71427d1e84f3dd0314c0f7b2291e5b200ac8c7c3b92560405160405180910390a45050565b6000600660009054906101000a900473ffffffffffffffffffffffffffffffffffffffff16905081600660006101000a81548173ffffffffffffffffffffffffffffffffffffffff021916908373ffffffffffffffffffffffffffffffffffffffff1602179055508173ffffffffffffffffffffffffffffffffffffffff168173ffffffffffffffffffffffffffffffffffffffff167f8be0079c531659141344cd1fd0a4f28419497f9722a3daafe3b4186f6b6457e060405160405180910390a35050565b606060078054612ee89061462f565b80601f0160208091040260200160405190810160405280929190818152602001828054612f149061462f565b8015612f615780601f10612f3657610100808354040283529160200191612f61565b820191906000526020600020905b815481529060010190602001808311612f4457829003601f168201915b5050505050905090565b612f85828260405180602001604052806000815250612f89565b5050565b612f938383612fe4565b612fa060008484846131be565b612fdf576040517f08c379a0000000000000000000000000000000000000000000000000000000008152600401612fd6906140dd565b60405180910390fd5b505050565b600073ffffffffffffffffffffffffffffffffffffffff168273ffffffffffffffffffffffffffffffffffffffff161415613054576040517f08c379a000000000000000000000000000000000000000000000000000000000815260040161304b906141bd565b60405180910390fd5b61305d81612ce6565b1561309d576040517f08c379a00000000000000000000000000000000000000000000000000000000081526004016130949061411d565b60405180910390fd5b6130a960008383613355565b6001600360008473ffffffffffffffffffffffffffffffffffffffff1673ffffffffffffffffffffffffffffffffffffffff16815260200190815260200160002060008282546130f991906144ef565b92505081905550816002600083815260200190815260200160002060006101000a81548173ffffffffffffffffffffffffffffffffffffffff021916908373ffffffffffffffffffffffffffffffffffffffff160217905550808273ffffffffffffffffffffffffffffffffffffffff16600073ffffffffffffffffffffffffffffffffffffffff167fddf252ad1be2c89b69c2b068fc378daa952ba7f163c4a11628f55a4df523b3ef60405160405180910390a46131ba6000838361335a565b5050565b60006131df8473ffffffffffffffffffffffffffffffffffffffff1661335f565b15613348578373ffffffffffffffffffffffffffffffffffffffff1663150b7a02613208612d52565b8786866040518563ffffffff1660e01b815260040161322a9493929190614032565b602060405180830381600087803b15801561324457600080fd5b505af192505050801561327557506040513d601f19601f82011682018060405250810190613272919061379e565b60015b6132f8573d80600081146132a5576040519150601f19603f3d011682016040523d82523d6000602084013e6132aa565b606091505b506000815114156132f0576040517f08c379a00000000000000000000000000000000000000000000000000000000081526004016132e7906140dd565b60405180910390fd5b805181602001fd5b63150b7a0260e01b7bffffffffffffffffffffffffffffffffffffffffffffffffffffffff1916817bffffffffffffffffffffffffffffffffffffffffffffffffffffffff19161491505061334d565b600190505b949350505050565b505050565b505050565b6000808273ffffffffffffffffffffffffffffffffffffffff163b119050919050565b60405180610160016040528060008152602001600073ffffffffffffffffffffffffffffffffffffffff1681526020016060815260200160608152602001606081526020016060815260200160608152602001606081526020016060815260200160608152602001600081525090565b8280546133fe9061462f565b90600052602060002090601f0160209004810192826134205760008555613467565b82601f1061343957805160ff1916838001178555613467565b82800160010185558215613467579182015b8281111561346657825182559160200191906001019061344b565b5b5090506134749190613478565b5090565b5b80821115613491576000816000905550600101613479565b5090565b60006134a86134a3846143f5565b6143d0565b9050828152602081018484840111156134c057600080fd5b6134cb8482856145ed565b509392505050565b60006134e66134e184614426565b6143d0565b9050828152602081018484840111156134fe57600080fd5b6135098482856145ed565b509392505050565b60008135905061352081614b47565b92915050565b60008135905061353581614b5e565b92915050565b60008135905061354a81614b75565b92915050565b60008151905061355f81614b75565b92915050565b600082601f83011261357657600080fd5b8135613586848260208601613495565b91505092915050565b600082601f8301126135a057600080fd5b81356135b08482602086016134d3565b91505092915050565b6000813590506135c881614b8c565b92915050565b6000602082840312156135e057600080fd5b60006135ee84828501613511565b91505092915050565b6000806040838503121561360a57600080fd5b600061361885828601613511565b925050602061362985828601613511565b9150509250929050565b60008060006060848603121561364857600080fd5b600061365686828701613511565b935050602061366786828701613511565b9250506040613678868287016135b9565b9150509250925092565b6000806000806080858703121561369857600080fd5b60006136a687828801613511565b94505060206136b787828801613511565b93505060406136c8878288016135b9565b925050606085013567ffffffffffffffff8111156136e557600080fd5b6136f187828801613565565b91505092959194509250565b6000806040838503121561371057600080fd5b600061371e85828601613511565b925050602061372f85828601613526565b9150509250929050565b6000806040838503121561374c57600080fd5b600061375a85828601613511565b925050602061376b858286016135b9565b9150509250929050565b60006020828403121561378757600080fd5b60006137958482850161353b565b91505092915050565b6000602082840312156137b057600080fd5b60006137be84828501613550565b91505092915050565b6000602082840312156137d957600080fd5b600082013567ffffffffffffffff8111156137f357600080fd5b6137ff8482850161358f565b91505092915050565b600080600080600080600080610100898b03121561382557600080fd5b600089013567ffffffffffffffff81111561383f57600080fd5b61384b8b828c0161358f565b985050602089013567ffffffffffffffff81111561386857600080fd5b6138748b828c0161358f565b975050604089013567ffffffffffffffff81111561389157600080fd5b61389d8b828c0161358f565b965050606089013567ffffffffffffffff8111156138ba57600080fd5b6138c68b828c0161358f565b955050608089013567ffffffffffffffff8111156138e357600080fd5b6138ef8b828c0161358f565b94505060a089013567ffffffffffffffff81111561390c57600080fd5b6139188b828c0161358f565b93505060c089013567ffffffffffffffff81111561393557600080fd5b6139418b828c0161358f565b92505060e089013567ffffffffffffffff81111561395e57600080fd5b61396a8b828c0161358f565b9150509295985092959890939650565b60006020828403121561398c57600080fd5b600061399a848285016135b9565b91505092915050565b60006139af8383613d7c565b905092915050565b6139c081614579565b82525050565b6139cf81614579565b82525050565b6139e66139e182614579565b614692565b82525050565b60006139f782614467565b613a018185614495565b935083602082028501613a1385614457565b8060005b85811015613a4f5784840389528151613a3085826139a3565b9450613a3b83614488565b925060208a01995050600181019050613a17565b50829750879550505050505092915050565b613a6a8161458b565b82525050565b6000613a7b82614472565b613a8581856144a6565b9350613a958185602086016145fc565b613a9e81614743565b840191505092915050565b6000613ab48261447d565b613abe81856144c2565b9350613ace8185602086016145fc565b613ad781614743565b840191505092915050565b6000613aed8261447d565b613af781856144d3565b9350613b078185602086016145fc565b613b1081614743565b840191505092915050565b6000613b268261447d565b613b3081856144e4565b9350613b408185602086016145fc565b80840191505092915050565b6000613b596032836144d3565b9150613b6482614761565b604082019050919050565b6000613b7c6026836144d3565b9150613b87826147b0565b604082019050919050565b6000613b9f601c836144d3565b9150613baa826147ff565b602082019050919050565b6000613bc2603a836144d3565b9150613bcd82614828565b604082019050919050565b6000613be56038836144d3565b9150613bf082614877565b604082019050919050565b6000613c08602a836144d3565b9150613c13826148c6565b604082019050919050565b6000613c2b6029836144d3565b9150613c3682614915565b604082019050919050565b6000613c4e6020836144d3565b9150613c5982614964565b602082019050919050565b6000613c71602c836144d3565b9150613c7c8261498d565b604082019050919050565b6000613c946020836144d3565b9150613c9f826149dc565b602082019050919050565b6000613cb7602f836144d3565b9150613cc282614a05565b604082019050919050565b6000613cda6021836144d3565b9150613ce582614a54565b604082019050919050565b6000613cfd600e836144d3565b9150613d0882614aa3565b602082019050919050565b6000613d206000836144b7565b9150613d2b82614acc565b600082019050919050565b6000613d436010836144d3565b9150613d4e82614acf565b602082019050919050565b6000613d666021836144d3565b9150613d7182614af8565b604082019050919050565b600061016083016000830151613d956000860182613fbc565b506020830151613da860208601826139b7565b5060408301518482036040860152613dc08282613aa9565b91505060608301518482036060860152613dda8282613aa9565b91505060808301518482036080860152613df48282613aa9565b91505060a083015184820360a0860152613e0e8282613aa9565b91505060c083015184820360c0860152613e288282613aa9565b91505060e083015184820360e0860152613e428282613aa9565b915050610100830151848203610100860152613e5e8282613aa9565b915050610120830151848203610120860152613e7a8282613aa9565b915050610140830151613e91610140860182613fbc565b508091505092915050565b600061016083016000830151613eb56000860182613fbc565b506020830151613ec860208601826139b7565b5060408301518482036040860152613ee08282613aa9565b91505060608301518482036060860152613efa8282613aa9565b91505060808301518482036080860152613f148282613aa9565b91505060a083015184820360a0860152613f2e8282613aa9565b91505060c083015184820360c0860152613f488282613aa9565b91505060e083015184820360e0860152613f628282613aa9565b915050610100830151848203610100860152613f7e8282613aa9565b915050610120830151848203610120860152613f9a8282613aa9565b915050610140830151613fb1610140860182613fbc565b508091505092915050565b613fc5816145e3565b82525050565b613fd4816145e3565b82525050565b6000613fe68285613b1b565b9150613ff282846139d5565b6014820191508190509392505050565b600061400d82613d13565b9150819050919050565b600060208201905061402c60008301846139c6565b92915050565b600060808201905061404760008301876139c6565b61405460208301866139c6565b6140616040830185613fcb565b81810360608301526140738184613a70565b905095945050505050565b6000602082019050818103600083015261409881846139ec565b905092915050565b60006020820190506140b56000830184613a61565b92915050565b600060208201905081810360008301526140d58184613ae2565b905092915050565b600060208201905081810360008301526140f681613b4c565b9050919050565b6000602082019050818103600083015261411681613b6f565b9050919050565b6000602082019050818103600083015261413681613b92565b9050919050565b6000602082019050818103600083015261415681613bb5565b9050919050565b6000602082019050818103600083015261417681613bd8565b9050919050565b6000602082019050818103600083015261419681613bfb565b9050919050565b600060208201905081810360008301526141b681613c1e565b9050919050565b600060208201905081810360008301526141d681613c41565b9050919050565b600060208201905081810360008301526141f681613c64565b9050919050565b6000602082019050818103600083015261421681613c87565b9050919050565b6000602082019050818103600083015261423681613caa565b9050919050565b6000602082019050818103600083015261425681613ccd565b9050919050565b6000602082019050818103600083015261427681613cf0565b9050919050565b6000602082019050818103600083015261429681613d36565b9050919050565b600060208201905081810360008301526142b681613d59565b9050919050565b600060208201905081810360008301526142d78184613e9c565b905092915050565b60006020820190506142f46000830184613fcb565b92915050565b600060608201905061430f6000830186613fcb565b61431c6020830185613fcb565b61432960408301846139c6565b949350505050565b60006080820190506143466000830187613fcb565b6143536020830186613fcb565b61436060408301856139c6565b61436d6060830184613fcb565b95945050505050565b600060a08201905061438b6000830188613fcb565b6143986020830187613fcb565b6143a56040830186613fcb565b6143b26060830185613fcb565b81810360808301526143c48184613e9c565b90509695505050505050565b60006143da6143eb565b90506143e68282614661565b919050565b6000604051905090565b600067ffffffffffffffff8211156144105761440f614714565b5b61441982614743565b9050602081019050919050565b600067ffffffffffffffff82111561444157614440614714565b5b61444a82614743565b9050602081019050919050565b6000819050602082019050919050565b600081519050919050565b600081519050919050565b600081519050919050565b6000602082019050919050565b600082825260208201905092915050565b600082825260208201905092915050565b600081905092915050565b600082825260208201905092915050565b600082825260208201905092915050565b600081905092915050565b60006144fa826145e3565b9150614505836145e3565b9250827fffffffffffffffffffffffffffffffffffffffffffffffffffffffffffffffff0382111561453a576145396146b6565b5b828201905092915050565b6000614550826145e3565b915061455b836145e3565b92508282101561456e5761456d6146b6565b5b828203905092915050565b6000614584826145c3565b9050919050565b60008115159050919050565b60007fffffffff0000000000000000000000000000000000000000000000000000000082169050919050565b600073ffffffffffffffffffffffffffffffffffffffff82169050919050565b6000819050919050565b82818337600083830152505050565b60005b8381101561461a5780820151818401526020810190506145ff565b83811115614629576000848401525b50505050565b6000600282049050600182168061464757607f821691505b6020821081141561465b5761465a6146e5565b5b50919050565b61466a82614743565b810181811067ffffffffffffffff8211171561468957614688614714565b5b80604052505050565b600061469d826146a4565b9050919050565b60006146af82614754565b9050919050565b7f4e487b7100000000000000000000000000000000000000000000000000000000600052601160045260246000fd5b7f4e487b7100000000000000000000000000000000000000000000000000000000600052602260045260246000fd5b7f4e487b7100000000000000000000000000000000000000000000000000000000600052604160045260246000fd5b6000601f19601f8301169050919050565b60008160601b9050919050565b7f4552433732313a207472616e7366657220746f206e6f6e20455243373231526560008201527f63656976657220696d706c656d656e7465720000000000000000000000000000602082015250565b7f4f776e61626c653a206e6577206f776e657220697320746865207a65726f206160008201527f6464726573730000000000000000000000000000000000000000000000000000602082015250565b7f4552433732313a20746f6b656e20616c7265616479206d696e74656400000000600082015250565b7f2057616c6c657420616c72656164792068617320616e204e46492120596f752060008201527f676574206f6e65207065722077616c6c6574206163636f756e74000000000000602082015250565b7f4552433732313a20617070726f76652063616c6c6572206973206e6f74206f7760008201527f6e6572206e6f7220617070726f76656420666f7220616c6c0000000000000000602082015250565b7f4552433732313a2062616c616e636520717565727920666f7220746865207a6560008201527f726f206164647265737300000000000000000000000000000000000000000000602082015250565b7f4552433732313a206f776e657220717565727920666f72206e6f6e657869737460008201527f656e7420746f6b656e0000000000000000000000000000000000000000000000602082015250565b7f4552433732313a206d696e7420746f20746865207a65726f2061646472657373600082015250565b7f4552433732313a20617070726f76656420717565727920666f72206e6f6e657860008201527f697374656e7420746f6b656e0000000000000000000000000000000000000000602082015250565b7f4f776e61626c653a2063616c6c6572206973206e6f7420746865206f776e6572600082015250565b7f4552433732314d657461646174613a2055524920717565727920666f72206e6f60008201527f6e6578697374656e7420746f6b656e0000000000000000000000000000000000602082015250565b7f4552433732313a20617070726f76616c20746f2063757272656e74206f776e6560008201527f7200000000000000000000000000000000000000000000000000000000000000602082015250565b7f4e6f2072652d656e7472616e6379000000000000000000000000000000000000600082015250565b50565b7f5472616e73666572206661696c65642e00000000000000000000000000000000600082015250565b7f4e6f7420656e6f756768204554482073656e743b20636865636b20707269636560008201527f2100000000000000000000000000000000000000000000000000000000000000602082015250565b614b5081614579565b8114614b5b57600080fd5b50565b614b678161458b565b8114614b7257600080fd5b50565b614b7e81614597565b8114614b8957600080fd5b50565b614b95816145e3565b8114614ba057600080fd5b5056fea26469706673582212209cf5d7283d9a3e153850f250ea72c8bec05878e88429555eb457c0f9972c194264736f6c63430008040033",
  "linkReferences": {},
  "deployedLinkReferences": {}
}