{
  "contractName": "PaperMastersNFI",
  "abi": [
    {
      "inputs": [],
      "stateMutability": "nonpayable",
      "type": "constructor"
    },
    {
      "anonymous": false,
      "inputs": [
        {
          "indexed": true,
          "internalType": "address",
          "name": "owner",
          "type": "address"
        },
        {
          "indexed": true,
          "internalType": "address",
          "name": "approved",
          "type": "address"
        },
        {
          "indexed": true,
          "internalType": "uint256",
          "name": "tokenId",
          "type": "uint256"
        }
      ],
      "name": "Approval",
      "type": "event"
    },
    {
      "anonymous": false,
      "inputs": [
        {
          "indexed": true,
          "internalType": "address",
          "name": "owner",
          "type": "address"
        },
        {
          "indexed": true,
          "internalType": "address",
          "name": "operator",
          "type": "address"
        },
        {
          "indexed": false,
          "internalType": "bool",
          "name": "approved",
          "type": "bool"
        }
      ],
      "name": "ApprovalForAll",
      "type": "event"
    },
    {
      "anonymous": false,
      "inputs": [
        {
          "indexed": false,
          "internalType": "uint256",
          "name": "amount",
          "type": "uint256"
        },
        {
          "indexed": false,
          "internalType": "uint256",
          "name": "balance",
          "type": "uint256"
        },
        {
          "indexed": false,
          "internalType": "address",
          "name": "donationSender",
          "type": "address"
        },
        {
          "indexed": false,
          "internalType": "uint256",
          "name": "totalDonationsBySender",
          "type": "uint256"
        }
      ],
      "name": "DonationMade",
      "type": "event"
    },
    {
      "anonymous": false,
      "inputs": [
        {
          "indexed": false,
          "internalType": "uint256",
          "name": "gasLeftLeft",
          "type": "uint256"
        }
      ],
      "name": "Log",
      "type": "event"
    },
    {
      "anonymous": false,
      "inputs": [
        {
          "indexed": false,
          "internalType": "uint256",
          "name": "chainId",
          "type": "uint256"
        },
        {
          "indexed": true,
          "internalType": "address",
          "name": "_from",
          "type": "address"
        },
        {
          "indexed": false,
          "internalType": "uint256",
          "name": "tokenId",
          "type": "uint256"
        },
        {
          "indexed": false,
          "internalType": "uint256",
          "name": "timeStamp",
          "type": "uint256"
        },
        {
          "indexed": false,
          "internalType": "uint256",
          "name": "contractFee",
          "type": "uint256"
        },
        {
          "components": [
            {
              "internalType": "uint256",
              "name": "chainId",
              "type": "uint256"
            },
            {
              "internalType": "address",
              "name": "walletAccount",
              "type": "address"
            },
            {
              "internalType": "string",
              "name": "name",
              "type": "string"
            },
            {
              "internalType": "string",
              "name": "email",
              "type": "string"
            },
            {
              "internalType": "string",
              "name": "profession",
              "type": "string"
            },
            {
              "internalType": "string",
              "name": "organization",
              "type": "string"
            },
            {
              "internalType": "string",
              "name": "slogan",
              "type": "string"
            },
            {
              "internalType": "string",
              "name": "website",
              "type": "string"
            },
            {
              "internalType": "string",
              "name": "uniqueYou",
              "type": "string"
            },
            {
              "internalType": "string",
              "name": "bgRGB",
              "type": "string"
            },
            {
              "internalType": "uint256",
              "name": "originDate",
              "type": "uint256"
            }
          ],
          "indexed": false,
          "internalType": "struct PaperMastersNFI.identity",
          "name": "identityStruct",
          "type": "tuple"
        }
      ],
      "name": "NFIMinted",
      "type": "event"
    },
    {
      "anonymous": false,
      "inputs": [
        {
          "indexed": true,
          "internalType": "address",
          "name": "previousOwner",
          "type": "address"
        },
        {
          "indexed": true,
          "internalType": "address",
          "name": "newOwner",
          "type": "address"
        }
      ],
      "name": "OwnershipTransferred",
      "type": "event"
    },
    {
      "anonymous": false,
      "inputs": [],
      "name": "Pause",
      "type": "event"
    },
    {
      "anonymous": false,
      "inputs": [
        {
          "indexed": true,
          "internalType": "address",
          "name": "from",
          "type": "address"
        },
        {
          "indexed": true,
          "internalType": "address",
          "name": "to",
          "type": "address"
        },
        {
          "indexed": true,
          "internalType": "uint256",
          "name": "tokenId",
          "type": "uint256"
        }
      ],
      "name": "Transfer",
      "type": "event"
    },
    {
      "anonymous": false,
      "inputs": [],
      "name": "Unpause",
      "type": "event"
    },
    {
      "anonymous": false,
      "inputs": [
        {
          "indexed": false,
          "internalType": "uint256",
          "name": "amount",
          "type": "uint256"
        },
        {
          "indexed": false,
          "internalType": "uint256",
          "name": "balance",
          "type": "uint256"
        },
        {
          "indexed": false,
          "internalType": "address",
          "name": "withdrawAddress",
          "type": "address"
        }
      ],
      "name": "Withdraw",
      "type": "event"
    },
    {
      "anonymous": false,
      "inputs": [
        {
          "indexed": false,
          "internalType": "uint256",
          "name": "identityFee",
          "type": "uint256"
        }
      ],
      "name": "identityFeeChanged",
      "type": "event"
    },
    {
      "stateMutability": "payable",
      "type": "fallback"
    },
    {
      "inputs": [
        {
          "internalType": "address",
          "name": "to",
          "type": "address"
        },
        {
          "internalType": "uint256",
          "name": "tokenId",
          "type": "uint256"
        }
      ],
      "name": "approve",
      "outputs": [],
      "stateMutability": "nonpayable",
      "type": "function"
    },
    {
      "inputs": [
        {
          "internalType": "address",
          "name": "owner",
          "type": "address"
        }
      ],
      "name": "balanceOf",
      "outputs": [
        {
          "internalType": "uint256",
          "name": "",
          "type": "uint256"
        }
      ],
      "stateMutability": "view",
      "type": "function"
    },
    {
      "inputs": [
        {
          "internalType": "uint256",
          "name": "tokenId",
          "type": "uint256"
        }
      ],
      "name": "getApproved",
      "outputs": [
        {
          "internalType": "address",
          "name": "",
          "type": "address"
        }
      ],
      "stateMutability": "view",
      "type": "function"
    },
    {
      "inputs": [],
      "name": "name",
      "outputs": [
        {
          "internalType": "string",
          "name": "",
          "type": "string"
        }
      ],
      "stateMutability": "view",
      "type": "function"
    },
    {
      "inputs": [],
      "name": "owner",
      "outputs": [
        {
          "internalType": "address",
          "name": "",
          "type": "address"
        }
      ],
      "stateMutability": "view",
      "type": "function"
    },
    {
      "inputs": [
        {
          "internalType": "uint256",
          "name": "tokenId",
          "type": "uint256"
        }
      ],
      "name": "ownerOf",
      "outputs": [
        {
          "internalType": "address",
          "name": "",
          "type": "address"
        }
      ],
      "stateMutability": "view",
      "type": "function"
    },
    {
      "inputs": [],
      "name": "paused",
      "outputs": [
        {
          "internalType": "bool",
          "name": "",
          "type": "bool"
        }
      ],
      "stateMutability": "view",
      "type": "function"
    },
    {
      "inputs": [],
      "name": "renounceOwnership",
      "outputs": [],
      "stateMutability": "nonpayable",
      "type": "function"
    },
    {
      "inputs": [
        {
          "internalType": "bytes4",
          "name": "interfaceId",
          "type": "bytes4"
        }
      ],
      "name": "supportsInterface",
      "outputs": [
        {
          "internalType": "bool",
          "name": "",
          "type": "bool"
        }
      ],
      "stateMutability": "view",
      "type": "function"
    },
    {
      "inputs": [],
      "name": "symbol",
      "outputs": [
        {
          "internalType": "string",
          "name": "",
          "type": "string"
        }
      ],
      "stateMutability": "view",
      "type": "function"
    },
    {
      "inputs": [
        {
          "internalType": "address",
          "name": "newOwner",
          "type": "address"
        }
      ],
      "name": "transferOwnership",
      "outputs": [],
      "stateMutability": "nonpayable",
      "type": "function"
    },
    {
      "stateMutability": "payable",
      "type": "receive"
    },
    {
      "inputs": [],
      "name": "getChainId",
      "outputs": [
        {
          "internalType": "uint256",
          "name": "",
          "type": "uint256"
        }
      ],
      "stateMutability": "view",
      "type": "function"
    },
    {
      "inputs": [
        {
          "internalType": "address",
          "name": "walletAddress",
          "type": "address"
        }
      ],
      "name": "addressToTokenID",
      "outputs": [
        {
          "internalType": "uint256",
          "name": "",
          "type": "uint256"
        }
      ],
      "stateMutability": "view",
      "type": "function"
    },
    {
      "inputs": [
        {
          "internalType": "uint256",
          "name": "_tokenid",
          "type": "uint256"
        }
      ],
      "name": "tokenIDtoIdentityStruct",
      "outputs": [
        {
          "components": [
            {
              "internalType": "uint256",
              "name": "chainId",
              "type": "uint256"
            },
            {
              "internalType": "address",
              "name": "walletAccount",
              "type": "address"
            },
            {
              "internalType": "string",
              "name": "name",
              "type": "string"
            },
            {
              "internalType": "string",
              "name": "email",
              "type": "string"
            },
            {
              "internalType": "string",
              "name": "profession",
              "type": "string"
            },
            {
              "internalType": "string",
              "name": "organization",
              "type": "string"
            },
            {
              "internalType": "string",
              "name": "slogan",
              "type": "string"
            },
            {
              "internalType": "string",
              "name": "website",
              "type": "string"
            },
            {
              "internalType": "string",
              "name": "uniqueYou",
              "type": "string"
            },
            {
              "internalType": "string",
              "name": "bgRGB",
              "type": "string"
            },
            {
              "internalType": "uint256",
              "name": "originDate",
              "type": "uint256"
            }
          ],
          "internalType": "struct PaperMastersNFI.identity",
          "name": "",
          "type": "tuple"
        }
      ],
      "stateMutability": "view",
      "type": "function"
    },
    {
      "inputs": [
        {
          "internalType": "address",
          "name": "walletAddress",
          "type": "address"
        }
      ],
      "name": "addressHasTokenBool",
      "outputs": [
        {
          "internalType": "bool",
          "name": "",
          "type": "bool"
        }
      ],
      "stateMutability": "view",
      "type": "function"
    },
    {
      "inputs": [
        {
          "internalType": "address",
          "name": "walletAddress",
          "type": "address"
        }
      ],
      "name": "addressToIdentityStruct",
      "outputs": [
        {
          "components": [
            {
              "internalType": "uint256",
              "name": "chainId",
              "type": "uint256"
            },
            {
              "internalType": "address",
              "name": "walletAccount",
              "type": "address"
            },
            {
              "internalType": "string",
              "name": "name",
              "type": "string"
            },
            {
              "internalType": "string",
              "name": "email",
              "type": "string"
            },
            {
              "internalType": "string",
              "name": "profession",
              "type": "string"
            },
            {
              "internalType": "string",
              "name": "organization",
              "type": "string"
            },
            {
              "internalType": "string",
              "name": "slogan",
              "type": "string"
            },
            {
              "internalType": "string",
              "name": "website",
              "type": "string"
            },
            {
              "internalType": "string",
              "name": "uniqueYou",
              "type": "string"
            },
            {
              "internalType": "string",
              "name": "bgRGB",
              "type": "string"
            },
            {
              "internalType": "uint256",
              "name": "originDate",
              "type": "uint256"
            }
          ],
          "internalType": "struct PaperMastersNFI.identity",
          "name": "",
          "type": "tuple"
        }
      ],
      "stateMutability": "view",
      "type": "function"
    },
    {
      "inputs": [],
      "name": "allIdentityStructs",
      "outputs": [
        {
          "components": [
            {
              "internalType": "uint256",
              "name": "chainId",
              "type": "uint256"
            },
            {
              "internalType": "address",
              "name": "walletAccount",
              "type": "address"
            },
            {
              "internalType": "string",
              "name": "name",
              "type": "string"
            },
            {
              "internalType": "string",
              "name": "email",
              "type": "string"
            },
            {
              "internalType": "string",
              "name": "profession",
              "type": "string"
            },
            {
              "internalType": "string",
              "name": "organization",
              "type": "string"
            },
            {
              "internalType": "string",
              "name": "slogan",
              "type": "string"
            },
            {
              "internalType": "string",
              "name": "website",
              "type": "string"
            },
            {
              "internalType": "string",
              "name": "uniqueYou",
              "type": "string"
            },
            {
              "internalType": "string",
              "name": "bgRGB",
              "type": "string"
            },
            {
              "internalType": "uint256",
              "name": "originDate",
              "type": "uint256"
            }
          ],
          "internalType": "struct PaperMastersNFI.identity[]",
          "name": "",
          "type": "tuple[]"
        }
      ],
      "stateMutability": "view",
      "type": "function"
    },
    {
      "inputs": [
        {
          "internalType": "uint256",
          "name": "tokenId",
          "type": "uint256"
        }
      ],
      "name": "tokenURI",
      "outputs": [
        {
          "internalType": "string",
          "name": "",
          "type": "string"
        }
      ],
      "stateMutability": "view",
      "type": "function"
    },
    {
      "inputs": [
        {
          "internalType": "string",
          "name": "changeBaseURI",
          "type": "string"
        }
      ],
      "name": "setBaseURI",
      "outputs": [],
      "stateMutability": "nonpayable",
      "type": "function"
    },
    {
      "inputs": [],
      "name": "getIdentityFee",
      "outputs": [
        {
          "internalType": "uint256",
          "name": "",
          "type": "uint256"
        }
      ],
      "stateMutability": "view",
      "type": "function"
    },
    {
      "inputs": [
        {
          "internalType": "uint256",
          "name": "val",
          "type": "uint256"
        }
      ],
      "name": "setIdentityFee",
      "outputs": [],
      "stateMutability": "nonpayable",
      "type": "function"
    },
    {
      "inputs": [],
      "name": "deposit",
      "outputs": [],
      "stateMutability": "payable",
      "type": "function"
    },
    {
      "inputs": [],
      "name": "getBalance",
      "outputs": [
        {
          "internalType": "uint256",
          "name": "",
          "type": "uint256"
        }
      ],
      "stateMutability": "view",
      "type": "function"
    },
    {
      "inputs": [],
      "name": "withdraw",
      "outputs": [],
      "stateMutability": "nonpayable",
      "type": "function"
    },
    {
      "inputs": [],
      "name": "totalSupply",
      "outputs": [
        {
          "internalType": "uint256",
          "name": "",
          "type": "uint256"
        }
      ],
      "stateMutability": "view",
      "type": "function"
    },
    {
      "inputs": [],
      "name": "pause",
      "outputs": [],
      "stateMutability": "nonpayable",
      "type": "function"
    },
    {
      "inputs": [],
      "name": "unpause",
      "outputs": [],
      "stateMutability": "nonpayable",
      "type": "function"
    },
    {
      "inputs": [
        {
          "internalType": "string",
          "name": "_name",
          "type": "string"
        },
        {
          "internalType": "string",
          "name": "_email",
          "type": "string"
        },
        {
          "internalType": "string",
          "name": "_profession",
          "type": "string"
        },
        {
          "internalType": "string",
          "name": "_organization",
          "type": "string"
        },
        {
          "internalType": "string",
          "name": "_slogan",
          "type": "string"
        },
        {
          "internalType": "string",
          "name": "_website",
          "type": "string"
        },
        {
          "internalType": "string",
          "name": "_uniqueYou",
          "type": "string"
        },
        {
          "internalType": "string",
          "name": "_bgRGB",
          "type": "string"
        }
      ],
      "name": "mintNFI",
      "outputs": [],
      "stateMutability": "payable",
      "type": "function"
    },
    {
      "inputs": [
        {
          "internalType": "address",
          "name": "operator",
          "type": "address"
        },
        {
          "internalType": "bool",
          "name": "approved",
          "type": "bool"
        }
      ],
      "name": "setApprovalForAll",
      "outputs": [],
      "stateMutability": "nonpayable",
      "type": "function"
    },
    {
      "inputs": [
        {
          "internalType": "address",
          "name": "owner",
          "type": "address"
        },
        {
          "internalType": "address",
          "name": "operator",
          "type": "address"
        }
      ],
      "name": "isApprovedForAll",
      "outputs": [
        {
          "internalType": "bool",
          "name": "",
          "type": "bool"
        }
      ],
      "stateMutability": "view",
      "type": "function"
    },
    {
      "inputs": [
        {
          "internalType": "address",
          "name": "from",
          "type": "address"
        },
        {
          "internalType": "address",
          "name": "to",
          "type": "address"
        },
        {
          "internalType": "uint256",
          "name": "tokenId",
          "type": "uint256"
        }
      ],
      "name": "transferFrom",
      "outputs": [],
      "stateMutability": "nonpayable",
      "type": "function"
    },
    {
      "inputs": [
        {
          "internalType": "address",
          "name": "from",
          "type": "address"
        },
        {
          "internalType": "address",
          "name": "to",
          "type": "address"
        },
        {
          "internalType": "uint256",
          "name": "tokenId",
          "type": "uint256"
        }
      ],
      "name": "safeTransferFrom",
      "outputs": [],
      "stateMutability": "nonpayable",
      "type": "function"
    },
    {
      "inputs": [
        {
          "internalType": "address",
          "name": "from",
          "type": "address"
        },
        {
          "internalType": "address",
          "name": "to",
          "type": "address"
        },
        {
          "internalType": "uint256",
          "name": "tokenId",
          "type": "uint256"
        },
        {
          "internalType": "bytes",
          "name": "_data",
          "type": "bytes"
        }
      ],
      "name": "safeTransferFrom",
      "outputs": [],
      "stateMutability": "nonpayable",
      "type": "function"
    }
  ],
  "bytecode": "0x60806040526000600c60016101000a81548160ff0219169083151502179055503480156200002c57600080fd5b506040518060400160405280600f81526020017f70617065726d6173746572732e696f00000000000000000000000000000000008152506040518060400160405280600381526020017f4e464900000000000000000000000000000000000000000000000000000000008152508160009080519060200190620000b19291906200047b565b508060019080519060200190620000ca9291906200047b565b505050620000ed620000e1620003ad60201b60201c565b620003b560201b60201c565b6040518060400160405280601c81526020017f7777772e70617065726d6173746572732e696f2f6964656e7469747900000000815250600790805190602001906200013a9291906200047b565b5067016345785d8a000060088190555060096040518061016001604052804681526020013073ffffffffffffffffffffffffffffffffffffffff1681526020016040518060200160405280600081525081526020016040518060200160405280600081525081526020016040518060200160405280600081525081526020016040518060200160405280600081525081526020016040518060200160405280600081525081526020016040518060200160405280600081525081526020016040518060200160405280600081525081526020016040518060200160405280600081525081526020014281525090806001815401808255809150506001900390600052602060002090600b02016000909190919091506000820151816000015560208201518160010160006101000a81548173ffffffffffffffffffffffffffffffffffffffff021916908373ffffffffffffffffffffffffffffffffffffffff1602179055506040820151816002019080519060200190620002be9291906200047b565b506060820151816003019080519060200190620002dd9291906200047b565b506080820151816004019080519060200190620002fc9291906200047b565b5060a08201518160050190805190602001906200031b9291906200047b565b5060c08201518160060190805190602001906200033a9291906200047b565b5060e0820151816007019080519060200190620003599291906200047b565b50610100820151816008019080519060200190620003799291906200047b565b50610120820151816009019080519060200190620003999291906200047b565b5061014082015181600a0155505062000590565b600033905090565b6000600660009054906101000a900473ffffffffffffffffffffffffffffffffffffffff16905081600660006101000a81548173ffffffffffffffffffffffffffffffffffffffff021916908373ffffffffffffffffffffffffffffffffffffffff1602179055508173ffffffffffffffffffffffffffffffffffffffff168173ffffffffffffffffffffffffffffffffffffffff167f8be0079c531659141344cd1fd0a4f28419497f9722a3daafe3b4186f6b6457e060405160405180910390a35050565b82805462000489906200055a565b90600052602060002090601f016020900481019282620004ad5760008555620004f9565b82601f10620004c857805160ff1916838001178555620004f9565b82800160010185558215620004f9579182015b82811115620004f8578251825591602001919060010190620004db565b5b5090506200050891906200050c565b5090565b5b80821115620005275760008160009055506001016200050d565b5090565b7f4e487b7100000000000000000000000000000000000000000000000000000000600052602260045260246000fd5b600060028204905060018216806200057357607f821691505b602082108114156200058a57620005896200052b565b5b50919050565b6157c580620005a06000396000f3fe6080604052600436106101f25760003560e01c806363b9910f1161010d578063a3925b25116100a0578063d0e30db01161006f578063d0e30db01461072c578063e985e9c514610736578063f2fde38b14610773578063f9c1f36f1461079c578063ff87a2b9146107c5576101f9565b8063a3925b251461064c578063adde18b014610689578063b88d4fde146106c6578063c87b56dd146106ef576101f9565b80638ae23730116100dc5780638ae23730146105a25780638da5cb5b146105cd57806395d89b41146105f8578063a22cb46514610623576101f9565b806363b9910f1461050c57806370a0823114610537578063715018a6146105745780638456cb591461058b576101f9565b80633408e47011610185578063532de8e911610154578063532de8e91461043e57806355f804b31461047b5780635c975abb146104a45780636352211e146104cf576101f9565b80633408e470146103bc5780633ccfd60b146103e75780633f4ba83a146103fe57806342842e0e14610415576101f9565b806312065fe0116101c157806312065fe01461030057806318160ddd1461032b5780631a0740a81461035657806323b872dd14610393576101f9565b806301ffc9a71461023257806306fdde031461026f578063081812fc1461029a578063095ea7b3146102d7576101f9565b366101f957005b7f909c57d5c6ac08245cf2a6de3900e2b868513fa59099b92b27d8db823d92df9c5a6040516102289190613dc3565b60405180910390a1005b34801561023e57600080fd5b5061025960048036038101906102549190613e4a565b6107e1565b6040516102669190613e92565b60405180910390f35b34801561027b57600080fd5b506102846108c3565b6040516102919190613f46565b60405180910390f35b3480156102a657600080fd5b506102c160048036038101906102bc9190613f94565b610955565b6040516102ce9190614002565b60405180910390f35b3480156102e357600080fd5b506102fe60048036038101906102f99190614049565b6109da565b005b34801561030c57600080fd5b50610315610af2565b6040516103229190613dc3565b60405180910390f35b34801561033757600080fd5b50610340610b76565b60405161034d9190613dc3565b60405180910390f35b34801561036257600080fd5b5061037d60048036038101906103789190614089565b610b83565b60405161038a9190613e92565b60405180910390f35b34801561039f57600080fd5b506103ba60048036038101906103b591906140b6565b610b9e565b005b3480156103c857600080fd5b506103d1610c1f565b6040516103de9190613dc3565b60405180910390f35b3480156103f357600080fd5b506103fc610c27565b005b34801561040a57600080fd5b50610413610e19565b005b34801561042157600080fd5b5061043c600480360381019061043791906140b6565b610ef7565b005b34801561044a57600080fd5b5061046560048036038101906104609190614089565b610f78565b6040516104729190614291565b60405180910390f35b34801561048757600080fd5b506104a2600480360381019061049d91906143e8565b6114bd565b005b3480156104b057600080fd5b506104b9611553565b6040516104c69190613e92565b60405180910390f35b3480156104db57600080fd5b506104f660048036038101906104f19190613f94565b611566565b6040516105039190614002565b60405180910390f35b34801561051857600080fd5b50610521611618565b60405161052e9190614613565b60405180910390f35b34801561054357600080fd5b5061055e60048036038101906105599190614089565b611b72565b60405161056b9190613dc3565b60405180910390f35b34801561058057600080fd5b50610589611c2a565b005b34801561059757600080fd5b506105a0611cb2565b005b3480156105ae57600080fd5b506105b7611d91565b6040516105c49190613dc3565b60405180910390f35b3480156105d957600080fd5b506105e2611d9b565b6040516105ef9190614002565b60405180910390f35b34801561060457600080fd5b5061060d611dc5565b60405161061a9190613f46565b60405180910390f35b34801561062f57600080fd5b5061064a60048036038101906106459190614661565b611e57565b005b34801561065857600080fd5b50610673600480360381019061066e9190613f94565b611ed7565b6040516106809190614291565b60405180910390f35b34801561069557600080fd5b506106b060048036038101906106ab9190614089565b61240e565b6040516106bd9190613dc3565b60405180910390f35b3480156106d257600080fd5b506106ed60048036038101906106e89190614742565b612457565b005b3480156106fb57600080fd5b5061071660048036038101906107119190613f94565b6124d9565b6040516107239190613f46565b60405180910390f35b610734612ac6565b005b34801561074257600080fd5b5061075d600480360381019061075891906147c5565b612ba0565b60405161076a9190613e92565b60405180910390f35b34801561077f57600080fd5b5061079a60048036038101906107959190614089565b612c24565b005b3480156107a857600080fd5b506107c360048036038101906107be9190613f94565b612d1c565b005b6107df60048036038101906107da9190614805565b612dd9565b005b60007f80ac58cd000000000000000000000000000000000000000000000000000000007bffffffffffffffffffffffffffffffffffffffffffffffffffffffff1916827bffffffffffffffffffffffffffffffffffffffffffffffffffffffff191614806108ac57507f5b5e139f000000000000000000000000000000000000000000000000000000007bffffffffffffffffffffffffffffffffffffffffffffffffffffffff1916827bffffffffffffffffffffffffffffffffffffffffffffffffffffffff1916145b806108bc57506108bb82613203565b5b9050919050565b6060600080546108d2906149ca565b80601f01602080910402602001604051908101604052809291908181526020018280546108fe906149ca565b801561094b5780601f106109205761010080835404028352916020019161094b565b820191906000526020600020905b81548152906001019060200180831161092e57829003601f168201915b5050505050905090565b60006109608261326d565b61099f576040517f08c379a000000000000000000000000000000000000000000000000000000000815260040161099690614a6e565b60405180910390fd5b6004600083815260200190815260200160002060009054906101000a900473ffffffffffffffffffffffffffffffffffffffff169050919050565b60006109e582611566565b90508073ffffffffffffffffffffffffffffffffffffffff168373ffffffffffffffffffffffffffffffffffffffff161415610a56576040517f08c379a0000000000000000000000000000000000000000000000000000000008152600401610a4d90614b00565b60405180910390fd5b8073ffffffffffffffffffffffffffffffffffffffff16610a756132d9565b73ffffffffffffffffffffffffffffffffffffffff161480610aa45750610aa381610a9e6132d9565b612ba0565b5b610ae3576040517f08c379a0000000000000000000000000000000000000000000000000000000008152600401610ada90614b92565b60405180910390fd5b610aed83836132e1565b505050565b6000610afc6132d9565b73ffffffffffffffffffffffffffffffffffffffff16610b1a611d9b565b73ffffffffffffffffffffffffffffffffffffffff1614610b70576040517f08c379a0000000000000000000000000000000000000000000000000000000008152600401610b6790614bfe565b60405180910390fd5b47905090565b6000600980549050905090565b600080610b8f8361240e565b90506001811015915050919050565b610ba66132d9565b73ffffffffffffffffffffffffffffffffffffffff16610bc4611d9b565b73ffffffffffffffffffffffffffffffffffffffff1614610c1a576040517f08c379a0000000000000000000000000000000000000000000000000000000008152600401610c1190614bfe565b60405180910390fd5b505050565b600046905090565b600c60009054906101000a900460ff1615610c77576040517f08c379a0000000000000000000000000000000000000000000000000000000008152600401610c6e90614c6a565b60405180910390fd5b6001600c60006101000a81548160ff021916908315150217905550610c9a6132d9565b73ffffffffffffffffffffffffffffffffffffffff16610cb8611d9b565b73ffffffffffffffffffffffffffffffffffffffff1614610d0e576040517f08c379a0000000000000000000000000000000000000000000000000000000008152600401610d0590614bfe565b60405180910390fd5b600047905060003373ffffffffffffffffffffffffffffffffffffffff1682604051610d3990614cbb565b60006040518083038185875af1925050503d8060008114610d76576040519150601f19603f3d011682016040523d82523d6000602084013e610d7b565b606091505b5050905080610dbf576040517f08c379a0000000000000000000000000000000000000000000000000000000008152600401610db690614d1c565b60405180910390fd5b7f71ef96c43343734b1d843bb85d52ef329f5e9143e4d35827771e3b0dd90c5f84824733604051610df293929190614d3c565b60405180910390a150506000600c60006101000a81548160ff021916908315150217905550565b610e216132d9565b73ffffffffffffffffffffffffffffffffffffffff16610e3f611d9b565b73ffffffffffffffffffffffffffffffffffffffff1614610e95576040517f08c379a0000000000000000000000000000000000000000000000000000000008152600401610e8c90614bfe565b60405180910390fd5b600c60019054906101000a900460ff16610eae57600080fd5b6000600c60016101000a81548160ff0219169083151502179055507f7805862f689e2f13df9f062ff482ad3ad112aca9e0847911ed832e158c525b3360405160405180910390a1565b610eff6132d9565b73ffffffffffffffffffffffffffffffffffffffff16610f1d611d9b565b73ffffffffffffffffffffffffffffffffffffffff1614610f73576040517f08c379a0000000000000000000000000000000000000000000000000000000008152600401610f6a90614bfe565b60405180910390fd5b505050565b610f80613c97565b6000610f8b8361240e565b905060098181548110610fa157610fa0614d73565b5b90600052602060002090600b020160405180610160016040529081600082015481526020016001820160009054906101000a900473ffffffffffffffffffffffffffffffffffffffff1673ffffffffffffffffffffffffffffffffffffffff1673ffffffffffffffffffffffffffffffffffffffff16815260200160028201805461102b906149ca565b80601f0160208091040260200160405190810160405280929190818152602001828054611057906149ca565b80156110a45780601f10611079576101008083540402835291602001916110a4565b820191906000526020600020905b81548152906001019060200180831161108757829003601f168201915b505050505081526020016003820180546110bd906149ca565b80601f01602080910402602001604051908101604052809291908181526020018280546110e9906149ca565b80156111365780601f1061110b57610100808354040283529160200191611136565b820191906000526020600020905b81548152906001019060200180831161111957829003601f168201915b5050505050815260200160048201805461114f906149ca565b80601f016020809104026020016040519081016040528092919081815260200182805461117b906149ca565b80156111c85780601f1061119d576101008083540402835291602001916111c8565b820191906000526020600020905b8154815290600101906020018083116111ab57829003601f168201915b505050505081526020016005820180546111e1906149ca565b80601f016020809104026020016040519081016040528092919081815260200182805461120d906149ca565b801561125a5780601f1061122f5761010080835404028352916020019161125a565b820191906000526020600020905b81548152906001019060200180831161123d57829003601f168201915b50505050508152602001600682018054611273906149ca565b80601f016020809104026020016040519081016040528092919081815260200182805461129f906149ca565b80156112ec5780601f106112c1576101008083540402835291602001916112ec565b820191906000526020600020905b8154815290600101906020018083116112cf57829003601f168201915b50505050508152602001600782018054611305906149ca565b80601f0160208091040260200160405190810160405280929190818152602001828054611331906149ca565b801561137e5780601f106113535761010080835404028352916020019161137e565b820191906000526020600020905b81548152906001019060200180831161136157829003601f168201915b50505050508152602001600882018054611397906149ca565b80601f01602080910402602001604051908101604052809291908181526020018280546113c3906149ca565b80156114105780601f106113e557610100808354040283529160200191611410565b820191906000526020600020905b8154815290600101906020018083116113f357829003601f168201915b50505050508152602001600982018054611429906149ca565b80601f0160208091040260200160405190810160405280929190818152602001828054611455906149ca565b80156114a25780601f10611477576101008083540402835291602001916114a2565b820191906000526020600020905b81548152906001019060200180831161148557829003601f168201915b50505050508152602001600a82015481525050915050919050565b6114c56132d9565b73ffffffffffffffffffffffffffffffffffffffff166114e3611d9b565b73ffffffffffffffffffffffffffffffffffffffff1614611539576040517f08c379a000000000000000000000000000000000000000000000000000000000815260040161153090614bfe565b60405180910390fd5b806007908051906020019061154f929190613d07565b5050565b600c60019054906101000a900460ff1681565b6000806002600084815260200190815260200160002060009054906101000a900473ffffffffffffffffffffffffffffffffffffffff169050600073ffffffffffffffffffffffffffffffffffffffff168173ffffffffffffffffffffffffffffffffffffffff16141561160f576040517f08c379a000000000000000000000000000000000000000000000000000000000815260040161160690614e14565b60405180910390fd5b80915050919050565b60606009805480602002602001604051908101604052809291908181526020016000905b82821015611b6957838290600052602060002090600b020160405180610160016040529081600082015481526020016001820160009054906101000a900473ffffffffffffffffffffffffffffffffffffffff1673ffffffffffffffffffffffffffffffffffffffff1673ffffffffffffffffffffffffffffffffffffffff1681526020016002820180546116d0906149ca565b80601f01602080910402602001604051908101604052809291908181526020018280546116fc906149ca565b80156117495780601f1061171e57610100808354040283529160200191611749565b820191906000526020600020905b81548152906001019060200180831161172c57829003601f168201915b50505050508152602001600382018054611762906149ca565b80601f016020809104026020016040519081016040528092919081815260200182805461178e906149ca565b80156117db5780601f106117b0576101008083540402835291602001916117db565b820191906000526020600020905b8154815290600101906020018083116117be57829003601f168201915b505050505081526020016004820180546117f4906149ca565b80601f0160208091040260200160405190810160405280929190818152602001828054611820906149ca565b801561186d5780601f106118425761010080835404028352916020019161186d565b820191906000526020600020905b81548152906001019060200180831161185057829003601f168201915b50505050508152602001600582018054611886906149ca565b80601f01602080910402602001604051908101604052809291908181526020018280546118b2906149ca565b80156118ff5780601f106118d4576101008083540402835291602001916118ff565b820191906000526020600020905b8154815290600101906020018083116118e257829003601f168201915b50505050508152602001600682018054611918906149ca565b80601f0160208091040260200160405190810160405280929190818152602001828054611944906149ca565b80156119915780601f1061196657610100808354040283529160200191611991565b820191906000526020600020905b81548152906001019060200180831161197457829003601f168201915b505050505081526020016007820180546119aa906149ca565b80601f01602080910402602001604051908101604052809291908181526020018280546119d6906149ca565b8015611a235780601f106119f857610100808354040283529160200191611a23565b820191906000526020600020905b815481529060010190602001808311611a0657829003601f168201915b50505050508152602001600882018054611a3c906149ca565b80601f0160208091040260200160405190810160405280929190818152602001828054611a68906149ca565b8015611ab55780601f10611a8a57610100808354040283529160200191611ab5565b820191906000526020600020905b815481529060010190602001808311611a9857829003601f168201915b50505050508152602001600982018054611ace906149ca565b80601f0160208091040260200160405190810160405280929190818152602001828054611afa906149ca565b8015611b475780601f10611b1c57610100808354040283529160200191611b47565b820191906000526020600020905b815481529060010190602001808311611b2a57829003601f168201915b50505050508152602001600a820154815250508152602001906001019061163c565b50505050905090565b60008073ffffffffffffffffffffffffffffffffffffffff168273ffffffffffffffffffffffffffffffffffffffff161415611be3576040517f08c379a0000000000000000000000000000000000000000000000000000000008152600401611bda90614ea6565b60405180910390fd5b600360008373ffffffffffffffffffffffffffffffffffffffff1673ffffffffffffffffffffffffffffffffffffffff168152602001908152602001600020549050919050565b611c326132d9565b73ffffffffffffffffffffffffffffffffffffffff16611c50611d9b565b73ffffffffffffffffffffffffffffffffffffffff1614611ca6576040517f08c379a0000000000000000000000000000000000000000000000000000000008152600401611c9d90614bfe565b60405180910390fd5b611cb0600061339a565b565b611cba6132d9565b73ffffffffffffffffffffffffffffffffffffffff16611cd8611d9b565b73ffffffffffffffffffffffffffffffffffffffff1614611d2e576040517f08c379a0000000000000000000000000000000000000000000000000000000008152600401611d2590614bfe565b60405180910390fd5b600c60019054906101000a900460ff1615611d4857600080fd5b6001600c60016101000a81548160ff0219169083151502179055507f6985a02210a168e66602d3235cb6db0e70f92b3ba4d376a33c0f3d9434bff62560405160405180910390a1565b6000600854905090565b6000600660009054906101000a900473ffffffffffffffffffffffffffffffffffffffff16905090565b606060018054611dd4906149ca565b80601f0160208091040260200160405190810160405280929190818152602001828054611e00906149ca565b8015611e4d5780601f10611e2257610100808354040283529160200191611e4d565b820191906000526020600020905b815481529060010190602001808311611e3057829003601f168201915b5050505050905090565b611e5f6132d9565b73ffffffffffffffffffffffffffffffffffffffff16611e7d611d9b565b73ffffffffffffffffffffffffffffffffffffffff1614611ed3576040517f08c379a0000000000000000000000000000000000000000000000000000000008152600401611eca90614bfe565b60405180910390fd5b5050565b611edf613c97565b60098281548110611ef357611ef2614d73565b5b90600052602060002090600b020160405180610160016040529081600082015481526020016001820160009054906101000a900473ffffffffffffffffffffffffffffffffffffffff1673ffffffffffffffffffffffffffffffffffffffff1673ffffffffffffffffffffffffffffffffffffffff168152602001600282018054611f7d906149ca565b80601f0160208091040260200160405190810160405280929190818152602001828054611fa9906149ca565b8015611ff65780601f10611fcb57610100808354040283529160200191611ff6565b820191906000526020600020905b815481529060010190602001808311611fd957829003601f168201915b5050505050815260200160038201805461200f906149ca565b80601f016020809104026020016040519081016040528092919081815260200182805461203b906149ca565b80156120885780601f1061205d57610100808354040283529160200191612088565b820191906000526020600020905b81548152906001019060200180831161206b57829003601f168201915b505050505081526020016004820180546120a1906149ca565b80601f01602080910402602001604051908101604052809291908181526020018280546120cd906149ca565b801561211a5780601f106120ef5761010080835404028352916020019161211a565b820191906000526020600020905b8154815290600101906020018083116120fd57829003601f168201915b50505050508152602001600582018054612133906149ca565b80601f016020809104026020016040519081016040528092919081815260200182805461215f906149ca565b80156121ac5780601f10612181576101008083540402835291602001916121ac565b820191906000526020600020905b81548152906001019060200180831161218f57829003601f168201915b505050505081526020016006820180546121c5906149ca565b80601f01602080910402602001604051908101604052809291908181526020018280546121f1906149ca565b801561223e5780601f106122135761010080835404028352916020019161223e565b820191906000526020600020905b81548152906001019060200180831161222157829003601f168201915b50505050508152602001600782018054612257906149ca565b80601f0160208091040260200160405190810160405280929190818152602001828054612283906149ca565b80156122d05780601f106122a5576101008083540402835291602001916122d0565b820191906000526020600020905b8154815290600101906020018083116122b357829003601f168201915b505050505081526020016008820180546122e9906149ca565b80601f0160208091040260200160405190810160405280929190818152602001828054612315906149ca565b80156123625780601f1061233757610100808354040283529160200191612362565b820191906000526020600020905b81548152906001019060200180831161234557829003601f168201915b5050505050815260200160098201805461237b906149ca565b80601f01602080910402602001604051908101604052809291908181526020018280546123a7906149ca565b80156123f45780601f106123c9576101008083540402835291602001916123f4565b820191906000526020600020905b8154815290600101906020018083116123d757829003601f168201915b50505050508152602001600a820154815250509050919050565b6000600a60008373ffffffffffffffffffffffffffffffffffffffff1673ffffffffffffffffffffffffffffffffffffffff168152602001908152602001600020549050919050565b61245f6132d9565b73ffffffffffffffffffffffffffffffffffffffff1661247d611d9b565b73ffffffffffffffffffffffffffffffffffffffff16146124d3576040517f08c379a00000000000000000000000000000000000000000000000000000000081526004016124ca90614bfe565b60405180910390fd5b50505050565b60606009805490506001836124ee9190614ef5565b111561252f576040517f08c379a000000000000000000000000000000000000000000000000000000000815260040161252690614f97565b60405180910390fd5b60006009838154811061254557612544614d73565b5b90600052602060002090600b020160405180610160016040529081600082015481526020016001820160009054906101000a900473ffffffffffffffffffffffffffffffffffffffff1673ffffffffffffffffffffffffffffffffffffffff1673ffffffffffffffffffffffffffffffffffffffff1681526020016002820180546125cf906149ca565b80601f01602080910402602001604051908101604052809291908181526020018280546125fb906149ca565b80156126485780601f1061261d57610100808354040283529160200191612648565b820191906000526020600020905b81548152906001019060200180831161262b57829003601f168201915b50505050508152602001600382018054612661906149ca565b80601f016020809104026020016040519081016040528092919081815260200182805461268d906149ca565b80156126da5780601f106126af576101008083540402835291602001916126da565b820191906000526020600020905b8154815290600101906020018083116126bd57829003601f168201915b505050505081526020016004820180546126f3906149ca565b80601f016020809104026020016040519081016040528092919081815260200182805461271f906149ca565b801561276c5780601f106127415761010080835404028352916020019161276c565b820191906000526020600020905b81548152906001019060200180831161274f57829003601f168201915b50505050508152602001600582018054612785906149ca565b80601f01602080910402602001604051908101604052809291908181526020018280546127b1906149ca565b80156127fe5780601f106127d3576101008083540402835291602001916127fe565b820191906000526020600020905b8154815290600101906020018083116127e157829003601f168201915b50505050508152602001600682018054612817906149ca565b80601f0160208091040260200160405190810160405280929190818152602001828054612843906149ca565b80156128905780601f1061286557610100808354040283529160200191612890565b820191906000526020600020905b81548152906001019060200180831161287357829003601f168201915b505050505081526020016007820180546128a9906149ca565b80601f01602080910402602001604051908101604052809291908181526020018280546128d5906149ca565b80156129225780601f106128f757610100808354040283529160200191612922565b820191906000526020600020905b81548152906001019060200180831161290557829003601f168201915b5050505050815260200160088201805461293b906149ca565b80601f0160208091040260200160405190810160405280929190818152602001828054612967906149ca565b80156129b45780601f10612989576101008083540402835291602001916129b4565b820191906000526020600020905b81548152906001019060200180831161299757829003601f168201915b505050505081526020016009820180546129cd906149ca565b80601f01602080910402602001604051908101604052809291908181526020018280546129f9906149ca565b8015612a465780601f10612a1b57610100808354040283529160200191612a46565b820191906000526020600020905b815481529060010190602001808311612a2957829003601f168201915b50505050508152602001600a82015481525050905060004690506000612a6a613460565b905080612a76836134f2565b612a9b856020015173ffffffffffffffffffffffffffffffffffffffff166014613653565b604051602001612aad93929190615019565b6040516020818303038152906040529350505050919050565b600034905034600b60003373ffffffffffffffffffffffffffffffffffffffff1673ffffffffffffffffffffffffffffffffffffffff1681526020019081526020016000206000828254612b1a9190614ef5565b925050819055507fb9c87592ed73f7a26fff471ef513f8065a243208d84daa291fb0e770635014e2814733600b60003373ffffffffffffffffffffffffffffffffffffffff1673ffffffffffffffffffffffffffffffffffffffff16815260200190815260200160002054604051612b959493929190615068565b60405180910390a150565b6000612baa6132d9565b73ffffffffffffffffffffffffffffffffffffffff16612bc8611d9b565b73ffffffffffffffffffffffffffffffffffffffff1614612c1e576040517f08c379a0000000000000000000000000000000000000000000000000000000008152600401612c1590614bfe565b60405180910390fd5b92915050565b612c2c6132d9565b73ffffffffffffffffffffffffffffffffffffffff16612c4a611d9b565b73ffffffffffffffffffffffffffffffffffffffff1614612ca0576040517f08c379a0000000000000000000000000000000000000000000000000000000008152600401612c9790614bfe565b60405180910390fd5b600073ffffffffffffffffffffffffffffffffffffffff168173ffffffffffffffffffffffffffffffffffffffff161415612d10576040517f08c379a0000000000000000000000000000000000000000000000000000000008152600401612d079061511f565b60405180910390fd5b612d198161339a565b50565b612d246132d9565b73ffffffffffffffffffffffffffffffffffffffff16612d42611d9b565b73ffffffffffffffffffffffffffffffffffffffff1614612d98576040517f08c379a0000000000000000000000000000000000000000000000000000000008152600401612d8f90614bfe565b60405180910390fd5b806008819055507f6ee83f7f0a582b27c85a335dfe37e203bd9c36a159970c8d1ba92d1d8c14675081604051612dce9190613dc3565b60405180910390a150565b600c60009054906101000a900460ff1615612e29576040517f08c379a0000000000000000000000000000000000000000000000000000000008152600401612e2090614c6a565b60405180910390fd5b6001600c60006101000a81548160ff021916908315150217905550600c60019054906101000a900460ff1615612e5e57600080fd5b600854341015612ea3576040517f08c379a0000000000000000000000000000000000000000000000000000000008152600401612e9a906151b1565b60405180910390fd5b6008543373ffffffffffffffffffffffffffffffffffffffff16311015612eff576040517f08c379a0000000000000000000000000000000000000000000000000000000008152600401612ef690615243565b60405180910390fd5b612f0833610b83565b15612f48576040517f08c379a0000000000000000000000000000000000000000000000000000000008152600401612f3f906152d5565b60405180910390fd5b60006040518061016001604052804681526020013373ffffffffffffffffffffffffffffffffffffffff1681526020018a815260200189815260200188815260200187815260200186815260200185815260200184815260200183815260200142815250905060098190806001815401808255809150506001900390600052602060002090600b02016000909190919091506000820151816000015560208201518160010160006101000a81548173ffffffffffffffffffffffffffffffffffffffff021916908373ffffffffffffffffffffffffffffffffffffffff1602179055506040820151816002019080519060200190613047929190613d07565b506060820151816003019080519060200190613064929190613d07565b506080820151816004019080519060200190613081929190613d07565b5060a082015181600501908051906020019061309e929190613d07565b5060c08201518160060190805190602001906130bb929190613d07565b5060e08201518160070190805190602001906130d8929190613d07565b506101008201518160080190805190602001906130f6929190613d07565b50610120820151816009019080519060200190613114929190613d07565b5061014082015181600a015550506000600160098054905061313691906152f5565b905080600a60003373ffffffffffffffffffffffffffffffffffffffff1673ffffffffffffffffffffffffffffffffffffffff16815260200190815260200160002081905550613186338261388f565b3373ffffffffffffffffffffffffffffffffffffffff167fe09ced628f3762d567e1169c16f935b4e4d73f93ac0671eb3f443ea8324fd11e46834234876040516131d4959493929190615329565b60405180910390a250506000600c60006101000a81548160ff0219169083151502179055505050505050505050565b60007f01ffc9a7000000000000000000000000000000000000000000000000000000007bffffffffffffffffffffffffffffffffffffffffffffffffffffffff1916827bffffffffffffffffffffffffffffffffffffffffffffffffffffffff1916149050919050565b60008073ffffffffffffffffffffffffffffffffffffffff166002600084815260200190815260200160002060009054906101000a900473ffffffffffffffffffffffffffffffffffffffff1673ffffffffffffffffffffffffffffffffffffffff1614159050919050565b600033905090565b816004600083815260200190815260200160002060006101000a81548173ffffffffffffffffffffffffffffffffffffffff021916908373ffffffffffffffffffffffffffffffffffffffff160217905550808273ffffffffffffffffffffffffffffffffffffffff1661335483611566565b73ffffffffffffffffffffffffffffffffffffffff167f8c5be1e5ebec7d5bd14f71427d1e84f3dd0314c0f7b2291e5b200ac8c7c3b92560405160405180910390a45050565b6000600660009054906101000a900473ffffffffffffffffffffffffffffffffffffffff16905081600660006101000a81548173ffffffffffffffffffffffffffffffffffffffff021916908373ffffffffffffffffffffffffffffffffffffffff1602179055508173ffffffffffffffffffffffffffffffffffffffff168173ffffffffffffffffffffffffffffffffffffffff167f8be0079c531659141344cd1fd0a4f28419497f9722a3daafe3b4186f6b6457e060405160405180910390a35050565b60606007805461346f906149ca565b80601f016020809104026020016040519081016040528092919081815260200182805461349b906149ca565b80156134e85780601f106134bd576101008083540402835291602001916134e8565b820191906000526020600020905b8154815290600101906020018083116134cb57829003601f168201915b5050505050905090565b6060600082141561353a576040518060400160405280600181526020017f3000000000000000000000000000000000000000000000000000000000000000815250905061364e565b600082905060005b6000821461356c57808061355590615383565b915050600a8261356591906153fb565b9150613542565b60008167ffffffffffffffff811115613588576135876142bd565b5b6040519080825280601f01601f1916602001820160405280156135ba5781602001600182028036833780820191505090505b5090505b60008514613647576001826135d391906152f5565b9150600a856135e2919061542c565b60306135ee9190614ef5565b60f81b81838151811061360457613603614d73565b5b60200101907effffffffffffffffffffffffffffffffffffffffffffffffffffffffffffff1916908160001a905350600a8561364091906153fb565b94506135be565b8093505050505b919050565b606060006002836002613666919061545d565b6136709190614ef5565b67ffffffffffffffff811115613689576136886142bd565b5b6040519080825280601f01601f1916602001820160405280156136bb5781602001600182028036833780820191505090505b5090507f3000000000000000000000000000000000000000000000000000000000000000816000815181106136f3576136f2614d73565b5b60200101907effffffffffffffffffffffffffffffffffffffffffffffffffffffffffffff1916908160001a9053507f78000000000000000000000000000000000000000000000000000000000000008160018151811061375757613756614d73565b5b60200101907effffffffffffffffffffffffffffffffffffffffffffffffffffffffffffff1916908160001a90535060006001846002613797919061545d565b6137a19190614ef5565b90505b6001811115613841577f3031323334353637383961626364656600000000000000000000000000000000600f8616601081106137e3576137e2614d73565b5b1a60f81b8282815181106137fa576137f9614d73565b5b60200101907effffffffffffffffffffffffffffffffffffffffffffffffffffffffffffff1916908160001a905350600485901c94508061383a906154b7565b90506137a4565b5060008414613885576040517f08c379a000000000000000000000000000000000000000000000000000000000815260040161387c9061552d565b60405180910390fd5b8091505092915050565b6138a98282604051806020016040528060008152506138ad565b5050565b6138b78383613908565b6138c46000848484613ae2565b613903576040517f08c379a00000000000000000000000000000000000000000000000000000000081526004016138fa906155bf565b60405180910390fd5b505050565b600073ffffffffffffffffffffffffffffffffffffffff168273ffffffffffffffffffffffffffffffffffffffff161415613978576040517f08c379a000000000000000000000000000000000000000000000000000000000815260040161396f9061562b565b60405180910390fd5b6139818161326d565b156139c1576040517f08c379a00000000000000000000000000000000000000000000000000000000081526004016139b890615697565b60405180910390fd5b6139cd60008383613c6a565b6001600360008473ffffffffffffffffffffffffffffffffffffffff1673ffffffffffffffffffffffffffffffffffffffff1681526020019081526020016000206000828254613a1d9190614ef5565b92505081905550816002600083815260200190815260200160002060006101000a81548173ffffffffffffffffffffffffffffffffffffffff021916908373ffffffffffffffffffffffffffffffffffffffff160217905550808273ffffffffffffffffffffffffffffffffffffffff16600073ffffffffffffffffffffffffffffffffffffffff167fddf252ad1be2c89b69c2b068fc378daa952ba7f163c4a11628f55a4df523b3ef60405160405180910390a4613ade60008383613c6f565b5050565b6000613b038473ffffffffffffffffffffffffffffffffffffffff16613c74565b15613c5d578373ffffffffffffffffffffffffffffffffffffffff1663150b7a02613b2c6132d9565b8786866040518563ffffffff1660e01b8152600401613b4e9493929190615701565b6020604051808303816000875af1925050508015613b8a57506040513d601f19601f82011682018060405250810190613b879190615762565b60015b613c0d573d8060008114613bba576040519150601f19603f3d011682016040523d82523d6000602084013e613bbf565b606091505b50600081511415613c05576040517f08c379a0000000000000000000000000000000000000000000000000000000008152600401613bfc906155bf565b60405180910390fd5b805181602001fd5b63150b7a0260e01b7bffffffffffffffffffffffffffffffffffffffffffffffffffffffff1916817bffffffffffffffffffffffffffffffffffffffffffffffffffffffff191614915050613c62565b600190505b949350505050565b505050565b505050565b6000808273ffffffffffffffffffffffffffffffffffffffff163b119050919050565b60405180610160016040528060008152602001600073ffffffffffffffffffffffffffffffffffffffff1681526020016060815260200160608152602001606081526020016060815260200160608152602001606081526020016060815260200160608152602001600081525090565b828054613d13906149ca565b90600052602060002090601f016020900481019282613d355760008555613d7c565b82601f10613d4e57805160ff1916838001178555613d7c565b82800160010185558215613d7c579182015b82811115613d7b578251825591602001919060010190613d60565b5b509050613d899190613d8d565b5090565b5b80821115613da6576000816000905550600101613d8e565b5090565b6000819050919050565b613dbd81613daa565b82525050565b6000602082019050613dd86000830184613db4565b92915050565b6000604051905090565b600080fd5b600080fd5b60007fffffffff0000000000000000000000000000000000000000000000000000000082169050919050565b613e2781613df2565b8114613e3257600080fd5b50565b600081359050613e4481613e1e565b92915050565b600060208284031215613e6057613e5f613de8565b5b6000613e6e84828501613e35565b91505092915050565b60008115159050919050565b613e8c81613e77565b82525050565b6000602082019050613ea76000830184613e83565b92915050565b600081519050919050565b600082825260208201905092915050565b60005b83811015613ee7578082015181840152602081019050613ecc565b83811115613ef6576000848401525b50505050565b6000601f19601f8301169050919050565b6000613f1882613ead565b613f228185613eb8565b9350613f32818560208601613ec9565b613f3b81613efc565b840191505092915050565b60006020820190508181036000830152613f608184613f0d565b905092915050565b613f7181613daa565b8114613f7c57600080fd5b50565b600081359050613f8e81613f68565b92915050565b600060208284031215613faa57613fa9613de8565b5b6000613fb884828501613f7f565b91505092915050565b600073ffffffffffffffffffffffffffffffffffffffff82169050919050565b6000613fec82613fc1565b9050919050565b613ffc81613fe1565b82525050565b60006020820190506140176000830184613ff3565b92915050565b61402681613fe1565b811461403157600080fd5b50565b6000813590506140438161401d565b92915050565b600080604083850312156140605761405f613de8565b5b600061406e85828601614034565b925050602061407f85828601613f7f565b9150509250929050565b60006020828403121561409f5761409e613de8565b5b60006140ad84828501614034565b91505092915050565b6000806000606084860312156140cf576140ce613de8565b5b60006140dd86828701614034565b93505060206140ee86828701614034565b92505060406140ff86828701613f7f565b9150509250925092565b61411281613daa565b82525050565b61412181613fe1565b82525050565b600082825260208201905092915050565b600061414382613ead565b61414d8185614127565b935061415d818560208601613ec9565b61416681613efc565b840191505092915050565b60006101608301600083015161418a6000860182614109565b50602083015161419d6020860182614118565b50604083015184820360408601526141b58282614138565b915050606083015184820360608601526141cf8282614138565b915050608083015184820360808601526141e98282614138565b91505060a083015184820360a08601526142038282614138565b91505060c083015184820360c086015261421d8282614138565b91505060e083015184820360e08601526142378282614138565b9150506101008301518482036101008601526142538282614138565b91505061012083015184820361012086015261426f8282614138565b915050610140830151614286610140860182614109565b508091505092915050565b600060208201905081810360008301526142ab8184614171565b905092915050565b600080fd5b600080fd5b7f4e487b7100000000000000000000000000000000000000000000000000000000600052604160045260246000fd5b6142f582613efc565b810181811067ffffffffffffffff82111715614314576143136142bd565b5b80604052505050565b6000614327613dde565b905061433382826142ec565b919050565b600067ffffffffffffffff821115614353576143526142bd565b5b61435c82613efc565b9050602081019050919050565b82818337600083830152505050565b600061438b61438684614338565b61431d565b9050828152602081018484840111156143a7576143a66142b8565b5b6143b2848285614369565b509392505050565b600082601f8301126143cf576143ce6142b3565b5b81356143df848260208601614378565b91505092915050565b6000602082840312156143fe576143fd613de8565b5b600082013567ffffffffffffffff81111561441c5761441b613ded565b5b614428848285016143ba565b91505092915050565b600081519050919050565b600082825260208201905092915050565b6000819050602082019050919050565b6000610160830160008301516144766000860182614109565b5060208301516144896020860182614118565b50604083015184820360408601526144a18282614138565b915050606083015184820360608601526144bb8282614138565b915050608083015184820360808601526144d58282614138565b91505060a083015184820360a08601526144ef8282614138565b91505060c083015184820360c08601526145098282614138565b91505060e083015184820360e08601526145238282614138565b91505061010083015184820361010086015261453f8282614138565b91505061012083015184820361012086015261455b8282614138565b915050610140830151614572610140860182614109565b508091505092915050565b6000614589838361445d565b905092915050565b6000602082019050919050565b60006145a982614431565b6145b3818561443c565b9350836020820285016145c58561444d565b8060005b8581101561460157848403895281516145e2858261457d565b94506145ed83614591565b925060208a019950506001810190506145c9565b50829750879550505050505092915050565b6000602082019050818103600083015261462d818461459e565b905092915050565b61463e81613e77565b811461464957600080fd5b50565b60008135905061465b81614635565b92915050565b6000806040838503121561467857614677613de8565b5b600061468685828601614034565b92505060206146978582860161464c565b9150509250929050565b600067ffffffffffffffff8211156146bc576146bb6142bd565b5b6146c582613efc565b9050602081019050919050565b60006146e56146e0846146a1565b61431d565b905082815260208101848484011115614701576147006142b8565b5b61470c848285614369565b509392505050565b600082601f830112614729576147286142b3565b5b81356147398482602086016146d2565b91505092915050565b6000806000806080858703121561475c5761475b613de8565b5b600061476a87828801614034565b945050602061477b87828801614034565b935050604061478c87828801613f7f565b925050606085013567ffffffffffffffff8111156147ad576147ac613ded565b5b6147b987828801614714565b91505092959194509250565b600080604083850312156147dc576147db613de8565b5b60006147ea85828601614034565b92505060206147fb85828601614034565b9150509250929050565b600080600080600080600080610100898b03121561482657614825613de8565b5b600089013567ffffffffffffffff81111561484457614843613ded565b5b6148508b828c016143ba565b985050602089013567ffffffffffffffff81111561487157614870613ded565b5b61487d8b828c016143ba565b975050604089013567ffffffffffffffff81111561489e5761489d613ded565b5b6148aa8b828c016143ba565b965050606089013567ffffffffffffffff8111156148cb576148ca613ded565b5b6148d78b828c016143ba565b955050608089013567ffffffffffffffff8111156148f8576148f7613ded565b5b6149048b828c016143ba565b94505060a089013567ffffffffffffffff81111561492557614924613ded565b5b6149318b828c016143ba565b93505060c089013567ffffffffffffffff81111561495257614951613ded565b5b61495e8b828c016143ba565b92505060e089013567ffffffffffffffff81111561497f5761497e613ded565b5b61498b8b828c016143ba565b9150509295985092959890939650565b7f4e487b7100000000000000000000000000000000000000000000000000000000600052602260045260246000fd5b600060028204905060018216806149e257607f821691505b602082108114156149f6576149f561499b565b5b50919050565b7f4552433732313a20617070726f76656420717565727920666f72206e6f6e657860008201527f697374656e7420746f6b656e0000000000000000000000000000000000000000602082015250565b6000614a58602c83613eb8565b9150614a63826149fc565b604082019050919050565b60006020820190508181036000830152614a8781614a4b565b9050919050565b7f4552433732313a20617070726f76616c20746f2063757272656e74206f776e6560008201527f7200000000000000000000000000000000000000000000000000000000000000602082015250565b6000614aea602183613eb8565b9150614af582614a8e565b604082019050919050565b60006020820190508181036000830152614b1981614add565b9050919050565b7f4552433732313a20617070726f76652063616c6c6572206973206e6f74206f7760008201527f6e6572206e6f7220617070726f76656420666f7220616c6c0000000000000000602082015250565b6000614b7c603883613eb8565b9150614b8782614b20565b604082019050919050565b60006020820190508181036000830152614bab81614b6f565b9050919050565b7f4f776e61626c653a2063616c6c6572206973206e6f7420746865206f776e6572600082015250565b6000614be8602083613eb8565b9150614bf382614bb2565b602082019050919050565b60006020820190508181036000830152614c1781614bdb565b9050919050565b7f4e6f2072652d656e7472616e6379000000000000000000000000000000000000600082015250565b6000614c54600e83613eb8565b9150614c5f82614c1e565b602082019050919050565b60006020820190508181036000830152614c8381614c47565b9050919050565b600081905092915050565b50565b6000614ca5600083614c8a565b9150614cb082614c95565b600082019050919050565b6000614cc682614c98565b9150819050919050565b7f5472616e73666572206661696c65642e00000000000000000000000000000000600082015250565b6000614d06601083613eb8565b9150614d1182614cd0565b602082019050919050565b60006020820190508181036000830152614d3581614cf9565b9050919050565b6000606082019050614d516000830186613db4565b614d5e6020830185613db4565b614d6b6040830184613ff3565b949350505050565b7f4e487b7100000000000000000000000000000000000000000000000000000000600052603260045260246000fd5b7f4552433732313a206f776e657220717565727920666f72206e6f6e657869737460008201527f656e7420746f6b656e0000000000000000000000000000000000000000000000602082015250565b6000614dfe602983613eb8565b9150614e0982614da2565b604082019050919050565b60006020820190508181036000830152614e2d81614df1565b9050919050565b7f4552433732313a2062616c616e636520717565727920666f7220746865207a6560008201527f726f206164647265737300000000000000000000000000000000000000000000602082015250565b6000614e90602a83613eb8565b9150614e9b82614e34565b604082019050919050565b60006020820190508181036000830152614ebf81614e83565b9050919050565b7f4e487b7100000000000000000000000000000000000000000000000000000000600052601160045260246000fd5b6000614f0082613daa565b9150614f0b83613daa565b9250827fffffffffffffffffffffffffffffffffffffffffffffffffffffffffffffffff03821115614f4057614f3f614ec6565b5b828201905092915050565b7f496e76616c696420546f6b656e20494400000000000000000000000000000000600082015250565b6000614f81601083613eb8565b9150614f8c82614f4b565b602082019050919050565b60006020820190508181036000830152614fb081614f74565b9050919050565b600081519050919050565b6000614fcd82614fb7565b614fd78185614c8a565b9350614fe7818560208601613ec9565b80840191505092915050565b7f2f00000000000000000000000000000000000000000000000000000000000000815250565b60006150258286614fc2565b915061503082614ff3565b6001820191506150408285614fc2565b915061504b82614ff3565b60018201915061505b8284614fc2565b9150819050949350505050565b600060808201905061507d6000830187613db4565b61508a6020830186613db4565b6150976040830185613ff3565b6150a46060830184613db4565b95945050505050565b7f4f776e61626c653a206e6577206f776e657220697320746865207a65726f206160008201527f6464726573730000000000000000000000000000000000000000000000000000602082015250565b6000615109602683613eb8565b9150615114826150ad565b604082019050919050565b60006020820190508181036000830152615138816150fc565b9050919050565b7f4e6f7420656e6f756768204554482073656e743b20636865636b20707269636560008201527f2100000000000000000000000000000000000000000000000000000000000000602082015250565b600061519b602183613eb8565b91506151a68261513f565b604082019050919050565b600060208201905081810360008301526151ca8161518e565b9050919050565b7f4163636f756e7420646f6573206e6f7420686176652073756666696369656e7460008201527f2066756e64730000000000000000000000000000000000000000000000000000602082015250565b600061522d602683613eb8565b9150615238826151d1565b604082019050919050565b6000602082019050818103600083015261525c81615220565b9050919050565b7f2057616c6c657420616c72656164792068617320616e204e46492120596f752060008201527f676574206f6e65207065722077616c6c6574206163636f756e74000000000000602082015250565b60006152bf603a83613eb8565b91506152ca82615263565b604082019050919050565b600060208201905081810360008301526152ee816152b2565b9050919050565b600061530082613daa565b915061530b83613daa565b92508282101561531e5761531d614ec6565b5b828203905092915050565b600060a08201905061533e6000830188613db4565b61534b6020830187613db4565b6153586040830186613db4565b6153656060830185613db4565b81810360808301526153778184614171565b90509695505050505050565b600061538e82613daa565b91507fffffffffffffffffffffffffffffffffffffffffffffffffffffffffffffffff8214156153c1576153c0614ec6565b5b600182019050919050565b7f4e487b7100000000000000000000000000000000000000000000000000000000600052601260045260246000fd5b600061540682613daa565b915061541183613daa565b925082615421576154206153cc565b5b828204905092915050565b600061543782613daa565b915061544283613daa565b925082615452576154516153cc565b5b828206905092915050565b600061546882613daa565b915061547383613daa565b9250817fffffffffffffffffffffffffffffffffffffffffffffffffffffffffffffffff04831182151516156154ac576154ab614ec6565b5b828202905092915050565b60006154c282613daa565b915060008214156154d6576154d5614ec6565b5b600182039050919050565b7f537472696e67733a20686578206c656e67746820696e73756666696369656e74600082015250565b6000615517602083613eb8565b9150615522826154e1565b602082019050919050565b600060208201905081810360008301526155468161550a565b9050919050565b7f4552433732313a207472616e7366657220746f206e6f6e20455243373231526560008201527f63656976657220696d706c656d656e7465720000000000000000000000000000602082015250565b60006155a9603283613eb8565b91506155b48261554d565b604082019050919050565b600060208201905081810360008301526155d88161559c565b9050919050565b7f4552433732313a206d696e7420746f20746865207a65726f2061646472657373600082015250565b6000615615602083613eb8565b9150615620826155df565b602082019050919050565b6000602082019050818103600083015261564481615608565b9050919050565b7f4552433732313a20746f6b656e20616c7265616479206d696e74656400000000600082015250565b6000615681601c83613eb8565b915061568c8261564b565b602082019050919050565b600060208201905081810360008301526156b081615674565b9050919050565b600082825260208201905092915050565b60006156d382614fb7565b6156dd81856156b7565b93506156ed818560208601613ec9565b6156f681613efc565b840191505092915050565b60006080820190506157166000830187613ff3565b6157236020830186613ff3565b6157306040830185613db4565b818103606083015261574281846156c8565b905095945050505050565b60008151905061575c81613e1e565b92915050565b60006020828403121561577857615777613de8565b5b60006157868482850161574d565b9150509291505056fea2646970667358221220f4666d21bab2910a98d9e46b48d353b1b68e4396943da9ba79bec2423acf796464736f6c634300080c0033",
  "immutableReferences": {},
  "source": "// SPDX-License-Identifier: MIT\r\npragma solidity ^0.8.12 <0.9.0;\r\n\r\nimport \"@openzeppelin/contracts/access/Ownable.sol\";\r\nimport \"@openzeppelin/contracts/token/ERC721/ERC721.sol\";\r\nimport \"@openzeppelin/contracts/token/ERC721/extensions/IERC721Metadata.sol\";\r\n\r\ncontract PaperMastersNFI is ERC721, Ownable {\r\n    string private _setBaseURI;\r\n    uint256 private identityFee;\r\n\r\n    struct identity\r\n    {\r\n        uint256 chainId;\r\n        address walletAccount;\r\n        string name;\r\n        string email;\r\n        string profession;\r\n        string organization;\r\n        string slogan;\r\n        string website;\r\n        string uniqueYou;\r\n        string bgRGB;\r\n        uint256 originDate;\r\n    }\r\n\r\n    identity[] _dictionaryNFIs;\r\n    mapping(address => uint256) totalIdentities;\r\n    mapping(address => uint256) _supportPMDonations;\r\n\r\n    bool internal locked;\r\n    modifier noReentrant() {\r\n        require(!locked, \"No re-entrancy\");\r\n        locked = true;\r\n        _;\r\n        locked = false;\r\n    }\r\n    // modifier onlyOwner() {\r\n    //     require(msg.sender == owner, \"Message sender must be the contract's owner.\");\r\n    //     _;\r\n    // }\r\n    constructor() ERC721(\"papermasters.io\", \"NFI\") {\r\n        _setBaseURI = \"www.papermasters.io/identity\";\r\n        identityFee = 100000000000000000;\r\n        _dictionaryNFIs.push(identity(block.chainid, address(this), '', '', '', '', '', '', '', '', block.timestamp));\r\n    }\r\n\r\n    function getChainId() public view returns (uint256) {\r\n        return block.chainid;\r\n    }\r\n\r\n    function addressToTokenID(address walletAddress) public view returns (uint256) {\r\n        return totalIdentities[walletAddress];\r\n    }\r\n\r\n    function tokenIDtoIdentityStruct(uint256 _tokenid) public view returns (identity memory) {\r\n        return _dictionaryNFIs[_tokenid];\r\n    }\r\n\r\n    function addressHasTokenBool(address walletAddress) public view returns (bool) {\r\n        uint256 _tokenId = addressToTokenID(walletAddress);\r\n        return _tokenId >= 1;\r\n    }\r\n\r\n    function addressToIdentityStruct(address walletAddress) public view returns (identity memory){\r\n        uint256 tokenId = addressToTokenID(walletAddress);\r\n        return _dictionaryNFIs[tokenId];\r\n    }\r\n\r\n    function allIdentityStructs() public view returns (identity[] memory){\r\n        return _dictionaryNFIs;\r\n    }\r\n\r\n    function tokenURI(uint256 tokenId) public view virtual override returns (string memory) {\r\n        //require(tokenIDtoIdentityStruct(tokenId), \"ERC721Metadata: URI query for nonexistent token\");\r\n        //address owner = ownerOf(tokenId);\r\n        require(tokenId + 1  <= _dictionaryNFIs.length, \"Invalid Token ID\");\r\n        identity memory ident = _dictionaryNFIs[tokenId];\r\n        uint256 chainid = block.chainid;\r\n        string memory baseURI = _baseURI();\r\n        return string(bytes.concat(\r\n                bytes(baseURI),\r\n                \"/\",\r\n                bytes(Strings.toString(chainid)),\r\n                \"/\",\r\n                bytes(Strings.toHexString(uint160(ident.walletAccount), 20))\r\n            ));\r\n    }\r\n\r\n    function setBaseURI(string memory changeBaseURI) public onlyOwner {\r\n        _setBaseURI = changeBaseURI;\r\n    }\r\n\r\n    function _baseURI() internal view virtual override returns (string memory) {\r\n        return _setBaseURI;\r\n    }\r\n\r\n    function getIdentityFee() public view returns (uint256) {\r\n        return identityFee;\r\n    }\r\n\r\n    function setIdentityFee(uint256 val) external onlyOwner {\r\n        identityFee = val;\r\n        emit identityFeeChanged(val);\r\n    }\r\n    event identityFeeChanged(uint256 identityFee);\r\n\r\n    fallback() external payable {\r\n        emit Log(gasleft());\r\n    }\r\n\r\n    event Log(uint256 gasLeftLeft);\r\n\r\n    receive() external payable {}\r\n\r\n    function deposit() public payable {\r\n        uint256 amount = msg.value;\r\n        _supportPMDonations[msg.sender] += msg.value;\r\n        emit DonationMade(amount, address(this).balance, msg.sender, _supportPMDonations[msg.sender]);\r\n    }\r\n\r\n    event DonationMade(uint256 amount, uint256 balance, address donationSender, uint256 totalDonationsBySender);\r\n\r\n    function getBalance() public view onlyOwner returns (uint) {\r\n        return address(this).balance;\r\n    }\r\n\r\n    function withdraw() external noReentrant onlyOwner {\r\n        uint256 amount = address(this).balance;\r\n        (bool success,) = msg.sender.call{value : amount}(\"\");\r\n        require(success, \"Transfer failed.\");\r\n        emit Withdraw(amount, address(this).balance, msg.sender);\r\n    }\r\n\r\n    event Withdraw(uint256 amount, uint256 balance, address withdrawAddress);\r\n\r\n    function totalSupply() public view returns (uint256) {\r\n        return _dictionaryNFIs.length;\r\n    }\r\n\r\n    bool public paused = false;\r\n\r\n    modifier whenNotPaused() {\r\n        require(!paused);\r\n        _;\r\n    }\r\n    modifier whenPaused() {\r\n        require(paused);\r\n        _;\r\n    }\r\n    function pause() onlyOwner whenNotPaused public {\r\n        paused = true;\r\n        emit Pause();\r\n    }\r\n\r\n    event Pause();\r\n\r\n    function unpause() onlyOwner whenPaused public {\r\n        paused = false;\r\n        emit Unpause();\r\n    }\r\n\r\n    event Unpause();\r\n\r\n    function mintNFI(\r\n        string memory _name,\r\n        string memory _email,\r\n        string memory _profession,\r\n        string memory _organization,\r\n        string memory _slogan,\r\n        string memory _website,\r\n        string memory _uniqueYou,\r\n        string memory _bgRGB\r\n    ) public virtual noReentrant payable whenNotPaused\r\n    {\r\n        require(msg.value >= identityFee, \"Not enough ETH sent; check price!\");\r\n        require(msg.sender.balance >= identityFee, \"Account does not have sufficient funds\");\r\n        require(!addressHasTokenBool(msg.sender), \" Wallet already has an NFI! You get one per wallet account\");\r\n\r\n        identity memory _identity = identity({\r\n        chainId : block.chainid,\r\n        walletAccount : msg.sender,\r\n        name : _name,\r\n        email : _email,\r\n        profession : _profession,\r\n        organization : _organization,\r\n        slogan : _slogan,\r\n        website : _website,\r\n        uniqueYou : _uniqueYou,\r\n        bgRGB : _bgRGB,\r\n        originDate : block.timestamp\r\n        });\r\n\r\n        _dictionaryNFIs.push(_identity);\r\n        uint256 newTokenID = _dictionaryNFIs.length - 1;\r\n        totalIdentities[msg.sender] = newTokenID;\r\n        _safeMint(msg.sender, newTokenID);\r\n\r\n        emit NFIMinted(block.chainid, msg.sender, newTokenID, block.timestamp, msg.value, _identity);\r\n    }\r\n\r\n    event NFIMinted(uint256 chainId, address indexed _from, uint256 tokenId, uint256 timeStamp, uint256 contractFee, identity identityStruct);\r\n\r\n    function setApprovalForAll(address operator, bool approved) public virtual override onlyOwner {}\r\n\r\n    function isApprovedForAll(address owner, address operator) public view virtual override onlyOwner returns (bool) {}\r\n\r\n    function transferFrom(address from, address to, uint256 tokenId) public virtual override onlyOwner {}\r\n\r\n    function safeTransferFrom(address from, address to, uint256 tokenId) public virtual override onlyOwner {}\r\n\r\n    function safeTransferFrom(address from, address to, uint256 tokenId, bytes memory _data) public virtual override onlyOwner {}\r\n\r\n    function _safeTransfer(address from, address to, uint256 tokenId, bytes memory _data) internal virtual override onlyOwner {}\r\n}",
  "sourcePath": "/home/ramona/gitrepos/PaperMasters/truffle/contracts/PaperMastersNFI.sol",
  "compiler": {
    "name": "solc",
    "version": "0.8.12+commit.f00d7308.Emscripten.clang"
  },
  "schemaVersion": "3.4.4",
  "updatedAt": "2022-06-22T03:31:14.801Z",
  "devdoc": {
    "kind": "dev",
    "methods": {
      "approve(address,uint256)": {
        "details": "See {IERC721-approve}."
      },
      "balanceOf(address)": {
        "details": "See {IERC721-balanceOf}."
      },
      "getApproved(uint256)": {
        "details": "See {IERC721-getApproved}."
      },
      "isApprovedForAll(address,address)": {
        "details": "See {IERC721-isApprovedForAll}."
      },
      "name()": {
        "details": "See {IERC721Metadata-name}."
      },
      "owner()": {
        "details": "Returns the address of the current owner."
      },
      "ownerOf(uint256)": {
        "details": "See {IERC721-ownerOf}."
      },
      "renounceOwnership()": {
        "details": "Leaves the contract without owner. It will not be possible to call `onlyOwner` functions anymore. Can only be called by the current owner. NOTE: Renouncing ownership will leave the contract without an owner, thereby removing any functionality that is only available to the owner."
      },
      "safeTransferFrom(address,address,uint256)": {
        "details": "See {IERC721-safeTransferFrom}."
      },
      "safeTransferFrom(address,address,uint256,bytes)": {
        "details": "See {IERC721-safeTransferFrom}."
      },
      "setApprovalForAll(address,bool)": {
        "details": "See {IERC721-setApprovalForAll}."
      },
      "supportsInterface(bytes4)": {
        "details": "See {IERC165-supportsInterface}."
      },
      "symbol()": {
        "details": "See {IERC721Metadata-symbol}."
      },
      "tokenURI(uint256)": {
        "details": "See {IERC721Metadata-tokenURI}."
      },
      "transferFrom(address,address,uint256)": {
        "details": "See {IERC721-transferFrom}."
      },
      "transferOwnership(address)": {
        "details": "Transfers ownership of the contract to a new account (`newOwner`). Can only be called by the current owner."
      }
    },
    "version": 1
  },
  "userdoc": {
    "kind": "user",
    "methods": {},
    "version": 1
  }
}