{
  "contractName": "MintIdentity",
  "abi": [
    {
      "inputs": [],
      "stateMutability": "nonpayable",
      "type": "constructor"
    },
    {
      "anonymous": false,
      "inputs": [
        {
          "indexed": true,
          "internalType": "address",
          "name": "owner",
          "type": "address"
        },
        {
          "indexed": true,
          "internalType": "address",
          "name": "approved",
          "type": "address"
        },
        {
          "indexed": true,
          "internalType": "uint256",
          "name": "tokenId",
          "type": "uint256"
        }
      ],
      "name": "Approval",
      "type": "event"
    },
    {
      "anonymous": false,
      "inputs": [
        {
          "indexed": true,
          "internalType": "address",
          "name": "owner",
          "type": "address"
        },
        {
          "indexed": true,
          "internalType": "address",
          "name": "operator",
          "type": "address"
        },
        {
          "indexed": false,
          "internalType": "bool",
          "name": "approved",
          "type": "bool"
        }
      ],
      "name": "ApprovalForAll",
      "type": "event"
    },
    {
      "anonymous": false,
      "inputs": [
        {
          "indexed": true,
          "internalType": "address",
          "name": "previousOwner",
          "type": "address"
        },
        {
          "indexed": true,
          "internalType": "address",
          "name": "newOwner",
          "type": "address"
        }
      ],
      "name": "OwnershipTransferred",
      "type": "event"
    },
    {
      "anonymous": false,
      "inputs": [
        {
          "indexed": true,
          "internalType": "address",
          "name": "from",
          "type": "address"
        },
        {
          "indexed": true,
          "internalType": "address",
          "name": "to",
          "type": "address"
        },
        {
          "indexed": true,
          "internalType": "uint256",
          "name": "tokenId",
          "type": "uint256"
        }
      ],
      "name": "Transfer",
      "type": "event"
    },
    {
      "inputs": [
        {
          "internalType": "address",
          "name": "to",
          "type": "address"
        },
        {
          "internalType": "uint256",
          "name": "tokenId",
          "type": "uint256"
        }
      ],
      "name": "approve",
      "outputs": [],
      "stateMutability": "nonpayable",
      "type": "function"
    },
    {
      "inputs": [
        {
          "internalType": "address",
          "name": "owner",
          "type": "address"
        }
      ],
      "name": "balanceOf",
      "outputs": [
        {
          "internalType": "uint256",
          "name": "",
          "type": "uint256"
        }
      ],
      "stateMutability": "view",
      "type": "function",
      "constant": true
    },
    {
      "inputs": [
        {
          "internalType": "uint256",
          "name": "tokenId",
          "type": "uint256"
        }
      ],
      "name": "getApproved",
      "outputs": [
        {
          "internalType": "address",
          "name": "",
          "type": "address"
        }
      ],
      "stateMutability": "view",
      "type": "function",
      "constant": true
    },
    {
      "inputs": [
        {
          "internalType": "address",
          "name": "owner",
          "type": "address"
        },
        {
          "internalType": "address",
          "name": "operator",
          "type": "address"
        }
      ],
      "name": "isApprovedForAll",
      "outputs": [
        {
          "internalType": "bool",
          "name": "",
          "type": "bool"
        }
      ],
      "stateMutability": "view",
      "type": "function",
      "constant": true
    },
    {
      "inputs": [],
      "name": "name",
      "outputs": [
        {
          "internalType": "string",
          "name": "",
          "type": "string"
        }
      ],
      "stateMutability": "view",
      "type": "function",
      "constant": true
    },
    {
      "inputs": [],
      "name": "owner",
      "outputs": [
        {
          "internalType": "address",
          "name": "",
          "type": "address"
        }
      ],
      "stateMutability": "view",
      "type": "function",
      "constant": true
    },
    {
      "inputs": [
        {
          "internalType": "uint256",
          "name": "tokenId",
          "type": "uint256"
        }
      ],
      "name": "ownerOf",
      "outputs": [
        {
          "internalType": "address",
          "name": "",
          "type": "address"
        }
      ],
      "stateMutability": "view",
      "type": "function",
      "constant": true
    },
    {
      "inputs": [],
      "name": "renounceOwnership",
      "outputs": [],
      "stateMutability": "nonpayable",
      "type": "function"
    },
    {
      "inputs": [
        {
          "internalType": "address",
          "name": "from",
          "type": "address"
        },
        {
          "internalType": "address",
          "name": "to",
          "type": "address"
        },
        {
          "internalType": "uint256",
          "name": "tokenId",
          "type": "uint256"
        }
      ],
      "name": "safeTransferFrom",
      "outputs": [],
      "stateMutability": "nonpayable",
      "type": "function"
    },
    {
      "inputs": [
        {
          "internalType": "address",
          "name": "from",
          "type": "address"
        },
        {
          "internalType": "address",
          "name": "to",
          "type": "address"
        },
        {
          "internalType": "uint256",
          "name": "tokenId",
          "type": "uint256"
        },
        {
          "internalType": "bytes",
          "name": "_data",
          "type": "bytes"
        }
      ],
      "name": "safeTransferFrom",
      "outputs": [],
      "stateMutability": "nonpayable",
      "type": "function"
    },
    {
      "inputs": [
        {
          "internalType": "address",
          "name": "operator",
          "type": "address"
        },
        {
          "internalType": "bool",
          "name": "approved",
          "type": "bool"
        }
      ],
      "name": "setApprovalForAll",
      "outputs": [],
      "stateMutability": "nonpayable",
      "type": "function"
    },
    {
      "inputs": [
        {
          "internalType": "bytes4",
          "name": "interfaceId",
          "type": "bytes4"
        }
      ],
      "name": "supportsInterface",
      "outputs": [
        {
          "internalType": "bool",
          "name": "",
          "type": "bool"
        }
      ],
      "stateMutability": "view",
      "type": "function",
      "constant": true
    },
    {
      "inputs": [],
      "name": "symbol",
      "outputs": [
        {
          "internalType": "string",
          "name": "",
          "type": "string"
        }
      ],
      "stateMutability": "view",
      "type": "function",
      "constant": true
    },
    {
      "inputs": [
        {
          "internalType": "uint256",
          "name": "tokenId",
          "type": "uint256"
        }
      ],
      "name": "tokenURI",
      "outputs": [
        {
          "internalType": "string",
          "name": "",
          "type": "string"
        }
      ],
      "stateMutability": "view",
      "type": "function",
      "constant": true
    },
    {
      "inputs": [
        {
          "internalType": "address",
          "name": "from",
          "type": "address"
        },
        {
          "internalType": "address",
          "name": "to",
          "type": "address"
        },
        {
          "internalType": "uint256",
          "name": "tokenId",
          "type": "uint256"
        }
      ],
      "name": "transferFrom",
      "outputs": [],
      "stateMutability": "nonpayable",
      "type": "function"
    },
    {
      "inputs": [
        {
          "internalType": "address",
          "name": "newOwner",
          "type": "address"
        }
      ],
      "name": "transferOwnership",
      "outputs": [],
      "stateMutability": "nonpayable",
      "type": "function"
    },
    {
      "inputs": [
        {
          "internalType": "string",
          "name": "baseURI",
          "type": "string"
        }
      ],
      "name": "setBaseURI",
      "outputs": [],
      "stateMutability": "nonpayable",
      "type": "function"
    },
    {
      "inputs": [
        {
          "internalType": "uint256",
          "name": "tokenId",
          "type": "uint256"
        },
        {
          "internalType": "string",
          "name": "newName",
          "type": "string"
        }
      ],
      "name": "changeName",
      "outputs": [],
      "stateMutability": "nonpayable",
      "type": "function"
    },
    {
      "inputs": [
        {
          "internalType": "uint256",
          "name": "tokenId",
          "type": "uint256"
        },
        {
          "internalType": "string",
          "name": "newAKA",
          "type": "string"
        }
      ],
      "name": "changeAKA",
      "outputs": [],
      "stateMutability": "nonpayable",
      "type": "function"
    },
    {
      "inputs": [
        {
          "internalType": "uint256",
          "name": "tokenId",
          "type": "uint256"
        },
        {
          "internalType": "string",
          "name": "newSlogan",
          "type": "string"
        }
      ],
      "name": "changeSlogan",
      "outputs": [],
      "stateMutability": "nonpayable",
      "type": "function"
    },
    {
      "inputs": [
        {
          "internalType": "uint256",
          "name": "tokenId",
          "type": "uint256"
        },
        {
          "internalType": "string",
          "name": "newDescription",
          "type": "string"
        }
      ],
      "name": "changeDescription",
      "outputs": [],
      "stateMutability": "nonpayable",
      "type": "function"
    },
    {
      "inputs": [
        {
          "internalType": "uint256",
          "name": "tokenId",
          "type": "uint256"
        },
        {
          "internalType": "string",
          "name": "newURL",
          "type": "string"
        }
      ],
      "name": "changeURL",
      "outputs": [],
      "stateMutability": "nonpayable",
      "type": "function"
    },
    {
      "inputs": [
        {
          "internalType": "uint256",
          "name": "tokenId",
          "type": "uint256"
        },
        {
          "internalType": "string",
          "name": "newBio",
          "type": "string"
        }
      ],
      "name": "changeBio",
      "outputs": [],
      "stateMutability": "nonpayable",
      "type": "function"
    }
  ],
  "bytecode": "0x60806040523480156200001157600080fd5b506040518060400160405280600c81526020017f4d696e744964656e7469747900000000000000000000000000000000000000008152506040518060400160405280600581526020017f4944454e5400000000000000000000000000000000000000000000000000000081525081600090805190602001906200009692919062000b28565b508060019080519060200190620000af92919062000b28565b505050620000d2620000c66200026660201b60201c565b6200026e60201b60201c565b620000fc60405180606001604052806025815260200162004419602591396200033460201b60201c565b620002606040518060400160405280600681526020017f416e6472657700000000000000000000000000000000000000000000000000008152506040518060400160405280600b81526020017f72616d6f6e616a656e6e790000000000000000000000000000000000000000008152506040518060400160405280600c81526020017f50617065724d61737465727300000000000000000000000000000000000000008152506040518060400160405280600f81526020017f416c6c207468696e677320576176650000000000000000000000000000000000815250604051806020016040528060008152506040518060400160405280601681526020017f687474703a2f2f72616d6f6e616a656e6e792e636f6d000000000000000000008152506040518060400160405280600881526020017f456e67696e656572000000000000000000000000000000000000000000000000815250620003df60201b60201c565b620011ac565b600033905090565b6000600660009054906101000a900473ffffffffffffffffffffffffffffffffffffffff16905081600660006101000a81548173ffffffffffffffffffffffffffffffffffffffff021916908373ffffffffffffffffffffffffffffffffffffffff1602179055508173ffffffffffffffffffffffffffffffffffffffff168173ffffffffffffffffffffffffffffffffffffffff167f8be0079c531659141344cd1fd0a4f28419497f9722a3daafe3b4186f6b6457e060405160405180910390a35050565b620003446200026660201b60201c565b73ffffffffffffffffffffffffffffffffffffffff166200036a620005ec60201b60201c565b73ffffffffffffffffffffffffffffffffffffffff1614620003c3576040517f08c379a0000000000000000000000000000000000000000000000000000000008152600401620003ba9062000c39565b60405180910390fd5b8060099080519060200190620003db92919062000b28565b5050565b6000620003f860076200061660201b620013501760201c565b9050600062000413898989898989896200062460201b60201c565b9050604051806101a001604052808281526020018a815260200189815260200188815260200187815260200186815260200185815260200184815260200142815260200142815260200160001515815260200160008152602001600081525060086000848152602001908152602001600020600082015181600001556020820151816001019080519060200190620004ad92919062000b28565b506040820151816002019080519060200190620004cc92919062000b28565b506060820151816003019080519060200190620004eb92919062000b28565b5060808201518160040190805190602001906200050a92919062000b28565b5060a08201518160050190805190602001906200052992919062000b28565b5060c08201518160060190805190602001906200054892919062000b28565b5060e08201518160070190805190602001906200056792919062000b28565b506101008201518160080155610120820151816009015561014082015181600a0160006101000a81548160ff02191690831515021790555061016082015181600b015561018082015181600c0155905050620005ca33836200066a60201b60201c565b620005e160076200069060201b6200135e1760201c565b505050505050505050565b6000600660009054906101000a900473ffffffffffffffffffffffffffffffffffffffff16905090565b600081600001549050919050565b600087878787878787426040516020016200064798979695949392919062000d0d565b604051602081830303815290604052805190602001209050979650505050505050565b6200068c828260405180602001604052806000815250620006a660201b60201c565b5050565b6001816000016000828254019250508190555050565b620006b883836200071460201b60201c565b620006cd6000848484620008fa60201b60201c565b6200070f576040517f08c379a0000000000000000000000000000000000000000000000000000000008152600401620007069062000e09565b60405180910390fd5b505050565b600073ffffffffffffffffffffffffffffffffffffffff168273ffffffffffffffffffffffffffffffffffffffff16141562000787576040517f08c379a00000000000000000000000000000000000000000000000000000000081526004016200077e9062000e7b565b60405180910390fd5b620007988162000aa460201b60201c565b15620007db576040517f08c379a0000000000000000000000000000000000000000000000000000000008152600401620007d29062000eed565b60405180910390fd5b620007ef6000838362000b1060201b60201c565b6001600360008473ffffffffffffffffffffffffffffffffffffffff1673ffffffffffffffffffffffffffffffffffffffff168152602001908152602001600020600082825462000841919062000f3e565b92505081905550816002600083815260200190815260200160002060006101000a81548173ffffffffffffffffffffffffffffffffffffffff021916908373ffffffffffffffffffffffffffffffffffffffff160217905550808273ffffffffffffffffffffffffffffffffffffffff16600073ffffffffffffffffffffffffffffffffffffffff167fddf252ad1be2c89b69c2b068fc378daa952ba7f163c4a11628f55a4df523b3ef60405160405180910390a45050565b6000620009288473ffffffffffffffffffffffffffffffffffffffff1662000b1560201b620013741760201c565b1562000a97578373ffffffffffffffffffffffffffffffffffffffff1663150b7a026200095a6200026660201b60201c565b8786866040518563ffffffff1660e01b81526004016200097e94939291906200105f565b6020604051808303816000875af1925050508015620009bd57506040513d601f19601f82011682018060405250810190620009ba919062001115565b60015b62000a46573d8060008114620009f0576040519150601f19603f3d011682016040523d82523d6000602084013e620009f5565b606091505b5060008151141562000a3e576040517f08c379a000000000000000000000000000000000000000000000000000000000815260040162000a359062000e09565b60405180910390fd5b805181602001fd5b63150b7a0260e01b7bffffffffffffffffffffffffffffffffffffffffffffffffffffffff1916817bffffffffffffffffffffffffffffffffffffffffffffffffffffffff19161491505062000a9c565b600190505b949350505050565b60008073ffffffffffffffffffffffffffffffffffffffff166002600084815260200190815260200160002060009054906101000a900473ffffffffffffffffffffffffffffffffffffffff1673ffffffffffffffffffffffffffffffffffffffff1614159050919050565b505050565b600080823b905060008111915050919050565b82805462000b369062001176565b90600052602060002090601f01602090048101928262000b5a576000855562000ba6565b82601f1062000b7557805160ff191683800117855562000ba6565b8280016001018555821562000ba6579182015b8281111562000ba557825182559160200191906001019062000b88565b5b50905062000bb5919062000bb9565b5090565b5b8082111562000bd457600081600090555060010162000bba565b5090565b600082825260208201905092915050565b7f4f776e61626c653a2063616c6c6572206973206e6f7420746865206f776e6572600082015250565b600062000c2160208362000bd8565b915062000c2e8262000be9565b602082019050919050565b6000602082019050818103600083015262000c548162000c12565b9050919050565b600081519050919050565b600081905092915050565b60005b8381101562000c9157808201518184015260208101905062000c74565b8381111562000ca1576000848401525b50505050565b600062000cb48262000c5b565b62000cc0818562000c66565b935062000cd281856020860162000c71565b80840191505092915050565b6000819050919050565b6000819050919050565b62000d0762000d018262000cde565b62000ce8565b82525050565b600062000d1b828b62000ca7565b915062000d29828a62000ca7565b915062000d37828962000ca7565b915062000d45828862000ca7565b915062000d53828762000ca7565b915062000d61828662000ca7565b915062000d6f828562000ca7565b915062000d7d828462000cf2565b6020820191508190509998505050505050505050565b7f4552433732313a207472616e7366657220746f206e6f6e20455243373231526560008201527f63656976657220696d706c656d656e7465720000000000000000000000000000602082015250565b600062000df160328362000bd8565b915062000dfe8262000d93565b604082019050919050565b6000602082019050818103600083015262000e248162000de2565b9050919050565b7f4552433732313a206d696e7420746f20746865207a65726f2061646472657373600082015250565b600062000e6360208362000bd8565b915062000e708262000e2b565b602082019050919050565b6000602082019050818103600083015262000e968162000e54565b9050919050565b7f4552433732313a20746f6b656e20616c7265616479206d696e74656400000000600082015250565b600062000ed5601c8362000bd8565b915062000ee28262000e9d565b602082019050919050565b6000602082019050818103600083015262000f088162000ec6565b9050919050565b7f4e487b7100000000000000000000000000000000000000000000000000000000600052601160045260246000fd5b600062000f4b8262000cde565b915062000f588362000cde565b9250827fffffffffffffffffffffffffffffffffffffffffffffffffffffffffffffffff0382111562000f905762000f8f62000f0f565b5b828201905092915050565b600073ffffffffffffffffffffffffffffffffffffffff82169050919050565b600062000fc88262000f9b565b9050919050565b62000fda8162000fbb565b82525050565b62000feb8162000cde565b82525050565b600081519050919050565b600082825260208201905092915050565b6000601f19601f8301169050919050565b60006200102b8262000ff1565b62001037818562000ffc565b93506200104981856020860162000c71565b62001054816200100d565b840191505092915050565b600060808201905062001076600083018762000fcf565b62001085602083018662000fcf565b62001094604083018562000fe0565b8181036060830152620010a881846200101e565b905095945050505050565b600080fd5b60007fffffffff0000000000000000000000000000000000000000000000000000000082169050919050565b620010ef81620010b8565b8114620010fb57600080fd5b50565b6000815190506200110f81620010e4565b92915050565b6000602082840312156200112e576200112d620010b3565b5b60006200113e84828501620010fe565b91505092915050565b7f4e487b7100000000000000000000000000000000000000000000000000000000600052602260045260246000fd5b600060028204905060018216806200118f57607f821691505b60208210811415620011a657620011a562001147565b5b50919050565b61325d80620011bc6000396000f3fe608060405234801561001057600080fd5b506004361061014d5760003560e01c8063715018a6116100c3578063c39cbef11161007c578063c39cbef114610372578063c87b56dd1461038e578063de6a06ed146103be578063e985e9c5146103da578063ec048b781461040a578063f2fde38b146104265761014d565b8063715018a6146102d857806373b286bb146102e25780638da5cb5b146102fe57806395d89b411461031c578063a22cb4651461033a578063b88d4fde146103565761014d565b806342842e0e1161011557806342842e0e146102085780634d4265281461022457806355f804b3146102405780636352211e1461025c57806365bd71f41461028c57806370a08231146102a85761014d565b806301ffc9a71461015257806306fdde0314610182578063081812fc146101a0578063095ea7b3146101d057806323b872dd146101ec575b600080fd5b61016c60048036038101906101679190611f76565b610442565b6040516101799190611fbe565b60405180910390f35b61018a610524565b6040516101979190612072565b60405180910390f35b6101ba60048036038101906101b591906120ca565b6105b6565b6040516101c79190612138565b60405180910390f35b6101ea60048036038101906101e5919061217f565b61063b565b005b610206600480360381019061020191906121bf565b610753565b005b610222600480360381019061021d91906121bf565b6107b3565b005b61023e60048036038101906102399190612347565b6107d3565b005b61025a600480360381019061025591906123a3565b6108c0565b005b610276600480360381019061027191906120ca565b610956565b6040516102839190612138565b60405180910390f35b6102a660048036038101906102a19190612347565b610a08565b005b6102c260048036038101906102bd91906123ec565b610af5565b6040516102cf9190612428565b60405180910390f35b6102e0610bad565b005b6102fc60048036038101906102f79190612347565b610c35565b005b610306610d22565b6040516103139190612138565b60405180910390f35b610324610d4c565b6040516103319190612072565b60405180910390f35b610354600480360381019061034f919061246f565b610dde565b005b610370600480360381019061036b9190612550565b610df4565b005b61038c60048036038101906103879190612347565b610e56565b005b6103a860048036038101906103a391906120ca565b610f43565b6040516103b59190612072565b60405180910390f35b6103d860048036038101906103d39190612347565b610fea565b005b6103f460048036038101906103ef91906125d3565b6110d7565b6040516104019190611fbe565b60405180910390f35b610424600480360381019061041f9190612347565b61116b565b005b610440600480360381019061043b91906123ec565b611258565b005b60007f80ac58cd000000000000000000000000000000000000000000000000000000007bffffffffffffffffffffffffffffffffffffffffffffffffffffffff1916827bffffffffffffffffffffffffffffffffffffffffffffffffffffffff1916148061050d57507f5b5e139f000000000000000000000000000000000000000000000000000000007bffffffffffffffffffffffffffffffffffffffffffffffffffffffff1916827bffffffffffffffffffffffffffffffffffffffffffffffffffffffff1916145b8061051d575061051c82611387565b5b9050919050565b60606000805461053390612642565b80601f016020809104026020016040519081016040528092919081815260200182805461055f90612642565b80156105ac5780601f10610581576101008083540402835291602001916105ac565b820191906000526020600020905b81548152906001019060200180831161058f57829003601f168201915b5050505050905090565b60006105c1826113f1565b610600576040517f08c379a00000000000000000000000000000000000000000000000000000000081526004016105f7906126e6565b60405180910390fd5b6004600083815260200190815260200160002060009054906101000a900473ffffffffffffffffffffffffffffffffffffffff169050919050565b600061064682610956565b90508073ffffffffffffffffffffffffffffffffffffffff168373ffffffffffffffffffffffffffffffffffffffff1614156106b7576040517f08c379a00000000000000000000000000000000000000000000000000000000081526004016106ae90612778565b60405180910390fd5b8073ffffffffffffffffffffffffffffffffffffffff166106d661145d565b73ffffffffffffffffffffffffffffffffffffffff1614806107055750610704816106ff61145d565b6110d7565b5b610744576040517f08c379a000000000000000000000000000000000000000000000000000000000815260040161073b9061280a565b60405180910390fd5b61074e8383611465565b505050565b61076461075e61145d565b8261151e565b6107a3576040517f08c379a000000000000000000000000000000000000000000000000000000000815260040161079a9061289c565b60405180910390fd5b6107ae8383836115fc565b505050565b6107ce83838360405180602001604052806000815250610df4565b505050565b6107dc826113f1565b61081b576040517f08c379a000000000000000000000000000000000000000000000000000000000815260040161081290612908565b60405180910390fd5b3373ffffffffffffffffffffffffffffffffffffffff1661083b83610956565b73ffffffffffffffffffffffffffffffffffffffff1614610891576040517f08c379a00000000000000000000000000000000000000000000000000000000081526004016108889061299a565b60405180910390fd5b806008600084815260200190815260200160002060070190805190602001906108bb929190611e67565b505050565b6108c861145d565b73ffffffffffffffffffffffffffffffffffffffff166108e6610d22565b73ffffffffffffffffffffffffffffffffffffffff161461093c576040517f08c379a000000000000000000000000000000000000000000000000000000000815260040161093390612a06565b60405180910390fd5b8060099080519060200190610952929190611e67565b5050565b6000806002600084815260200190815260200160002060009054906101000a900473ffffffffffffffffffffffffffffffffffffffff169050600073ffffffffffffffffffffffffffffffffffffffff168173ffffffffffffffffffffffffffffffffffffffff1614156109ff576040517f08c379a00000000000000000000000000000000000000000000000000000000081526004016109f690612a98565b60405180910390fd5b80915050919050565b610a11826113f1565b610a50576040517f08c379a0000000000000000000000000000000000000000000000000000000008152600401610a4790612908565b60405180910390fd5b3373ffffffffffffffffffffffffffffffffffffffff16610a7083610956565b73ffffffffffffffffffffffffffffffffffffffff1614610ac6576040517f08c379a0000000000000000000000000000000000000000000000000000000008152600401610abd9061299a565b60405180910390fd5b80600860008481526020019081526020016000206002019080519060200190610af0929190611e67565b505050565b60008073ffffffffffffffffffffffffffffffffffffffff168273ffffffffffffffffffffffffffffffffffffffff161415610b66576040517f08c379a0000000000000000000000000000000000000000000000000000000008152600401610b5d90612b2a565b60405180910390fd5b600360008373ffffffffffffffffffffffffffffffffffffffff1673ffffffffffffffffffffffffffffffffffffffff168152602001908152602001600020549050919050565b610bb561145d565b73ffffffffffffffffffffffffffffffffffffffff16610bd3610d22565b73ffffffffffffffffffffffffffffffffffffffff1614610c29576040517f08c379a0000000000000000000000000000000000000000000000000000000008152600401610c2090612a06565b60405180910390fd5b610c336000611858565b565b610c3e826113f1565b610c7d576040517f08c379a0000000000000000000000000000000000000000000000000000000008152600401610c7490612908565b60405180910390fd5b3373ffffffffffffffffffffffffffffffffffffffff16610c9d83610956565b73ffffffffffffffffffffffffffffffffffffffff1614610cf3576040517f08c379a0000000000000000000000000000000000000000000000000000000008152600401610cea9061299a565b60405180910390fd5b80600860008481526020019081526020016000206006019080519060200190610d1d929190611e67565b505050565b6000600660009054906101000a900473ffffffffffffffffffffffffffffffffffffffff16905090565b606060018054610d5b90612642565b80601f0160208091040260200160405190810160405280929190818152602001828054610d8790612642565b8015610dd45780601f10610da957610100808354040283529160200191610dd4565b820191906000526020600020905b815481529060010190602001808311610db757829003601f168201915b5050505050905090565b610df0610de961145d565b838361191e565b5050565b610e05610dff61145d565b8361151e565b610e44576040517f08c379a0000000000000000000000000000000000000000000000000000000008152600401610e3b9061289c565b60405180910390fd5b610e5084848484611a8b565b50505050565b610e5f826113f1565b610e9e576040517f08c379a0000000000000000000000000000000000000000000000000000000008152600401610e9590612908565b60405180910390fd5b3373ffffffffffffffffffffffffffffffffffffffff16610ebe83610956565b73ffffffffffffffffffffffffffffffffffffffff1614610f14576040517f08c379a0000000000000000000000000000000000000000000000000000000008152600401610f0b9061299a565b60405180910390fd5b80600860008481526020019081526020016000206001019080519060200190610f3e929190611e67565b505050565b6060610f4e826113f1565b610f8d576040517f08c379a0000000000000000000000000000000000000000000000000000000008152600401610f8490612bbc565b60405180910390fd5b6000610f97611ae7565b90506000815111610fb75760405180602001604052806000815250610fe2565b80610fc184611b79565b604051602001610fd2929190612c18565b6040516020818303038152906040525b915050919050565b610ff3826113f1565b611032576040517f08c379a000000000000000000000000000000000000000000000000000000000815260040161102990612908565b60405180910390fd5b3373ffffffffffffffffffffffffffffffffffffffff1661105283610956565b73ffffffffffffffffffffffffffffffffffffffff16146110a8576040517f08c379a000000000000000000000000000000000000000000000000000000000815260040161109f9061299a565b60405180910390fd5b806008600084815260200190815260200160002060050190805190602001906110d2929190611e67565b505050565b6000600560008473ffffffffffffffffffffffffffffffffffffffff1673ffffffffffffffffffffffffffffffffffffffff16815260200190815260200160002060008373ffffffffffffffffffffffffffffffffffffffff1673ffffffffffffffffffffffffffffffffffffffff16815260200190815260200160002060009054906101000a900460ff16905092915050565b611174826113f1565b6111b3576040517f08c379a00000000000000000000000000000000000000000000000000000000081526004016111aa90612908565b60405180910390fd5b3373ffffffffffffffffffffffffffffffffffffffff166111d383610956565b73ffffffffffffffffffffffffffffffffffffffff1614611229576040517f08c379a00000000000000000000000000000000000000000000000000000000081526004016112209061299a565b60405180910390fd5b80600860008481526020019081526020016000206004019080519060200190611253929190611e67565b505050565b61126061145d565b73ffffffffffffffffffffffffffffffffffffffff1661127e610d22565b73ffffffffffffffffffffffffffffffffffffffff16146112d4576040517f08c379a00000000000000000000000000000000000000000000000000000000081526004016112cb90612a06565b60405180910390fd5b600073ffffffffffffffffffffffffffffffffffffffff168173ffffffffffffffffffffffffffffffffffffffff161415611344576040517f08c379a000000000000000000000000000000000000000000000000000000000815260040161133b90612cae565b60405180910390fd5b61134d81611858565b50565b600081600001549050919050565b6001816000016000828254019250508190555050565b600080823b905060008111915050919050565b60007f01ffc9a7000000000000000000000000000000000000000000000000000000007bffffffffffffffffffffffffffffffffffffffffffffffffffffffff1916827bffffffffffffffffffffffffffffffffffffffffffffffffffffffff1916149050919050565b60008073ffffffffffffffffffffffffffffffffffffffff166002600084815260200190815260200160002060009054906101000a900473ffffffffffffffffffffffffffffffffffffffff1673ffffffffffffffffffffffffffffffffffffffff1614159050919050565b600033905090565b816004600083815260200190815260200160002060006101000a81548173ffffffffffffffffffffffffffffffffffffffff021916908373ffffffffffffffffffffffffffffffffffffffff160217905550808273ffffffffffffffffffffffffffffffffffffffff166114d883610956565b73ffffffffffffffffffffffffffffffffffffffff167f8c5be1e5ebec7d5bd14f71427d1e84f3dd0314c0f7b2291e5b200ac8c7c3b92560405160405180910390a45050565b6000611529826113f1565b611568576040517f08c379a000000000000000000000000000000000000000000000000000000000815260040161155f90612d40565b60405180910390fd5b600061157383610956565b90508073ffffffffffffffffffffffffffffffffffffffff168473ffffffffffffffffffffffffffffffffffffffff1614806115e257508373ffffffffffffffffffffffffffffffffffffffff166115ca846105b6565b73ffffffffffffffffffffffffffffffffffffffff16145b806115f357506115f281856110d7565b5b91505092915050565b8273ffffffffffffffffffffffffffffffffffffffff1661161c82610956565b73ffffffffffffffffffffffffffffffffffffffff1614611672576040517f08c379a000000000000000000000000000000000000000000000000000000000815260040161166990612dd2565b60405180910390fd5b600073ffffffffffffffffffffffffffffffffffffffff168273ffffffffffffffffffffffffffffffffffffffff1614156116e2576040517f08c379a00000000000000000000000000000000000000000000000000000000081526004016116d990612e64565b60405180910390fd5b6116ed838383611cda565b6116f8600082611465565b6001600360008573ffffffffffffffffffffffffffffffffffffffff1673ffffffffffffffffffffffffffffffffffffffff16815260200190815260200160002060008282546117489190612eb3565b925050819055506001600360008473ffffffffffffffffffffffffffffffffffffffff1673ffffffffffffffffffffffffffffffffffffffff168152602001908152602001600020600082825461179f9190612ee7565b92505081905550816002600083815260200190815260200160002060006101000a81548173ffffffffffffffffffffffffffffffffffffffff021916908373ffffffffffffffffffffffffffffffffffffffff160217905550808273ffffffffffffffffffffffffffffffffffffffff168473ffffffffffffffffffffffffffffffffffffffff167fddf252ad1be2c89b69c2b068fc378daa952ba7f163c4a11628f55a4df523b3ef60405160405180910390a4505050565b6000600660009054906101000a900473ffffffffffffffffffffffffffffffffffffffff16905081600660006101000a81548173ffffffffffffffffffffffffffffffffffffffff021916908373ffffffffffffffffffffffffffffffffffffffff1602179055508173ffffffffffffffffffffffffffffffffffffffff168173ffffffffffffffffffffffffffffffffffffffff167f8be0079c531659141344cd1fd0a4f28419497f9722a3daafe3b4186f6b6457e060405160405180910390a35050565b8173ffffffffffffffffffffffffffffffffffffffff168373ffffffffffffffffffffffffffffffffffffffff16141561198d576040517f08c379a000000000000000000000000000000000000000000000000000000000815260040161198490612f89565b60405180910390fd5b80600560008573ffffffffffffffffffffffffffffffffffffffff1673ffffffffffffffffffffffffffffffffffffffff16815260200190815260200160002060008473ffffffffffffffffffffffffffffffffffffffff1673ffffffffffffffffffffffffffffffffffffffff16815260200190815260200160002060006101000a81548160ff0219169083151502179055508173ffffffffffffffffffffffffffffffffffffffff168373ffffffffffffffffffffffffffffffffffffffff167f17307eab39ab6107e8899845ad3d59bd9653f200f220920489ca2b5937696c3183604051611a7e9190611fbe565b60405180910390a3505050565b611a968484846115fc565b611aa284848484611cdf565b611ae1576040517f08c379a0000000000000000000000000000000000000000000000000000000008152600401611ad89061301b565b60405180910390fd5b50505050565b606060098054611af690612642565b80601f0160208091040260200160405190810160405280929190818152602001828054611b2290612642565b8015611b6f5780601f10611b4457610100808354040283529160200191611b6f565b820191906000526020600020905b815481529060010190602001808311611b5257829003601f168201915b5050505050905090565b60606000821415611bc1576040518060400160405280600181526020017f30000000000000000000000000000000000000000000000000000000000000008152509050611cd5565b600082905060005b60008214611bf3578080611bdc9061303b565b915050600a82611bec91906130b3565b9150611bc9565b60008167ffffffffffffffff811115611c0f57611c0e61221c565b5b6040519080825280601f01601f191660200182016040528015611c415781602001600182028036833780820191505090505b5090505b60008514611cce57600182611c5a9190612eb3565b9150600a85611c6991906130e4565b6030611c759190612ee7565b60f81b818381518110611c8b57611c8a613115565b5b60200101907effffffffffffffffffffffffffffffffffffffffffffffffffffffffffffff1916908160001a905350600a85611cc791906130b3565b9450611c45565b8093505050505b919050565b505050565b6000611d008473ffffffffffffffffffffffffffffffffffffffff16611374565b15611e5a578373ffffffffffffffffffffffffffffffffffffffff1663150b7a02611d2961145d565b8786866040518563ffffffff1660e01b8152600401611d4b9493929190613199565b6020604051808303816000875af1925050508015611d8757506040513d601f19601f82011682018060405250810190611d8491906131fa565b60015b611e0a573d8060008114611db7576040519150601f19603f3d011682016040523d82523d6000602084013e611dbc565b606091505b50600081511415611e02576040517f08c379a0000000000000000000000000000000000000000000000000000000008152600401611df99061301b565b60405180910390fd5b805181602001fd5b63150b7a0260e01b7bffffffffffffffffffffffffffffffffffffffffffffffffffffffff1916817bffffffffffffffffffffffffffffffffffffffffffffffffffffffff191614915050611e5f565b600190505b949350505050565b828054611e7390612642565b90600052602060002090601f016020900481019282611e955760008555611edc565b82601f10611eae57805160ff1916838001178555611edc565b82800160010185558215611edc579182015b82811115611edb578251825591602001919060010190611ec0565b5b509050611ee99190611eed565b5090565b5b80821115611f06576000816000905550600101611eee565b5090565b6000604051905090565b600080fd5b600080fd5b60007fffffffff0000000000000000000000000000000000000000000000000000000082169050919050565b611f5381611f1e565b8114611f5e57600080fd5b50565b600081359050611f7081611f4a565b92915050565b600060208284031215611f8c57611f8b611f14565b5b6000611f9a84828501611f61565b91505092915050565b60008115159050919050565b611fb881611fa3565b82525050565b6000602082019050611fd36000830184611faf565b92915050565b600081519050919050565b600082825260208201905092915050565b60005b83811015612013578082015181840152602081019050611ff8565b83811115612022576000848401525b50505050565b6000601f19601f8301169050919050565b600061204482611fd9565b61204e8185611fe4565b935061205e818560208601611ff5565b61206781612028565b840191505092915050565b6000602082019050818103600083015261208c8184612039565b905092915050565b6000819050919050565b6120a781612094565b81146120b257600080fd5b50565b6000813590506120c48161209e565b92915050565b6000602082840312156120e0576120df611f14565b5b60006120ee848285016120b5565b91505092915050565b600073ffffffffffffffffffffffffffffffffffffffff82169050919050565b6000612122826120f7565b9050919050565b61213281612117565b82525050565b600060208201905061214d6000830184612129565b92915050565b61215c81612117565b811461216757600080fd5b50565b60008135905061217981612153565b92915050565b6000806040838503121561219657612195611f14565b5b60006121a48582860161216a565b92505060206121b5858286016120b5565b9150509250929050565b6000806000606084860312156121d8576121d7611f14565b5b60006121e68682870161216a565b93505060206121f78682870161216a565b9250506040612208868287016120b5565b9150509250925092565b600080fd5b600080fd5b7f4e487b7100000000000000000000000000000000000000000000000000000000600052604160045260246000fd5b61225482612028565b810181811067ffffffffffffffff821117156122735761227261221c565b5b80604052505050565b6000612286611f0a565b9050612292828261224b565b919050565b600067ffffffffffffffff8211156122b2576122b161221c565b5b6122bb82612028565b9050602081019050919050565b82818337600083830152505050565b60006122ea6122e584612297565b61227c565b90508281526020810184848401111561230657612305612217565b5b6123118482856122c8565b509392505050565b600082601f83011261232e5761232d612212565b5b813561233e8482602086016122d7565b91505092915050565b6000806040838503121561235e5761235d611f14565b5b600061236c858286016120b5565b925050602083013567ffffffffffffffff81111561238d5761238c611f19565b5b61239985828601612319565b9150509250929050565b6000602082840312156123b9576123b8611f14565b5b600082013567ffffffffffffffff8111156123d7576123d6611f19565b5b6123e384828501612319565b91505092915050565b60006020828403121561240257612401611f14565b5b60006124108482850161216a565b91505092915050565b61242281612094565b82525050565b600060208201905061243d6000830184612419565b92915050565b61244c81611fa3565b811461245757600080fd5b50565b60008135905061246981612443565b92915050565b6000806040838503121561248657612485611f14565b5b60006124948582860161216a565b92505060206124a58582860161245a565b9150509250929050565b600067ffffffffffffffff8211156124ca576124c961221c565b5b6124d382612028565b9050602081019050919050565b60006124f36124ee846124af565b61227c565b90508281526020810184848401111561250f5761250e612217565b5b61251a8482856122c8565b509392505050565b600082601f83011261253757612536612212565b5b81356125478482602086016124e0565b91505092915050565b6000806000806080858703121561256a57612569611f14565b5b60006125788782880161216a565b94505060206125898782880161216a565b935050604061259a878288016120b5565b925050606085013567ffffffffffffffff8111156125bb576125ba611f19565b5b6125c787828801612522565b91505092959194509250565b600080604083850312156125ea576125e9611f14565b5b60006125f88582860161216a565b92505060206126098582860161216a565b9150509250929050565b7f4e487b7100000000000000000000000000000000000000000000000000000000600052602260045260246000fd5b6000600282049050600182168061265a57607f821691505b6020821081141561266e5761266d612613565b5b50919050565b7f4552433732313a20617070726f76656420717565727920666f72206e6f6e657860008201527f697374656e7420746f6b656e0000000000000000000000000000000000000000602082015250565b60006126d0602c83611fe4565b91506126db82612674565b604082019050919050565b600060208201905081810360008301526126ff816126c3565b9050919050565b7f4552433732313a20617070726f76616c20746f2063757272656e74206f776e6560008201527f7200000000000000000000000000000000000000000000000000000000000000602082015250565b6000612762602183611fe4565b915061276d82612706565b604082019050919050565b6000602082019050818103600083015261279181612755565b9050919050565b7f4552433732313a20617070726f76652063616c6c6572206973206e6f74206f7760008201527f6e6572206e6f7220617070726f76656420666f7220616c6c0000000000000000602082015250565b60006127f4603883611fe4565b91506127ff82612798565b604082019050919050565b60006020820190508181036000830152612823816127e7565b9050919050565b7f4552433732313a207472616e736665722063616c6c6572206973206e6f74206f60008201527f776e6572206e6f7220617070726f766564000000000000000000000000000000602082015250565b6000612886603183611fe4565b91506128918261282a565b604082019050919050565b600060208201905081810360008301526128b581612879565b9050919050565b7f746f6b656e206e6f74206d696e74656400000000000000000000000000000000600082015250565b60006128f2601083611fe4565b91506128fd826128bc565b602082019050919050565b60006020820190508181036000830152612921816128e5565b9050919050565b7f6f6e6c7920746865206f776e6572206f66207468697320756e6971756520494460008201527f2063616e206368616e676520697473207469746c650000000000000000000000602082015250565b6000612984603583611fe4565b915061298f82612928565b604082019050919050565b600060208201905081810360008301526129b381612977565b9050919050565b7f4f776e61626c653a2063616c6c6572206973206e6f7420746865206f776e6572600082015250565b60006129f0602083611fe4565b91506129fb826129ba565b602082019050919050565b60006020820190508181036000830152612a1f816129e3565b9050919050565b7f4552433732313a206f776e657220717565727920666f72206e6f6e657869737460008201527f656e7420746f6b656e0000000000000000000000000000000000000000000000602082015250565b6000612a82602983611fe4565b9150612a8d82612a26565b604082019050919050565b60006020820190508181036000830152612ab181612a75565b9050919050565b7f4552433732313a2062616c616e636520717565727920666f7220746865207a6560008201527f726f206164647265737300000000000000000000000000000000000000000000602082015250565b6000612b14602a83611fe4565b9150612b1f82612ab8565b604082019050919050565b60006020820190508181036000830152612b4381612b07565b9050919050565b7f4552433732314d657461646174613a2055524920717565727920666f72206e6f60008201527f6e6578697374656e7420746f6b656e0000000000000000000000000000000000602082015250565b6000612ba6602f83611fe4565b9150612bb182612b4a565b604082019050919050565b60006020820190508181036000830152612bd581612b99565b9050919050565b600081905092915050565b6000612bf282611fd9565b612bfc8185612bdc565b9350612c0c818560208601611ff5565b80840191505092915050565b6000612c248285612be7565b9150612c308284612be7565b91508190509392505050565b7f4f776e61626c653a206e6577206f776e657220697320746865207a65726f206160008201527f6464726573730000000000000000000000000000000000000000000000000000602082015250565b6000612c98602683611fe4565b9150612ca382612c3c565b604082019050919050565b60006020820190508181036000830152612cc781612c8b565b9050919050565b7f4552433732313a206f70657261746f7220717565727920666f72206e6f6e657860008201527f697374656e7420746f6b656e0000000000000000000000000000000000000000602082015250565b6000612d2a602c83611fe4565b9150612d3582612cce565b604082019050919050565b60006020820190508181036000830152612d5981612d1d565b9050919050565b7f4552433732313a207472616e73666572206f6620746f6b656e2074686174206960008201527f73206e6f74206f776e0000000000000000000000000000000000000000000000602082015250565b6000612dbc602983611fe4565b9150612dc782612d60565b604082019050919050565b60006020820190508181036000830152612deb81612daf565b9050919050565b7f4552433732313a207472616e7366657220746f20746865207a65726f2061646460008201527f7265737300000000000000000000000000000000000000000000000000000000602082015250565b6000612e4e602483611fe4565b9150612e5982612df2565b604082019050919050565b60006020820190508181036000830152612e7d81612e41565b9050919050565b7f4e487b7100000000000000000000000000000000000000000000000000000000600052601160045260246000fd5b6000612ebe82612094565b9150612ec983612094565b925082821015612edc57612edb612e84565b5b828203905092915050565b6000612ef282612094565b9150612efd83612094565b9250827fffffffffffffffffffffffffffffffffffffffffffffffffffffffffffffffff03821115612f3257612f31612e84565b5b828201905092915050565b7f4552433732313a20617070726f766520746f2063616c6c657200000000000000600082015250565b6000612f73601983611fe4565b9150612f7e82612f3d565b602082019050919050565b60006020820190508181036000830152612fa281612f66565b9050919050565b7f4552433732313a207472616e7366657220746f206e6f6e20455243373231526560008201527f63656976657220696d706c656d656e7465720000000000000000000000000000602082015250565b6000613005603283611fe4565b915061301082612fa9565b604082019050919050565b6000602082019050818103600083015261303481612ff8565b9050919050565b600061304682612094565b91507fffffffffffffffffffffffffffffffffffffffffffffffffffffffffffffffff82141561307957613078612e84565b5b600182019050919050565b7f4e487b7100000000000000000000000000000000000000000000000000000000600052601260045260246000fd5b60006130be82612094565b91506130c983612094565b9250826130d9576130d8613084565b5b828204905092915050565b60006130ef82612094565b91506130fa83612094565b92508261310a57613109613084565b5b828206905092915050565b7f4e487b7100000000000000000000000000000000000000000000000000000000600052603260045260246000fd5b600081519050919050565b600082825260208201905092915050565b600061316b82613144565b613175818561314f565b9350613185818560208601611ff5565b61318e81612028565b840191505092915050565b60006080820190506131ae6000830187612129565b6131bb6020830186612129565b6131c86040830185612419565b81810360608301526131da8184613160565b905095945050505050565b6000815190506131f481611f4a565b92915050565b6000602082840312156132105761320f611f14565b5b600061321e848285016131e5565b9150509291505056fea264697066735822122043dbb32b499e3289fc2b06347ddc8d5a210879464807cb019852108e81c4a7b064736f6c634300080a003368747470733a2f2f70617065726d6173746572732e696f2f6d696e746964656e746974792f",
  "immutableReferences": {},
  "source": "// SPDX-License-Identifier: MIT\r\npragma solidity >=0.4.22 <0.9.0;\r\n\r\nimport \"@openzeppelin/contracts/access/Ownable.sol\";\r\nimport \"@openzeppelin/contracts/token/ERC721/ERC721.sol\";\r\nimport \"@openzeppelin/contracts/utils/Counters.sol\";\r\n\r\ncontract MintIdentity is ERC721, Ownable {\r\n    using Counters for Counters.Counter;\r\n    Counters.Counter private _tokenIds;\r\n\r\n    struct Identity {\r\n        bytes32 uniqueid;\r\n        string name;\r\n        string aka;\r\n        string organization;\r\n        string slogan;\r\n        string description;\r\n        string url;\r\n        string bio;\r\n        uint created;\r\n        uint lastupdated;\r\n        bool valid;\r\n        uint validdate;\r\n        uint validationscore;\r\n    }\r\n\r\n    mapping(uint256=> Identity) id_to_identity;\r\n\r\n    string private _currentBaseURI;\r\n\r\n    constructor() ERC721(\"MintIdentity\", \"IDENT\") {\r\n        setBaseURI(\"https://papermasters.io/mintidentity/\");\r\n\r\n        mintIdentity(\"Andrew\",\r\n            \"ramonajenny\",\r\n            \"PaperMasters\",\r\n            \"All things Wave\",\r\n            \"\",\r\n            \"http://ramonajenny.com\",\r\n            \"Engineer\");\r\n\r\n    }\r\n\r\n    function setBaseURI(string memory baseURI) public onlyOwner() {\r\n        _currentBaseURI = baseURI;\r\n    }\r\n\r\n    function _baseURI() internal view virtual override returns (string memory) {\r\n        return _currentBaseURI;\r\n    }\r\n\r\n    function createUniqueId(\r\n        string memory name,\r\n        string memory aka,\r\n        string memory org,\r\n        string memory slogan,\r\n        string memory description,\r\n        string memory url,\r\n        string memory bio) private view returns(bytes32) {\r\n        return keccak256(abi.encodePacked(name, aka, org, slogan, description, url, bio, block.timestamp));\r\n    }\r\n\r\n    function mintIdentity (\r\n        string memory name,\r\n        string memory aka,\r\n        string memory org,\r\n        string memory slogan,\r\n        string memory description,\r\n        string memory url,\r\n        string memory bio) internal {\r\n            uint256 tokenId =  _tokenIds.current();\r\n            bytes32 uniqueId = createUniqueId(name, aka, org, slogan, description, url, bio);\r\n            id_to_identity[tokenId] = Identity(uniqueId, name, aka, org, slogan, description,\r\n                url, bio, block.timestamp, block.timestamp, false, 0, 0);\r\n            _safeMint(msg.sender, tokenId);\r\n            _tokenIds.increment();\r\n    }\r\n\r\n    function changeName(uint256 tokenId, string memory newName)  public {\r\n        require(_exists(tokenId), \"token not minted\");\r\n        require(ownerOf(tokenId) == msg.sender, \"only the owner of this unique ID can change its title\");\r\n        id_to_identity[tokenId].name = newName;\r\n\r\n    }\r\n\r\n    function changeAKA(uint256 tokenId, string memory newAKA)  public {\r\n        require(_exists(tokenId), \"token not minted\");\r\n        require(ownerOf(tokenId) == msg.sender, \"only the owner of this unique ID can change its title\");\r\n        id_to_identity[tokenId].aka = newAKA;\r\n\r\n    }\r\n\r\n    function changeSlogan(uint256 tokenId, string memory newSlogan)  public {\r\n        require(_exists(tokenId), \"token not minted\");\r\n        require(ownerOf(tokenId) == msg.sender, \"only the owner of this unique ID can change its title\");\r\n        id_to_identity[tokenId].slogan = newSlogan;\r\n\r\n    }\r\n\r\n    function changeDescription(uint256 tokenId, string memory newDescription)  public {\r\n        require(_exists(tokenId), \"token not minted\");\r\n        require(ownerOf(tokenId) == msg.sender, \"only the owner of this unique ID can change its title\");\r\n        id_to_identity[tokenId].description = newDescription;\r\n\r\n    }\r\n\r\n    function changeURL(uint256 tokenId, string memory newURL)  public {\r\n        require(_exists(tokenId), \"token not minted\");\r\n        require(ownerOf(tokenId) == msg.sender, \"only the owner of this unique ID can change its title\");\r\n        id_to_identity[tokenId].url = newURL;\r\n\r\n        }\r\n\r\n    function changeBio(uint256 tokenId, string memory newBio)  public {\r\n        require(_exists(tokenId), \"token not minted\");\r\n        require(ownerOf(tokenId) == msg.sender, \"only the owner of this unique ID can change its title\");\r\n        id_to_identity[tokenId].bio = newBio;\r\n\r\n    }\r\n\r\n\r\n//changeLastUpdated(tokenId);\r\n    //we need transfer ownership for companies\r\n    //id_to_identity[tokenId].lastupdated = block.timestamp;\r\n\r\n}",
  "sourcePath": "/home/ramona/gitrepos/MintIdentityTPM/truffle/contracts/MintIdentity.sol",
  "compiler": {
    "name": "solc",
    "version": "0.8.10+commit.fc410830.Emscripten.clang"
  },
  "schemaVersion": "3.4.4",
  "updatedAt": "2021-12-29T22:19:31.919Z",
  "networkType": "ethereum",
  "devdoc": {
    "kind": "dev",
    "methods": {
      "approve(address,uint256)": {
        "details": "See {IERC721-approve}."
      },
      "balanceOf(address)": {
        "details": "See {IERC721-balanceOf}."
      },
      "getApproved(uint256)": {
        "details": "See {IERC721-getApproved}."
      },
      "isApprovedForAll(address,address)": {
        "details": "See {IERC721-isApprovedForAll}."
      },
      "name()": {
        "details": "See {IERC721Metadata-name}."
      },
      "owner()": {
        "details": "Returns the address of the current owner."
      },
      "ownerOf(uint256)": {
        "details": "See {IERC721-ownerOf}."
      },
      "renounceOwnership()": {
        "details": "Leaves the contract without owner. It will not be possible to call `onlyOwner` functions anymore. Can only be called by the current owner. NOTE: Renouncing ownership will leave the contract without an owner, thereby removing any functionality that is only available to the owner."
      },
      "safeTransferFrom(address,address,uint256)": {
        "details": "See {IERC721-safeTransferFrom}."
      },
      "safeTransferFrom(address,address,uint256,bytes)": {
        "details": "See {IERC721-safeTransferFrom}."
      },
      "setApprovalForAll(address,bool)": {
        "details": "See {IERC721-setApprovalForAll}."
      },
      "supportsInterface(bytes4)": {
        "details": "See {IERC165-supportsInterface}."
      },
      "symbol()": {
        "details": "See {IERC721Metadata-symbol}."
      },
      "tokenURI(uint256)": {
        "details": "See {IERC721Metadata-tokenURI}."
      },
      "transferFrom(address,address,uint256)": {
        "details": "See {IERC721-transferFrom}."
      },
      "transferOwnership(address)": {
        "details": "Transfers ownership of the contract to a new account (`newOwner`). Can only be called by the current owner."
      }
    },
    "version": 1
  },
  "userdoc": {
    "kind": "user",
    "methods": {},
    "version": 1
  }
}