{
  "contractName": "MintIdentity",
  "abi": [
    {
      "inputs": [],
      "stateMutability": "nonpayable",
      "type": "constructor"
    },
    {
      "anonymous": false,
      "inputs": [
        {
          "indexed": true,
          "internalType": "address",
          "name": "owner",
          "type": "address"
        },
        {
          "indexed": true,
          "internalType": "address",
          "name": "approved",
          "type": "address"
        },
        {
          "indexed": true,
          "internalType": "uint256",
          "name": "tokenId",
          "type": "uint256"
        }
      ],
      "name": "Approval",
      "type": "event"
    },
    {
      "anonymous": false,
      "inputs": [
        {
          "indexed": true,
          "internalType": "address",
          "name": "owner",
          "type": "address"
        },
        {
          "indexed": true,
          "internalType": "address",
          "name": "operator",
          "type": "address"
        },
        {
          "indexed": false,
          "internalType": "bool",
          "name": "approved",
          "type": "bool"
        }
      ],
      "name": "ApprovalForAll",
      "type": "event"
    },
    {
      "anonymous": false,
      "inputs": [
        {
          "indexed": true,
          "internalType": "address",
          "name": "previousOwner",
          "type": "address"
        },
        {
          "indexed": true,
          "internalType": "address",
          "name": "newOwner",
          "type": "address"
        }
      ],
      "name": "OwnershipTransferred",
      "type": "event"
    },
    {
      "anonymous": false,
      "inputs": [
        {
          "indexed": true,
          "internalType": "address",
          "name": "from",
          "type": "address"
        },
        {
          "indexed": true,
          "internalType": "address",
          "name": "to",
          "type": "address"
        },
        {
          "indexed": true,
          "internalType": "uint256",
          "name": "tokenId",
          "type": "uint256"
        }
      ],
      "name": "Transfer",
      "type": "event"
    },
    {
      "inputs": [
        {
          "internalType": "address",
          "name": "to",
          "type": "address"
        },
        {
          "internalType": "uint256",
          "name": "tokenId",
          "type": "uint256"
        }
      ],
      "name": "approve",
      "outputs": [],
      "stateMutability": "nonpayable",
      "type": "function"
    },
    {
      "inputs": [
        {
          "internalType": "address",
          "name": "owner",
          "type": "address"
        }
      ],
      "name": "balanceOf",
      "outputs": [
        {
          "internalType": "uint256",
          "name": "",
          "type": "uint256"
        }
      ],
      "stateMutability": "view",
      "type": "function",
      "constant": true
    },
    {
      "inputs": [
        {
          "internalType": "uint256",
          "name": "tokenId",
          "type": "uint256"
        }
      ],
      "name": "getApproved",
      "outputs": [
        {
          "internalType": "address",
          "name": "",
          "type": "address"
        }
      ],
      "stateMutability": "view",
      "type": "function",
      "constant": true
    },
    {
      "inputs": [
        {
          "internalType": "address",
          "name": "owner",
          "type": "address"
        },
        {
          "internalType": "address",
          "name": "operator",
          "type": "address"
        }
      ],
      "name": "isApprovedForAll",
      "outputs": [
        {
          "internalType": "bool",
          "name": "",
          "type": "bool"
        }
      ],
      "stateMutability": "view",
      "type": "function",
      "constant": true
    },
    {
      "inputs": [],
      "name": "name",
      "outputs": [
        {
          "internalType": "string",
          "name": "",
          "type": "string"
        }
      ],
      "stateMutability": "view",
      "type": "function",
      "constant": true
    },
    {
      "inputs": [],
      "name": "owner",
      "outputs": [
        {
          "internalType": "address",
          "name": "",
          "type": "address"
        }
      ],
      "stateMutability": "view",
      "type": "function",
      "constant": true
    },
    {
      "inputs": [
        {
          "internalType": "uint256",
          "name": "tokenId",
          "type": "uint256"
        }
      ],
      "name": "ownerOf",
      "outputs": [
        {
          "internalType": "address",
          "name": "",
          "type": "address"
        }
      ],
      "stateMutability": "view",
      "type": "function",
      "constant": true
    },
    {
      "inputs": [],
      "name": "renounceOwnership",
      "outputs": [],
      "stateMutability": "nonpayable",
      "type": "function"
    },
    {
      "inputs": [
        {
          "internalType": "address",
          "name": "from",
          "type": "address"
        },
        {
          "internalType": "address",
          "name": "to",
          "type": "address"
        },
        {
          "internalType": "uint256",
          "name": "tokenId",
          "type": "uint256"
        }
      ],
      "name": "safeTransferFrom",
      "outputs": [],
      "stateMutability": "nonpayable",
      "type": "function"
    },
    {
      "inputs": [
        {
          "internalType": "address",
          "name": "from",
          "type": "address"
        },
        {
          "internalType": "address",
          "name": "to",
          "type": "address"
        },
        {
          "internalType": "uint256",
          "name": "tokenId",
          "type": "uint256"
        },
        {
          "internalType": "bytes",
          "name": "_data",
          "type": "bytes"
        }
      ],
      "name": "safeTransferFrom",
      "outputs": [],
      "stateMutability": "nonpayable",
      "type": "function"
    },
    {
      "inputs": [
        {
          "internalType": "address",
          "name": "operator",
          "type": "address"
        },
        {
          "internalType": "bool",
          "name": "approved",
          "type": "bool"
        }
      ],
      "name": "setApprovalForAll",
      "outputs": [],
      "stateMutability": "nonpayable",
      "type": "function"
    },
    {
      "inputs": [
        {
          "internalType": "bytes4",
          "name": "interfaceId",
          "type": "bytes4"
        }
      ],
      "name": "supportsInterface",
      "outputs": [
        {
          "internalType": "bool",
          "name": "",
          "type": "bool"
        }
      ],
      "stateMutability": "view",
      "type": "function",
      "constant": true
    },
    {
      "inputs": [],
      "name": "symbol",
      "outputs": [
        {
          "internalType": "string",
          "name": "",
          "type": "string"
        }
      ],
      "stateMutability": "view",
      "type": "function",
      "constant": true
    },
    {
      "inputs": [
        {
          "internalType": "uint256",
          "name": "index",
          "type": "uint256"
        }
      ],
      "name": "tokenByIndex",
      "outputs": [
        {
          "internalType": "uint256",
          "name": "",
          "type": "uint256"
        }
      ],
      "stateMutability": "view",
      "type": "function",
      "constant": true
    },
    {
      "inputs": [
        {
          "internalType": "address",
          "name": "owner",
          "type": "address"
        },
        {
          "internalType": "uint256",
          "name": "index",
          "type": "uint256"
        }
      ],
      "name": "tokenOfOwnerByIndex",
      "outputs": [
        {
          "internalType": "uint256",
          "name": "",
          "type": "uint256"
        }
      ],
      "stateMutability": "view",
      "type": "function",
      "constant": true
    },
    {
      "inputs": [
        {
          "internalType": "uint256",
          "name": "tokenId",
          "type": "uint256"
        }
      ],
      "name": "tokenURI",
      "outputs": [
        {
          "internalType": "string",
          "name": "",
          "type": "string"
        }
      ],
      "stateMutability": "view",
      "type": "function",
      "constant": true
    },
    {
      "inputs": [],
      "name": "totalSupply",
      "outputs": [
        {
          "internalType": "uint256",
          "name": "",
          "type": "uint256"
        }
      ],
      "stateMutability": "view",
      "type": "function",
      "constant": true
    },
    {
      "inputs": [
        {
          "internalType": "address",
          "name": "from",
          "type": "address"
        },
        {
          "internalType": "address",
          "name": "to",
          "type": "address"
        },
        {
          "internalType": "uint256",
          "name": "tokenId",
          "type": "uint256"
        }
      ],
      "name": "transferFrom",
      "outputs": [],
      "stateMutability": "nonpayable",
      "type": "function"
    },
    {
      "inputs": [
        {
          "internalType": "address",
          "name": "newOwner",
          "type": "address"
        }
      ],
      "name": "transferOwnership",
      "outputs": [],
      "stateMutability": "nonpayable",
      "type": "function"
    },
    {
      "inputs": [
        {
          "internalType": "string",
          "name": "baseURI",
          "type": "string"
        }
      ],
      "name": "setBaseURI",
      "outputs": [],
      "stateMutability": "nonpayable",
      "type": "function"
    },
    {
      "inputs": [
        {
          "internalType": "uint256",
          "name": "tokenId",
          "type": "uint256"
        }
      ],
      "name": "getTokenIdentity",
      "outputs": [
        {
          "components": [
            {
              "internalType": "bytes32",
              "name": "uniqueid",
              "type": "bytes32"
            },
            {
              "internalType": "string",
              "name": "name",
              "type": "string"
            },
            {
              "internalType": "string",
              "name": "aka",
              "type": "string"
            },
            {
              "internalType": "string",
              "name": "organization",
              "type": "string"
            },
            {
              "internalType": "string",
              "name": "slogan",
              "type": "string"
            },
            {
              "internalType": "string",
              "name": "description",
              "type": "string"
            },
            {
              "internalType": "string",
              "name": "url",
              "type": "string"
            },
            {
              "internalType": "uint256",
              "name": "created",
              "type": "uint256"
            },
            {
              "internalType": "uint256",
              "name": "lastupdated",
              "type": "uint256"
            },
            {
              "internalType": "bool",
              "name": "valid",
              "type": "bool"
            },
            {
              "internalType": "uint256",
              "name": "validdate",
              "type": "uint256"
            },
            {
              "internalType": "uint256",
              "name": "validationscore",
              "type": "uint256"
            }
          ],
          "internalType": "struct MintIdentity.Identity",
          "name": "ident",
          "type": "tuple"
        }
      ],
      "stateMutability": "view",
      "type": "function",
      "constant": true
    },
    {
      "inputs": [
        {
          "internalType": "uint256",
          "name": "tokenId",
          "type": "uint256"
        },
        {
          "internalType": "string",
          "name": "newName",
          "type": "string"
        }
      ],
      "name": "changeName",
      "outputs": [],
      "stateMutability": "nonpayable",
      "type": "function"
    },
    {
      "inputs": [
        {
          "internalType": "uint256",
          "name": "tokenId",
          "type": "uint256"
        },
        {
          "internalType": "string",
          "name": "newAKA",
          "type": "string"
        }
      ],
      "name": "changeAKA",
      "outputs": [],
      "stateMutability": "nonpayable",
      "type": "function"
    },
    {
      "inputs": [
        {
          "internalType": "uint256",
          "name": "tokenId",
          "type": "uint256"
        },
        {
          "internalType": "string",
          "name": "newSlogan",
          "type": "string"
        }
      ],
      "name": "changeSlogan",
      "outputs": [],
      "stateMutability": "nonpayable",
      "type": "function"
    },
    {
      "inputs": [
        {
          "internalType": "uint256",
          "name": "tokenId",
          "type": "uint256"
        },
        {
          "internalType": "string",
          "name": "newDescription",
          "type": "string"
        }
      ],
      "name": "changeDescription",
      "outputs": [],
      "stateMutability": "nonpayable",
      "type": "function"
    },
    {
      "inputs": [
        {
          "internalType": "uint256",
          "name": "tokenId",
          "type": "uint256"
        },
        {
          "internalType": "string",
          "name": "newURL",
          "type": "string"
        }
      ],
      "name": "changeURL",
      "outputs": [],
      "stateMutability": "nonpayable",
      "type": "function"
    }
  ],
  "bytecode": "0x60806040523480156200001157600080fd5b506040518060400160405280600c81526020017f4d696e744964656e7469747900000000000000000000000000000000000000008152506040518060400160405280600581526020017f4944454e5400000000000000000000000000000000000000000000000000000081525081600090805190602001906200009692919062001151565b508060019080519060200190620000af92919062001151565b505050620000d2620000c66200037a60201b60201c565b6200038260201b60201c565b620001186040518060400160405280601b81526020017f68747470733a2f2f6c6f63616c686f73743a383030302f6d696e7400000000008152506200044860201b60201c565b620002466040518060400160405280600981526020017f416e64726577204e2e00000000000000000000000000000000000000000000008152506040518060400160405280600881526020017f482d7374726565740000000000000000000000000000000000000000000000008152506040518060400160405280600c81526020017f50617065724d61737465727300000000000000000000000000000000000000008152506040518060400160405280600881526020017f4f68205965616821000000000000000000000000000000000000000000000000815250604051806020016040528060008152506040518060400160405280601681526020017f687474703a2f2f72616d6f6e616a656e6e792e636f6d00000000000000000000815250620004f360201b60201c565b620003746040518060400160405280600681526020017f52616d6f6e6100000000000000000000000000000000000000000000000000008152506040518060400160405280600b81526020017f72616d6f6e616a656e6e790000000000000000000000000000000000000000008152506040518060400160405280600c81526020017f50617065724d61737465727300000000000000000000000000000000000000008152506040518060400160405280600f81526020017f416c6c207468696e677320576176650000000000000000000000000000000000815250604051806020016040528060008152506040518060400160405280601681526020017f687474703a2f2f72616d6f6e616a656e6e792e636f6d00000000000000000000815250620004f360201b60201c565b620018f7565b600033905090565b6000600a60009054906101000a900473ffffffffffffffffffffffffffffffffffffffff16905081600a60006101000a81548173ffffffffffffffffffffffffffffffffffffffff021916908373ffffffffffffffffffffffffffffffffffffffff1602179055508173ffffffffffffffffffffffffffffffffffffffff168173ffffffffffffffffffffffffffffffffffffffff167f8be0079c531659141344cd1fd0a4f28419497f9722a3daafe3b4186f6b6457e060405160405180910390a35050565b620004586200037a60201b60201c565b73ffffffffffffffffffffffffffffffffffffffff166200047e620006e860201b60201c565b73ffffffffffffffffffffffffffffffffffffffff1614620004d7576040517f08c379a0000000000000000000000000000000000000000000000000000000008152600401620004ce9062001262565b60405180910390fd5b80600d9080519060200190620004ef92919062001151565b5050565b60006200050b8787878787876200071260201b60201c565b9050604051806101800160405280828152602001888152602001878152602001868152602001858152602001848152602001838152602001428152602001428152602001600015158152602001600081526020016000815250600c60006200057f600b6200075560201b620017d81760201c565b8152602001908152602001600020600082015181600001556020820151816001019080519060200190620005b592919062001151565b506040820151816002019080519060200190620005d492919062001151565b506060820151816003019080519060200190620005f392919062001151565b5060808201518160040190805190602001906200061292919062001151565b5060a08201518160050190805190602001906200063192919062001151565b5060c08201518160060190805190602001906200065092919062001151565b5060e0820151816007015561010082015181600801556101208201518160090160006101000a81548160ff02191690831515021790555061014082015181600a015561016082015181600b0155905050620006c833620006bc600b6200075560201b620017d81760201c565b6200076360201b60201c565b620006df600b6200078960201b620017e61760201c565b50505050505050565b6000600a60009054906101000a900473ffffffffffffffffffffffffffffffffffffffff16905090565b60008686868686864260405160200162000733979695949392919062001336565b6040516020818303038152906040528051906020012090509695505050505050565b600081600001549050919050565b620007858282604051806020016040528060008152506200079f60201b60201c565b5050565b6001816000016000828254019250508190555050565b620007b183836200080d60201b60201c565b620007c66000848484620009f360201b60201c565b62000808576040517f08c379a0000000000000000000000000000000000000000000000000000000008152600401620007ff9062001423565b60405180910390fd5b505050565b600073ffffffffffffffffffffffffffffffffffffffff168273ffffffffffffffffffffffffffffffffffffffff16141562000880576040517f08c379a0000000000000000000000000000000000000000000000000000000008152600401620008779062001495565b60405180910390fd5b620008918162000b9d60201b60201c565b15620008d4576040517f08c379a0000000000000000000000000000000000000000000000000000000008152600401620008cb9062001507565b60405180910390fd5b620008e86000838362000c0960201b60201c565b6001600360008473ffffffffffffffffffffffffffffffffffffffff1673ffffffffffffffffffffffffffffffffffffffff16815260200190815260200160002060008282546200093a919062001558565b92505081905550816002600083815260200190815260200160002060006101000a81548173ffffffffffffffffffffffffffffffffffffffff021916908373ffffffffffffffffffffffffffffffffffffffff160217905550808273ffffffffffffffffffffffffffffffffffffffff16600073ffffffffffffffffffffffffffffffffffffffff167fddf252ad1be2c89b69c2b068fc378daa952ba7f163c4a11628f55a4df523b3ef60405160405180910390a45050565b600062000a218473ffffffffffffffffffffffffffffffffffffffff1662000d5060201b620017fc1760201c565b1562000b90578373ffffffffffffffffffffffffffffffffffffffff1663150b7a0262000a536200037a60201b60201c565b8786866040518563ffffffff1660e01b815260040162000a77949392919062001679565b6020604051808303816000875af192505050801562000ab657506040513d601f19601f8201168201806040525081019062000ab391906200172f565b60015b62000b3f573d806000811462000ae9576040519150601f19603f3d011682016040523d82523d6000602084013e62000aee565b606091505b5060008151141562000b37576040517f08c379a000000000000000000000000000000000000000000000000000000000815260040162000b2e9062001423565b60405180910390fd5b805181602001fd5b63150b7a0260e01b7bffffffffffffffffffffffffffffffffffffffffffffffffffffffff1916817bffffffffffffffffffffffffffffffffffffffffffffffffffffffff19161491505062000b95565b600190505b949350505050565b60008073ffffffffffffffffffffffffffffffffffffffff166002600084815260200190815260200160002060009054906101000a900473ffffffffffffffffffffffffffffffffffffffff1673ffffffffffffffffffffffffffffffffffffffff1614159050919050565b62000c2183838362000d6360201b6200180f1760201c565b600073ffffffffffffffffffffffffffffffffffffffff168373ffffffffffffffffffffffffffffffffffffffff16141562000c6e5762000c688162000d6860201b60201c565b62000cb6565b8173ffffffffffffffffffffffffffffffffffffffff168373ffffffffffffffffffffffffffffffffffffffff161462000cb55762000cb4838262000db160201b60201c565b5b5b600073ffffffffffffffffffffffffffffffffffffffff168273ffffffffffffffffffffffffffffffffffffffff16141562000d035762000cfd8162000f2e60201b60201c565b62000d4b565b8273ffffffffffffffffffffffffffffffffffffffff168273ffffffffffffffffffffffffffffffffffffffff161462000d4a5762000d4982826200100a60201b60201c565b5b5b505050565b600080823b905060008111915050919050565b505050565b6008805490506009600083815260200190815260200160002081905550600881908060018154018082558091505060019003906000526020600020016000909190919091505550565b6000600162000dcb846200109660201b62000b961760201c565b62000dd7919062001761565b905060006007600084815260200190815260200160002054905081811462000ebd576000600660008673ffffffffffffffffffffffffffffffffffffffff1673ffffffffffffffffffffffffffffffffffffffff168152602001908152602001600020600084815260200190815260200160002054905080600660008773ffffffffffffffffffffffffffffffffffffffff1673ffffffffffffffffffffffffffffffffffffffff168152602001908152602001600020600084815260200190815260200160002081905550816007600083815260200190815260200160002081905550505b6007600084815260200190815260200160002060009055600660008573ffffffffffffffffffffffffffffffffffffffff1673ffffffffffffffffffffffffffffffffffffffff16815260200190815260200160002060008381526020019081526020016000206000905550505050565b6000600160088054905062000f44919062001761565b905060006009600084815260200190815260200160002054905060006008838154811062000f775762000f766200179c565b5b90600052602060002001549050806008838154811062000f9c5762000f9b6200179c565b5b90600052602060002001819055508160096000838152602001908152602001600020819055506009600085815260200190815260200160002060009055600880548062000fee5762000fed620017cb565b5b6001900381819060005260206000200160009055905550505050565b600062001022836200109660201b62000b961760201c565b905081600660008573ffffffffffffffffffffffffffffffffffffffff1673ffffffffffffffffffffffffffffffffffffffff168152602001908152602001600020600083815260200190815260200160002081905550806007600084815260200190815260200160002081905550505050565b60008073ffffffffffffffffffffffffffffffffffffffff168273ffffffffffffffffffffffffffffffffffffffff1614156200110a576040517f08c379a0000000000000000000000000000000000000000000000000000000008152600401620011019062001870565b60405180910390fd5b600360008373ffffffffffffffffffffffffffffffffffffffff1673ffffffffffffffffffffffffffffffffffffffff168152602001908152602001600020549050919050565b8280546200115f90620018c1565b90600052602060002090601f016020900481019282620011835760008555620011cf565b82601f106200119e57805160ff1916838001178555620011cf565b82800160010185558215620011cf579182015b82811115620011ce578251825591602001919060010190620011b1565b5b509050620011de9190620011e2565b5090565b5b80821115620011fd576000816000905550600101620011e3565b5090565b600082825260208201905092915050565b7f4f776e61626c653a2063616c6c6572206973206e6f7420746865206f776e6572600082015250565b60006200124a60208362001201565b9150620012578262001212565b602082019050919050565b600060208201905081810360008301526200127d816200123b565b9050919050565b600081519050919050565b600081905092915050565b60005b83811015620012ba5780820151818401526020810190506200129d565b83811115620012ca576000848401525b50505050565b6000620012dd8262001284565b620012e981856200128f565b9350620012fb8185602086016200129a565b80840191505092915050565b6000819050919050565b6000819050919050565b620013306200132a8262001307565b62001311565b82525050565b600062001344828a620012d0565b9150620013528289620012d0565b9150620013608288620012d0565b91506200136e8287620012d0565b91506200137c8286620012d0565b91506200138a8285620012d0565b91506200139882846200131b565b60208201915081905098975050505050505050565b7f4552433732313a207472616e7366657220746f206e6f6e20455243373231526560008201527f63656976657220696d706c656d656e7465720000000000000000000000000000602082015250565b60006200140b60328362001201565b91506200141882620013ad565b604082019050919050565b600060208201905081810360008301526200143e81620013fc565b9050919050565b7f4552433732313a206d696e7420746f20746865207a65726f2061646472657373600082015250565b60006200147d60208362001201565b91506200148a8262001445565b602082019050919050565b60006020820190508181036000830152620014b0816200146e565b9050919050565b7f4552433732313a20746f6b656e20616c7265616479206d696e74656400000000600082015250565b6000620014ef601c8362001201565b9150620014fc82620014b7565b602082019050919050565b600060208201905081810360008301526200152281620014e0565b9050919050565b7f4e487b7100000000000000000000000000000000000000000000000000000000600052601160045260246000fd5b6000620015658262001307565b9150620015728362001307565b9250827fffffffffffffffffffffffffffffffffffffffffffffffffffffffffffffffff03821115620015aa57620015a962001529565b5b828201905092915050565b600073ffffffffffffffffffffffffffffffffffffffff82169050919050565b6000620015e282620015b5565b9050919050565b620015f481620015d5565b82525050565b620016058162001307565b82525050565b600081519050919050565b600082825260208201905092915050565b6000601f19601f8301169050919050565b600062001645826200160b565b62001651818562001616565b9350620016638185602086016200129a565b6200166e8162001627565b840191505092915050565b6000608082019050620016906000830187620015e9565b6200169f6020830186620015e9565b620016ae6040830185620015fa565b8181036060830152620016c2818462001638565b905095945050505050565b600080fd5b60007fffffffff0000000000000000000000000000000000000000000000000000000082169050919050565b6200170981620016d2565b81146200171557600080fd5b50565b6000815190506200172981620016fe565b92915050565b600060208284031215620017485762001747620016cd565b5b6000620017588482850162001718565b91505092915050565b60006200176e8262001307565b91506200177b8362001307565b92508282101562001791576200179062001529565b5b828203905092915050565b7f4e487b7100000000000000000000000000000000000000000000000000000000600052603260045260246000fd5b7f4e487b7100000000000000000000000000000000000000000000000000000000600052603160045260246000fd5b7f4552433732313a2062616c616e636520717565727920666f7220746865207a6560008201527f726f206164647265737300000000000000000000000000000000000000000000602082015250565b600062001858602a8362001201565b91506200186582620017fa565b604082019050919050565b600060208201905081810360008301526200188b8162001849565b9050919050565b7f4e487b7100000000000000000000000000000000000000000000000000000000600052602260045260246000fd5b60006002820490506001821680620018da57607f821691505b60208210811415620018f157620018f062001892565b5b50919050565b6141d280620019076000396000f3fe608060405234801561001057600080fd5b506004361061018e5760003560e01c8063715018a6116100de578063b88d4fde11610097578063de6a06ed11610071578063de6a06ed14610491578063e985e9c5146104ad578063ec048b78146104dd578063f2fde38b146104f95761018e565b8063b88d4fde14610429578063c39cbef114610445578063c87b56dd146104615761018e565b8063715018a61461037b5780637272bf7d1461038557806373b286bb146103b55780638da5cb5b146103d157806395d89b41146103ef578063a22cb4651461040d5761018e565b80632f745c591161014b57806355f804b31161012557806355f804b3146102e35780636352211e146102ff57806365bd71f41461032f57806370a082311461034b5761018e565b80632f745c591461026757806342842e0e146102975780634f6ccce7146102b35761018e565b806301ffc9a71461019357806306fdde03146101c3578063081812fc146101e1578063095ea7b31461021157806318160ddd1461022d57806323b872dd1461024b575b600080fd5b6101ad60048036038101906101a89190612960565b610515565b6040516101ba91906129a8565b60405180910390f35b6101cb61058f565b6040516101d89190612a5c565b60405180910390f35b6101fb60048036038101906101f69190612ab4565b610621565b6040516102089190612b22565b60405180910390f35b61022b60048036038101906102269190612b69565b6106a6565b005b6102356107be565b6040516102429190612bb8565b60405180910390f35b61026560048036038101906102609190612bd3565b6107cb565b005b610281600480360381019061027c9190612b69565b61082b565b60405161028e9190612bb8565b60405180910390f35b6102b160048036038101906102ac9190612bd3565b6108d0565b005b6102cd60048036038101906102c89190612ab4565b6108f0565b6040516102da9190612bb8565b60405180910390f35b6102fd60048036038101906102f89190612d5b565b610961565b005b61031960048036038101906103149190612ab4565b6109f7565b6040516103269190612b22565b60405180910390f35b61034960048036038101906103449190612da4565b610aa9565b005b61036560048036038101906103609190612e00565b610b96565b6040516103729190612bb8565b60405180910390f35b610383610c4e565b005b61039f600480360381019061039a9190612ab4565b610cd6565b6040516103ac9190612fd5565b60405180910390f35b6103cf60048036038101906103ca9190612da4565b6110bd565b005b6103d96111aa565b6040516103e69190612b22565b60405180910390f35b6103f76111d4565b6040516104049190612a5c565b60405180910390f35b61042760048036038101906104229190613023565b611266565b005b610443600480360381019061043e9190613104565b61127c565b005b61045f600480360381019061045a9190612da4565b6112de565b005b61047b60048036038101906104769190612ab4565b6113cb565b6040516104889190612a5c565b60405180910390f35b6104ab60048036038101906104a69190612da4565b611472565b005b6104c760048036038101906104c29190613187565b61155f565b6040516104d491906129a8565b60405180910390f35b6104f760048036038101906104f29190612da4565b6115f3565b005b610513600480360381019061050e9190612e00565b6116e0565b005b60007f780e9d63000000000000000000000000000000000000000000000000000000007bffffffffffffffffffffffffffffffffffffffffffffffffffffffff1916827bffffffffffffffffffffffffffffffffffffffffffffffffffffffff19161480610588575061058782611814565b5b9050919050565b60606000805461059e906131f6565b80601f01602080910402602001604051908101604052809291908181526020018280546105ca906131f6565b80156106175780601f106105ec57610100808354040283529160200191610617565b820191906000526020600020905b8154815290600101906020018083116105fa57829003601f168201915b5050505050905090565b600061062c826118f6565b61066b576040517f08c379a00000000000000000000000000000000000000000000000000000000081526004016106629061329a565b60405180910390fd5b6004600083815260200190815260200160002060009054906101000a900473ffffffffffffffffffffffffffffffffffffffff169050919050565b60006106b1826109f7565b90508073ffffffffffffffffffffffffffffffffffffffff168373ffffffffffffffffffffffffffffffffffffffff161415610722576040517f08c379a00000000000000000000000000000000000000000000000000000000081526004016107199061332c565b60405180910390fd5b8073ffffffffffffffffffffffffffffffffffffffff16610741611962565b73ffffffffffffffffffffffffffffffffffffffff161480610770575061076f8161076a611962565b61155f565b5b6107af576040517f08c379a00000000000000000000000000000000000000000000000000000000081526004016107a6906133be565b60405180910390fd5b6107b9838361196a565b505050565b6000600880549050905090565b6107dc6107d6611962565b82611a23565b61081b576040517f08c379a000000000000000000000000000000000000000000000000000000000815260040161081290613450565b60405180910390fd5b610826838383611b01565b505050565b600061083683610b96565b8210610877576040517f08c379a000000000000000000000000000000000000000000000000000000000815260040161086e906134e2565b60405180910390fd5b600660008473ffffffffffffffffffffffffffffffffffffffff1673ffffffffffffffffffffffffffffffffffffffff168152602001908152602001600020600083815260200190815260200160002054905092915050565b6108eb8383836040518060200160405280600081525061127c565b505050565b60006108fa6107be565b821061093b576040517f08c379a000000000000000000000000000000000000000000000000000000000815260040161093290613574565b60405180910390fd5b6008828154811061094f5761094e613594565b5b90600052602060002001549050919050565b610969611962565b73ffffffffffffffffffffffffffffffffffffffff166109876111aa565b73ffffffffffffffffffffffffffffffffffffffff16146109dd576040517f08c379a00000000000000000000000000000000000000000000000000000000081526004016109d49061360f565b60405180910390fd5b80600d90805190602001906109f39291906127eb565b5050565b6000806002600084815260200190815260200160002060009054906101000a900473ffffffffffffffffffffffffffffffffffffffff169050600073ffffffffffffffffffffffffffffffffffffffff168173ffffffffffffffffffffffffffffffffffffffff161415610aa0576040517f08c379a0000000000000000000000000000000000000000000000000000000008152600401610a97906136a1565b60405180910390fd5b80915050919050565b610ab2826118f6565b610af1576040517f08c379a0000000000000000000000000000000000000000000000000000000008152600401610ae89061370d565b60405180910390fd5b3373ffffffffffffffffffffffffffffffffffffffff16610b11836109f7565b73ffffffffffffffffffffffffffffffffffffffff1614610b67576040517f08c379a0000000000000000000000000000000000000000000000000000000008152600401610b5e906137c5565b60405180910390fd5b80600c60008481526020019081526020016000206002019080519060200190610b919291906127eb565b505050565b60008073ffffffffffffffffffffffffffffffffffffffff168273ffffffffffffffffffffffffffffffffffffffff161415610c07576040517f08c379a0000000000000000000000000000000000000000000000000000000008152600401610bfe90613857565b60405180910390fd5b600360008373ffffffffffffffffffffffffffffffffffffffff1673ffffffffffffffffffffffffffffffffffffffff168152602001908152602001600020549050919050565b610c56611962565b73ffffffffffffffffffffffffffffffffffffffff16610c746111aa565b73ffffffffffffffffffffffffffffffffffffffff1614610cca576040517f08c379a0000000000000000000000000000000000000000000000000000000008152600401610cc19061360f565b60405180910390fd5b610cd46000611d5d565b565b610cde612871565b600c60008381526020019081526020016000206040518061018001604052908160008201548152602001600182018054610d17906131f6565b80601f0160208091040260200160405190810160405280929190818152602001828054610d43906131f6565b8015610d905780601f10610d6557610100808354040283529160200191610d90565b820191906000526020600020905b815481529060010190602001808311610d7357829003601f168201915b50505050508152602001600282018054610da9906131f6565b80601f0160208091040260200160405190810160405280929190818152602001828054610dd5906131f6565b8015610e225780601f10610df757610100808354040283529160200191610e22565b820191906000526020600020905b815481529060010190602001808311610e0557829003601f168201915b50505050508152602001600382018054610e3b906131f6565b80601f0160208091040260200160405190810160405280929190818152602001828054610e67906131f6565b8015610eb45780601f10610e8957610100808354040283529160200191610eb4565b820191906000526020600020905b815481529060010190602001808311610e9757829003601f168201915b50505050508152602001600482018054610ecd906131f6565b80601f0160208091040260200160405190810160405280929190818152602001828054610ef9906131f6565b8015610f465780601f10610f1b57610100808354040283529160200191610f46565b820191906000526020600020905b815481529060010190602001808311610f2957829003601f168201915b50505050508152602001600582018054610f5f906131f6565b80601f0160208091040260200160405190810160405280929190818152602001828054610f8b906131f6565b8015610fd85780601f10610fad57610100808354040283529160200191610fd8565b820191906000526020600020905b815481529060010190602001808311610fbb57829003601f168201915b50505050508152602001600682018054610ff1906131f6565b80601f016020809104026020016040519081016040528092919081815260200182805461101d906131f6565b801561106a5780601f1061103f5761010080835404028352916020019161106a565b820191906000526020600020905b81548152906001019060200180831161104d57829003601f168201915b5050505050815260200160078201548152602001600882015481526020016009820160009054906101000a900460ff16151515158152602001600a8201548152602001600b820154815250509050919050565b6110c6826118f6565b611105576040517f08c379a00000000000000000000000000000000000000000000000000000000081526004016110fc9061370d565b60405180910390fd5b3373ffffffffffffffffffffffffffffffffffffffff16611125836109f7565b73ffffffffffffffffffffffffffffffffffffffff161461117b576040517f08c379a0000000000000000000000000000000000000000000000000000000008152600401611172906138e9565b60405180910390fd5b80600c600084815260200190815260200160002060060190805190602001906111a59291906127eb565b505050565b6000600a60009054906101000a900473ffffffffffffffffffffffffffffffffffffffff16905090565b6060600180546111e3906131f6565b80601f016020809104026020016040519081016040528092919081815260200182805461120f906131f6565b801561125c5780601f106112315761010080835404028352916020019161125c565b820191906000526020600020905b81548152906001019060200180831161123f57829003601f168201915b5050505050905090565b611278611271611962565b8383611e23565b5050565b61128d611287611962565b83611a23565b6112cc576040517f08c379a00000000000000000000000000000000000000000000000000000000081526004016112c390613450565b60405180910390fd5b6112d884848484611f90565b50505050565b6112e7826118f6565b611326576040517f08c379a000000000000000000000000000000000000000000000000000000000815260040161131d9061370d565b60405180910390fd5b3373ffffffffffffffffffffffffffffffffffffffff16611346836109f7565b73ffffffffffffffffffffffffffffffffffffffff161461139c576040517f08c379a00000000000000000000000000000000000000000000000000000000081526004016113939061397b565b60405180910390fd5b80600c600084815260200190815260200160002060010190805190602001906113c69291906127eb565b505050565b60606113d6826118f6565b611415576040517f08c379a000000000000000000000000000000000000000000000000000000000815260040161140c90613a0d565b60405180910390fd5b600061141f611fec565b9050600081511161143f576040518060200160405280600081525061146a565b806114498461207e565b60405160200161145a929190613a69565b6040516020818303038152906040525b915050919050565b61147b826118f6565b6114ba576040517f08c379a00000000000000000000000000000000000000000000000000000000081526004016114b19061370d565b60405180910390fd5b3373ffffffffffffffffffffffffffffffffffffffff166114da836109f7565b73ffffffffffffffffffffffffffffffffffffffff1614611530576040517f08c379a000000000000000000000000000000000000000000000000000000000815260040161152790613aff565b60405180910390fd5b80600c6000848152602001908152602001600020600501908051906020019061155a9291906127eb565b505050565b6000600560008473ffffffffffffffffffffffffffffffffffffffff1673ffffffffffffffffffffffffffffffffffffffff16815260200190815260200160002060008373ffffffffffffffffffffffffffffffffffffffff1673ffffffffffffffffffffffffffffffffffffffff16815260200190815260200160002060009054906101000a900460ff16905092915050565b6115fc826118f6565b61163b576040517f08c379a00000000000000000000000000000000000000000000000000000000081526004016116329061370d565b60405180910390fd5b3373ffffffffffffffffffffffffffffffffffffffff1661165b836109f7565b73ffffffffffffffffffffffffffffffffffffffff16146116b1576040517f08c379a00000000000000000000000000000000000000000000000000000000081526004016116a890613b91565b60405180910390fd5b80600c600084815260200190815260200160002060040190805190602001906116db9291906127eb565b505050565b6116e8611962565b73ffffffffffffffffffffffffffffffffffffffff166117066111aa565b73ffffffffffffffffffffffffffffffffffffffff161461175c576040517f08c379a00000000000000000000000000000000000000000000000000000000081526004016117539061360f565b60405180910390fd5b600073ffffffffffffffffffffffffffffffffffffffff168173ffffffffffffffffffffffffffffffffffffffff1614156117cc576040517f08c379a00000000000000000000000000000000000000000000000000000000081526004016117c390613c23565b60405180910390fd5b6117d581611d5d565b50565b600081600001549050919050565b6001816000016000828254019250508190555050565b600080823b905060008111915050919050565b505050565b60007f80ac58cd000000000000000000000000000000000000000000000000000000007bffffffffffffffffffffffffffffffffffffffffffffffffffffffff1916827bffffffffffffffffffffffffffffffffffffffffffffffffffffffff191614806118df57507f5b5e139f000000000000000000000000000000000000000000000000000000007bffffffffffffffffffffffffffffffffffffffffffffffffffffffff1916827bffffffffffffffffffffffffffffffffffffffffffffffffffffffff1916145b806118ef57506118ee826121df565b5b9050919050565b60008073ffffffffffffffffffffffffffffffffffffffff166002600084815260200190815260200160002060009054906101000a900473ffffffffffffffffffffffffffffffffffffffff1673ffffffffffffffffffffffffffffffffffffffff1614159050919050565b600033905090565b816004600083815260200190815260200160002060006101000a81548173ffffffffffffffffffffffffffffffffffffffff021916908373ffffffffffffffffffffffffffffffffffffffff160217905550808273ffffffffffffffffffffffffffffffffffffffff166119dd836109f7565b73ffffffffffffffffffffffffffffffffffffffff167f8c5be1e5ebec7d5bd14f71427d1e84f3dd0314c0f7b2291e5b200ac8c7c3b92560405160405180910390a45050565b6000611a2e826118f6565b611a6d576040517f08c379a0000000000000000000000000000000000000000000000000000000008152600401611a6490613cb5565b60405180910390fd5b6000611a78836109f7565b90508073ffffffffffffffffffffffffffffffffffffffff168473ffffffffffffffffffffffffffffffffffffffff161480611ae757508373ffffffffffffffffffffffffffffffffffffffff16611acf84610621565b73ffffffffffffffffffffffffffffffffffffffff16145b80611af85750611af7818561155f565b5b91505092915050565b8273ffffffffffffffffffffffffffffffffffffffff16611b21826109f7565b73ffffffffffffffffffffffffffffffffffffffff1614611b77576040517f08c379a0000000000000000000000000000000000000000000000000000000008152600401611b6e90613d47565b60405180910390fd5b600073ffffffffffffffffffffffffffffffffffffffff168273ffffffffffffffffffffffffffffffffffffffff161415611be7576040517f08c379a0000000000000000000000000000000000000000000000000000000008152600401611bde90613dd9565b60405180910390fd5b611bf2838383612249565b611bfd60008261196a565b6001600360008573ffffffffffffffffffffffffffffffffffffffff1673ffffffffffffffffffffffffffffffffffffffff1681526020019081526020016000206000828254611c4d9190613e28565b925050819055506001600360008473ffffffffffffffffffffffffffffffffffffffff1673ffffffffffffffffffffffffffffffffffffffff1681526020019081526020016000206000828254611ca49190613e5c565b92505081905550816002600083815260200190815260200160002060006101000a81548173ffffffffffffffffffffffffffffffffffffffff021916908373ffffffffffffffffffffffffffffffffffffffff160217905550808273ffffffffffffffffffffffffffffffffffffffff168473ffffffffffffffffffffffffffffffffffffffff167fddf252ad1be2c89b69c2b068fc378daa952ba7f163c4a11628f55a4df523b3ef60405160405180910390a4505050565b6000600a60009054906101000a900473ffffffffffffffffffffffffffffffffffffffff16905081600a60006101000a81548173ffffffffffffffffffffffffffffffffffffffff021916908373ffffffffffffffffffffffffffffffffffffffff1602179055508173ffffffffffffffffffffffffffffffffffffffff168173ffffffffffffffffffffffffffffffffffffffff167f8be0079c531659141344cd1fd0a4f28419497f9722a3daafe3b4186f6b6457e060405160405180910390a35050565b8173ffffffffffffffffffffffffffffffffffffffff168373ffffffffffffffffffffffffffffffffffffffff161415611e92576040517f08c379a0000000000000000000000000000000000000000000000000000000008152600401611e8990613efe565b60405180910390fd5b80600560008573ffffffffffffffffffffffffffffffffffffffff1673ffffffffffffffffffffffffffffffffffffffff16815260200190815260200160002060008473ffffffffffffffffffffffffffffffffffffffff1673ffffffffffffffffffffffffffffffffffffffff16815260200190815260200160002060006101000a81548160ff0219169083151502179055508173ffffffffffffffffffffffffffffffffffffffff168373ffffffffffffffffffffffffffffffffffffffff167f17307eab39ab6107e8899845ad3d59bd9653f200f220920489ca2b5937696c3183604051611f8391906129a8565b60405180910390a3505050565b611f9b848484611b01565b611fa78484848461235d565b611fe6576040517f08c379a0000000000000000000000000000000000000000000000000000000008152600401611fdd90613f90565b60405180910390fd5b50505050565b6060600d8054611ffb906131f6565b80601f0160208091040260200160405190810160405280929190818152602001828054612027906131f6565b80156120745780601f1061204957610100808354040283529160200191612074565b820191906000526020600020905b81548152906001019060200180831161205757829003601f168201915b5050505050905090565b606060008214156120c6576040518060400160405280600181526020017f300000000000000000000000000000000000000000000000000000000000000081525090506121da565b600082905060005b600082146120f85780806120e190613fb0565b915050600a826120f19190614028565b91506120ce565b60008167ffffffffffffffff81111561211457612113612c30565b5b6040519080825280601f01601f1916602001820160405280156121465781602001600182028036833780820191505090505b5090505b600085146121d35760018261215f9190613e28565b9150600a8561216e9190614059565b603061217a9190613e5c565b60f81b8183815181106121905761218f613594565b5b60200101907effffffffffffffffffffffffffffffffffffffffffffffffffffffffffffff1916908160001a905350600a856121cc9190614028565b945061214a565b8093505050505b919050565b60007f01ffc9a7000000000000000000000000000000000000000000000000000000007bffffffffffffffffffffffffffffffffffffffffffffffffffffffff1916827bffffffffffffffffffffffffffffffffffffffffffffffffffffffff1916149050919050565b61225483838361180f565b600073ffffffffffffffffffffffffffffffffffffffff168373ffffffffffffffffffffffffffffffffffffffff16141561229757612292816124e5565b6122d6565b8173ffffffffffffffffffffffffffffffffffffffff168373ffffffffffffffffffffffffffffffffffffffff16146122d5576122d4838261252e565b5b5b600073ffffffffffffffffffffffffffffffffffffffff168273ffffffffffffffffffffffffffffffffffffffff161415612319576123148161269b565b612358565b8273ffffffffffffffffffffffffffffffffffffffff168273ffffffffffffffffffffffffffffffffffffffff161461235757612356828261276c565b5b5b505050565b600061237e8473ffffffffffffffffffffffffffffffffffffffff166117fc565b156124d8578373ffffffffffffffffffffffffffffffffffffffff1663150b7a026123a7611962565b8786866040518563ffffffff1660e01b81526004016123c994939291906140df565b6020604051808303816000875af192505050801561240557506040513d601f19601f820116820180604052508101906124029190614140565b60015b612488573d8060008114612435576040519150601f19603f3d011682016040523d82523d6000602084013e61243a565b606091505b50600081511415612480576040517f08c379a000000000000000000000000000000000000000000000000000000000815260040161247790613f90565b60405180910390fd5b805181602001fd5b63150b7a0260e01b7bffffffffffffffffffffffffffffffffffffffffffffffffffffffff1916817bffffffffffffffffffffffffffffffffffffffffffffffffffffffff1916149150506124dd565b600190505b949350505050565b6008805490506009600083815260200190815260200160002081905550600881908060018154018082558091505060019003906000526020600020016000909190919091505550565b6000600161253b84610b96565b6125459190613e28565b905060006007600084815260200190815260200160002054905081811461262a576000600660008673ffffffffffffffffffffffffffffffffffffffff1673ffffffffffffffffffffffffffffffffffffffff168152602001908152602001600020600084815260200190815260200160002054905080600660008773ffffffffffffffffffffffffffffffffffffffff1673ffffffffffffffffffffffffffffffffffffffff168152602001908152602001600020600084815260200190815260200160002081905550816007600083815260200190815260200160002081905550505b6007600084815260200190815260200160002060009055600660008573ffffffffffffffffffffffffffffffffffffffff1673ffffffffffffffffffffffffffffffffffffffff16815260200190815260200160002060008381526020019081526020016000206000905550505050565b600060016008805490506126af9190613e28565b90506000600960008481526020019081526020016000205490506000600883815481106126df576126de613594565b5b90600052602060002001549050806008838154811061270157612700613594565b5b9060005260206000200181905550816009600083815260200190815260200160002081905550600960008581526020019081526020016000206000905560088054806127505761274f61416d565b5b6001900381819060005260206000200160009055905550505050565b600061277783610b96565b905081600660008573ffffffffffffffffffffffffffffffffffffffff1673ffffffffffffffffffffffffffffffffffffffff168152602001908152602001600020600083815260200190815260200160002081905550806007600084815260200190815260200160002081905550505050565b8280546127f7906131f6565b90600052602060002090601f0160209004810192826128195760008555612860565b82601f1061283257805160ff1916838001178555612860565b82800160010185558215612860579182015b8281111561285f578251825591602001919060010190612844565b5b50905061286d91906128d7565b5090565b60405180610180016040528060008019168152602001606081526020016060815260200160608152602001606081526020016060815260200160608152602001600081526020016000815260200160001515815260200160008152602001600081525090565b5b808211156128f05760008160009055506001016128d8565b5090565b6000604051905090565b600080fd5b600080fd5b60007fffffffff0000000000000000000000000000000000000000000000000000000082169050919050565b61293d81612908565b811461294857600080fd5b50565b60008135905061295a81612934565b92915050565b600060208284031215612976576129756128fe565b5b60006129848482850161294b565b91505092915050565b60008115159050919050565b6129a28161298d565b82525050565b60006020820190506129bd6000830184612999565b92915050565b600081519050919050565b600082825260208201905092915050565b60005b838110156129fd5780820151818401526020810190506129e2565b83811115612a0c576000848401525b50505050565b6000601f19601f8301169050919050565b6000612a2e826129c3565b612a3881856129ce565b9350612a488185602086016129df565b612a5181612a12565b840191505092915050565b60006020820190508181036000830152612a768184612a23565b905092915050565b6000819050919050565b612a9181612a7e565b8114612a9c57600080fd5b50565b600081359050612aae81612a88565b92915050565b600060208284031215612aca57612ac96128fe565b5b6000612ad884828501612a9f565b91505092915050565b600073ffffffffffffffffffffffffffffffffffffffff82169050919050565b6000612b0c82612ae1565b9050919050565b612b1c81612b01565b82525050565b6000602082019050612b376000830184612b13565b92915050565b612b4681612b01565b8114612b5157600080fd5b50565b600081359050612b6381612b3d565b92915050565b60008060408385031215612b8057612b7f6128fe565b5b6000612b8e85828601612b54565b9250506020612b9f85828601612a9f565b9150509250929050565b612bb281612a7e565b82525050565b6000602082019050612bcd6000830184612ba9565b92915050565b600080600060608486031215612bec57612beb6128fe565b5b6000612bfa86828701612b54565b9350506020612c0b86828701612b54565b9250506040612c1c86828701612a9f565b9150509250925092565b600080fd5b600080fd5b7f4e487b7100000000000000000000000000000000000000000000000000000000600052604160045260246000fd5b612c6882612a12565b810181811067ffffffffffffffff82111715612c8757612c86612c30565b5b80604052505050565b6000612c9a6128f4565b9050612ca68282612c5f565b919050565b600067ffffffffffffffff821115612cc657612cc5612c30565b5b612ccf82612a12565b9050602081019050919050565b82818337600083830152505050565b6000612cfe612cf984612cab565b612c90565b905082815260208101848484011115612d1a57612d19612c2b565b5b612d25848285612cdc565b509392505050565b600082601f830112612d4257612d41612c26565b5b8135612d52848260208601612ceb565b91505092915050565b600060208284031215612d7157612d706128fe565b5b600082013567ffffffffffffffff811115612d8f57612d8e612903565b5b612d9b84828501612d2d565b91505092915050565b60008060408385031215612dbb57612dba6128fe565b5b6000612dc985828601612a9f565b925050602083013567ffffffffffffffff811115612dea57612de9612903565b5b612df685828601612d2d565b9150509250929050565b600060208284031215612e1657612e156128fe565b5b6000612e2484828501612b54565b91505092915050565b6000819050919050565b612e4081612e2d565b82525050565b600082825260208201905092915050565b6000612e62826129c3565b612e6c8185612e46565b9350612e7c8185602086016129df565b612e8581612a12565b840191505092915050565b612e9981612a7e565b82525050565b612ea88161298d565b82525050565b600061018083016000830151612ec76000860182612e37565b5060208301518482036020860152612edf8282612e57565b91505060408301518482036040860152612ef98282612e57565b91505060608301518482036060860152612f138282612e57565b91505060808301518482036080860152612f2d8282612e57565b91505060a083015184820360a0860152612f478282612e57565b91505060c083015184820360c0860152612f618282612e57565b91505060e0830151612f7660e0860182612e90565b50610100830151612f8b610100860182612e90565b50610120830151612fa0610120860182612e9f565b50610140830151612fb5610140860182612e90565b50610160830151612fca610160860182612e90565b508091505092915050565b60006020820190508181036000830152612fef8184612eae565b905092915050565b6130008161298d565b811461300b57600080fd5b50565b60008135905061301d81612ff7565b92915050565b6000806040838503121561303a576130396128fe565b5b600061304885828601612b54565b92505060206130598582860161300e565b9150509250929050565b600067ffffffffffffffff82111561307e5761307d612c30565b5b61308782612a12565b9050602081019050919050565b60006130a76130a284613063565b612c90565b9050828152602081018484840111156130c3576130c2612c2b565b5b6130ce848285612cdc565b509392505050565b600082601f8301126130eb576130ea612c26565b5b81356130fb848260208601613094565b91505092915050565b6000806000806080858703121561311e5761311d6128fe565b5b600061312c87828801612b54565b945050602061313d87828801612b54565b935050604061314e87828801612a9f565b925050606085013567ffffffffffffffff81111561316f5761316e612903565b5b61317b878288016130d6565b91505092959194509250565b6000806040838503121561319e5761319d6128fe565b5b60006131ac85828601612b54565b92505060206131bd85828601612b54565b9150509250929050565b7f4e487b7100000000000000000000000000000000000000000000000000000000600052602260045260246000fd5b6000600282049050600182168061320e57607f821691505b60208210811415613222576132216131c7565b5b50919050565b7f4552433732313a20617070726f76656420717565727920666f72206e6f6e657860008201527f697374656e7420746f6b656e0000000000000000000000000000000000000000602082015250565b6000613284602c836129ce565b915061328f82613228565b604082019050919050565b600060208201905081810360008301526132b381613277565b9050919050565b7f4552433732313a20617070726f76616c20746f2063757272656e74206f776e6560008201527f7200000000000000000000000000000000000000000000000000000000000000602082015250565b60006133166021836129ce565b9150613321826132ba565b604082019050919050565b6000602082019050818103600083015261334581613309565b9050919050565b7f4552433732313a20617070726f76652063616c6c6572206973206e6f74206f7760008201527f6e6572206e6f7220617070726f76656420666f7220616c6c0000000000000000602082015250565b60006133a86038836129ce565b91506133b38261334c565b604082019050919050565b600060208201905081810360008301526133d78161339b565b9050919050565b7f4552433732313a207472616e736665722063616c6c6572206973206e6f74206f60008201527f776e6572206e6f7220617070726f766564000000000000000000000000000000602082015250565b600061343a6031836129ce565b9150613445826133de565b604082019050919050565b600060208201905081810360008301526134698161342d565b9050919050565b7f455243373231456e756d657261626c653a206f776e657220696e646578206f7560008201527f74206f6620626f756e6473000000000000000000000000000000000000000000602082015250565b60006134cc602b836129ce565b91506134d782613470565b604082019050919050565b600060208201905081810360008301526134fb816134bf565b9050919050565b7f455243373231456e756d657261626c653a20676c6f62616c20696e646578206f60008201527f7574206f6620626f756e64730000000000000000000000000000000000000000602082015250565b600061355e602c836129ce565b915061356982613502565b604082019050919050565b6000602082019050818103600083015261358d81613551565b9050919050565b7f4e487b7100000000000000000000000000000000000000000000000000000000600052603260045260246000fd5b7f4f776e61626c653a2063616c6c6572206973206e6f7420746865206f776e6572600082015250565b60006135f96020836129ce565b9150613604826135c3565b602082019050919050565b60006020820190508181036000830152613628816135ec565b9050919050565b7f4552433732313a206f776e657220717565727920666f72206e6f6e657869737460008201527f656e7420746f6b656e0000000000000000000000000000000000000000000000602082015250565b600061368b6029836129ce565b91506136968261362f565b604082019050919050565b600060208201905081810360008301526136ba8161367e565b9050919050565b7f746f6b656e206e6f74206d696e74656400000000000000000000000000000000600082015250565b60006136f76010836129ce565b9150613702826136c1565b602082019050919050565b60006020820190508181036000830152613726816136ea565b9050919050565b7f6f6e6c7920746865206f776e6572206f66207468697320756e6971756520494460008201527f2063616e206368616e67652069747320416c736f204b6e6f776e20417320284160208201527f4b41290000000000000000000000000000000000000000000000000000000000604082015250565b60006137af6043836129ce565b91506137ba8261372d565b606082019050919050565b600060208201905081810360008301526137de816137a2565b9050919050565b7f4552433732313a2062616c616e636520717565727920666f7220746865207a6560008201527f726f206164647265737300000000000000000000000000000000000000000000602082015250565b6000613841602a836129ce565b915061384c826137e5565b604082019050919050565b6000602082019050818103600083015261387081613834565b9050919050565b7f6f6e6c7920746865206f776e6572206f66207468697320756e6971756520494460008201527f2063616e206368616e6765206974732055524c00000000000000000000000000602082015250565b60006138d36033836129ce565b91506138de82613877565b604082019050919050565b60006020820190508181036000830152613902816138c6565b9050919050565b7f6f6e6c7920746865206f776e6572206f66207468697320756e6971756520494460008201527f2063616e206368616e676520697473204e616d65000000000000000000000000602082015250565b60006139656034836129ce565b915061397082613909565b604082019050919050565b6000602082019050818103600083015261399481613958565b9050919050565b7f4552433732314d657461646174613a2055524920717565727920666f72206e6f60008201527f6e6578697374656e7420746f6b656e0000000000000000000000000000000000602082015250565b60006139f7602f836129ce565b9150613a028261399b565b604082019050919050565b60006020820190508181036000830152613a26816139ea565b9050919050565b600081905092915050565b6000613a43826129c3565b613a4d8185613a2d565b9350613a5d8185602086016129df565b80840191505092915050565b6000613a758285613a38565b9150613a818284613a38565b91508190509392505050565b7f6f6e6c7920746865206f776e6572206f66207468697320756e6971756520494460008201527f2063616e206368616e676520697473204465736372697074696f6e0000000000602082015250565b6000613ae9603b836129ce565b9150613af482613a8d565b604082019050919050565b60006020820190508181036000830152613b1881613adc565b9050919050565b7f6f6e6c7920746865206f776e6572206f66207468697320756e6971756520494460008201527f2063616e206368616e67652069747320536c6f67616e00000000000000000000602082015250565b6000613b7b6036836129ce565b9150613b8682613b1f565b604082019050919050565b60006020820190508181036000830152613baa81613b6e565b9050919050565b7f4f776e61626c653a206e6577206f776e657220697320746865207a65726f206160008201527f6464726573730000000000000000000000000000000000000000000000000000602082015250565b6000613c0d6026836129ce565b9150613c1882613bb1565b604082019050919050565b60006020820190508181036000830152613c3c81613c00565b9050919050565b7f4552433732313a206f70657261746f7220717565727920666f72206e6f6e657860008201527f697374656e7420746f6b656e0000000000000000000000000000000000000000602082015250565b6000613c9f602c836129ce565b9150613caa82613c43565b604082019050919050565b60006020820190508181036000830152613cce81613c92565b9050919050565b7f4552433732313a207472616e73666572206f6620746f6b656e2074686174206960008201527f73206e6f74206f776e0000000000000000000000000000000000000000000000602082015250565b6000613d316029836129ce565b9150613d3c82613cd5565b604082019050919050565b60006020820190508181036000830152613d6081613d24565b9050919050565b7f4552433732313a207472616e7366657220746f20746865207a65726f2061646460008201527f7265737300000000000000000000000000000000000000000000000000000000602082015250565b6000613dc36024836129ce565b9150613dce82613d67565b604082019050919050565b60006020820190508181036000830152613df281613db6565b9050919050565b7f4e487b7100000000000000000000000000000000000000000000000000000000600052601160045260246000fd5b6000613e3382612a7e565b9150613e3e83612a7e565b925082821015613e5157613e50613df9565b5b828203905092915050565b6000613e6782612a7e565b9150613e7283612a7e565b9250827fffffffffffffffffffffffffffffffffffffffffffffffffffffffffffffffff03821115613ea757613ea6613df9565b5b828201905092915050565b7f4552433732313a20617070726f766520746f2063616c6c657200000000000000600082015250565b6000613ee86019836129ce565b9150613ef382613eb2565b602082019050919050565b60006020820190508181036000830152613f1781613edb565b9050919050565b7f4552433732313a207472616e7366657220746f206e6f6e20455243373231526560008201527f63656976657220696d706c656d656e7465720000000000000000000000000000602082015250565b6000613f7a6032836129ce565b9150613f8582613f1e565b604082019050919050565b60006020820190508181036000830152613fa981613f6d565b9050919050565b6000613fbb82612a7e565b91507fffffffffffffffffffffffffffffffffffffffffffffffffffffffffffffffff821415613fee57613fed613df9565b5b600182019050919050565b7f4e487b7100000000000000000000000000000000000000000000000000000000600052601260045260246000fd5b600061403382612a7e565b915061403e83612a7e565b92508261404e5761404d613ff9565b5b828204905092915050565b600061406482612a7e565b915061406f83612a7e565b92508261407f5761407e613ff9565b5b828206905092915050565b600081519050919050565b600082825260208201905092915050565b60006140b18261408a565b6140bb8185614095565b93506140cb8185602086016129df565b6140d481612a12565b840191505092915050565b60006080820190506140f46000830187612b13565b6141016020830186612b13565b61410e6040830185612ba9565b818103606083015261412081846140a6565b905095945050505050565b60008151905061413a81612934565b92915050565b600060208284031215614156576141556128fe565b5b60006141648482850161412b565b91505092915050565b7f4e487b7100000000000000000000000000000000000000000000000000000000600052603160045260246000fdfea2646970667358221220d3c17353865be9961d0e71e080eac1695906148aec205145427fa9c82502fc0d64736f6c634300080a0033",
  "immutableReferences": {},
  "source": "// SPDX-License-Identifier: MIT\r\npragma solidity >=0.4.22 <0.9.0;\r\n\r\nimport \"@openzeppelin/contracts/access/Ownable.sol\";\r\nimport \"@openzeppelin/contracts/token/ERC721/ERC721.sol\";\r\nimport \"@openzeppelin/contracts/token/ERC721/extensions/ERC721Enumerable.sol\";\r\nimport \"@openzeppelin/contracts/utils/Counters.sol\";\r\n\r\ncontract MintIdentity is ERC721Enumerable, Ownable {\r\n    using Counters for Counters.Counter;\r\n    Counters.Counter private _tokenIds;\r\n\r\n    struct Identity {\r\n        bytes32 uniqueid;\r\n        string name;\r\n        string aka;\r\n        string organization;\r\n        string slogan;\r\n        string description;\r\n        string url;\r\n        uint created;\r\n        uint lastupdated;\r\n        bool valid;\r\n        uint validdate;\r\n        uint validationscore;\r\n    }\r\n\r\n    mapping(uint256=> Identity) id_to_identity;\r\n\r\n    string private _currentBaseURI;\r\n\r\n    constructor() ERC721(\"MintIdentity\", \"IDENT\") {\r\n        setBaseURI(\"https://localhost:8000/mint\");\r\n\r\n        mintIdentity(\"Andrew N.\",\r\n            \"H-street\",\r\n            \"PaperMasters\",\r\n            \"Oh Yeah!\",\r\n            \"\",\r\n            \"http://ramonajenny.com\");\r\n\r\n        mintIdentity(\"Ramona\",\r\n            \"ramonajenny\",\r\n            \"PaperMasters\",\r\n            \"All things Wave\",\r\n            \"\",\r\n            \"http://ramonajenny.com\");\r\n    }\r\n\r\n    function setBaseURI(string memory baseURI) public onlyOwner() {\r\n        _currentBaseURI = baseURI;\r\n    }\r\n\r\n    function _baseURI() internal view virtual override returns (string memory) {\r\n        return _currentBaseURI;\r\n    }\r\n\r\n    function createUniqueId(\r\n        string memory name,\r\n        string memory aka,\r\n        string memory org,\r\n        string memory slogan,\r\n        string memory description,\r\n        string memory url) private view returns(bytes32) {\r\n        return keccak256(abi.encodePacked(name, aka, org, slogan, description, url, block.timestamp));\r\n    }\r\n\r\n    function getTokenIdentity(uint256 tokenId) public view returns(Identity memory ident) {\r\n        ident = id_to_identity[tokenId];\r\n    }\r\n\r\n    function mintIdentity (\r\n        string memory name,\r\n        string memory aka,\r\n        string memory org,\r\n        string memory slogan,\r\n        string memory description,\r\n        string memory url) internal {\r\n            bytes32 uniqueId = createUniqueId(name, aka, org, slogan, description, url);\r\n            id_to_identity[_tokenIds.current()] = Identity(uniqueId,name, aka, org, slogan, description,\r\n                url, block.timestamp, block.timestamp, false, 0, 0);\r\n            _safeMint(msg.sender,_tokenIds.current());\r\n            _tokenIds.increment();\r\n    }\r\n\r\n    function changeName(uint256 tokenId, string memory newName)  public {\r\n        require(_exists(tokenId), \"token not minted\");\r\n        require(ownerOf(tokenId) == msg.sender, \"only the owner of this unique ID can change its Name\");\r\n        id_to_identity[tokenId].name = newName;\r\n\r\n    }\r\n\r\n    function changeAKA(uint256 tokenId, string memory newAKA)  public {\r\n        require(_exists(tokenId), \"token not minted\");\r\n        require(ownerOf(tokenId) == msg.sender, \"only the owner of this unique ID can change its Also Known As (AKA)\");\r\n        id_to_identity[tokenId].aka = newAKA;\r\n\r\n    }\r\n\r\n    function changeSlogan(uint256 tokenId, string memory newSlogan)  public {\r\n        require(_exists(tokenId), \"token not minted\");\r\n        require(ownerOf(tokenId) == msg.sender, \"only the owner of this unique ID can change its Slogan\");\r\n        id_to_identity[tokenId].slogan = newSlogan;\r\n\r\n    }\r\n\r\n    function changeDescription(uint256 tokenId, string memory newDescription)  public {\r\n        require(_exists(tokenId), \"token not minted\");\r\n        require(ownerOf(tokenId) == msg.sender, \"only the owner of this unique ID can change its Description\");\r\n        id_to_identity[tokenId].description = newDescription;\r\n\r\n    }\r\n\r\n    function changeURL(uint256 tokenId, string memory newURL)  public {\r\n        require(_exists(tokenId), \"token not minted\");\r\n        require(ownerOf(tokenId) == msg.sender, \"only the owner of this unique ID can change its URL\");\r\n        id_to_identity[tokenId].url = newURL;\r\n\r\n        }\r\n\r\n\r\n//changeLastUpdated(tokenId);\r\n    //we need transfer ownership for companies\r\n    //id_to_identity[tokenId].lastupdated = block.timestamp;\r\n\r\n}",
  "sourcePath": "/home/ramona/gitrepos/MintIdentityTPM/truffle/contracts/MintIdentity.sol",
  "compiler": {
    "name": "solc",
    "version": "0.8.10+commit.fc410830.Emscripten.clang"
  },
  "schemaVersion": "3.4.4",
  "updatedAt": "2022-01-12T03:27:05.530Z",
  "networkType": "ethereum",
  "devdoc": {
    "kind": "dev",
    "methods": {
      "approve(address,uint256)": {
        "details": "See {IERC721-approve}."
      },
      "balanceOf(address)": {
        "details": "See {IERC721-balanceOf}."
      },
      "getApproved(uint256)": {
        "details": "See {IERC721-getApproved}."
      },
      "isApprovedForAll(address,address)": {
        "details": "See {IERC721-isApprovedForAll}."
      },
      "name()": {
        "details": "See {IERC721Metadata-name}."
      },
      "owner()": {
        "details": "Returns the address of the current owner."
      },
      "ownerOf(uint256)": {
        "details": "See {IERC721-ownerOf}."
      },
      "renounceOwnership()": {
        "details": "Leaves the contract without owner. It will not be possible to call `onlyOwner` functions anymore. Can only be called by the current owner. NOTE: Renouncing ownership will leave the contract without an owner, thereby removing any functionality that is only available to the owner."
      },
      "safeTransferFrom(address,address,uint256)": {
        "details": "See {IERC721-safeTransferFrom}."
      },
      "safeTransferFrom(address,address,uint256,bytes)": {
        "details": "See {IERC721-safeTransferFrom}."
      },
      "setApprovalForAll(address,bool)": {
        "details": "See {IERC721-setApprovalForAll}."
      },
      "supportsInterface(bytes4)": {
        "details": "See {IERC165-supportsInterface}."
      },
      "symbol()": {
        "details": "See {IERC721Metadata-symbol}."
      },
      "tokenByIndex(uint256)": {
        "details": "See {IERC721Enumerable-tokenByIndex}."
      },
      "tokenOfOwnerByIndex(address,uint256)": {
        "details": "See {IERC721Enumerable-tokenOfOwnerByIndex}."
      },
      "tokenURI(uint256)": {
        "details": "See {IERC721Metadata-tokenURI}."
      },
      "totalSupply()": {
        "details": "See {IERC721Enumerable-totalSupply}."
      },
      "transferFrom(address,address,uint256)": {
        "details": "See {IERC721-transferFrom}."
      },
      "transferOwnership(address)": {
        "details": "Transfers ownership of the contract to a new account (`newOwner`). Can only be called by the current owner."
      }
    },
    "version": 1
  },
  "userdoc": {
    "kind": "user",
    "methods": {},
    "version": 1
  }
}