{
  "contractName": "MintIdentity",
  "abi": [
    {
      "anonymous": false,
      "inputs": [
        {
          "indexed": true,
          "internalType": "address",
          "name": "owner",
          "type": "address"
        },
        {
          "indexed": true,
          "internalType": "address",
          "name": "approved",
          "type": "address"
        },
        {
          "indexed": true,
          "internalType": "uint256",
          "name": "tokenId",
          "type": "uint256"
        }
      ],
      "name": "Approval",
      "type": "event"
    },
    {
      "anonymous": false,
      "inputs": [
        {
          "indexed": true,
          "internalType": "address",
          "name": "owner",
          "type": "address"
        },
        {
          "indexed": true,
          "internalType": "address",
          "name": "operator",
          "type": "address"
        },
        {
          "indexed": false,
          "internalType": "bool",
          "name": "approved",
          "type": "bool"
        }
      ],
      "name": "ApprovalForAll",
      "type": "event"
    },
    {
      "anonymous": false,
      "inputs": [
        {
          "indexed": true,
          "internalType": "address",
          "name": "previousOwner",
          "type": "address"
        },
        {
          "indexed": true,
          "internalType": "address",
          "name": "newOwner",
          "type": "address"
        }
      ],
      "name": "OwnershipTransferred",
      "type": "event"
    },
    {
      "anonymous": false,
      "inputs": [
        {
          "indexed": true,
          "internalType": "address",
          "name": "from",
          "type": "address"
        },
        {
          "indexed": true,
          "internalType": "address",
          "name": "to",
          "type": "address"
        },
        {
          "indexed": true,
          "internalType": "uint256",
          "name": "tokenId",
          "type": "uint256"
        }
      ],
      "name": "Transfer",
      "type": "event"
    },
    {
      "inputs": [
        {
          "internalType": "address",
          "name": "to",
          "type": "address"
        },
        {
          "internalType": "uint256",
          "name": "tokenId",
          "type": "uint256"
        }
      ],
      "name": "approve",
      "outputs": [],
      "stateMutability": "nonpayable",
      "type": "function"
    },
    {
      "inputs": [
        {
          "internalType": "address",
          "name": "owner",
          "type": "address"
        }
      ],
      "name": "balanceOf",
      "outputs": [
        {
          "internalType": "uint256",
          "name": "",
          "type": "uint256"
        }
      ],
      "stateMutability": "view",
      "type": "function"
    },
    {
      "inputs": [
        {
          "internalType": "uint256",
          "name": "tokenId",
          "type": "uint256"
        }
      ],
      "name": "getApproved",
      "outputs": [
        {
          "internalType": "address",
          "name": "",
          "type": "address"
        }
      ],
      "stateMutability": "view",
      "type": "function"
    },
    {
      "inputs": [
        {
          "internalType": "address",
          "name": "owner",
          "type": "address"
        },
        {
          "internalType": "address",
          "name": "operator",
          "type": "address"
        }
      ],
      "name": "isApprovedForAll",
      "outputs": [
        {
          "internalType": "bool",
          "name": "",
          "type": "bool"
        }
      ],
      "stateMutability": "view",
      "type": "function"
    },
    {
      "inputs": [],
      "name": "name",
      "outputs": [
        {
          "internalType": "string",
          "name": "",
          "type": "string"
        }
      ],
      "stateMutability": "view",
      "type": "function"
    },
    {
      "inputs": [],
      "name": "owner",
      "outputs": [
        {
          "internalType": "address",
          "name": "",
          "type": "address"
        }
      ],
      "stateMutability": "view",
      "type": "function"
    },
    {
      "inputs": [
        {
          "internalType": "uint256",
          "name": "tokenId",
          "type": "uint256"
        }
      ],
      "name": "ownerOf",
      "outputs": [
        {
          "internalType": "address",
          "name": "",
          "type": "address"
        }
      ],
      "stateMutability": "view",
      "type": "function"
    },
    {
      "inputs": [],
      "name": "renounceOwnership",
      "outputs": [],
      "stateMutability": "nonpayable",
      "type": "function"
    },
    {
      "inputs": [
        {
          "internalType": "address",
          "name": "from",
          "type": "address"
        },
        {
          "internalType": "address",
          "name": "to",
          "type": "address"
        },
        {
          "internalType": "uint256",
          "name": "tokenId",
          "type": "uint256"
        }
      ],
      "name": "safeTransferFrom",
      "outputs": [],
      "stateMutability": "nonpayable",
      "type": "function"
    },
    {
      "inputs": [
        {
          "internalType": "address",
          "name": "from",
          "type": "address"
        },
        {
          "internalType": "address",
          "name": "to",
          "type": "address"
        },
        {
          "internalType": "uint256",
          "name": "tokenId",
          "type": "uint256"
        },
        {
          "internalType": "bytes",
          "name": "_data",
          "type": "bytes"
        }
      ],
      "name": "safeTransferFrom",
      "outputs": [],
      "stateMutability": "nonpayable",
      "type": "function"
    },
    {
      "inputs": [
        {
          "internalType": "address",
          "name": "operator",
          "type": "address"
        },
        {
          "internalType": "bool",
          "name": "approved",
          "type": "bool"
        }
      ],
      "name": "setApprovalForAll",
      "outputs": [],
      "stateMutability": "nonpayable",
      "type": "function"
    },
    {
      "inputs": [
        {
          "internalType": "bytes4",
          "name": "interfaceId",
          "type": "bytes4"
        }
      ],
      "name": "supportsInterface",
      "outputs": [
        {
          "internalType": "bool",
          "name": "",
          "type": "bool"
        }
      ],
      "stateMutability": "view",
      "type": "function"
    },
    {
      "inputs": [],
      "name": "symbol",
      "outputs": [
        {
          "internalType": "string",
          "name": "",
          "type": "string"
        }
      ],
      "stateMutability": "view",
      "type": "function"
    },
    {
      "inputs": [
        {
          "internalType": "uint256",
          "name": "tokenId",
          "type": "uint256"
        }
      ],
      "name": "tokenURI",
      "outputs": [
        {
          "internalType": "string",
          "name": "",
          "type": "string"
        }
      ],
      "stateMutability": "view",
      "type": "function"
    },
    {
      "inputs": [
        {
          "internalType": "address",
          "name": "from",
          "type": "address"
        },
        {
          "internalType": "address",
          "name": "to",
          "type": "address"
        },
        {
          "internalType": "uint256",
          "name": "tokenId",
          "type": "uint256"
        }
      ],
      "name": "transferFrom",
      "outputs": [],
      "stateMutability": "nonpayable",
      "type": "function"
    },
    {
      "inputs": [
        {
          "internalType": "address",
          "name": "newOwner",
          "type": "address"
        }
      ],
      "name": "transferOwnership",
      "outputs": [],
      "stateMutability": "nonpayable",
      "type": "function"
    },
    {
      "inputs": [],
      "name": "initialize",
      "outputs": [],
      "stateMutability": "nonpayable",
      "type": "function"
    },
    {
      "inputs": [
        {
          "internalType": "string",
          "name": "baseURI",
          "type": "string"
        }
      ],
      "name": "setBaseURI",
      "outputs": [],
      "stateMutability": "nonpayable",
      "type": "function"
    }
  ],
  "bytecode": "0x608060405234801561001057600080fd5b50613b50806100206000396000f3fe608060405234801561001057600080fd5b50600436106101165760003560e01c8063715018a6116100a2578063a22cb46511610071578063a22cb465146102b9578063b88d4fde146102d5578063c87b56dd146102f1578063e985e9c514610321578063f2fde38b1461035157610116565b8063715018a6146102695780638129fc1c146102735780638da5cb5b1461027d57806395d89b411461029b57610116565b806323b872dd116100e957806323b872dd146101b557806342842e0e146101d157806355f804b3146101ed5780636352211e1461020957806370a082311461023957610116565b806301ffc9a71461011b57806306fdde031461014b578063081812fc14610169578063095ea7b314610199575b600080fd5b610135600480360381019061013091906126fe565b61036d565b6040516101429190612746565b60405180910390f35b61015361044f565b60405161016091906127fa565b60405180910390f35b610183600480360381019061017e9190612852565b6104e1565b60405161019091906128c0565b60405180910390f35b6101b360048036038101906101ae9190612907565b610566565b005b6101cf60048036038101906101ca9190612947565b61067e565b005b6101eb60048036038101906101e69190612947565b6106de565b005b61020760048036038101906102029190612acf565b6106fe565b005b610223600480360381019061021e9190612852565b610794565b60405161023091906128c0565b60405180910390f35b610253600480360381019061024e9190612b18565b610846565b6040516102609190612b54565b60405180910390f35b6102716108fe565b005b61027b610986565b005b610285611147565b60405161029291906128c0565b60405180910390f35b6102a3611171565b6040516102b091906127fa565b60405180910390f35b6102d360048036038101906102ce9190612b9b565b611203565b005b6102ef60048036038101906102ea9190612c7c565b611219565b005b61030b60048036038101906103069190612852565b61127b565b60405161031891906127fa565b60405180910390f35b61033b60048036038101906103369190612cff565b611322565b6040516103489190612746565b60405180910390f35b61036b60048036038101906103669190612b18565b6113b6565b005b60007f80ac58cd000000000000000000000000000000000000000000000000000000007bffffffffffffffffffffffffffffffffffffffffffffffffffffffff1916827bffffffffffffffffffffffffffffffffffffffffffffffffffffffff1916148061043857507f5b5e139f000000000000000000000000000000000000000000000000000000007bffffffffffffffffffffffffffffffffffffffffffffffffffffffff1916827bffffffffffffffffffffffffffffffffffffffffffffffffffffffff1916145b806104485750610447826114ae565b5b9050919050565b60606065805461045e90612d6e565b80601f016020809104026020016040519081016040528092919081815260200182805461048a90612d6e565b80156104d75780601f106104ac576101008083540402835291602001916104d7565b820191906000526020600020905b8154815290600101906020018083116104ba57829003601f168201915b5050505050905090565b60006104ec82611518565b61052b576040517f08c379a000000000000000000000000000000000000000000000000000000000815260040161052290612e12565b60405180910390fd5b6069600083815260200190815260200160002060009054906101000a900473ffffffffffffffffffffffffffffffffffffffff169050919050565b600061057182610794565b90508073ffffffffffffffffffffffffffffffffffffffff168373ffffffffffffffffffffffffffffffffffffffff1614156105e2576040517f08c379a00000000000000000000000000000000000000000000000000000000081526004016105d990612ea4565b60405180910390fd5b8073ffffffffffffffffffffffffffffffffffffffff16610601611584565b73ffffffffffffffffffffffffffffffffffffffff161480610630575061062f8161062a611584565b611322565b5b61066f576040517f08c379a000000000000000000000000000000000000000000000000000000000815260040161066690612f36565b60405180910390fd5b610679838361158c565b505050565b61068f610689611584565b82611645565b6106ce576040517f08c379a00000000000000000000000000000000000000000000000000000000081526004016106c590612fc8565b60405180910390fd5b6106d9838383611723565b505050565b6106f983838360405180602001604052806000815250611219565b505050565b610706611584565b73ffffffffffffffffffffffffffffffffffffffff16610724611147565b73ffffffffffffffffffffffffffffffffffffffff161461077a576040517f08c379a000000000000000000000000000000000000000000000000000000000815260040161077190613034565b60405180910390fd5b8060cb90805190602001906107909291906125ef565b5050565b6000806067600084815260200190815260200160002060009054906101000a900473ffffffffffffffffffffffffffffffffffffffff169050600073ffffffffffffffffffffffffffffffffffffffff168173ffffffffffffffffffffffffffffffffffffffff16141561083d576040517f08c379a0000000000000000000000000000000000000000000000000000000008152600401610834906130c6565b60405180910390fd5b80915050919050565b60008073ffffffffffffffffffffffffffffffffffffffff168273ffffffffffffffffffffffffffffffffffffffff1614156108b7576040517f08c379a00000000000000000000000000000000000000000000000000000000081526004016108ae90613158565b60405180910390fd5b606860008373ffffffffffffffffffffffffffffffffffffffff1673ffffffffffffffffffffffffffffffffffffffff168152602001908152602001600020549050919050565b610906611584565b73ffffffffffffffffffffffffffffffffffffffff16610924611147565b73ffffffffffffffffffffffffffffffffffffffff161461097a576040517f08c379a000000000000000000000000000000000000000000000000000000000815260040161097190613034565b60405180910390fd5b610984600061197f565b565b600060019054906101000a900460ff166109ae5760008054906101000a900460ff16156109b7565b6109b6611a45565b5b6109f6576040517f08c379a00000000000000000000000000000000000000000000000000000000081526004016109ed906131ea565b60405180910390fd5b60008060019054906101000a900460ff161590508015610a46576001600060016101000a81548160ff02191690831515021790555060016000806101000a81548160ff0219169083151502179055505b610aba6040518060400160405280600c81526020017f4d696e744964656e7469747900000000000000000000000000000000000000008152506040518060400160405280600581526020017f4944454e54000000000000000000000000000000000000000000000000000000815250611a56565b610adb604051806060016040528060258152602001613af6602591396106fe565b610c936040518060400160405280600681526020017f52616d6f6e6100000000000000000000000000000000000000000000000000008152506040518060400160405280600d81526020017f4e69656465726861757365726e000000000000000000000000000000000000008152506040518060400160405280600b81526020017f416b6120417765736f6d650000000000000000000000000000000000000000008152506040518060400160405280600781526020017f417765736f6d65000000000000000000000000000000000000000000000000008152506040518060400160405280600f81526020017f416c6c205468696e6773205761766500000000000000000000000000000000008152506040518060400160405280600381526020017f43454f00000000000000000000000000000000000000000000000000000000008152506040518060400160405280600281526020017f706d0000000000000000000000000000000000000000000000000000000000008152506040518060400160405280600881526020017f456e67696e656572000000000000000000000000000000000000000000000000815250611ac3565b610e4b6040518060400160405280600681526020017f416e6472657700000000000000000000000000000000000000000000000000008152506040518060400160405280600d81526020017f4e69656465726861757365726e000000000000000000000000000000000000008152506040518060400160405280600981526020017f416b6120537570657200000000000000000000000000000000000000000000008152506040518060400160405280600581526020017f53757065720000000000000000000000000000000000000000000000000000008152506040518060400160405280600f81526020017f416c6c205468696e6773205761766500000000000000000000000000000000008152506040518060400160405280600381526020017f43544f00000000000000000000000000000000000000000000000000000000008152506040518060400160405280600281526020017f706d0000000000000000000000000000000000000000000000000000000000008152506040518060400160405280600881526020017f536f667477617265000000000000000000000000000000000000000000000000815250611ac3565b610fb76040518060400160405280600781526020017f4e617574696361000000000000000000000000000000000000000000000000008152506040518060400160405280600d81526020017f4e69656465726861757365726e000000000000000000000000000000000000008152506040518060400160405280600b81526020017f416b61204e6f7468696e670000000000000000000000000000000000000000008152506040518060400160405280600681526020017f6c6974746c6500000000000000000000000000000000000000000000000000008152506040518060400160405280600a81526020017f4769726c20506f7765720000000000000000000000000000000000000000000081525060405180602001604052806000815250604051806020016040528060008152506040518060400160405280600881526020017f456e67696e656572000000000000000000000000000000000000000000000000815250611ac3565b6111236040518060400160405280600781526020017f4e617574696361000000000000000000000000000000000000000000000000008152506040518060400160405280600d81526020017f4e69656465726861757365726e000000000000000000000000000000000000008152506040518060400160405280600b81526020017f416b61204e6f7468696e670000000000000000000000000000000000000000008152506040518060400160405280600681526020017f6c6974746c6500000000000000000000000000000000000000000000000000008152506040518060400160405280600a81526020017f4769726c20506f7765720000000000000000000000000000000000000000000081525060405180602001604052806000815250604051806020016040528060008152506040518060400160405280600881526020017f456e67696e656572000000000000000000000000000000000000000000000000815250611ac3565b80156111445760008060016101000a81548160ff0219169083151502179055505b50565b6000609760009054906101000a900473ffffffffffffffffffffffffffffffffffffffff16905090565b60606066805461118090612d6e565b80601f01602080910402602001604051908101604052809291908181526020018280546111ac90612d6e565b80156111f95780601f106111ce576101008083540402835291602001916111f9565b820191906000526020600020905b8154815290600101906020018083116111dc57829003601f168201915b5050505050905090565b61121561120e611584565b8383611cbe565b5050565b61122a611224611584565b83611645565b611269576040517f08c379a000000000000000000000000000000000000000000000000000000000815260040161126090612fc8565b60405180910390fd5b61127584848484611e2b565b50505050565b606061128682611518565b6112c5576040517f08c379a00000000000000000000000000000000000000000000000000000000081526004016112bc9061327c565b60405180910390fd5b60006112cf611e87565b905060008151116112ef576040518060200160405280600081525061131a565b806112f984611f19565b60405160200161130a9291906132d8565b6040516020818303038152906040525b915050919050565b6000606a60008473ffffffffffffffffffffffffffffffffffffffff1673ffffffffffffffffffffffffffffffffffffffff16815260200190815260200160002060008373ffffffffffffffffffffffffffffffffffffffff1673ffffffffffffffffffffffffffffffffffffffff16815260200190815260200160002060009054906101000a900460ff16905092915050565b6113be611584565b73ffffffffffffffffffffffffffffffffffffffff166113dc611147565b73ffffffffffffffffffffffffffffffffffffffff1614611432576040517f08c379a000000000000000000000000000000000000000000000000000000000815260040161142990613034565b60405180910390fd5b600073ffffffffffffffffffffffffffffffffffffffff168173ffffffffffffffffffffffffffffffffffffffff1614156114a2576040517f08c379a00000000000000000000000000000000000000000000000000000000081526004016114999061336e565b60405180910390fd5b6114ab8161197f565b50565b60007f01ffc9a7000000000000000000000000000000000000000000000000000000007bffffffffffffffffffffffffffffffffffffffffffffffffffffffff1916827bffffffffffffffffffffffffffffffffffffffffffffffffffffffff1916149050919050565b60008073ffffffffffffffffffffffffffffffffffffffff166067600084815260200190815260200160002060009054906101000a900473ffffffffffffffffffffffffffffffffffffffff1673ffffffffffffffffffffffffffffffffffffffff1614159050919050565b600033905090565b816069600083815260200190815260200160002060006101000a81548173ffffffffffffffffffffffffffffffffffffffff021916908373ffffffffffffffffffffffffffffffffffffffff160217905550808273ffffffffffffffffffffffffffffffffffffffff166115ff83610794565b73ffffffffffffffffffffffffffffffffffffffff167f8c5be1e5ebec7d5bd14f71427d1e84f3dd0314c0f7b2291e5b200ac8c7c3b92560405160405180910390a45050565b600061165082611518565b61168f576040517f08c379a000000000000000000000000000000000000000000000000000000000815260040161168690613400565b60405180910390fd5b600061169a83610794565b90508073ffffffffffffffffffffffffffffffffffffffff168473ffffffffffffffffffffffffffffffffffffffff16148061170957508373ffffffffffffffffffffffffffffffffffffffff166116f1846104e1565b73ffffffffffffffffffffffffffffffffffffffff16145b8061171a57506117198185611322565b5b91505092915050565b8273ffffffffffffffffffffffffffffffffffffffff1661174382610794565b73ffffffffffffffffffffffffffffffffffffffff1614611799576040517f08c379a000000000000000000000000000000000000000000000000000000000815260040161179090613492565b60405180910390fd5b600073ffffffffffffffffffffffffffffffffffffffff168273ffffffffffffffffffffffffffffffffffffffff161415611809576040517f08c379a000000000000000000000000000000000000000000000000000000000815260040161180090613524565b60405180910390fd5b61181483838361207a565b61181f60008261158c565b6001606860008573ffffffffffffffffffffffffffffffffffffffff1673ffffffffffffffffffffffffffffffffffffffff168152602001908152602001600020600082825461186f9190613573565b925050819055506001606860008473ffffffffffffffffffffffffffffffffffffffff1673ffffffffffffffffffffffffffffffffffffffff16815260200190815260200160002060008282546118c691906135a7565b92505081905550816067600083815260200190815260200160002060006101000a81548173ffffffffffffffffffffffffffffffffffffffff021916908373ffffffffffffffffffffffffffffffffffffffff160217905550808273ffffffffffffffffffffffffffffffffffffffff168473ffffffffffffffffffffffffffffffffffffffff167fddf252ad1be2c89b69c2b068fc378daa952ba7f163c4a11628f55a4df523b3ef60405160405180910390a4505050565b6000609760009054906101000a900473ffffffffffffffffffffffffffffffffffffffff16905081609760006101000a81548173ffffffffffffffffffffffffffffffffffffffff021916908373ffffffffffffffffffffffffffffffffffffffff1602179055508173ffffffffffffffffffffffffffffffffffffffff168173ffffffffffffffffffffffffffffffffffffffff167f8be0079c531659141344cd1fd0a4f28419497f9722a3daafe3b4186f6b6457e060405160405180910390a35050565b6000611a503061207f565b15905090565b600060019054906101000a900460ff16611aa5576040517f08c379a0000000000000000000000000000000000000000000000000000000008152600401611a9c9061366f565b60405180910390fd5b611aad612092565b611ab56120e3565b611abf8282612134565b5050565b6000611acf60c96121b5565b90506000611ae38a8a8a8a8a8a8a8a6121c3565b9050604051806101c001604052808281526020018b81526020018a815260200189815260200188815260200187815260200186815260200185815260200184815260200142815260200142815260200160001515815260200160008152602001600081525060ca6000848152602001908152602001600020600082015181600001556020820151816001019080519060200190611b819291906125ef565b506040820151816002019080519060200190611b9e9291906125ef565b506060820151816003019080519060200190611bbb9291906125ef565b506080820151816004019080519060200190611bd89291906125ef565b5060a0820151816005019080519060200190611bf59291906125ef565b5060c0820151816006019080519060200190611c129291906125ef565b5060e0820151816007019080519060200190611c2f9291906125ef565b50610100820151816008019080519060200190611c4d9291906125ef565b50610120820151816009015561014082015181600a015561016082015181600b0160006101000a81548160ff02191690831515021790555061018082015181600c01556101a082015181600d0155905050611ca8338361220a565b611cb260c9612228565b50505050505050505050565b8173ffffffffffffffffffffffffffffffffffffffff168373ffffffffffffffffffffffffffffffffffffffff161415611d2d576040517f08c379a0000000000000000000000000000000000000000000000000000000008152600401611d24906136db565b60405180910390fd5b80606a60008573ffffffffffffffffffffffffffffffffffffffff1673ffffffffffffffffffffffffffffffffffffffff16815260200190815260200160002060008473ffffffffffffffffffffffffffffffffffffffff1673ffffffffffffffffffffffffffffffffffffffff16815260200190815260200160002060006101000a81548160ff0219169083151502179055508173ffffffffffffffffffffffffffffffffffffffff168373ffffffffffffffffffffffffffffffffffffffff167f17307eab39ab6107e8899845ad3d59bd9653f200f220920489ca2b5937696c3183604051611e1e9190612746565b60405180910390a3505050565b611e36848484611723565b611e428484848461223e565b611e81576040517f08c379a0000000000000000000000000000000000000000000000000000000008152600401611e789061376d565b60405180910390fd5b50505050565b606060cb8054611e9690612d6e565b80601f0160208091040260200160405190810160405280929190818152602001828054611ec290612d6e565b8015611f0f5780601f10611ee457610100808354040283529160200191611f0f565b820191906000526020600020905b815481529060010190602001808311611ef257829003601f168201915b5050505050905090565b60606000821415611f61576040518060400160405280600181526020017f30000000000000000000000000000000000000000000000000000000000000008152509050612075565b600082905060005b60008214611f93578080611f7c9061378d565b915050600a82611f8c9190613805565b9150611f69565b60008167ffffffffffffffff811115611faf57611fae6129a4565b5b6040519080825280601f01601f191660200182016040528015611fe15781602001600182028036833780820191505090505b5090505b6000851461206e57600182611ffa9190613573565b9150600a856120099190613836565b603061201591906135a7565b60f81b81838151811061202b5761202a613867565b5b60200101907effffffffffffffffffffffffffffffffffffffffffffffffffffffffffffff1916908160001a905350600a856120679190613805565b9450611fe5565b8093505050505b919050565b505050565b600080823b905060008111915050919050565b600060019054906101000a900460ff166120e1576040517f08c379a00000000000000000000000000000000000000000000000000000000081526004016120d89061366f565b60405180910390fd5b565b600060019054906101000a900460ff16612132576040517f08c379a00000000000000000000000000000000000000000000000000000000081526004016121299061366f565b60405180910390fd5b565b600060019054906101000a900460ff16612183576040517f08c379a000000000000000000000000000000000000000000000000000000000815260040161217a9061366f565b60405180910390fd5b81606590805190602001906121999291906125ef565b5080606690805190602001906121b09291906125ef565b505050565b600081600001549050919050565b60008888888888888888426040516020016121e6999897969594939291906138b7565b60405160208183030381529060405280519060200120905098975050505050505050565b6122248282604051806020016040528060008152506123c6565b5050565b6001816000016000828254019250508190555050565b600061225f8473ffffffffffffffffffffffffffffffffffffffff1661207f565b156123b9578373ffffffffffffffffffffffffffffffffffffffff1663150b7a02612288611584565b8786866040518563ffffffff1660e01b81526004016122aa949392919061398f565b6020604051808303816000875af19250505080156122e657506040513d601f19601f820116820180604052508101906122e391906139f0565b60015b612369573d8060008114612316576040519150601f19603f3d011682016040523d82523d6000602084013e61231b565b606091505b50600081511415612361576040517f08c379a00000000000000000000000000000000000000000000000000000000081526004016123589061376d565b60405180910390fd5b805181602001fd5b63150b7a0260e01b7bffffffffffffffffffffffffffffffffffffffffffffffffffffffff1916817bffffffffffffffffffffffffffffffffffffffffffffffffffffffff1916149150506123be565b600190505b949350505050565b6123d08383612421565b6123dd600084848461223e565b61241c576040517f08c379a00000000000000000000000000000000000000000000000000000000081526004016124139061376d565b60405180910390fd5b505050565b600073ffffffffffffffffffffffffffffffffffffffff168273ffffffffffffffffffffffffffffffffffffffff161415612491576040517f08c379a000000000000000000000000000000000000000000000000000000000815260040161248890613a69565b60405180910390fd5b61249a81611518565b156124da576040517f08c379a00000000000000000000000000000000000000000000000000000000081526004016124d190613ad5565b60405180910390fd5b6124e66000838361207a565b6001606860008473ffffffffffffffffffffffffffffffffffffffff1673ffffffffffffffffffffffffffffffffffffffff168152602001908152602001600020600082825461253691906135a7565b92505081905550816067600083815260200190815260200160002060006101000a81548173ffffffffffffffffffffffffffffffffffffffff021916908373ffffffffffffffffffffffffffffffffffffffff160217905550808273ffffffffffffffffffffffffffffffffffffffff16600073ffffffffffffffffffffffffffffffffffffffff167fddf252ad1be2c89b69c2b068fc378daa952ba7f163c4a11628f55a4df523b3ef60405160405180910390a45050565b8280546125fb90612d6e565b90600052602060002090601f01602090048101928261261d5760008555612664565b82601f1061263657805160ff1916838001178555612664565b82800160010185558215612664579182015b82811115612663578251825591602001919060010190612648565b5b5090506126719190612675565b5090565b5b8082111561268e576000816000905550600101612676565b5090565b6000604051905090565b600080fd5b600080fd5b60007fffffffff0000000000000000000000000000000000000000000000000000000082169050919050565b6126db816126a6565b81146126e657600080fd5b50565b6000813590506126f8816126d2565b92915050565b6000602082840312156127145761271361269c565b5b6000612722848285016126e9565b91505092915050565b60008115159050919050565b6127408161272b565b82525050565b600060208201905061275b6000830184612737565b92915050565b600081519050919050565b600082825260208201905092915050565b60005b8381101561279b578082015181840152602081019050612780565b838111156127aa576000848401525b50505050565b6000601f19601f8301169050919050565b60006127cc82612761565b6127d6818561276c565b93506127e681856020860161277d565b6127ef816127b0565b840191505092915050565b6000602082019050818103600083015261281481846127c1565b905092915050565b6000819050919050565b61282f8161281c565b811461283a57600080fd5b50565b60008135905061284c81612826565b92915050565b6000602082840312156128685761286761269c565b5b60006128768482850161283d565b91505092915050565b600073ffffffffffffffffffffffffffffffffffffffff82169050919050565b60006128aa8261287f565b9050919050565b6128ba8161289f565b82525050565b60006020820190506128d560008301846128b1565b92915050565b6128e48161289f565b81146128ef57600080fd5b50565b600081359050612901816128db565b92915050565b6000806040838503121561291e5761291d61269c565b5b600061292c858286016128f2565b925050602061293d8582860161283d565b9150509250929050565b6000806000606084860312156129605761295f61269c565b5b600061296e868287016128f2565b935050602061297f868287016128f2565b92505060406129908682870161283d565b9150509250925092565b600080fd5b600080fd5b7f4e487b7100000000000000000000000000000000000000000000000000000000600052604160045260246000fd5b6129dc826127b0565b810181811067ffffffffffffffff821117156129fb576129fa6129a4565b5b80604052505050565b6000612a0e612692565b9050612a1a82826129d3565b919050565b600067ffffffffffffffff821115612a3a57612a396129a4565b5b612a43826127b0565b9050602081019050919050565b82818337600083830152505050565b6000612a72612a6d84612a1f565b612a04565b905082815260208101848484011115612a8e57612a8d61299f565b5b612a99848285612a50565b509392505050565b600082601f830112612ab657612ab561299a565b5b8135612ac6848260208601612a5f565b91505092915050565b600060208284031215612ae557612ae461269c565b5b600082013567ffffffffffffffff811115612b0357612b026126a1565b5b612b0f84828501612aa1565b91505092915050565b600060208284031215612b2e57612b2d61269c565b5b6000612b3c848285016128f2565b91505092915050565b612b4e8161281c565b82525050565b6000602082019050612b696000830184612b45565b92915050565b612b788161272b565b8114612b8357600080fd5b50565b600081359050612b9581612b6f565b92915050565b60008060408385031215612bb257612bb161269c565b5b6000612bc0858286016128f2565b9250506020612bd185828601612b86565b9150509250929050565b600067ffffffffffffffff821115612bf657612bf56129a4565b5b612bff826127b0565b9050602081019050919050565b6000612c1f612c1a84612bdb565b612a04565b905082815260208101848484011115612c3b57612c3a61299f565b5b612c46848285612a50565b509392505050565b600082601f830112612c6357612c6261299a565b5b8135612c73848260208601612c0c565b91505092915050565b60008060008060808587031215612c9657612c9561269c565b5b6000612ca4878288016128f2565b9450506020612cb5878288016128f2565b9350506040612cc68782880161283d565b925050606085013567ffffffffffffffff811115612ce757612ce66126a1565b5b612cf387828801612c4e565b91505092959194509250565b60008060408385031215612d1657612d1561269c565b5b6000612d24858286016128f2565b9250506020612d35858286016128f2565b9150509250929050565b7f4e487b7100000000000000000000000000000000000000000000000000000000600052602260045260246000fd5b60006002820490506001821680612d8657607f821691505b60208210811415612d9a57612d99612d3f565b5b50919050565b7f4552433732313a20617070726f76656420717565727920666f72206e6f6e657860008201527f697374656e7420746f6b656e0000000000000000000000000000000000000000602082015250565b6000612dfc602c8361276c565b9150612e0782612da0565b604082019050919050565b60006020820190508181036000830152612e2b81612def565b9050919050565b7f4552433732313a20617070726f76616c20746f2063757272656e74206f776e6560008201527f7200000000000000000000000000000000000000000000000000000000000000602082015250565b6000612e8e60218361276c565b9150612e9982612e32565b604082019050919050565b60006020820190508181036000830152612ebd81612e81565b9050919050565b7f4552433732313a20617070726f76652063616c6c6572206973206e6f74206f7760008201527f6e6572206e6f7220617070726f76656420666f7220616c6c0000000000000000602082015250565b6000612f2060388361276c565b9150612f2b82612ec4565b604082019050919050565b60006020820190508181036000830152612f4f81612f13565b9050919050565b7f4552433732313a207472616e736665722063616c6c6572206973206e6f74206f60008201527f776e6572206e6f7220617070726f766564000000000000000000000000000000602082015250565b6000612fb260318361276c565b9150612fbd82612f56565b604082019050919050565b60006020820190508181036000830152612fe181612fa5565b9050919050565b7f4f776e61626c653a2063616c6c6572206973206e6f7420746865206f776e6572600082015250565b600061301e60208361276c565b915061302982612fe8565b602082019050919050565b6000602082019050818103600083015261304d81613011565b9050919050565b7f4552433732313a206f776e657220717565727920666f72206e6f6e657869737460008201527f656e7420746f6b656e0000000000000000000000000000000000000000000000602082015250565b60006130b060298361276c565b91506130bb82613054565b604082019050919050565b600060208201905081810360008301526130df816130a3565b9050919050565b7f4552433732313a2062616c616e636520717565727920666f7220746865207a6560008201527f726f206164647265737300000000000000000000000000000000000000000000602082015250565b6000613142602a8361276c565b915061314d826130e6565b604082019050919050565b6000602082019050818103600083015261317181613135565b9050919050565b7f496e697469616c697a61626c653a20636f6e747261637420697320616c72656160008201527f647920696e697469616c697a6564000000000000000000000000000000000000602082015250565b60006131d4602e8361276c565b91506131df82613178565b604082019050919050565b60006020820190508181036000830152613203816131c7565b9050919050565b7f4552433732314d657461646174613a2055524920717565727920666f72206e6f60008201527f6e6578697374656e7420746f6b656e0000000000000000000000000000000000602082015250565b6000613266602f8361276c565b91506132718261320a565b604082019050919050565b6000602082019050818103600083015261329581613259565b9050919050565b600081905092915050565b60006132b282612761565b6132bc818561329c565b93506132cc81856020860161277d565b80840191505092915050565b60006132e482856132a7565b91506132f082846132a7565b91508190509392505050565b7f4f776e61626c653a206e6577206f776e657220697320746865207a65726f206160008201527f6464726573730000000000000000000000000000000000000000000000000000602082015250565b600061335860268361276c565b9150613363826132fc565b604082019050919050565b600060208201905081810360008301526133878161334b565b9050919050565b7f4552433732313a206f70657261746f7220717565727920666f72206e6f6e657860008201527f697374656e7420746f6b656e0000000000000000000000000000000000000000602082015250565b60006133ea602c8361276c565b91506133f58261338e565b604082019050919050565b60006020820190508181036000830152613419816133dd565b9050919050565b7f4552433732313a207472616e73666572206f6620746f6b656e2074686174206960008201527f73206e6f74206f776e0000000000000000000000000000000000000000000000602082015250565b600061347c60298361276c565b915061348782613420565b604082019050919050565b600060208201905081810360008301526134ab8161346f565b9050919050565b7f4552433732313a207472616e7366657220746f20746865207a65726f2061646460008201527f7265737300000000000000000000000000000000000000000000000000000000602082015250565b600061350e60248361276c565b9150613519826134b2565b604082019050919050565b6000602082019050818103600083015261353d81613501565b9050919050565b7f4e487b7100000000000000000000000000000000000000000000000000000000600052601160045260246000fd5b600061357e8261281c565b91506135898361281c565b92508282101561359c5761359b613544565b5b828203905092915050565b60006135b28261281c565b91506135bd8361281c565b9250827fffffffffffffffffffffffffffffffffffffffffffffffffffffffffffffffff038211156135f2576135f1613544565b5b828201905092915050565b7f496e697469616c697a61626c653a20636f6e7472616374206973206e6f74206960008201527f6e697469616c697a696e67000000000000000000000000000000000000000000602082015250565b6000613659602b8361276c565b9150613664826135fd565b604082019050919050565b600060208201905081810360008301526136888161364c565b9050919050565b7f4552433732313a20617070726f766520746f2063616c6c657200000000000000600082015250565b60006136c560198361276c565b91506136d08261368f565b602082019050919050565b600060208201905081810360008301526136f4816136b8565b9050919050565b7f4552433732313a207472616e7366657220746f206e6f6e20455243373231526560008201527f63656976657220696d706c656d656e7465720000000000000000000000000000602082015250565b600061375760328361276c565b9150613762826136fb565b604082019050919050565b600060208201905081810360008301526137868161374a565b9050919050565b60006137988261281c565b91507fffffffffffffffffffffffffffffffffffffffffffffffffffffffffffffffff8214156137cb576137ca613544565b5b600182019050919050565b7f4e487b7100000000000000000000000000000000000000000000000000000000600052601260045260246000fd5b60006138108261281c565b915061381b8361281c565b92508261382b5761382a6137d6565b5b828204905092915050565b60006138418261281c565b915061384c8361281c565b92508261385c5761385b6137d6565b5b828206905092915050565b7f4e487b7100000000000000000000000000000000000000000000000000000000600052603260045260246000fd5b6000819050919050565b6138b16138ac8261281c565b613896565b82525050565b60006138c3828c6132a7565b91506138cf828b6132a7565b91506138db828a6132a7565b91506138e782896132a7565b91506138f382886132a7565b91506138ff82876132a7565b915061390b82866132a7565b915061391782856132a7565b915061392382846138a0565b6020820191508190509a9950505050505050505050565b600081519050919050565b600082825260208201905092915050565b60006139618261393a565b61396b8185613945565b935061397b81856020860161277d565b613984816127b0565b840191505092915050565b60006080820190506139a460008301876128b1565b6139b160208301866128b1565b6139be6040830185612b45565b81810360608301526139d08184613956565b905095945050505050565b6000815190506139ea816126d2565b92915050565b600060208284031215613a0657613a0561269c565b5b6000613a14848285016139db565b91505092915050565b7f4552433732313a206d696e7420746f20746865207a65726f2061646472657373600082015250565b6000613a5360208361276c565b9150613a5e82613a1d565b602082019050919050565b60006020820190508181036000830152613a8281613a46565b9050919050565b7f4552433732313a20746f6b656e20616c7265616479206d696e74656400000000600082015250565b6000613abf601c8361276c565b9150613aca82613a89565b602082019050919050565b60006020820190508181036000830152613aee81613ab2565b905091905056fe68747470733a2f2f70617065726d6173746572732e696f2f6d696e746964656e746974792fa2646970667358221220c78e67646de4ff5673cb9e2180297b7131b5c8b8b3617037ba70f911c46415ca64736f6c634300080a0033",
  "immutableReferences": {},
  "source": "// SPDX-License-Identifier: MIT\r\npragma solidity >=0.4.22 <0.9.0;\r\n\r\nimport \"@openzeppelin/contracts-upgradeable/access/OwnableUpgradeable.sol\";\r\nimport \"@openzeppelin/contracts-upgradeable/token/ERC721/ERC721Upgradeable.sol\";\r\nimport \"@openzeppelin/contracts-upgradeable/utils/CountersUpgradeable.sol\";\r\n\r\n\r\ncontract MintIdentity is ERC721Upgradeable , OwnableUpgradeable  {\r\n    using CountersUpgradeable for CountersUpgradeable.Counter;\r\n    CountersUpgradeable.Counter private _tokenIds;\r\n\r\n    struct Identity {\r\n        bytes32 identity;\r\n        string firstname;\r\n        string lastname;\r\n        string aka;\r\n        string organization;\r\n        string slogan;\r\n        string description;\r\n        string url;\r\n        string bio;\r\n        uint create;\r\n        uint lastupdated;\r\n        bool valid;\r\n        uint validdate;\r\n        uint validationscore;\r\n    }\r\n\r\n    mapping(uint256=> Identity) id_to_identity;\r\n\r\n    string private _currentBaseURI;\r\n\r\n\r\n\r\n\r\n    function initialize() public initializer {\r\n        __ERC721_init(\"MintIdentity\", \"IDENT\");\r\n        setBaseURI(\"https://papermasters.io/mintidentity/\");\r\n        //mint Ramona Andrew and kids\r\n        mintIdentity(\"Ramona\",\"Niederhausern\",\"Aka Awesome\",\"Awesome\", \"All Things Wave\", \"CEO\", \"pm\", \"Engineer\");\r\n        mintIdentity(\"Andrew\",\"Niederhausern\",\"Aka Super\",\"Super\", \"All Things Wave\", \"CTO\", \"pm\", \"Software\");\r\n        mintIdentity(\"Nautica\",\"Niederhausern\",\"Aka Nothing\",\"little\", \"Girl Power\", \"\", \"\", \"Engineer\");\r\n        mintIdentity(\"Nautica\",\"Niederhausern\",\"Aka Nothing\",\"little\", \"Girl Power\", \"\", \"\", \"Engineer\");\r\n    }\r\n\r\n\r\n\r\n    function setBaseURI(string memory baseURI) public onlyOwner() {\r\n        _currentBaseURI = baseURI;\r\n    }\r\n\r\n    function _baseURI() internal view virtual override returns (string memory) {\r\n        return _currentBaseURI;\r\n    }\r\n\r\n    function createIdentity(\r\n        string memory first,\r\n        string memory last,\r\n        string memory aka,\r\n        string memory org,\r\n        string memory slogan,\r\n        string memory description,\r\n        string memory url,\r\n        string memory bio) private view returns(bytes32) {\r\n        return keccak256(abi.encodePacked(first, last, aka, org, slogan, description, url, bio, block.timestamp));\r\n    }\r\n\r\n    function mintIdentity (\r\n        string memory first,\r\n        string memory last,\r\n        string memory aka,\r\n        string memory org,\r\n        string memory slogan,\r\n        string memory description,\r\n        string memory url,\r\n        string memory bio) internal {\r\n            uint256 tokenId =  _tokenIds.current();\r\n            bytes32 identity = createIdentity(first, last, aka, org, slogan, description, url, bio);\r\n            id_to_identity[tokenId] = Identity(identity,first, last, aka, org, slogan, description,\r\n                url, bio, block.timestamp, block.timestamp, false, 0, 0);\r\n            _safeMint(msg.sender,tokenId);\r\n            _tokenIds.increment();\r\n\r\n    }\r\n}\r\n",
  "sourcePath": "/home/user/MintIdentityTPM/truffle/contracts/MintIdentity.sol",
  "compiler": {
    "name": "solc",
    "version": "0.8.10+commit.fc410830.Emscripten.clang"
  },
  "schemaVersion": "3.4.4",
  "updatedAt": "2021-12-29T04:59:52.251Z",
  "devdoc": {
    "kind": "dev",
    "methods": {
      "approve(address,uint256)": {
        "details": "See {IERC721-approve}."
      },
      "balanceOf(address)": {
        "details": "See {IERC721-balanceOf}."
      },
      "getApproved(uint256)": {
        "details": "See {IERC721-getApproved}."
      },
      "isApprovedForAll(address,address)": {
        "details": "See {IERC721-isApprovedForAll}."
      },
      "name()": {
        "details": "See {IERC721Metadata-name}."
      },
      "owner()": {
        "details": "Returns the address of the current owner."
      },
      "ownerOf(uint256)": {
        "details": "See {IERC721-ownerOf}."
      },
      "renounceOwnership()": {
        "details": "Leaves the contract without owner. It will not be possible to call `onlyOwner` functions anymore. Can only be called by the current owner. NOTE: Renouncing ownership will leave the contract without an owner, thereby removing any functionality that is only available to the owner."
      },
      "safeTransferFrom(address,address,uint256)": {
        "details": "See {IERC721-safeTransferFrom}."
      },
      "safeTransferFrom(address,address,uint256,bytes)": {
        "details": "See {IERC721-safeTransferFrom}."
      },
      "setApprovalForAll(address,bool)": {
        "details": "See {IERC721-setApprovalForAll}."
      },
      "supportsInterface(bytes4)": {
        "details": "See {IERC165-supportsInterface}."
      },
      "symbol()": {
        "details": "See {IERC721Metadata-symbol}."
      },
      "tokenURI(uint256)": {
        "details": "See {IERC721Metadata-tokenURI}."
      },
      "transferFrom(address,address,uint256)": {
        "details": "See {IERC721-transferFrom}."
      },
      "transferOwnership(address)": {
        "details": "Transfers ownership of the contract to a new account (`newOwner`). Can only be called by the current owner."
      }
    },
    "version": 1
  },
  "userdoc": {
    "kind": "user",
    "methods": {},
    "version": 1
  }
}