{
  "contractName": "MintIdentity",
  "abi": [
    {
      "inputs": [],
      "stateMutability": "nonpayable",
      "type": "constructor"
    },
    {
      "anonymous": false,
      "inputs": [
        {
          "indexed": true,
          "internalType": "address",
          "name": "owner",
          "type": "address"
        },
        {
          "indexed": true,
          "internalType": "address",
          "name": "approved",
          "type": "address"
        },
        {
          "indexed": true,
          "internalType": "uint256",
          "name": "tokenId",
          "type": "uint256"
        }
      ],
      "name": "Approval",
      "type": "event"
    },
    {
      "anonymous": false,
      "inputs": [
        {
          "indexed": true,
          "internalType": "address",
          "name": "owner",
          "type": "address"
        },
        {
          "indexed": true,
          "internalType": "address",
          "name": "operator",
          "type": "address"
        },
        {
          "indexed": false,
          "internalType": "bool",
          "name": "approved",
          "type": "bool"
        }
      ],
      "name": "ApprovalForAll",
      "type": "event"
    },
    {
      "anonymous": false,
      "inputs": [
        {
          "indexed": true,
          "internalType": "address",
          "name": "previousOwner",
          "type": "address"
        },
        {
          "indexed": true,
          "internalType": "address",
          "name": "newOwner",
          "type": "address"
        }
      ],
      "name": "OwnershipTransferred",
      "type": "event"
    },
    {
      "anonymous": false,
      "inputs": [
        {
          "indexed": true,
          "internalType": "address",
          "name": "from",
          "type": "address"
        },
        {
          "indexed": true,
          "internalType": "address",
          "name": "to",
          "type": "address"
        },
        {
          "indexed": true,
          "internalType": "uint256",
          "name": "tokenId",
          "type": "uint256"
        }
      ],
      "name": "Transfer",
      "type": "event"
    },
    {
      "inputs": [
        {
          "internalType": "address",
          "name": "to",
          "type": "address"
        },
        {
          "internalType": "uint256",
          "name": "tokenId",
          "type": "uint256"
        }
      ],
      "name": "approve",
      "outputs": [],
      "stateMutability": "nonpayable",
      "type": "function"
    },
    {
      "inputs": [
        {
          "internalType": "address",
          "name": "owner",
          "type": "address"
        }
      ],
      "name": "balanceOf",
      "outputs": [
        {
          "internalType": "uint256",
          "name": "",
          "type": "uint256"
        }
      ],
      "stateMutability": "view",
      "type": "function",
      "constant": true
    },
    {
      "inputs": [
        {
          "internalType": "uint256",
          "name": "tokenId",
          "type": "uint256"
        }
      ],
      "name": "getApproved",
      "outputs": [
        {
          "internalType": "address",
          "name": "",
          "type": "address"
        }
      ],
      "stateMutability": "view",
      "type": "function",
      "constant": true
    },
    {
      "inputs": [
        {
          "internalType": "address",
          "name": "owner",
          "type": "address"
        },
        {
          "internalType": "address",
          "name": "operator",
          "type": "address"
        }
      ],
      "name": "isApprovedForAll",
      "outputs": [
        {
          "internalType": "bool",
          "name": "",
          "type": "bool"
        }
      ],
      "stateMutability": "view",
      "type": "function",
      "constant": true
    },
    {
      "inputs": [],
      "name": "name",
      "outputs": [
        {
          "internalType": "string",
          "name": "",
          "type": "string"
        }
      ],
      "stateMutability": "view",
      "type": "function",
      "constant": true
    },
    {
      "inputs": [],
      "name": "owner",
      "outputs": [
        {
          "internalType": "address",
          "name": "",
          "type": "address"
        }
      ],
      "stateMutability": "view",
      "type": "function",
      "constant": true
    },
    {
      "inputs": [
        {
          "internalType": "uint256",
          "name": "tokenId",
          "type": "uint256"
        }
      ],
      "name": "ownerOf",
      "outputs": [
        {
          "internalType": "address",
          "name": "",
          "type": "address"
        }
      ],
      "stateMutability": "view",
      "type": "function",
      "constant": true
    },
    {
      "inputs": [],
      "name": "renounceOwnership",
      "outputs": [],
      "stateMutability": "nonpayable",
      "type": "function"
    },
    {
      "inputs": [
        {
          "internalType": "address",
          "name": "from",
          "type": "address"
        },
        {
          "internalType": "address",
          "name": "to",
          "type": "address"
        },
        {
          "internalType": "uint256",
          "name": "tokenId",
          "type": "uint256"
        }
      ],
      "name": "safeTransferFrom",
      "outputs": [],
      "stateMutability": "nonpayable",
      "type": "function"
    },
    {
      "inputs": [
        {
          "internalType": "address",
          "name": "from",
          "type": "address"
        },
        {
          "internalType": "address",
          "name": "to",
          "type": "address"
        },
        {
          "internalType": "uint256",
          "name": "tokenId",
          "type": "uint256"
        },
        {
          "internalType": "bytes",
          "name": "_data",
          "type": "bytes"
        }
      ],
      "name": "safeTransferFrom",
      "outputs": [],
      "stateMutability": "nonpayable",
      "type": "function"
    },
    {
      "inputs": [
        {
          "internalType": "address",
          "name": "operator",
          "type": "address"
        },
        {
          "internalType": "bool",
          "name": "approved",
          "type": "bool"
        }
      ],
      "name": "setApprovalForAll",
      "outputs": [],
      "stateMutability": "nonpayable",
      "type": "function"
    },
    {
      "inputs": [
        {
          "internalType": "bytes4",
          "name": "interfaceId",
          "type": "bytes4"
        }
      ],
      "name": "supportsInterface",
      "outputs": [
        {
          "internalType": "bool",
          "name": "",
          "type": "bool"
        }
      ],
      "stateMutability": "view",
      "type": "function",
      "constant": true
    },
    {
      "inputs": [],
      "name": "symbol",
      "outputs": [
        {
          "internalType": "string",
          "name": "",
          "type": "string"
        }
      ],
      "stateMutability": "view",
      "type": "function",
      "constant": true
    },
    {
      "inputs": [
        {
          "internalType": "uint256",
          "name": "tokenId",
          "type": "uint256"
        }
      ],
      "name": "tokenURI",
      "outputs": [
        {
          "internalType": "string",
          "name": "",
          "type": "string"
        }
      ],
      "stateMutability": "view",
      "type": "function",
      "constant": true
    },
    {
      "inputs": [
        {
          "internalType": "address",
          "name": "from",
          "type": "address"
        },
        {
          "internalType": "address",
          "name": "to",
          "type": "address"
        },
        {
          "internalType": "uint256",
          "name": "tokenId",
          "type": "uint256"
        }
      ],
      "name": "transferFrom",
      "outputs": [],
      "stateMutability": "nonpayable",
      "type": "function"
    },
    {
      "inputs": [
        {
          "internalType": "address",
          "name": "newOwner",
          "type": "address"
        }
      ],
      "name": "transferOwnership",
      "outputs": [],
      "stateMutability": "nonpayable",
      "type": "function"
    },
    {
      "inputs": [
        {
          "internalType": "string",
          "name": "baseURI",
          "type": "string"
        }
      ],
      "name": "setBaseURI",
      "outputs": [],
      "stateMutability": "nonpayable",
      "type": "function"
    },
    {
      "inputs": [
        {
          "internalType": "uint256",
          "name": "tokenId",
          "type": "uint256"
        },
        {
          "internalType": "string",
          "name": "newFirstName",
          "type": "string"
        }
      ],
      "name": "changeFirstName",
      "outputs": [],
      "stateMutability": "nonpayable",
      "type": "function"
    }
  ],
  "bytecode": "0x60806040523480156200001157600080fd5b506040518060400160405280600c81526020017f4d696e744964656e7469747900000000000000000000000000000000000000008152506040518060400160405280600581526020017f4944454e5400000000000000000000000000000000000000000000000000000081525081600090805190602001906200009692919062001057565b508060019080519060200190620000af92919062001057565b505050620000d2620000c66200076a60201b60201c565b6200077260201b60201c565b620000fc604051806060016040528060258152602001620044d8602591396200083860201b60201c565b620002bc6040518060400160405280600681526020017f52616d6f6e6100000000000000000000000000000000000000000000000000008152506040518060400160405280600d81526020017f4e69656465726861757365726e000000000000000000000000000000000000008152506040518060400160405280600b81526020017f416b6120417765736f6d650000000000000000000000000000000000000000008152506040518060400160405280600781526020017f417765736f6d65000000000000000000000000000000000000000000000000008152506040518060400160405280600f81526020017f416c6c205468696e6773205761766500000000000000000000000000000000008152506040518060400160405280600381526020017f43454f00000000000000000000000000000000000000000000000000000000008152506040518060400160405280600281526020017f706d0000000000000000000000000000000000000000000000000000000000008152506040518060400160405280600881526020017f456e67696e656572000000000000000000000000000000000000000000000000815250620008e360201b60201c565b6200047c6040518060400160405280600681526020017f416e6472657700000000000000000000000000000000000000000000000000008152506040518060400160405280600d81526020017f4e69656465726861757365726e000000000000000000000000000000000000008152506040518060400160405280600981526020017f416b6120537570657200000000000000000000000000000000000000000000008152506040518060400160405280600581526020017f53757065720000000000000000000000000000000000000000000000000000008152506040518060400160405280600f81526020017f416c6c205468696e6773205761766500000000000000000000000000000000008152506040518060400160405280600381526020017f43544f00000000000000000000000000000000000000000000000000000000008152506040518060400160405280600281526020017f706d0000000000000000000000000000000000000000000000000000000000008152506040518060400160405280600881526020017f536f667477617265000000000000000000000000000000000000000000000000815250620008e360201b60201c565b620005f06040518060400160405280600781526020017f4e617574696361000000000000000000000000000000000000000000000000008152506040518060400160405280600d81526020017f4e69656465726861757365726e000000000000000000000000000000000000008152506040518060400160405280600b81526020017f416b61204e6f7468696e670000000000000000000000000000000000000000008152506040518060400160405280600681526020017f6c6974746c6500000000000000000000000000000000000000000000000000008152506040518060400160405280600a81526020017f4769726c20506f7765720000000000000000000000000000000000000000000081525060405180602001604052806000815250604051806020016040528060008152506040518060400160405280600881526020017f456e67696e656572000000000000000000000000000000000000000000000000815250620008e360201b60201c565b620007646040518060400160405280600781526020017f4e617574696361000000000000000000000000000000000000000000000000008152506040518060400160405280600d81526020017f4e69656465726861757365726e000000000000000000000000000000000000008152506040518060400160405280600b81526020017f416b61204e6f7468696e670000000000000000000000000000000000000000008152506040518060400160405280600681526020017f6c6974746c6500000000000000000000000000000000000000000000000000008152506040518060400160405280600a81526020017f4769726c20506f7765720000000000000000000000000000000000000000000081525060405180602001604052806000815250604051806020016040528060008152506040518060400160405280600881526020017f456e67696e656572000000000000000000000000000000000000000000000000815250620008e360201b60201c565b620016ea565b600033905090565b6000600660009054906101000a900473ffffffffffffffffffffffffffffffffffffffff16905081600660006101000a81548173ffffffffffffffffffffffffffffffffffffffff021916908373ffffffffffffffffffffffffffffffffffffffff1602179055508173ffffffffffffffffffffffffffffffffffffffff168173ffffffffffffffffffffffffffffffffffffffff167f8be0079c531659141344cd1fd0a4f28419497f9722a3daafe3b4186f6b6457e060405160405180910390a35050565b620008486200076a60201b60201c565b73ffffffffffffffffffffffffffffffffffffffff166200086e62000b1860201b60201c565b73ffffffffffffffffffffffffffffffffffffffff1614620008c7576040517f08c379a0000000000000000000000000000000000000000000000000000000008152600401620008be9062001168565b60405180910390fd5b8060099080519060200190620008df92919062001057565b5050565b6000620008fc600762000b4260201b62000df51760201c565b90506000620009188a8a8a8a8a8a8a8a62000b5060201b60201c565b9050604051806101c001604052808281526020018b81526020018a815260200189815260200188815260200187815260200186815260200185815260200184815260200142815260200142815260200160001515815260200160008152602001600081525060086000848152602001908152602001600020600082015181600001556020820151816001019080519060200190620009b892919062001057565b506040820151816002019080519060200190620009d792919062001057565b506060820151816003019080519060200190620009f692919062001057565b50608082015181600401908051906020019062000a1592919062001057565b5060a082015181600501908051906020019062000a3492919062001057565b5060c082015181600601908051906020019062000a5392919062001057565b5060e082015181600701908051906020019062000a7292919062001057565b5061010082015181600801908051906020019062000a9292919062001057565b50610120820151816009015561014082015181600a015561016082015181600b0160006101000a81548160ff02191690831515021790555061018082015181600c01556101a082015181600d015590505062000af5338362000b9960201b60201c565b62000b0c600762000bbf60201b62000e031760201c565b50505050505050505050565b6000600660009054906101000a900473ffffffffffffffffffffffffffffffffffffffff16905090565b600081600001549050919050565b600088888888888888884260405160200162000b75999897969594939291906200123c565b60405160208183030381529060405280519060200120905098975050505050505050565b62000bbb82826040518060200160405280600081525062000bd560201b60201c565b5050565b6001816000016000828254019250508190555050565b62000be7838362000c4360201b60201c565b62000bfc600084848462000e2960201b60201c565b62000c3e576040517f08c379a000000000000000000000000000000000000000000000000000000000815260040162000c359062001347565b60405180910390fd5b505050565b600073ffffffffffffffffffffffffffffffffffffffff168273ffffffffffffffffffffffffffffffffffffffff16141562000cb6576040517f08c379a000000000000000000000000000000000000000000000000000000000815260040162000cad90620013b9565b60405180910390fd5b62000cc78162000fd360201b60201c565b1562000d0a576040517f08c379a000000000000000000000000000000000000000000000000000000000815260040162000d01906200142b565b60405180910390fd5b62000d1e600083836200103f60201b60201c565b6001600360008473ffffffffffffffffffffffffffffffffffffffff1673ffffffffffffffffffffffffffffffffffffffff168152602001908152602001600020600082825462000d7091906200147c565b92505081905550816002600083815260200190815260200160002060006101000a81548173ffffffffffffffffffffffffffffffffffffffff021916908373ffffffffffffffffffffffffffffffffffffffff160217905550808273ffffffffffffffffffffffffffffffffffffffff16600073ffffffffffffffffffffffffffffffffffffffff167fddf252ad1be2c89b69c2b068fc378daa952ba7f163c4a11628f55a4df523b3ef60405160405180910390a45050565b600062000e578473ffffffffffffffffffffffffffffffffffffffff166200104460201b62000e191760201c565b1562000fc6578373ffffffffffffffffffffffffffffffffffffffff1663150b7a0262000e896200076a60201b60201c565b8786866040518563ffffffff1660e01b815260040162000ead94939291906200159d565b6020604051808303816000875af192505050801562000eec57506040513d601f19601f8201168201806040525081019062000ee9919062001653565b60015b62000f75573d806000811462000f1f576040519150601f19603f3d011682016040523d82523d6000602084013e62000f24565b606091505b5060008151141562000f6d576040517f08c379a000000000000000000000000000000000000000000000000000000000815260040162000f649062001347565b60405180910390fd5b805181602001fd5b63150b7a0260e01b7bffffffffffffffffffffffffffffffffffffffffffffffffffffffff1916817bffffffffffffffffffffffffffffffffffffffffffffffffffffffff19161491505062000fcb565b600190505b949350505050565b60008073ffffffffffffffffffffffffffffffffffffffff166002600084815260200190815260200160002060009054906101000a900473ffffffffffffffffffffffffffffffffffffffff1673ffffffffffffffffffffffffffffffffffffffff1614159050919050565b505050565b600080823b905060008111915050919050565b8280546200106590620016b4565b90600052602060002090601f016020900481019282620010895760008555620010d5565b82601f10620010a457805160ff1916838001178555620010d5565b82800160010185558215620010d5579182015b82811115620010d4578251825591602001919060010190620010b7565b5b509050620010e49190620010e8565b5090565b5b8082111562001103576000816000905550600101620010e9565b5090565b600082825260208201905092915050565b7f4f776e61626c653a2063616c6c6572206973206e6f7420746865206f776e6572600082015250565b60006200115060208362001107565b91506200115d8262001118565b602082019050919050565b60006020820190508181036000830152620011838162001141565b9050919050565b600081519050919050565b600081905092915050565b60005b83811015620011c0578082015181840152602081019050620011a3565b83811115620011d0576000848401525b50505050565b6000620011e3826200118a565b620011ef818562001195565b935062001201818560208601620011a0565b80840191505092915050565b6000819050919050565b6000819050919050565b6200123662001230826200120d565b62001217565b82525050565b60006200124a828c620011d6565b915062001258828b620011d6565b915062001266828a620011d6565b9150620012748289620011d6565b9150620012828288620011d6565b9150620012908287620011d6565b91506200129e8286620011d6565b9150620012ac8285620011d6565b9150620012ba828462001221565b6020820191508190509a9950505050505050505050565b7f4552433732313a207472616e7366657220746f206e6f6e20455243373231526560008201527f63656976657220696d706c656d656e7465720000000000000000000000000000602082015250565b60006200132f60328362001107565b91506200133c82620012d1565b604082019050919050565b60006020820190508181036000830152620013628162001320565b9050919050565b7f4552433732313a206d696e7420746f20746865207a65726f2061646472657373600082015250565b6000620013a160208362001107565b9150620013ae8262001369565b602082019050919050565b60006020820190508181036000830152620013d48162001392565b9050919050565b7f4552433732313a20746f6b656e20616c7265616479206d696e74656400000000600082015250565b600062001413601c8362001107565b91506200142082620013db565b602082019050919050565b60006020820190508181036000830152620014468162001404565b9050919050565b7f4e487b7100000000000000000000000000000000000000000000000000000000600052601160045260246000fd5b600062001489826200120d565b915062001496836200120d565b9250827fffffffffffffffffffffffffffffffffffffffffffffffffffffffffffffffff03821115620014ce57620014cd6200144d565b5b828201905092915050565b600073ffffffffffffffffffffffffffffffffffffffff82169050919050565b60006200150682620014d9565b9050919050565b6200151881620014f9565b82525050565b62001529816200120d565b82525050565b600081519050919050565b600082825260208201905092915050565b6000601f19601f8301169050919050565b600062001569826200152f565b6200157581856200153a565b935062001587818560208601620011a0565b62001592816200154b565b840191505092915050565b6000608082019050620015b460008301876200150d565b620015c360208301866200150d565b620015d260408301856200151e565b8181036060830152620015e681846200155c565b905095945050505050565b600080fd5b60007fffffffff0000000000000000000000000000000000000000000000000000000082169050919050565b6200162d81620015f6565b81146200163957600080fd5b50565b6000815190506200164d8162001622565b92915050565b6000602082840312156200166c576200166b620015f1565b5b60006200167c848285016200163c565b91505092915050565b7f4e487b7100000000000000000000000000000000000000000000000000000000600052602260045260246000fd5b60006002820490506001821680620016cd57607f821691505b60208210811415620016e457620016e362001685565b5b50919050565b612dde80620016fa6000396000f3fe608060405234801561001057600080fd5b50600436106101165760003560e01c8063715018a6116100a2578063a22cb46511610071578063a22cb465146102cb578063b88d4fde146102e7578063c87b56dd14610303578063e985e9c514610333578063f2fde38b1461036357610116565b8063715018a6146102695780638c74b1e8146102735780638da5cb5b1461028f57806395d89b41146102ad57610116565b806323b872dd116100e957806323b872dd146101b557806342842e0e146101d157806355f804b3146101ed5780636352211e1461020957806370a082311461023957610116565b806301ffc9a71461011b57806306fdde031461014b578063081812fc14610169578063095ea7b314610199575b600080fd5b61013560048036038101906101309190611af7565b61037f565b6040516101429190611b3f565b60405180910390f35b610153610461565b6040516101609190611bf3565b60405180910390f35b610183600480360381019061017e9190611c4b565b6104f3565b6040516101909190611cb9565b60405180910390f35b6101b360048036038101906101ae9190611d00565b610578565b005b6101cf60048036038101906101ca9190611d40565b610690565b005b6101eb60048036038101906101e69190611d40565b6106f0565b005b61020760048036038101906102029190611ec8565b610710565b005b610223600480360381019061021e9190611c4b565b6107a6565b6040516102309190611cb9565b60405180910390f35b610253600480360381019061024e9190611f11565b610858565b6040516102609190611f4d565b60405180910390f35b610271610910565b005b61028d60048036038101906102889190611f68565b610998565b005b610297610a8e565b6040516102a49190611cb9565b60405180910390f35b6102b5610ab8565b6040516102c29190611bf3565b60405180910390f35b6102e560048036038101906102e09190611ff0565b610b4a565b005b61030160048036038101906102fc91906120d1565b610b60565b005b61031d60048036038101906103189190611c4b565b610bc2565b60405161032a9190611bf3565b60405180910390f35b61034d60048036038101906103489190612154565b610c69565b60405161035a9190611b3f565b60405180910390f35b61037d60048036038101906103789190611f11565b610cfd565b005b60007f80ac58cd000000000000000000000000000000000000000000000000000000007bffffffffffffffffffffffffffffffffffffffffffffffffffffffff1916827bffffffffffffffffffffffffffffffffffffffffffffffffffffffff1916148061044a57507f5b5e139f000000000000000000000000000000000000000000000000000000007bffffffffffffffffffffffffffffffffffffffffffffffffffffffff1916827bffffffffffffffffffffffffffffffffffffffffffffffffffffffff1916145b8061045a575061045982610e2c565b5b9050919050565b606060008054610470906121c3565b80601f016020809104026020016040519081016040528092919081815260200182805461049c906121c3565b80156104e95780601f106104be576101008083540402835291602001916104e9565b820191906000526020600020905b8154815290600101906020018083116104cc57829003601f168201915b5050505050905090565b60006104fe82610e96565b61053d576040517f08c379a000000000000000000000000000000000000000000000000000000000815260040161053490612267565b60405180910390fd5b6004600083815260200190815260200160002060009054906101000a900473ffffffffffffffffffffffffffffffffffffffff169050919050565b6000610583826107a6565b90508073ffffffffffffffffffffffffffffffffffffffff168373ffffffffffffffffffffffffffffffffffffffff1614156105f4576040517f08c379a00000000000000000000000000000000000000000000000000000000081526004016105eb906122f9565b60405180910390fd5b8073ffffffffffffffffffffffffffffffffffffffff16610613610f02565b73ffffffffffffffffffffffffffffffffffffffff16148061064257506106418161063c610f02565b610c69565b5b610681576040517f08c379a00000000000000000000000000000000000000000000000000000000081526004016106789061238b565b60405180910390fd5b61068b8383610f0a565b505050565b6106a161069b610f02565b82610fc3565b6106e0576040517f08c379a00000000000000000000000000000000000000000000000000000000081526004016106d79061241d565b60405180910390fd5b6106eb8383836110a1565b505050565b61070b83838360405180602001604052806000815250610b60565b505050565b610718610f02565b73ffffffffffffffffffffffffffffffffffffffff16610736610a8e565b73ffffffffffffffffffffffffffffffffffffffff161461078c576040517f08c379a000000000000000000000000000000000000000000000000000000000815260040161078390612489565b60405180910390fd5b80600990805190602001906107a29291906119e8565b5050565b6000806002600084815260200190815260200160002060009054906101000a900473ffffffffffffffffffffffffffffffffffffffff169050600073ffffffffffffffffffffffffffffffffffffffff168173ffffffffffffffffffffffffffffffffffffffff16141561084f576040517f08c379a00000000000000000000000000000000000000000000000000000000081526004016108469061251b565b60405180910390fd5b80915050919050565b60008073ffffffffffffffffffffffffffffffffffffffff168273ffffffffffffffffffffffffffffffffffffffff1614156108c9576040517f08c379a00000000000000000000000000000000000000000000000000000000081526004016108c0906125ad565b60405180910390fd5b600360008373ffffffffffffffffffffffffffffffffffffffff1673ffffffffffffffffffffffffffffffffffffffff168152602001908152602001600020549050919050565b610918610f02565b73ffffffffffffffffffffffffffffffffffffffff16610936610a8e565b73ffffffffffffffffffffffffffffffffffffffff161461098c576040517f08c379a000000000000000000000000000000000000000000000000000000000815260040161098390612489565b60405180910390fd5b61099660006112fd565b565b6109a182610e96565b6109e0576040517f08c379a00000000000000000000000000000000000000000000000000000000081526004016109d790612619565b60405180910390fd5b3373ffffffffffffffffffffffffffffffffffffffff16610a00836107a6565b73ffffffffffffffffffffffffffffffffffffffff1614610a56576040517f08c379a0000000000000000000000000000000000000000000000000000000008152600401610a4d906126ab565b60405180910390fd5b80600860008481526020019081526020016000206001019080519060200190610a809291906119e8565b50610a8a826113c3565b5050565b6000600660009054906101000a900473ffffffffffffffffffffffffffffffffffffffff16905090565b606060018054610ac7906121c3565b80601f0160208091040260200160405190810160405280929190818152602001828054610af3906121c3565b8015610b405780601f10610b1557610100808354040283529160200191610b40565b820191906000526020600020905b815481529060010190602001808311610b2357829003601f168201915b5050505050905090565b610b5c610b55610f02565b838361149f565b5050565b610b71610b6b610f02565b83610fc3565b610bb0576040517f08c379a0000000000000000000000000000000000000000000000000000000008152600401610ba79061241d565b60405180910390fd5b610bbc8484848461160c565b50505050565b6060610bcd82610e96565b610c0c576040517f08c379a0000000000000000000000000000000000000000000000000000000008152600401610c039061273d565b60405180910390fd5b6000610c16611668565b90506000815111610c365760405180602001604052806000815250610c61565b80610c40846116fa565b604051602001610c51929190612799565b6040516020818303038152906040525b915050919050565b6000600560008473ffffffffffffffffffffffffffffffffffffffff1673ffffffffffffffffffffffffffffffffffffffff16815260200190815260200160002060008373ffffffffffffffffffffffffffffffffffffffff1673ffffffffffffffffffffffffffffffffffffffff16815260200190815260200160002060009054906101000a900460ff16905092915050565b610d05610f02565b73ffffffffffffffffffffffffffffffffffffffff16610d23610a8e565b73ffffffffffffffffffffffffffffffffffffffff1614610d79576040517f08c379a0000000000000000000000000000000000000000000000000000000008152600401610d7090612489565b60405180910390fd5b600073ffffffffffffffffffffffffffffffffffffffff168173ffffffffffffffffffffffffffffffffffffffff161415610de9576040517f08c379a0000000000000000000000000000000000000000000000000000000008152600401610de09061282f565b60405180910390fd5b610df2816112fd565b50565b600081600001549050919050565b6001816000016000828254019250508190555050565b600080823b905060008111915050919050565b60007f01ffc9a7000000000000000000000000000000000000000000000000000000007bffffffffffffffffffffffffffffffffffffffffffffffffffffffff1916827bffffffffffffffffffffffffffffffffffffffffffffffffffffffff1916149050919050565b60008073ffffffffffffffffffffffffffffffffffffffff166002600084815260200190815260200160002060009054906101000a900473ffffffffffffffffffffffffffffffffffffffff1673ffffffffffffffffffffffffffffffffffffffff1614159050919050565b600033905090565b816004600083815260200190815260200160002060006101000a81548173ffffffffffffffffffffffffffffffffffffffff021916908373ffffffffffffffffffffffffffffffffffffffff160217905550808273ffffffffffffffffffffffffffffffffffffffff16610f7d836107a6565b73ffffffffffffffffffffffffffffffffffffffff167f8c5be1e5ebec7d5bd14f71427d1e84f3dd0314c0f7b2291e5b200ac8c7c3b92560405160405180910390a45050565b6000610fce82610e96565b61100d576040517f08c379a0000000000000000000000000000000000000000000000000000000008152600401611004906128c1565b60405180910390fd5b6000611018836107a6565b90508073ffffffffffffffffffffffffffffffffffffffff168473ffffffffffffffffffffffffffffffffffffffff16148061108757508373ffffffffffffffffffffffffffffffffffffffff1661106f846104f3565b73ffffffffffffffffffffffffffffffffffffffff16145b8061109857506110978185610c69565b5b91505092915050565b8273ffffffffffffffffffffffffffffffffffffffff166110c1826107a6565b73ffffffffffffffffffffffffffffffffffffffff1614611117576040517f08c379a000000000000000000000000000000000000000000000000000000000815260040161110e90612953565b60405180910390fd5b600073ffffffffffffffffffffffffffffffffffffffff168273ffffffffffffffffffffffffffffffffffffffff161415611187576040517f08c379a000000000000000000000000000000000000000000000000000000000815260040161117e906129e5565b60405180910390fd5b61119283838361185b565b61119d600082610f0a565b6001600360008573ffffffffffffffffffffffffffffffffffffffff1673ffffffffffffffffffffffffffffffffffffffff16815260200190815260200160002060008282546111ed9190612a34565b925050819055506001600360008473ffffffffffffffffffffffffffffffffffffffff1673ffffffffffffffffffffffffffffffffffffffff16815260200190815260200160002060008282546112449190612a68565b92505081905550816002600083815260200190815260200160002060006101000a81548173ffffffffffffffffffffffffffffffffffffffff021916908373ffffffffffffffffffffffffffffffffffffffff160217905550808273ffffffffffffffffffffffffffffffffffffffff168473ffffffffffffffffffffffffffffffffffffffff167fddf252ad1be2c89b69c2b068fc378daa952ba7f163c4a11628f55a4df523b3ef60405160405180910390a4505050565b6000600660009054906101000a900473ffffffffffffffffffffffffffffffffffffffff16905081600660006101000a81548173ffffffffffffffffffffffffffffffffffffffff021916908373ffffffffffffffffffffffffffffffffffffffff1602179055508173ffffffffffffffffffffffffffffffffffffffff168173ffffffffffffffffffffffffffffffffffffffff167f8be0079c531659141344cd1fd0a4f28419497f9722a3daafe3b4186f6b6457e060405160405180910390a35050565b6113cc81610e96565b61140b576040517f08c379a000000000000000000000000000000000000000000000000000000000815260040161140290612619565b60405180910390fd5b3373ffffffffffffffffffffffffffffffffffffffff1661142b826107a6565b73ffffffffffffffffffffffffffffffffffffffff1614611481576040517f08c379a0000000000000000000000000000000000000000000000000000000008152600401611478906126ab565b60405180910390fd5b4260086000838152602001908152602001600020600a018190555050565b8173ffffffffffffffffffffffffffffffffffffffff168373ffffffffffffffffffffffffffffffffffffffff16141561150e576040517f08c379a000000000000000000000000000000000000000000000000000000000815260040161150590612b0a565b60405180910390fd5b80600560008573ffffffffffffffffffffffffffffffffffffffff1673ffffffffffffffffffffffffffffffffffffffff16815260200190815260200160002060008473ffffffffffffffffffffffffffffffffffffffff1673ffffffffffffffffffffffffffffffffffffffff16815260200190815260200160002060006101000a81548160ff0219169083151502179055508173ffffffffffffffffffffffffffffffffffffffff168373ffffffffffffffffffffffffffffffffffffffff167f17307eab39ab6107e8899845ad3d59bd9653f200f220920489ca2b5937696c31836040516115ff9190611b3f565b60405180910390a3505050565b6116178484846110a1565b61162384848484611860565b611662576040517f08c379a000000000000000000000000000000000000000000000000000000000815260040161165990612b9c565b60405180910390fd5b50505050565b606060098054611677906121c3565b80601f01602080910402602001604051908101604052809291908181526020018280546116a3906121c3565b80156116f05780601f106116c5576101008083540402835291602001916116f0565b820191906000526020600020905b8154815290600101906020018083116116d357829003601f168201915b5050505050905090565b60606000821415611742576040518060400160405280600181526020017f30000000000000000000000000000000000000000000000000000000000000008152509050611856565b600082905060005b6000821461177457808061175d90612bbc565b915050600a8261176d9190612c34565b915061174a565b60008167ffffffffffffffff8111156117905761178f611d9d565b5b6040519080825280601f01601f1916602001820160405280156117c25781602001600182028036833780820191505090505b5090505b6000851461184f576001826117db9190612a34565b9150600a856117ea9190612c65565b60306117f69190612a68565b60f81b81838151811061180c5761180b612c96565b5b60200101907effffffffffffffffffffffffffffffffffffffffffffffffffffffffffffff1916908160001a905350600a856118489190612c34565b94506117c6565b8093505050505b919050565b505050565b60006118818473ffffffffffffffffffffffffffffffffffffffff16610e19565b156119db578373ffffffffffffffffffffffffffffffffffffffff1663150b7a026118aa610f02565b8786866040518563ffffffff1660e01b81526004016118cc9493929190612d1a565b6020604051808303816000875af192505050801561190857506040513d601f19601f820116820180604052508101906119059190612d7b565b60015b61198b573d8060008114611938576040519150601f19603f3d011682016040523d82523d6000602084013e61193d565b606091505b50600081511415611983576040517f08c379a000000000000000000000000000000000000000000000000000000000815260040161197a90612b9c565b60405180910390fd5b805181602001fd5b63150b7a0260e01b7bffffffffffffffffffffffffffffffffffffffffffffffffffffffff1916817bffffffffffffffffffffffffffffffffffffffffffffffffffffffff1916149150506119e0565b600190505b949350505050565b8280546119f4906121c3565b90600052602060002090601f016020900481019282611a165760008555611a5d565b82601f10611a2f57805160ff1916838001178555611a5d565b82800160010185558215611a5d579182015b82811115611a5c578251825591602001919060010190611a41565b5b509050611a6a9190611a6e565b5090565b5b80821115611a87576000816000905550600101611a6f565b5090565b6000604051905090565b600080fd5b600080fd5b60007fffffffff0000000000000000000000000000000000000000000000000000000082169050919050565b611ad481611a9f565b8114611adf57600080fd5b50565b600081359050611af181611acb565b92915050565b600060208284031215611b0d57611b0c611a95565b5b6000611b1b84828501611ae2565b91505092915050565b60008115159050919050565b611b3981611b24565b82525050565b6000602082019050611b546000830184611b30565b92915050565b600081519050919050565b600082825260208201905092915050565b60005b83811015611b94578082015181840152602081019050611b79565b83811115611ba3576000848401525b50505050565b6000601f19601f8301169050919050565b6000611bc582611b5a565b611bcf8185611b65565b9350611bdf818560208601611b76565b611be881611ba9565b840191505092915050565b60006020820190508181036000830152611c0d8184611bba565b905092915050565b6000819050919050565b611c2881611c15565b8114611c3357600080fd5b50565b600081359050611c4581611c1f565b92915050565b600060208284031215611c6157611c60611a95565b5b6000611c6f84828501611c36565b91505092915050565b600073ffffffffffffffffffffffffffffffffffffffff82169050919050565b6000611ca382611c78565b9050919050565b611cb381611c98565b82525050565b6000602082019050611cce6000830184611caa565b92915050565b611cdd81611c98565b8114611ce857600080fd5b50565b600081359050611cfa81611cd4565b92915050565b60008060408385031215611d1757611d16611a95565b5b6000611d2585828601611ceb565b9250506020611d3685828601611c36565b9150509250929050565b600080600060608486031215611d5957611d58611a95565b5b6000611d6786828701611ceb565b9350506020611d7886828701611ceb565b9250506040611d8986828701611c36565b9150509250925092565b600080fd5b600080fd5b7f4e487b7100000000000000000000000000000000000000000000000000000000600052604160045260246000fd5b611dd582611ba9565b810181811067ffffffffffffffff82111715611df457611df3611d9d565b5b80604052505050565b6000611e07611a8b565b9050611e138282611dcc565b919050565b600067ffffffffffffffff821115611e3357611e32611d9d565b5b611e3c82611ba9565b9050602081019050919050565b82818337600083830152505050565b6000611e6b611e6684611e18565b611dfd565b905082815260208101848484011115611e8757611e86611d98565b5b611e92848285611e49565b509392505050565b600082601f830112611eaf57611eae611d93565b5b8135611ebf848260208601611e58565b91505092915050565b600060208284031215611ede57611edd611a95565b5b600082013567ffffffffffffffff811115611efc57611efb611a9a565b5b611f0884828501611e9a565b91505092915050565b600060208284031215611f2757611f26611a95565b5b6000611f3584828501611ceb565b91505092915050565b611f4781611c15565b82525050565b6000602082019050611f626000830184611f3e565b92915050565b60008060408385031215611f7f57611f7e611a95565b5b6000611f8d85828601611c36565b925050602083013567ffffffffffffffff811115611fae57611fad611a9a565b5b611fba85828601611e9a565b9150509250929050565b611fcd81611b24565b8114611fd857600080fd5b50565b600081359050611fea81611fc4565b92915050565b6000806040838503121561200757612006611a95565b5b600061201585828601611ceb565b925050602061202685828601611fdb565b9150509250929050565b600067ffffffffffffffff82111561204b5761204a611d9d565b5b61205482611ba9565b9050602081019050919050565b600061207461206f84612030565b611dfd565b9050828152602081018484840111156120905761208f611d98565b5b61209b848285611e49565b509392505050565b600082601f8301126120b8576120b7611d93565b5b81356120c8848260208601612061565b91505092915050565b600080600080608085870312156120eb576120ea611a95565b5b60006120f987828801611ceb565b945050602061210a87828801611ceb565b935050604061211b87828801611c36565b925050606085013567ffffffffffffffff81111561213c5761213b611a9a565b5b612148878288016120a3565b91505092959194509250565b6000806040838503121561216b5761216a611a95565b5b600061217985828601611ceb565b925050602061218a85828601611ceb565b9150509250929050565b7f4e487b7100000000000000000000000000000000000000000000000000000000600052602260045260246000fd5b600060028204905060018216806121db57607f821691505b602082108114156121ef576121ee612194565b5b50919050565b7f4552433732313a20617070726f76656420717565727920666f72206e6f6e657860008201527f697374656e7420746f6b656e0000000000000000000000000000000000000000602082015250565b6000612251602c83611b65565b915061225c826121f5565b604082019050919050565b6000602082019050818103600083015261228081612244565b9050919050565b7f4552433732313a20617070726f76616c20746f2063757272656e74206f776e6560008201527f7200000000000000000000000000000000000000000000000000000000000000602082015250565b60006122e3602183611b65565b91506122ee82612287565b604082019050919050565b60006020820190508181036000830152612312816122d6565b9050919050565b7f4552433732313a20617070726f76652063616c6c6572206973206e6f74206f7760008201527f6e6572206e6f7220617070726f76656420666f7220616c6c0000000000000000602082015250565b6000612375603883611b65565b915061238082612319565b604082019050919050565b600060208201905081810360008301526123a481612368565b9050919050565b7f4552433732313a207472616e736665722063616c6c6572206973206e6f74206f60008201527f776e6572206e6f7220617070726f766564000000000000000000000000000000602082015250565b6000612407603183611b65565b9150612412826123ab565b604082019050919050565b60006020820190508181036000830152612436816123fa565b9050919050565b7f4f776e61626c653a2063616c6c6572206973206e6f7420746865206f776e6572600082015250565b6000612473602083611b65565b915061247e8261243d565b602082019050919050565b600060208201905081810360008301526124a281612466565b9050919050565b7f4552433732313a206f776e657220717565727920666f72206e6f6e657869737460008201527f656e7420746f6b656e0000000000000000000000000000000000000000000000602082015250565b6000612505602983611b65565b9150612510826124a9565b604082019050919050565b60006020820190508181036000830152612534816124f8565b9050919050565b7f4552433732313a2062616c616e636520717565727920666f7220746865207a6560008201527f726f206164647265737300000000000000000000000000000000000000000000602082015250565b6000612597602a83611b65565b91506125a28261253b565b604082019050919050565b600060208201905081810360008301526125c68161258a565b9050919050565b7f746f6b656e206e6f74206d696e74656400000000000000000000000000000000600082015250565b6000612603601083611b65565b915061260e826125cd565b602082019050919050565b60006020820190508181036000830152612632816125f6565b9050919050565b7f6f6e6c7920746865206f776e6572206f66207468697320646174652063616e2060008201527f6368616e676520697473207469746c6500000000000000000000000000000000602082015250565b6000612695603083611b65565b91506126a082612639565b604082019050919050565b600060208201905081810360008301526126c481612688565b9050919050565b7f4552433732314d657461646174613a2055524920717565727920666f72206e6f60008201527f6e6578697374656e7420746f6b656e0000000000000000000000000000000000602082015250565b6000612727602f83611b65565b9150612732826126cb565b604082019050919050565b600060208201905081810360008301526127568161271a565b9050919050565b600081905092915050565b600061277382611b5a565b61277d818561275d565b935061278d818560208601611b76565b80840191505092915050565b60006127a58285612768565b91506127b18284612768565b91508190509392505050565b7f4f776e61626c653a206e6577206f776e657220697320746865207a65726f206160008201527f6464726573730000000000000000000000000000000000000000000000000000602082015250565b6000612819602683611b65565b9150612824826127bd565b604082019050919050565b600060208201905081810360008301526128488161280c565b9050919050565b7f4552433732313a206f70657261746f7220717565727920666f72206e6f6e657860008201527f697374656e7420746f6b656e0000000000000000000000000000000000000000602082015250565b60006128ab602c83611b65565b91506128b68261284f565b604082019050919050565b600060208201905081810360008301526128da8161289e565b9050919050565b7f4552433732313a207472616e73666572206f6620746f6b656e2074686174206960008201527f73206e6f74206f776e0000000000000000000000000000000000000000000000602082015250565b600061293d602983611b65565b9150612948826128e1565b604082019050919050565b6000602082019050818103600083015261296c81612930565b9050919050565b7f4552433732313a207472616e7366657220746f20746865207a65726f2061646460008201527f7265737300000000000000000000000000000000000000000000000000000000602082015250565b60006129cf602483611b65565b91506129da82612973565b604082019050919050565b600060208201905081810360008301526129fe816129c2565b9050919050565b7f4e487b7100000000000000000000000000000000000000000000000000000000600052601160045260246000fd5b6000612a3f82611c15565b9150612a4a83611c15565b925082821015612a5d57612a5c612a05565b5b828203905092915050565b6000612a7382611c15565b9150612a7e83611c15565b9250827fffffffffffffffffffffffffffffffffffffffffffffffffffffffffffffffff03821115612ab357612ab2612a05565b5b828201905092915050565b7f4552433732313a20617070726f766520746f2063616c6c657200000000000000600082015250565b6000612af4601983611b65565b9150612aff82612abe565b602082019050919050565b60006020820190508181036000830152612b2381612ae7565b9050919050565b7f4552433732313a207472616e7366657220746f206e6f6e20455243373231526560008201527f63656976657220696d706c656d656e7465720000000000000000000000000000602082015250565b6000612b86603283611b65565b9150612b9182612b2a565b604082019050919050565b60006020820190508181036000830152612bb581612b79565b9050919050565b6000612bc782611c15565b91507fffffffffffffffffffffffffffffffffffffffffffffffffffffffffffffffff821415612bfa57612bf9612a05565b5b600182019050919050565b7f4e487b7100000000000000000000000000000000000000000000000000000000600052601260045260246000fd5b6000612c3f82611c15565b9150612c4a83611c15565b925082612c5a57612c59612c05565b5b828204905092915050565b6000612c7082611c15565b9150612c7b83611c15565b925082612c8b57612c8a612c05565b5b828206905092915050565b7f4e487b7100000000000000000000000000000000000000000000000000000000600052603260045260246000fd5b600081519050919050565b600082825260208201905092915050565b6000612cec82612cc5565b612cf68185612cd0565b9350612d06818560208601611b76565b612d0f81611ba9565b840191505092915050565b6000608082019050612d2f6000830187611caa565b612d3c6020830186611caa565b612d496040830185611f3e565b8181036060830152612d5b8184612ce1565b905095945050505050565b600081519050612d7581611acb565b92915050565b600060208284031215612d9157612d90611a95565b5b6000612d9f84828501612d66565b9150509291505056fea26469706673582212204cdbb4844d9dd61baa9e7a271bcc3e569189d0ce3b3005b072c4feb46ca13d2764736f6c634300080a003368747470733a2f2f70617065726d6173746572732e696f2f6d696e746964656e746974792f",
  "immutableReferences": {},
  "source": "// SPDX-License-Identifier: MIT\r\npragma solidity >=0.4.22 <0.9.0;\r\n\r\nimport \"@openzeppelin/contracts/access/Ownable.sol\";\r\nimport \"@openzeppelin/contracts/token/ERC721/ERC721.sol\";\r\nimport \"@openzeppelin/contracts/utils/Counters.sol\";\r\n\r\ncontract MintIdentity is ERC721, Ownable {\r\n    using Counters for Counters.Counter;\r\n    Counters.Counter private _tokenIds;\r\n\r\n    struct Identity {\r\n        bytes32 uniqueid;\r\n        string firstname;\r\n        string lastname;\r\n        string aka;\r\n        string organization;\r\n        string slogan;\r\n        string description;\r\n        string url;\r\n        string bio;\r\n        uint create;\r\n        uint lastupdated;\r\n        bool valid;\r\n        uint validdate;\r\n        uint validationscore;\r\n    }\r\n\r\n    mapping(uint256=> Identity) id_to_identity;\r\n\r\n    string private _currentBaseURI;\r\n\r\n    constructor() ERC721(\"MintIdentity\", \"IDENT\") {\r\n        setBaseURI(\"https://papermasters.io/mintidentity/\");\r\n        //mint Ramona Andrew and kids\r\n        mintIdentity(\"Ramona\",\"Niederhausern\",\"Aka Awesome\",\"Awesome\", \"All Things Wave\", \"CEO\", \"pm\", \"Engineer\");\r\n        mintIdentity(\"Andrew\",\"Niederhausern\",\"Aka Super\",\"Super\", \"All Things Wave\", \"CTO\", \"pm\", \"Software\");\r\n        mintIdentity(\"Nautica\",\"Niederhausern\",\"Aka Nothing\",\"little\", \"Girl Power\", \"\", \"\", \"Engineer\");\r\n        mintIdentity(\"Nautica\",\"Niederhausern\",\"Aka Nothing\",\"little\", \"Girl Power\", \"\", \"\", \"Engineer\");\r\n    }\r\n\r\n\r\n\r\n    function setBaseURI(string memory baseURI) public onlyOwner() {\r\n        _currentBaseURI = baseURI;\r\n    }\r\n\r\n    function _baseURI() internal view virtual override returns (string memory) {\r\n        return _currentBaseURI;\r\n    }\r\n\r\n    function createUniqueId(\r\n        string memory first,\r\n        string memory last,\r\n        string memory aka,\r\n        string memory org,\r\n        string memory slogan,\r\n        string memory description,\r\n        string memory url,\r\n        string memory bio) private view returns(bytes32) {\r\n        return keccak256(abi.encodePacked(first, last, aka, org, slogan, description, url, bio, block.timestamp));\r\n    }\r\n\r\n    function mintIdentity (\r\n        string memory first,\r\n        string memory last,\r\n        string memory aka,\r\n        string memory org,\r\n        string memory slogan,\r\n        string memory description,\r\n        string memory url,\r\n        string memory bio) internal {\r\n            uint256 tokenId =  _tokenIds.current();\r\n            bytes32 uniqueId = createUniqueId(first, last, aka, org, slogan, description, url, bio);\r\n            id_to_identity[tokenId] = Identity(uniqueId,first, last, aka, org, slogan, description,\r\n                url, bio, block.timestamp, block.timestamp, false, 0, 0);\r\n            _safeMint(msg.sender,tokenId);\r\n            _tokenIds.increment();\r\n\r\n    }\r\n\r\n\r\n\r\n    function changeFirstName(uint256 tokenId, string memory newFirstName)  public {\r\n        require(_exists(tokenId), \"token not minted\");\r\n        require(ownerOf(tokenId) == msg.sender, \"only the owner of this date can change its title\");\r\n        id_to_identity[tokenId].firstname = newFirstName;\r\n        changeLastUpdated(tokenId);\r\n    }\r\n\r\n    function changeLastUpdated(uint256 tokenId) private {\r\n        require(_exists(tokenId), \"token not minted\");\r\n        require(ownerOf(tokenId) == msg.sender, \"only the owner of this date can change its title\");\r\n        id_to_identity[tokenId].lastupdated = block.timestamp;\r\n    }\r\n}\r\n",
  "sourcePath": "/home/user/MintIdentityTPM/truffle/contracts/MintIdentity.sol",
  "compiler": {
    "name": "solc",
    "version": "0.8.10+commit.fc410830.Emscripten.clang"
  },
  "schemaVersion": "3.4.4",
  "updatedAt": "2021-12-29T05:45:25.881Z",
  "networkType": "ethereum",
  "devdoc": {
    "kind": "dev",
    "methods": {
      "approve(address,uint256)": {
        "details": "See {IERC721-approve}."
      },
      "balanceOf(address)": {
        "details": "See {IERC721-balanceOf}."
      },
      "getApproved(uint256)": {
        "details": "See {IERC721-getApproved}."
      },
      "isApprovedForAll(address,address)": {
        "details": "See {IERC721-isApprovedForAll}."
      },
      "name()": {
        "details": "See {IERC721Metadata-name}."
      },
      "owner()": {
        "details": "Returns the address of the current owner."
      },
      "ownerOf(uint256)": {
        "details": "See {IERC721-ownerOf}."
      },
      "renounceOwnership()": {
        "details": "Leaves the contract without owner. It will not be possible to call `onlyOwner` functions anymore. Can only be called by the current owner. NOTE: Renouncing ownership will leave the contract without an owner, thereby removing any functionality that is only available to the owner."
      },
      "safeTransferFrom(address,address,uint256)": {
        "details": "See {IERC721-safeTransferFrom}."
      },
      "safeTransferFrom(address,address,uint256,bytes)": {
        "details": "See {IERC721-safeTransferFrom}."
      },
      "setApprovalForAll(address,bool)": {
        "details": "See {IERC721-setApprovalForAll}."
      },
      "supportsInterface(bytes4)": {
        "details": "See {IERC165-supportsInterface}."
      },
      "symbol()": {
        "details": "See {IERC721Metadata-symbol}."
      },
      "tokenURI(uint256)": {
        "details": "See {IERC721Metadata-tokenURI}."
      },
      "transferFrom(address,address,uint256)": {
        "details": "See {IERC721-transferFrom}."
      },
      "transferOwnership(address)": {
        "details": "Transfers ownership of the contract to a new account (`newOwner`). Can only be called by the current owner."
      }
    },
    "version": 1
  },
  "userdoc": {
    "kind": "user",
    "methods": {},
    "version": 1
  }
}