{
  "contractName": "PaperMastersNFI",
  "abi": [
    {
      "inputs": [],
      "stateMutability": "nonpayable",
      "type": "constructor"
    },
    {
      "anonymous": false,
      "inputs": [
        {
          "indexed": true,
          "internalType": "address",
          "name": "owner",
          "type": "address"
        },
        {
          "indexed": true,
          "internalType": "address",
          "name": "approved",
          "type": "address"
        },
        {
          "indexed": true,
          "internalType": "uint256",
          "name": "tokenId",
          "type": "uint256"
        }
      ],
      "name": "Approval",
      "type": "event"
    },
    {
      "anonymous": false,
      "inputs": [
        {
          "indexed": true,
          "internalType": "address",
          "name": "owner",
          "type": "address"
        },
        {
          "indexed": true,
          "internalType": "address",
          "name": "operator",
          "type": "address"
        },
        {
          "indexed": false,
          "internalType": "bool",
          "name": "approved",
          "type": "bool"
        }
      ],
      "name": "ApprovalForAll",
      "type": "event"
    },
    {
      "anonymous": false,
      "inputs": [
        {
          "indexed": false,
          "internalType": "uint256",
          "name": "amount",
          "type": "uint256"
        },
        {
          "indexed": false,
          "internalType": "uint256",
          "name": "balance",
          "type": "uint256"
        },
        {
          "indexed": false,
          "internalType": "address",
          "name": "donationSender",
          "type": "address"
        },
        {
          "indexed": false,
          "internalType": "uint256",
          "name": "totalDonationsBySender",
          "type": "uint256"
        }
      ],
      "name": "DonationMade",
      "type": "event"
    },
    {
      "anonymous": false,
      "inputs": [
        {
          "indexed": false,
          "internalType": "uint256",
          "name": "gasLeftLeft",
          "type": "uint256"
        }
      ],
      "name": "Log",
      "type": "event"
    },
    {
      "anonymous": false,
      "inputs": [
        {
          "indexed": false,
          "internalType": "uint256",
          "name": "chainId",
          "type": "uint256"
        },
        {
          "indexed": true,
          "internalType": "address",
          "name": "_from",
          "type": "address"
        },
        {
          "indexed": false,
          "internalType": "uint256",
          "name": "tokenId",
          "type": "uint256"
        },
        {
          "indexed": false,
          "internalType": "uint256",
          "name": "timeStamp",
          "type": "uint256"
        },
        {
          "indexed": false,
          "internalType": "uint256",
          "name": "contractFee",
          "type": "uint256"
        },
        {
          "components": [
            {
              "internalType": "uint256",
              "name": "chainId",
              "type": "uint256"
            },
            {
              "internalType": "address",
              "name": "walletAccount",
              "type": "address"
            },
            {
              "internalType": "string",
              "name": "name",
              "type": "string"
            },
            {
              "internalType": "string",
              "name": "email",
              "type": "string"
            },
            {
              "internalType": "string",
              "name": "profession",
              "type": "string"
            },
            {
              "internalType": "string",
              "name": "organization",
              "type": "string"
            },
            {
              "internalType": "string",
              "name": "slogan",
              "type": "string"
            },
            {
              "internalType": "string",
              "name": "website",
              "type": "string"
            },
            {
              "internalType": "string",
              "name": "uniqueYou",
              "type": "string"
            },
            {
              "internalType": "string",
              "name": "bgRGB",
              "type": "string"
            },
            {
              "internalType": "uint256",
              "name": "originDate",
              "type": "uint256"
            }
          ],
          "indexed": false,
          "internalType": "struct PaperMastersNFI.identity",
          "name": "identityStruct",
          "type": "tuple"
        }
      ],
      "name": "NFIMinted",
      "type": "event"
    },
    {
      "anonymous": false,
      "inputs": [
        {
          "indexed": true,
          "internalType": "address",
          "name": "previousOwner",
          "type": "address"
        },
        {
          "indexed": true,
          "internalType": "address",
          "name": "newOwner",
          "type": "address"
        }
      ],
      "name": "OwnershipTransferred",
      "type": "event"
    },
    {
      "anonymous": false,
      "inputs": [],
      "name": "Pause",
      "type": "event"
    },
    {
      "anonymous": false,
      "inputs": [
        {
          "indexed": true,
          "internalType": "address",
          "name": "from",
          "type": "address"
        },
        {
          "indexed": true,
          "internalType": "address",
          "name": "to",
          "type": "address"
        },
        {
          "indexed": true,
          "internalType": "uint256",
          "name": "tokenId",
          "type": "uint256"
        }
      ],
      "name": "Transfer",
      "type": "event"
    },
    {
      "anonymous": false,
      "inputs": [],
      "name": "Unpause",
      "type": "event"
    },
    {
      "anonymous": false,
      "inputs": [
        {
          "indexed": false,
          "internalType": "uint256",
          "name": "amount",
          "type": "uint256"
        },
        {
          "indexed": false,
          "internalType": "uint256",
          "name": "balance",
          "type": "uint256"
        },
        {
          "indexed": false,
          "internalType": "address",
          "name": "withdrawAddress",
          "type": "address"
        }
      ],
      "name": "Withdraw",
      "type": "event"
    },
    {
      "stateMutability": "payable",
      "type": "fallback",
      "payable": true
    },
    {
      "inputs": [
        {
          "internalType": "address",
          "name": "to",
          "type": "address"
        },
        {
          "internalType": "uint256",
          "name": "tokenId",
          "type": "uint256"
        }
      ],
      "name": "approve",
      "outputs": [],
      "stateMutability": "nonpayable",
      "type": "function"
    },
    {
      "inputs": [
        {
          "internalType": "address",
          "name": "owner",
          "type": "address"
        }
      ],
      "name": "balanceOf",
      "outputs": [
        {
          "internalType": "uint256",
          "name": "",
          "type": "uint256"
        }
      ],
      "stateMutability": "view",
      "type": "function",
      "constant": true
    },
    {
      "inputs": [
        {
          "internalType": "uint256",
          "name": "tokenId",
          "type": "uint256"
        }
      ],
      "name": "getApproved",
      "outputs": [
        {
          "internalType": "address",
          "name": "",
          "type": "address"
        }
      ],
      "stateMutability": "view",
      "type": "function",
      "constant": true
    },
    {
      "inputs": [],
      "name": "name",
      "outputs": [
        {
          "internalType": "string",
          "name": "",
          "type": "string"
        }
      ],
      "stateMutability": "view",
      "type": "function",
      "constant": true
    },
    {
      "inputs": [],
      "name": "owner",
      "outputs": [
        {
          "internalType": "address",
          "name": "",
          "type": "address"
        }
      ],
      "stateMutability": "view",
      "type": "function",
      "constant": true
    },
    {
      "inputs": [
        {
          "internalType": "uint256",
          "name": "tokenId",
          "type": "uint256"
        }
      ],
      "name": "ownerOf",
      "outputs": [
        {
          "internalType": "address",
          "name": "",
          "type": "address"
        }
      ],
      "stateMutability": "view",
      "type": "function",
      "constant": true
    },
    {
      "inputs": [],
      "name": "paused",
      "outputs": [
        {
          "internalType": "bool",
          "name": "",
          "type": "bool"
        }
      ],
      "stateMutability": "view",
      "type": "function",
      "constant": true
    },
    {
      "inputs": [],
      "name": "renounceOwnership",
      "outputs": [],
      "stateMutability": "nonpayable",
      "type": "function"
    },
    {
      "inputs": [
        {
          "internalType": "bytes4",
          "name": "interfaceId",
          "type": "bytes4"
        }
      ],
      "name": "supportsInterface",
      "outputs": [
        {
          "internalType": "bool",
          "name": "",
          "type": "bool"
        }
      ],
      "stateMutability": "view",
      "type": "function",
      "constant": true
    },
    {
      "inputs": [],
      "name": "symbol",
      "outputs": [
        {
          "internalType": "string",
          "name": "",
          "type": "string"
        }
      ],
      "stateMutability": "view",
      "type": "function",
      "constant": true
    },
    {
      "inputs": [
        {
          "internalType": "address",
          "name": "newOwner",
          "type": "address"
        }
      ],
      "name": "transferOwnership",
      "outputs": [],
      "stateMutability": "nonpayable",
      "type": "function"
    },
    {
      "stateMutability": "payable",
      "type": "receive",
      "payable": true
    },
    {
      "inputs": [],
      "name": "getChainId",
      "outputs": [
        {
          "internalType": "uint256",
          "name": "",
          "type": "uint256"
        }
      ],
      "stateMutability": "view",
      "type": "function",
      "constant": true
    },
    {
      "inputs": [
        {
          "internalType": "address",
          "name": "walletAddress",
          "type": "address"
        }
      ],
      "name": "addressToTokenID",
      "outputs": [
        {
          "internalType": "uint256",
          "name": "",
          "type": "uint256"
        }
      ],
      "stateMutability": "view",
      "type": "function",
      "constant": true
    },
    {
      "inputs": [
        {
          "internalType": "uint256",
          "name": "_tokenid",
          "type": "uint256"
        }
      ],
      "name": "tokenIDtoIdentityStruct",
      "outputs": [
        {
          "components": [
            {
              "internalType": "uint256",
              "name": "chainId",
              "type": "uint256"
            },
            {
              "internalType": "address",
              "name": "walletAccount",
              "type": "address"
            },
            {
              "internalType": "string",
              "name": "name",
              "type": "string"
            },
            {
              "internalType": "string",
              "name": "email",
              "type": "string"
            },
            {
              "internalType": "string",
              "name": "profession",
              "type": "string"
            },
            {
              "internalType": "string",
              "name": "organization",
              "type": "string"
            },
            {
              "internalType": "string",
              "name": "slogan",
              "type": "string"
            },
            {
              "internalType": "string",
              "name": "website",
              "type": "string"
            },
            {
              "internalType": "string",
              "name": "uniqueYou",
              "type": "string"
            },
            {
              "internalType": "string",
              "name": "bgRGB",
              "type": "string"
            },
            {
              "internalType": "uint256",
              "name": "originDate",
              "type": "uint256"
            }
          ],
          "internalType": "struct PaperMastersNFI.identity",
          "name": "",
          "type": "tuple"
        }
      ],
      "stateMutability": "view",
      "type": "function",
      "constant": true
    },
    {
      "inputs": [
        {
          "internalType": "address",
          "name": "walletAddress",
          "type": "address"
        }
      ],
      "name": "addressHasTokenBool",
      "outputs": [
        {
          "internalType": "bool",
          "name": "",
          "type": "bool"
        }
      ],
      "stateMutability": "view",
      "type": "function",
      "constant": true
    },
    {
      "inputs": [
        {
          "internalType": "address",
          "name": "walletAddress",
          "type": "address"
        }
      ],
      "name": "addressToIdentityStruct",
      "outputs": [
        {
          "components": [
            {
              "internalType": "uint256",
              "name": "chainId",
              "type": "uint256"
            },
            {
              "internalType": "address",
              "name": "walletAccount",
              "type": "address"
            },
            {
              "internalType": "string",
              "name": "name",
              "type": "string"
            },
            {
              "internalType": "string",
              "name": "email",
              "type": "string"
            },
            {
              "internalType": "string",
              "name": "profession",
              "type": "string"
            },
            {
              "internalType": "string",
              "name": "organization",
              "type": "string"
            },
            {
              "internalType": "string",
              "name": "slogan",
              "type": "string"
            },
            {
              "internalType": "string",
              "name": "website",
              "type": "string"
            },
            {
              "internalType": "string",
              "name": "uniqueYou",
              "type": "string"
            },
            {
              "internalType": "string",
              "name": "bgRGB",
              "type": "string"
            },
            {
              "internalType": "uint256",
              "name": "originDate",
              "type": "uint256"
            }
          ],
          "internalType": "struct PaperMastersNFI.identity",
          "name": "",
          "type": "tuple"
        }
      ],
      "stateMutability": "view",
      "type": "function",
      "constant": true
    },
    {
      "inputs": [],
      "name": "allIdentityStructs",
      "outputs": [
        {
          "components": [
            {
              "internalType": "uint256",
              "name": "chainId",
              "type": "uint256"
            },
            {
              "internalType": "address",
              "name": "walletAccount",
              "type": "address"
            },
            {
              "internalType": "string",
              "name": "name",
              "type": "string"
            },
            {
              "internalType": "string",
              "name": "email",
              "type": "string"
            },
            {
              "internalType": "string",
              "name": "profession",
              "type": "string"
            },
            {
              "internalType": "string",
              "name": "organization",
              "type": "string"
            },
            {
              "internalType": "string",
              "name": "slogan",
              "type": "string"
            },
            {
              "internalType": "string",
              "name": "website",
              "type": "string"
            },
            {
              "internalType": "string",
              "name": "uniqueYou",
              "type": "string"
            },
            {
              "internalType": "string",
              "name": "bgRGB",
              "type": "string"
            },
            {
              "internalType": "uint256",
              "name": "originDate",
              "type": "uint256"
            }
          ],
          "internalType": "struct PaperMastersNFI.identity[]",
          "name": "",
          "type": "tuple[]"
        }
      ],
      "stateMutability": "view",
      "type": "function",
      "constant": true
    },
    {
      "inputs": [
        {
          "internalType": "uint256",
          "name": "tokenId",
          "type": "uint256"
        }
      ],
      "name": "tokenURI",
      "outputs": [
        {
          "internalType": "string",
          "name": "",
          "type": "string"
        }
      ],
      "stateMutability": "view",
      "type": "function",
      "constant": true
    },
    {
      "inputs": [
        {
          "internalType": "string",
          "name": "changeBaseURI",
          "type": "string"
        }
      ],
      "name": "setBaseURI",
      "outputs": [],
      "stateMutability": "nonpayable",
      "type": "function"
    },
    {
      "inputs": [],
      "name": "getIdentityFee",
      "outputs": [
        {
          "internalType": "uint256",
          "name": "",
          "type": "uint256"
        }
      ],
      "stateMutability": "view",
      "type": "function",
      "constant": true
    },
    {
      "inputs": [
        {
          "internalType": "uint256",
          "name": "val",
          "type": "uint256"
        }
      ],
      "name": "setIdentityFee",
      "outputs": [],
      "stateMutability": "nonpayable",
      "type": "function"
    },
    {
      "inputs": [],
      "name": "deposit",
      "outputs": [],
      "stateMutability": "payable",
      "type": "function",
      "payable": true
    },
    {
      "inputs": [],
      "name": "getBalance",
      "outputs": [
        {
          "internalType": "uint256",
          "name": "",
          "type": "uint256"
        }
      ],
      "stateMutability": "view",
      "type": "function",
      "constant": true
    },
    {
      "inputs": [],
      "name": "withdraw",
      "outputs": [],
      "stateMutability": "nonpayable",
      "type": "function"
    },
    {
      "inputs": [],
      "name": "totalSupply",
      "outputs": [
        {
          "internalType": "uint256",
          "name": "",
          "type": "uint256"
        }
      ],
      "stateMutability": "view",
      "type": "function",
      "constant": true
    },
    {
      "inputs": [],
      "name": "pause",
      "outputs": [],
      "stateMutability": "nonpayable",
      "type": "function"
    },
    {
      "inputs": [],
      "name": "unpause",
      "outputs": [],
      "stateMutability": "nonpayable",
      "type": "function"
    },
    {
      "inputs": [
        {
          "internalType": "string",
          "name": "_name",
          "type": "string"
        },
        {
          "internalType": "string",
          "name": "_email",
          "type": "string"
        },
        {
          "internalType": "string",
          "name": "_profession",
          "type": "string"
        },
        {
          "internalType": "string",
          "name": "_organization",
          "type": "string"
        },
        {
          "internalType": "string",
          "name": "_slogan",
          "type": "string"
        },
        {
          "internalType": "string",
          "name": "_website",
          "type": "string"
        },
        {
          "internalType": "string",
          "name": "_uniqueYou",
          "type": "string"
        },
        {
          "internalType": "string",
          "name": "_bgRGB",
          "type": "string"
        }
      ],
      "name": "mintNFI",
      "outputs": [],
      "stateMutability": "payable",
      "type": "function",
      "payable": true
    },
    {
      "inputs": [
        {
          "internalType": "address",
          "name": "operator",
          "type": "address"
        },
        {
          "internalType": "bool",
          "name": "approved",
          "type": "bool"
        }
      ],
      "name": "setApprovalForAll",
      "outputs": [],
      "stateMutability": "nonpayable",
      "type": "function"
    },
    {
      "inputs": [
        {
          "internalType": "address",
          "name": "owner",
          "type": "address"
        },
        {
          "internalType": "address",
          "name": "operator",
          "type": "address"
        }
      ],
      "name": "isApprovedForAll",
      "outputs": [
        {
          "internalType": "bool",
          "name": "",
          "type": "bool"
        }
      ],
      "stateMutability": "view",
      "type": "function",
      "constant": true
    },
    {
      "inputs": [
        {
          "internalType": "address",
          "name": "from",
          "type": "address"
        },
        {
          "internalType": "address",
          "name": "to",
          "type": "address"
        },
        {
          "internalType": "uint256",
          "name": "tokenId",
          "type": "uint256"
        }
      ],
      "name": "transferFrom",
      "outputs": [],
      "stateMutability": "nonpayable",
      "type": "function"
    },
    {
      "inputs": [
        {
          "internalType": "address",
          "name": "from",
          "type": "address"
        },
        {
          "internalType": "address",
          "name": "to",
          "type": "address"
        },
        {
          "internalType": "uint256",
          "name": "tokenId",
          "type": "uint256"
        }
      ],
      "name": "safeTransferFrom",
      "outputs": [],
      "stateMutability": "nonpayable",
      "type": "function"
    },
    {
      "inputs": [
        {
          "internalType": "address",
          "name": "from",
          "type": "address"
        },
        {
          "internalType": "address",
          "name": "to",
          "type": "address"
        },
        {
          "internalType": "uint256",
          "name": "tokenId",
          "type": "uint256"
        },
        {
          "internalType": "bytes",
          "name": "_data",
          "type": "bytes"
        }
      ],
      "name": "safeTransferFrom",
      "outputs": [],
      "stateMutability": "nonpayable",
      "type": "function"
    }
  ],
  "bytecode": "0x60806040526000600c60016101000a81548160ff0219169083151502179055503480156200002c57600080fd5b506040518060400160405280600f81526020017f70617065726d6173746572732e696f00000000000000000000000000000000008152506040518060400160405280600381526020017f4e464900000000000000000000000000000000000000000000000000000000008152508160009080519060200190620000b19291906200047b565b508060019080519060200190620000ca9291906200047b565b505050620000ed620000e1620003ad60201b60201c565b620003b560201b60201c565b6040518060400160405280601381526020017f7777772e70617065726d6173746572732e696f00000000000000000000000000815250600790805190602001906200013a9291906200047b565b5067016345785d8a000060088190555060096040518061016001604052804681526020013073ffffffffffffffffffffffffffffffffffffffff1681526020016040518060200160405280600081525081526020016040518060200160405280600081525081526020016040518060200160405280600081525081526020016040518060200160405280600081525081526020016040518060200160405280600081525081526020016040518060200160405280600081525081526020016040518060200160405280600081525081526020016040518060200160405280600081525081526020014281525090806001815401808255809150506001900390600052602060002090600b02016000909190919091506000820151816000015560208201518160010160006101000a81548173ffffffffffffffffffffffffffffffffffffffff021916908373ffffffffffffffffffffffffffffffffffffffff1602179055506040820151816002019080519060200190620002be9291906200047b565b506060820151816003019080519060200190620002dd9291906200047b565b506080820151816004019080519060200190620002fc9291906200047b565b5060a08201518160050190805190602001906200031b9291906200047b565b5060c08201518160060190805190602001906200033a9291906200047b565b5060e0820151816007019080519060200190620003599291906200047b565b50610100820151816008019080519060200190620003799291906200047b565b50610120820151816009019080519060200190620003999291906200047b565b5061014082015181600a0155505062000590565b600033905090565b6000600660009054906101000a900473ffffffffffffffffffffffffffffffffffffffff16905081600660006101000a81548173ffffffffffffffffffffffffffffffffffffffff021916908373ffffffffffffffffffffffffffffffffffffffff1602179055508173ffffffffffffffffffffffffffffffffffffffff168173ffffffffffffffffffffffffffffffffffffffff167f8be0079c531659141344cd1fd0a4f28419497f9722a3daafe3b4186f6b6457e060405160405180910390a35050565b82805462000489906200055a565b90600052602060002090601f016020900481019282620004ad5760008555620004f9565b82601f10620004c857805160ff1916838001178555620004f9565b82800160010185558215620004f9579182015b82811115620004f8578251825591602001919060010190620004db565b5b5090506200050891906200050c565b5090565b5b80821115620005275760008160009055506001016200050d565b5090565b7f4e487b7100000000000000000000000000000000000000000000000000000000600052602260045260246000fd5b600060028204905060018216806200057357607f821691505b602082108114156200058a57620005896200052b565b5b50919050565b614d1380620005a06000396000f3fe6080604052600436106101f25760003560e01c806363b9910f1161010d578063a3925b25116100a0578063d0e30db01161006f578063d0e30db01461072c578063e985e9c514610736578063f2fde38b14610773578063f9c1f36f1461079c578063ff87a2b9146107c5576101f9565b8063a3925b251461064c578063adde18b014610689578063b88d4fde146106c6578063c87b56dd146106ef576101f9565b80638ae23730116100dc5780638ae23730146105a25780638da5cb5b146105cd57806395d89b41146105f8578063a22cb46514610623576101f9565b806363b9910f1461050c57806370a0823114610537578063715018a6146105745780638456cb591461058b576101f9565b80633408e47011610185578063532de8e911610154578063532de8e91461043e57806355f804b31461047b5780635c975abb146104a45780636352211e146104cf576101f9565b80633408e470146103bc5780633ccfd60b146103e75780633f4ba83a146103fe57806342842e0e14610415576101f9565b806312065fe0116101c157806312065fe01461030057806318160ddd1461032b5780631a0740a81461035657806323b872dd14610393576101f9565b806301ffc9a71461023257806306fdde031461026f578063081812fc1461029a578063095ea7b3146102d7576101f9565b366101f957005b7f909c57d5c6ac08245cf2a6de3900e2b868513fa59099b92b27d8db823d92df9c5a60405161022891906134af565b60405180910390a1005b34801561023e57600080fd5b5061025960048036038101906102549190613536565b6107e1565b604051610266919061357e565b60405180910390f35b34801561027b57600080fd5b506102846108c3565b6040516102919190613632565b60405180910390f35b3480156102a657600080fd5b506102c160048036038101906102bc9190613680565b610955565b6040516102ce91906136ee565b60405180910390f35b3480156102e357600080fd5b506102fe60048036038101906102f99190613735565b6109da565b005b34801561030c57600080fd5b50610315610af2565b60405161032291906134af565b60405180910390f35b34801561033757600080fd5b50610340610b76565b60405161034d91906134af565b60405180910390f35b34801561036257600080fd5b5061037d60048036038101906103789190613775565b610b83565b60405161038a919061357e565b60405180910390f35b34801561039f57600080fd5b506103ba60048036038101906103b591906137a2565b610b9e565b005b3480156103c857600080fd5b506103d1610c1f565b6040516103de91906134af565b60405180910390f35b3480156103f357600080fd5b506103fc610c27565b005b34801561040a57600080fd5b50610413610e19565b005b34801561042157600080fd5b5061043c600480360381019061043791906137a2565b610ef7565b005b34801561044a57600080fd5b5061046560048036038101906104609190613775565b610f78565b604051610472919061397d565b60405180910390f35b34801561048757600080fd5b506104a2600480360381019061049d9190613ad4565b6114bd565b005b3480156104b057600080fd5b506104b9611553565b6040516104c6919061357e565b60405180910390f35b3480156104db57600080fd5b506104f660048036038101906104f19190613680565b611566565b60405161050391906136ee565b60405180910390f35b34801561051857600080fd5b50610521611618565b60405161052e9190613cff565b60405180910390f35b34801561054357600080fd5b5061055e60048036038101906105599190613775565b611b72565b60405161056b91906134af565b60405180910390f35b34801561058057600080fd5b50610589611c2a565b005b34801561059757600080fd5b506105a0611cb2565b005b3480156105ae57600080fd5b506105b7611d91565b6040516105c491906134af565b60405180910390f35b3480156105d957600080fd5b506105e2611d9b565b6040516105ef91906136ee565b60405180910390f35b34801561060457600080fd5b5061060d611dc5565b60405161061a9190613632565b60405180910390f35b34801561062f57600080fd5b5061064a60048036038101906106459190613d4d565b611e57565b005b34801561065857600080fd5b50610673600480360381019061066e9190613680565b611ed7565b604051610680919061397d565b60405180910390f35b34801561069557600080fd5b506106b060048036038101906106ab9190613775565b61240e565b6040516106bd91906134af565b60405180910390f35b3480156106d257600080fd5b506106ed60048036038101906106e89190613e2e565b612457565b005b3480156106fb57600080fd5b5061071660048036038101906107119190613680565b6124d9565b6040516107239190613632565b60405180910390f35b610734612586565b005b34801561074257600080fd5b5061075d60048036038101906107589190613eb1565b612660565b60405161076a919061357e565b60405180910390f35b34801561077f57600080fd5b5061079a60048036038101906107959190613775565b6126e4565b005b3480156107a857600080fd5b506107c360048036038101906107be9190613680565b6127dc565b005b6107df60048036038101906107da9190613ef1565b612862565b005b60007f80ac58cd000000000000000000000000000000000000000000000000000000007bffffffffffffffffffffffffffffffffffffffffffffffffffffffff1916827bffffffffffffffffffffffffffffffffffffffffffffffffffffffff191614806108ac57507f5b5e139f000000000000000000000000000000000000000000000000000000007bffffffffffffffffffffffffffffffffffffffffffffffffffffffff1916827bffffffffffffffffffffffffffffffffffffffffffffffffffffffff1916145b806108bc57506108bb82612c8c565b5b9050919050565b6060600080546108d2906140b6565b80601f01602080910402602001604051908101604052809291908181526020018280546108fe906140b6565b801561094b5780601f106109205761010080835404028352916020019161094b565b820191906000526020600020905b81548152906001019060200180831161092e57829003601f168201915b5050505050905090565b600061096082612cf6565b61099f576040517f08c379a00000000000000000000000000000000000000000000000000000000081526004016109969061415a565b60405180910390fd5b6004600083815260200190815260200160002060009054906101000a900473ffffffffffffffffffffffffffffffffffffffff169050919050565b60006109e582611566565b90508073ffffffffffffffffffffffffffffffffffffffff168373ffffffffffffffffffffffffffffffffffffffff161415610a56576040517f08c379a0000000000000000000000000000000000000000000000000000000008152600401610a4d906141ec565b60405180910390fd5b8073ffffffffffffffffffffffffffffffffffffffff16610a75612d62565b73ffffffffffffffffffffffffffffffffffffffff161480610aa45750610aa381610a9e612d62565b612660565b5b610ae3576040517f08c379a0000000000000000000000000000000000000000000000000000000008152600401610ada9061427e565b60405180910390fd5b610aed8383612d6a565b505050565b6000610afc612d62565b73ffffffffffffffffffffffffffffffffffffffff16610b1a611d9b565b73ffffffffffffffffffffffffffffffffffffffff1614610b70576040517f08c379a0000000000000000000000000000000000000000000000000000000008152600401610b67906142ea565b60405180910390fd5b47905090565b6000600980549050905090565b600080610b8f8361240e565b90506001811015915050919050565b610ba6612d62565b73ffffffffffffffffffffffffffffffffffffffff16610bc4611d9b565b73ffffffffffffffffffffffffffffffffffffffff1614610c1a576040517f08c379a0000000000000000000000000000000000000000000000000000000008152600401610c11906142ea565b60405180910390fd5b505050565b600046905090565b600c60009054906101000a900460ff1615610c77576040517f08c379a0000000000000000000000000000000000000000000000000000000008152600401610c6e90614356565b60405180910390fd5b6001600c60006101000a81548160ff021916908315150217905550610c9a612d62565b73ffffffffffffffffffffffffffffffffffffffff16610cb8611d9b565b73ffffffffffffffffffffffffffffffffffffffff1614610d0e576040517f08c379a0000000000000000000000000000000000000000000000000000000008152600401610d05906142ea565b60405180910390fd5b600047905060003373ffffffffffffffffffffffffffffffffffffffff1682604051610d39906143a7565b60006040518083038185875af1925050503d8060008114610d76576040519150601f19603f3d011682016040523d82523d6000602084013e610d7b565b606091505b5050905080610dbf576040517f08c379a0000000000000000000000000000000000000000000000000000000008152600401610db690614408565b60405180910390fd5b7f71ef96c43343734b1d843bb85d52ef329f5e9143e4d35827771e3b0dd90c5f84824733604051610df293929190614428565b60405180910390a150506000600c60006101000a81548160ff021916908315150217905550565b610e21612d62565b73ffffffffffffffffffffffffffffffffffffffff16610e3f611d9b565b73ffffffffffffffffffffffffffffffffffffffff1614610e95576040517f08c379a0000000000000000000000000000000000000000000000000000000008152600401610e8c906142ea565b60405180910390fd5b600c60019054906101000a900460ff16610eae57600080fd5b6000600c60016101000a81548160ff0219169083151502179055507f7805862f689e2f13df9f062ff482ad3ad112aca9e0847911ed832e158c525b3360405160405180910390a1565b610eff612d62565b73ffffffffffffffffffffffffffffffffffffffff16610f1d611d9b565b73ffffffffffffffffffffffffffffffffffffffff1614610f73576040517f08c379a0000000000000000000000000000000000000000000000000000000008152600401610f6a906142ea565b60405180910390fd5b505050565b610f80613383565b6000610f8b8361240e565b905060098181548110610fa157610fa061445f565b5b90600052602060002090600b020160405180610160016040529081600082015481526020016001820160009054906101000a900473ffffffffffffffffffffffffffffffffffffffff1673ffffffffffffffffffffffffffffffffffffffff1673ffffffffffffffffffffffffffffffffffffffff16815260200160028201805461102b906140b6565b80601f0160208091040260200160405190810160405280929190818152602001828054611057906140b6565b80156110a45780601f10611079576101008083540402835291602001916110a4565b820191906000526020600020905b81548152906001019060200180831161108757829003601f168201915b505050505081526020016003820180546110bd906140b6565b80601f01602080910402602001604051908101604052809291908181526020018280546110e9906140b6565b80156111365780601f1061110b57610100808354040283529160200191611136565b820191906000526020600020905b81548152906001019060200180831161111957829003601f168201915b5050505050815260200160048201805461114f906140b6565b80601f016020809104026020016040519081016040528092919081815260200182805461117b906140b6565b80156111c85780601f1061119d576101008083540402835291602001916111c8565b820191906000526020600020905b8154815290600101906020018083116111ab57829003601f168201915b505050505081526020016005820180546111e1906140b6565b80601f016020809104026020016040519081016040528092919081815260200182805461120d906140b6565b801561125a5780601f1061122f5761010080835404028352916020019161125a565b820191906000526020600020905b81548152906001019060200180831161123d57829003601f168201915b50505050508152602001600682018054611273906140b6565b80601f016020809104026020016040519081016040528092919081815260200182805461129f906140b6565b80156112ec5780601f106112c1576101008083540402835291602001916112ec565b820191906000526020600020905b8154815290600101906020018083116112cf57829003601f168201915b50505050508152602001600782018054611305906140b6565b80601f0160208091040260200160405190810160405280929190818152602001828054611331906140b6565b801561137e5780601f106113535761010080835404028352916020019161137e565b820191906000526020600020905b81548152906001019060200180831161136157829003601f168201915b50505050508152602001600882018054611397906140b6565b80601f01602080910402602001604051908101604052809291908181526020018280546113c3906140b6565b80156114105780601f106113e557610100808354040283529160200191611410565b820191906000526020600020905b8154815290600101906020018083116113f357829003601f168201915b50505050508152602001600982018054611429906140b6565b80601f0160208091040260200160405190810160405280929190818152602001828054611455906140b6565b80156114a25780601f10611477576101008083540402835291602001916114a2565b820191906000526020600020905b81548152906001019060200180831161148557829003601f168201915b50505050508152602001600a82015481525050915050919050565b6114c5612d62565b73ffffffffffffffffffffffffffffffffffffffff166114e3611d9b565b73ffffffffffffffffffffffffffffffffffffffff1614611539576040517f08c379a0000000000000000000000000000000000000000000000000000000008152600401611530906142ea565b60405180910390fd5b806007908051906020019061154f9291906133f3565b5050565b600c60019054906101000a900460ff1681565b6000806002600084815260200190815260200160002060009054906101000a900473ffffffffffffffffffffffffffffffffffffffff169050600073ffffffffffffffffffffffffffffffffffffffff168173ffffffffffffffffffffffffffffffffffffffff16141561160f576040517f08c379a000000000000000000000000000000000000000000000000000000000815260040161160690614500565b60405180910390fd5b80915050919050565b60606009805480602002602001604051908101604052809291908181526020016000905b82821015611b6957838290600052602060002090600b020160405180610160016040529081600082015481526020016001820160009054906101000a900473ffffffffffffffffffffffffffffffffffffffff1673ffffffffffffffffffffffffffffffffffffffff1673ffffffffffffffffffffffffffffffffffffffff1681526020016002820180546116d0906140b6565b80601f01602080910402602001604051908101604052809291908181526020018280546116fc906140b6565b80156117495780601f1061171e57610100808354040283529160200191611749565b820191906000526020600020905b81548152906001019060200180831161172c57829003601f168201915b50505050508152602001600382018054611762906140b6565b80601f016020809104026020016040519081016040528092919081815260200182805461178e906140b6565b80156117db5780601f106117b0576101008083540402835291602001916117db565b820191906000526020600020905b8154815290600101906020018083116117be57829003601f168201915b505050505081526020016004820180546117f4906140b6565b80601f0160208091040260200160405190810160405280929190818152602001828054611820906140b6565b801561186d5780601f106118425761010080835404028352916020019161186d565b820191906000526020600020905b81548152906001019060200180831161185057829003601f168201915b50505050508152602001600582018054611886906140b6565b80601f01602080910402602001604051908101604052809291908181526020018280546118b2906140b6565b80156118ff5780601f106118d4576101008083540402835291602001916118ff565b820191906000526020600020905b8154815290600101906020018083116118e257829003601f168201915b50505050508152602001600682018054611918906140b6565b80601f0160208091040260200160405190810160405280929190818152602001828054611944906140b6565b80156119915780601f1061196657610100808354040283529160200191611991565b820191906000526020600020905b81548152906001019060200180831161197457829003601f168201915b505050505081526020016007820180546119aa906140b6565b80601f01602080910402602001604051908101604052809291908181526020018280546119d6906140b6565b8015611a235780601f106119f857610100808354040283529160200191611a23565b820191906000526020600020905b815481529060010190602001808311611a0657829003601f168201915b50505050508152602001600882018054611a3c906140b6565b80601f0160208091040260200160405190810160405280929190818152602001828054611a68906140b6565b8015611ab55780601f10611a8a57610100808354040283529160200191611ab5565b820191906000526020600020905b815481529060010190602001808311611a9857829003601f168201915b50505050508152602001600982018054611ace906140b6565b80601f0160208091040260200160405190810160405280929190818152602001828054611afa906140b6565b8015611b475780601f10611b1c57610100808354040283529160200191611b47565b820191906000526020600020905b815481529060010190602001808311611b2a57829003601f168201915b50505050508152602001600a820154815250508152602001906001019061163c565b50505050905090565b60008073ffffffffffffffffffffffffffffffffffffffff168273ffffffffffffffffffffffffffffffffffffffff161415611be3576040517f08c379a0000000000000000000000000000000000000000000000000000000008152600401611bda90614592565b60405180910390fd5b600360008373ffffffffffffffffffffffffffffffffffffffff1673ffffffffffffffffffffffffffffffffffffffff168152602001908152602001600020549050919050565b611c32612d62565b73ffffffffffffffffffffffffffffffffffffffff16611c50611d9b565b73ffffffffffffffffffffffffffffffffffffffff1614611ca6576040517f08c379a0000000000000000000000000000000000000000000000000000000008152600401611c9d906142ea565b60405180910390fd5b611cb06000612e23565b565b611cba612d62565b73ffffffffffffffffffffffffffffffffffffffff16611cd8611d9b565b73ffffffffffffffffffffffffffffffffffffffff1614611d2e576040517f08c379a0000000000000000000000000000000000000000000000000000000008152600401611d25906142ea565b60405180910390fd5b600c60019054906101000a900460ff1615611d4857600080fd5b6001600c60016101000a81548160ff0219169083151502179055507f6985a02210a168e66602d3235cb6db0e70f92b3ba4d376a33c0f3d9434bff62560405160405180910390a1565b6000600854905090565b6000600660009054906101000a900473ffffffffffffffffffffffffffffffffffffffff16905090565b606060018054611dd4906140b6565b80601f0160208091040260200160405190810160405280929190818152602001828054611e00906140b6565b8015611e4d5780601f10611e2257610100808354040283529160200191611e4d565b820191906000526020600020905b815481529060010190602001808311611e3057829003601f168201915b5050505050905090565b611e5f612d62565b73ffffffffffffffffffffffffffffffffffffffff16611e7d611d9b565b73ffffffffffffffffffffffffffffffffffffffff1614611ed3576040517f08c379a0000000000000000000000000000000000000000000000000000000008152600401611eca906142ea565b60405180910390fd5b5050565b611edf613383565b60098281548110611ef357611ef261445f565b5b90600052602060002090600b020160405180610160016040529081600082015481526020016001820160009054906101000a900473ffffffffffffffffffffffffffffffffffffffff1673ffffffffffffffffffffffffffffffffffffffff1673ffffffffffffffffffffffffffffffffffffffff168152602001600282018054611f7d906140b6565b80601f0160208091040260200160405190810160405280929190818152602001828054611fa9906140b6565b8015611ff65780601f10611fcb57610100808354040283529160200191611ff6565b820191906000526020600020905b815481529060010190602001808311611fd957829003601f168201915b5050505050815260200160038201805461200f906140b6565b80601f016020809104026020016040519081016040528092919081815260200182805461203b906140b6565b80156120885780601f1061205d57610100808354040283529160200191612088565b820191906000526020600020905b81548152906001019060200180831161206b57829003601f168201915b505050505081526020016004820180546120a1906140b6565b80601f01602080910402602001604051908101604052809291908181526020018280546120cd906140b6565b801561211a5780601f106120ef5761010080835404028352916020019161211a565b820191906000526020600020905b8154815290600101906020018083116120fd57829003601f168201915b50505050508152602001600582018054612133906140b6565b80601f016020809104026020016040519081016040528092919081815260200182805461215f906140b6565b80156121ac5780601f10612181576101008083540402835291602001916121ac565b820191906000526020600020905b81548152906001019060200180831161218f57829003601f168201915b505050505081526020016006820180546121c5906140b6565b80601f01602080910402602001604051908101604052809291908181526020018280546121f1906140b6565b801561223e5780601f106122135761010080835404028352916020019161223e565b820191906000526020600020905b81548152906001019060200180831161222157829003601f168201915b50505050508152602001600782018054612257906140b6565b80601f0160208091040260200160405190810160405280929190818152602001828054612283906140b6565b80156122d05780601f106122a5576101008083540402835291602001916122d0565b820191906000526020600020905b8154815290600101906020018083116122b357829003601f168201915b505050505081526020016008820180546122e9906140b6565b80601f0160208091040260200160405190810160405280929190818152602001828054612315906140b6565b80156123625780601f1061233757610100808354040283529160200191612362565b820191906000526020600020905b81548152906001019060200180831161234557829003601f168201915b5050505050815260200160098201805461237b906140b6565b80601f01602080910402602001604051908101604052809291908181526020018280546123a7906140b6565b80156123f45780601f106123c9576101008083540402835291602001916123f4565b820191906000526020600020905b8154815290600101906020018083116123d757829003601f168201915b50505050508152602001600a820154815250509050919050565b6000600a60008373ffffffffffffffffffffffffffffffffffffffff1673ffffffffffffffffffffffffffffffffffffffff168152602001908152602001600020549050919050565b61245f612d62565b73ffffffffffffffffffffffffffffffffffffffff1661247d611d9b565b73ffffffffffffffffffffffffffffffffffffffff16146124d3576040517f08c379a00000000000000000000000000000000000000000000000000000000081526004016124ca906142ea565b60405180910390fd5b50505050565b60606124e482612cf6565b612523576040517f08c379a000000000000000000000000000000000000000000000000000000000815260040161251a90614624565b60405180910390fd5b600061252e83611566565b9050600061253a612ee9565b9050600081511161255a576040518060200160405280600081525061257d565b808260405160200161256d9291906146c8565b6040516020818303038152906040525b92505050919050565b600034905034600b60003373ffffffffffffffffffffffffffffffffffffffff1673ffffffffffffffffffffffffffffffffffffffff16815260200190815260200160002060008282546125da919061471f565b925050819055507fb9c87592ed73f7a26fff471ef513f8065a243208d84daa291fb0e770635014e2814733600b60003373ffffffffffffffffffffffffffffffffffffffff1673ffffffffffffffffffffffffffffffffffffffff168152602001908152602001600020546040516126559493929190614775565b60405180910390a150565b600061266a612d62565b73ffffffffffffffffffffffffffffffffffffffff16612688611d9b565b73ffffffffffffffffffffffffffffffffffffffff16146126de576040517f08c379a00000000000000000000000000000000000000000000000000000000081526004016126d5906142ea565b60405180910390fd5b92915050565b6126ec612d62565b73ffffffffffffffffffffffffffffffffffffffff1661270a611d9b565b73ffffffffffffffffffffffffffffffffffffffff1614612760576040517f08c379a0000000000000000000000000000000000000000000000000000000008152600401612757906142ea565b60405180910390fd5b600073ffffffffffffffffffffffffffffffffffffffff168173ffffffffffffffffffffffffffffffffffffffff1614156127d0576040517f08c379a00000000000000000000000000000000000000000000000000000000081526004016127c79061482c565b60405180910390fd5b6127d981612e23565b50565b6127e4612d62565b73ffffffffffffffffffffffffffffffffffffffff16612802611d9b565b73ffffffffffffffffffffffffffffffffffffffff1614612858576040517f08c379a000000000000000000000000000000000000000000000000000000000815260040161284f906142ea565b60405180910390fd5b8060088190555050565b600c60009054906101000a900460ff16156128b2576040517f08c379a00000000000000000000000000000000000000000000000000000000081526004016128a990614356565b60405180910390fd5b6001600c60006101000a81548160ff021916908315150217905550600c60019054906101000a900460ff16156128e757600080fd5b60085434101561292c576040517f08c379a0000000000000000000000000000000000000000000000000000000008152600401612923906148be565b60405180910390fd5b6008543373ffffffffffffffffffffffffffffffffffffffff16311015612988576040517f08c379a000000000000000000000000000000000000000000000000000000000815260040161297f90614950565b60405180910390fd5b61299133610b83565b156129d1576040517f08c379a00000000000000000000000000000000000000000000000000000000081526004016129c8906149e2565b60405180910390fd5b60006040518061016001604052804681526020013373ffffffffffffffffffffffffffffffffffffffff1681526020018a815260200189815260200188815260200187815260200186815260200185815260200184815260200183815260200142815250905060098190806001815401808255809150506001900390600052602060002090600b02016000909190919091506000820151816000015560208201518160010160006101000a81548173ffffffffffffffffffffffffffffffffffffffff021916908373ffffffffffffffffffffffffffffffffffffffff1602179055506040820151816002019080519060200190612ad09291906133f3565b506060820151816003019080519060200190612aed9291906133f3565b506080820151816004019080519060200190612b0a9291906133f3565b5060a0820151816005019080519060200190612b279291906133f3565b5060c0820151816006019080519060200190612b449291906133f3565b5060e0820151816007019080519060200190612b619291906133f3565b50610100820151816008019080519060200190612b7f9291906133f3565b50610120820151816009019080519060200190612b9d9291906133f3565b5061014082015181600a0155505060006001600980549050612bbf9190614a02565b905080600a60003373ffffffffffffffffffffffffffffffffffffffff1673ffffffffffffffffffffffffffffffffffffffff16815260200190815260200160002081905550612c0f3382612f7b565b3373ffffffffffffffffffffffffffffffffffffffff167fe09ced628f3762d567e1169c16f935b4e4d73f93ac0671eb3f443ea8324fd11e4683423487604051612c5d959493929190614a36565b60405180910390a250506000600c60006101000a81548160ff0219169083151502179055505050505050505050565b60007f01ffc9a7000000000000000000000000000000000000000000000000000000007bffffffffffffffffffffffffffffffffffffffffffffffffffffffff1916827bffffffffffffffffffffffffffffffffffffffffffffffffffffffff1916149050919050565b60008073ffffffffffffffffffffffffffffffffffffffff166002600084815260200190815260200160002060009054906101000a900473ffffffffffffffffffffffffffffffffffffffff1673ffffffffffffffffffffffffffffffffffffffff1614159050919050565b600033905090565b816004600083815260200190815260200160002060006101000a81548173ffffffffffffffffffffffffffffffffffffffff021916908373ffffffffffffffffffffffffffffffffffffffff160217905550808273ffffffffffffffffffffffffffffffffffffffff16612ddd83611566565b73ffffffffffffffffffffffffffffffffffffffff167f8c5be1e5ebec7d5bd14f71427d1e84f3dd0314c0f7b2291e5b200ac8c7c3b92560405160405180910390a45050565b6000600660009054906101000a900473ffffffffffffffffffffffffffffffffffffffff16905081600660006101000a81548173ffffffffffffffffffffffffffffffffffffffff021916908373ffffffffffffffffffffffffffffffffffffffff1602179055508173ffffffffffffffffffffffffffffffffffffffff168173ffffffffffffffffffffffffffffffffffffffff167f8be0079c531659141344cd1fd0a4f28419497f9722a3daafe3b4186f6b6457e060405160405180910390a35050565b606060078054612ef8906140b6565b80601f0160208091040260200160405190810160405280929190818152602001828054612f24906140b6565b8015612f715780601f10612f4657610100808354040283529160200191612f71565b820191906000526020600020905b815481529060010190602001808311612f5457829003601f168201915b5050505050905090565b612f95828260405180602001604052806000815250612f99565b5050565b612fa38383612ff4565b612fb060008484846131ce565b612fef576040517f08c379a0000000000000000000000000000000000000000000000000000000008152600401612fe690614b02565b60405180910390fd5b505050565b600073ffffffffffffffffffffffffffffffffffffffff168273ffffffffffffffffffffffffffffffffffffffff161415613064576040517f08c379a000000000000000000000000000000000000000000000000000000000815260040161305b90614b6e565b60405180910390fd5b61306d81612cf6565b156130ad576040517f08c379a00000000000000000000000000000000000000000000000000000000081526004016130a490614bda565b60405180910390fd5b6130b960008383613356565b6001600360008473ffffffffffffffffffffffffffffffffffffffff1673ffffffffffffffffffffffffffffffffffffffff1681526020019081526020016000206000828254613109919061471f565b92505081905550816002600083815260200190815260200160002060006101000a81548173ffffffffffffffffffffffffffffffffffffffff021916908373ffffffffffffffffffffffffffffffffffffffff160217905550808273ffffffffffffffffffffffffffffffffffffffff16600073ffffffffffffffffffffffffffffffffffffffff167fddf252ad1be2c89b69c2b068fc378daa952ba7f163c4a11628f55a4df523b3ef60405160405180910390a46131ca6000838361335b565b5050565b60006131ef8473ffffffffffffffffffffffffffffffffffffffff16613360565b15613349578373ffffffffffffffffffffffffffffffffffffffff1663150b7a02613218612d62565b8786866040518563ffffffff1660e01b815260040161323a9493929190614c4f565b6020604051808303816000875af192505050801561327657506040513d601f19601f820116820180604052508101906132739190614cb0565b60015b6132f9573d80600081146132a6576040519150601f19603f3d011682016040523d82523d6000602084013e6132ab565b606091505b506000815114156132f1576040517f08c379a00000000000000000000000000000000000000000000000000000000081526004016132e890614b02565b60405180910390fd5b805181602001fd5b63150b7a0260e01b7bffffffffffffffffffffffffffffffffffffffffffffffffffffffff1916817bffffffffffffffffffffffffffffffffffffffffffffffffffffffff19161491505061334e565b600190505b949350505050565b505050565b505050565b6000808273ffffffffffffffffffffffffffffffffffffffff163b119050919050565b60405180610160016040528060008152602001600073ffffffffffffffffffffffffffffffffffffffff1681526020016060815260200160608152602001606081526020016060815260200160608152602001606081526020016060815260200160608152602001600081525090565b8280546133ff906140b6565b90600052602060002090601f0160209004810192826134215760008555613468565b82601f1061343a57805160ff1916838001178555613468565b82800160010185558215613468579182015b8281111561346757825182559160200191906001019061344c565b5b5090506134759190613479565b5090565b5b8082111561349257600081600090555060010161347a565b5090565b6000819050919050565b6134a981613496565b82525050565b60006020820190506134c460008301846134a0565b92915050565b6000604051905090565b600080fd5b600080fd5b60007fffffffff0000000000000000000000000000000000000000000000000000000082169050919050565b613513816134de565b811461351e57600080fd5b50565b6000813590506135308161350a565b92915050565b60006020828403121561354c5761354b6134d4565b5b600061355a84828501613521565b91505092915050565b60008115159050919050565b61357881613563565b82525050565b6000602082019050613593600083018461356f565b92915050565b600081519050919050565b600082825260208201905092915050565b60005b838110156135d35780820151818401526020810190506135b8565b838111156135e2576000848401525b50505050565b6000601f19601f8301169050919050565b600061360482613599565b61360e81856135a4565b935061361e8185602086016135b5565b613627816135e8565b840191505092915050565b6000602082019050818103600083015261364c81846135f9565b905092915050565b61365d81613496565b811461366857600080fd5b50565b60008135905061367a81613654565b92915050565b600060208284031215613696576136956134d4565b5b60006136a48482850161366b565b91505092915050565b600073ffffffffffffffffffffffffffffffffffffffff82169050919050565b60006136d8826136ad565b9050919050565b6136e8816136cd565b82525050565b600060208201905061370360008301846136df565b92915050565b613712816136cd565b811461371d57600080fd5b50565b60008135905061372f81613709565b92915050565b6000806040838503121561374c5761374b6134d4565b5b600061375a85828601613720565b925050602061376b8582860161366b565b9150509250929050565b60006020828403121561378b5761378a6134d4565b5b600061379984828501613720565b91505092915050565b6000806000606084860312156137bb576137ba6134d4565b5b60006137c986828701613720565b93505060206137da86828701613720565b92505060406137eb8682870161366b565b9150509250925092565b6137fe81613496565b82525050565b61380d816136cd565b82525050565b600082825260208201905092915050565b600061382f82613599565b6138398185613813565b93506138498185602086016135b5565b613852816135e8565b840191505092915050565b60006101608301600083015161387660008601826137f5565b5060208301516138896020860182613804565b50604083015184820360408601526138a18282613824565b915050606083015184820360608601526138bb8282613824565b915050608083015184820360808601526138d58282613824565b91505060a083015184820360a08601526138ef8282613824565b91505060c083015184820360c08601526139098282613824565b91505060e083015184820360e08601526139238282613824565b91505061010083015184820361010086015261393f8282613824565b91505061012083015184820361012086015261395b8282613824565b9150506101408301516139726101408601826137f5565b508091505092915050565b60006020820190508181036000830152613997818461385d565b905092915050565b600080fd5b600080fd5b7f4e487b7100000000000000000000000000000000000000000000000000000000600052604160045260246000fd5b6139e1826135e8565b810181811067ffffffffffffffff82111715613a00576139ff6139a9565b5b80604052505050565b6000613a136134ca565b9050613a1f82826139d8565b919050565b600067ffffffffffffffff821115613a3f57613a3e6139a9565b5b613a48826135e8565b9050602081019050919050565b82818337600083830152505050565b6000613a77613a7284613a24565b613a09565b905082815260208101848484011115613a9357613a926139a4565b5b613a9e848285613a55565b509392505050565b600082601f830112613abb57613aba61399f565b5b8135613acb848260208601613a64565b91505092915050565b600060208284031215613aea57613ae96134d4565b5b600082013567ffffffffffffffff811115613b0857613b076134d9565b5b613b1484828501613aa6565b91505092915050565b600081519050919050565b600082825260208201905092915050565b6000819050602082019050919050565b600061016083016000830151613b6260008601826137f5565b506020830151613b756020860182613804565b5060408301518482036040860152613b8d8282613824565b91505060608301518482036060860152613ba78282613824565b91505060808301518482036080860152613bc18282613824565b91505060a083015184820360a0860152613bdb8282613824565b91505060c083015184820360c0860152613bf58282613824565b91505060e083015184820360e0860152613c0f8282613824565b915050610100830151848203610100860152613c2b8282613824565b915050610120830151848203610120860152613c478282613824565b915050610140830151613c5e6101408601826137f5565b508091505092915050565b6000613c758383613b49565b905092915050565b6000602082019050919050565b6000613c9582613b1d565b613c9f8185613b28565b935083602082028501613cb185613b39565b8060005b85811015613ced5784840389528151613cce8582613c69565b9450613cd983613c7d565b925060208a01995050600181019050613cb5565b50829750879550505050505092915050565b60006020820190508181036000830152613d198184613c8a565b905092915050565b613d2a81613563565b8114613d3557600080fd5b50565b600081359050613d4781613d21565b92915050565b60008060408385031215613d6457613d636134d4565b5b6000613d7285828601613720565b9250506020613d8385828601613d38565b9150509250929050565b600067ffffffffffffffff821115613da857613da76139a9565b5b613db1826135e8565b9050602081019050919050565b6000613dd1613dcc84613d8d565b613a09565b905082815260208101848484011115613ded57613dec6139a4565b5b613df8848285613a55565b509392505050565b600082601f830112613e1557613e1461399f565b5b8135613e25848260208601613dbe565b91505092915050565b60008060008060808587031215613e4857613e476134d4565b5b6000613e5687828801613720565b9450506020613e6787828801613720565b9350506040613e788782880161366b565b925050606085013567ffffffffffffffff811115613e9957613e986134d9565b5b613ea587828801613e00565b91505092959194509250565b60008060408385031215613ec857613ec76134d4565b5b6000613ed685828601613720565b9250506020613ee785828601613720565b9150509250929050565b600080600080600080600080610100898b031215613f1257613f116134d4565b5b600089013567ffffffffffffffff811115613f3057613f2f6134d9565b5b613f3c8b828c01613aa6565b985050602089013567ffffffffffffffff811115613f5d57613f5c6134d9565b5b613f698b828c01613aa6565b975050604089013567ffffffffffffffff811115613f8a57613f896134d9565b5b613f968b828c01613aa6565b965050606089013567ffffffffffffffff811115613fb757613fb66134d9565b5b613fc38b828c01613aa6565b955050608089013567ffffffffffffffff811115613fe457613fe36134d9565b5b613ff08b828c01613aa6565b94505060a089013567ffffffffffffffff811115614011576140106134d9565b5b61401d8b828c01613aa6565b93505060c089013567ffffffffffffffff81111561403e5761403d6134d9565b5b61404a8b828c01613aa6565b92505060e089013567ffffffffffffffff81111561406b5761406a6134d9565b5b6140778b828c01613aa6565b9150509295985092959890939650565b7f4e487b7100000000000000000000000000000000000000000000000000000000600052602260045260246000fd5b600060028204905060018216806140ce57607f821691505b602082108114156140e2576140e1614087565b5b50919050565b7f4552433732313a20617070726f76656420717565727920666f72206e6f6e657860008201527f697374656e7420746f6b656e0000000000000000000000000000000000000000602082015250565b6000614144602c836135a4565b915061414f826140e8565b604082019050919050565b6000602082019050818103600083015261417381614137565b9050919050565b7f4552433732313a20617070726f76616c20746f2063757272656e74206f776e6560008201527f7200000000000000000000000000000000000000000000000000000000000000602082015250565b60006141d66021836135a4565b91506141e18261417a565b604082019050919050565b60006020820190508181036000830152614205816141c9565b9050919050565b7f4552433732313a20617070726f76652063616c6c6572206973206e6f74206f7760008201527f6e6572206e6f7220617070726f76656420666f7220616c6c0000000000000000602082015250565b60006142686038836135a4565b91506142738261420c565b604082019050919050565b600060208201905081810360008301526142978161425b565b9050919050565b7f4f776e61626c653a2063616c6c6572206973206e6f7420746865206f776e6572600082015250565b60006142d46020836135a4565b91506142df8261429e565b602082019050919050565b60006020820190508181036000830152614303816142c7565b9050919050565b7f4e6f2072652d656e7472616e6379000000000000000000000000000000000000600082015250565b6000614340600e836135a4565b915061434b8261430a565b602082019050919050565b6000602082019050818103600083015261436f81614333565b9050919050565b600081905092915050565b50565b6000614391600083614376565b915061439c82614381565b600082019050919050565b60006143b282614384565b9150819050919050565b7f5472616e73666572206661696c65642e00000000000000000000000000000000600082015250565b60006143f26010836135a4565b91506143fd826143bc565b602082019050919050565b60006020820190508181036000830152614421816143e5565b9050919050565b600060608201905061443d60008301866134a0565b61444a60208301856134a0565b61445760408301846136df565b949350505050565b7f4e487b7100000000000000000000000000000000000000000000000000000000600052603260045260246000fd5b7f4552433732313a206f776e657220717565727920666f72206e6f6e657869737460008201527f656e7420746f6b656e0000000000000000000000000000000000000000000000602082015250565b60006144ea6029836135a4565b91506144f58261448e565b604082019050919050565b60006020820190508181036000830152614519816144dd565b9050919050565b7f4552433732313a2062616c616e636520717565727920666f7220746865207a6560008201527f726f206164647265737300000000000000000000000000000000000000000000602082015250565b600061457c602a836135a4565b915061458782614520565b604082019050919050565b600060208201905081810360008301526145ab8161456f565b9050919050565b7f4552433732314d657461646174613a2055524920717565727920666f72206e6f60008201527f6e6578697374656e7420746f6b656e0000000000000000000000000000000000602082015250565b600061460e602f836135a4565b9150614619826145b2565b604082019050919050565b6000602082019050818103600083015261463d81614601565b9050919050565b600081905092915050565b600061465a82613599565b6146648185614644565b93506146748185602086016135b5565b80840191505092915050565b60008160601b9050919050565b600061469882614680565b9050919050565b60006146aa8261468d565b9050919050565b6146c26146bd826136cd565b61469f565b82525050565b60006146d4828561464f565b91506146e082846146b1565b6014820191508190509392505050565b7f4e487b7100000000000000000000000000000000000000000000000000000000600052601160045260246000fd5b600061472a82613496565b915061473583613496565b9250827fffffffffffffffffffffffffffffffffffffffffffffffffffffffffffffffff0382111561476a576147696146f0565b5b828201905092915050565b600060808201905061478a60008301876134a0565b61479760208301866134a0565b6147a460408301856136df565b6147b160608301846134a0565b95945050505050565b7f4f776e61626c653a206e6577206f776e657220697320746865207a65726f206160008201527f6464726573730000000000000000000000000000000000000000000000000000602082015250565b60006148166026836135a4565b9150614821826147ba565b604082019050919050565b6000602082019050818103600083015261484581614809565b9050919050565b7f4e6f7420656e6f756768204554482073656e743b20636865636b20707269636560008201527f2100000000000000000000000000000000000000000000000000000000000000602082015250565b60006148a86021836135a4565b91506148b38261484c565b604082019050919050565b600060208201905081810360008301526148d78161489b565b9050919050565b7f4163636f756e7420646f6573206e6f7420686176652073756666696369656e7460008201527f2066756e64730000000000000000000000000000000000000000000000000000602082015250565b600061493a6026836135a4565b9150614945826148de565b604082019050919050565b600060208201905081810360008301526149698161492d565b9050919050565b7f2057616c6c657420616c72656164792068617320616e204e46492120596f752060008201527f676574206f6e65207065722077616c6c6574206163636f756e74000000000000602082015250565b60006149cc603a836135a4565b91506149d782614970565b604082019050919050565b600060208201905081810360008301526149fb816149bf565b9050919050565b6000614a0d82613496565b9150614a1883613496565b925082821015614a2b57614a2a6146f0565b5b828203905092915050565b600060a082019050614a4b60008301886134a0565b614a5860208301876134a0565b614a6560408301866134a0565b614a7260608301856134a0565b8181036080830152614a84818461385d565b90509695505050505050565b7f4552433732313a207472616e7366657220746f206e6f6e20455243373231526560008201527f63656976657220696d706c656d656e7465720000000000000000000000000000602082015250565b6000614aec6032836135a4565b9150614af782614a90565b604082019050919050565b60006020820190508181036000830152614b1b81614adf565b9050919050565b7f4552433732313a206d696e7420746f20746865207a65726f2061646472657373600082015250565b6000614b586020836135a4565b9150614b6382614b22565b602082019050919050565b60006020820190508181036000830152614b8781614b4b565b9050919050565b7f4552433732313a20746f6b656e20616c7265616479206d696e74656400000000600082015250565b6000614bc4601c836135a4565b9150614bcf82614b8e565b602082019050919050565b60006020820190508181036000830152614bf381614bb7565b9050919050565b600081519050919050565b600082825260208201905092915050565b6000614c2182614bfa565b614c2b8185614c05565b9350614c3b8185602086016135b5565b614c44816135e8565b840191505092915050565b6000608082019050614c6460008301876136df565b614c7160208301866136df565b614c7e60408301856134a0565b8181036060830152614c908184614c16565b905095945050505050565b600081519050614caa8161350a565b92915050565b600060208284031215614cc657614cc56134d4565b5b6000614cd484828501614c9b565b9150509291505056fea264697066735822122057a1c07450dcf32c415a227c55f881dcc29d14419511a967e95e083c8917919a64736f6c634300080a0033",
  "immutableReferences": {},
  "source": "// SPDX-License-Identifier: GPL-3.0\r\npragma solidity >=0.8.0 <0.9.0;\r\n\r\nimport \"@openzeppelin/contracts/token/ERC721/ERC721.sol\";\r\nimport \"@openzeppelin/contracts/access/Ownable.sol\";\r\nimport \"@openzeppelin/contracts/token/ERC721/extensions/IERC721Metadata.sol\";\r\n\r\ncontract PaperMastersNFI is ERC721, Ownable {\r\n    string private _setBaseURI;\r\n    uint256 private identityFee;\r\n\r\n    struct identity\r\n    {\r\n        uint256 chainId;\r\n        address walletAccount;\r\n        string name;\r\n        string email;\r\n        string profession;\r\n        string organization;\r\n        string slogan;\r\n        string website;\r\n        string uniqueYou;\r\n        string bgRGB;\r\n        uint256 originDate;\r\n    }\r\n\r\n    identity[] _dictionaryNFIs;\r\n    mapping(address => uint256) totalIdentities;\r\n    mapping(address => uint256) _supportPMDonations;\r\n\r\n    //prevents ren-entry when modifier is added to a function\r\n    bool internal locked;\r\n    modifier noReentrant() {\r\n        require(!locked, \"No re-entrancy\");\r\n        locked = true;\r\n        _;\r\n        locked = false;\r\n    }\r\n    //    modifier onlyOwner() {\r\n    //        require(msg.sender == owner, \"Message sender must be the contract's owner.\");\r\n    //        _;\r\n    //    }\r\n    constructor() ERC721(\"papermasters.io\", \"NFI\") {\r\n        _setBaseURI = \"www.papermasters.io\";\r\n        identityFee = 100000000000000000;\r\n        _dictionaryNFIs.push(identity(block.chainid, address(this), '', '', '', '', '', '', '', '', block.timestamp));\r\n    }\r\n\r\n    function getChainId() public view returns (uint256) {\r\n        return block.chainid;\r\n    }\r\n\r\n    function addressToTokenID(address walletAddress) public view returns (uint256) {\r\n        return totalIdentities[walletAddress];\r\n    }\r\n\r\n    function tokenIDtoIdentityStruct(uint256 _tokenid) public view returns (identity memory) {\r\n        return _dictionaryNFIs[_tokenid];\r\n    }\r\n\r\n    function addressHasTokenBool(address walletAddress) public view returns (bool) {\r\n        uint256 _tokenId = addressToTokenID(walletAddress);\r\n        return _tokenId >= 1;\r\n    }\r\n\r\n    function addressToIdentityStruct(address walletAddress) public view returns (identity memory){\r\n        uint256 tokenId = addressToTokenID(walletAddress);\r\n        return _dictionaryNFIs[tokenId];\r\n    }\r\n\r\n    function allIdentityStructs() public view returns (identity[] memory){\r\n        return _dictionaryNFIs;\r\n    }\r\n\r\n    //metadata extension tokenURI, name and symbol\r\n    function tokenURI(uint256 tokenId) public view virtual override returns (string memory) {\r\n        require(_exists(tokenId), \"ERC721Metadata: URI query for nonexistent token\");\r\n        address owner = ownerOf(tokenId);\r\n        string memory baseURI = _baseURI();\r\n        return bytes(baseURI).length > 0 ? string(abi.encodePacked(baseURI, owner)) : \"\";\r\n    }\r\n\r\n    function setBaseURI(string memory changeBaseURI) public onlyOwner {\r\n        _setBaseURI = changeBaseURI;\r\n    }\r\n\r\n    function _baseURI() internal view virtual override returns (string memory) {\r\n        return _setBaseURI;\r\n    }\r\n\r\n    function getIdentityFee() public view returns (uint256) {\r\n        return identityFee;\r\n    }\r\n\r\n    function setIdentityFee(uint256 val) external onlyOwner {\r\n        identityFee = val;\r\n    }\r\n\r\n    // Fallback function must be declared as external.\r\n    fallback() external payable {\r\n        // send / transfer (forwards 2300 gas to this fallback function)\r\n        // call (forwards all of the gas)\r\n        emit Log(gasleft());\r\n    }\r\n\r\n    event Log(uint256 gasLeftLeft);\r\n\r\n    receive() external payable {}\r\n\r\n    function deposit() public payable {\r\n        uint256 amount = msg.value;\r\n        _supportPMDonations[msg.sender] += msg.value;\r\n        emit DonationMade(amount, address(this).balance, msg.sender, _supportPMDonations[msg.sender]);\r\n    }\r\n\r\n    event DonationMade(uint256 amount, uint256 balance, address donationSender, uint256 totalDonationsBySender);\r\n\r\n    function getBalance() public view onlyOwner returns (uint) {\r\n        return address(this).balance;\r\n    }\r\n\r\n    function withdraw() external noReentrant onlyOwner {\r\n        // This forwards all available gas. Be sure to check the return value!\r\n        uint256 amount = address(this).balance;\r\n        (bool success,) = msg.sender.call{value : amount}(\"\");\r\n        require(success, \"Transfer failed.\");\r\n        emit Withdraw(amount, address(this).balance, msg.sender);\r\n    }\r\n\r\n    event Withdraw(uint256 amount, uint256 balance, address withdrawAddress);\r\n\r\n    function totalSupply() public view returns (uint256) {\r\n        return _dictionaryNFIs.length;\r\n    }\r\n\r\n    bool public paused = false;\r\n\r\n    modifier whenNotPaused() {\r\n        require(!paused);\r\n        _;\r\n    }\r\n    modifier whenPaused() {\r\n        require(paused);\r\n        _;\r\n    }\r\n    function pause() onlyOwner whenNotPaused public {\r\n        paused = true;\r\n        emit Pause();\r\n    }\r\n\r\n    event Pause();\r\n\r\n    function unpause() onlyOwner whenPaused public {\r\n        paused = false;\r\n        emit Unpause();\r\n    }\r\n\r\n    event Unpause();\r\n\r\n    function mintNFI(\r\n        string memory _name,\r\n        string memory _email,\r\n        string memory _profession,\r\n        string memory _organization,\r\n        string memory _slogan,\r\n        string memory _website,\r\n        string memory _uniqueYou,\r\n        string memory _bgRGB\r\n    ) public virtual noReentrant payable whenNotPaused\r\n    {\r\n        require(msg.value >= identityFee, \"Not enough ETH sent; check price!\");\r\n        require(msg.sender.balance >= identityFee, \"Account does not have sufficient funds\");\r\n        require(!addressHasTokenBool(msg.sender), \" Wallet already has an NFI! You get one per wallet account\");\r\n\r\n        identity memory _identity = identity({\r\n        chainId : block.chainid,\r\n        walletAccount : msg.sender,\r\n        name : _name,\r\n        email : _email,\r\n        profession : _profession,\r\n        organization : _organization,\r\n        slogan : _slogan,\r\n        website : _website,\r\n        uniqueYou : _uniqueYou,\r\n        bgRGB : _bgRGB,\r\n        originDate : block.timestamp\r\n        });\r\n\r\n        _dictionaryNFIs.push(_identity);\r\n        uint256 newTokenID = _dictionaryNFIs.length - 1;\r\n        totalIdentities[msg.sender] = newTokenID;\r\n        _safeMint(msg.sender, newTokenID);\r\n\r\n        emit NFIMinted(block.chainid, msg.sender, newTokenID, block.timestamp, msg.value, _identity);\r\n    }\r\n\r\n    event NFIMinted(uint256 chainId, address indexed _from, uint256 tokenId, uint256 timeStamp, uint256 contractFee, identity identityStruct);\r\n\r\n    function setApprovalForAll(address operator, bool approved) public virtual override onlyOwner {}\r\n\r\n    function isApprovedForAll(address owner, address operator) public view virtual override onlyOwner returns (bool) {}\r\n\r\n    function transferFrom(address from, address to, uint256 tokenId) public virtual override onlyOwner {}\r\n\r\n    function safeTransferFrom(address from, address to, uint256 tokenId) public virtual override onlyOwner {}\r\n\r\n    function safeTransferFrom(address from, address to, uint256 tokenId, bytes memory _data) public virtual override onlyOwner {}\r\n\r\n    function _safeTransfer(address from, address to, uint256 tokenId, bytes memory _data) internal virtual override onlyOwner {}\r\n}",
  "sourcePath": "/home/ramona/gitrepos/MintIdentityTPM/truffle/contracts/PaperMastersNFI.sol",
  "compiler": {
    "name": "solc",
    "version": "0.8.10+commit.fc410830.Emscripten.clang"
  },
  "schemaVersion": "3.4.4",
  "updatedAt": "2022-06-03T15:29:47.191Z",
  "networkType": "ethereum",
  "devdoc": {
    "kind": "dev",
    "methods": {
      "approve(address,uint256)": {
        "details": "See {IERC721-approve}."
      },
      "balanceOf(address)": {
        "details": "See {IERC721-balanceOf}."
      },
      "getApproved(uint256)": {
        "details": "See {IERC721-getApproved}."
      },
      "isApprovedForAll(address,address)": {
        "details": "See {IERC721-isApprovedForAll}."
      },
      "name()": {
        "details": "See {IERC721Metadata-name}."
      },
      "owner()": {
        "details": "Returns the address of the current owner."
      },
      "ownerOf(uint256)": {
        "details": "See {IERC721-ownerOf}."
      },
      "renounceOwnership()": {
        "details": "Leaves the contract without owner. It will not be possible to call `onlyOwner` functions anymore. Can only be called by the current owner. NOTE: Renouncing ownership will leave the contract without an owner, thereby removing any functionality that is only available to the owner."
      },
      "safeTransferFrom(address,address,uint256)": {
        "details": "See {IERC721-safeTransferFrom}."
      },
      "safeTransferFrom(address,address,uint256,bytes)": {
        "details": "See {IERC721-safeTransferFrom}."
      },
      "setApprovalForAll(address,bool)": {
        "details": "See {IERC721-setApprovalForAll}."
      },
      "supportsInterface(bytes4)": {
        "details": "See {IERC165-supportsInterface}."
      },
      "symbol()": {
        "details": "See {IERC721Metadata-symbol}."
      },
      "tokenURI(uint256)": {
        "details": "See {IERC721Metadata-tokenURI}."
      },
      "transferFrom(address,address,uint256)": {
        "details": "See {IERC721-transferFrom}."
      },
      "transferOwnership(address)": {
        "details": "Transfers ownership of the contract to a new account (`newOwner`). Can only be called by the current owner."
      }
    },
    "version": 1
  },
  "userdoc": {
    "kind": "user",
    "methods": {},
    "version": 1
  }
}