{
  "contractName": "PaperMastersNFI",
  "abi": [
    {
      "inputs": [],
      "stateMutability": "nonpayable",
      "type": "constructor"
    },
    {
      "anonymous": false,
      "inputs": [
        {
          "indexed": true,
          "internalType": "address",
          "name": "owner",
          "type": "address"
        },
        {
          "indexed": true,
          "internalType": "address",
          "name": "approved",
          "type": "address"
        },
        {
          "indexed": true,
          "internalType": "uint256",
          "name": "tokenId",
          "type": "uint256"
        }
      ],
      "name": "Approval",
      "type": "event"
    },
    {
      "anonymous": false,
      "inputs": [
        {
          "indexed": true,
          "internalType": "address",
          "name": "owner",
          "type": "address"
        },
        {
          "indexed": true,
          "internalType": "address",
          "name": "operator",
          "type": "address"
        },
        {
          "indexed": false,
          "internalType": "bool",
          "name": "approved",
          "type": "bool"
        }
      ],
      "name": "ApprovalForAll",
      "type": "event"
    },
    {
      "anonymous": false,
      "inputs": [
        {
          "indexed": false,
          "internalType": "uint256",
          "name": "amount",
          "type": "uint256"
        },
        {
          "indexed": false,
          "internalType": "uint256",
          "name": "balance",
          "type": "uint256"
        },
        {
          "indexed": false,
          "internalType": "address",
          "name": "donationSender",
          "type": "address"
        },
        {
          "indexed": false,
          "internalType": "uint256",
          "name": "totalDonationsBySender",
          "type": "uint256"
        }
      ],
      "name": "DonationMade",
      "type": "event"
    },
    {
      "anonymous": false,
      "inputs": [
        {
          "indexed": false,
          "internalType": "uint256",
          "name": "gas",
          "type": "uint256"
        }
      ],
      "name": "Log",
      "type": "event"
    },
    {
      "anonymous": false,
      "inputs": [
        {
          "indexed": true,
          "internalType": "address",
          "name": "_from",
          "type": "address"
        },
        {
          "indexed": false,
          "internalType": "uint256",
          "name": "tokenId",
          "type": "uint256"
        }
      ],
      "name": "NFIMinted",
      "type": "event"
    },
    {
      "anonymous": false,
      "inputs": [
        {
          "indexed": true,
          "internalType": "address",
          "name": "previousOwner",
          "type": "address"
        },
        {
          "indexed": true,
          "internalType": "address",
          "name": "newOwner",
          "type": "address"
        }
      ],
      "name": "OwnershipTransferred",
      "type": "event"
    },
    {
      "anonymous": false,
      "inputs": [],
      "name": "Pause",
      "type": "event"
    },
    {
      "anonymous": false,
      "inputs": [
        {
          "indexed": true,
          "internalType": "address",
          "name": "from",
          "type": "address"
        },
        {
          "indexed": true,
          "internalType": "address",
          "name": "to",
          "type": "address"
        },
        {
          "indexed": true,
          "internalType": "uint256",
          "name": "tokenId",
          "type": "uint256"
        }
      ],
      "name": "Transfer",
      "type": "event"
    },
    {
      "anonymous": false,
      "inputs": [],
      "name": "Unpause",
      "type": "event"
    },
    {
      "anonymous": false,
      "inputs": [
        {
          "indexed": false,
          "internalType": "uint256",
          "name": "amount",
          "type": "uint256"
        },
        {
          "indexed": false,
          "internalType": "uint256",
          "name": "balance",
          "type": "uint256"
        },
        {
          "indexed": false,
          "internalType": "address",
          "name": "withdrawAddress",
          "type": "address"
        }
      ],
      "name": "Withdraw",
      "type": "event"
    },
    {
      "stateMutability": "payable",
      "type": "fallback",
      "payable": true
    },
    {
      "inputs": [
        {
          "internalType": "address",
          "name": "to",
          "type": "address"
        },
        {
          "internalType": "uint256",
          "name": "tokenId",
          "type": "uint256"
        }
      ],
      "name": "approve",
      "outputs": [],
      "stateMutability": "nonpayable",
      "type": "function"
    },
    {
      "inputs": [
        {
          "internalType": "address",
          "name": "owner",
          "type": "address"
        }
      ],
      "name": "balanceOf",
      "outputs": [
        {
          "internalType": "uint256",
          "name": "",
          "type": "uint256"
        }
      ],
      "stateMutability": "view",
      "type": "function",
      "constant": true
    },
    {
      "inputs": [
        {
          "internalType": "uint256",
          "name": "tokenId",
          "type": "uint256"
        }
      ],
      "name": "getApproved",
      "outputs": [
        {
          "internalType": "address",
          "name": "",
          "type": "address"
        }
      ],
      "stateMutability": "view",
      "type": "function",
      "constant": true
    },
    {
      "inputs": [],
      "name": "name",
      "outputs": [
        {
          "internalType": "string",
          "name": "",
          "type": "string"
        }
      ],
      "stateMutability": "view",
      "type": "function",
      "constant": true
    },
    {
      "inputs": [],
      "name": "owner",
      "outputs": [
        {
          "internalType": "address",
          "name": "",
          "type": "address"
        }
      ],
      "stateMutability": "view",
      "type": "function",
      "constant": true
    },
    {
      "inputs": [
        {
          "internalType": "uint256",
          "name": "tokenId",
          "type": "uint256"
        }
      ],
      "name": "ownerOf",
      "outputs": [
        {
          "internalType": "address",
          "name": "",
          "type": "address"
        }
      ],
      "stateMutability": "view",
      "type": "function",
      "constant": true
    },
    {
      "inputs": [],
      "name": "paused",
      "outputs": [
        {
          "internalType": "bool",
          "name": "",
          "type": "bool"
        }
      ],
      "stateMutability": "view",
      "type": "function",
      "constant": true
    },
    {
      "inputs": [],
      "name": "renounceOwnership",
      "outputs": [],
      "stateMutability": "nonpayable",
      "type": "function"
    },
    {
      "inputs": [
        {
          "internalType": "bytes4",
          "name": "interfaceId",
          "type": "bytes4"
        }
      ],
      "name": "supportsInterface",
      "outputs": [
        {
          "internalType": "bool",
          "name": "",
          "type": "bool"
        }
      ],
      "stateMutability": "view",
      "type": "function",
      "constant": true
    },
    {
      "inputs": [],
      "name": "symbol",
      "outputs": [
        {
          "internalType": "string",
          "name": "",
          "type": "string"
        }
      ],
      "stateMutability": "view",
      "type": "function",
      "constant": true
    },
    {
      "inputs": [
        {
          "internalType": "address",
          "name": "newOwner",
          "type": "address"
        }
      ],
      "name": "transferOwnership",
      "outputs": [],
      "stateMutability": "nonpayable",
      "type": "function"
    },
    {
      "stateMutability": "payable",
      "type": "receive",
      "payable": true
    },
    {
      "inputs": [
        {
          "internalType": "address",
          "name": "walletAddress",
          "type": "address"
        }
      ],
      "name": "addressToTokenID",
      "outputs": [
        {
          "internalType": "uint256",
          "name": "",
          "type": "uint256"
        }
      ],
      "stateMutability": "view",
      "type": "function",
      "constant": true
    },
    {
      "inputs": [
        {
          "internalType": "uint256",
          "name": "_tokenid",
          "type": "uint256"
        }
      ],
      "name": "tokenIDtoIdentity",
      "outputs": [
        {
          "components": [
            {
              "internalType": "address",
              "name": "walletAccount",
              "type": "address"
            },
            {
              "internalType": "string",
              "name": "name",
              "type": "string"
            },
            {
              "internalType": "string",
              "name": "email",
              "type": "string"
            },
            {
              "internalType": "string",
              "name": "profession",
              "type": "string"
            },
            {
              "internalType": "string",
              "name": "organization",
              "type": "string"
            },
            {
              "internalType": "string",
              "name": "slogan",
              "type": "string"
            },
            {
              "internalType": "string",
              "name": "website",
              "type": "string"
            },
            {
              "internalType": "string",
              "name": "uniqueYou",
              "type": "string"
            },
            {
              "internalType": "string",
              "name": "bgRGB",
              "type": "string"
            },
            {
              "internalType": "uint256",
              "name": "originDate",
              "type": "uint256"
            }
          ],
          "internalType": "struct PaperMastersNFI.identity",
          "name": "",
          "type": "tuple"
        }
      ],
      "stateMutability": "view",
      "type": "function",
      "constant": true
    },
    {
      "inputs": [
        {
          "internalType": "address",
          "name": "walletAddress",
          "type": "address"
        }
      ],
      "name": "addressHasToken",
      "outputs": [
        {
          "internalType": "bool",
          "name": "",
          "type": "bool"
        }
      ],
      "stateMutability": "view",
      "type": "function",
      "constant": true
    },
    {
      "inputs": [
        {
          "internalType": "string",
          "name": "changeBaseURI",
          "type": "string"
        }
      ],
      "name": "setBaseURI",
      "outputs": [],
      "stateMutability": "nonpayable",
      "type": "function"
    },
    {
      "inputs": [
        {
          "internalType": "uint256",
          "name": "tokenId",
          "type": "uint256"
        }
      ],
      "name": "tokenURI",
      "outputs": [
        {
          "internalType": "string",
          "name": "",
          "type": "string"
        }
      ],
      "stateMutability": "view",
      "type": "function",
      "constant": true
    },
    {
      "inputs": [],
      "name": "getIdentityFee",
      "outputs": [
        {
          "internalType": "uint256",
          "name": "",
          "type": "uint256"
        }
      ],
      "stateMutability": "view",
      "type": "function",
      "constant": true
    },
    {
      "inputs": [
        {
          "internalType": "uint256",
          "name": "val",
          "type": "uint256"
        }
      ],
      "name": "setIdentityFee",
      "outputs": [],
      "stateMutability": "nonpayable",
      "type": "function"
    },
    {
      "inputs": [],
      "name": "deposit",
      "outputs": [],
      "stateMutability": "payable",
      "type": "function",
      "payable": true
    },
    {
      "inputs": [],
      "name": "getBalance",
      "outputs": [
        {
          "internalType": "uint256",
          "name": "",
          "type": "uint256"
        }
      ],
      "stateMutability": "view",
      "type": "function",
      "constant": true
    },
    {
      "inputs": [],
      "name": "withdraw",
      "outputs": [],
      "stateMutability": "nonpayable",
      "type": "function"
    },
    {
      "inputs": [],
      "name": "totalSupply",
      "outputs": [
        {
          "internalType": "uint256",
          "name": "",
          "type": "uint256"
        }
      ],
      "stateMutability": "view",
      "type": "function",
      "constant": true
    },
    {
      "inputs": [],
      "name": "pause",
      "outputs": [],
      "stateMutability": "nonpayable",
      "type": "function"
    },
    {
      "inputs": [],
      "name": "unpause",
      "outputs": [],
      "stateMutability": "nonpayable",
      "type": "function"
    },
    {
      "inputs": [
        {
          "internalType": "string",
          "name": "_name",
          "type": "string"
        },
        {
          "internalType": "string",
          "name": "_email",
          "type": "string"
        },
        {
          "internalType": "string",
          "name": "_profession",
          "type": "string"
        },
        {
          "internalType": "string",
          "name": "_organization",
          "type": "string"
        },
        {
          "internalType": "string",
          "name": "_slogan",
          "type": "string"
        },
        {
          "internalType": "string",
          "name": "_website",
          "type": "string"
        },
        {
          "internalType": "string",
          "name": "_uniqueYou",
          "type": "string"
        },
        {
          "internalType": "string",
          "name": "_bgRGB",
          "type": "string"
        },
        {
          "internalType": "uint256",
          "name": "_originDate",
          "type": "uint256"
        }
      ],
      "name": "mintNFI",
      "outputs": [],
      "stateMutability": "payable",
      "type": "function",
      "payable": true
    },
    {
      "inputs": [
        {
          "internalType": "address",
          "name": "operator",
          "type": "address"
        },
        {
          "internalType": "bool",
          "name": "approved",
          "type": "bool"
        }
      ],
      "name": "setApprovalForAll",
      "outputs": [],
      "stateMutability": "nonpayable",
      "type": "function"
    },
    {
      "inputs": [
        {
          "internalType": "address",
          "name": "owner",
          "type": "address"
        },
        {
          "internalType": "address",
          "name": "operator",
          "type": "address"
        }
      ],
      "name": "isApprovedForAll",
      "outputs": [
        {
          "internalType": "bool",
          "name": "",
          "type": "bool"
        }
      ],
      "stateMutability": "view",
      "type": "function",
      "constant": true
    },
    {
      "inputs": [
        {
          "internalType": "address",
          "name": "from",
          "type": "address"
        },
        {
          "internalType": "address",
          "name": "to",
          "type": "address"
        },
        {
          "internalType": "uint256",
          "name": "tokenId",
          "type": "uint256"
        }
      ],
      "name": "transferFrom",
      "outputs": [],
      "stateMutability": "nonpayable",
      "type": "function"
    },
    {
      "inputs": [
        {
          "internalType": "address",
          "name": "from",
          "type": "address"
        },
        {
          "internalType": "address",
          "name": "to",
          "type": "address"
        },
        {
          "internalType": "uint256",
          "name": "tokenId",
          "type": "uint256"
        }
      ],
      "name": "safeTransferFrom",
      "outputs": [],
      "stateMutability": "nonpayable",
      "type": "function"
    },
    {
      "inputs": [
        {
          "internalType": "address",
          "name": "from",
          "type": "address"
        },
        {
          "internalType": "address",
          "name": "to",
          "type": "address"
        },
        {
          "internalType": "uint256",
          "name": "tokenId",
          "type": "uint256"
        },
        {
          "internalType": "bytes",
          "name": "_data",
          "type": "bytes"
        }
      ],
      "name": "safeTransferFrom",
      "outputs": [],
      "stateMutability": "nonpayable",
      "type": "function"
    }
  ],
  "bytecode": "0x60806040526000600c60016101000a81548160ff0219169083151502179055503480156200002c57600080fd5b506040518060400160405280600f81526020017f70617065726d6173746572732e696f00000000000000000000000000000000008152506040518060400160405280600381526020017f4e464900000000000000000000000000000000000000000000000000000000008152508160009080519060200190620000b19291906200046b565b508060019080519060200190620000ca9291906200046b565b505050620000ed620000e16200039d60201b60201c565b620003a560201b60201c565b6040518060400160405280601c81526020017f7777772e70617065726d6173746572732e696f2f6964656e7469747900000000815250600790805190602001906200013a9291906200046b565b5067016345785d8a000060088190555060096040518061014001604052803073ffffffffffffffffffffffffffffffffffffffff168152602001604051806020016040528060008152508152602001604051806020016040528060008152508152602001604051806020016040528060008152508152602001604051806020016040528060008152508152602001604051806020016040528060008152508152602001604051806020016040528060008152508152602001604051806020016040528060008152508152602001604051806020016040528060008152508152602001600081525090806001815401808255809150506001900390600052602060002090600a020160009091909190915060008201518160000160006101000a81548173ffffffffffffffffffffffffffffffffffffffff021916908373ffffffffffffffffffffffffffffffffffffffff1602179055506020820151816001019080519060200190620002af9291906200046b565b506040820151816002019080519060200190620002ce9291906200046b565b506060820151816003019080519060200190620002ed9291906200046b565b5060808201518160040190805190602001906200030c9291906200046b565b5060a08201518160050190805190602001906200032b9291906200046b565b5060c08201518160060190805190602001906200034a9291906200046b565b5060e0820151816007019080519060200190620003699291906200046b565b50610100820151816008019080519060200190620003899291906200046b565b506101208201518160090155505062000580565b600033905090565b6000600660009054906101000a900473ffffffffffffffffffffffffffffffffffffffff16905081600660006101000a81548173ffffffffffffffffffffffffffffffffffffffff021916908373ffffffffffffffffffffffffffffffffffffffff1602179055508173ffffffffffffffffffffffffffffffffffffffff168173ffffffffffffffffffffffffffffffffffffffff167f8be0079c531659141344cd1fd0a4f28419497f9722a3daafe3b4186f6b6457e060405160405180910390a35050565b82805462000479906200054a565b90600052602060002090601f0160209004810192826200049d5760008555620004e9565b82601f10620004b857805160ff1916838001178555620004e9565b82800160010185558215620004e9579182015b82811115620004e8578251825591602001919060010190620004cb565b5b509050620004f89190620004fc565b5090565b5b8082111562000517576000816000905550600101620004fd565b5090565b7f4e487b7100000000000000000000000000000000000000000000000000000000600052602260045260246000fd5b600060028204905060018216806200056357607f821691505b602082108114156200057a57620005796200051b565b5b50919050565b613e4280620005906000396000f3fe6080604052600436106101d15760003560e01c806370a08231116100f7578063adde18b011610095578063d0e30db011610064578063d0e30db014610694578063e985e9c51461069e578063f2fde38b146106db578063f9c1f36f14610704576101d8565b8063adde18b0146105b4578063b090218f146105f1578063b88d4fde1461062e578063c87b56dd14610657576101d8565b80638ae23730116100d15780638ae237301461050a5780638da5cb5b1461053557806395d89b4114610560578063a22cb4651461058b576101d8565b806370a082311461049f578063715018a6146104dc5780638456cb59146104f3576101d8565b806323b872dd1161016f57806342842e0e1161013e57806342842e0e146103e557806355f804b31461040e5780635c975abb146104375780636352211e14610462576101d8565b806323b872dd14610372578063269e12da1461039b5780633ccfd60b146103b75780633f4ba83a146103ce576101d8565b8063095ea7b3116101ab578063095ea7b3146102b65780630b3b1112146102df57806312065fe01461031c57806318160ddd14610347576101d8565b806301ffc9a71461021157806306fdde031461024e578063081812fc14610279576101d8565b366101d857005b7f909c57d5c6ac08245cf2a6de3900e2b868513fa59099b92b27d8db823d92df9c5a60405161020791906128cf565b60405180910390a1005b34801561021d57600080fd5b5061023860048036038101906102339190612956565b61072d565b604051610245919061299e565b60405180910390f35b34801561025a57600080fd5b5061026361080f565b6040516102709190612a52565b60405180910390f35b34801561028557600080fd5b506102a0600480360381019061029b9190612aa0565b6108a1565b6040516102ad9190612b0e565b60405180910390f35b3480156102c257600080fd5b506102dd60048036038101906102d89190612b55565b610926565b005b3480156102eb57600080fd5b5061030660048036038101906103019190612aa0565b610a3e565b6040516103139190612d08565b60405180910390f35b34801561032857600080fd5b50610331610f6b565b60405161033e91906128cf565b60405180910390f35b34801561035357600080fd5b5061035c610fef565b60405161036991906128cf565b60405180910390f35b34801561037e57600080fd5b5061039960048036038101906103949190612d2a565b610ffc565b005b6103b560048036038101906103b09190612eb2565b61107d565b005b3480156103c357600080fd5b506103cc611433565b005b3480156103da57600080fd5b506103e3611625565b005b3480156103f157600080fd5b5061040c60048036038101906104079190612d2a565b611703565b005b34801561041a57600080fd5b506104356004803603810190610430919061305c565b611784565b005b34801561044357600080fd5b5061044c61181a565b604051610459919061299e565b60405180910390f35b34801561046e57600080fd5b5061048960048036038101906104849190612aa0565b61182d565b6040516104969190612b0e565b60405180910390f35b3480156104ab57600080fd5b506104c660048036038101906104c191906130a5565b6118df565b6040516104d391906128cf565b60405180910390f35b3480156104e857600080fd5b506104f1611997565b005b3480156104ff57600080fd5b50610508611a1f565b005b34801561051657600080fd5b5061051f611afe565b60405161052c91906128cf565b60405180910390f35b34801561054157600080fd5b5061054a611b08565b6040516105579190612b0e565b60405180910390f35b34801561056c57600080fd5b50610575611b32565b6040516105829190612a52565b60405180910390f35b34801561059757600080fd5b506105b260048036038101906105ad91906130fe565b611bc4565b005b3480156105c057600080fd5b506105db60048036038101906105d691906130a5565b611c44565b6040516105e891906128cf565b60405180910390f35b3480156105fd57600080fd5b50610618600480360381019061061391906130a5565b611c8d565b604051610625919061299e565b60405180910390f35b34801561063a57600080fd5b50610655600480360381019061065091906131df565b611ca8565b005b34801561066357600080fd5b5061067e60048036038101906106799190612aa0565b611d2a565b60405161068b9190612a52565b60405180910390f35b61069c611dd7565b005b3480156106aa57600080fd5b506106c560048036038101906106c09190613262565b611eb1565b6040516106d2919061299e565b60405180910390f35b3480156106e757600080fd5b5061070260048036038101906106fd91906130a5565b611f35565b005b34801561071057600080fd5b5061072b60048036038101906107269190612aa0565b61202d565b005b60007f80ac58cd000000000000000000000000000000000000000000000000000000007bffffffffffffffffffffffffffffffffffffffffffffffffffffffff1916827bffffffffffffffffffffffffffffffffffffffffffffffffffffffff191614806107f857507f5b5e139f000000000000000000000000000000000000000000000000000000007bffffffffffffffffffffffffffffffffffffffffffffffffffffffff1916827bffffffffffffffffffffffffffffffffffffffffffffffffffffffff1916145b806108085750610807826120b3565b5b9050919050565b60606000805461081e906132d1565b80601f016020809104026020016040519081016040528092919081815260200182805461084a906132d1565b80156108975780601f1061086c57610100808354040283529160200191610897565b820191906000526020600020905b81548152906001019060200180831161087a57829003601f168201915b5050505050905090565b60006108ac8261211d565b6108eb576040517f08c379a00000000000000000000000000000000000000000000000000000000081526004016108e290613375565b60405180910390fd5b6004600083815260200190815260200160002060009054906101000a900473ffffffffffffffffffffffffffffffffffffffff169050919050565b60006109318261182d565b90508073ffffffffffffffffffffffffffffffffffffffff168373ffffffffffffffffffffffffffffffffffffffff1614156109a2576040517f08c379a000000000000000000000000000000000000000000000000000000000815260040161099990613407565b60405180910390fd5b8073ffffffffffffffffffffffffffffffffffffffff166109c1612189565b73ffffffffffffffffffffffffffffffffffffffff1614806109f057506109ef816109ea612189565b611eb1565b5b610a2f576040517f08c379a0000000000000000000000000000000000000000000000000000000008152600401610a2690613499565b60405180910390fd5b610a398383612191565b505050565b610a466127aa565b60098281548110610a5a57610a596134b9565b5b90600052602060002090600a0201604051806101400160405290816000820160009054906101000a900473ffffffffffffffffffffffffffffffffffffffff1673ffffffffffffffffffffffffffffffffffffffff1673ffffffffffffffffffffffffffffffffffffffff168152602001600182018054610ada906132d1565b80601f0160208091040260200160405190810160405280929190818152602001828054610b06906132d1565b8015610b535780601f10610b2857610100808354040283529160200191610b53565b820191906000526020600020905b815481529060010190602001808311610b3657829003601f168201915b50505050508152602001600282018054610b6c906132d1565b80601f0160208091040260200160405190810160405280929190818152602001828054610b98906132d1565b8015610be55780601f10610bba57610100808354040283529160200191610be5565b820191906000526020600020905b815481529060010190602001808311610bc857829003601f168201915b50505050508152602001600382018054610bfe906132d1565b80601f0160208091040260200160405190810160405280929190818152602001828054610c2a906132d1565b8015610c775780601f10610c4c57610100808354040283529160200191610c77565b820191906000526020600020905b815481529060010190602001808311610c5a57829003601f168201915b50505050508152602001600482018054610c90906132d1565b80601f0160208091040260200160405190810160405280929190818152602001828054610cbc906132d1565b8015610d095780601f10610cde57610100808354040283529160200191610d09565b820191906000526020600020905b815481529060010190602001808311610cec57829003601f168201915b50505050508152602001600582018054610d22906132d1565b80601f0160208091040260200160405190810160405280929190818152602001828054610d4e906132d1565b8015610d9b5780601f10610d7057610100808354040283529160200191610d9b565b820191906000526020600020905b815481529060010190602001808311610d7e57829003601f168201915b50505050508152602001600682018054610db4906132d1565b80601f0160208091040260200160405190810160405280929190818152602001828054610de0906132d1565b8015610e2d5780601f10610e0257610100808354040283529160200191610e2d565b820191906000526020600020905b815481529060010190602001808311610e1057829003601f168201915b50505050508152602001600782018054610e46906132d1565b80601f0160208091040260200160405190810160405280929190818152602001828054610e72906132d1565b8015610ebf5780601f10610e9457610100808354040283529160200191610ebf565b820191906000526020600020905b815481529060010190602001808311610ea257829003601f168201915b50505050508152602001600882018054610ed8906132d1565b80601f0160208091040260200160405190810160405280929190818152602001828054610f04906132d1565b8015610f515780601f10610f2657610100808354040283529160200191610f51565b820191906000526020600020905b815481529060010190602001808311610f3457829003601f168201915b505050505081526020016009820154815250509050919050565b6000610f75612189565b73ffffffffffffffffffffffffffffffffffffffff16610f93611b08565b73ffffffffffffffffffffffffffffffffffffffff1614610fe9576040517f08c379a0000000000000000000000000000000000000000000000000000000008152600401610fe090613534565b60405180910390fd5b47905090565b6000600980549050905090565b611004612189565b73ffffffffffffffffffffffffffffffffffffffff16611022611b08565b73ffffffffffffffffffffffffffffffffffffffff1614611078576040517f08c379a000000000000000000000000000000000000000000000000000000000815260040161106f90613534565b60405180910390fd5b505050565b600c60009054906101000a900460ff16156110cd576040517f08c379a00000000000000000000000000000000000000000000000000000000081526004016110c4906135a0565b60405180910390fd5b6001600c60006101000a81548160ff021916908315150217905550600c60019054906101000a900460ff161561110257600080fd5b61110b33611c8d565b1561114b576040517f08c379a000000000000000000000000000000000000000000000000000000000815260040161114290613632565b60405180910390fd5b600854341015611190576040517f08c379a0000000000000000000000000000000000000000000000000000000008152600401611187906136c4565b60405180910390fd5b60006040518061014001604052803373ffffffffffffffffffffffffffffffffffffffff1681526020018b81526020018a815260200189815260200188815260200187815260200186815260200185815260200184815260200183815250905060098190806001815401808255809150506001900390600052602060002090600a020160009091909190915060008201518160000160006101000a81548173ffffffffffffffffffffffffffffffffffffffff021916908373ffffffffffffffffffffffffffffffffffffffff160217905550602082015181600101908051906020019061127f929190612813565b50604082015181600201908051906020019061129c929190612813565b5060608201518160030190805190602001906112b9929190612813565b5060808201518160040190805190602001906112d6929190612813565b5060a08201518160050190805190602001906112f3929190612813565b5060c0820151816006019080519060200190611310929190612813565b5060e082015181600701908051906020019061132d929190612813565b5061010082015181600801908051906020019061134b929190612813565b50610120820151816009015550506000600160098054905061136d9190613713565b905080600a60003373ffffffffffffffffffffffffffffffffffffffff1673ffffffffffffffffffffffffffffffffffffffff168152602001908152602001600020819055506113bd338261224a565b3373ffffffffffffffffffffffffffffffffffffffff167f95a6674962ea809502bf598594df766970752159ed9a7a2e33bab16608e708cc8260405161140391906128cf565b60405180910390a250506000600c60006101000a81548160ff021916908315150217905550505050505050505050565b600c60009054906101000a900460ff1615611483576040517f08c379a000000000000000000000000000000000000000000000000000000000815260040161147a906135a0565b60405180910390fd5b6001600c60006101000a81548160ff0219169083151502179055506114a6612189565b73ffffffffffffffffffffffffffffffffffffffff166114c4611b08565b73ffffffffffffffffffffffffffffffffffffffff161461151a576040517f08c379a000000000000000000000000000000000000000000000000000000000815260040161151190613534565b60405180910390fd5b600047905060003373ffffffffffffffffffffffffffffffffffffffff168260405161154590613778565b60006040518083038185875af1925050503d8060008114611582576040519150601f19603f3d011682016040523d82523d6000602084013e611587565b606091505b50509050806115cb576040517f08c379a00000000000000000000000000000000000000000000000000000000081526004016115c2906137d9565b60405180910390fd5b7f71ef96c43343734b1d843bb85d52ef329f5e9143e4d35827771e3b0dd90c5f848247336040516115fe939291906137f9565b60405180910390a150506000600c60006101000a81548160ff021916908315150217905550565b61162d612189565b73ffffffffffffffffffffffffffffffffffffffff1661164b611b08565b73ffffffffffffffffffffffffffffffffffffffff16146116a1576040517f08c379a000000000000000000000000000000000000000000000000000000000815260040161169890613534565b60405180910390fd5b600c60019054906101000a900460ff166116ba57600080fd5b6000600c60016101000a81548160ff0219169083151502179055507f7805862f689e2f13df9f062ff482ad3ad112aca9e0847911ed832e158c525b3360405160405180910390a1565b61170b612189565b73ffffffffffffffffffffffffffffffffffffffff16611729611b08565b73ffffffffffffffffffffffffffffffffffffffff161461177f576040517f08c379a000000000000000000000000000000000000000000000000000000000815260040161177690613534565b60405180910390fd5b505050565b61178c612189565b73ffffffffffffffffffffffffffffffffffffffff166117aa611b08565b73ffffffffffffffffffffffffffffffffffffffff1614611800576040517f08c379a00000000000000000000000000000000000000000000000000000000081526004016117f790613534565b60405180910390fd5b8060079080519060200190611816929190612813565b5050565b600c60019054906101000a900460ff1681565b6000806002600084815260200190815260200160002060009054906101000a900473ffffffffffffffffffffffffffffffffffffffff169050600073ffffffffffffffffffffffffffffffffffffffff168173ffffffffffffffffffffffffffffffffffffffff1614156118d6576040517f08c379a00000000000000000000000000000000000000000000000000000000081526004016118cd906138a2565b60405180910390fd5b80915050919050565b60008073ffffffffffffffffffffffffffffffffffffffff168273ffffffffffffffffffffffffffffffffffffffff161415611950576040517f08c379a000000000000000000000000000000000000000000000000000000000815260040161194790613934565b60405180910390fd5b600360008373ffffffffffffffffffffffffffffffffffffffff1673ffffffffffffffffffffffffffffffffffffffff168152602001908152602001600020549050919050565b61199f612189565b73ffffffffffffffffffffffffffffffffffffffff166119bd611b08565b73ffffffffffffffffffffffffffffffffffffffff1614611a13576040517f08c379a0000000000000000000000000000000000000000000000000000000008152600401611a0a90613534565b60405180910390fd5b611a1d6000612268565b565b611a27612189565b73ffffffffffffffffffffffffffffffffffffffff16611a45611b08565b73ffffffffffffffffffffffffffffffffffffffff1614611a9b576040517f08c379a0000000000000000000000000000000000000000000000000000000008152600401611a9290613534565b60405180910390fd5b600c60019054906101000a900460ff1615611ab557600080fd5b6001600c60016101000a81548160ff0219169083151502179055507f6985a02210a168e66602d3235cb6db0e70f92b3ba4d376a33c0f3d9434bff62560405160405180910390a1565b6000600854905090565b6000600660009054906101000a900473ffffffffffffffffffffffffffffffffffffffff16905090565b606060018054611b41906132d1565b80601f0160208091040260200160405190810160405280929190818152602001828054611b6d906132d1565b8015611bba5780601f10611b8f57610100808354040283529160200191611bba565b820191906000526020600020905b815481529060010190602001808311611b9d57829003601f168201915b5050505050905090565b611bcc612189565b73ffffffffffffffffffffffffffffffffffffffff16611bea611b08565b73ffffffffffffffffffffffffffffffffffffffff1614611c40576040517f08c379a0000000000000000000000000000000000000000000000000000000008152600401611c3790613534565b60405180910390fd5b5050565b6000600a60008373ffffffffffffffffffffffffffffffffffffffff1673ffffffffffffffffffffffffffffffffffffffff168152602001908152602001600020549050919050565b600080611c9983611c44565b90506001811015915050919050565b611cb0612189565b73ffffffffffffffffffffffffffffffffffffffff16611cce611b08565b73ffffffffffffffffffffffffffffffffffffffff1614611d24576040517f08c379a0000000000000000000000000000000000000000000000000000000008152600401611d1b90613534565b60405180910390fd5b50505050565b6060611d358261211d565b611d74576040517f08c379a0000000000000000000000000000000000000000000000000000000008152600401611d6b906139c6565b60405180910390fd5b6000611d7f8361182d565b90506000611d8b61232e565b90506000815111611dab5760405180602001604052806000815250611dce565b8082604051602001611dbe929190613a6a565b6040516020818303038152906040525b92505050919050565b600034905034600b60003373ffffffffffffffffffffffffffffffffffffffff1673ffffffffffffffffffffffffffffffffffffffff1681526020019081526020016000206000828254611e2b9190613a92565b925050819055507fb9c87592ed73f7a26fff471ef513f8065a243208d84daa291fb0e770635014e2814733600b60003373ffffffffffffffffffffffffffffffffffffffff1673ffffffffffffffffffffffffffffffffffffffff16815260200190815260200160002054604051611ea69493929190613ae8565b60405180910390a150565b6000611ebb612189565b73ffffffffffffffffffffffffffffffffffffffff16611ed9611b08565b73ffffffffffffffffffffffffffffffffffffffff1614611f2f576040517f08c379a0000000000000000000000000000000000000000000000000000000008152600401611f2690613534565b60405180910390fd5b92915050565b611f3d612189565b73ffffffffffffffffffffffffffffffffffffffff16611f5b611b08565b73ffffffffffffffffffffffffffffffffffffffff1614611fb1576040517f08c379a0000000000000000000000000000000000000000000000000000000008152600401611fa890613534565b60405180910390fd5b600073ffffffffffffffffffffffffffffffffffffffff168173ffffffffffffffffffffffffffffffffffffffff161415612021576040517f08c379a000000000000000000000000000000000000000000000000000000000815260040161201890613b9f565b60405180910390fd5b61202a81612268565b50565b612035612189565b73ffffffffffffffffffffffffffffffffffffffff16612053611b08565b73ffffffffffffffffffffffffffffffffffffffff16146120a9576040517f08c379a00000000000000000000000000000000000000000000000000000000081526004016120a090613534565b60405180910390fd5b8060088190555050565b60007f01ffc9a7000000000000000000000000000000000000000000000000000000007bffffffffffffffffffffffffffffffffffffffffffffffffffffffff1916827bffffffffffffffffffffffffffffffffffffffffffffffffffffffff1916149050919050565b60008073ffffffffffffffffffffffffffffffffffffffff166002600084815260200190815260200160002060009054906101000a900473ffffffffffffffffffffffffffffffffffffffff1673ffffffffffffffffffffffffffffffffffffffff1614159050919050565b600033905090565b816004600083815260200190815260200160002060006101000a81548173ffffffffffffffffffffffffffffffffffffffff021916908373ffffffffffffffffffffffffffffffffffffffff160217905550808273ffffffffffffffffffffffffffffffffffffffff166122048361182d565b73ffffffffffffffffffffffffffffffffffffffff167f8c5be1e5ebec7d5bd14f71427d1e84f3dd0314c0f7b2291e5b200ac8c7c3b92560405160405180910390a45050565b6122648282604051806020016040528060008152506123c0565b5050565b6000600660009054906101000a900473ffffffffffffffffffffffffffffffffffffffff16905081600660006101000a81548173ffffffffffffffffffffffffffffffffffffffff021916908373ffffffffffffffffffffffffffffffffffffffff1602179055508173ffffffffffffffffffffffffffffffffffffffff168173ffffffffffffffffffffffffffffffffffffffff167f8be0079c531659141344cd1fd0a4f28419497f9722a3daafe3b4186f6b6457e060405160405180910390a35050565b60606007805461233d906132d1565b80601f0160208091040260200160405190810160405280929190818152602001828054612369906132d1565b80156123b65780601f1061238b576101008083540402835291602001916123b6565b820191906000526020600020905b81548152906001019060200180831161239957829003601f168201915b5050505050905090565b6123ca838361241b565b6123d760008484846125f5565b612416576040517f08c379a000000000000000000000000000000000000000000000000000000000815260040161240d90613c31565b60405180910390fd5b505050565b600073ffffffffffffffffffffffffffffffffffffffff168273ffffffffffffffffffffffffffffffffffffffff16141561248b576040517f08c379a000000000000000000000000000000000000000000000000000000000815260040161248290613c9d565b60405180910390fd5b6124948161211d565b156124d4576040517f08c379a00000000000000000000000000000000000000000000000000000000081526004016124cb90613d09565b60405180910390fd5b6124e06000838361277d565b6001600360008473ffffffffffffffffffffffffffffffffffffffff1673ffffffffffffffffffffffffffffffffffffffff16815260200190815260200160002060008282546125309190613a92565b92505081905550816002600083815260200190815260200160002060006101000a81548173ffffffffffffffffffffffffffffffffffffffff021916908373ffffffffffffffffffffffffffffffffffffffff160217905550808273ffffffffffffffffffffffffffffffffffffffff16600073ffffffffffffffffffffffffffffffffffffffff167fddf252ad1be2c89b69c2b068fc378daa952ba7f163c4a11628f55a4df523b3ef60405160405180910390a46125f160008383612782565b5050565b60006126168473ffffffffffffffffffffffffffffffffffffffff16612787565b15612770578373ffffffffffffffffffffffffffffffffffffffff1663150b7a0261263f612189565b8786866040518563ffffffff1660e01b81526004016126619493929190613d7e565b6020604051808303816000875af192505050801561269d57506040513d601f19601f8201168201806040525081019061269a9190613ddf565b60015b612720573d80600081146126cd576040519150601f19603f3d011682016040523d82523d6000602084013e6126d2565b606091505b50600081511415612718576040517f08c379a000000000000000000000000000000000000000000000000000000000815260040161270f90613c31565b60405180910390fd5b805181602001fd5b63150b7a0260e01b7bffffffffffffffffffffffffffffffffffffffffffffffffffffffff1916817bffffffffffffffffffffffffffffffffffffffffffffffffffffffff191614915050612775565b600190505b949350505050565b505050565b505050565b6000808273ffffffffffffffffffffffffffffffffffffffff163b119050919050565b604051806101400160405280600073ffffffffffffffffffffffffffffffffffffffff1681526020016060815260200160608152602001606081526020016060815260200160608152602001606081526020016060815260200160608152602001600081525090565b82805461281f906132d1565b90600052602060002090601f0160209004810192826128415760008555612888565b82601f1061285a57805160ff1916838001178555612888565b82800160010185558215612888579182015b8281111561288757825182559160200191906001019061286c565b5b5090506128959190612899565b5090565b5b808211156128b257600081600090555060010161289a565b5090565b6000819050919050565b6128c9816128b6565b82525050565b60006020820190506128e460008301846128c0565b92915050565b6000604051905090565b600080fd5b600080fd5b60007fffffffff0000000000000000000000000000000000000000000000000000000082169050919050565b612933816128fe565b811461293e57600080fd5b50565b6000813590506129508161292a565b92915050565b60006020828403121561296c5761296b6128f4565b5b600061297a84828501612941565b91505092915050565b60008115159050919050565b61299881612983565b82525050565b60006020820190506129b3600083018461298f565b92915050565b600081519050919050565b600082825260208201905092915050565b60005b838110156129f35780820151818401526020810190506129d8565b83811115612a02576000848401525b50505050565b6000601f19601f8301169050919050565b6000612a24826129b9565b612a2e81856129c4565b9350612a3e8185602086016129d5565b612a4781612a08565b840191505092915050565b60006020820190508181036000830152612a6c8184612a19565b905092915050565b612a7d816128b6565b8114612a8857600080fd5b50565b600081359050612a9a81612a74565b92915050565b600060208284031215612ab657612ab56128f4565b5b6000612ac484828501612a8b565b91505092915050565b600073ffffffffffffffffffffffffffffffffffffffff82169050919050565b6000612af882612acd565b9050919050565b612b0881612aed565b82525050565b6000602082019050612b236000830184612aff565b92915050565b612b3281612aed565b8114612b3d57600080fd5b50565b600081359050612b4f81612b29565b92915050565b60008060408385031215612b6c57612b6b6128f4565b5b6000612b7a85828601612b40565b9250506020612b8b85828601612a8b565b9150509250929050565b612b9e81612aed565b82525050565b600082825260208201905092915050565b6000612bc0826129b9565b612bca8185612ba4565b9350612bda8185602086016129d5565b612be381612a08565b840191505092915050565b612bf7816128b6565b82525050565b600061014083016000830151612c166000860182612b95565b5060208301518482036020860152612c2e8282612bb5565b91505060408301518482036040860152612c488282612bb5565b91505060608301518482036060860152612c628282612bb5565b91505060808301518482036080860152612c7c8282612bb5565b91505060a083015184820360a0860152612c968282612bb5565b91505060c083015184820360c0860152612cb08282612bb5565b91505060e083015184820360e0860152612cca8282612bb5565b915050610100830151848203610100860152612ce68282612bb5565b915050610120830151612cfd610120860182612bee565b508091505092915050565b60006020820190508181036000830152612d228184612bfd565b905092915050565b600080600060608486031215612d4357612d426128f4565b5b6000612d5186828701612b40565b9350506020612d6286828701612b40565b9250506040612d7386828701612a8b565b9150509250925092565b600080fd5b600080fd5b7f4e487b7100000000000000000000000000000000000000000000000000000000600052604160045260246000fd5b612dbf82612a08565b810181811067ffffffffffffffff82111715612dde57612ddd612d87565b5b80604052505050565b6000612df16128ea565b9050612dfd8282612db6565b919050565b600067ffffffffffffffff821115612e1d57612e1c612d87565b5b612e2682612a08565b9050602081019050919050565b82818337600083830152505050565b6000612e55612e5084612e02565b612de7565b905082815260208101848484011115612e7157612e70612d82565b5b612e7c848285612e33565b509392505050565b600082601f830112612e9957612e98612d7d565b5b8135612ea9848260208601612e42565b91505092915050565b60008060008060008060008060006101208a8c031215612ed557612ed46128f4565b5b60008a013567ffffffffffffffff811115612ef357612ef26128f9565b5b612eff8c828d01612e84565b99505060208a013567ffffffffffffffff811115612f2057612f1f6128f9565b5b612f2c8c828d01612e84565b98505060408a013567ffffffffffffffff811115612f4d57612f4c6128f9565b5b612f598c828d01612e84565b97505060608a013567ffffffffffffffff811115612f7a57612f796128f9565b5b612f868c828d01612e84565b96505060808a013567ffffffffffffffff811115612fa757612fa66128f9565b5b612fb38c828d01612e84565b95505060a08a013567ffffffffffffffff811115612fd457612fd36128f9565b5b612fe08c828d01612e84565b94505060c08a013567ffffffffffffffff811115613001576130006128f9565b5b61300d8c828d01612e84565b93505060e08a013567ffffffffffffffff81111561302e5761302d6128f9565b5b61303a8c828d01612e84565b92505061010061304c8c828d01612a8b565b9150509295985092959850929598565b600060208284031215613072576130716128f4565b5b600082013567ffffffffffffffff8111156130905761308f6128f9565b5b61309c84828501612e84565b91505092915050565b6000602082840312156130bb576130ba6128f4565b5b60006130c984828501612b40565b91505092915050565b6130db81612983565b81146130e657600080fd5b50565b6000813590506130f8816130d2565b92915050565b60008060408385031215613115576131146128f4565b5b600061312385828601612b40565b9250506020613134858286016130e9565b9150509250929050565b600067ffffffffffffffff82111561315957613158612d87565b5b61316282612a08565b9050602081019050919050565b600061318261317d8461313e565b612de7565b90508281526020810184848401111561319e5761319d612d82565b5b6131a9848285612e33565b509392505050565b600082601f8301126131c6576131c5612d7d565b5b81356131d684826020860161316f565b91505092915050565b600080600080608085870312156131f9576131f86128f4565b5b600061320787828801612b40565b945050602061321887828801612b40565b935050604061322987828801612a8b565b925050606085013567ffffffffffffffff81111561324a576132496128f9565b5b613256878288016131b1565b91505092959194509250565b60008060408385031215613279576132786128f4565b5b600061328785828601612b40565b925050602061329885828601612b40565b9150509250929050565b7f4e487b7100000000000000000000000000000000000000000000000000000000600052602260045260246000fd5b600060028204905060018216806132e957607f821691505b602082108114156132fd576132fc6132a2565b5b50919050565b7f4552433732313a20617070726f76656420717565727920666f72206e6f6e657860008201527f697374656e7420746f6b656e0000000000000000000000000000000000000000602082015250565b600061335f602c836129c4565b915061336a82613303565b604082019050919050565b6000602082019050818103600083015261338e81613352565b9050919050565b7f4552433732313a20617070726f76616c20746f2063757272656e74206f776e6560008201527f7200000000000000000000000000000000000000000000000000000000000000602082015250565b60006133f16021836129c4565b91506133fc82613395565b604082019050919050565b60006020820190508181036000830152613420816133e4565b9050919050565b7f4552433732313a20617070726f76652063616c6c6572206973206e6f74206f7760008201527f6e6572206e6f7220617070726f76656420666f7220616c6c0000000000000000602082015250565b60006134836038836129c4565b915061348e82613427565b604082019050919050565b600060208201905081810360008301526134b281613476565b9050919050565b7f4e487b7100000000000000000000000000000000000000000000000000000000600052603260045260246000fd5b7f4f776e61626c653a2063616c6c6572206973206e6f7420746865206f776e6572600082015250565b600061351e6020836129c4565b9150613529826134e8565b602082019050919050565b6000602082019050818103600083015261354d81613511565b9050919050565b7f4e6f2072652d656e7472616e6379000000000000000000000000000000000000600082015250565b600061358a600e836129c4565b915061359582613554565b602082019050919050565b600060208201905081810360008301526135b98161357d565b9050919050565b7f2057616c6c657420616c72656164792068617320616e204e46492120596f752060008201527f676574206f6e65207065722077616c6c6574206163636f756e74000000000000602082015250565b600061361c603a836129c4565b9150613627826135c0565b604082019050919050565b6000602082019050818103600083015261364b8161360f565b9050919050565b7f4e6f7420656e6f756768204554482073656e743b20636865636b20707269636560008201527f2100000000000000000000000000000000000000000000000000000000000000602082015250565b60006136ae6021836129c4565b91506136b982613652565b604082019050919050565b600060208201905081810360008301526136dd816136a1565b9050919050565b7f4e487b7100000000000000000000000000000000000000000000000000000000600052601160045260246000fd5b600061371e826128b6565b9150613729836128b6565b92508282101561373c5761373b6136e4565b5b828203905092915050565b600081905092915050565b50565b6000613762600083613747565b915061376d82613752565b600082019050919050565b600061378382613755565b9150819050919050565b7f5472616e73666572206661696c65642e00000000000000000000000000000000600082015250565b60006137c36010836129c4565b91506137ce8261378d565b602082019050919050565b600060208201905081810360008301526137f2816137b6565b9050919050565b600060608201905061380e60008301866128c0565b61381b60208301856128c0565b6138286040830184612aff565b949350505050565b7f4552433732313a206f776e657220717565727920666f72206e6f6e657869737460008201527f656e7420746f6b656e0000000000000000000000000000000000000000000000602082015250565b600061388c6029836129c4565b915061389782613830565b604082019050919050565b600060208201905081810360008301526138bb8161387f565b9050919050565b7f4552433732313a2062616c616e636520717565727920666f7220746865207a6560008201527f726f206164647265737300000000000000000000000000000000000000000000602082015250565b600061391e602a836129c4565b9150613929826138c2565b604082019050919050565b6000602082019050818103600083015261394d81613911565b9050919050565b7f4552433732314d657461646174613a2055524920717565727920666f72206e6f60008201527f6e6578697374656e7420746f6b656e0000000000000000000000000000000000602082015250565b60006139b0602f836129c4565b91506139bb82613954565b604082019050919050565b600060208201905081810360008301526139df816139a3565b9050919050565b600081905092915050565b60006139fc826129b9565b613a0681856139e6565b9350613a168185602086016129d5565b80840191505092915050565b60008160601b9050919050565b6000613a3a82613a22565b9050919050565b6000613a4c82613a2f565b9050919050565b613a64613a5f82612aed565b613a41565b82525050565b6000613a7682856139f1565b9150613a828284613a53565b6014820191508190509392505050565b6000613a9d826128b6565b9150613aa8836128b6565b9250827fffffffffffffffffffffffffffffffffffffffffffffffffffffffffffffffff03821115613add57613adc6136e4565b5b828201905092915050565b6000608082019050613afd60008301876128c0565b613b0a60208301866128c0565b613b176040830185612aff565b613b2460608301846128c0565b95945050505050565b7f4f776e61626c653a206e6577206f776e657220697320746865207a65726f206160008201527f6464726573730000000000000000000000000000000000000000000000000000602082015250565b6000613b896026836129c4565b9150613b9482613b2d565b604082019050919050565b60006020820190508181036000830152613bb881613b7c565b9050919050565b7f4552433732313a207472616e7366657220746f206e6f6e20455243373231526560008201527f63656976657220696d706c656d656e7465720000000000000000000000000000602082015250565b6000613c1b6032836129c4565b9150613c2682613bbf565b604082019050919050565b60006020820190508181036000830152613c4a81613c0e565b9050919050565b7f4552433732313a206d696e7420746f20746865207a65726f2061646472657373600082015250565b6000613c876020836129c4565b9150613c9282613c51565b602082019050919050565b60006020820190508181036000830152613cb681613c7a565b9050919050565b7f4552433732313a20746f6b656e20616c7265616479206d696e74656400000000600082015250565b6000613cf3601c836129c4565b9150613cfe82613cbd565b602082019050919050565b60006020820190508181036000830152613d2281613ce6565b9050919050565b600081519050919050565b600082825260208201905092915050565b6000613d5082613d29565b613d5a8185613d34565b9350613d6a8185602086016129d5565b613d7381612a08565b840191505092915050565b6000608082019050613d936000830187612aff565b613da06020830186612aff565b613dad60408301856128c0565b8181036060830152613dbf8184613d45565b905095945050505050565b600081519050613dd98161292a565b92915050565b600060208284031215613df557613df46128f4565b5b6000613e0384828501613dca565b9150509291505056fea264697066735822122003650905064828528fa412989f4014fa0ba10c4ff34821d1ba6d2e8b0ab7074f64736f6c634300080a0033",
  "immutableReferences": {},
  "source": "// SPDX-License-Identifier: GPL-3.0\r\npragma solidity >=0.8.0 <0.9.0;\r\n\r\nimport \"@openzeppelin/contracts/token/ERC721/ERC721.sol\";\r\nimport \"@openzeppelin/contracts/access/Ownable.sol\";\r\nimport \"@openzeppelin/contracts/token/ERC721/extensions/IERC721Metadata.sol\";\r\n\r\ncontract PaperMastersNFI is ERC721, Ownable {\r\n//do I need to bring in SafeMath???\r\n    string private _setBaseURI;\r\n    uint256 private identityFee;\r\n\r\n    struct identity\r\n    {\r\n        address walletAccount;\r\n        string name;\r\n        string email;\r\n        string profession;\r\n        string organization;\r\n        string slogan;\r\n        string website;\r\n        string uniqueYou;\r\n        string bgRGB;\r\n        uint originDate;\r\n    }\r\n\r\n    //an array of type identity of the total identities minted\r\n    identity[] totalIdentities;\r\n\r\n    //just making a generic mapping of address to number\r\n    mapping(address => uint256) _dictionaryNFIs;\r\n    mapping(address => uint256) _supportPMDonations;\r\n\r\n    //prevents ren-entry when modifier is added to a function\r\n    bool internal locked;\r\n    modifier noReentrant() {\r\n        require(!locked, \"No re-entrancy\");\r\n        locked = true;\r\n        _;\r\n        locked = false;\r\n    }\r\n\r\n    constructor() ERC721(\"papermasters.io\", \"NFI\") {\r\n        _setBaseURI = \"www.papermasters.io/identity\";\r\n        identityFee = 100000000000000000;\r\n        totalIdentities.push(identity(address(this),'','','','','','','','',0)); // This is needed to fill the 0 token. The 0 Token is an invalid token\r\n    }\r\n\r\n    function addressToTokenID(address walletAddress) public view returns(uint256) {\r\n        return _dictionaryNFIs[walletAddress];\r\n    }\r\n\r\n    function tokenIDtoIdentity(uint256 _tokenid) public view returns(identity memory) {\r\n        return totalIdentities[_tokenid];\r\n    }\r\n\r\n\r\n    function addressHasToken(address walletAddress) public view returns(bool) {\r\n        uint256 _tokenId = addressToTokenID(walletAddress);\r\n        return _tokenId >= 1;\r\n    }\r\n\r\n    function setBaseURI(string memory changeBaseURI) public onlyOwner{\r\n        _setBaseURI = changeBaseURI;\r\n    }\r\n\r\n    function _baseURI() internal view virtual override returns (string memory) {\r\n        return _setBaseURI;\r\n    }\r\n\r\n    function tokenURI(uint256 tokenId) public view virtual override returns (string memory) {\r\n        require(_exists(tokenId), \"ERC721Metadata: URI query for nonexistent token\");\r\n\r\n        address owner = ownerOf(tokenId);\r\n\r\n        string memory baseURI = _baseURI();\r\n\r\n        return bytes(baseURI).length > 0 ? string(abi.encodePacked(baseURI, owner)) : \"\";\r\n    }\r\n\r\n    function getIdentityFee() public view returns (uint256) {\r\n        return identityFee;\r\n    }\r\n\r\n    function setIdentityFee(uint256 val) external onlyOwner {\r\n        identityFee = val;\r\n    }\r\n\r\n    event Log(uint gas);\r\n\r\n    // Fallback function must be declared as external.\r\n    fallback() external payable {\r\n        // send / transfer (forwards 2300 gas to this fallback function)\r\n        // call (forwards all of the gas)\r\n        emit Log(gasleft());\r\n    }\r\n\r\n    receive() external payable {}\r\n\r\n    function deposit() public payable {\r\n        uint amount = msg.value;\r\n        _supportPMDonations[msg.sender] += msg.value;\r\n        emit DonationMade(amount, address(this).balance, msg.sender, _supportPMDonations[msg.sender]);\r\n    }\r\n        event DonationMade(uint256 amount, uint balance, address donationSender, uint totalDonationsBySender);\r\n\r\n\r\n    function getBalance() public view onlyOwner returns (uint) {\r\n        return address(this).balance;\r\n    }\r\n\r\n    function withdraw() external noReentrant onlyOwner{\r\n        // This forwards all available gas. Be sure to check the return value!\r\n        uint amount = address(this).balance;\r\n        (bool success, ) = msg.sender.call{value: amount}(\"\");\r\n        require(success, \"Transfer failed.\");\r\n        emit Withdraw(amount, address(this).balance, msg.sender);\r\n    }\r\n    event Withdraw(uint256 amount, uint256 balance, address withdrawAddress);\r\n\r\n    function totalSupply() public view returns (uint256) {\r\n        return totalIdentities.length;\r\n    }\r\n\r\n    event Pause();\r\n    event Unpause();\r\n\r\n    bool public paused = false;\r\n\r\n    modifier whenNotPaused() {\r\n        require(!paused);\r\n        _;\r\n    }\r\n\r\n    modifier whenPaused() {\r\n        require(paused);\r\n        _;\r\n    }\r\n\r\n    function pause() onlyOwner whenNotPaused public {\r\n        paused = true;\r\n        emit Pause();\r\n    }\r\n\r\n    function unpause() onlyOwner whenPaused public {\r\n        paused = false;\r\n        emit Unpause();\r\n    }\r\n\r\n    function mintNFI (\r\n        string memory _name,\r\n        string memory _email,\r\n        string memory _profession,\r\n        string memory _organization,\r\n        string memory _slogan,\r\n        string memory _website,\r\n        string memory _uniqueYou,\r\n        string memory _bgRGB,\r\n        uint _originDate\r\n    ) public virtual noReentrant payable whenNotPaused\r\n    {\r\n        require(!addressHasToken(msg.sender),\" Wallet already has an NFI! You get one per wallet account\");\r\n        require(msg.value >= identityFee, \"Not enough ETH sent; check price!\");\r\n\r\n        identity memory _identity = identity({\r\n        walletAccount: msg.sender,\r\n        name: _name,\r\n        email: _email,\r\n        profession: _profession,\r\n        organization: _organization,\r\n        slogan: _slogan,\r\n        website: _website,\r\n        uniqueYou: _uniqueYou,\r\n        bgRGB: _bgRGB,\r\n        originDate: _originDate\r\n        });\r\n\r\n        totalIdentities.push(_identity);\r\n\r\n        uint256 newTokenID = totalIdentities.length - 1;\r\n\r\n        _dictionaryNFIs[msg.sender] = newTokenID;\r\n\r\n        _safeMint(msg.sender, newTokenID);\r\n\r\n        emit NFIMinted(msg.sender, newTokenID);\r\n\r\n    }\r\n    event NFIMinted(address indexed _from, uint256 tokenId);\r\n\r\n    function setApprovalForAll(address operator, bool approved) public virtual override onlyOwner{}\r\n    function isApprovedForAll(address owner, address operator) public view virtual override onlyOwner returns (bool) {}\r\n    function transferFrom(address from, address to, uint256 tokenId) public virtual override onlyOwner{}\r\n    function safeTransferFrom(address from, address to, uint256 tokenId) public virtual override  onlyOwner {}\r\n    function safeTransferFrom(address from, address to, uint256 tokenId, bytes memory _data) public virtual override onlyOwner {}\r\n    function _safeTransfer(address from, address to, uint256 tokenId, bytes memory _data) internal virtual override onlyOwner {}\r\n\r\n}",
  "sourcePath": "/home/ramona/gitrepos/MintIdentityTPM/truffle/contracts/MintIdentity.sol",
  "compiler": {
    "name": "solc",
    "version": "0.8.10+commit.fc410830.Emscripten.clang"
  },
  "schemaVersion": "3.4.4",
  "updatedAt": "2022-02-21T20:21:56.553Z",
  "networkType": "ethereum",
  "devdoc": {
    "kind": "dev",
    "methods": {
      "approve(address,uint256)": {
        "details": "See {IERC721-approve}."
      },
      "balanceOf(address)": {
        "details": "See {IERC721-balanceOf}."
      },
      "getApproved(uint256)": {
        "details": "See {IERC721-getApproved}."
      },
      "isApprovedForAll(address,address)": {
        "details": "See {IERC721-isApprovedForAll}."
      },
      "name()": {
        "details": "See {IERC721Metadata-name}."
      },
      "owner()": {
        "details": "Returns the address of the current owner."
      },
      "ownerOf(uint256)": {
        "details": "See {IERC721-ownerOf}."
      },
      "renounceOwnership()": {
        "details": "Leaves the contract without owner. It will not be possible to call `onlyOwner` functions anymore. Can only be called by the current owner. NOTE: Renouncing ownership will leave the contract without an owner, thereby removing any functionality that is only available to the owner."
      },
      "safeTransferFrom(address,address,uint256)": {
        "details": "See {IERC721-safeTransferFrom}."
      },
      "safeTransferFrom(address,address,uint256,bytes)": {
        "details": "See {IERC721-safeTransferFrom}."
      },
      "setApprovalForAll(address,bool)": {
        "details": "See {IERC721-setApprovalForAll}."
      },
      "supportsInterface(bytes4)": {
        "details": "See {IERC165-supportsInterface}."
      },
      "symbol()": {
        "details": "See {IERC721Metadata-symbol}."
      },
      "tokenURI(uint256)": {
        "details": "See {IERC721Metadata-tokenURI}."
      },
      "transferFrom(address,address,uint256)": {
        "details": "See {IERC721-transferFrom}."
      },
      "transferOwnership(address)": {
        "details": "Transfers ownership of the contract to a new account (`newOwner`). Can only be called by the current owner."
      }
    },
    "version": 1
  },
  "userdoc": {
    "kind": "user",
    "methods": {},
    "version": 1
  }
}