{
  "contractName": "PaperMastersNFI",
  "abi": [
    {
      "inputs": [],
      "stateMutability": "nonpayable",
      "type": "constructor"
    },
    {
      "anonymous": false,
      "inputs": [
        {
          "indexed": true,
          "internalType": "address",
          "name": "owner",
          "type": "address"
        },
        {
          "indexed": true,
          "internalType": "address",
          "name": "approved",
          "type": "address"
        },
        {
          "indexed": true,
          "internalType": "uint256",
          "name": "tokenId",
          "type": "uint256"
        }
      ],
      "name": "Approval",
      "type": "event"
    },
    {
      "anonymous": false,
      "inputs": [
        {
          "indexed": true,
          "internalType": "address",
          "name": "owner",
          "type": "address"
        },
        {
          "indexed": true,
          "internalType": "address",
          "name": "operator",
          "type": "address"
        },
        {
          "indexed": false,
          "internalType": "bool",
          "name": "approved",
          "type": "bool"
        }
      ],
      "name": "ApprovalForAll",
      "type": "event"
    },
    {
      "anonymous": false,
      "inputs": [
        {
          "indexed": false,
          "internalType": "uint256",
          "name": "amount",
          "type": "uint256"
        },
        {
          "indexed": false,
          "internalType": "uint256",
          "name": "balance",
          "type": "uint256"
        },
        {
          "indexed": false,
          "internalType": "address",
          "name": "donationSender",
          "type": "address"
        },
        {
          "indexed": false,
          "internalType": "uint256",
          "name": "totalDonationsBySender",
          "type": "uint256"
        }
      ],
      "name": "DonationMade",
      "type": "event"
    },
    {
      "anonymous": false,
      "inputs": [
        {
          "indexed": false,
          "internalType": "uint256",
          "name": "gas",
          "type": "uint256"
        }
      ],
      "name": "Log",
      "type": "event"
    },
    {
      "anonymous": false,
      "inputs": [
        {
          "indexed": true,
          "internalType": "address",
          "name": "_from",
          "type": "address"
        },
        {
          "indexed": false,
          "internalType": "uint256",
          "name": "tokenId",
          "type": "uint256"
        },
        {
          "indexed": false,
          "internalType": "uint256",
          "name": "timeStamp",
          "type": "uint256"
        },
        {
          "indexed": false,
          "internalType": "uint256",
          "name": "contractFee",
          "type": "uint256"
        },
        {
          "components": [
            {
              "internalType": "address",
              "name": "walletAccount",
              "type": "address"
            },
            {
              "internalType": "string",
              "name": "name",
              "type": "string"
            },
            {
              "internalType": "string",
              "name": "email",
              "type": "string"
            },
            {
              "internalType": "string",
              "name": "profession",
              "type": "string"
            },
            {
              "internalType": "string",
              "name": "organization",
              "type": "string"
            },
            {
              "internalType": "string",
              "name": "slogan",
              "type": "string"
            },
            {
              "internalType": "string",
              "name": "website",
              "type": "string"
            },
            {
              "internalType": "string",
              "name": "uniqueYou",
              "type": "string"
            },
            {
              "internalType": "string",
              "name": "bgRGB",
              "type": "string"
            },
            {
              "internalType": "uint256",
              "name": "originDate",
              "type": "uint256"
            }
          ],
          "indexed": false,
          "internalType": "struct PaperMastersNFI.identity",
          "name": "identityStruct",
          "type": "tuple"
        }
      ],
      "name": "NFIMinted",
      "type": "event"
    },
    {
      "anonymous": false,
      "inputs": [
        {
          "indexed": true,
          "internalType": "address",
          "name": "previousOwner",
          "type": "address"
        },
        {
          "indexed": true,
          "internalType": "address",
          "name": "newOwner",
          "type": "address"
        }
      ],
      "name": "OwnershipTransferred",
      "type": "event"
    },
    {
      "anonymous": false,
      "inputs": [],
      "name": "Pause",
      "type": "event"
    },
    {
      "anonymous": false,
      "inputs": [
        {
          "indexed": true,
          "internalType": "address",
          "name": "from",
          "type": "address"
        },
        {
          "indexed": true,
          "internalType": "address",
          "name": "to",
          "type": "address"
        },
        {
          "indexed": true,
          "internalType": "uint256",
          "name": "tokenId",
          "type": "uint256"
        }
      ],
      "name": "Transfer",
      "type": "event"
    },
    {
      "anonymous": false,
      "inputs": [],
      "name": "Unpause",
      "type": "event"
    },
    {
      "anonymous": false,
      "inputs": [
        {
          "indexed": false,
          "internalType": "uint256",
          "name": "amount",
          "type": "uint256"
        },
        {
          "indexed": false,
          "internalType": "uint256",
          "name": "balance",
          "type": "uint256"
        },
        {
          "indexed": false,
          "internalType": "address",
          "name": "withdrawAddress",
          "type": "address"
        }
      ],
      "name": "Withdraw",
      "type": "event"
    },
    {
      "stateMutability": "payable",
      "type": "fallback",
      "payable": true
    },
    {
      "inputs": [
        {
          "internalType": "address",
          "name": "to",
          "type": "address"
        },
        {
          "internalType": "uint256",
          "name": "tokenId",
          "type": "uint256"
        }
      ],
      "name": "approve",
      "outputs": [],
      "stateMutability": "nonpayable",
      "type": "function"
    },
    {
      "inputs": [
        {
          "internalType": "address",
          "name": "owner",
          "type": "address"
        }
      ],
      "name": "balanceOf",
      "outputs": [
        {
          "internalType": "uint256",
          "name": "",
          "type": "uint256"
        }
      ],
      "stateMutability": "view",
      "type": "function",
      "constant": true
    },
    {
      "inputs": [
        {
          "internalType": "uint256",
          "name": "tokenId",
          "type": "uint256"
        }
      ],
      "name": "getApproved",
      "outputs": [
        {
          "internalType": "address",
          "name": "",
          "type": "address"
        }
      ],
      "stateMutability": "view",
      "type": "function",
      "constant": true
    },
    {
      "inputs": [],
      "name": "name",
      "outputs": [
        {
          "internalType": "string",
          "name": "",
          "type": "string"
        }
      ],
      "stateMutability": "view",
      "type": "function",
      "constant": true
    },
    {
      "inputs": [],
      "name": "owner",
      "outputs": [
        {
          "internalType": "address",
          "name": "",
          "type": "address"
        }
      ],
      "stateMutability": "view",
      "type": "function",
      "constant": true
    },
    {
      "inputs": [
        {
          "internalType": "uint256",
          "name": "tokenId",
          "type": "uint256"
        }
      ],
      "name": "ownerOf",
      "outputs": [
        {
          "internalType": "address",
          "name": "",
          "type": "address"
        }
      ],
      "stateMutability": "view",
      "type": "function",
      "constant": true
    },
    {
      "inputs": [],
      "name": "paused",
      "outputs": [
        {
          "internalType": "bool",
          "name": "",
          "type": "bool"
        }
      ],
      "stateMutability": "view",
      "type": "function",
      "constant": true
    },
    {
      "inputs": [],
      "name": "renounceOwnership",
      "outputs": [],
      "stateMutability": "nonpayable",
      "type": "function"
    },
    {
      "inputs": [
        {
          "internalType": "bytes4",
          "name": "interfaceId",
          "type": "bytes4"
        }
      ],
      "name": "supportsInterface",
      "outputs": [
        {
          "internalType": "bool",
          "name": "",
          "type": "bool"
        }
      ],
      "stateMutability": "view",
      "type": "function",
      "constant": true
    },
    {
      "inputs": [],
      "name": "symbol",
      "outputs": [
        {
          "internalType": "string",
          "name": "",
          "type": "string"
        }
      ],
      "stateMutability": "view",
      "type": "function",
      "constant": true
    },
    {
      "inputs": [
        {
          "internalType": "address",
          "name": "newOwner",
          "type": "address"
        }
      ],
      "name": "transferOwnership",
      "outputs": [],
      "stateMutability": "nonpayable",
      "type": "function"
    },
    {
      "stateMutability": "payable",
      "type": "receive",
      "payable": true
    },
    {
      "inputs": [
        {
          "internalType": "address",
          "name": "walletAddress",
          "type": "address"
        }
      ],
      "name": "addressToTokenID",
      "outputs": [
        {
          "internalType": "uint256",
          "name": "",
          "type": "uint256"
        }
      ],
      "stateMutability": "view",
      "type": "function",
      "constant": true
    },
    {
      "inputs": [
        {
          "internalType": "uint256",
          "name": "_tokenid",
          "type": "uint256"
        }
      ],
      "name": "tokenIDtoIdentityStruct",
      "outputs": [
        {
          "components": [
            {
              "internalType": "address",
              "name": "walletAccount",
              "type": "address"
            },
            {
              "internalType": "string",
              "name": "name",
              "type": "string"
            },
            {
              "internalType": "string",
              "name": "email",
              "type": "string"
            },
            {
              "internalType": "string",
              "name": "profession",
              "type": "string"
            },
            {
              "internalType": "string",
              "name": "organization",
              "type": "string"
            },
            {
              "internalType": "string",
              "name": "slogan",
              "type": "string"
            },
            {
              "internalType": "string",
              "name": "website",
              "type": "string"
            },
            {
              "internalType": "string",
              "name": "uniqueYou",
              "type": "string"
            },
            {
              "internalType": "string",
              "name": "bgRGB",
              "type": "string"
            },
            {
              "internalType": "uint256",
              "name": "originDate",
              "type": "uint256"
            }
          ],
          "internalType": "struct PaperMastersNFI.identity",
          "name": "",
          "type": "tuple"
        }
      ],
      "stateMutability": "view",
      "type": "function",
      "constant": true
    },
    {
      "inputs": [
        {
          "internalType": "address",
          "name": "walletAddress",
          "type": "address"
        }
      ],
      "name": "addressHasTokenBool",
      "outputs": [
        {
          "internalType": "bool",
          "name": "",
          "type": "bool"
        }
      ],
      "stateMutability": "view",
      "type": "function",
      "constant": true
    },
    {
      "inputs": [
        {
          "internalType": "address",
          "name": "walletAddress",
          "type": "address"
        }
      ],
      "name": "addressToIdentityStruct",
      "outputs": [
        {
          "components": [
            {
              "internalType": "address",
              "name": "walletAccount",
              "type": "address"
            },
            {
              "internalType": "string",
              "name": "name",
              "type": "string"
            },
            {
              "internalType": "string",
              "name": "email",
              "type": "string"
            },
            {
              "internalType": "string",
              "name": "profession",
              "type": "string"
            },
            {
              "internalType": "string",
              "name": "organization",
              "type": "string"
            },
            {
              "internalType": "string",
              "name": "slogan",
              "type": "string"
            },
            {
              "internalType": "string",
              "name": "website",
              "type": "string"
            },
            {
              "internalType": "string",
              "name": "uniqueYou",
              "type": "string"
            },
            {
              "internalType": "string",
              "name": "bgRGB",
              "type": "string"
            },
            {
              "internalType": "uint256",
              "name": "originDate",
              "type": "uint256"
            }
          ],
          "internalType": "struct PaperMastersNFI.identity",
          "name": "",
          "type": "tuple"
        }
      ],
      "stateMutability": "view",
      "type": "function",
      "constant": true
    },
    {
      "inputs": [],
      "name": "allIdentityStructs",
      "outputs": [
        {
          "components": [
            {
              "internalType": "address",
              "name": "walletAccount",
              "type": "address"
            },
            {
              "internalType": "string",
              "name": "name",
              "type": "string"
            },
            {
              "internalType": "string",
              "name": "email",
              "type": "string"
            },
            {
              "internalType": "string",
              "name": "profession",
              "type": "string"
            },
            {
              "internalType": "string",
              "name": "organization",
              "type": "string"
            },
            {
              "internalType": "string",
              "name": "slogan",
              "type": "string"
            },
            {
              "internalType": "string",
              "name": "website",
              "type": "string"
            },
            {
              "internalType": "string",
              "name": "uniqueYou",
              "type": "string"
            },
            {
              "internalType": "string",
              "name": "bgRGB",
              "type": "string"
            },
            {
              "internalType": "uint256",
              "name": "originDate",
              "type": "uint256"
            }
          ],
          "internalType": "struct PaperMastersNFI.identity[]",
          "name": "",
          "type": "tuple[]"
        }
      ],
      "stateMutability": "view",
      "type": "function",
      "constant": true
    },
    {
      "inputs": [
        {
          "internalType": "string",
          "name": "changeBaseURI",
          "type": "string"
        }
      ],
      "name": "setBaseURI",
      "outputs": [],
      "stateMutability": "nonpayable",
      "type": "function"
    },
    {
      "inputs": [
        {
          "internalType": "uint256",
          "name": "tokenId",
          "type": "uint256"
        }
      ],
      "name": "tokenURI",
      "outputs": [
        {
          "internalType": "string",
          "name": "",
          "type": "string"
        }
      ],
      "stateMutability": "view",
      "type": "function",
      "constant": true
    },
    {
      "inputs": [],
      "name": "getIdentityFee",
      "outputs": [
        {
          "internalType": "uint256",
          "name": "",
          "type": "uint256"
        }
      ],
      "stateMutability": "view",
      "type": "function",
      "constant": true
    },
    {
      "inputs": [
        {
          "internalType": "uint256",
          "name": "val",
          "type": "uint256"
        }
      ],
      "name": "setIdentityFee",
      "outputs": [],
      "stateMutability": "nonpayable",
      "type": "function"
    },
    {
      "inputs": [],
      "name": "deposit",
      "outputs": [],
      "stateMutability": "payable",
      "type": "function",
      "payable": true
    },
    {
      "inputs": [],
      "name": "getBalance",
      "outputs": [
        {
          "internalType": "uint256",
          "name": "",
          "type": "uint256"
        }
      ],
      "stateMutability": "view",
      "type": "function",
      "constant": true
    },
    {
      "inputs": [],
      "name": "withdraw",
      "outputs": [],
      "stateMutability": "nonpayable",
      "type": "function"
    },
    {
      "inputs": [],
      "name": "totalSupply",
      "outputs": [
        {
          "internalType": "uint256",
          "name": "",
          "type": "uint256"
        }
      ],
      "stateMutability": "view",
      "type": "function",
      "constant": true
    },
    {
      "inputs": [],
      "name": "pause",
      "outputs": [],
      "stateMutability": "nonpayable",
      "type": "function"
    },
    {
      "inputs": [],
      "name": "unpause",
      "outputs": [],
      "stateMutability": "nonpayable",
      "type": "function"
    },
    {
      "inputs": [
        {
          "internalType": "string",
          "name": "_name",
          "type": "string"
        },
        {
          "internalType": "string",
          "name": "_email",
          "type": "string"
        },
        {
          "internalType": "string",
          "name": "_profession",
          "type": "string"
        },
        {
          "internalType": "string",
          "name": "_organization",
          "type": "string"
        },
        {
          "internalType": "string",
          "name": "_slogan",
          "type": "string"
        },
        {
          "internalType": "string",
          "name": "_website",
          "type": "string"
        },
        {
          "internalType": "string",
          "name": "_uniqueYou",
          "type": "string"
        },
        {
          "internalType": "string",
          "name": "_bgRGB",
          "type": "string"
        },
        {
          "internalType": "uint256",
          "name": "_originDate",
          "type": "uint256"
        }
      ],
      "name": "mintNFI",
      "outputs": [],
      "stateMutability": "payable",
      "type": "function",
      "payable": true
    },
    {
      "inputs": [
        {
          "internalType": "address",
          "name": "operator",
          "type": "address"
        },
        {
          "internalType": "bool",
          "name": "approved",
          "type": "bool"
        }
      ],
      "name": "setApprovalForAll",
      "outputs": [],
      "stateMutability": "nonpayable",
      "type": "function"
    },
    {
      "inputs": [
        {
          "internalType": "address",
          "name": "owner",
          "type": "address"
        },
        {
          "internalType": "address",
          "name": "operator",
          "type": "address"
        }
      ],
      "name": "isApprovedForAll",
      "outputs": [
        {
          "internalType": "bool",
          "name": "",
          "type": "bool"
        }
      ],
      "stateMutability": "view",
      "type": "function",
      "constant": true
    },
    {
      "inputs": [
        {
          "internalType": "address",
          "name": "from",
          "type": "address"
        },
        {
          "internalType": "address",
          "name": "to",
          "type": "address"
        },
        {
          "internalType": "uint256",
          "name": "tokenId",
          "type": "uint256"
        }
      ],
      "name": "transferFrom",
      "outputs": [],
      "stateMutability": "nonpayable",
      "type": "function"
    },
    {
      "inputs": [
        {
          "internalType": "address",
          "name": "from",
          "type": "address"
        },
        {
          "internalType": "address",
          "name": "to",
          "type": "address"
        },
        {
          "internalType": "uint256",
          "name": "tokenId",
          "type": "uint256"
        }
      ],
      "name": "safeTransferFrom",
      "outputs": [],
      "stateMutability": "nonpayable",
      "type": "function"
    },
    {
      "inputs": [
        {
          "internalType": "address",
          "name": "from",
          "type": "address"
        },
        {
          "internalType": "address",
          "name": "to",
          "type": "address"
        },
        {
          "internalType": "uint256",
          "name": "tokenId",
          "type": "uint256"
        },
        {
          "internalType": "bytes",
          "name": "_data",
          "type": "bytes"
        }
      ],
      "name": "safeTransferFrom",
      "outputs": [],
      "stateMutability": "nonpayable",
      "type": "function"
    }
  ],
  "bytecode": "0x60806040526000600c60016101000a81548160ff0219169083151502179055503480156200002c57600080fd5b506040518060400160405280600f81526020017f70617065726d6173746572732e696f00000000000000000000000000000000008152506040518060400160405280600381526020017f4e464900000000000000000000000000000000000000000000000000000000008152508160009080519060200190620000b19291906200046b565b508060019080519060200190620000ca9291906200046b565b505050620000ed620000e16200039d60201b60201c565b620003a560201b60201c565b6040518060400160405280601c81526020017f7777772e70617065726d6173746572732e696f2f6964656e7469747900000000815250600790805190602001906200013a9291906200046b565b5067016345785d8a000060088190555060096040518061014001604052803073ffffffffffffffffffffffffffffffffffffffff168152602001604051806020016040528060008152508152602001604051806020016040528060008152508152602001604051806020016040528060008152508152602001604051806020016040528060008152508152602001604051806020016040528060008152508152602001604051806020016040528060008152508152602001604051806020016040528060008152508152602001604051806020016040528060008152508152602001600081525090806001815401808255809150506001900390600052602060002090600a020160009091909190915060008201518160000160006101000a81548173ffffffffffffffffffffffffffffffffffffffff021916908373ffffffffffffffffffffffffffffffffffffffff1602179055506020820151816001019080519060200190620002af9291906200046b565b506040820151816002019080519060200190620002ce9291906200046b565b506060820151816003019080519060200190620002ed9291906200046b565b5060808201518160040190805190602001906200030c9291906200046b565b5060a08201518160050190805190602001906200032b9291906200046b565b5060c08201518160060190805190602001906200034a9291906200046b565b5060e0820151816007019080519060200190620003699291906200046b565b50610100820151816008019080519060200190620003899291906200046b565b506101208201518160090155505062000580565b600033905090565b6000600660009054906101000a900473ffffffffffffffffffffffffffffffffffffffff16905081600660006101000a81548173ffffffffffffffffffffffffffffffffffffffff021916908373ffffffffffffffffffffffffffffffffffffffff1602179055508173ffffffffffffffffffffffffffffffffffffffff168173ffffffffffffffffffffffffffffffffffffffff167f8be0079c531659141344cd1fd0a4f28419497f9722a3daafe3b4186f6b6457e060405160405180910390a35050565b82805462000479906200054a565b90600052602060002090601f0160209004810192826200049d5760008555620004e9565b82601f10620004b857805160ff1916838001178555620004e9565b82800160010185558215620004e9579182015b82811115620004e8578251825591602001919060010190620004cb565b5b509050620004f89190620004fc565b5090565b5b8082111562000517576000816000905550600101620004fd565b5090565b7f4e487b7100000000000000000000000000000000000000000000000000000000600052602260045260246000fd5b600060028204905060018216806200056357607f821691505b602082108114156200057a57620005796200051b565b5b50919050565b614b8c80620005906000396000f3fe6080604052600436106101e75760003560e01c806363b9910f11610102578063a3925b2511610095578063d0e30db011610064578063d0e30db014610712578063e985e9c51461071c578063f2fde38b14610759578063f9c1f36f14610782576101ee565b8063a3925b2514610632578063adde18b01461066f578063b88d4fde146106ac578063c87b56dd146106d5576101ee565b80638ae23730116100d15780638ae23730146105885780638da5cb5b146105b357806395d89b41146105de578063a22cb46514610609576101ee565b806363b9910f146104f257806370a082311461051d578063715018a61461055a5780638456cb5914610571576101ee565b8063269e12da1161017a578063532de8e911610149578063532de8e91461042457806355f804b3146104615780635c975abb1461048a5780636352211e146104b5576101ee565b8063269e12da146103b15780633ccfd60b146103cd5780633f4ba83a146103e457806342842e0e146103fb576101ee565b806312065fe0116101b657806312065fe0146102f557806318160ddd146103205780631a0740a81461034b57806323b872dd14610388576101ee565b806301ffc9a71461022757806306fdde0314610264578063081812fc1461028f578063095ea7b3146102cc576101ee565b366101ee57005b7f909c57d5c6ac08245cf2a6de3900e2b868513fa59099b92b27d8db823d92df9c5a60405161021d91906133de565b60405180910390a1005b34801561023357600080fd5b5061024e60048036038101906102499190613465565b6107ab565b60405161025b91906134ad565b60405180910390f35b34801561027057600080fd5b5061027961088d565b6040516102869190613561565b60405180910390f35b34801561029b57600080fd5b506102b660048036038101906102b191906135af565b61091f565b6040516102c3919061361d565b60405180910390f35b3480156102d857600080fd5b506102f360048036038101906102ee9190613664565b6109a4565b005b34801561030157600080fd5b5061030a610abc565b60405161031791906133de565b60405180910390f35b34801561032c57600080fd5b50610335610b40565b60405161034291906133de565b60405180910390f35b34801561035757600080fd5b50610372600480360381019061036d91906136a4565b610b4d565b60405161037f91906134ad565b60405180910390f35b34801561039457600080fd5b506103af60048036038101906103aa91906136d1565b610b68565b005b6103cb60048036038101906103c69190613859565b610be9565b005b3480156103d957600080fd5b506103e2610fa5565b005b3480156103f057600080fd5b506103f9611197565b005b34801561040757600080fd5b50610422600480360381019061041d91906136d1565b611275565b005b34801561043057600080fd5b5061044b600480360381019061044691906136a4565b6112f6565b6040516104589190613b76565b60405180910390f35b34801561046d57600080fd5b5061048860048036038101906104839190613b98565b611831565b005b34801561049657600080fd5b5061049f6118c7565b6040516104ac91906134ad565b60405180910390f35b3480156104c157600080fd5b506104dc60048036038101906104d791906135af565b6118da565b6040516104e9919061361d565b60405180910390f35b3480156104fe57600080fd5b5061050761198c565b6040516105149190613dae565b60405180910390f35b34801561052957600080fd5b50610544600480360381019061053f91906136a4565b611edc565b60405161055191906133de565b60405180910390f35b34801561056657600080fd5b5061056f611f94565b005b34801561057d57600080fd5b5061058661201c565b005b34801561059457600080fd5b5061059d6120fb565b6040516105aa91906133de565b60405180910390f35b3480156105bf57600080fd5b506105c8612105565b6040516105d5919061361d565b60405180910390f35b3480156105ea57600080fd5b506105f361212f565b6040516106009190613561565b60405180910390f35b34801561061557600080fd5b50610630600480360381019061062b9190613dfc565b6121c1565b005b34801561063e57600080fd5b50610659600480360381019061065491906135af565b612241565b6040516106669190613b76565b60405180910390f35b34801561067b57600080fd5b50610696600480360381019061069191906136a4565b61276e565b6040516106a391906133de565b60405180910390f35b3480156106b857600080fd5b506106d360048036038101906106ce9190613edd565b6127b7565b005b3480156106e157600080fd5b506106fc60048036038101906106f791906135af565b612839565b6040516107099190613561565b60405180910390f35b61071a6128e6565b005b34801561072857600080fd5b50610743600480360381019061073e9190613f60565b6129c0565b60405161075091906134ad565b60405180910390f35b34801561076557600080fd5b50610780600480360381019061077b91906136a4565b612a44565b005b34801561078e57600080fd5b506107a960048036038101906107a491906135af565b612b3c565b005b60007f80ac58cd000000000000000000000000000000000000000000000000000000007bffffffffffffffffffffffffffffffffffffffffffffffffffffffff1916827bffffffffffffffffffffffffffffffffffffffffffffffffffffffff1916148061087657507f5b5e139f000000000000000000000000000000000000000000000000000000007bffffffffffffffffffffffffffffffffffffffffffffffffffffffff1916827bffffffffffffffffffffffffffffffffffffffffffffffffffffffff1916145b80610886575061088582612bc2565b5b9050919050565b60606000805461089c90613fcf565b80601f01602080910402602001604051908101604052809291908181526020018280546108c890613fcf565b80156109155780601f106108ea57610100808354040283529160200191610915565b820191906000526020600020905b8154815290600101906020018083116108f857829003601f168201915b5050505050905090565b600061092a82612c2c565b610969576040517f08c379a000000000000000000000000000000000000000000000000000000000815260040161096090614073565b60405180910390fd5b6004600083815260200190815260200160002060009054906101000a900473ffffffffffffffffffffffffffffffffffffffff169050919050565b60006109af826118da565b90508073ffffffffffffffffffffffffffffffffffffffff168373ffffffffffffffffffffffffffffffffffffffff161415610a20576040517f08c379a0000000000000000000000000000000000000000000000000000000008152600401610a1790614105565b60405180910390fd5b8073ffffffffffffffffffffffffffffffffffffffff16610a3f612c98565b73ffffffffffffffffffffffffffffffffffffffff161480610a6e5750610a6d81610a68612c98565b6129c0565b5b610aad576040517f08c379a0000000000000000000000000000000000000000000000000000000008152600401610aa490614197565b60405180910390fd5b610ab78383612ca0565b505050565b6000610ac6612c98565b73ffffffffffffffffffffffffffffffffffffffff16610ae4612105565b73ffffffffffffffffffffffffffffffffffffffff1614610b3a576040517f08c379a0000000000000000000000000000000000000000000000000000000008152600401610b3190614203565b60405180910390fd5b47905090565b6000600980549050905090565b600080610b598361276e565b90506001811015915050919050565b610b70612c98565b73ffffffffffffffffffffffffffffffffffffffff16610b8e612105565b73ffffffffffffffffffffffffffffffffffffffff1614610be4576040517f08c379a0000000000000000000000000000000000000000000000000000000008152600401610bdb90614203565b60405180910390fd5b505050565b600c60009054906101000a900460ff1615610c39576040517f08c379a0000000000000000000000000000000000000000000000000000000008152600401610c309061426f565b60405180910390fd5b6001600c60006101000a81548160ff021916908315150217905550600c60019054906101000a900460ff1615610c6e57600080fd5b610c7733610b4d565b15610cb7576040517f08c379a0000000000000000000000000000000000000000000000000000000008152600401610cae90614301565b60405180910390fd5b600854341015610cfc576040517f08c379a0000000000000000000000000000000000000000000000000000000008152600401610cf390614393565b60405180910390fd5b60006040518061014001604052803373ffffffffffffffffffffffffffffffffffffffff1681526020018b81526020018a815260200189815260200188815260200187815260200186815260200185815260200184815260200183815250905060098190806001815401808255809150506001900390600052602060002090600a020160009091909190915060008201518160000160006101000a81548173ffffffffffffffffffffffffffffffffffffffff021916908373ffffffffffffffffffffffffffffffffffffffff1602179055506020820151816001019080519060200190610deb9291906132b9565b506040820151816002019080519060200190610e089291906132b9565b506060820151816003019080519060200190610e259291906132b9565b506080820151816004019080519060200190610e429291906132b9565b5060a0820151816005019080519060200190610e5f9291906132b9565b5060c0820151816006019080519060200190610e7c9291906132b9565b5060e0820151816007019080519060200190610e999291906132b9565b50610100820151816008019080519060200190610eb79291906132b9565b506101208201518160090155505060006001600980549050610ed991906143e2565b905080600a60003373ffffffffffffffffffffffffffffffffffffffff1673ffffffffffffffffffffffffffffffffffffffff16815260200190815260200160002081905550610f293382612d59565b3373ffffffffffffffffffffffffffffffffffffffff167ffd178168435f54449b877f11d0bae90c7003ebeb4bff0120f13a08d7e0958e6382423486604051610f759493929190614416565b60405180910390a250506000600c60006101000a81548160ff021916908315150217905550505050505050505050565b600c60009054906101000a900460ff1615610ff5576040517f08c379a0000000000000000000000000000000000000000000000000000000008152600401610fec9061426f565b60405180910390fd5b6001600c60006101000a81548160ff021916908315150217905550611018612c98565b73ffffffffffffffffffffffffffffffffffffffff16611036612105565b73ffffffffffffffffffffffffffffffffffffffff161461108c576040517f08c379a000000000000000000000000000000000000000000000000000000000815260040161108390614203565b60405180910390fd5b600047905060003373ffffffffffffffffffffffffffffffffffffffff16826040516110b790614493565b60006040518083038185875af1925050503d80600081146110f4576040519150601f19603f3d011682016040523d82523d6000602084013e6110f9565b606091505b505090508061113d576040517f08c379a0000000000000000000000000000000000000000000000000000000008152600401611134906144f4565b60405180910390fd5b7f71ef96c43343734b1d843bb85d52ef329f5e9143e4d35827771e3b0dd90c5f8482473360405161117093929190614514565b60405180910390a150506000600c60006101000a81548160ff021916908315150217905550565b61119f612c98565b73ffffffffffffffffffffffffffffffffffffffff166111bd612105565b73ffffffffffffffffffffffffffffffffffffffff1614611213576040517f08c379a000000000000000000000000000000000000000000000000000000000815260040161120a90614203565b60405180910390fd5b600c60019054906101000a900460ff1661122c57600080fd5b6000600c60016101000a81548160ff0219169083151502179055507f7805862f689e2f13df9f062ff482ad3ad112aca9e0847911ed832e158c525b3360405160405180910390a1565b61127d612c98565b73ffffffffffffffffffffffffffffffffffffffff1661129b612105565b73ffffffffffffffffffffffffffffffffffffffff16146112f1576040517f08c379a00000000000000000000000000000000000000000000000000000000081526004016112e890614203565b60405180910390fd5b505050565b6112fe61333f565b60006113098361276e565b90506009818154811061131f5761131e61454b565b5b90600052602060002090600a0201604051806101400160405290816000820160009054906101000a900473ffffffffffffffffffffffffffffffffffffffff1673ffffffffffffffffffffffffffffffffffffffff1673ffffffffffffffffffffffffffffffffffffffff16815260200160018201805461139f90613fcf565b80601f01602080910402602001604051908101604052809291908181526020018280546113cb90613fcf565b80156114185780601f106113ed57610100808354040283529160200191611418565b820191906000526020600020905b8154815290600101906020018083116113fb57829003601f168201915b5050505050815260200160028201805461143190613fcf565b80601f016020809104026020016040519081016040528092919081815260200182805461145d90613fcf565b80156114aa5780601f1061147f576101008083540402835291602001916114aa565b820191906000526020600020905b81548152906001019060200180831161148d57829003601f168201915b505050505081526020016003820180546114c390613fcf565b80601f01602080910402602001604051908101604052809291908181526020018280546114ef90613fcf565b801561153c5780601f106115115761010080835404028352916020019161153c565b820191906000526020600020905b81548152906001019060200180831161151f57829003601f168201915b5050505050815260200160048201805461155590613fcf565b80601f016020809104026020016040519081016040528092919081815260200182805461158190613fcf565b80156115ce5780601f106115a3576101008083540402835291602001916115ce565b820191906000526020600020905b8154815290600101906020018083116115b157829003601f168201915b505050505081526020016005820180546115e790613fcf565b80601f016020809104026020016040519081016040528092919081815260200182805461161390613fcf565b80156116605780601f1061163557610100808354040283529160200191611660565b820191906000526020600020905b81548152906001019060200180831161164357829003601f168201915b5050505050815260200160068201805461167990613fcf565b80601f01602080910402602001604051908101604052809291908181526020018280546116a590613fcf565b80156116f25780601f106116c7576101008083540402835291602001916116f2565b820191906000526020600020905b8154815290600101906020018083116116d557829003601f168201915b5050505050815260200160078201805461170b90613fcf565b80601f016020809104026020016040519081016040528092919081815260200182805461173790613fcf565b80156117845780601f1061175957610100808354040283529160200191611784565b820191906000526020600020905b81548152906001019060200180831161176757829003601f168201915b5050505050815260200160088201805461179d90613fcf565b80601f01602080910402602001604051908101604052809291908181526020018280546117c990613fcf565b80156118165780601f106117eb57610100808354040283529160200191611816565b820191906000526020600020905b8154815290600101906020018083116117f957829003601f168201915b50505050508152602001600982015481525050915050919050565b611839612c98565b73ffffffffffffffffffffffffffffffffffffffff16611857612105565b73ffffffffffffffffffffffffffffffffffffffff16146118ad576040517f08c379a00000000000000000000000000000000000000000000000000000000081526004016118a490614203565b60405180910390fd5b80600790805190602001906118c39291906132b9565b5050565b600c60019054906101000a900460ff1681565b6000806002600084815260200190815260200160002060009054906101000a900473ffffffffffffffffffffffffffffffffffffffff169050600073ffffffffffffffffffffffffffffffffffffffff168173ffffffffffffffffffffffffffffffffffffffff161415611983576040517f08c379a000000000000000000000000000000000000000000000000000000000815260040161197a906145ec565b60405180910390fd5b80915050919050565b60606009805480602002602001604051908101604052809291908181526020016000905b82821015611ed357838290600052602060002090600a0201604051806101400160405290816000820160009054906101000a900473ffffffffffffffffffffffffffffffffffffffff1673ffffffffffffffffffffffffffffffffffffffff1673ffffffffffffffffffffffffffffffffffffffff168152602001600182018054611a3a90613fcf565b80601f0160208091040260200160405190810160405280929190818152602001828054611a6690613fcf565b8015611ab35780601f10611a8857610100808354040283529160200191611ab3565b820191906000526020600020905b815481529060010190602001808311611a9657829003601f168201915b50505050508152602001600282018054611acc90613fcf565b80601f0160208091040260200160405190810160405280929190818152602001828054611af890613fcf565b8015611b455780601f10611b1a57610100808354040283529160200191611b45565b820191906000526020600020905b815481529060010190602001808311611b2857829003601f168201915b50505050508152602001600382018054611b5e90613fcf565b80601f0160208091040260200160405190810160405280929190818152602001828054611b8a90613fcf565b8015611bd75780601f10611bac57610100808354040283529160200191611bd7565b820191906000526020600020905b815481529060010190602001808311611bba57829003601f168201915b50505050508152602001600482018054611bf090613fcf565b80601f0160208091040260200160405190810160405280929190818152602001828054611c1c90613fcf565b8015611c695780601f10611c3e57610100808354040283529160200191611c69565b820191906000526020600020905b815481529060010190602001808311611c4c57829003601f168201915b50505050508152602001600582018054611c8290613fcf565b80601f0160208091040260200160405190810160405280929190818152602001828054611cae90613fcf565b8015611cfb5780601f10611cd057610100808354040283529160200191611cfb565b820191906000526020600020905b815481529060010190602001808311611cde57829003601f168201915b50505050508152602001600682018054611d1490613fcf565b80601f0160208091040260200160405190810160405280929190818152602001828054611d4090613fcf565b8015611d8d5780601f10611d6257610100808354040283529160200191611d8d565b820191906000526020600020905b815481529060010190602001808311611d7057829003601f168201915b50505050508152602001600782018054611da690613fcf565b80601f0160208091040260200160405190810160405280929190818152602001828054611dd290613fcf565b8015611e1f5780601f10611df457610100808354040283529160200191611e1f565b820191906000526020600020905b815481529060010190602001808311611e0257829003601f168201915b50505050508152602001600882018054611e3890613fcf565b80601f0160208091040260200160405190810160405280929190818152602001828054611e6490613fcf565b8015611eb15780601f10611e8657610100808354040283529160200191611eb1565b820191906000526020600020905b815481529060010190602001808311611e9457829003601f168201915b50505050508152602001600982015481525050815260200190600101906119b0565b50505050905090565b60008073ffffffffffffffffffffffffffffffffffffffff168273ffffffffffffffffffffffffffffffffffffffff161415611f4d576040517f08c379a0000000000000000000000000000000000000000000000000000000008152600401611f449061467e565b60405180910390fd5b600360008373ffffffffffffffffffffffffffffffffffffffff1673ffffffffffffffffffffffffffffffffffffffff168152602001908152602001600020549050919050565b611f9c612c98565b73ffffffffffffffffffffffffffffffffffffffff16611fba612105565b73ffffffffffffffffffffffffffffffffffffffff1614612010576040517f08c379a000000000000000000000000000000000000000000000000000000000815260040161200790614203565b60405180910390fd5b61201a6000612d77565b565b612024612c98565b73ffffffffffffffffffffffffffffffffffffffff16612042612105565b73ffffffffffffffffffffffffffffffffffffffff1614612098576040517f08c379a000000000000000000000000000000000000000000000000000000000815260040161208f90614203565b60405180910390fd5b600c60019054906101000a900460ff16156120b257600080fd5b6001600c60016101000a81548160ff0219169083151502179055507f6985a02210a168e66602d3235cb6db0e70f92b3ba4d376a33c0f3d9434bff62560405160405180910390a1565b6000600854905090565b6000600660009054906101000a900473ffffffffffffffffffffffffffffffffffffffff16905090565b60606001805461213e90613fcf565b80601f016020809104026020016040519081016040528092919081815260200182805461216a90613fcf565b80156121b75780601f1061218c576101008083540402835291602001916121b7565b820191906000526020600020905b81548152906001019060200180831161219a57829003601f168201915b5050505050905090565b6121c9612c98565b73ffffffffffffffffffffffffffffffffffffffff166121e7612105565b73ffffffffffffffffffffffffffffffffffffffff161461223d576040517f08c379a000000000000000000000000000000000000000000000000000000000815260040161223490614203565b60405180910390fd5b5050565b61224961333f565b6009828154811061225d5761225c61454b565b5b90600052602060002090600a0201604051806101400160405290816000820160009054906101000a900473ffffffffffffffffffffffffffffffffffffffff1673ffffffffffffffffffffffffffffffffffffffff1673ffffffffffffffffffffffffffffffffffffffff1681526020016001820180546122dd90613fcf565b80601f016020809104026020016040519081016040528092919081815260200182805461230990613fcf565b80156123565780601f1061232b57610100808354040283529160200191612356565b820191906000526020600020905b81548152906001019060200180831161233957829003601f168201915b5050505050815260200160028201805461236f90613fcf565b80601f016020809104026020016040519081016040528092919081815260200182805461239b90613fcf565b80156123e85780601f106123bd576101008083540402835291602001916123e8565b820191906000526020600020905b8154815290600101906020018083116123cb57829003601f168201915b5050505050815260200160038201805461240190613fcf565b80601f016020809104026020016040519081016040528092919081815260200182805461242d90613fcf565b801561247a5780601f1061244f5761010080835404028352916020019161247a565b820191906000526020600020905b81548152906001019060200180831161245d57829003601f168201915b5050505050815260200160048201805461249390613fcf565b80601f01602080910402602001604051908101604052809291908181526020018280546124bf90613fcf565b801561250c5780601f106124e15761010080835404028352916020019161250c565b820191906000526020600020905b8154815290600101906020018083116124ef57829003601f168201915b5050505050815260200160058201805461252590613fcf565b80601f016020809104026020016040519081016040528092919081815260200182805461255190613fcf565b801561259e5780601f106125735761010080835404028352916020019161259e565b820191906000526020600020905b81548152906001019060200180831161258157829003601f168201915b505050505081526020016006820180546125b790613fcf565b80601f01602080910402602001604051908101604052809291908181526020018280546125e390613fcf565b80156126305780601f1061260557610100808354040283529160200191612630565b820191906000526020600020905b81548152906001019060200180831161261357829003601f168201915b5050505050815260200160078201805461264990613fcf565b80601f016020809104026020016040519081016040528092919081815260200182805461267590613fcf565b80156126c25780601f10612697576101008083540402835291602001916126c2565b820191906000526020600020905b8154815290600101906020018083116126a557829003601f168201915b505050505081526020016008820180546126db90613fcf565b80601f016020809104026020016040519081016040528092919081815260200182805461270790613fcf565b80156127545780601f1061272957610100808354040283529160200191612754565b820191906000526020600020905b81548152906001019060200180831161273757829003601f168201915b505050505081526020016009820154815250509050919050565b6000600a60008373ffffffffffffffffffffffffffffffffffffffff1673ffffffffffffffffffffffffffffffffffffffff168152602001908152602001600020549050919050565b6127bf612c98565b73ffffffffffffffffffffffffffffffffffffffff166127dd612105565b73ffffffffffffffffffffffffffffffffffffffff1614612833576040517f08c379a000000000000000000000000000000000000000000000000000000000815260040161282a90614203565b60405180910390fd5b50505050565b606061284482612c2c565b612883576040517f08c379a000000000000000000000000000000000000000000000000000000000815260040161287a90614710565b60405180910390fd5b600061288e836118da565b9050600061289a612e3d565b905060008151116128ba57604051806020016040528060008152506128dd565b80826040516020016128cd9291906147b4565b6040516020818303038152906040525b92505050919050565b600034905034600b60003373ffffffffffffffffffffffffffffffffffffffff1673ffffffffffffffffffffffffffffffffffffffff168152602001908152602001600020600082825461293a91906147dc565b925050819055507fb9c87592ed73f7a26fff471ef513f8065a243208d84daa291fb0e770635014e2814733600b60003373ffffffffffffffffffffffffffffffffffffffff1673ffffffffffffffffffffffffffffffffffffffff168152602001908152602001600020546040516129b59493929190614832565b60405180910390a150565b60006129ca612c98565b73ffffffffffffffffffffffffffffffffffffffff166129e8612105565b73ffffffffffffffffffffffffffffffffffffffff1614612a3e576040517f08c379a0000000000000000000000000000000000000000000000000000000008152600401612a3590614203565b60405180910390fd5b92915050565b612a4c612c98565b73ffffffffffffffffffffffffffffffffffffffff16612a6a612105565b73ffffffffffffffffffffffffffffffffffffffff1614612ac0576040517f08c379a0000000000000000000000000000000000000000000000000000000008152600401612ab790614203565b60405180910390fd5b600073ffffffffffffffffffffffffffffffffffffffff168173ffffffffffffffffffffffffffffffffffffffff161415612b30576040517f08c379a0000000000000000000000000000000000000000000000000000000008152600401612b27906148e9565b60405180910390fd5b612b3981612d77565b50565b612b44612c98565b73ffffffffffffffffffffffffffffffffffffffff16612b62612105565b73ffffffffffffffffffffffffffffffffffffffff1614612bb8576040517f08c379a0000000000000000000000000000000000000000000000000000000008152600401612baf90614203565b60405180910390fd5b8060088190555050565b60007f01ffc9a7000000000000000000000000000000000000000000000000000000007bffffffffffffffffffffffffffffffffffffffffffffffffffffffff1916827bffffffffffffffffffffffffffffffffffffffffffffffffffffffff1916149050919050565b60008073ffffffffffffffffffffffffffffffffffffffff166002600084815260200190815260200160002060009054906101000a900473ffffffffffffffffffffffffffffffffffffffff1673ffffffffffffffffffffffffffffffffffffffff1614159050919050565b600033905090565b816004600083815260200190815260200160002060006101000a81548173ffffffffffffffffffffffffffffffffffffffff021916908373ffffffffffffffffffffffffffffffffffffffff160217905550808273ffffffffffffffffffffffffffffffffffffffff16612d13836118da565b73ffffffffffffffffffffffffffffffffffffffff167f8c5be1e5ebec7d5bd14f71427d1e84f3dd0314c0f7b2291e5b200ac8c7c3b92560405160405180910390a45050565b612d73828260405180602001604052806000815250612ecf565b5050565b6000600660009054906101000a900473ffffffffffffffffffffffffffffffffffffffff16905081600660006101000a81548173ffffffffffffffffffffffffffffffffffffffff021916908373ffffffffffffffffffffffffffffffffffffffff1602179055508173ffffffffffffffffffffffffffffffffffffffff168173ffffffffffffffffffffffffffffffffffffffff167f8be0079c531659141344cd1fd0a4f28419497f9722a3daafe3b4186f6b6457e060405160405180910390a35050565b606060078054612e4c90613fcf565b80601f0160208091040260200160405190810160405280929190818152602001828054612e7890613fcf565b8015612ec55780601f10612e9a57610100808354040283529160200191612ec5565b820191906000526020600020905b815481529060010190602001808311612ea857829003601f168201915b5050505050905090565b612ed98383612f2a565b612ee66000848484613104565b612f25576040517f08c379a0000000000000000000000000000000000000000000000000000000008152600401612f1c9061497b565b60405180910390fd5b505050565b600073ffffffffffffffffffffffffffffffffffffffff168273ffffffffffffffffffffffffffffffffffffffff161415612f9a576040517f08c379a0000000000000000000000000000000000000000000000000000000008152600401612f91906149e7565b60405180910390fd5b612fa381612c2c565b15612fe3576040517f08c379a0000000000000000000000000000000000000000000000000000000008152600401612fda90614a53565b60405180910390fd5b612fef6000838361328c565b6001600360008473ffffffffffffffffffffffffffffffffffffffff1673ffffffffffffffffffffffffffffffffffffffff168152602001908152602001600020600082825461303f91906147dc565b92505081905550816002600083815260200190815260200160002060006101000a81548173ffffffffffffffffffffffffffffffffffffffff021916908373ffffffffffffffffffffffffffffffffffffffff160217905550808273ffffffffffffffffffffffffffffffffffffffff16600073ffffffffffffffffffffffffffffffffffffffff167fddf252ad1be2c89b69c2b068fc378daa952ba7f163c4a11628f55a4df523b3ef60405160405180910390a461310060008383613291565b5050565b60006131258473ffffffffffffffffffffffffffffffffffffffff16613296565b1561327f578373ffffffffffffffffffffffffffffffffffffffff1663150b7a0261314e612c98565b8786866040518563ffffffff1660e01b81526004016131709493929190614ac8565b6020604051808303816000875af19250505080156131ac57506040513d601f19601f820116820180604052508101906131a99190614b29565b60015b61322f573d80600081146131dc576040519150601f19603f3d011682016040523d82523d6000602084013e6131e1565b606091505b50600081511415613227576040517f08c379a000000000000000000000000000000000000000000000000000000000815260040161321e9061497b565b60405180910390fd5b805181602001fd5b63150b7a0260e01b7bffffffffffffffffffffffffffffffffffffffffffffffffffffffff1916817bffffffffffffffffffffffffffffffffffffffffffffffffffffffff191614915050613284565b600190505b949350505050565b505050565b505050565b6000808273ffffffffffffffffffffffffffffffffffffffff163b119050919050565b8280546132c590613fcf565b90600052602060002090601f0160209004810192826132e7576000855561332e565b82601f1061330057805160ff191683800117855561332e565b8280016001018555821561332e579182015b8281111561332d578251825591602001919060010190613312565b5b50905061333b91906133a8565b5090565b604051806101400160405280600073ffffffffffffffffffffffffffffffffffffffff1681526020016060815260200160608152602001606081526020016060815260200160608152602001606081526020016060815260200160608152602001600081525090565b5b808211156133c15760008160009055506001016133a9565b5090565b6000819050919050565b6133d8816133c5565b82525050565b60006020820190506133f360008301846133cf565b92915050565b6000604051905090565b600080fd5b600080fd5b60007fffffffff0000000000000000000000000000000000000000000000000000000082169050919050565b6134428161340d565b811461344d57600080fd5b50565b60008135905061345f81613439565b92915050565b60006020828403121561347b5761347a613403565b5b600061348984828501613450565b91505092915050565b60008115159050919050565b6134a781613492565b82525050565b60006020820190506134c2600083018461349e565b92915050565b600081519050919050565b600082825260208201905092915050565b60005b838110156135025780820151818401526020810190506134e7565b83811115613511576000848401525b50505050565b6000601f19601f8301169050919050565b6000613533826134c8565b61353d81856134d3565b935061354d8185602086016134e4565b61355681613517565b840191505092915050565b6000602082019050818103600083015261357b8184613528565b905092915050565b61358c816133c5565b811461359757600080fd5b50565b6000813590506135a981613583565b92915050565b6000602082840312156135c5576135c4613403565b5b60006135d38482850161359a565b91505092915050565b600073ffffffffffffffffffffffffffffffffffffffff82169050919050565b6000613607826135dc565b9050919050565b613617816135fc565b82525050565b6000602082019050613632600083018461360e565b92915050565b613641816135fc565b811461364c57600080fd5b50565b60008135905061365e81613638565b92915050565b6000806040838503121561367b5761367a613403565b5b60006136898582860161364f565b925050602061369a8582860161359a565b9150509250929050565b6000602082840312156136ba576136b9613403565b5b60006136c88482850161364f565b91505092915050565b6000806000606084860312156136ea576136e9613403565b5b60006136f88682870161364f565b93505060206137098682870161364f565b925050604061371a8682870161359a565b9150509250925092565b600080fd5b600080fd5b7f4e487b7100000000000000000000000000000000000000000000000000000000600052604160045260246000fd5b61376682613517565b810181811067ffffffffffffffff821117156137855761378461372e565b5b80604052505050565b60006137986133f9565b90506137a4828261375d565b919050565b600067ffffffffffffffff8211156137c4576137c361372e565b5b6137cd82613517565b9050602081019050919050565b82818337600083830152505050565b60006137fc6137f7846137a9565b61378e565b90508281526020810184848401111561381857613817613729565b5b6138238482856137da565b509392505050565b600082601f8301126138405761383f613724565b5b81356138508482602086016137e9565b91505092915050565b60008060008060008060008060006101208a8c03121561387c5761387b613403565b5b60008a013567ffffffffffffffff81111561389a57613899613408565b5b6138a68c828d0161382b565b99505060208a013567ffffffffffffffff8111156138c7576138c6613408565b5b6138d38c828d0161382b565b98505060408a013567ffffffffffffffff8111156138f4576138f3613408565b5b6139008c828d0161382b565b97505060608a013567ffffffffffffffff81111561392157613920613408565b5b61392d8c828d0161382b565b96505060808a013567ffffffffffffffff81111561394e5761394d613408565b5b61395a8c828d0161382b565b95505060a08a013567ffffffffffffffff81111561397b5761397a613408565b5b6139878c828d0161382b565b94505060c08a013567ffffffffffffffff8111156139a8576139a7613408565b5b6139b48c828d0161382b565b93505060e08a013567ffffffffffffffff8111156139d5576139d4613408565b5b6139e18c828d0161382b565b9250506101006139f38c828d0161359a565b9150509295985092959850929598565b613a0c816135fc565b82525050565b600082825260208201905092915050565b6000613a2e826134c8565b613a388185613a12565b9350613a488185602086016134e4565b613a5181613517565b840191505092915050565b613a65816133c5565b82525050565b600061014083016000830151613a846000860182613a03565b5060208301518482036020860152613a9c8282613a23565b91505060408301518482036040860152613ab68282613a23565b91505060608301518482036060860152613ad08282613a23565b91505060808301518482036080860152613aea8282613a23565b91505060a083015184820360a0860152613b048282613a23565b91505060c083015184820360c0860152613b1e8282613a23565b91505060e083015184820360e0860152613b388282613a23565b915050610100830151848203610100860152613b548282613a23565b915050610120830151613b6b610120860182613a5c565b508091505092915050565b60006020820190508181036000830152613b908184613a6b565b905092915050565b600060208284031215613bae57613bad613403565b5b600082013567ffffffffffffffff811115613bcc57613bcb613408565b5b613bd88482850161382b565b91505092915050565b600081519050919050565b600082825260208201905092915050565b6000819050602082019050919050565b600061014083016000830151613c266000860182613a03565b5060208301518482036020860152613c3e8282613a23565b91505060408301518482036040860152613c588282613a23565b91505060608301518482036060860152613c728282613a23565b91505060808301518482036080860152613c8c8282613a23565b91505060a083015184820360a0860152613ca68282613a23565b91505060c083015184820360c0860152613cc08282613a23565b91505060e083015184820360e0860152613cda8282613a23565b915050610100830151848203610100860152613cf68282613a23565b915050610120830151613d0d610120860182613a5c565b508091505092915050565b6000613d248383613c0d565b905092915050565b6000602082019050919050565b6000613d4482613be1565b613d4e8185613bec565b935083602082028501613d6085613bfd565b8060005b85811015613d9c5784840389528151613d7d8582613d18565b9450613d8883613d2c565b925060208a01995050600181019050613d64565b50829750879550505050505092915050565b60006020820190508181036000830152613dc88184613d39565b905092915050565b613dd981613492565b8114613de457600080fd5b50565b600081359050613df681613dd0565b92915050565b60008060408385031215613e1357613e12613403565b5b6000613e218582860161364f565b9250506020613e3285828601613de7565b9150509250929050565b600067ffffffffffffffff821115613e5757613e5661372e565b5b613e6082613517565b9050602081019050919050565b6000613e80613e7b84613e3c565b61378e565b905082815260208101848484011115613e9c57613e9b613729565b5b613ea78482856137da565b509392505050565b600082601f830112613ec457613ec3613724565b5b8135613ed4848260208601613e6d565b91505092915050565b60008060008060808587031215613ef757613ef6613403565b5b6000613f058782880161364f565b9450506020613f168782880161364f565b9350506040613f278782880161359a565b925050606085013567ffffffffffffffff811115613f4857613f47613408565b5b613f5487828801613eaf565b91505092959194509250565b60008060408385031215613f7757613f76613403565b5b6000613f858582860161364f565b9250506020613f968582860161364f565b9150509250929050565b7f4e487b7100000000000000000000000000000000000000000000000000000000600052602260045260246000fd5b60006002820490506001821680613fe757607f821691505b60208210811415613ffb57613ffa613fa0565b5b50919050565b7f4552433732313a20617070726f76656420717565727920666f72206e6f6e657860008201527f697374656e7420746f6b656e0000000000000000000000000000000000000000602082015250565b600061405d602c836134d3565b915061406882614001565b604082019050919050565b6000602082019050818103600083015261408c81614050565b9050919050565b7f4552433732313a20617070726f76616c20746f2063757272656e74206f776e6560008201527f7200000000000000000000000000000000000000000000000000000000000000602082015250565b60006140ef6021836134d3565b91506140fa82614093565b604082019050919050565b6000602082019050818103600083015261411e816140e2565b9050919050565b7f4552433732313a20617070726f76652063616c6c6572206973206e6f74206f7760008201527f6e6572206e6f7220617070726f76656420666f7220616c6c0000000000000000602082015250565b60006141816038836134d3565b915061418c82614125565b604082019050919050565b600060208201905081810360008301526141b081614174565b9050919050565b7f4f776e61626c653a2063616c6c6572206973206e6f7420746865206f776e6572600082015250565b60006141ed6020836134d3565b91506141f8826141b7565b602082019050919050565b6000602082019050818103600083015261421c816141e0565b9050919050565b7f4e6f2072652d656e7472616e6379000000000000000000000000000000000000600082015250565b6000614259600e836134d3565b915061426482614223565b602082019050919050565b600060208201905081810360008301526142888161424c565b9050919050565b7f2057616c6c657420616c72656164792068617320616e204e46492120596f752060008201527f676574206f6e65207065722077616c6c6574206163636f756e74000000000000602082015250565b60006142eb603a836134d3565b91506142f68261428f565b604082019050919050565b6000602082019050818103600083015261431a816142de565b9050919050565b7f4e6f7420656e6f756768204554482073656e743b20636865636b20707269636560008201527f2100000000000000000000000000000000000000000000000000000000000000602082015250565b600061437d6021836134d3565b915061438882614321565b604082019050919050565b600060208201905081810360008301526143ac81614370565b9050919050565b7f4e487b7100000000000000000000000000000000000000000000000000000000600052601160045260246000fd5b60006143ed826133c5565b91506143f8836133c5565b92508282101561440b5761440a6143b3565b5b828203905092915050565b600060808201905061442b60008301876133cf565b61443860208301866133cf565b61444560408301856133cf565b81810360608301526144578184613a6b565b905095945050505050565b600081905092915050565b50565b600061447d600083614462565b91506144888261446d565b600082019050919050565b600061449e82614470565b9150819050919050565b7f5472616e73666572206661696c65642e00000000000000000000000000000000600082015250565b60006144de6010836134d3565b91506144e9826144a8565b602082019050919050565b6000602082019050818103600083015261450d816144d1565b9050919050565b600060608201905061452960008301866133cf565b61453660208301856133cf565b614543604083018461360e565b949350505050565b7f4e487b7100000000000000000000000000000000000000000000000000000000600052603260045260246000fd5b7f4552433732313a206f776e657220717565727920666f72206e6f6e657869737460008201527f656e7420746f6b656e0000000000000000000000000000000000000000000000602082015250565b60006145d66029836134d3565b91506145e18261457a565b604082019050919050565b60006020820190508181036000830152614605816145c9565b9050919050565b7f4552433732313a2062616c616e636520717565727920666f7220746865207a6560008201527f726f206164647265737300000000000000000000000000000000000000000000602082015250565b6000614668602a836134d3565b91506146738261460c565b604082019050919050565b600060208201905081810360008301526146978161465b565b9050919050565b7f4552433732314d657461646174613a2055524920717565727920666f72206e6f60008201527f6e6578697374656e7420746f6b656e0000000000000000000000000000000000602082015250565b60006146fa602f836134d3565b91506147058261469e565b604082019050919050565b60006020820190508181036000830152614729816146ed565b9050919050565b600081905092915050565b6000614746826134c8565b6147508185614730565b93506147608185602086016134e4565b80840191505092915050565b60008160601b9050919050565b60006147848261476c565b9050919050565b600061479682614779565b9050919050565b6147ae6147a9826135fc565b61478b565b82525050565b60006147c0828561473b565b91506147cc828461479d565b6014820191508190509392505050565b60006147e7826133c5565b91506147f2836133c5565b9250827fffffffffffffffffffffffffffffffffffffffffffffffffffffffffffffffff03821115614827576148266143b3565b5b828201905092915050565b600060808201905061484760008301876133cf565b61485460208301866133cf565b614861604083018561360e565b61486e60608301846133cf565b95945050505050565b7f4f776e61626c653a206e6577206f776e657220697320746865207a65726f206160008201527f6464726573730000000000000000000000000000000000000000000000000000602082015250565b60006148d36026836134d3565b91506148de82614877565b604082019050919050565b60006020820190508181036000830152614902816148c6565b9050919050565b7f4552433732313a207472616e7366657220746f206e6f6e20455243373231526560008201527f63656976657220696d706c656d656e7465720000000000000000000000000000602082015250565b60006149656032836134d3565b915061497082614909565b604082019050919050565b6000602082019050818103600083015261499481614958565b9050919050565b7f4552433732313a206d696e7420746f20746865207a65726f2061646472657373600082015250565b60006149d16020836134d3565b91506149dc8261499b565b602082019050919050565b60006020820190508181036000830152614a00816149c4565b9050919050565b7f4552433732313a20746f6b656e20616c7265616479206d696e74656400000000600082015250565b6000614a3d601c836134d3565b9150614a4882614a07565b602082019050919050565b60006020820190508181036000830152614a6c81614a30565b9050919050565b600081519050919050565b600082825260208201905092915050565b6000614a9a82614a73565b614aa48185614a7e565b9350614ab48185602086016134e4565b614abd81613517565b840191505092915050565b6000608082019050614add600083018761360e565b614aea602083018661360e565b614af760408301856133cf565b8181036060830152614b098184614a8f565b905095945050505050565b600081519050614b2381613439565b92915050565b600060208284031215614b3f57614b3e613403565b5b6000614b4d84828501614b14565b9150509291505056fea26469706673582212201210247a9709701fde395adc67c65a5a2f32bb36fe54e3a15b12636be30b899f64736f6c634300080a0033",
  "immutableReferences": {},
  "source": "// SPDX-License-Identifier: GPL-3.0\r\npragma solidity >=0.8.0 <0.9.0;\r\nimport \"@openzeppelin/contracts/token/ERC721/ERC721.sol\";\r\nimport \"@openzeppelin/contracts/access/Ownable.sol\";\r\nimport \"@openzeppelin/contracts/token/ERC721/extensions/IERC721Metadata.sol\";\r\n\r\ncontract PaperMastersNFI is ERC721, Ownable {\r\n//do I need to bring in SafeMath???\r\n    string private _setBaseURI;\r\n    uint256 private identityFee;\r\n    struct identity\r\n    {\r\n        address walletAccount;\r\n        string name;\r\n        string email;\r\n        string profession;\r\n        string organization;\r\n        string slogan;\r\n        string website;\r\n        string uniqueYou;\r\n        string bgRGB;\r\n        uint originDate;\r\n    }\r\n    identity[] _dictionaryNFIs;\r\n\r\n    mapping(address => uint256) totalIdentities;\r\n    mapping(address => uint256) _supportPMDonations;\r\n\r\n    //prevents ren-entry when modifier is added to a function\r\n    bool internal locked;\r\n    modifier noReentrant() {\r\n        require(!locked, \"No re-entrancy\");\r\n        locked = true;\r\n        _;\r\n        locked = false;\r\n    }\r\n    constructor() ERC721(\"papermasters.io\", \"NFI\") {\r\n        _setBaseURI = \"www.papermasters.io/identity\";\r\n        identityFee = 100000000000000000;\r\n        _dictionaryNFIs.push(identity(address(this),'','','','','','','','',0));\r\n    }\r\n\r\n    function addressToTokenID(address walletAddress) public view returns(uint256) {\r\n        return totalIdentities[walletAddress];\r\n    }\r\n\r\n    function tokenIDtoIdentityStruct(uint256 _tokenid) public view returns(identity memory) {\r\n        return _dictionaryNFIs[_tokenid];\r\n    }\r\n\r\n    function addressHasTokenBool(address walletAddress) public view returns(bool) {\r\n        uint256 _tokenId = addressToTokenID(walletAddress);\r\n        return _tokenId >= 1;\r\n    }\r\n\r\n    function addressToIdentityStruct(address walletAddress) public view returns(identity memory){\r\n        uint256 tokenId = addressToTokenID(walletAddress);\r\n        return _dictionaryNFIs[tokenId];\r\n    }\r\n\r\n    function allIdentityStructs() public view returns(identity[] memory){\r\n        return _dictionaryNFIs;\r\n    }\r\n\r\n    function setBaseURI(string memory changeBaseURI) public onlyOwner{\r\n        _setBaseURI = changeBaseURI;\r\n    }\r\n\r\n    function _baseURI() internal view virtual override returns (string memory) {\r\n        return _setBaseURI;\r\n    }\r\n\r\n    function tokenURI(uint256 tokenId) public view virtual override returns (string memory) {\r\n        require(_exists(tokenId), \"ERC721Metadata: URI query for nonexistent token\");\r\n\r\n        address owner = ownerOf(tokenId);\r\n\r\n        string memory baseURI = _baseURI();\r\n\r\n        return bytes(baseURI).length > 0 ? string(abi.encodePacked(baseURI, owner)) : \"\";\r\n\r\n        //string memory tokenURI = baseURI/identity[tokenId];\r\n    }\r\n\r\n    function getIdentityFee() public view returns (uint256) {\r\n        return identityFee;\r\n    }\r\n\r\n    function setIdentityFee(uint256 val) external onlyOwner {\r\n        identityFee = val;\r\n    }\r\n\r\n    event Log(uint gas);\r\n\r\n    // Fallback function must be declared as external.\r\n    fallback() external payable {\r\n        // send / transfer (forwards 2300 gas to this fallback function)\r\n        // call (forwards all of the gas)\r\n        emit Log(gasleft());\r\n    }\r\n\r\n    receive() external payable {}\r\n\r\n    function deposit() public payable {\r\n        uint amount = msg.value;\r\n        _supportPMDonations[msg.sender] += msg.value;\r\n        emit DonationMade(amount, address(this).balance, msg.sender, _supportPMDonations[msg.sender]);\r\n    }\r\n        event DonationMade(uint256 amount, uint balance, address donationSender, uint totalDonationsBySender);\r\n\r\n    function getBalance() public view onlyOwner returns (uint) {\r\n        return address(this).balance;\r\n    }\r\n\r\n    function withdraw() external noReentrant onlyOwner{\r\n        // This forwards all available gas. Be sure to check the return value!\r\n        uint amount = address(this).balance;\r\n        (bool success, ) = msg.sender.call{value: amount}(\"\");\r\n        require(success, \"Transfer failed.\");\r\n        emit Withdraw(amount, address(this).balance, msg.sender);\r\n    }\r\n    event Withdraw(uint256 amount, uint256 balance, address withdrawAddress);\r\n\r\n    function totalSupply() public view returns (uint256) {\r\n        return _dictionaryNFIs.length;\r\n    }\r\n\r\n    event Pause();\r\n    event Unpause();\r\n\r\n    bool public paused = false;\r\n\r\n    modifier whenNotPaused() {\r\n        require(!paused);\r\n        _;\r\n    }\r\n\r\n    modifier whenPaused() {\r\n        require(paused);\r\n        _;\r\n    }\r\n\r\n    function pause() onlyOwner whenNotPaused public {\r\n        paused = true;\r\n        emit Pause();\r\n    }\r\n\r\n    function unpause() onlyOwner whenPaused public {\r\n        paused = false;\r\n        emit Unpause();\r\n    }\r\n\r\n    function mintNFI (\r\n        string memory _name,\r\n        string memory _email,\r\n        string memory _profession,\r\n        string memory _organization,\r\n        string memory _slogan,\r\n        string memory _website,\r\n        string memory _uniqueYou,\r\n        string memory _bgRGB,\r\n        uint _originDate\r\n    ) public virtual noReentrant payable whenNotPaused\r\n    {\r\n        require(!addressHasTokenBool(msg.sender),\" Wallet already has an NFI! You get one per wallet account\");\r\n        require(msg.value >= identityFee, \"Not enough ETH sent; check price!\");\r\n\r\n        identity memory _identity = identity({\r\n        walletAccount: msg.sender,\r\n        name: _name,\r\n        email: _email,\r\n        profession: _profession,\r\n        organization: _organization,\r\n        slogan: _slogan,\r\n        website: _website,\r\n        uniqueYou: _uniqueYou,\r\n        bgRGB: _bgRGB,\r\n        originDate: _originDate\r\n        });\r\n\r\n        _dictionaryNFIs.push(_identity);\r\n\r\n        uint256 newTokenID = _dictionaryNFIs.length - 1;\r\n\r\n        totalIdentities[msg.sender] = newTokenID;\r\n\r\n        _safeMint(msg.sender, newTokenID);\r\n\r\n        emit NFIMinted(msg.sender, newTokenID, block.timestamp, msg.value, _identity);\r\n    }\r\n    event NFIMinted(address indexed _from, uint256 tokenId, uint256 timeStamp, uint256 contractFee, identity identityStruct);\r\n\r\n    function setApprovalForAll(address operator, bool approved) public virtual override onlyOwner{}\r\n    function isApprovedForAll(address owner, address operator) public view virtual override onlyOwner returns (bool) {}\r\n    function transferFrom(address from, address to, uint256 tokenId) public virtual override onlyOwner{}\r\n    function safeTransferFrom(address from, address to, uint256 tokenId) public virtual override  onlyOwner {}\r\n    function safeTransferFrom(address from, address to, uint256 tokenId, bytes memory _data) public virtual override onlyOwner {}\r\n    function _safeTransfer(address from, address to, uint256 tokenId, bytes memory _data) internal virtual override onlyOwner {}\r\n}",
  "sourcePath": "/home/ramona/gitrepos/MintIdentityTPM/truffle/contracts/MintIdentity.sol",
  "compiler": {
    "name": "solc",
    "version": "0.8.10+commit.fc410830.Emscripten.clang"
  },
  "schemaVersion": "3.4.4",
  "updatedAt": "2022-04-14T02:39:33.752Z",
  "networkType": "ethereum",
  "devdoc": {
    "kind": "dev",
    "methods": {
      "approve(address,uint256)": {
        "details": "See {IERC721-approve}."
      },
      "balanceOf(address)": {
        "details": "See {IERC721-balanceOf}."
      },
      "getApproved(uint256)": {
        "details": "See {IERC721-getApproved}."
      },
      "isApprovedForAll(address,address)": {
        "details": "See {IERC721-isApprovedForAll}."
      },
      "name()": {
        "details": "See {IERC721Metadata-name}."
      },
      "owner()": {
        "details": "Returns the address of the current owner."
      },
      "ownerOf(uint256)": {
        "details": "See {IERC721-ownerOf}."
      },
      "renounceOwnership()": {
        "details": "Leaves the contract without owner. It will not be possible to call `onlyOwner` functions anymore. Can only be called by the current owner. NOTE: Renouncing ownership will leave the contract without an owner, thereby removing any functionality that is only available to the owner."
      },
      "safeTransferFrom(address,address,uint256)": {
        "details": "See {IERC721-safeTransferFrom}."
      },
      "safeTransferFrom(address,address,uint256,bytes)": {
        "details": "See {IERC721-safeTransferFrom}."
      },
      "setApprovalForAll(address,bool)": {
        "details": "See {IERC721-setApprovalForAll}."
      },
      "supportsInterface(bytes4)": {
        "details": "See {IERC165-supportsInterface}."
      },
      "symbol()": {
        "details": "See {IERC721Metadata-symbol}."
      },
      "tokenURI(uint256)": {
        "details": "See {IERC721Metadata-tokenURI}."
      },
      "transferFrom(address,address,uint256)": {
        "details": "See {IERC721-transferFrom}."
      },
      "transferOwnership(address)": {
        "details": "Transfers ownership of the contract to a new account (`newOwner`). Can only be called by the current owner."
      }
    },
    "version": 1
  },
  "userdoc": {
    "kind": "user",
    "methods": {},
    "version": 1
  }
}