{
  "contractName": "PaperMastersNFI",
  "abi": [
    {
      "inputs": [],
      "stateMutability": "nonpayable",
      "type": "constructor"
    },
    {
      "anonymous": false,
      "inputs": [
        {
          "indexed": true,
          "internalType": "address",
          "name": "owner",
          "type": "address"
        },
        {
          "indexed": true,
          "internalType": "address",
          "name": "approved",
          "type": "address"
        },
        {
          "indexed": true,
          "internalType": "uint256",
          "name": "tokenId",
          "type": "uint256"
        }
      ],
      "name": "Approval",
      "type": "event"
    },
    {
      "anonymous": false,
      "inputs": [
        {
          "indexed": true,
          "internalType": "address",
          "name": "owner",
          "type": "address"
        },
        {
          "indexed": true,
          "internalType": "address",
          "name": "operator",
          "type": "address"
        },
        {
          "indexed": false,
          "internalType": "bool",
          "name": "approved",
          "type": "bool"
        }
      ],
      "name": "ApprovalForAll",
      "type": "event"
    },
    {
      "anonymous": false,
      "inputs": [
        {
          "indexed": false,
          "internalType": "uint256",
          "name": "amount",
          "type": "uint256"
        },
        {
          "indexed": false,
          "internalType": "uint256",
          "name": "balance",
          "type": "uint256"
        },
        {
          "indexed": false,
          "internalType": "address",
          "name": "donationSender",
          "type": "address"
        },
        {
          "indexed": false,
          "internalType": "uint256",
          "name": "totalDonationsBySender",
          "type": "uint256"
        }
      ],
      "name": "DonationMade",
      "type": "event"
    },
    {
      "anonymous": false,
      "inputs": [
        {
          "indexed": false,
          "internalType": "uint256",
          "name": "gas",
          "type": "uint256"
        }
      ],
      "name": "Log",
      "type": "event"
    },
    {
      "anonymous": false,
      "inputs": [
        {
          "indexed": true,
          "internalType": "address",
          "name": "_from",
          "type": "address"
        },
        {
          "indexed": false,
          "internalType": "uint256",
          "name": "tokenId",
          "type": "uint256"
        },
        {
          "indexed": false,
          "internalType": "uint256",
          "name": "timeStamp",
          "type": "uint256"
        },
        {
          "indexed": false,
          "internalType": "uint256",
          "name": "contractFee",
          "type": "uint256"
        },
        {
          "components": [
            {
              "internalType": "address",
              "name": "walletAccount",
              "type": "address"
            },
            {
              "internalType": "string",
              "name": "name",
              "type": "string"
            },
            {
              "internalType": "string",
              "name": "email",
              "type": "string"
            },
            {
              "internalType": "string",
              "name": "profession",
              "type": "string"
            },
            {
              "internalType": "string",
              "name": "organization",
              "type": "string"
            },
            {
              "internalType": "string",
              "name": "slogan",
              "type": "string"
            },
            {
              "internalType": "string",
              "name": "website",
              "type": "string"
            },
            {
              "internalType": "string",
              "name": "uniqueYou",
              "type": "string"
            },
            {
              "internalType": "string",
              "name": "bgRGB",
              "type": "string"
            },
            {
              "internalType": "uint256",
              "name": "originDate",
              "type": "uint256"
            }
          ],
          "indexed": false,
          "internalType": "struct PaperMastersNFI.identity",
          "name": "identityStruct",
          "type": "tuple"
        }
      ],
      "name": "NFIMinted",
      "type": "event"
    },
    {
      "anonymous": false,
      "inputs": [
        {
          "indexed": true,
          "internalType": "address",
          "name": "previousOwner",
          "type": "address"
        },
        {
          "indexed": true,
          "internalType": "address",
          "name": "newOwner",
          "type": "address"
        }
      ],
      "name": "OwnershipTransferred",
      "type": "event"
    },
    {
      "anonymous": false,
      "inputs": [],
      "name": "Pause",
      "type": "event"
    },
    {
      "anonymous": false,
      "inputs": [
        {
          "indexed": true,
          "internalType": "address",
          "name": "from",
          "type": "address"
        },
        {
          "indexed": true,
          "internalType": "address",
          "name": "to",
          "type": "address"
        },
        {
          "indexed": true,
          "internalType": "uint256",
          "name": "tokenId",
          "type": "uint256"
        }
      ],
      "name": "Transfer",
      "type": "event"
    },
    {
      "anonymous": false,
      "inputs": [],
      "name": "Unpause",
      "type": "event"
    },
    {
      "anonymous": false,
      "inputs": [
        {
          "indexed": false,
          "internalType": "uint256",
          "name": "amount",
          "type": "uint256"
        },
        {
          "indexed": false,
          "internalType": "uint256",
          "name": "balance",
          "type": "uint256"
        },
        {
          "indexed": false,
          "internalType": "address",
          "name": "withdrawAddress",
          "type": "address"
        }
      ],
      "name": "Withdraw",
      "type": "event"
    },
    {
      "stateMutability": "payable",
      "type": "fallback",
      "payable": true
    },
    {
      "inputs": [
        {
          "internalType": "address",
          "name": "to",
          "type": "address"
        },
        {
          "internalType": "uint256",
          "name": "tokenId",
          "type": "uint256"
        }
      ],
      "name": "approve",
      "outputs": [],
      "stateMutability": "nonpayable",
      "type": "function"
    },
    {
      "inputs": [
        {
          "internalType": "address",
          "name": "owner",
          "type": "address"
        }
      ],
      "name": "balanceOf",
      "outputs": [
        {
          "internalType": "uint256",
          "name": "",
          "type": "uint256"
        }
      ],
      "stateMutability": "view",
      "type": "function",
      "constant": true
    },
    {
      "inputs": [
        {
          "internalType": "uint256",
          "name": "tokenId",
          "type": "uint256"
        }
      ],
      "name": "getApproved",
      "outputs": [
        {
          "internalType": "address",
          "name": "",
          "type": "address"
        }
      ],
      "stateMutability": "view",
      "type": "function",
      "constant": true
    },
    {
      "inputs": [],
      "name": "name",
      "outputs": [
        {
          "internalType": "string",
          "name": "",
          "type": "string"
        }
      ],
      "stateMutability": "view",
      "type": "function",
      "constant": true
    },
    {
      "inputs": [],
      "name": "owner",
      "outputs": [
        {
          "internalType": "address",
          "name": "",
          "type": "address"
        }
      ],
      "stateMutability": "view",
      "type": "function",
      "constant": true
    },
    {
      "inputs": [
        {
          "internalType": "uint256",
          "name": "tokenId",
          "type": "uint256"
        }
      ],
      "name": "ownerOf",
      "outputs": [
        {
          "internalType": "address",
          "name": "",
          "type": "address"
        }
      ],
      "stateMutability": "view",
      "type": "function",
      "constant": true
    },
    {
      "inputs": [],
      "name": "paused",
      "outputs": [
        {
          "internalType": "bool",
          "name": "",
          "type": "bool"
        }
      ],
      "stateMutability": "view",
      "type": "function",
      "constant": true
    },
    {
      "inputs": [],
      "name": "renounceOwnership",
      "outputs": [],
      "stateMutability": "nonpayable",
      "type": "function"
    },
    {
      "inputs": [
        {
          "internalType": "bytes4",
          "name": "interfaceId",
          "type": "bytes4"
        }
      ],
      "name": "supportsInterface",
      "outputs": [
        {
          "internalType": "bool",
          "name": "",
          "type": "bool"
        }
      ],
      "stateMutability": "view",
      "type": "function",
      "constant": true
    },
    {
      "inputs": [],
      "name": "symbol",
      "outputs": [
        {
          "internalType": "string",
          "name": "",
          "type": "string"
        }
      ],
      "stateMutability": "view",
      "type": "function",
      "constant": true
    },
    {
      "inputs": [
        {
          "internalType": "address",
          "name": "newOwner",
          "type": "address"
        }
      ],
      "name": "transferOwnership",
      "outputs": [],
      "stateMutability": "nonpayable",
      "type": "function"
    },
    {
      "stateMutability": "payable",
      "type": "receive",
      "payable": true
    },
    {
      "inputs": [
        {
          "internalType": "address",
          "name": "walletAddress",
          "type": "address"
        }
      ],
      "name": "addressToTokenID",
      "outputs": [
        {
          "internalType": "uint256",
          "name": "",
          "type": "uint256"
        }
      ],
      "stateMutability": "view",
      "type": "function",
      "constant": true
    },
    {
      "inputs": [
        {
          "internalType": "uint256",
          "name": "_tokenid",
          "type": "uint256"
        }
      ],
      "name": "tokenIDtoIdentityStruct",
      "outputs": [
        {
          "components": [
            {
              "internalType": "address",
              "name": "walletAccount",
              "type": "address"
            },
            {
              "internalType": "string",
              "name": "name",
              "type": "string"
            },
            {
              "internalType": "string",
              "name": "email",
              "type": "string"
            },
            {
              "internalType": "string",
              "name": "profession",
              "type": "string"
            },
            {
              "internalType": "string",
              "name": "organization",
              "type": "string"
            },
            {
              "internalType": "string",
              "name": "slogan",
              "type": "string"
            },
            {
              "internalType": "string",
              "name": "website",
              "type": "string"
            },
            {
              "internalType": "string",
              "name": "uniqueYou",
              "type": "string"
            },
            {
              "internalType": "string",
              "name": "bgRGB",
              "type": "string"
            },
            {
              "internalType": "uint256",
              "name": "originDate",
              "type": "uint256"
            }
          ],
          "internalType": "struct PaperMastersNFI.identity",
          "name": "",
          "type": "tuple"
        }
      ],
      "stateMutability": "view",
      "type": "function",
      "constant": true
    },
    {
      "inputs": [
        {
          "internalType": "address",
          "name": "walletAddress",
          "type": "address"
        }
      ],
      "name": "addressHasTokenBool",
      "outputs": [
        {
          "internalType": "bool",
          "name": "",
          "type": "bool"
        }
      ],
      "stateMutability": "view",
      "type": "function",
      "constant": true
    },
    {
      "inputs": [
        {
          "internalType": "string",
          "name": "changeBaseURI",
          "type": "string"
        }
      ],
      "name": "setBaseURI",
      "outputs": [],
      "stateMutability": "nonpayable",
      "type": "function"
    },
    {
      "inputs": [
        {
          "internalType": "uint256",
          "name": "tokenId",
          "type": "uint256"
        }
      ],
      "name": "tokenURI",
      "outputs": [
        {
          "internalType": "string",
          "name": "",
          "type": "string"
        }
      ],
      "stateMutability": "view",
      "type": "function",
      "constant": true
    },
    {
      "inputs": [],
      "name": "getIdentityFee",
      "outputs": [
        {
          "internalType": "uint256",
          "name": "",
          "type": "uint256"
        }
      ],
      "stateMutability": "view",
      "type": "function",
      "constant": true
    },
    {
      "inputs": [
        {
          "internalType": "uint256",
          "name": "val",
          "type": "uint256"
        }
      ],
      "name": "setIdentityFee",
      "outputs": [],
      "stateMutability": "nonpayable",
      "type": "function"
    },
    {
      "inputs": [],
      "name": "deposit",
      "outputs": [],
      "stateMutability": "payable",
      "type": "function",
      "payable": true
    },
    {
      "inputs": [],
      "name": "getBalance",
      "outputs": [
        {
          "internalType": "uint256",
          "name": "",
          "type": "uint256"
        }
      ],
      "stateMutability": "view",
      "type": "function",
      "constant": true
    },
    {
      "inputs": [],
      "name": "withdraw",
      "outputs": [],
      "stateMutability": "nonpayable",
      "type": "function"
    },
    {
      "inputs": [],
      "name": "totalSupply",
      "outputs": [
        {
          "internalType": "uint256",
          "name": "",
          "type": "uint256"
        }
      ],
      "stateMutability": "view",
      "type": "function",
      "constant": true
    },
    {
      "inputs": [],
      "name": "pause",
      "outputs": [],
      "stateMutability": "nonpayable",
      "type": "function"
    },
    {
      "inputs": [],
      "name": "unpause",
      "outputs": [],
      "stateMutability": "nonpayable",
      "type": "function"
    },
    {
      "inputs": [
        {
          "internalType": "string",
          "name": "_name",
          "type": "string"
        },
        {
          "internalType": "string",
          "name": "_email",
          "type": "string"
        },
        {
          "internalType": "string",
          "name": "_profession",
          "type": "string"
        },
        {
          "internalType": "string",
          "name": "_organization",
          "type": "string"
        },
        {
          "internalType": "string",
          "name": "_slogan",
          "type": "string"
        },
        {
          "internalType": "string",
          "name": "_website",
          "type": "string"
        },
        {
          "internalType": "string",
          "name": "_uniqueYou",
          "type": "string"
        },
        {
          "internalType": "string",
          "name": "_bgRGB",
          "type": "string"
        },
        {
          "internalType": "uint256",
          "name": "_originDate",
          "type": "uint256"
        }
      ],
      "name": "mintNFI",
      "outputs": [],
      "stateMutability": "payable",
      "type": "function",
      "payable": true
    },
    {
      "inputs": [
        {
          "internalType": "address",
          "name": "operator",
          "type": "address"
        },
        {
          "internalType": "bool",
          "name": "approved",
          "type": "bool"
        }
      ],
      "name": "setApprovalForAll",
      "outputs": [],
      "stateMutability": "nonpayable",
      "type": "function"
    },
    {
      "inputs": [
        {
          "internalType": "address",
          "name": "owner",
          "type": "address"
        },
        {
          "internalType": "address",
          "name": "operator",
          "type": "address"
        }
      ],
      "name": "isApprovedForAll",
      "outputs": [
        {
          "internalType": "bool",
          "name": "",
          "type": "bool"
        }
      ],
      "stateMutability": "view",
      "type": "function",
      "constant": true
    },
    {
      "inputs": [
        {
          "internalType": "address",
          "name": "from",
          "type": "address"
        },
        {
          "internalType": "address",
          "name": "to",
          "type": "address"
        },
        {
          "internalType": "uint256",
          "name": "tokenId",
          "type": "uint256"
        }
      ],
      "name": "transferFrom",
      "outputs": [],
      "stateMutability": "nonpayable",
      "type": "function"
    },
    {
      "inputs": [
        {
          "internalType": "address",
          "name": "from",
          "type": "address"
        },
        {
          "internalType": "address",
          "name": "to",
          "type": "address"
        },
        {
          "internalType": "uint256",
          "name": "tokenId",
          "type": "uint256"
        }
      ],
      "name": "safeTransferFrom",
      "outputs": [],
      "stateMutability": "nonpayable",
      "type": "function"
    },
    {
      "inputs": [
        {
          "internalType": "address",
          "name": "from",
          "type": "address"
        },
        {
          "internalType": "address",
          "name": "to",
          "type": "address"
        },
        {
          "internalType": "uint256",
          "name": "tokenId",
          "type": "uint256"
        },
        {
          "internalType": "bytes",
          "name": "_data",
          "type": "bytes"
        }
      ],
      "name": "safeTransferFrom",
      "outputs": [],
      "stateMutability": "nonpayable",
      "type": "function"
    }
  ],
  "bytecode": "0x60806040526000600c60016101000a81548160ff0219169083151502179055503480156200002c57600080fd5b506040518060400160405280600f81526020017f70617065726d6173746572732e696f00000000000000000000000000000000008152506040518060400160405280600381526020017f4e464900000000000000000000000000000000000000000000000000000000008152508160009080519060200190620000b19291906200046b565b508060019080519060200190620000ca9291906200046b565b505050620000ed620000e16200039d60201b60201c565b620003a560201b60201c565b6040518060400160405280601c81526020017f7777772e70617065726d6173746572732e696f2f6964656e7469747900000000815250600790805190602001906200013a9291906200046b565b5067016345785d8a000060088190555060096040518061014001604052803073ffffffffffffffffffffffffffffffffffffffff168152602001604051806020016040528060008152508152602001604051806020016040528060008152508152602001604051806020016040528060008152508152602001604051806020016040528060008152508152602001604051806020016040528060008152508152602001604051806020016040528060008152508152602001604051806020016040528060008152508152602001604051806020016040528060008152508152602001600081525090806001815401808255809150506001900390600052602060002090600a020160009091909190915060008201518160000160006101000a81548173ffffffffffffffffffffffffffffffffffffffff021916908373ffffffffffffffffffffffffffffffffffffffff1602179055506020820151816001019080519060200190620002af9291906200046b565b506040820151816002019080519060200190620002ce9291906200046b565b506060820151816003019080519060200190620002ed9291906200046b565b5060808201518160040190805190602001906200030c9291906200046b565b5060a08201518160050190805190602001906200032b9291906200046b565b5060c08201518160060190805190602001906200034a9291906200046b565b5060e0820151816007019080519060200190620003699291906200046b565b50610100820151816008019080519060200190620003899291906200046b565b506101208201518160090155505062000580565b600033905090565b6000600660009054906101000a900473ffffffffffffffffffffffffffffffffffffffff16905081600660006101000a81548173ffffffffffffffffffffffffffffffffffffffff021916908373ffffffffffffffffffffffffffffffffffffffff1602179055508173ffffffffffffffffffffffffffffffffffffffff168173ffffffffffffffffffffffffffffffffffffffff167f8be0079c531659141344cd1fd0a4f28419497f9722a3daafe3b4186f6b6457e060405160405180910390a35050565b82805462000479906200054a565b90600052602060002090601f0160209004810192826200049d5760008555620004e9565b82601f10620004b857805160ff1916838001178555620004e9565b82800160010185558215620004e9579182015b82811115620004e8578251825591602001919060010190620004cb565b5b509050620004f89190620004fc565b5090565b5b8082111562000517576000816000905550600101620004fd565b5090565b7f4e487b7100000000000000000000000000000000000000000000000000000000600052602260045260246000fd5b600060028204905060018216806200056357607f821691505b602082108114156200057a57620005796200051b565b5b50919050565b613e9480620005906000396000f3fe6080604052600436106101d15760003560e01c806370a08231116100f7578063a3925b2511610095578063d0e30db011610064578063d0e30db014610694578063e985e9c51461069e578063f2fde38b146106db578063f9c1f36f14610704576101d8565b8063a3925b25146105b4578063adde18b0146105f1578063b88d4fde1461062e578063c87b56dd14610657576101d8565b80638ae23730116100d15780638ae237301461050a5780638da5cb5b1461053557806395d89b4114610560578063a22cb4651461058b576101d8565b806370a082311461049f578063715018a6146104dc5780638456cb59146104f3576101d8565b806323b872dd1161016f57806342842e0e1161013e57806342842e0e146103e557806355f804b31461040e5780635c975abb146104375780636352211e14610462576101d8565b806323b872dd14610372578063269e12da1461039b5780633ccfd60b146103b75780633f4ba83a146103ce576101d8565b8063095ea7b3116101ab578063095ea7b3146102b657806312065fe0146102df57806318160ddd1461030a5780631a0740a814610335576101d8565b806301ffc9a71461021157806306fdde031461024e578063081812fc14610279576101d8565b366101d857005b7f909c57d5c6ac08245cf2a6de3900e2b868513fa59099b92b27d8db823d92df9c5a60405161020791906128d5565b60405180910390a1005b34801561021d57600080fd5b506102386004803603810190610233919061295c565b61072d565b60405161024591906129a4565b60405180910390f35b34801561025a57600080fd5b5061026361080f565b6040516102709190612a58565b60405180910390f35b34801561028557600080fd5b506102a0600480360381019061029b9190612aa6565b6108a1565b6040516102ad9190612b14565b60405180910390f35b3480156102c257600080fd5b506102dd60048036038101906102d89190612b5b565b610926565b005b3480156102eb57600080fd5b506102f4610a3e565b60405161030191906128d5565b60405180910390f35b34801561031657600080fd5b5061031f610ac2565b60405161032c91906128d5565b60405180910390f35b34801561034157600080fd5b5061035c60048036038101906103579190612b9b565b610acf565b60405161036991906129a4565b60405180910390f35b34801561037e57600080fd5b5061039960048036038101906103949190612bc8565b610aea565b005b6103b560048036038101906103b09190612d50565b610b6b565b005b3480156103c357600080fd5b506103cc610f27565b005b3480156103da57600080fd5b506103e3611119565b005b3480156103f157600080fd5b5061040c60048036038101906104079190612bc8565b6111f7565b005b34801561041a57600080fd5b5061043560048036038101906104309190612efa565b611278565b005b34801561044357600080fd5b5061044c61130e565b60405161045991906129a4565b60405180910390f35b34801561046e57600080fd5b5061048960048036038101906104849190612aa6565b611321565b6040516104969190612b14565b60405180910390f35b3480156104ab57600080fd5b506104c660048036038101906104c19190612b9b565b6113d3565b6040516104d391906128d5565b60405180910390f35b3480156104e857600080fd5b506104f161148b565b005b3480156104ff57600080fd5b50610508611513565b005b34801561051657600080fd5b5061051f6115f2565b60405161052c91906128d5565b60405180910390f35b34801561054157600080fd5b5061054a6115fc565b6040516105579190612b14565b60405180910390f35b34801561056c57600080fd5b50610575611626565b6040516105829190612a58565b60405180910390f35b34801561059757600080fd5b506105b260048036038101906105ad9190612f6f565b6116b8565b005b3480156105c057600080fd5b506105db60048036038101906105d69190612aa6565b611738565b6040516105e89190613122565b60405180910390f35b3480156105fd57600080fd5b5061061860048036038101906106139190612b9b565b611c65565b60405161062591906128d5565b60405180910390f35b34801561063a57600080fd5b50610655600480360381019061065091906131e5565b611cae565b005b34801561066357600080fd5b5061067e60048036038101906106799190612aa6565b611d30565b60405161068b9190612a58565b60405180910390f35b61069c611ddd565b005b3480156106aa57600080fd5b506106c560048036038101906106c09190613268565b611eb7565b6040516106d291906129a4565b60405180910390f35b3480156106e757600080fd5b5061070260048036038101906106fd9190612b9b565b611f3b565b005b34801561071057600080fd5b5061072b60048036038101906107269190612aa6565b612033565b005b60007f80ac58cd000000000000000000000000000000000000000000000000000000007bffffffffffffffffffffffffffffffffffffffffffffffffffffffff1916827bffffffffffffffffffffffffffffffffffffffffffffffffffffffff191614806107f857507f5b5e139f000000000000000000000000000000000000000000000000000000007bffffffffffffffffffffffffffffffffffffffffffffffffffffffff1916827bffffffffffffffffffffffffffffffffffffffffffffffffffffffff1916145b806108085750610807826120b9565b5b9050919050565b60606000805461081e906132d7565b80601f016020809104026020016040519081016040528092919081815260200182805461084a906132d7565b80156108975780601f1061086c57610100808354040283529160200191610897565b820191906000526020600020905b81548152906001019060200180831161087a57829003601f168201915b5050505050905090565b60006108ac82612123565b6108eb576040517f08c379a00000000000000000000000000000000000000000000000000000000081526004016108e29061337b565b60405180910390fd5b6004600083815260200190815260200160002060009054906101000a900473ffffffffffffffffffffffffffffffffffffffff169050919050565b600061093182611321565b90508073ffffffffffffffffffffffffffffffffffffffff168373ffffffffffffffffffffffffffffffffffffffff1614156109a2576040517f08c379a00000000000000000000000000000000000000000000000000000000081526004016109999061340d565b60405180910390fd5b8073ffffffffffffffffffffffffffffffffffffffff166109c161218f565b73ffffffffffffffffffffffffffffffffffffffff1614806109f057506109ef816109ea61218f565b611eb7565b5b610a2f576040517f08c379a0000000000000000000000000000000000000000000000000000000008152600401610a269061349f565b60405180910390fd5b610a398383612197565b505050565b6000610a4861218f565b73ffffffffffffffffffffffffffffffffffffffff16610a666115fc565b73ffffffffffffffffffffffffffffffffffffffff1614610abc576040517f08c379a0000000000000000000000000000000000000000000000000000000008152600401610ab39061350b565b60405180910390fd5b47905090565b6000600980549050905090565b600080610adb83611c65565b90506001811015915050919050565b610af261218f565b73ffffffffffffffffffffffffffffffffffffffff16610b106115fc565b73ffffffffffffffffffffffffffffffffffffffff1614610b66576040517f08c379a0000000000000000000000000000000000000000000000000000000008152600401610b5d9061350b565b60405180910390fd5b505050565b600c60009054906101000a900460ff1615610bbb576040517f08c379a0000000000000000000000000000000000000000000000000000000008152600401610bb290613577565b60405180910390fd5b6001600c60006101000a81548160ff021916908315150217905550600c60019054906101000a900460ff1615610bf057600080fd5b610bf933610acf565b15610c39576040517f08c379a0000000000000000000000000000000000000000000000000000000008152600401610c3090613609565b60405180910390fd5b600854341015610c7e576040517f08c379a0000000000000000000000000000000000000000000000000000000008152600401610c759061369b565b60405180910390fd5b60006040518061014001604052803373ffffffffffffffffffffffffffffffffffffffff1681526020018b81526020018a815260200189815260200188815260200187815260200186815260200185815260200184815260200183815250905060098190806001815401808255809150506001900390600052602060002090600a020160009091909190915060008201518160000160006101000a81548173ffffffffffffffffffffffffffffffffffffffff021916908373ffffffffffffffffffffffffffffffffffffffff1602179055506020820151816001019080519060200190610d6d9291906127b0565b506040820151816002019080519060200190610d8a9291906127b0565b506060820151816003019080519060200190610da79291906127b0565b506080820151816004019080519060200190610dc49291906127b0565b5060a0820151816005019080519060200190610de19291906127b0565b5060c0820151816006019080519060200190610dfe9291906127b0565b5060e0820151816007019080519060200190610e1b9291906127b0565b50610100820151816008019080519060200190610e399291906127b0565b506101208201518160090155505060006001600980549050610e5b91906136ea565b905080600a60003373ffffffffffffffffffffffffffffffffffffffff1673ffffffffffffffffffffffffffffffffffffffff16815260200190815260200160002081905550610eab3382612250565b3373ffffffffffffffffffffffffffffffffffffffff167ffd178168435f54449b877f11d0bae90c7003ebeb4bff0120f13a08d7e0958e6382423486604051610ef7949392919061371e565b60405180910390a250506000600c60006101000a81548160ff021916908315150217905550505050505050505050565b600c60009054906101000a900460ff1615610f77576040517f08c379a0000000000000000000000000000000000000000000000000000000008152600401610f6e90613577565b60405180910390fd5b6001600c60006101000a81548160ff021916908315150217905550610f9a61218f565b73ffffffffffffffffffffffffffffffffffffffff16610fb86115fc565b73ffffffffffffffffffffffffffffffffffffffff161461100e576040517f08c379a00000000000000000000000000000000000000000000000000000000081526004016110059061350b565b60405180910390fd5b600047905060003373ffffffffffffffffffffffffffffffffffffffff16826040516110399061379b565b60006040518083038185875af1925050503d8060008114611076576040519150601f19603f3d011682016040523d82523d6000602084013e61107b565b606091505b50509050806110bf576040517f08c379a00000000000000000000000000000000000000000000000000000000081526004016110b6906137fc565b60405180910390fd5b7f71ef96c43343734b1d843bb85d52ef329f5e9143e4d35827771e3b0dd90c5f848247336040516110f29392919061381c565b60405180910390a150506000600c60006101000a81548160ff021916908315150217905550565b61112161218f565b73ffffffffffffffffffffffffffffffffffffffff1661113f6115fc565b73ffffffffffffffffffffffffffffffffffffffff1614611195576040517f08c379a000000000000000000000000000000000000000000000000000000000815260040161118c9061350b565b60405180910390fd5b600c60019054906101000a900460ff166111ae57600080fd5b6000600c60016101000a81548160ff0219169083151502179055507f7805862f689e2f13df9f062ff482ad3ad112aca9e0847911ed832e158c525b3360405160405180910390a1565b6111ff61218f565b73ffffffffffffffffffffffffffffffffffffffff1661121d6115fc565b73ffffffffffffffffffffffffffffffffffffffff1614611273576040517f08c379a000000000000000000000000000000000000000000000000000000000815260040161126a9061350b565b60405180910390fd5b505050565b61128061218f565b73ffffffffffffffffffffffffffffffffffffffff1661129e6115fc565b73ffffffffffffffffffffffffffffffffffffffff16146112f4576040517f08c379a00000000000000000000000000000000000000000000000000000000081526004016112eb9061350b565b60405180910390fd5b806007908051906020019061130a9291906127b0565b5050565b600c60019054906101000a900460ff1681565b6000806002600084815260200190815260200160002060009054906101000a900473ffffffffffffffffffffffffffffffffffffffff169050600073ffffffffffffffffffffffffffffffffffffffff168173ffffffffffffffffffffffffffffffffffffffff1614156113ca576040517f08c379a00000000000000000000000000000000000000000000000000000000081526004016113c1906138c5565b60405180910390fd5b80915050919050565b60008073ffffffffffffffffffffffffffffffffffffffff168273ffffffffffffffffffffffffffffffffffffffff161415611444576040517f08c379a000000000000000000000000000000000000000000000000000000000815260040161143b90613957565b60405180910390fd5b600360008373ffffffffffffffffffffffffffffffffffffffff1673ffffffffffffffffffffffffffffffffffffffff168152602001908152602001600020549050919050565b61149361218f565b73ffffffffffffffffffffffffffffffffffffffff166114b16115fc565b73ffffffffffffffffffffffffffffffffffffffff1614611507576040517f08c379a00000000000000000000000000000000000000000000000000000000081526004016114fe9061350b565b60405180910390fd5b611511600061226e565b565b61151b61218f565b73ffffffffffffffffffffffffffffffffffffffff166115396115fc565b73ffffffffffffffffffffffffffffffffffffffff161461158f576040517f08c379a00000000000000000000000000000000000000000000000000000000081526004016115869061350b565b60405180910390fd5b600c60019054906101000a900460ff16156115a957600080fd5b6001600c60016101000a81548160ff0219169083151502179055507f6985a02210a168e66602d3235cb6db0e70f92b3ba4d376a33c0f3d9434bff62560405160405180910390a1565b6000600854905090565b6000600660009054906101000a900473ffffffffffffffffffffffffffffffffffffffff16905090565b606060018054611635906132d7565b80601f0160208091040260200160405190810160405280929190818152602001828054611661906132d7565b80156116ae5780601f10611683576101008083540402835291602001916116ae565b820191906000526020600020905b81548152906001019060200180831161169157829003601f168201915b5050505050905090565b6116c061218f565b73ffffffffffffffffffffffffffffffffffffffff166116de6115fc565b73ffffffffffffffffffffffffffffffffffffffff1614611734576040517f08c379a000000000000000000000000000000000000000000000000000000000815260040161172b9061350b565b60405180910390fd5b5050565b611740612836565b6009828154811061175457611753613977565b5b90600052602060002090600a0201604051806101400160405290816000820160009054906101000a900473ffffffffffffffffffffffffffffffffffffffff1673ffffffffffffffffffffffffffffffffffffffff1673ffffffffffffffffffffffffffffffffffffffff1681526020016001820180546117d4906132d7565b80601f0160208091040260200160405190810160405280929190818152602001828054611800906132d7565b801561184d5780601f106118225761010080835404028352916020019161184d565b820191906000526020600020905b81548152906001019060200180831161183057829003601f168201915b50505050508152602001600282018054611866906132d7565b80601f0160208091040260200160405190810160405280929190818152602001828054611892906132d7565b80156118df5780601f106118b4576101008083540402835291602001916118df565b820191906000526020600020905b8154815290600101906020018083116118c257829003601f168201915b505050505081526020016003820180546118f8906132d7565b80601f0160208091040260200160405190810160405280929190818152602001828054611924906132d7565b80156119715780601f1061194657610100808354040283529160200191611971565b820191906000526020600020905b81548152906001019060200180831161195457829003601f168201915b5050505050815260200160048201805461198a906132d7565b80601f01602080910402602001604051908101604052809291908181526020018280546119b6906132d7565b8015611a035780601f106119d857610100808354040283529160200191611a03565b820191906000526020600020905b8154815290600101906020018083116119e657829003601f168201915b50505050508152602001600582018054611a1c906132d7565b80601f0160208091040260200160405190810160405280929190818152602001828054611a48906132d7565b8015611a955780601f10611a6a57610100808354040283529160200191611a95565b820191906000526020600020905b815481529060010190602001808311611a7857829003601f168201915b50505050508152602001600682018054611aae906132d7565b80601f0160208091040260200160405190810160405280929190818152602001828054611ada906132d7565b8015611b275780601f10611afc57610100808354040283529160200191611b27565b820191906000526020600020905b815481529060010190602001808311611b0a57829003601f168201915b50505050508152602001600782018054611b40906132d7565b80601f0160208091040260200160405190810160405280929190818152602001828054611b6c906132d7565b8015611bb95780601f10611b8e57610100808354040283529160200191611bb9565b820191906000526020600020905b815481529060010190602001808311611b9c57829003601f168201915b50505050508152602001600882018054611bd2906132d7565b80601f0160208091040260200160405190810160405280929190818152602001828054611bfe906132d7565b8015611c4b5780601f10611c2057610100808354040283529160200191611c4b565b820191906000526020600020905b815481529060010190602001808311611c2e57829003601f168201915b505050505081526020016009820154815250509050919050565b6000600a60008373ffffffffffffffffffffffffffffffffffffffff1673ffffffffffffffffffffffffffffffffffffffff168152602001908152602001600020549050919050565b611cb661218f565b73ffffffffffffffffffffffffffffffffffffffff16611cd46115fc565b73ffffffffffffffffffffffffffffffffffffffff1614611d2a576040517f08c379a0000000000000000000000000000000000000000000000000000000008152600401611d219061350b565b60405180910390fd5b50505050565b6060611d3b82612123565b611d7a576040517f08c379a0000000000000000000000000000000000000000000000000000000008152600401611d7190613a18565b60405180910390fd5b6000611d8583611321565b90506000611d91612334565b90506000815111611db15760405180602001604052806000815250611dd4565b8082604051602001611dc4929190613abc565b6040516020818303038152906040525b92505050919050565b600034905034600b60003373ffffffffffffffffffffffffffffffffffffffff1673ffffffffffffffffffffffffffffffffffffffff1681526020019081526020016000206000828254611e319190613ae4565b925050819055507fb9c87592ed73f7a26fff471ef513f8065a243208d84daa291fb0e770635014e2814733600b60003373ffffffffffffffffffffffffffffffffffffffff1673ffffffffffffffffffffffffffffffffffffffff16815260200190815260200160002054604051611eac9493929190613b3a565b60405180910390a150565b6000611ec161218f565b73ffffffffffffffffffffffffffffffffffffffff16611edf6115fc565b73ffffffffffffffffffffffffffffffffffffffff1614611f35576040517f08c379a0000000000000000000000000000000000000000000000000000000008152600401611f2c9061350b565b60405180910390fd5b92915050565b611f4361218f565b73ffffffffffffffffffffffffffffffffffffffff16611f616115fc565b73ffffffffffffffffffffffffffffffffffffffff1614611fb7576040517f08c379a0000000000000000000000000000000000000000000000000000000008152600401611fae9061350b565b60405180910390fd5b600073ffffffffffffffffffffffffffffffffffffffff168173ffffffffffffffffffffffffffffffffffffffff161415612027576040517f08c379a000000000000000000000000000000000000000000000000000000000815260040161201e90613bf1565b60405180910390fd5b6120308161226e565b50565b61203b61218f565b73ffffffffffffffffffffffffffffffffffffffff166120596115fc565b73ffffffffffffffffffffffffffffffffffffffff16146120af576040517f08c379a00000000000000000000000000000000000000000000000000000000081526004016120a69061350b565b60405180910390fd5b8060088190555050565b60007f01ffc9a7000000000000000000000000000000000000000000000000000000007bffffffffffffffffffffffffffffffffffffffffffffffffffffffff1916827bffffffffffffffffffffffffffffffffffffffffffffffffffffffff1916149050919050565b60008073ffffffffffffffffffffffffffffffffffffffff166002600084815260200190815260200160002060009054906101000a900473ffffffffffffffffffffffffffffffffffffffff1673ffffffffffffffffffffffffffffffffffffffff1614159050919050565b600033905090565b816004600083815260200190815260200160002060006101000a81548173ffffffffffffffffffffffffffffffffffffffff021916908373ffffffffffffffffffffffffffffffffffffffff160217905550808273ffffffffffffffffffffffffffffffffffffffff1661220a83611321565b73ffffffffffffffffffffffffffffffffffffffff167f8c5be1e5ebec7d5bd14f71427d1e84f3dd0314c0f7b2291e5b200ac8c7c3b92560405160405180910390a45050565b61226a8282604051806020016040528060008152506123c6565b5050565b6000600660009054906101000a900473ffffffffffffffffffffffffffffffffffffffff16905081600660006101000a81548173ffffffffffffffffffffffffffffffffffffffff021916908373ffffffffffffffffffffffffffffffffffffffff1602179055508173ffffffffffffffffffffffffffffffffffffffff168173ffffffffffffffffffffffffffffffffffffffff167f8be0079c531659141344cd1fd0a4f28419497f9722a3daafe3b4186f6b6457e060405160405180910390a35050565b606060078054612343906132d7565b80601f016020809104026020016040519081016040528092919081815260200182805461236f906132d7565b80156123bc5780601f10612391576101008083540402835291602001916123bc565b820191906000526020600020905b81548152906001019060200180831161239f57829003601f168201915b5050505050905090565b6123d08383612421565b6123dd60008484846125fb565b61241c576040517f08c379a000000000000000000000000000000000000000000000000000000000815260040161241390613c83565b60405180910390fd5b505050565b600073ffffffffffffffffffffffffffffffffffffffff168273ffffffffffffffffffffffffffffffffffffffff161415612491576040517f08c379a000000000000000000000000000000000000000000000000000000000815260040161248890613cef565b60405180910390fd5b61249a81612123565b156124da576040517f08c379a00000000000000000000000000000000000000000000000000000000081526004016124d190613d5b565b60405180910390fd5b6124e660008383612783565b6001600360008473ffffffffffffffffffffffffffffffffffffffff1673ffffffffffffffffffffffffffffffffffffffff16815260200190815260200160002060008282546125369190613ae4565b92505081905550816002600083815260200190815260200160002060006101000a81548173ffffffffffffffffffffffffffffffffffffffff021916908373ffffffffffffffffffffffffffffffffffffffff160217905550808273ffffffffffffffffffffffffffffffffffffffff16600073ffffffffffffffffffffffffffffffffffffffff167fddf252ad1be2c89b69c2b068fc378daa952ba7f163c4a11628f55a4df523b3ef60405160405180910390a46125f760008383612788565b5050565b600061261c8473ffffffffffffffffffffffffffffffffffffffff1661278d565b15612776578373ffffffffffffffffffffffffffffffffffffffff1663150b7a0261264561218f565b8786866040518563ffffffff1660e01b81526004016126679493929190613dd0565b6020604051808303816000875af19250505080156126a357506040513d601f19601f820116820180604052508101906126a09190613e31565b60015b612726573d80600081146126d3576040519150601f19603f3d011682016040523d82523d6000602084013e6126d8565b606091505b5060008151141561271e576040517f08c379a000000000000000000000000000000000000000000000000000000000815260040161271590613c83565b60405180910390fd5b805181602001fd5b63150b7a0260e01b7bffffffffffffffffffffffffffffffffffffffffffffffffffffffff1916817bffffffffffffffffffffffffffffffffffffffffffffffffffffffff19161491505061277b565b600190505b949350505050565b505050565b505050565b6000808273ffffffffffffffffffffffffffffffffffffffff163b119050919050565b8280546127bc906132d7565b90600052602060002090601f0160209004810192826127de5760008555612825565b82601f106127f757805160ff1916838001178555612825565b82800160010185558215612825579182015b82811115612824578251825591602001919060010190612809565b5b509050612832919061289f565b5090565b604051806101400160405280600073ffffffffffffffffffffffffffffffffffffffff1681526020016060815260200160608152602001606081526020016060815260200160608152602001606081526020016060815260200160608152602001600081525090565b5b808211156128b85760008160009055506001016128a0565b5090565b6000819050919050565b6128cf816128bc565b82525050565b60006020820190506128ea60008301846128c6565b92915050565b6000604051905090565b600080fd5b600080fd5b60007fffffffff0000000000000000000000000000000000000000000000000000000082169050919050565b61293981612904565b811461294457600080fd5b50565b60008135905061295681612930565b92915050565b600060208284031215612972576129716128fa565b5b600061298084828501612947565b91505092915050565b60008115159050919050565b61299e81612989565b82525050565b60006020820190506129b96000830184612995565b92915050565b600081519050919050565b600082825260208201905092915050565b60005b838110156129f95780820151818401526020810190506129de565b83811115612a08576000848401525b50505050565b6000601f19601f8301169050919050565b6000612a2a826129bf565b612a3481856129ca565b9350612a448185602086016129db565b612a4d81612a0e565b840191505092915050565b60006020820190508181036000830152612a728184612a1f565b905092915050565b612a83816128bc565b8114612a8e57600080fd5b50565b600081359050612aa081612a7a565b92915050565b600060208284031215612abc57612abb6128fa565b5b6000612aca84828501612a91565b91505092915050565b600073ffffffffffffffffffffffffffffffffffffffff82169050919050565b6000612afe82612ad3565b9050919050565b612b0e81612af3565b82525050565b6000602082019050612b296000830184612b05565b92915050565b612b3881612af3565b8114612b4357600080fd5b50565b600081359050612b5581612b2f565b92915050565b60008060408385031215612b7257612b716128fa565b5b6000612b8085828601612b46565b9250506020612b9185828601612a91565b9150509250929050565b600060208284031215612bb157612bb06128fa565b5b6000612bbf84828501612b46565b91505092915050565b600080600060608486031215612be157612be06128fa565b5b6000612bef86828701612b46565b9350506020612c0086828701612b46565b9250506040612c1186828701612a91565b9150509250925092565b600080fd5b600080fd5b7f4e487b7100000000000000000000000000000000000000000000000000000000600052604160045260246000fd5b612c5d82612a0e565b810181811067ffffffffffffffff82111715612c7c57612c7b612c25565b5b80604052505050565b6000612c8f6128f0565b9050612c9b8282612c54565b919050565b600067ffffffffffffffff821115612cbb57612cba612c25565b5b612cc482612a0e565b9050602081019050919050565b82818337600083830152505050565b6000612cf3612cee84612ca0565b612c85565b905082815260208101848484011115612d0f57612d0e612c20565b5b612d1a848285612cd1565b509392505050565b600082601f830112612d3757612d36612c1b565b5b8135612d47848260208601612ce0565b91505092915050565b60008060008060008060008060006101208a8c031215612d7357612d726128fa565b5b60008a013567ffffffffffffffff811115612d9157612d906128ff565b5b612d9d8c828d01612d22565b99505060208a013567ffffffffffffffff811115612dbe57612dbd6128ff565b5b612dca8c828d01612d22565b98505060408a013567ffffffffffffffff811115612deb57612dea6128ff565b5b612df78c828d01612d22565b97505060608a013567ffffffffffffffff811115612e1857612e176128ff565b5b612e248c828d01612d22565b96505060808a013567ffffffffffffffff811115612e4557612e446128ff565b5b612e518c828d01612d22565b95505060a08a013567ffffffffffffffff811115612e7257612e716128ff565b5b612e7e8c828d01612d22565b94505060c08a013567ffffffffffffffff811115612e9f57612e9e6128ff565b5b612eab8c828d01612d22565b93505060e08a013567ffffffffffffffff811115612ecc57612ecb6128ff565b5b612ed88c828d01612d22565b925050610100612eea8c828d01612a91565b9150509295985092959850929598565b600060208284031215612f1057612f0f6128fa565b5b600082013567ffffffffffffffff811115612f2e57612f2d6128ff565b5b612f3a84828501612d22565b91505092915050565b612f4c81612989565b8114612f5757600080fd5b50565b600081359050612f6981612f43565b92915050565b60008060408385031215612f8657612f856128fa565b5b6000612f9485828601612b46565b9250506020612fa585828601612f5a565b9150509250929050565b612fb881612af3565b82525050565b600082825260208201905092915050565b6000612fda826129bf565b612fe48185612fbe565b9350612ff48185602086016129db565b612ffd81612a0e565b840191505092915050565b613011816128bc565b82525050565b6000610140830160008301516130306000860182612faf565b50602083015184820360208601526130488282612fcf565b915050604083015184820360408601526130628282612fcf565b9150506060830151848203606086015261307c8282612fcf565b915050608083015184820360808601526130968282612fcf565b91505060a083015184820360a08601526130b08282612fcf565b91505060c083015184820360c08601526130ca8282612fcf565b91505060e083015184820360e08601526130e48282612fcf565b9150506101008301518482036101008601526131008282612fcf565b915050610120830151613117610120860182613008565b508091505092915050565b6000602082019050818103600083015261313c8184613017565b905092915050565b600067ffffffffffffffff82111561315f5761315e612c25565b5b61316882612a0e565b9050602081019050919050565b600061318861318384613144565b612c85565b9050828152602081018484840111156131a4576131a3612c20565b5b6131af848285612cd1565b509392505050565b600082601f8301126131cc576131cb612c1b565b5b81356131dc848260208601613175565b91505092915050565b600080600080608085870312156131ff576131fe6128fa565b5b600061320d87828801612b46565b945050602061321e87828801612b46565b935050604061322f87828801612a91565b925050606085013567ffffffffffffffff8111156132505761324f6128ff565b5b61325c878288016131b7565b91505092959194509250565b6000806040838503121561327f5761327e6128fa565b5b600061328d85828601612b46565b925050602061329e85828601612b46565b9150509250929050565b7f4e487b7100000000000000000000000000000000000000000000000000000000600052602260045260246000fd5b600060028204905060018216806132ef57607f821691505b60208210811415613303576133026132a8565b5b50919050565b7f4552433732313a20617070726f76656420717565727920666f72206e6f6e657860008201527f697374656e7420746f6b656e0000000000000000000000000000000000000000602082015250565b6000613365602c836129ca565b915061337082613309565b604082019050919050565b6000602082019050818103600083015261339481613358565b9050919050565b7f4552433732313a20617070726f76616c20746f2063757272656e74206f776e6560008201527f7200000000000000000000000000000000000000000000000000000000000000602082015250565b60006133f76021836129ca565b91506134028261339b565b604082019050919050565b60006020820190508181036000830152613426816133ea565b9050919050565b7f4552433732313a20617070726f76652063616c6c6572206973206e6f74206f7760008201527f6e6572206e6f7220617070726f76656420666f7220616c6c0000000000000000602082015250565b60006134896038836129ca565b91506134948261342d565b604082019050919050565b600060208201905081810360008301526134b88161347c565b9050919050565b7f4f776e61626c653a2063616c6c6572206973206e6f7420746865206f776e6572600082015250565b60006134f56020836129ca565b9150613500826134bf565b602082019050919050565b60006020820190508181036000830152613524816134e8565b9050919050565b7f4e6f2072652d656e7472616e6379000000000000000000000000000000000000600082015250565b6000613561600e836129ca565b915061356c8261352b565b602082019050919050565b6000602082019050818103600083015261359081613554565b9050919050565b7f2057616c6c657420616c72656164792068617320616e204e46492120596f752060008201527f676574206f6e65207065722077616c6c6574206163636f756e74000000000000602082015250565b60006135f3603a836129ca565b91506135fe82613597565b604082019050919050565b60006020820190508181036000830152613622816135e6565b9050919050565b7f4e6f7420656e6f756768204554482073656e743b20636865636b20707269636560008201527f2100000000000000000000000000000000000000000000000000000000000000602082015250565b60006136856021836129ca565b915061369082613629565b604082019050919050565b600060208201905081810360008301526136b481613678565b9050919050565b7f4e487b7100000000000000000000000000000000000000000000000000000000600052601160045260246000fd5b60006136f5826128bc565b9150613700836128bc565b925082821015613713576137126136bb565b5b828203905092915050565b600060808201905061373360008301876128c6565b61374060208301866128c6565b61374d60408301856128c6565b818103606083015261375f8184613017565b905095945050505050565b600081905092915050565b50565b600061378560008361376a565b915061379082613775565b600082019050919050565b60006137a682613778565b9150819050919050565b7f5472616e73666572206661696c65642e00000000000000000000000000000000600082015250565b60006137e66010836129ca565b91506137f1826137b0565b602082019050919050565b60006020820190508181036000830152613815816137d9565b9050919050565b600060608201905061383160008301866128c6565b61383e60208301856128c6565b61384b6040830184612b05565b949350505050565b7f4552433732313a206f776e657220717565727920666f72206e6f6e657869737460008201527f656e7420746f6b656e0000000000000000000000000000000000000000000000602082015250565b60006138af6029836129ca565b91506138ba82613853565b604082019050919050565b600060208201905081810360008301526138de816138a2565b9050919050565b7f4552433732313a2062616c616e636520717565727920666f7220746865207a6560008201527f726f206164647265737300000000000000000000000000000000000000000000602082015250565b6000613941602a836129ca565b915061394c826138e5565b604082019050919050565b6000602082019050818103600083015261397081613934565b9050919050565b7f4e487b7100000000000000000000000000000000000000000000000000000000600052603260045260246000fd5b7f4552433732314d657461646174613a2055524920717565727920666f72206e6f60008201527f6e6578697374656e7420746f6b656e0000000000000000000000000000000000602082015250565b6000613a02602f836129ca565b9150613a0d826139a6565b604082019050919050565b60006020820190508181036000830152613a31816139f5565b9050919050565b600081905092915050565b6000613a4e826129bf565b613a588185613a38565b9350613a688185602086016129db565b80840191505092915050565b60008160601b9050919050565b6000613a8c82613a74565b9050919050565b6000613a9e82613a81565b9050919050565b613ab6613ab182612af3565b613a93565b82525050565b6000613ac88285613a43565b9150613ad48284613aa5565b6014820191508190509392505050565b6000613aef826128bc565b9150613afa836128bc565b9250827fffffffffffffffffffffffffffffffffffffffffffffffffffffffffffffffff03821115613b2f57613b2e6136bb565b5b828201905092915050565b6000608082019050613b4f60008301876128c6565b613b5c60208301866128c6565b613b696040830185612b05565b613b7660608301846128c6565b95945050505050565b7f4f776e61626c653a206e6577206f776e657220697320746865207a65726f206160008201527f6464726573730000000000000000000000000000000000000000000000000000602082015250565b6000613bdb6026836129ca565b9150613be682613b7f565b604082019050919050565b60006020820190508181036000830152613c0a81613bce565b9050919050565b7f4552433732313a207472616e7366657220746f206e6f6e20455243373231526560008201527f63656976657220696d706c656d656e7465720000000000000000000000000000602082015250565b6000613c6d6032836129ca565b9150613c7882613c11565b604082019050919050565b60006020820190508181036000830152613c9c81613c60565b9050919050565b7f4552433732313a206d696e7420746f20746865207a65726f2061646472657373600082015250565b6000613cd96020836129ca565b9150613ce482613ca3565b602082019050919050565b60006020820190508181036000830152613d0881613ccc565b9050919050565b7f4552433732313a20746f6b656e20616c7265616479206d696e74656400000000600082015250565b6000613d45601c836129ca565b9150613d5082613d0f565b602082019050919050565b60006020820190508181036000830152613d7481613d38565b9050919050565b600081519050919050565b600082825260208201905092915050565b6000613da282613d7b565b613dac8185613d86565b9350613dbc8185602086016129db565b613dc581612a0e565b840191505092915050565b6000608082019050613de56000830187612b05565b613df26020830186612b05565b613dff60408301856128c6565b8181036060830152613e118184613d97565b905095945050505050565b600081519050613e2b81612930565b92915050565b600060208284031215613e4757613e466128fa565b5b6000613e5584828501613e1c565b9150509291505056fea26469706673582212204cfa8dc4780e0dbbba09e7442f56f2b2ff9010e3a17b848b07ef00a11478bd2764736f6c634300080a0033",
  "immutableReferences": {},
  "source": "// SPDX-License-Identifier: GPL-3.0\r\npragma solidity >=0.8.0 <0.9.0;\r\n\r\nimport \"@openzeppelin/contracts/token/ERC721/ERC721.sol\";\r\nimport \"@openzeppelin/contracts/access/Ownable.sol\";\r\nimport \"@openzeppelin/contracts/token/ERC721/extensions/IERC721Metadata.sol\";\r\n\r\ncontract PaperMastersNFI is ERC721, Ownable {\r\n//do I need to bring in SafeMath???\r\n    string private _setBaseURI;\r\n    uint256 private identityFee;\r\n\r\n    struct identity\r\n    {\r\n        address walletAccount;\r\n        string name;\r\n        string email;\r\n        string profession;\r\n        string organization;\r\n        string slogan;\r\n        string website;\r\n        string uniqueYou;\r\n        string bgRGB;\r\n        uint originDate;\r\n    }\r\n\r\n    identity[] totalIdentities;\r\n\r\n    mapping(address => uint256) _dictionaryNFIs;\r\n    mapping(address => uint256) _supportPMDonations;\r\n\r\n    //prevents ren-entry when modifier is added to a function\r\n    bool internal locked;\r\n    modifier noReentrant() {\r\n        require(!locked, \"No re-entrancy\");\r\n        locked = true;\r\n        _;\r\n        locked = false;\r\n    }\r\n\r\n    constructor() ERC721(\"papermasters.io\", \"NFI\") {\r\n        _setBaseURI = \"www.papermasters.io/identity\";\r\n        identityFee = 100000000000000000;\r\n        totalIdentities.push(identity(address(this),'','','','','','','','',0));\r\n    }\r\n\r\n    function addressToTokenID(address walletAddress) public view returns(uint256) {\r\n        return _dictionaryNFIs[walletAddress];\r\n    }\r\n\r\n    function tokenIDtoIdentityStruct(uint256 _tokenid) public view returns(identity memory) {\r\n        return totalIdentities[_tokenid];\r\n    }\r\n\r\n    function addressHasTokenBool(address walletAddress) public view returns(bool) {\r\n        uint256 _tokenId = addressToTokenID(walletAddress);\r\n        return _tokenId >= 1;\r\n    }\r\n\r\n    function setBaseURI(string memory changeBaseURI) public onlyOwner{\r\n        _setBaseURI = changeBaseURI;\r\n    }\r\n\r\n    function _baseURI() internal view virtual override returns (string memory) {\r\n        return _setBaseURI;\r\n    }\r\n\r\n    function tokenURI(uint256 tokenId) public view virtual override returns (string memory) {\r\n        require(_exists(tokenId), \"ERC721Metadata: URI query for nonexistent token\");\r\n\r\n        address owner = ownerOf(tokenId);\r\n\r\n        string memory baseURI = _baseURI();\r\n\r\n        return bytes(baseURI).length > 0 ? string(abi.encodePacked(baseURI, owner)) : \"\";\r\n\r\n        //string memory tokenURI = baseURI/identity[tokenId];\r\n    }\r\n\r\n    function getIdentityFee() public view returns (uint256) {\r\n        return identityFee;\r\n    }\r\n\r\n    function setIdentityFee(uint256 val) external onlyOwner {\r\n        identityFee = val;\r\n    }\r\n\r\n    event Log(uint gas);\r\n\r\n    // Fallback function must be declared as external.\r\n    fallback() external payable {\r\n        // send / transfer (forwards 2300 gas to this fallback function)\r\n        // call (forwards all of the gas)\r\n        emit Log(gasleft());\r\n    }\r\n\r\n    receive() external payable {}\r\n\r\n    function deposit() public payable {\r\n        uint amount = msg.value;\r\n        _supportPMDonations[msg.sender] += msg.value;\r\n        emit DonationMade(amount, address(this).balance, msg.sender, _supportPMDonations[msg.sender]);\r\n    }\r\n        event DonationMade(uint256 amount, uint balance, address donationSender, uint totalDonationsBySender);\r\n\r\n\r\n    function getBalance() public view onlyOwner returns (uint) {\r\n        return address(this).balance;\r\n    }\r\n\r\n    function withdraw() external noReentrant onlyOwner{\r\n        // This forwards all available gas. Be sure to check the return value!\r\n        uint amount = address(this).balance;\r\n        (bool success, ) = msg.sender.call{value: amount}(\"\");\r\n        require(success, \"Transfer failed.\");\r\n        emit Withdraw(amount, address(this).balance, msg.sender);\r\n    }\r\n    event Withdraw(uint256 amount, uint256 balance, address withdrawAddress);\r\n\r\n    function totalSupply() public view returns (uint256) {\r\n        return totalIdentities.length;\r\n    }\r\n\r\n    event Pause();\r\n    event Unpause();\r\n\r\n    bool public paused = false;\r\n\r\n    modifier whenNotPaused() {\r\n        require(!paused);\r\n        _;\r\n    }\r\n\r\n    modifier whenPaused() {\r\n        require(paused);\r\n        _;\r\n    }\r\n\r\n    function pause() onlyOwner whenNotPaused public {\r\n        paused = true;\r\n        emit Pause();\r\n    }\r\n\r\n    function unpause() onlyOwner whenPaused public {\r\n        paused = false;\r\n        emit Unpause();\r\n    }\r\n\r\n    function mintNFI (\r\n        string memory _name,\r\n        string memory _email,\r\n        string memory _profession,\r\n        string memory _organization,\r\n        string memory _slogan,\r\n        string memory _website,\r\n        string memory _uniqueYou,\r\n        string memory _bgRGB,\r\n        uint _originDate\r\n    ) public virtual noReentrant payable whenNotPaused\r\n    {\r\n        require(!addressHasTokenBool(msg.sender),\" Wallet already has an NFI! You get one per wallet account\");\r\n        require(msg.value >= identityFee, \"Not enough ETH sent; check price!\");\r\n\r\n        identity memory _identity = identity({\r\n        walletAccount: msg.sender,\r\n        name: _name,\r\n        email: _email,\r\n        profession: _profession,\r\n        organization: _organization,\r\n        slogan: _slogan,\r\n        website: _website,\r\n        uniqueYou: _uniqueYou,\r\n        bgRGB: _bgRGB,\r\n        originDate: _originDate\r\n        });\r\n\r\n        totalIdentities.push(_identity);\r\n\r\n        uint256 newTokenID = totalIdentities.length - 1;\r\n\r\n        _dictionaryNFIs[msg.sender] = newTokenID;\r\n\r\n        _safeMint(msg.sender, newTokenID);\r\n\r\n        emit NFIMinted(msg.sender, newTokenID, block.timestamp, msg.value, _identity );\r\n\r\n    }\r\n    event NFIMinted(address indexed _from, uint256 tokenId, uint256 timeStamp, uint256 contractFee, identity identityStruct);\r\n\r\n    function setApprovalForAll(address operator, bool approved) public virtual override onlyOwner{}\r\n    function isApprovedForAll(address owner, address operator) public view virtual override onlyOwner returns (bool) {}\r\n    function transferFrom(address from, address to, uint256 tokenId) public virtual override onlyOwner{}\r\n    function safeTransferFrom(address from, address to, uint256 tokenId) public virtual override  onlyOwner {}\r\n    function safeTransferFrom(address from, address to, uint256 tokenId, bytes memory _data) public virtual override onlyOwner {}\r\n    function _safeTransfer(address from, address to, uint256 tokenId, bytes memory _data) internal virtual override onlyOwner {}\r\n}",
  "sourcePath": "/home/ramona/gitrepos/MintIdentityTPM/truffle/contracts/MintIdentity.sol",
  "compiler": {
    "name": "solc",
    "version": "0.8.10+commit.fc410830.Emscripten.clang"
  },
  "schemaVersion": "3.4.4",
  "updatedAt": "2022-03-12T00:28:15.301Z",
  "networkType": "ethereum",
  "devdoc": {
    "kind": "dev",
    "methods": {
      "approve(address,uint256)": {
        "details": "See {IERC721-approve}."
      },
      "balanceOf(address)": {
        "details": "See {IERC721-balanceOf}."
      },
      "getApproved(uint256)": {
        "details": "See {IERC721-getApproved}."
      },
      "isApprovedForAll(address,address)": {
        "details": "See {IERC721-isApprovedForAll}."
      },
      "name()": {
        "details": "See {IERC721Metadata-name}."
      },
      "owner()": {
        "details": "Returns the address of the current owner."
      },
      "ownerOf(uint256)": {
        "details": "See {IERC721-ownerOf}."
      },
      "renounceOwnership()": {
        "details": "Leaves the contract without owner. It will not be possible to call `onlyOwner` functions anymore. Can only be called by the current owner. NOTE: Renouncing ownership will leave the contract without an owner, thereby removing any functionality that is only available to the owner."
      },
      "safeTransferFrom(address,address,uint256)": {
        "details": "See {IERC721-safeTransferFrom}."
      },
      "safeTransferFrom(address,address,uint256,bytes)": {
        "details": "See {IERC721-safeTransferFrom}."
      },
      "setApprovalForAll(address,bool)": {
        "details": "See {IERC721-setApprovalForAll}."
      },
      "supportsInterface(bytes4)": {
        "details": "See {IERC165-supportsInterface}."
      },
      "symbol()": {
        "details": "See {IERC721Metadata-symbol}."
      },
      "tokenURI(uint256)": {
        "details": "See {IERC721Metadata-tokenURI}."
      },
      "transferFrom(address,address,uint256)": {
        "details": "See {IERC721-transferFrom}."
      },
      "transferOwnership(address)": {
        "details": "Transfers ownership of the contract to a new account (`newOwner`). Can only be called by the current owner."
      }
    },
    "version": 1
  },
  "userdoc": {
    "kind": "user",
    "methods": {},
    "version": 1
  }
}