{
  "contractName": "PaperMastersNFI",
  "abi": [
    {
      "inputs": [],
      "stateMutability": "nonpayable",
      "type": "constructor"
    },
    {
      "anonymous": false,
      "inputs": [
        {
          "indexed": true,
          "internalType": "address",
          "name": "owner",
          "type": "address"
        },
        {
          "indexed": true,
          "internalType": "address",
          "name": "approved",
          "type": "address"
        },
        {
          "indexed": true,
          "internalType": "uint256",
          "name": "tokenId",
          "type": "uint256"
        }
      ],
      "name": "Approval",
      "type": "event"
    },
    {
      "anonymous": false,
      "inputs": [
        {
          "indexed": true,
          "internalType": "address",
          "name": "owner",
          "type": "address"
        },
        {
          "indexed": true,
          "internalType": "address",
          "name": "operator",
          "type": "address"
        },
        {
          "indexed": false,
          "internalType": "bool",
          "name": "approved",
          "type": "bool"
        }
      ],
      "name": "ApprovalForAll",
      "type": "event"
    },
    {
      "anonymous": false,
      "inputs": [
        {
          "indexed": false,
          "internalType": "uint256",
          "name": "amount",
          "type": "uint256"
        },
        {
          "indexed": false,
          "internalType": "uint256",
          "name": "balance",
          "type": "uint256"
        },
        {
          "indexed": false,
          "internalType": "address",
          "name": "donationSender",
          "type": "address"
        },
        {
          "indexed": false,
          "internalType": "uint256",
          "name": "totalDonationsBySender",
          "type": "uint256"
        }
      ],
      "name": "DonationMade",
      "type": "event"
    },
    {
      "anonymous": false,
      "inputs": [
        {
          "indexed": false,
          "internalType": "uint256",
          "name": "gas",
          "type": "uint256"
        }
      ],
      "name": "Log",
      "type": "event"
    },
    {
      "anonymous": false,
      "inputs": [
        {
          "indexed": true,
          "internalType": "address",
          "name": "_from",
          "type": "address"
        },
        {
          "indexed": false,
          "internalType": "uint256",
          "name": "tokenId",
          "type": "uint256"
        },
        {
          "indexed": false,
          "internalType": "uint256",
          "name": "timeStamp",
          "type": "uint256"
        },
        {
          "indexed": false,
          "internalType": "uint256",
          "name": "contractFee",
          "type": "uint256"
        },
        {
          "components": [
            {
              "internalType": "address",
              "name": "walletAccount",
              "type": "address"
            },
            {
              "internalType": "uint256",
              "name": "chainId",
              "type": "uint256"
            },
            {
              "internalType": "string",
              "name": "name",
              "type": "string"
            },
            {
              "internalType": "string",
              "name": "email",
              "type": "string"
            },
            {
              "internalType": "string",
              "name": "profession",
              "type": "string"
            },
            {
              "internalType": "string",
              "name": "organization",
              "type": "string"
            },
            {
              "internalType": "string",
              "name": "slogan",
              "type": "string"
            },
            {
              "internalType": "string",
              "name": "website",
              "type": "string"
            },
            {
              "internalType": "string",
              "name": "uniqueYou",
              "type": "string"
            },
            {
              "internalType": "string",
              "name": "bgRGB",
              "type": "string"
            },
            {
              "internalType": "uint256",
              "name": "originDate",
              "type": "uint256"
            }
          ],
          "indexed": false,
          "internalType": "struct PaperMastersNFI.identity",
          "name": "identityStruct",
          "type": "tuple"
        }
      ],
      "name": "NFIMinted",
      "type": "event"
    },
    {
      "anonymous": false,
      "inputs": [
        {
          "indexed": true,
          "internalType": "address",
          "name": "previousOwner",
          "type": "address"
        },
        {
          "indexed": true,
          "internalType": "address",
          "name": "newOwner",
          "type": "address"
        }
      ],
      "name": "OwnershipTransferred",
      "type": "event"
    },
    {
      "anonymous": false,
      "inputs": [],
      "name": "Pause",
      "type": "event"
    },
    {
      "anonymous": false,
      "inputs": [
        {
          "indexed": true,
          "internalType": "address",
          "name": "from",
          "type": "address"
        },
        {
          "indexed": true,
          "internalType": "address",
          "name": "to",
          "type": "address"
        },
        {
          "indexed": true,
          "internalType": "uint256",
          "name": "tokenId",
          "type": "uint256"
        }
      ],
      "name": "Transfer",
      "type": "event"
    },
    {
      "anonymous": false,
      "inputs": [],
      "name": "Unpause",
      "type": "event"
    },
    {
      "anonymous": false,
      "inputs": [
        {
          "indexed": false,
          "internalType": "uint256",
          "name": "amount",
          "type": "uint256"
        },
        {
          "indexed": false,
          "internalType": "uint256",
          "name": "balance",
          "type": "uint256"
        },
        {
          "indexed": false,
          "internalType": "address",
          "name": "withdrawAddress",
          "type": "address"
        }
      ],
      "name": "Withdraw",
      "type": "event"
    },
    {
      "stateMutability": "payable",
      "type": "fallback"
    },
    {
      "inputs": [
        {
          "internalType": "address",
          "name": "to",
          "type": "address"
        },
        {
          "internalType": "uint256",
          "name": "tokenId",
          "type": "uint256"
        }
      ],
      "name": "approve",
      "outputs": [],
      "stateMutability": "nonpayable",
      "type": "function"
    },
    {
      "inputs": [
        {
          "internalType": "address",
          "name": "owner",
          "type": "address"
        }
      ],
      "name": "balanceOf",
      "outputs": [
        {
          "internalType": "uint256",
          "name": "",
          "type": "uint256"
        }
      ],
      "stateMutability": "view",
      "type": "function"
    },
    {
      "inputs": [
        {
          "internalType": "uint256",
          "name": "tokenId",
          "type": "uint256"
        }
      ],
      "name": "getApproved",
      "outputs": [
        {
          "internalType": "address",
          "name": "",
          "type": "address"
        }
      ],
      "stateMutability": "view",
      "type": "function"
    },
    {
      "inputs": [],
      "name": "name",
      "outputs": [
        {
          "internalType": "string",
          "name": "",
          "type": "string"
        }
      ],
      "stateMutability": "view",
      "type": "function"
    },
    {
      "inputs": [],
      "name": "owner",
      "outputs": [
        {
          "internalType": "address",
          "name": "",
          "type": "address"
        }
      ],
      "stateMutability": "view",
      "type": "function"
    },
    {
      "inputs": [
        {
          "internalType": "uint256",
          "name": "tokenId",
          "type": "uint256"
        }
      ],
      "name": "ownerOf",
      "outputs": [
        {
          "internalType": "address",
          "name": "",
          "type": "address"
        }
      ],
      "stateMutability": "view",
      "type": "function"
    },
    {
      "inputs": [],
      "name": "paused",
      "outputs": [
        {
          "internalType": "bool",
          "name": "",
          "type": "bool"
        }
      ],
      "stateMutability": "view",
      "type": "function"
    },
    {
      "inputs": [],
      "name": "renounceOwnership",
      "outputs": [],
      "stateMutability": "nonpayable",
      "type": "function"
    },
    {
      "inputs": [
        {
          "internalType": "bytes4",
          "name": "interfaceId",
          "type": "bytes4"
        }
      ],
      "name": "supportsInterface",
      "outputs": [
        {
          "internalType": "bool",
          "name": "",
          "type": "bool"
        }
      ],
      "stateMutability": "view",
      "type": "function"
    },
    {
      "inputs": [],
      "name": "symbol",
      "outputs": [
        {
          "internalType": "string",
          "name": "",
          "type": "string"
        }
      ],
      "stateMutability": "view",
      "type": "function"
    },
    {
      "inputs": [
        {
          "internalType": "address",
          "name": "newOwner",
          "type": "address"
        }
      ],
      "name": "transferOwnership",
      "outputs": [],
      "stateMutability": "nonpayable",
      "type": "function"
    },
    {
      "stateMutability": "payable",
      "type": "receive"
    },
    {
      "inputs": [
        {
          "internalType": "address",
          "name": "walletAddress",
          "type": "address"
        }
      ],
      "name": "addressToTokenID",
      "outputs": [
        {
          "internalType": "uint256",
          "name": "",
          "type": "uint256"
        }
      ],
      "stateMutability": "view",
      "type": "function"
    },
    {
      "inputs": [
        {
          "internalType": "uint256",
          "name": "_tokenid",
          "type": "uint256"
        }
      ],
      "name": "tokenIDtoIdentityStruct",
      "outputs": [
        {
          "components": [
            {
              "internalType": "address",
              "name": "walletAccount",
              "type": "address"
            },
            {
              "internalType": "uint256",
              "name": "chainId",
              "type": "uint256"
            },
            {
              "internalType": "string",
              "name": "name",
              "type": "string"
            },
            {
              "internalType": "string",
              "name": "email",
              "type": "string"
            },
            {
              "internalType": "string",
              "name": "profession",
              "type": "string"
            },
            {
              "internalType": "string",
              "name": "organization",
              "type": "string"
            },
            {
              "internalType": "string",
              "name": "slogan",
              "type": "string"
            },
            {
              "internalType": "string",
              "name": "website",
              "type": "string"
            },
            {
              "internalType": "string",
              "name": "uniqueYou",
              "type": "string"
            },
            {
              "internalType": "string",
              "name": "bgRGB",
              "type": "string"
            },
            {
              "internalType": "uint256",
              "name": "originDate",
              "type": "uint256"
            }
          ],
          "internalType": "struct PaperMastersNFI.identity",
          "name": "",
          "type": "tuple"
        }
      ],
      "stateMutability": "view",
      "type": "function"
    },
    {
      "inputs": [
        {
          "internalType": "address",
          "name": "walletAddress",
          "type": "address"
        }
      ],
      "name": "addressHasTokenBool",
      "outputs": [
        {
          "internalType": "bool",
          "name": "",
          "type": "bool"
        }
      ],
      "stateMutability": "view",
      "type": "function"
    },
    {
      "inputs": [
        {
          "internalType": "address",
          "name": "walletAddress",
          "type": "address"
        }
      ],
      "name": "addressToIdentityStruct",
      "outputs": [
        {
          "components": [
            {
              "internalType": "address",
              "name": "walletAccount",
              "type": "address"
            },
            {
              "internalType": "uint256",
              "name": "chainId",
              "type": "uint256"
            },
            {
              "internalType": "string",
              "name": "name",
              "type": "string"
            },
            {
              "internalType": "string",
              "name": "email",
              "type": "string"
            },
            {
              "internalType": "string",
              "name": "profession",
              "type": "string"
            },
            {
              "internalType": "string",
              "name": "organization",
              "type": "string"
            },
            {
              "internalType": "string",
              "name": "slogan",
              "type": "string"
            },
            {
              "internalType": "string",
              "name": "website",
              "type": "string"
            },
            {
              "internalType": "string",
              "name": "uniqueYou",
              "type": "string"
            },
            {
              "internalType": "string",
              "name": "bgRGB",
              "type": "string"
            },
            {
              "internalType": "uint256",
              "name": "originDate",
              "type": "uint256"
            }
          ],
          "internalType": "struct PaperMastersNFI.identity",
          "name": "",
          "type": "tuple"
        }
      ],
      "stateMutability": "view",
      "type": "function"
    },
    {
      "inputs": [],
      "name": "getChainID",
      "outputs": [
        {
          "internalType": "uint256",
          "name": "",
          "type": "uint256"
        }
      ],
      "stateMutability": "view",
      "type": "function"
    },
    {
      "inputs": [],
      "name": "allIdentityStructs",
      "outputs": [
        {
          "components": [
            {
              "internalType": "address",
              "name": "walletAccount",
              "type": "address"
            },
            {
              "internalType": "uint256",
              "name": "chainId",
              "type": "uint256"
            },
            {
              "internalType": "string",
              "name": "name",
              "type": "string"
            },
            {
              "internalType": "string",
              "name": "email",
              "type": "string"
            },
            {
              "internalType": "string",
              "name": "profession",
              "type": "string"
            },
            {
              "internalType": "string",
              "name": "organization",
              "type": "string"
            },
            {
              "internalType": "string",
              "name": "slogan",
              "type": "string"
            },
            {
              "internalType": "string",
              "name": "website",
              "type": "string"
            },
            {
              "internalType": "string",
              "name": "uniqueYou",
              "type": "string"
            },
            {
              "internalType": "string",
              "name": "bgRGB",
              "type": "string"
            },
            {
              "internalType": "uint256",
              "name": "originDate",
              "type": "uint256"
            }
          ],
          "internalType": "struct PaperMastersNFI.identity[]",
          "name": "",
          "type": "tuple[]"
        }
      ],
      "stateMutability": "view",
      "type": "function"
    },
    {
      "inputs": [
        {
          "internalType": "string",
          "name": "changeBaseURI",
          "type": "string"
        }
      ],
      "name": "setBaseURI",
      "outputs": [],
      "stateMutability": "nonpayable",
      "type": "function"
    },
    {
      "inputs": [
        {
          "internalType": "uint256",
          "name": "tokenId",
          "type": "uint256"
        }
      ],
      "name": "tokenURI",
      "outputs": [
        {
          "internalType": "string",
          "name": "",
          "type": "string"
        }
      ],
      "stateMutability": "view",
      "type": "function"
    },
    {
      "inputs": [],
      "name": "getIdentityFee",
      "outputs": [
        {
          "internalType": "uint256",
          "name": "",
          "type": "uint256"
        }
      ],
      "stateMutability": "view",
      "type": "function"
    },
    {
      "inputs": [
        {
          "internalType": "uint256",
          "name": "val",
          "type": "uint256"
        }
      ],
      "name": "setIdentityFee",
      "outputs": [],
      "stateMutability": "nonpayable",
      "type": "function"
    },
    {
      "inputs": [],
      "name": "deposit",
      "outputs": [],
      "stateMutability": "payable",
      "type": "function"
    },
    {
      "inputs": [],
      "name": "getBalance",
      "outputs": [
        {
          "internalType": "uint256",
          "name": "",
          "type": "uint256"
        }
      ],
      "stateMutability": "view",
      "type": "function"
    },
    {
      "inputs": [],
      "name": "withdraw",
      "outputs": [],
      "stateMutability": "nonpayable",
      "type": "function"
    },
    {
      "inputs": [],
      "name": "totalSupply",
      "outputs": [
        {
          "internalType": "uint256",
          "name": "",
          "type": "uint256"
        }
      ],
      "stateMutability": "view",
      "type": "function"
    },
    {
      "inputs": [],
      "name": "pause",
      "outputs": [],
      "stateMutability": "nonpayable",
      "type": "function"
    },
    {
      "inputs": [],
      "name": "unpause",
      "outputs": [],
      "stateMutability": "nonpayable",
      "type": "function"
    },
    {
      "inputs": [
        {
          "internalType": "string",
          "name": "_name",
          "type": "string"
        },
        {
          "internalType": "string",
          "name": "_email",
          "type": "string"
        },
        {
          "internalType": "string",
          "name": "_profession",
          "type": "string"
        },
        {
          "internalType": "string",
          "name": "_organization",
          "type": "string"
        },
        {
          "internalType": "string",
          "name": "_slogan",
          "type": "string"
        },
        {
          "internalType": "string",
          "name": "_website",
          "type": "string"
        },
        {
          "internalType": "string",
          "name": "_uniqueYou",
          "type": "string"
        },
        {
          "internalType": "string",
          "name": "_bgRGB",
          "type": "string"
        }
      ],
      "name": "mintNFI",
      "outputs": [],
      "stateMutability": "payable",
      "type": "function"
    },
    {
      "inputs": [
        {
          "internalType": "address",
          "name": "operator",
          "type": "address"
        },
        {
          "internalType": "bool",
          "name": "approved",
          "type": "bool"
        }
      ],
      "name": "setApprovalForAll",
      "outputs": [],
      "stateMutability": "nonpayable",
      "type": "function"
    },
    {
      "inputs": [
        {
          "internalType": "address",
          "name": "owner",
          "type": "address"
        },
        {
          "internalType": "address",
          "name": "operator",
          "type": "address"
        }
      ],
      "name": "isApprovedForAll",
      "outputs": [
        {
          "internalType": "bool",
          "name": "",
          "type": "bool"
        }
      ],
      "stateMutability": "view",
      "type": "function"
    },
    {
      "inputs": [
        {
          "internalType": "address",
          "name": "from",
          "type": "address"
        },
        {
          "internalType": "address",
          "name": "to",
          "type": "address"
        },
        {
          "internalType": "uint256",
          "name": "tokenId",
          "type": "uint256"
        }
      ],
      "name": "transferFrom",
      "outputs": [],
      "stateMutability": "nonpayable",
      "type": "function"
    },
    {
      "inputs": [
        {
          "internalType": "address",
          "name": "from",
          "type": "address"
        },
        {
          "internalType": "address",
          "name": "to",
          "type": "address"
        },
        {
          "internalType": "uint256",
          "name": "tokenId",
          "type": "uint256"
        }
      ],
      "name": "safeTransferFrom",
      "outputs": [],
      "stateMutability": "nonpayable",
      "type": "function"
    },
    {
      "inputs": [
        {
          "internalType": "address",
          "name": "from",
          "type": "address"
        },
        {
          "internalType": "address",
          "name": "to",
          "type": "address"
        },
        {
          "internalType": "uint256",
          "name": "tokenId",
          "type": "uint256"
        },
        {
          "internalType": "bytes",
          "name": "_data",
          "type": "bytes"
        }
      ],
      "name": "safeTransferFrom",
      "outputs": [],
      "stateMutability": "nonpayable",
      "type": "function"
    }
  ],
  "bytecode": "0x60806040526000600c60016101000a81548160ff0219169083151502179055503480156200002c57600080fd5b506040518060400160405280600f81526020017f70617065726d6173746572732e696f00000000000000000000000000000000008152506040518060400160405280600381526020017f4e464900000000000000000000000000000000000000000000000000000000008152508160009080519060200190620000b19291906200047b565b508060019080519060200190620000ca9291906200047b565b505050620000ed620000e1620003ad60201b60201c565b620003b560201b60201c565b6040518060400160405280601c81526020017f7777772e70617065726d6173746572732e696f2f6964656e7469747900000000815250600790805190602001906200013a9291906200047b565b5067016345785d8a000060088190555060096040518061016001604052803073ffffffffffffffffffffffffffffffffffffffff1681526020014681526020016040518060200160405280600081525081526020016040518060200160405280600081525081526020016040518060200160405280600081525081526020016040518060200160405280600081525081526020016040518060200160405280600081525081526020016040518060200160405280600081525081526020016040518060200160405280600081525081526020016040518060200160405280600081525081526020014281525090806001815401808255809150506001900390600052602060002090600b020160009091909190915060008201518160000160006101000a81548173ffffffffffffffffffffffffffffffffffffffff021916908373ffffffffffffffffffffffffffffffffffffffff160217905550602082015181600101556040820151816002019080519060200190620002be9291906200047b565b506060820151816003019080519060200190620002dd9291906200047b565b506080820151816004019080519060200190620002fc9291906200047b565b5060a08201518160050190805190602001906200031b9291906200047b565b5060c08201518160060190805190602001906200033a9291906200047b565b5060e0820151816007019080519060200190620003599291906200047b565b50610100820151816008019080519060200190620003799291906200047b565b50610120820151816009019080519060200190620003999291906200047b565b5061014082015181600a0155505062000590565b600033905090565b6000600660009054906101000a900473ffffffffffffffffffffffffffffffffffffffff16905081600660006101000a81548173ffffffffffffffffffffffffffffffffffffffff021916908373ffffffffffffffffffffffffffffffffffffffff1602179055508173ffffffffffffffffffffffffffffffffffffffff168173ffffffffffffffffffffffffffffffffffffffff167f8be0079c531659141344cd1fd0a4f28419497f9722a3daafe3b4186f6b6457e060405160405180910390a35050565b82805462000489906200055a565b90600052602060002090601f016020900481019282620004ad5760008555620004f9565b82601f10620004c857805160ff1916838001178555620004f9565b82800160010185558215620004f9579182015b82811115620004f8578251825591602001919060010190620004db565b5b5090506200050891906200050c565b5090565b5b80821115620005275760008160009055506001016200050d565b5090565b7f4e487b7100000000000000000000000000000000000000000000000000000000600052602260045260246000fd5b600060028204905060018216806200057357607f821691505b602082108114156200058a57620005896200052b565b5b50919050565b614c1a80620005a06000396000f3fe6080604052600436106101f25760003560e01c806363b9910f1161010d578063a3925b25116100a0578063d0e30db01161006f578063d0e30db01461072c578063e985e9c514610736578063f2fde38b14610773578063f9c1f36f1461079c578063ff87a2b9146107c5576101f9565b8063a3925b251461064c578063adde18b014610689578063b88d4fde146106c6578063c87b56dd146106ef576101f9565b80638ae23730116100dc5780638ae23730146105a25780638da5cb5b146105cd57806395d89b41146105f8578063a22cb46514610623576101f9565b806363b9910f1461050c57806370a0823114610537578063715018a6146105745780638456cb591461058b576101f9565b80633ccfd60b1161018557806355f804b31161015457806355f804b314610450578063564b81ef146104795780635c975abb146104a45780636352211e146104cf576101f9565b80633ccfd60b146103bc5780633f4ba83a146103d357806342842e0e146103ea578063532de8e914610413576101f9565b806312065fe0116101c157806312065fe01461030057806318160ddd1461032b5780631a0740a81461035657806323b872dd14610393576101f9565b806301ffc9a71461023257806306fdde031461026f578063081812fc1461029a578063095ea7b3146102d7576101f9565b366101f957005b7f909c57d5c6ac08245cf2a6de3900e2b868513fa59099b92b27d8db823d92df9c5a6040516102289190613456565b60405180910390a1005b34801561023e57600080fd5b50610259600480360381019061025491906134dd565b6107e1565b6040516102669190613525565b60405180910390f35b34801561027b57600080fd5b506102846108c3565b60405161029191906135d9565b60405180910390f35b3480156102a657600080fd5b506102c160048036038101906102bc9190613627565b610955565b6040516102ce9190613695565b60405180910390f35b3480156102e357600080fd5b506102fe60048036038101906102f991906136dc565b6109da565b005b34801561030c57600080fd5b50610315610af2565b6040516103229190613456565b60405180910390f35b34801561033757600080fd5b50610340610b76565b60405161034d9190613456565b60405180910390f35b34801561036257600080fd5b5061037d6004803603810190610378919061371c565b610b83565b60405161038a9190613525565b60405180910390f35b34801561039f57600080fd5b506103ba60048036038101906103b59190613749565b610b9e565b005b3480156103c857600080fd5b506103d1610c1f565b005b3480156103df57600080fd5b506103e8610e11565b005b3480156103f657600080fd5b50610411600480360381019061040c9190613749565b610eef565b005b34801561041f57600080fd5b5061043a6004803603810190610435919061371c565b610f70565b6040516104479190613924565b60405180910390f35b34801561045c57600080fd5b5061047760048036038101906104729190613a7b565b6114b5565b005b34801561048557600080fd5b5061048e61154b565b60405161049b9190613456565b60405180910390f35b3480156104b057600080fd5b506104b9611558565b6040516104c69190613525565b60405180910390f35b3480156104db57600080fd5b506104f660048036038101906104f19190613627565b61156b565b6040516105039190613695565b60405180910390f35b34801561051857600080fd5b5061052161161d565b60405161052e9190613ca6565b60405180910390f35b34801561054357600080fd5b5061055e6004803603810190610559919061371c565b611b77565b60405161056b9190613456565b60405180910390f35b34801561058057600080fd5b50610589611c2f565b005b34801561059757600080fd5b506105a0611cb7565b005b3480156105ae57600080fd5b506105b7611d96565b6040516105c49190613456565b60405180910390f35b3480156105d957600080fd5b506105e2611da0565b6040516105ef9190613695565b60405180910390f35b34801561060457600080fd5b5061060d611dca565b60405161061a91906135d9565b60405180910390f35b34801561062f57600080fd5b5061064a60048036038101906106459190613cf4565b611e5c565b005b34801561065857600080fd5b50610673600480360381019061066e9190613627565b611edc565b6040516106809190613924565b60405180910390f35b34801561069557600080fd5b506106b060048036038101906106ab919061371c565b612413565b6040516106bd9190613456565b60405180910390f35b3480156106d257600080fd5b506106ed60048036038101906106e89190613dd5565b61245c565b005b3480156106fb57600080fd5b5061071660048036038101906107119190613627565b6124de565b60405161072391906135d9565b60405180910390f35b61073461258b565b005b34801561074257600080fd5b5061075d60048036038101906107589190613e58565b612665565b60405161076a9190613525565b60405180910390f35b34801561077f57600080fd5b5061079a6004803603810190610795919061371c565b6126e9565b005b3480156107a857600080fd5b506107c360048036038101906107be9190613627565b6127e1565b005b6107df60048036038101906107da9190613e98565b612867565b005b60007f80ac58cd000000000000000000000000000000000000000000000000000000007bffffffffffffffffffffffffffffffffffffffffffffffffffffffff1916827bffffffffffffffffffffffffffffffffffffffffffffffffffffffff191614806108ac57507f5b5e139f000000000000000000000000000000000000000000000000000000007bffffffffffffffffffffffffffffffffffffffffffffffffffffffff1916827bffffffffffffffffffffffffffffffffffffffffffffffffffffffff1916145b806108bc57506108bb82612c33565b5b9050919050565b6060600080546108d29061405d565b80601f01602080910402602001604051908101604052809291908181526020018280546108fe9061405d565b801561094b5780601f106109205761010080835404028352916020019161094b565b820191906000526020600020905b81548152906001019060200180831161092e57829003601f168201915b5050505050905090565b600061096082612c9d565b61099f576040517f08c379a000000000000000000000000000000000000000000000000000000000815260040161099690614101565b60405180910390fd5b6004600083815260200190815260200160002060009054906101000a900473ffffffffffffffffffffffffffffffffffffffff169050919050565b60006109e58261156b565b90508073ffffffffffffffffffffffffffffffffffffffff168373ffffffffffffffffffffffffffffffffffffffff161415610a56576040517f08c379a0000000000000000000000000000000000000000000000000000000008152600401610a4d90614193565b60405180910390fd5b8073ffffffffffffffffffffffffffffffffffffffff16610a75612d09565b73ffffffffffffffffffffffffffffffffffffffff161480610aa45750610aa381610a9e612d09565b612665565b5b610ae3576040517f08c379a0000000000000000000000000000000000000000000000000000000008152600401610ada90614225565b60405180910390fd5b610aed8383612d11565b505050565b6000610afc612d09565b73ffffffffffffffffffffffffffffffffffffffff16610b1a611da0565b73ffffffffffffffffffffffffffffffffffffffff1614610b70576040517f08c379a0000000000000000000000000000000000000000000000000000000008152600401610b6790614291565b60405180910390fd5b47905090565b6000600980549050905090565b600080610b8f83612413565b90506001811015915050919050565b610ba6612d09565b73ffffffffffffffffffffffffffffffffffffffff16610bc4611da0565b73ffffffffffffffffffffffffffffffffffffffff1614610c1a576040517f08c379a0000000000000000000000000000000000000000000000000000000008152600401610c1190614291565b60405180910390fd5b505050565b600c60009054906101000a900460ff1615610c6f576040517f08c379a0000000000000000000000000000000000000000000000000000000008152600401610c66906142fd565b60405180910390fd5b6001600c60006101000a81548160ff021916908315150217905550610c92612d09565b73ffffffffffffffffffffffffffffffffffffffff16610cb0611da0565b73ffffffffffffffffffffffffffffffffffffffff1614610d06576040517f08c379a0000000000000000000000000000000000000000000000000000000008152600401610cfd90614291565b60405180910390fd5b600047905060003373ffffffffffffffffffffffffffffffffffffffff1682604051610d319061434e565b60006040518083038185875af1925050503d8060008114610d6e576040519150601f19603f3d011682016040523d82523d6000602084013e610d73565b606091505b5050905080610db7576040517f08c379a0000000000000000000000000000000000000000000000000000000008152600401610dae906143af565b60405180910390fd5b7f71ef96c43343734b1d843bb85d52ef329f5e9143e4d35827771e3b0dd90c5f84824733604051610dea939291906143cf565b60405180910390a150506000600c60006101000a81548160ff021916908315150217905550565b610e19612d09565b73ffffffffffffffffffffffffffffffffffffffff16610e37611da0565b73ffffffffffffffffffffffffffffffffffffffff1614610e8d576040517f08c379a0000000000000000000000000000000000000000000000000000000008152600401610e8490614291565b60405180910390fd5b600c60019054906101000a900460ff16610ea657600080fd5b6000600c60016101000a81548160ff0219169083151502179055507f7805862f689e2f13df9f062ff482ad3ad112aca9e0847911ed832e158c525b3360405160405180910390a1565b610ef7612d09565b73ffffffffffffffffffffffffffffffffffffffff16610f15611da0565b73ffffffffffffffffffffffffffffffffffffffff1614610f6b576040517f08c379a0000000000000000000000000000000000000000000000000000000008152600401610f6290614291565b60405180910390fd5b505050565b610f7861332a565b6000610f8383612413565b905060098181548110610f9957610f98614406565b5b90600052602060002090600b0201604051806101600160405290816000820160009054906101000a900473ffffffffffffffffffffffffffffffffffffffff1673ffffffffffffffffffffffffffffffffffffffff1673ffffffffffffffffffffffffffffffffffffffff168152602001600182015481526020016002820180546110239061405d565b80601f016020809104026020016040519081016040528092919081815260200182805461104f9061405d565b801561109c5780601f106110715761010080835404028352916020019161109c565b820191906000526020600020905b81548152906001019060200180831161107f57829003601f168201915b505050505081526020016003820180546110b59061405d565b80601f01602080910402602001604051908101604052809291908181526020018280546110e19061405d565b801561112e5780601f106111035761010080835404028352916020019161112e565b820191906000526020600020905b81548152906001019060200180831161111157829003601f168201915b505050505081526020016004820180546111479061405d565b80601f01602080910402602001604051908101604052809291908181526020018280546111739061405d565b80156111c05780601f10611195576101008083540402835291602001916111c0565b820191906000526020600020905b8154815290600101906020018083116111a357829003601f168201915b505050505081526020016005820180546111d99061405d565b80601f01602080910402602001604051908101604052809291908181526020018280546112059061405d565b80156112525780601f1061122757610100808354040283529160200191611252565b820191906000526020600020905b81548152906001019060200180831161123557829003601f168201915b5050505050815260200160068201805461126b9061405d565b80601f01602080910402602001604051908101604052809291908181526020018280546112979061405d565b80156112e45780601f106112b9576101008083540402835291602001916112e4565b820191906000526020600020905b8154815290600101906020018083116112c757829003601f168201915b505050505081526020016007820180546112fd9061405d565b80601f01602080910402602001604051908101604052809291908181526020018280546113299061405d565b80156113765780601f1061134b57610100808354040283529160200191611376565b820191906000526020600020905b81548152906001019060200180831161135957829003601f168201915b5050505050815260200160088201805461138f9061405d565b80601f01602080910402602001604051908101604052809291908181526020018280546113bb9061405d565b80156114085780601f106113dd57610100808354040283529160200191611408565b820191906000526020600020905b8154815290600101906020018083116113eb57829003601f168201915b505050505081526020016009820180546114219061405d565b80601f016020809104026020016040519081016040528092919081815260200182805461144d9061405d565b801561149a5780601f1061146f5761010080835404028352916020019161149a565b820191906000526020600020905b81548152906001019060200180831161147d57829003601f168201915b50505050508152602001600a82015481525050915050919050565b6114bd612d09565b73ffffffffffffffffffffffffffffffffffffffff166114db611da0565b73ffffffffffffffffffffffffffffffffffffffff1614611531576040517f08c379a000000000000000000000000000000000000000000000000000000000815260040161152890614291565b60405180910390fd5b806007908051906020019061154792919061339a565b5050565b6000804690508091505090565b600c60019054906101000a900460ff1681565b6000806002600084815260200190815260200160002060009054906101000a900473ffffffffffffffffffffffffffffffffffffffff169050600073ffffffffffffffffffffffffffffffffffffffff168173ffffffffffffffffffffffffffffffffffffffff161415611614576040517f08c379a000000000000000000000000000000000000000000000000000000000815260040161160b906144a7565b60405180910390fd5b80915050919050565b60606009805480602002602001604051908101604052809291908181526020016000905b82821015611b6e57838290600052602060002090600b0201604051806101600160405290816000820160009054906101000a900473ffffffffffffffffffffffffffffffffffffffff1673ffffffffffffffffffffffffffffffffffffffff1673ffffffffffffffffffffffffffffffffffffffff168152602001600182015481526020016002820180546116d59061405d565b80601f01602080910402602001604051908101604052809291908181526020018280546117019061405d565b801561174e5780601f106117235761010080835404028352916020019161174e565b820191906000526020600020905b81548152906001019060200180831161173157829003601f168201915b505050505081526020016003820180546117679061405d565b80601f01602080910402602001604051908101604052809291908181526020018280546117939061405d565b80156117e05780601f106117b5576101008083540402835291602001916117e0565b820191906000526020600020905b8154815290600101906020018083116117c357829003601f168201915b505050505081526020016004820180546117f99061405d565b80601f01602080910402602001604051908101604052809291908181526020018280546118259061405d565b80156118725780601f1061184757610100808354040283529160200191611872565b820191906000526020600020905b81548152906001019060200180831161185557829003601f168201915b5050505050815260200160058201805461188b9061405d565b80601f01602080910402602001604051908101604052809291908181526020018280546118b79061405d565b80156119045780601f106118d957610100808354040283529160200191611904565b820191906000526020600020905b8154815290600101906020018083116118e757829003601f168201915b5050505050815260200160068201805461191d9061405d565b80601f01602080910402602001604051908101604052809291908181526020018280546119499061405d565b80156119965780601f1061196b57610100808354040283529160200191611996565b820191906000526020600020905b81548152906001019060200180831161197957829003601f168201915b505050505081526020016007820180546119af9061405d565b80601f01602080910402602001604051908101604052809291908181526020018280546119db9061405d565b8015611a285780601f106119fd57610100808354040283529160200191611a28565b820191906000526020600020905b815481529060010190602001808311611a0b57829003601f168201915b50505050508152602001600882018054611a419061405d565b80601f0160208091040260200160405190810160405280929190818152602001828054611a6d9061405d565b8015611aba5780601f10611a8f57610100808354040283529160200191611aba565b820191906000526020600020905b815481529060010190602001808311611a9d57829003601f168201915b50505050508152602001600982018054611ad39061405d565b80601f0160208091040260200160405190810160405280929190818152602001828054611aff9061405d565b8015611b4c5780601f10611b2157610100808354040283529160200191611b4c565b820191906000526020600020905b815481529060010190602001808311611b2f57829003601f168201915b50505050508152602001600a8201548152505081526020019060010190611641565b50505050905090565b60008073ffffffffffffffffffffffffffffffffffffffff168273ffffffffffffffffffffffffffffffffffffffff161415611be8576040517f08c379a0000000000000000000000000000000000000000000000000000000008152600401611bdf90614539565b60405180910390fd5b600360008373ffffffffffffffffffffffffffffffffffffffff1673ffffffffffffffffffffffffffffffffffffffff168152602001908152602001600020549050919050565b611c37612d09565b73ffffffffffffffffffffffffffffffffffffffff16611c55611da0565b73ffffffffffffffffffffffffffffffffffffffff1614611cab576040517f08c379a0000000000000000000000000000000000000000000000000000000008152600401611ca290614291565b60405180910390fd5b611cb56000612dca565b565b611cbf612d09565b73ffffffffffffffffffffffffffffffffffffffff16611cdd611da0565b73ffffffffffffffffffffffffffffffffffffffff1614611d33576040517f08c379a0000000000000000000000000000000000000000000000000000000008152600401611d2a90614291565b60405180910390fd5b600c60019054906101000a900460ff1615611d4d57600080fd5b6001600c60016101000a81548160ff0219169083151502179055507f6985a02210a168e66602d3235cb6db0e70f92b3ba4d376a33c0f3d9434bff62560405160405180910390a1565b6000600854905090565b6000600660009054906101000a900473ffffffffffffffffffffffffffffffffffffffff16905090565b606060018054611dd99061405d565b80601f0160208091040260200160405190810160405280929190818152602001828054611e059061405d565b8015611e525780601f10611e2757610100808354040283529160200191611e52565b820191906000526020600020905b815481529060010190602001808311611e3557829003601f168201915b5050505050905090565b611e64612d09565b73ffffffffffffffffffffffffffffffffffffffff16611e82611da0565b73ffffffffffffffffffffffffffffffffffffffff1614611ed8576040517f08c379a0000000000000000000000000000000000000000000000000000000008152600401611ecf90614291565b60405180910390fd5b5050565b611ee461332a565b60098281548110611ef857611ef7614406565b5b90600052602060002090600b0201604051806101600160405290816000820160009054906101000a900473ffffffffffffffffffffffffffffffffffffffff1673ffffffffffffffffffffffffffffffffffffffff1673ffffffffffffffffffffffffffffffffffffffff16815260200160018201548152602001600282018054611f829061405d565b80601f0160208091040260200160405190810160405280929190818152602001828054611fae9061405d565b8015611ffb5780601f10611fd057610100808354040283529160200191611ffb565b820191906000526020600020905b815481529060010190602001808311611fde57829003601f168201915b505050505081526020016003820180546120149061405d565b80601f01602080910402602001604051908101604052809291908181526020018280546120409061405d565b801561208d5780601f106120625761010080835404028352916020019161208d565b820191906000526020600020905b81548152906001019060200180831161207057829003601f168201915b505050505081526020016004820180546120a69061405d565b80601f01602080910402602001604051908101604052809291908181526020018280546120d29061405d565b801561211f5780601f106120f45761010080835404028352916020019161211f565b820191906000526020600020905b81548152906001019060200180831161210257829003601f168201915b505050505081526020016005820180546121389061405d565b80601f01602080910402602001604051908101604052809291908181526020018280546121649061405d565b80156121b15780601f10612186576101008083540402835291602001916121b1565b820191906000526020600020905b81548152906001019060200180831161219457829003601f168201915b505050505081526020016006820180546121ca9061405d565b80601f01602080910402602001604051908101604052809291908181526020018280546121f69061405d565b80156122435780601f1061221857610100808354040283529160200191612243565b820191906000526020600020905b81548152906001019060200180831161222657829003601f168201915b5050505050815260200160078201805461225c9061405d565b80601f01602080910402602001604051908101604052809291908181526020018280546122889061405d565b80156122d55780601f106122aa576101008083540402835291602001916122d5565b820191906000526020600020905b8154815290600101906020018083116122b857829003601f168201915b505050505081526020016008820180546122ee9061405d565b80601f016020809104026020016040519081016040528092919081815260200182805461231a9061405d565b80156123675780601f1061233c57610100808354040283529160200191612367565b820191906000526020600020905b81548152906001019060200180831161234a57829003601f168201915b505050505081526020016009820180546123809061405d565b80601f01602080910402602001604051908101604052809291908181526020018280546123ac9061405d565b80156123f95780601f106123ce576101008083540402835291602001916123f9565b820191906000526020600020905b8154815290600101906020018083116123dc57829003601f168201915b50505050508152602001600a820154815250509050919050565b6000600a60008373ffffffffffffffffffffffffffffffffffffffff1673ffffffffffffffffffffffffffffffffffffffff168152602001908152602001600020549050919050565b612464612d09565b73ffffffffffffffffffffffffffffffffffffffff16612482611da0565b73ffffffffffffffffffffffffffffffffffffffff16146124d8576040517f08c379a00000000000000000000000000000000000000000000000000000000081526004016124cf90614291565b60405180910390fd5b50505050565b60606124e982612c9d565b612528576040517f08c379a000000000000000000000000000000000000000000000000000000000815260040161251f906145cb565b60405180910390fd5b60006125338361156b565b9050600061253f612e90565b9050600081511161255f5760405180602001604052806000815250612582565b808260405160200161257292919061466f565b6040516020818303038152906040525b92505050919050565b600034905034600b60003373ffffffffffffffffffffffffffffffffffffffff1673ffffffffffffffffffffffffffffffffffffffff16815260200190815260200160002060008282546125df91906146c6565b925050819055507fb9c87592ed73f7a26fff471ef513f8065a243208d84daa291fb0e770635014e2814733600b60003373ffffffffffffffffffffffffffffffffffffffff1673ffffffffffffffffffffffffffffffffffffffff1681526020019081526020016000205460405161265a949392919061471c565b60405180910390a150565b600061266f612d09565b73ffffffffffffffffffffffffffffffffffffffff1661268d611da0565b73ffffffffffffffffffffffffffffffffffffffff16146126e3576040517f08c379a00000000000000000000000000000000000000000000000000000000081526004016126da90614291565b60405180910390fd5b92915050565b6126f1612d09565b73ffffffffffffffffffffffffffffffffffffffff1661270f611da0565b73ffffffffffffffffffffffffffffffffffffffff1614612765576040517f08c379a000000000000000000000000000000000000000000000000000000000815260040161275c90614291565b60405180910390fd5b600073ffffffffffffffffffffffffffffffffffffffff168173ffffffffffffffffffffffffffffffffffffffff1614156127d5576040517f08c379a00000000000000000000000000000000000000000000000000000000081526004016127cc906147d3565b60405180910390fd5b6127de81612dca565b50565b6127e9612d09565b73ffffffffffffffffffffffffffffffffffffffff16612807611da0565b73ffffffffffffffffffffffffffffffffffffffff161461285d576040517f08c379a000000000000000000000000000000000000000000000000000000000815260040161285490614291565b60405180910390fd5b8060088190555050565b600c60009054906101000a900460ff16156128b7576040517f08c379a00000000000000000000000000000000000000000000000000000000081526004016128ae906142fd565b60405180910390fd5b6001600c60006101000a81548160ff021916908315150217905550600c60019054906101000a900460ff16156128ec57600080fd5b6128f533610b83565b15612935576040517f08c379a000000000000000000000000000000000000000000000000000000000815260040161292c90614865565b60405180910390fd5b60085434101561297a576040517f08c379a0000000000000000000000000000000000000000000000000000000008152600401612971906148f7565b60405180910390fd5b60006040518061016001604052803373ffffffffffffffffffffffffffffffffffffffff1681526020014681526020018a815260200189815260200188815260200187815260200186815260200185815260200184815260200183815260200142815250905060098190806001815401808255809150506001900390600052602060002090600b020160009091909190915060008201518160000160006101000a81548173ffffffffffffffffffffffffffffffffffffffff021916908373ffffffffffffffffffffffffffffffffffffffff160217905550602082015181600101556040820151816002019080519060200190612a7992919061339a565b506060820151816003019080519060200190612a9692919061339a565b506080820151816004019080519060200190612ab392919061339a565b5060a0820151816005019080519060200190612ad092919061339a565b5060c0820151816006019080519060200190612aed92919061339a565b5060e0820151816007019080519060200190612b0a92919061339a565b50610100820151816008019080519060200190612b2892919061339a565b50610120820151816009019080519060200190612b4692919061339a565b5061014082015181600a0155505060006001600980549050612b689190614917565b905080600a60003373ffffffffffffffffffffffffffffffffffffffff1673ffffffffffffffffffffffffffffffffffffffff16815260200190815260200160002081905550612bb83382612f22565b3373ffffffffffffffffffffffffffffffffffffffff167fd91c88c381f9a32ab39c9901170c86c8c53d6d7f04c1ef5ce2a07ad943fd9c3d82423486604051612c04949392919061494b565b60405180910390a250506000600c60006101000a81548160ff0219169083151502179055505050505050505050565b60007f01ffc9a7000000000000000000000000000000000000000000000000000000007bffffffffffffffffffffffffffffffffffffffffffffffffffffffff1916827bffffffffffffffffffffffffffffffffffffffffffffffffffffffff1916149050919050565b60008073ffffffffffffffffffffffffffffffffffffffff166002600084815260200190815260200160002060009054906101000a900473ffffffffffffffffffffffffffffffffffffffff1673ffffffffffffffffffffffffffffffffffffffff1614159050919050565b600033905090565b816004600083815260200190815260200160002060006101000a81548173ffffffffffffffffffffffffffffffffffffffff021916908373ffffffffffffffffffffffffffffffffffffffff160217905550808273ffffffffffffffffffffffffffffffffffffffff16612d848361156b565b73ffffffffffffffffffffffffffffffffffffffff167f8c5be1e5ebec7d5bd14f71427d1e84f3dd0314c0f7b2291e5b200ac8c7c3b92560405160405180910390a45050565b6000600660009054906101000a900473ffffffffffffffffffffffffffffffffffffffff16905081600660006101000a81548173ffffffffffffffffffffffffffffffffffffffff021916908373ffffffffffffffffffffffffffffffffffffffff1602179055508173ffffffffffffffffffffffffffffffffffffffff168173ffffffffffffffffffffffffffffffffffffffff167f8be0079c531659141344cd1fd0a4f28419497f9722a3daafe3b4186f6b6457e060405160405180910390a35050565b606060078054612e9f9061405d565b80601f0160208091040260200160405190810160405280929190818152602001828054612ecb9061405d565b8015612f185780601f10612eed57610100808354040283529160200191612f18565b820191906000526020600020905b815481529060010190602001808311612efb57829003601f168201915b5050505050905090565b612f3c828260405180602001604052806000815250612f40565b5050565b612f4a8383612f9b565b612f576000848484613175565b612f96576040517f08c379a0000000000000000000000000000000000000000000000000000000008152600401612f8d90614a09565b60405180910390fd5b505050565b600073ffffffffffffffffffffffffffffffffffffffff168273ffffffffffffffffffffffffffffffffffffffff16141561300b576040517f08c379a000000000000000000000000000000000000000000000000000000000815260040161300290614a75565b60405180910390fd5b61301481612c9d565b15613054576040517f08c379a000000000000000000000000000000000000000000000000000000000815260040161304b90614ae1565b60405180910390fd5b613060600083836132fd565b6001600360008473ffffffffffffffffffffffffffffffffffffffff1673ffffffffffffffffffffffffffffffffffffffff16815260200190815260200160002060008282546130b091906146c6565b92505081905550816002600083815260200190815260200160002060006101000a81548173ffffffffffffffffffffffffffffffffffffffff021916908373ffffffffffffffffffffffffffffffffffffffff160217905550808273ffffffffffffffffffffffffffffffffffffffff16600073ffffffffffffffffffffffffffffffffffffffff167fddf252ad1be2c89b69c2b068fc378daa952ba7f163c4a11628f55a4df523b3ef60405160405180910390a461317160008383613302565b5050565b60006131968473ffffffffffffffffffffffffffffffffffffffff16613307565b156132f0578373ffffffffffffffffffffffffffffffffffffffff1663150b7a026131bf612d09565b8786866040518563ffffffff1660e01b81526004016131e19493929190614b56565b6020604051808303816000875af192505050801561321d57506040513d601f19601f8201168201806040525081019061321a9190614bb7565b60015b6132a0573d806000811461324d576040519150601f19603f3d011682016040523d82523d6000602084013e613252565b606091505b50600081511415613298576040517f08c379a000000000000000000000000000000000000000000000000000000000815260040161328f90614a09565b60405180910390fd5b805181602001fd5b63150b7a0260e01b7bffffffffffffffffffffffffffffffffffffffffffffffffffffffff1916817bffffffffffffffffffffffffffffffffffffffffffffffffffffffff1916149150506132f5565b600190505b949350505050565b505050565b505050565b6000808273ffffffffffffffffffffffffffffffffffffffff163b119050919050565b604051806101600160405280600073ffffffffffffffffffffffffffffffffffffffff168152602001600081526020016060815260200160608152602001606081526020016060815260200160608152602001606081526020016060815260200160608152602001600081525090565b8280546133a69061405d565b90600052602060002090601f0160209004810192826133c8576000855561340f565b82601f106133e157805160ff191683800117855561340f565b8280016001018555821561340f579182015b8281111561340e5782518255916020019190600101906133f3565b5b50905061341c9190613420565b5090565b5b80821115613439576000816000905550600101613421565b5090565b6000819050919050565b6134508161343d565b82525050565b600060208201905061346b6000830184613447565b92915050565b6000604051905090565b600080fd5b600080fd5b60007fffffffff0000000000000000000000000000000000000000000000000000000082169050919050565b6134ba81613485565b81146134c557600080fd5b50565b6000813590506134d7816134b1565b92915050565b6000602082840312156134f3576134f261347b565b5b6000613501848285016134c8565b91505092915050565b60008115159050919050565b61351f8161350a565b82525050565b600060208201905061353a6000830184613516565b92915050565b600081519050919050565b600082825260208201905092915050565b60005b8381101561357a57808201518184015260208101905061355f565b83811115613589576000848401525b50505050565b6000601f19601f8301169050919050565b60006135ab82613540565b6135b5818561354b565b93506135c581856020860161355c565b6135ce8161358f565b840191505092915050565b600060208201905081810360008301526135f381846135a0565b905092915050565b6136048161343d565b811461360f57600080fd5b50565b600081359050613621816135fb565b92915050565b60006020828403121561363d5761363c61347b565b5b600061364b84828501613612565b91505092915050565b600073ffffffffffffffffffffffffffffffffffffffff82169050919050565b600061367f82613654565b9050919050565b61368f81613674565b82525050565b60006020820190506136aa6000830184613686565b92915050565b6136b981613674565b81146136c457600080fd5b50565b6000813590506136d6816136b0565b92915050565b600080604083850312156136f3576136f261347b565b5b6000613701858286016136c7565b925050602061371285828601613612565b9150509250929050565b6000602082840312156137325761373161347b565b5b6000613740848285016136c7565b91505092915050565b6000806000606084860312156137625761376161347b565b5b6000613770868287016136c7565b9350506020613781868287016136c7565b925050604061379286828701613612565b9150509250925092565b6137a581613674565b82525050565b6137b48161343d565b82525050565b600082825260208201905092915050565b60006137d682613540565b6137e081856137ba565b93506137f081856020860161355c565b6137f98161358f565b840191505092915050565b60006101608301600083015161381d600086018261379c565b50602083015161383060208601826137ab565b506040830151848203604086015261384882826137cb565b9150506060830151848203606086015261386282826137cb565b9150506080830151848203608086015261387c82826137cb565b91505060a083015184820360a086015261389682826137cb565b91505060c083015184820360c08601526138b082826137cb565b91505060e083015184820360e08601526138ca82826137cb565b9150506101008301518482036101008601526138e682826137cb565b91505061012083015184820361012086015261390282826137cb565b9150506101408301516139196101408601826137ab565b508091505092915050565b6000602082019050818103600083015261393e8184613804565b905092915050565b600080fd5b600080fd5b7f4e487b7100000000000000000000000000000000000000000000000000000000600052604160045260246000fd5b6139888261358f565b810181811067ffffffffffffffff821117156139a7576139a6613950565b5b80604052505050565b60006139ba613471565b90506139c6828261397f565b919050565b600067ffffffffffffffff8211156139e6576139e5613950565b5b6139ef8261358f565b9050602081019050919050565b82818337600083830152505050565b6000613a1e613a19846139cb565b6139b0565b905082815260208101848484011115613a3a57613a3961394b565b5b613a458482856139fc565b509392505050565b600082601f830112613a6257613a61613946565b5b8135613a72848260208601613a0b565b91505092915050565b600060208284031215613a9157613a9061347b565b5b600082013567ffffffffffffffff811115613aaf57613aae613480565b5b613abb84828501613a4d565b91505092915050565b600081519050919050565b600082825260208201905092915050565b6000819050602082019050919050565b600061016083016000830151613b09600086018261379c565b506020830151613b1c60208601826137ab565b5060408301518482036040860152613b3482826137cb565b91505060608301518482036060860152613b4e82826137cb565b91505060808301518482036080860152613b6882826137cb565b91505060a083015184820360a0860152613b8282826137cb565b91505060c083015184820360c0860152613b9c82826137cb565b91505060e083015184820360e0860152613bb682826137cb565b915050610100830151848203610100860152613bd282826137cb565b915050610120830151848203610120860152613bee82826137cb565b915050610140830151613c056101408601826137ab565b508091505092915050565b6000613c1c8383613af0565b905092915050565b6000602082019050919050565b6000613c3c82613ac4565b613c468185613acf565b935083602082028501613c5885613ae0565b8060005b85811015613c945784840389528151613c758582613c10565b9450613c8083613c24565b925060208a01995050600181019050613c5c565b50829750879550505050505092915050565b60006020820190508181036000830152613cc08184613c31565b905092915050565b613cd18161350a565b8114613cdc57600080fd5b50565b600081359050613cee81613cc8565b92915050565b60008060408385031215613d0b57613d0a61347b565b5b6000613d19858286016136c7565b9250506020613d2a85828601613cdf565b9150509250929050565b600067ffffffffffffffff821115613d4f57613d4e613950565b5b613d588261358f565b9050602081019050919050565b6000613d78613d7384613d34565b6139b0565b905082815260208101848484011115613d9457613d9361394b565b5b613d9f8482856139fc565b509392505050565b600082601f830112613dbc57613dbb613946565b5b8135613dcc848260208601613d65565b91505092915050565b60008060008060808587031215613def57613dee61347b565b5b6000613dfd878288016136c7565b9450506020613e0e878288016136c7565b9350506040613e1f87828801613612565b925050606085013567ffffffffffffffff811115613e4057613e3f613480565b5b613e4c87828801613da7565b91505092959194509250565b60008060408385031215613e6f57613e6e61347b565b5b6000613e7d858286016136c7565b9250506020613e8e858286016136c7565b9150509250929050565b600080600080600080600080610100898b031215613eb957613eb861347b565b5b600089013567ffffffffffffffff811115613ed757613ed6613480565b5b613ee38b828c01613a4d565b985050602089013567ffffffffffffffff811115613f0457613f03613480565b5b613f108b828c01613a4d565b975050604089013567ffffffffffffffff811115613f3157613f30613480565b5b613f3d8b828c01613a4d565b965050606089013567ffffffffffffffff811115613f5e57613f5d613480565b5b613f6a8b828c01613a4d565b955050608089013567ffffffffffffffff811115613f8b57613f8a613480565b5b613f978b828c01613a4d565b94505060a089013567ffffffffffffffff811115613fb857613fb7613480565b5b613fc48b828c01613a4d565b93505060c089013567ffffffffffffffff811115613fe557613fe4613480565b5b613ff18b828c01613a4d565b92505060e089013567ffffffffffffffff81111561401257614011613480565b5b61401e8b828c01613a4d565b9150509295985092959890939650565b7f4e487b7100000000000000000000000000000000000000000000000000000000600052602260045260246000fd5b6000600282049050600182168061407557607f821691505b602082108114156140895761408861402e565b5b50919050565b7f4552433732313a20617070726f76656420717565727920666f72206e6f6e657860008201527f697374656e7420746f6b656e0000000000000000000000000000000000000000602082015250565b60006140eb602c8361354b565b91506140f68261408f565b604082019050919050565b6000602082019050818103600083015261411a816140de565b9050919050565b7f4552433732313a20617070726f76616c20746f2063757272656e74206f776e6560008201527f7200000000000000000000000000000000000000000000000000000000000000602082015250565b600061417d60218361354b565b915061418882614121565b604082019050919050565b600060208201905081810360008301526141ac81614170565b9050919050565b7f4552433732313a20617070726f76652063616c6c6572206973206e6f74206f7760008201527f6e6572206e6f7220617070726f76656420666f7220616c6c0000000000000000602082015250565b600061420f60388361354b565b915061421a826141b3565b604082019050919050565b6000602082019050818103600083015261423e81614202565b9050919050565b7f4f776e61626c653a2063616c6c6572206973206e6f7420746865206f776e6572600082015250565b600061427b60208361354b565b915061428682614245565b602082019050919050565b600060208201905081810360008301526142aa8161426e565b9050919050565b7f4e6f2072652d656e7472616e6379000000000000000000000000000000000000600082015250565b60006142e7600e8361354b565b91506142f2826142b1565b602082019050919050565b60006020820190508181036000830152614316816142da565b9050919050565b600081905092915050565b50565b600061433860008361431d565b915061434382614328565b600082019050919050565b60006143598261432b565b9150819050919050565b7f5472616e73666572206661696c65642e00000000000000000000000000000000600082015250565b600061439960108361354b565b91506143a482614363565b602082019050919050565b600060208201905081810360008301526143c88161438c565b9050919050565b60006060820190506143e46000830186613447565b6143f16020830185613447565b6143fe6040830184613686565b949350505050565b7f4e487b7100000000000000000000000000000000000000000000000000000000600052603260045260246000fd5b7f4552433732313a206f776e657220717565727920666f72206e6f6e657869737460008201527f656e7420746f6b656e0000000000000000000000000000000000000000000000602082015250565b600061449160298361354b565b915061449c82614435565b604082019050919050565b600060208201905081810360008301526144c081614484565b9050919050565b7f4552433732313a2062616c616e636520717565727920666f7220746865207a6560008201527f726f206164647265737300000000000000000000000000000000000000000000602082015250565b6000614523602a8361354b565b915061452e826144c7565b604082019050919050565b6000602082019050818103600083015261455281614516565b9050919050565b7f4552433732314d657461646174613a2055524920717565727920666f72206e6f60008201527f6e6578697374656e7420746f6b656e0000000000000000000000000000000000602082015250565b60006145b5602f8361354b565b91506145c082614559565b604082019050919050565b600060208201905081810360008301526145e4816145a8565b9050919050565b600081905092915050565b600061460182613540565b61460b81856145eb565b935061461b81856020860161355c565b80840191505092915050565b60008160601b9050919050565b600061463f82614627565b9050919050565b600061465182614634565b9050919050565b61466961466482613674565b614646565b82525050565b600061467b82856145f6565b91506146878284614658565b6014820191508190509392505050565b7f4e487b7100000000000000000000000000000000000000000000000000000000600052601160045260246000fd5b60006146d18261343d565b91506146dc8361343d565b9250827fffffffffffffffffffffffffffffffffffffffffffffffffffffffffffffffff0382111561471157614710614697565b5b828201905092915050565b60006080820190506147316000830187613447565b61473e6020830186613447565b61474b6040830185613686565b6147586060830184613447565b95945050505050565b7f4f776e61626c653a206e6577206f776e657220697320746865207a65726f206160008201527f6464726573730000000000000000000000000000000000000000000000000000602082015250565b60006147bd60268361354b565b91506147c882614761565b604082019050919050565b600060208201905081810360008301526147ec816147b0565b9050919050565b7f2057616c6c657420616c72656164792068617320616e204e46492120596f752060008201527f676574206f6e65207065722077616c6c6574206163636f756e74000000000000602082015250565b600061484f603a8361354b565b915061485a826147f3565b604082019050919050565b6000602082019050818103600083015261487e81614842565b9050919050565b7f4e6f7420656e6f756768204554482073656e743b20636865636b20707269636560008201527f2100000000000000000000000000000000000000000000000000000000000000602082015250565b60006148e160218361354b565b91506148ec82614885565b604082019050919050565b60006020820190508181036000830152614910816148d4565b9050919050565b60006149228261343d565b915061492d8361343d565b9250828210156149405761493f614697565b5b828203905092915050565b60006080820190506149606000830187613447565b61496d6020830186613447565b61497a6040830185613447565b818103606083015261498c8184613804565b905095945050505050565b7f4552433732313a207472616e7366657220746f206e6f6e20455243373231526560008201527f63656976657220696d706c656d656e7465720000000000000000000000000000602082015250565b60006149f360328361354b565b91506149fe82614997565b604082019050919050565b60006020820190508181036000830152614a22816149e6565b9050919050565b7f4552433732313a206d696e7420746f20746865207a65726f2061646472657373600082015250565b6000614a5f60208361354b565b9150614a6a82614a29565b602082019050919050565b60006020820190508181036000830152614a8e81614a52565b9050919050565b7f4552433732313a20746f6b656e20616c7265616479206d696e74656400000000600082015250565b6000614acb601c8361354b565b9150614ad682614a95565b602082019050919050565b60006020820190508181036000830152614afa81614abe565b9050919050565b600081519050919050565b600082825260208201905092915050565b6000614b2882614b01565b614b328185614b0c565b9350614b4281856020860161355c565b614b4b8161358f565b840191505092915050565b6000608082019050614b6b6000830187613686565b614b786020830186613686565b614b856040830185613447565b8181036060830152614b978184614b1d565b905095945050505050565b600081519050614bb1816134b1565b92915050565b600060208284031215614bcd57614bcc61347b565b5b6000614bdb84828501614ba2565b9150509291505056fea2646970667358221220724333e5b980c8376235edf053cab7215541c73cd92eb2eea55a32880ef7d6b264736f6c634300080a0033",
  "immutableReferences": {},
  "source": "// SPDX-License-Identifier: GPL-3.0\r\npragma solidity >=0.8.0 <0.9.0;\r\nimport \"@openzeppelin/contracts/token/ERC721/ERC721.sol\";\r\nimport \"@openzeppelin/contracts/access/Ownable.sol\";\r\nimport \"@openzeppelin/contracts/token/ERC721/extensions/IERC721Metadata.sol\";\r\n\r\ncontract PaperMastersNFI is ERC721, Ownable {\r\n    //do I need to bring in SafeMath???\r\n    string private _setBaseURI;\r\n    uint256 private identityFee;\r\n    struct identity\r\n    {\r\n        address walletAccount;\r\n        uint256 chainId;\r\n        string name;\r\n        string email;\r\n        string profession;\r\n        string organization;\r\n        string slogan;\r\n        string website;\r\n        string uniqueYou;\r\n        string bgRGB;\r\n        uint originDate;\r\n    }\r\n    identity[] _dictionaryNFIs;\r\n\r\n    mapping(address => uint256) totalIdentities;\r\n    mapping(address => uint256) _supportPMDonations;\r\n\r\n    //prevents ren-entry when modifier is added to a function\r\n    bool internal locked;\r\n    modifier noReentrant() {\r\n        require(!locked, \"No re-entrancy\");\r\n        locked = true;\r\n        _;\r\n        locked = false;\r\n    }\r\n    constructor() ERC721(\"papermasters.io\", \"NFI\") {\r\n        _setBaseURI = \"www.papermasters.io/identity\";\r\n        identityFee = 100000000000000000;\r\n        _dictionaryNFIs.push(identity(address(this),block.chainid,'','','','','','','','',block.timestamp));\r\n    }\r\n\r\n    function addressToTokenID(address walletAddress) public view returns(uint256) {\r\n        return totalIdentities[walletAddress];\r\n    }\r\n\r\n    function tokenIDtoIdentityStruct(uint256 _tokenid) public view returns(identity memory) {\r\n        return _dictionaryNFIs[_tokenid];\r\n    }\r\n\r\n    function addressHasTokenBool(address walletAddress) public view returns(bool) {\r\n        uint256 _tokenId = addressToTokenID(walletAddress);\r\n        return _tokenId >= 1;\r\n    }\r\n\r\n    function addressToIdentityStruct(address walletAddress) public view returns(identity memory){\r\n        uint256 tokenId = addressToTokenID(walletAddress);\r\n        return _dictionaryNFIs[tokenId];\r\n    }\r\n\r\n    function getChainID() external view returns (uint256) {\r\n        uint256 chainId;\r\n        assembly {\r\n            chainId := chainid()\r\n        }\r\n        return chainId;\r\n    }\r\n\r\n    function allIdentityStructs() public view returns(identity[] memory){\r\n        return _dictionaryNFIs;\r\n    }\r\n\r\n    function setBaseURI(string memory changeBaseURI) public onlyOwner{\r\n        _setBaseURI = changeBaseURI;\r\n    }\r\n\r\n    function _baseURI() internal view virtual override returns (string memory) {\r\n        return _setBaseURI;\r\n    }\r\n\r\n    function tokenURI(uint256 tokenId) public view virtual override returns (string memory) {\r\n        require(_exists(tokenId), \"ERC721Metadata: URI query for nonexistent token\");\r\n        address owner = ownerOf(tokenId);\r\n        string memory baseURI = _baseURI();\r\n        return bytes(baseURI).length > 0 ? string(abi.encodePacked(baseURI, owner)) : \"\";\r\n        //string memory tokenURI = baseURI/identity[tokenId];\r\n    }\r\n\r\n    function getIdentityFee() public view returns (uint256) {\r\n        return identityFee;\r\n    }\r\n\r\n    function setIdentityFee(uint256 val) external onlyOwner {\r\n        identityFee = val;\r\n    }\r\n\r\n    event Log(uint gas);\r\n\r\n    // Fallback function must be declared as external.\r\n    fallback() external payable {\r\n        // send / transfer (forwards 2300 gas to this fallback function)\r\n        // call (forwards all of the gas)\r\n        emit Log(gasleft());\r\n    }\r\n\r\n    receive() external payable {}\r\n\r\n    function deposit() public payable {\r\n        uint amount = msg.value;\r\n        _supportPMDonations[msg.sender] += msg.value;\r\n        emit DonationMade(amount, address(this).balance, msg.sender, _supportPMDonations[msg.sender]);\r\n    }\r\n    event DonationMade(uint256 amount, uint balance, address donationSender, uint totalDonationsBySender);\r\n\r\n    function getBalance() public view onlyOwner returns (uint) {\r\n        return address(this).balance;\r\n    }\r\n\r\n    function withdraw() external noReentrant onlyOwner{\r\n        // This forwards all available gas. Be sure to check the return value!\r\n        uint amount = address(this).balance;\r\n        (bool success, ) = msg.sender.call{value: amount}(\"\");\r\n        require(success, \"Transfer failed.\");\r\n        emit Withdraw(amount, address(this).balance, msg.sender);\r\n    }\r\n    event Withdraw(uint256 amount, uint256 balance, address withdrawAddress);\r\n\r\n    function totalSupply() public view returns (uint256) {\r\n        return _dictionaryNFIs.length;\r\n    }\r\n\r\n    event Pause();\r\n    event Unpause();\r\n\r\n    bool public paused = false;\r\n\r\n    modifier whenNotPaused() {\r\n        require(!paused);\r\n        _;\r\n    }\r\n\r\n    modifier whenPaused() {\r\n        require(paused);\r\n        _;\r\n    }\r\n\r\n    function pause() onlyOwner whenNotPaused public {\r\n        paused = true;\r\n        emit Pause();\r\n    }\r\n\r\n    function unpause() onlyOwner whenPaused public {\r\n        paused = false;\r\n        emit Unpause();\r\n    }\r\n\r\n    function mintNFI (\r\n        string memory _name,\r\n        string memory _email,\r\n        string memory _profession,\r\n        string memory _organization,\r\n        string memory _slogan,\r\n        string memory _website,\r\n        string memory _uniqueYou,\r\n        string memory _bgRGB\r\n    ) public virtual noReentrant payable whenNotPaused\r\n    {\r\n        require(!addressHasTokenBool(msg.sender),\" Wallet already has an NFI! You get one per wallet account\");\r\n        require(msg.value >= identityFee, \"Not enough ETH sent; check price!\");\r\n\r\n        identity memory _identity = identity({\r\n        walletAccount: msg.sender,\r\n        chainId: block.chainid,\r\n        name: _name,\r\n        email: _email,\r\n        profession: _profession,\r\n        organization: _organization,\r\n        slogan: _slogan,\r\n        website: _website,\r\n        uniqueYou: _uniqueYou,\r\n        bgRGB: _bgRGB,\r\n        originDate: block.timestamp\r\n        });\r\n\r\n        _dictionaryNFIs.push(_identity);\r\n\r\n        uint256 newTokenID = _dictionaryNFIs.length - 1;\r\n\r\n        totalIdentities[msg.sender] = newTokenID;\r\n\r\n        _safeMint(msg.sender, newTokenID);\r\n\r\n        emit NFIMinted(msg.sender, newTokenID, block.timestamp, msg.value, _identity);\r\n    }\r\n    event NFIMinted(address indexed _from, uint256 tokenId, uint256 timeStamp, uint256 contractFee, identity identityStruct);\r\n\r\n    function setApprovalForAll(address operator, bool approved) public virtual override onlyOwner{}\r\n    function isApprovedForAll(address owner, address operator) public view virtual override onlyOwner returns (bool) {}\r\n    function transferFrom(address from, address to, uint256 tokenId) public virtual override onlyOwner{}\r\n    function safeTransferFrom(address from, address to, uint256 tokenId) public virtual override  onlyOwner {}\r\n    function safeTransferFrom(address from, address to, uint256 tokenId, bytes memory _data) public virtual override onlyOwner {}\r\n    function _safeTransfer(address from, address to, uint256 tokenId, bytes memory _data) internal virtual override onlyOwner {}\r\n}",
  "sourcePath": "/home/ramona/gitrepos/MintIdentityTPM/truffle/contracts/MintIdentity.sol",
  "compiler": {
    "name": "solc",
    "version": "0.8.10+commit.fc410830.Emscripten.clang"
  },
  "schemaVersion": "3.4.4",
  "updatedAt": "2022-04-14T22:29:05.509Z",
  "devdoc": {
    "kind": "dev",
    "methods": {
      "approve(address,uint256)": {
        "details": "See {IERC721-approve}."
      },
      "balanceOf(address)": {
        "details": "See {IERC721-balanceOf}."
      },
      "getApproved(uint256)": {
        "details": "See {IERC721-getApproved}."
      },
      "isApprovedForAll(address,address)": {
        "details": "See {IERC721-isApprovedForAll}."
      },
      "name()": {
        "details": "See {IERC721Metadata-name}."
      },
      "owner()": {
        "details": "Returns the address of the current owner."
      },
      "ownerOf(uint256)": {
        "details": "See {IERC721-ownerOf}."
      },
      "renounceOwnership()": {
        "details": "Leaves the contract without owner. It will not be possible to call `onlyOwner` functions anymore. Can only be called by the current owner. NOTE: Renouncing ownership will leave the contract without an owner, thereby removing any functionality that is only available to the owner."
      },
      "safeTransferFrom(address,address,uint256)": {
        "details": "See {IERC721-safeTransferFrom}."
      },
      "safeTransferFrom(address,address,uint256,bytes)": {
        "details": "See {IERC721-safeTransferFrom}."
      },
      "setApprovalForAll(address,bool)": {
        "details": "See {IERC721-setApprovalForAll}."
      },
      "supportsInterface(bytes4)": {
        "details": "See {IERC165-supportsInterface}."
      },
      "symbol()": {
        "details": "See {IERC721Metadata-symbol}."
      },
      "tokenURI(uint256)": {
        "details": "See {IERC721Metadata-tokenURI}."
      },
      "transferFrom(address,address,uint256)": {
        "details": "See {IERC721-transferFrom}."
      },
      "transferOwnership(address)": {
        "details": "Transfers ownership of the contract to a new account (`newOwner`). Can only be called by the current owner."
      }
    },
    "version": 1
  },
  "userdoc": {
    "kind": "user",
    "methods": {},
    "version": 1
  }
}