{
  "contractName": "PaperMastersNFI",
  "abi": [
    {
      "inputs": [],
      "stateMutability": "nonpayable",
      "type": "constructor"
    },
    {
      "anonymous": false,
      "inputs": [
        {
          "indexed": true,
          "internalType": "address",
          "name": "owner",
          "type": "address"
        },
        {
          "indexed": true,
          "internalType": "address",
          "name": "approved",
          "type": "address"
        },
        {
          "indexed": true,
          "internalType": "uint256",
          "name": "tokenId",
          "type": "uint256"
        }
      ],
      "name": "Approval",
      "type": "event"
    },
    {
      "anonymous": false,
      "inputs": [
        {
          "indexed": true,
          "internalType": "address",
          "name": "owner",
          "type": "address"
        },
        {
          "indexed": true,
          "internalType": "address",
          "name": "operator",
          "type": "address"
        },
        {
          "indexed": false,
          "internalType": "bool",
          "name": "approved",
          "type": "bool"
        }
      ],
      "name": "ApprovalForAll",
      "type": "event"
    },
    {
      "anonymous": false,
      "inputs": [
        {
          "indexed": false,
          "internalType": "uint256",
          "name": "gas",
          "type": "uint256"
        }
      ],
      "name": "Log",
      "type": "event"
    },
    {
      "anonymous": false,
      "inputs": [
        {
          "indexed": true,
          "internalType": "address",
          "name": "_from",
          "type": "address"
        },
        {
          "indexed": false,
          "internalType": "uint256",
          "name": "tokenId",
          "type": "uint256"
        }
      ],
      "name": "NFIMinted",
      "type": "event"
    },
    {
      "anonymous": false,
      "inputs": [
        {
          "indexed": true,
          "internalType": "address",
          "name": "previousOwner",
          "type": "address"
        },
        {
          "indexed": true,
          "internalType": "address",
          "name": "newOwner",
          "type": "address"
        }
      ],
      "name": "OwnershipTransferred",
      "type": "event"
    },
    {
      "anonymous": false,
      "inputs": [
        {
          "indexed": true,
          "internalType": "address",
          "name": "from",
          "type": "address"
        },
        {
          "indexed": true,
          "internalType": "address",
          "name": "to",
          "type": "address"
        },
        {
          "indexed": true,
          "internalType": "uint256",
          "name": "tokenId",
          "type": "uint256"
        }
      ],
      "name": "Transfer",
      "type": "event"
    },
    {
      "stateMutability": "payable",
      "type": "fallback",
      "payable": true
    },
    {
      "inputs": [
        {
          "internalType": "address",
          "name": "",
          "type": "address"
        }
      ],
      "name": "_ownerNFI",
      "outputs": [
        {
          "internalType": "string",
          "name": "name",
          "type": "string"
        },
        {
          "internalType": "string",
          "name": "email",
          "type": "string"
        },
        {
          "internalType": "string",
          "name": "profession",
          "type": "string"
        },
        {
          "internalType": "string",
          "name": "organization",
          "type": "string"
        },
        {
          "internalType": "string",
          "name": "slogan",
          "type": "string"
        },
        {
          "internalType": "string",
          "name": "website",
          "type": "string"
        },
        {
          "internalType": "string",
          "name": "uniqueYou",
          "type": "string"
        },
        {
          "internalType": "string",
          "name": "backGroundRGB",
          "type": "string"
        },
        {
          "internalType": "uint256",
          "name": "originDate",
          "type": "uint256"
        },
        {
          "internalType": "string",
          "name": "compiledAvatarSVG",
          "type": "string"
        }
      ],
      "stateMutability": "view",
      "type": "function",
      "constant": true
    },
    {
      "inputs": [
        {
          "internalType": "address",
          "name": "to",
          "type": "address"
        },
        {
          "internalType": "uint256",
          "name": "tokenId",
          "type": "uint256"
        }
      ],
      "name": "approve",
      "outputs": [],
      "stateMutability": "nonpayable",
      "type": "function"
    },
    {
      "inputs": [
        {
          "internalType": "address",
          "name": "owner",
          "type": "address"
        }
      ],
      "name": "balanceOf",
      "outputs": [
        {
          "internalType": "uint256",
          "name": "",
          "type": "uint256"
        }
      ],
      "stateMutability": "view",
      "type": "function",
      "constant": true
    },
    {
      "inputs": [
        {
          "internalType": "uint256",
          "name": "tokenId",
          "type": "uint256"
        }
      ],
      "name": "getApproved",
      "outputs": [
        {
          "internalType": "address",
          "name": "",
          "type": "address"
        }
      ],
      "stateMutability": "view",
      "type": "function",
      "constant": true
    },
    {
      "inputs": [
        {
          "internalType": "address",
          "name": "owner",
          "type": "address"
        },
        {
          "internalType": "address",
          "name": "operator",
          "type": "address"
        }
      ],
      "name": "isApprovedForAll",
      "outputs": [
        {
          "internalType": "bool",
          "name": "",
          "type": "bool"
        }
      ],
      "stateMutability": "view",
      "type": "function",
      "constant": true
    },
    {
      "inputs": [],
      "name": "name",
      "outputs": [
        {
          "internalType": "string",
          "name": "",
          "type": "string"
        }
      ],
      "stateMutability": "view",
      "type": "function",
      "constant": true
    },
    {
      "inputs": [],
      "name": "owner",
      "outputs": [
        {
          "internalType": "address",
          "name": "",
          "type": "address"
        }
      ],
      "stateMutability": "view",
      "type": "function",
      "constant": true
    },
    {
      "inputs": [
        {
          "internalType": "uint256",
          "name": "tokenId",
          "type": "uint256"
        }
      ],
      "name": "ownerOf",
      "outputs": [
        {
          "internalType": "address",
          "name": "",
          "type": "address"
        }
      ],
      "stateMutability": "view",
      "type": "function",
      "constant": true
    },
    {
      "inputs": [],
      "name": "renounceOwnership",
      "outputs": [],
      "stateMutability": "nonpayable",
      "type": "function"
    },
    {
      "inputs": [
        {
          "internalType": "address",
          "name": "from",
          "type": "address"
        },
        {
          "internalType": "address",
          "name": "to",
          "type": "address"
        },
        {
          "internalType": "uint256",
          "name": "tokenId",
          "type": "uint256"
        }
      ],
      "name": "safeTransferFrom",
      "outputs": [],
      "stateMutability": "nonpayable",
      "type": "function"
    },
    {
      "inputs": [
        {
          "internalType": "address",
          "name": "from",
          "type": "address"
        },
        {
          "internalType": "address",
          "name": "to",
          "type": "address"
        },
        {
          "internalType": "uint256",
          "name": "tokenId",
          "type": "uint256"
        },
        {
          "internalType": "bytes",
          "name": "_data",
          "type": "bytes"
        }
      ],
      "name": "safeTransferFrom",
      "outputs": [],
      "stateMutability": "nonpayable",
      "type": "function"
    },
    {
      "inputs": [
        {
          "internalType": "address",
          "name": "operator",
          "type": "address"
        },
        {
          "internalType": "bool",
          "name": "approved",
          "type": "bool"
        }
      ],
      "name": "setApprovalForAll",
      "outputs": [],
      "stateMutability": "nonpayable",
      "type": "function"
    },
    {
      "inputs": [
        {
          "internalType": "bytes4",
          "name": "interfaceId",
          "type": "bytes4"
        }
      ],
      "name": "supportsInterface",
      "outputs": [
        {
          "internalType": "bool",
          "name": "",
          "type": "bool"
        }
      ],
      "stateMutability": "view",
      "type": "function",
      "constant": true
    },
    {
      "inputs": [],
      "name": "symbol",
      "outputs": [
        {
          "internalType": "string",
          "name": "",
          "type": "string"
        }
      ],
      "stateMutability": "view",
      "type": "function",
      "constant": true
    },
    {
      "inputs": [
        {
          "internalType": "address",
          "name": "from",
          "type": "address"
        },
        {
          "internalType": "address",
          "name": "to",
          "type": "address"
        },
        {
          "internalType": "uint256",
          "name": "tokenId",
          "type": "uint256"
        }
      ],
      "name": "transferFrom",
      "outputs": [],
      "stateMutability": "nonpayable",
      "type": "function"
    },
    {
      "inputs": [
        {
          "internalType": "address",
          "name": "newOwner",
          "type": "address"
        }
      ],
      "name": "transferOwnership",
      "outputs": [],
      "stateMutability": "nonpayable",
      "type": "function"
    },
    {
      "stateMutability": "payable",
      "type": "receive",
      "payable": true
    },
    {
      "inputs": [
        {
          "internalType": "address",
          "name": "walletAddress",
          "type": "address"
        }
      ],
      "name": "addressToIdentity",
      "outputs": [
        {
          "components": [
            {
              "internalType": "string",
              "name": "name",
              "type": "string"
            },
            {
              "internalType": "string",
              "name": "email",
              "type": "string"
            },
            {
              "internalType": "string",
              "name": "profession",
              "type": "string"
            },
            {
              "internalType": "string",
              "name": "organization",
              "type": "string"
            },
            {
              "internalType": "string",
              "name": "slogan",
              "type": "string"
            },
            {
              "internalType": "string",
              "name": "website",
              "type": "string"
            },
            {
              "internalType": "string",
              "name": "uniqueYou",
              "type": "string"
            },
            {
              "internalType": "string",
              "name": "backGroundRGB",
              "type": "string"
            },
            {
              "internalType": "uint256",
              "name": "originDate",
              "type": "uint256"
            },
            {
              "internalType": "string",
              "name": "compiledAvatarSVG",
              "type": "string"
            }
          ],
          "internalType": "struct PaperMastersNFI.identity",
          "name": "ident",
          "type": "tuple"
        }
      ],
      "stateMutability": "view",
      "type": "function",
      "constant": true
    },
    {
      "inputs": [
        {
          "internalType": "uint256",
          "name": "tokenId",
          "type": "uint256"
        }
      ],
      "name": "tokenURI",
      "outputs": [
        {
          "internalType": "string",
          "name": "",
          "type": "string"
        }
      ],
      "stateMutability": "view",
      "type": "function",
      "constant": true
    },
    {
      "inputs": [],
      "name": "deposit",
      "outputs": [],
      "stateMutability": "payable",
      "type": "function",
      "payable": true
    },
    {
      "inputs": [],
      "name": "getBalance",
      "outputs": [
        {
          "internalType": "uint256",
          "name": "",
          "type": "uint256"
        }
      ],
      "stateMutability": "view",
      "type": "function",
      "constant": true
    },
    {
      "inputs": [],
      "name": "withdraw",
      "outputs": [],
      "stateMutability": "nonpayable",
      "type": "function"
    },
    {
      "inputs": [
        {
          "internalType": "string",
          "name": "name",
          "type": "string"
        },
        {
          "internalType": "string",
          "name": "email",
          "type": "string"
        },
        {
          "internalType": "string",
          "name": "profession",
          "type": "string"
        },
        {
          "internalType": "string",
          "name": "organization",
          "type": "string"
        },
        {
          "internalType": "string",
          "name": "slogan",
          "type": "string"
        },
        {
          "internalType": "string",
          "name": "website",
          "type": "string"
        },
        {
          "internalType": "string",
          "name": "uniqueYou",
          "type": "string"
        },
        {
          "internalType": "string",
          "name": "backGroundRGB",
          "type": "string"
        },
        {
          "internalType": "uint256",
          "name": "originDate",
          "type": "uint256"
        },
        {
          "internalType": "string",
          "name": "compiledAvatarSVG",
          "type": "string"
        }
      ],
      "name": "mintNFI",
      "outputs": [],
      "stateMutability": "payable",
      "type": "function",
      "payable": true
    }
  ],
  "bytecode": "0x60806040523480156200001157600080fd5b506040518060400160405280600f81526020017f50617065724d6173746572734e464900000000000000000000000000000000008152506040518060400160405280600381526020017f4e46490000000000000000000000000000000000000000000000000000000000815250816000908051906020019062000096929190620001a6565b508060019080519060200190620000af929190620001a6565b505050620000d2620000c6620000d860201b60201c565b620000e060201b60201c565b620002bb565b600033905090565b6000600660009054906101000a900473ffffffffffffffffffffffffffffffffffffffff16905081600660006101000a81548173ffffffffffffffffffffffffffffffffffffffff021916908373ffffffffffffffffffffffffffffffffffffffff1602179055508173ffffffffffffffffffffffffffffffffffffffff168173ffffffffffffffffffffffffffffffffffffffff167f8be0079c531659141344cd1fd0a4f28419497f9722a3daafe3b4186f6b6457e060405160405180910390a35050565b828054620001b49062000285565b90600052602060002090601f016020900481019282620001d8576000855562000224565b82601f10620001f357805160ff191683800117855562000224565b8280016001018555821562000224579182015b828111156200022357825182559160200191906001019062000206565b5b50905062000233919062000237565b5090565b5b808211156200025257600081600090555060010162000238565b5090565b7f4e487b7100000000000000000000000000000000000000000000000000000000600052602260045260246000fd5b600060028204905060018216806200029e57607f821691505b60208210811415620002b557620002b462000256565b5b50919050565b613fa280620002cb6000396000f3fe6080604052600436106101395760003560e01c8063715018a6116100ab578063b88d4fde1161006f578063b88d4fde1461044d578063c87b56dd14610476578063d0e30db0146104b3578063e985e9c5146104bd578063eb4e9b09146104fa578063f2fde38b1461053757610140565b8063715018a61461039b5780638da5cb5b146103b257806395d89b41146103dd578063a02275d914610408578063a22cb4651461042457610140565b806323b872dd116100fd57806323b872dd1461027257806329dec90b1461029b5780633ccfd60b146102e157806342842e0e146102f85780636352211e1461032157806370a082311461035e57610140565b806301ffc9a71461017957806306fdde03146101b6578063081812fc146101e1578063095ea7b31461021e57806312065fe01461024757610140565b3661014057005b7f909c57d5c6ac08245cf2a6de3900e2b868513fa59099b92b27d8db823d92df9c5a60405161016f91906128fb565b60405180910390a1005b34801561018557600080fd5b506101a0600480360381019061019b9190612982565b610560565b6040516101ad91906129ca565b60405180910390f35b3480156101c257600080fd5b506101cb610642565b6040516101d89190612a7e565b60405180910390f35b3480156101ed57600080fd5b5061020860048036038101906102039190612acc565b6106d4565b6040516102159190612b3a565b60405180910390f35b34801561022a57600080fd5b5061024560048036038101906102409190612b81565b610759565b005b34801561025357600080fd5b5061025c610871565b60405161026991906128fb565b60405180910390f35b34801561027e57600080fd5b5061029960048036038101906102949190612bc1565b610879565b005b3480156102a757600080fd5b506102c260048036038101906102bd9190612c14565b6108d9565b6040516102d89a99989796959493929190612c41565b60405180910390f35b3480156102ed57600080fd5b506102f6610df5565b005b34801561030457600080fd5b5061031f600480360381019061031a9190612bc1565b610f26565b005b34801561032d57600080fd5b5061034860048036038101906103439190612acc565b610f46565b6040516103559190612b3a565b60405180910390f35b34801561036a57600080fd5b5061038560048036038101906103809190612c14565b610ff8565b60405161039291906128fb565b60405180910390f35b3480156103a757600080fd5b506103b06110b0565b005b3480156103be57600080fd5b506103c7611138565b6040516103d49190612b3a565b60405180910390f35b3480156103e957600080fd5b506103f2611162565b6040516103ff9190612a7e565b60405180910390f35b610422600480360381019061041d9190612e51565b6111f4565b005b34801561043057600080fd5b5061044b60048036038101906104469190613058565b61140b565b005b34801561045957600080fd5b50610474600480360381019061046f9190613139565b611421565b005b34801561048257600080fd5b5061049d60048036038101906104989190612acc565b611483565b6040516104aa9190612a7e565b60405180910390f35b6104bb611530565b005b3480156104c957600080fd5b506104e460048036038101906104df91906131bc565b611532565b6040516104f191906129ca565b60405180910390f35b34801561050657600080fd5b50610521600480360381019061051c9190612c14565b6115c6565b60405161052e9190613367565b60405180910390f35b34801561054357600080fd5b5061055e60048036038101906105599190612c14565b611b4c565b005b60007f80ac58cd000000000000000000000000000000000000000000000000000000007bffffffffffffffffffffffffffffffffffffffffffffffffffffffff1916827bffffffffffffffffffffffffffffffffffffffffffffffffffffffff1916148061062b57507f5b5e139f000000000000000000000000000000000000000000000000000000007bffffffffffffffffffffffffffffffffffffffffffffffffffffffff1916827bffffffffffffffffffffffffffffffffffffffffffffffffffffffff1916145b8061063b575061063a82611c44565b5b9050919050565b606060008054610651906133b8565b80601f016020809104026020016040519081016040528092919081815260200182805461067d906133b8565b80156106ca5780601f1061069f576101008083540402835291602001916106ca565b820191906000526020600020905b8154815290600101906020018083116106ad57829003601f168201915b5050505050905090565b60006106df82611cae565b61071e576040517f08c379a00000000000000000000000000000000000000000000000000000000081526004016107159061345c565b60405180910390fd5b6004600083815260200190815260200160002060009054906101000a900473ffffffffffffffffffffffffffffffffffffffff169050919050565b600061076482610f46565b90508073ffffffffffffffffffffffffffffffffffffffff168373ffffffffffffffffffffffffffffffffffffffff1614156107d5576040517f08c379a00000000000000000000000000000000000000000000000000000000081526004016107cc906134ee565b60405180910390fd5b8073ffffffffffffffffffffffffffffffffffffffff166107f4611d1a565b73ffffffffffffffffffffffffffffffffffffffff16148061082357506108228161081d611d1a565b611532565b5b610862576040517f08c379a000000000000000000000000000000000000000000000000000000000815260040161085990613580565b60405180910390fd5b61086c8383611d22565b505050565b600047905090565b61088a610884611d1a565b82611ddb565b6108c9576040517f08c379a00000000000000000000000000000000000000000000000000000000081526004016108c090613612565b60405180910390fd5b6108d4838383611eb9565b505050565b60086020528060005260406000206000915090508060000180546108fc906133b8565b80601f0160208091040260200160405190810160405280929190818152602001828054610928906133b8565b80156109755780601f1061094a57610100808354040283529160200191610975565b820191906000526020600020905b81548152906001019060200180831161095857829003601f168201915b50505050509080600101805461098a906133b8565b80601f01602080910402602001604051908101604052809291908181526020018280546109b6906133b8565b8015610a035780601f106109d857610100808354040283529160200191610a03565b820191906000526020600020905b8154815290600101906020018083116109e657829003601f168201915b505050505090806002018054610a18906133b8565b80601f0160208091040260200160405190810160405280929190818152602001828054610a44906133b8565b8015610a915780601f10610a6657610100808354040283529160200191610a91565b820191906000526020600020905b815481529060010190602001808311610a7457829003601f168201915b505050505090806003018054610aa6906133b8565b80601f0160208091040260200160405190810160405280929190818152602001828054610ad2906133b8565b8015610b1f5780601f10610af457610100808354040283529160200191610b1f565b820191906000526020600020905b815481529060010190602001808311610b0257829003601f168201915b505050505090806004018054610b34906133b8565b80601f0160208091040260200160405190810160405280929190818152602001828054610b60906133b8565b8015610bad5780601f10610b8257610100808354040283529160200191610bad565b820191906000526020600020905b815481529060010190602001808311610b9057829003601f168201915b505050505090806005018054610bc2906133b8565b80601f0160208091040260200160405190810160405280929190818152602001828054610bee906133b8565b8015610c3b5780601f10610c1057610100808354040283529160200191610c3b565b820191906000526020600020905b815481529060010190602001808311610c1e57829003601f168201915b505050505090806006018054610c50906133b8565b80601f0160208091040260200160405190810160405280929190818152602001828054610c7c906133b8565b8015610cc95780601f10610c9e57610100808354040283529160200191610cc9565b820191906000526020600020905b815481529060010190602001808311610cac57829003601f168201915b505050505090806007018054610cde906133b8565b80601f0160208091040260200160405190810160405280929190818152602001828054610d0a906133b8565b8015610d575780601f10610d2c57610100808354040283529160200191610d57565b820191906000526020600020905b815481529060010190602001808311610d3a57829003601f168201915b505050505090806008015490806009018054610d72906133b8565b80601f0160208091040260200160405190810160405280929190818152602001828054610d9e906133b8565b8015610deb5780601f10610dc057610100808354040283529160200191610deb565b820191906000526020600020905b815481529060010190602001808311610dce57829003601f168201915b505050505090508a565b610dfd611d1a565b73ffffffffffffffffffffffffffffffffffffffff16610e1b611138565b73ffffffffffffffffffffffffffffffffffffffff1614610e71576040517f08c379a0000000000000000000000000000000000000000000000000000000008152600401610e689061367e565b60405180910390fd5b600047905060003373ffffffffffffffffffffffffffffffffffffffff1682604051610e9c906136cf565b60006040518083038185875af1925050503d8060008114610ed9576040519150601f19603f3d011682016040523d82523d6000602084013e610ede565b606091505b5050905080610f22576040517f08c379a0000000000000000000000000000000000000000000000000000000008152600401610f1990613730565b60405180910390fd5b5050565b610f4183838360405180602001604052806000815250611421565b505050565b6000806002600084815260200190815260200160002060009054906101000a900473ffffffffffffffffffffffffffffffffffffffff169050600073ffffffffffffffffffffffffffffffffffffffff168173ffffffffffffffffffffffffffffffffffffffff161415610fef576040517f08c379a0000000000000000000000000000000000000000000000000000000008152600401610fe6906137c2565b60405180910390fd5b80915050919050565b60008073ffffffffffffffffffffffffffffffffffffffff168273ffffffffffffffffffffffffffffffffffffffff161415611069576040517f08c379a000000000000000000000000000000000000000000000000000000000815260040161106090613854565b60405180910390fd5b600360008373ffffffffffffffffffffffffffffffffffffffff1673ffffffffffffffffffffffffffffffffffffffff168152602001908152602001600020549050919050565b6110b8611d1a565b73ffffffffffffffffffffffffffffffffffffffff166110d6611138565b73ffffffffffffffffffffffffffffffffffffffff161461112c576040517f08c379a00000000000000000000000000000000000000000000000000000000081526004016111239061367e565b60405180910390fd5b6111366000612115565b565b6000600660009054906101000a900473ffffffffffffffffffffffffffffffffffffffff16905090565b606060018054611171906133b8565b80601f016020809104026020016040519081016040528092919081815260200182805461119d906133b8565b80156111ea5780601f106111bf576101008083540402835291602001916111ea565b820191906000526020600020905b8154815290600101906020018083116111cd57829003601f168201915b5050505050905090565b6040518061014001604052808b81526020018a815260200189815260200188815260200187815260200186815260200185815260200184815260200183815260200182815250600860003373ffffffffffffffffffffffffffffffffffffffff1673ffffffffffffffffffffffffffffffffffffffff16815260200190815260200160002060008201518160000190805190602001906112959291906127ec565b5060208201518160010190805190602001906112b29291906127ec565b5060408201518160020190805190602001906112cf9291906127ec565b5060608201518160030190805190602001906112ec9291906127ec565b5060808201518160040190805190602001906113099291906127ec565b5060a08201518160050190805190602001906113269291906127ec565b5060c08201518160060190805190602001906113439291906127ec565b5060e08201518160070190805190602001906113609291906127ec565b5061010082015181600801556101208201518160090190805190602001906113899291906127ec565b509050506113a03361139b60076121db565b6121e9565b3373ffffffffffffffffffffffffffffffffffffffff167f95a6674962ea809502bf598594df766970752159ed9a7a2e33bab16608e708cc6113e260076121db565b6040516113ef91906128fb565b60405180910390a2600761220790505050505050505050505050565b61141d611416611d1a565b838361221d565b5050565b61143261142c611d1a565b83611ddb565b611471576040517f08c379a000000000000000000000000000000000000000000000000000000000815260040161146890613612565b60405180910390fd5b61147d8484848461238a565b50505050565b606061148e82611cae565b6114cd576040517f08c379a00000000000000000000000000000000000000000000000000000000081526004016114c4906138e6565b60405180910390fd5b60006114d883610f46565b905060006114e46123e6565b905060008151116115045760405180602001604052806000815250611527565b808260405160200161151792919061398a565b6040516020818303038152906040525b92505050919050565b565b6000600560008473ffffffffffffffffffffffffffffffffffffffff1673ffffffffffffffffffffffffffffffffffffffff16815260200190815260200160002060008373ffffffffffffffffffffffffffffffffffffffff1673ffffffffffffffffffffffffffffffffffffffff16815260200190815260200160002060009054906101000a900460ff16905092915050565b6115ce612872565b600860008373ffffffffffffffffffffffffffffffffffffffff1673ffffffffffffffffffffffffffffffffffffffff16815260200190815260200160002060405180610140016040529081600082018054611629906133b8565b80601f0160208091040260200160405190810160405280929190818152602001828054611655906133b8565b80156116a25780601f10611677576101008083540402835291602001916116a2565b820191906000526020600020905b81548152906001019060200180831161168557829003601f168201915b505050505081526020016001820180546116bb906133b8565b80601f01602080910402602001604051908101604052809291908181526020018280546116e7906133b8565b80156117345780601f1061170957610100808354040283529160200191611734565b820191906000526020600020905b81548152906001019060200180831161171757829003601f168201915b5050505050815260200160028201805461174d906133b8565b80601f0160208091040260200160405190810160405280929190818152602001828054611779906133b8565b80156117c65780601f1061179b576101008083540402835291602001916117c6565b820191906000526020600020905b8154815290600101906020018083116117a957829003601f168201915b505050505081526020016003820180546117df906133b8565b80601f016020809104026020016040519081016040528092919081815260200182805461180b906133b8565b80156118585780601f1061182d57610100808354040283529160200191611858565b820191906000526020600020905b81548152906001019060200180831161183b57829003601f168201915b50505050508152602001600482018054611871906133b8565b80601f016020809104026020016040519081016040528092919081815260200182805461189d906133b8565b80156118ea5780601f106118bf576101008083540402835291602001916118ea565b820191906000526020600020905b8154815290600101906020018083116118cd57829003601f168201915b50505050508152602001600582018054611903906133b8565b80601f016020809104026020016040519081016040528092919081815260200182805461192f906133b8565b801561197c5780601f106119515761010080835404028352916020019161197c565b820191906000526020600020905b81548152906001019060200180831161195f57829003601f168201915b50505050508152602001600682018054611995906133b8565b80601f01602080910402602001604051908101604052809291908181526020018280546119c1906133b8565b8015611a0e5780601f106119e357610100808354040283529160200191611a0e565b820191906000526020600020905b8154815290600101906020018083116119f157829003601f168201915b50505050508152602001600782018054611a27906133b8565b80601f0160208091040260200160405190810160405280929190818152602001828054611a53906133b8565b8015611aa05780601f10611a7557610100808354040283529160200191611aa0565b820191906000526020600020905b815481529060010190602001808311611a8357829003601f168201915b5050505050815260200160088201548152602001600982018054611ac3906133b8565b80601f0160208091040260200160405190810160405280929190818152602001828054611aef906133b8565b8015611b3c5780601f10611b1157610100808354040283529160200191611b3c565b820191906000526020600020905b815481529060010190602001808311611b1f57829003601f168201915b5050505050815250509050919050565b611b54611d1a565b73ffffffffffffffffffffffffffffffffffffffff16611b72611138565b73ffffffffffffffffffffffffffffffffffffffff1614611bc8576040517f08c379a0000000000000000000000000000000000000000000000000000000008152600401611bbf9061367e565b60405180910390fd5b600073ffffffffffffffffffffffffffffffffffffffff168173ffffffffffffffffffffffffffffffffffffffff161415611c38576040517f08c379a0000000000000000000000000000000000000000000000000000000008152600401611c2f90613a24565b60405180910390fd5b611c4181612115565b50565b60007f01ffc9a7000000000000000000000000000000000000000000000000000000007bffffffffffffffffffffffffffffffffffffffffffffffffffffffff1916827bffffffffffffffffffffffffffffffffffffffffffffffffffffffff1916149050919050565b60008073ffffffffffffffffffffffffffffffffffffffff166002600084815260200190815260200160002060009054906101000a900473ffffffffffffffffffffffffffffffffffffffff1673ffffffffffffffffffffffffffffffffffffffff1614159050919050565b600033905090565b816004600083815260200190815260200160002060006101000a81548173ffffffffffffffffffffffffffffffffffffffff021916908373ffffffffffffffffffffffffffffffffffffffff160217905550808273ffffffffffffffffffffffffffffffffffffffff16611d9583610f46565b73ffffffffffffffffffffffffffffffffffffffff167f8c5be1e5ebec7d5bd14f71427d1e84f3dd0314c0f7b2291e5b200ac8c7c3b92560405160405180910390a45050565b6000611de682611cae565b611e25576040517f08c379a0000000000000000000000000000000000000000000000000000000008152600401611e1c90613ab6565b60405180910390fd5b6000611e3083610f46565b90508073ffffffffffffffffffffffffffffffffffffffff168473ffffffffffffffffffffffffffffffffffffffff161480611e9f57508373ffffffffffffffffffffffffffffffffffffffff16611e87846106d4565b73ffffffffffffffffffffffffffffffffffffffff16145b80611eb05750611eaf8185611532565b5b91505092915050565b8273ffffffffffffffffffffffffffffffffffffffff16611ed982610f46565b73ffffffffffffffffffffffffffffffffffffffff1614611f2f576040517f08c379a0000000000000000000000000000000000000000000000000000000008152600401611f2690613b48565b60405180910390fd5b600073ffffffffffffffffffffffffffffffffffffffff168273ffffffffffffffffffffffffffffffffffffffff161415611f9f576040517f08c379a0000000000000000000000000000000000000000000000000000000008152600401611f9690613bda565b60405180910390fd5b611faa838383612423565b611fb5600082611d22565b6001600360008573ffffffffffffffffffffffffffffffffffffffff1673ffffffffffffffffffffffffffffffffffffffff16815260200190815260200160002060008282546120059190613c29565b925050819055506001600360008473ffffffffffffffffffffffffffffffffffffffff1673ffffffffffffffffffffffffffffffffffffffff168152602001908152602001600020600082825461205c9190613c5d565b92505081905550816002600083815260200190815260200160002060006101000a81548173ffffffffffffffffffffffffffffffffffffffff021916908373ffffffffffffffffffffffffffffffffffffffff160217905550808273ffffffffffffffffffffffffffffffffffffffff168473ffffffffffffffffffffffffffffffffffffffff167fddf252ad1be2c89b69c2b068fc378daa952ba7f163c4a11628f55a4df523b3ef60405160405180910390a4505050565b6000600660009054906101000a900473ffffffffffffffffffffffffffffffffffffffff16905081600660006101000a81548173ffffffffffffffffffffffffffffffffffffffff021916908373ffffffffffffffffffffffffffffffffffffffff1602179055508173ffffffffffffffffffffffffffffffffffffffff168173ffffffffffffffffffffffffffffffffffffffff167f8be0079c531659141344cd1fd0a4f28419497f9722a3daafe3b4186f6b6457e060405160405180910390a35050565b600081600001549050919050565b612203828260405180602001604052806000815250612428565b5050565b6001816000016000828254019250508190555050565b8173ffffffffffffffffffffffffffffffffffffffff168373ffffffffffffffffffffffffffffffffffffffff16141561228c576040517f08c379a000000000000000000000000000000000000000000000000000000000815260040161228390613cff565b60405180910390fd5b80600560008573ffffffffffffffffffffffffffffffffffffffff1673ffffffffffffffffffffffffffffffffffffffff16815260200190815260200160002060008473ffffffffffffffffffffffffffffffffffffffff1673ffffffffffffffffffffffffffffffffffffffff16815260200190815260200160002060006101000a81548160ff0219169083151502179055508173ffffffffffffffffffffffffffffffffffffffff168373ffffffffffffffffffffffffffffffffffffffff167f17307eab39ab6107e8899845ad3d59bd9653f200f220920489ca2b5937696c318360405161237d91906129ca565b60405180910390a3505050565b612395848484611eb9565b6123a184848484612483565b6123e0576040517f08c379a00000000000000000000000000000000000000000000000000000000081526004016123d790613d91565b60405180910390fd5b50505050565b60606040518060400160405280601d81526020017f7777772e70617065726d6173746572732e696f2f6964656e746974792f000000815250905090565b505050565b612432838361260b565b61243f6000848484612483565b61247e576040517f08c379a000000000000000000000000000000000000000000000000000000000815260040161247590613d91565b60405180910390fd5b505050565b60006124a48473ffffffffffffffffffffffffffffffffffffffff166127d9565b156125fe578373ffffffffffffffffffffffffffffffffffffffff1663150b7a026124cd611d1a565b8786866040518563ffffffff1660e01b81526004016124ef9493929190613e06565b6020604051808303816000875af192505050801561252b57506040513d601f19601f820116820180604052508101906125289190613e67565b60015b6125ae573d806000811461255b576040519150601f19603f3d011682016040523d82523d6000602084013e612560565b606091505b506000815114156125a6576040517f08c379a000000000000000000000000000000000000000000000000000000000815260040161259d90613d91565b60405180910390fd5b805181602001fd5b63150b7a0260e01b7bffffffffffffffffffffffffffffffffffffffffffffffffffffffff1916817bffffffffffffffffffffffffffffffffffffffffffffffffffffffff191614915050612603565b600190505b949350505050565b600073ffffffffffffffffffffffffffffffffffffffff168273ffffffffffffffffffffffffffffffffffffffff16141561267b576040517f08c379a000000000000000000000000000000000000000000000000000000000815260040161267290613ee0565b60405180910390fd5b61268481611cae565b156126c4576040517f08c379a00000000000000000000000000000000000000000000000000000000081526004016126bb90613f4c565b60405180910390fd5b6126d060008383612423565b6001600360008473ffffffffffffffffffffffffffffffffffffffff1673ffffffffffffffffffffffffffffffffffffffff16815260200190815260200160002060008282546127209190613c5d565b92505081905550816002600083815260200190815260200160002060006101000a81548173ffffffffffffffffffffffffffffffffffffffff021916908373ffffffffffffffffffffffffffffffffffffffff160217905550808273ffffffffffffffffffffffffffffffffffffffff16600073ffffffffffffffffffffffffffffffffffffffff167fddf252ad1be2c89b69c2b068fc378daa952ba7f163c4a11628f55a4df523b3ef60405160405180910390a45050565b600080823b905060008111915050919050565b8280546127f8906133b8565b90600052602060002090601f01602090048101928261281a5760008555612861565b82601f1061283357805160ff1916838001178555612861565b82800160010185558215612861579182015b82811115612860578251825591602001919060010190612845565b5b50905061286e91906128c5565b5090565b604051806101400160405280606081526020016060815260200160608152602001606081526020016060815260200160608152602001606081526020016060815260200160008152602001606081525090565b5b808211156128de5760008160009055506001016128c6565b5090565b6000819050919050565b6128f5816128e2565b82525050565b600060208201905061291060008301846128ec565b92915050565b6000604051905090565b600080fd5b600080fd5b60007fffffffff0000000000000000000000000000000000000000000000000000000082169050919050565b61295f8161292a565b811461296a57600080fd5b50565b60008135905061297c81612956565b92915050565b60006020828403121561299857612997612920565b5b60006129a68482850161296d565b91505092915050565b60008115159050919050565b6129c4816129af565b82525050565b60006020820190506129df60008301846129bb565b92915050565b600081519050919050565b600082825260208201905092915050565b60005b83811015612a1f578082015181840152602081019050612a04565b83811115612a2e576000848401525b50505050565b6000601f19601f8301169050919050565b6000612a50826129e5565b612a5a81856129f0565b9350612a6a818560208601612a01565b612a7381612a34565b840191505092915050565b60006020820190508181036000830152612a988184612a45565b905092915050565b612aa9816128e2565b8114612ab457600080fd5b50565b600081359050612ac681612aa0565b92915050565b600060208284031215612ae257612ae1612920565b5b6000612af084828501612ab7565b91505092915050565b600073ffffffffffffffffffffffffffffffffffffffff82169050919050565b6000612b2482612af9565b9050919050565b612b3481612b19565b82525050565b6000602082019050612b4f6000830184612b2b565b92915050565b612b5e81612b19565b8114612b6957600080fd5b50565b600081359050612b7b81612b55565b92915050565b60008060408385031215612b9857612b97612920565b5b6000612ba685828601612b6c565b9250506020612bb785828601612ab7565b9150509250929050565b600080600060608486031215612bda57612bd9612920565b5b6000612be886828701612b6c565b9350506020612bf986828701612b6c565b9250506040612c0a86828701612ab7565b9150509250925092565b600060208284031215612c2a57612c29612920565b5b6000612c3884828501612b6c565b91505092915050565b6000610140820190508181036000830152612c5c818d612a45565b90508181036020830152612c70818c612a45565b90508181036040830152612c84818b612a45565b90508181036060830152612c98818a612a45565b90508181036080830152612cac8189612a45565b905081810360a0830152612cc08188612a45565b905081810360c0830152612cd48187612a45565b905081810360e0830152612ce88186612a45565b9050612cf86101008301856128ec565b818103610120830152612d0b8184612a45565b90509b9a5050505050505050505050565b600080fd5b600080fd5b7f4e487b7100000000000000000000000000000000000000000000000000000000600052604160045260246000fd5b612d5e82612a34565b810181811067ffffffffffffffff82111715612d7d57612d7c612d26565b5b80604052505050565b6000612d90612916565b9050612d9c8282612d55565b919050565b600067ffffffffffffffff821115612dbc57612dbb612d26565b5b612dc582612a34565b9050602081019050919050565b82818337600083830152505050565b6000612df4612def84612da1565b612d86565b905082815260208101848484011115612e1057612e0f612d21565b5b612e1b848285612dd2565b509392505050565b600082601f830112612e3857612e37612d1c565b5b8135612e48848260208601612de1565b91505092915050565b6000806000806000806000806000806101408b8d031215612e7557612e74612920565b5b60008b013567ffffffffffffffff811115612e9357612e92612925565b5b612e9f8d828e01612e23565b9a505060208b013567ffffffffffffffff811115612ec057612ebf612925565b5b612ecc8d828e01612e23565b99505060408b013567ffffffffffffffff811115612eed57612eec612925565b5b612ef98d828e01612e23565b98505060608b013567ffffffffffffffff811115612f1a57612f19612925565b5b612f268d828e01612e23565b97505060808b013567ffffffffffffffff811115612f4757612f46612925565b5b612f538d828e01612e23565b96505060a08b013567ffffffffffffffff811115612f7457612f73612925565b5b612f808d828e01612e23565b95505060c08b013567ffffffffffffffff811115612fa157612fa0612925565b5b612fad8d828e01612e23565b94505060e08b013567ffffffffffffffff811115612fce57612fcd612925565b5b612fda8d828e01612e23565b935050610100612fec8d828e01612ab7565b9250506101208b013567ffffffffffffffff81111561300e5761300d612925565b5b61301a8d828e01612e23565b9150509295989b9194979a5092959850565b613035816129af565b811461304057600080fd5b50565b6000813590506130528161302c565b92915050565b6000806040838503121561306f5761306e612920565b5b600061307d85828601612b6c565b925050602061308e85828601613043565b9150509250929050565b600067ffffffffffffffff8211156130b3576130b2612d26565b5b6130bc82612a34565b9050602081019050919050565b60006130dc6130d784613098565b612d86565b9050828152602081018484840111156130f8576130f7612d21565b5b613103848285612dd2565b509392505050565b600082601f8301126131205761311f612d1c565b5b81356131308482602086016130c9565b91505092915050565b6000806000806080858703121561315357613152612920565b5b600061316187828801612b6c565b945050602061317287828801612b6c565b935050604061318387828801612ab7565b925050606085013567ffffffffffffffff8111156131a4576131a3612925565b5b6131b08782880161310b565b91505092959194509250565b600080604083850312156131d3576131d2612920565b5b60006131e185828601612b6c565b92505060206131f285828601612b6c565b9150509250929050565b600082825260208201905092915050565b6000613218826129e5565b61322281856131fc565b9350613232818560208601612a01565b61323b81612a34565b840191505092915050565b61324f816128e2565b82525050565b6000610140830160008301518482036000860152613273828261320d565b9150506020830151848203602086015261328d828261320d565b915050604083015184820360408601526132a7828261320d565b915050606083015184820360608601526132c1828261320d565b915050608083015184820360808601526132db828261320d565b91505060a083015184820360a08601526132f5828261320d565b91505060c083015184820360c086015261330f828261320d565b91505060e083015184820360e0860152613329828261320d565b915050610100830151613340610100860182613246565b5061012083015184820361012086015261335a828261320d565b9150508091505092915050565b600060208201905081810360008301526133818184613255565b905092915050565b7f4e487b7100000000000000000000000000000000000000000000000000000000600052602260045260246000fd5b600060028204905060018216806133d057607f821691505b602082108114156133e4576133e3613389565b5b50919050565b7f4552433732313a20617070726f76656420717565727920666f72206e6f6e657860008201527f697374656e7420746f6b656e0000000000000000000000000000000000000000602082015250565b6000613446602c836129f0565b9150613451826133ea565b604082019050919050565b6000602082019050818103600083015261347581613439565b9050919050565b7f4552433732313a20617070726f76616c20746f2063757272656e74206f776e6560008201527f7200000000000000000000000000000000000000000000000000000000000000602082015250565b60006134d86021836129f0565b91506134e38261347c565b604082019050919050565b60006020820190508181036000830152613507816134cb565b9050919050565b7f4552433732313a20617070726f76652063616c6c6572206973206e6f74206f7760008201527f6e6572206e6f7220617070726f76656420666f7220616c6c0000000000000000602082015250565b600061356a6038836129f0565b91506135758261350e565b604082019050919050565b600060208201905081810360008301526135998161355d565b9050919050565b7f4552433732313a207472616e736665722063616c6c6572206973206e6f74206f60008201527f776e6572206e6f7220617070726f766564000000000000000000000000000000602082015250565b60006135fc6031836129f0565b9150613607826135a0565b604082019050919050565b6000602082019050818103600083015261362b816135ef565b9050919050565b7f4f776e61626c653a2063616c6c6572206973206e6f7420746865206f776e6572600082015250565b60006136686020836129f0565b915061367382613632565b602082019050919050565b600060208201905081810360008301526136978161365b565b9050919050565b600081905092915050565b50565b60006136b960008361369e565b91506136c4826136a9565b600082019050919050565b60006136da826136ac565b9150819050919050565b7f5472616e73666572206661696c65642e00000000000000000000000000000000600082015250565b600061371a6010836129f0565b9150613725826136e4565b602082019050919050565b600060208201905081810360008301526137498161370d565b9050919050565b7f4552433732313a206f776e657220717565727920666f72206e6f6e657869737460008201527f656e7420746f6b656e0000000000000000000000000000000000000000000000602082015250565b60006137ac6029836129f0565b91506137b782613750565b604082019050919050565b600060208201905081810360008301526137db8161379f565b9050919050565b7f4552433732313a2062616c616e636520717565727920666f7220746865207a6560008201527f726f206164647265737300000000000000000000000000000000000000000000602082015250565b600061383e602a836129f0565b9150613849826137e2565b604082019050919050565b6000602082019050818103600083015261386d81613831565b9050919050565b7f4552433732314d657461646174613a2055524920717565727920666f72206e6f60008201527f6e6578697374656e7420746f6b656e0000000000000000000000000000000000602082015250565b60006138d0602f836129f0565b91506138db82613874565b604082019050919050565b600060208201905081810360008301526138ff816138c3565b9050919050565b600081905092915050565b600061391c826129e5565b6139268185613906565b9350613936818560208601612a01565b80840191505092915050565b60008160601b9050919050565b600061395a82613942565b9050919050565b600061396c8261394f565b9050919050565b61398461397f82612b19565b613961565b82525050565b60006139968285613911565b91506139a28284613973565b6014820191508190509392505050565b7f4f776e61626c653a206e6577206f776e657220697320746865207a65726f206160008201527f6464726573730000000000000000000000000000000000000000000000000000602082015250565b6000613a0e6026836129f0565b9150613a19826139b2565b604082019050919050565b60006020820190508181036000830152613a3d81613a01565b9050919050565b7f4552433732313a206f70657261746f7220717565727920666f72206e6f6e657860008201527f697374656e7420746f6b656e0000000000000000000000000000000000000000602082015250565b6000613aa0602c836129f0565b9150613aab82613a44565b604082019050919050565b60006020820190508181036000830152613acf81613a93565b9050919050565b7f4552433732313a207472616e73666572206f6620746f6b656e2074686174206960008201527f73206e6f74206f776e0000000000000000000000000000000000000000000000602082015250565b6000613b326029836129f0565b9150613b3d82613ad6565b604082019050919050565b60006020820190508181036000830152613b6181613b25565b9050919050565b7f4552433732313a207472616e7366657220746f20746865207a65726f2061646460008201527f7265737300000000000000000000000000000000000000000000000000000000602082015250565b6000613bc46024836129f0565b9150613bcf82613b68565b604082019050919050565b60006020820190508181036000830152613bf381613bb7565b9050919050565b7f4e487b7100000000000000000000000000000000000000000000000000000000600052601160045260246000fd5b6000613c34826128e2565b9150613c3f836128e2565b925082821015613c5257613c51613bfa565b5b828203905092915050565b6000613c68826128e2565b9150613c73836128e2565b9250827fffffffffffffffffffffffffffffffffffffffffffffffffffffffffffffffff03821115613ca857613ca7613bfa565b5b828201905092915050565b7f4552433732313a20617070726f766520746f2063616c6c657200000000000000600082015250565b6000613ce96019836129f0565b9150613cf482613cb3565b602082019050919050565b60006020820190508181036000830152613d1881613cdc565b9050919050565b7f4552433732313a207472616e7366657220746f206e6f6e20455243373231526560008201527f63656976657220696d706c656d656e7465720000000000000000000000000000602082015250565b6000613d7b6032836129f0565b9150613d8682613d1f565b604082019050919050565b60006020820190508181036000830152613daa81613d6e565b9050919050565b600081519050919050565b600082825260208201905092915050565b6000613dd882613db1565b613de28185613dbc565b9350613df2818560208601612a01565b613dfb81612a34565b840191505092915050565b6000608082019050613e1b6000830187612b2b565b613e286020830186612b2b565b613e3560408301856128ec565b8181036060830152613e478184613dcd565b905095945050505050565b600081519050613e6181612956565b92915050565b600060208284031215613e7d57613e7c612920565b5b6000613e8b84828501613e52565b91505092915050565b7f4552433732313a206d696e7420746f20746865207a65726f2061646472657373600082015250565b6000613eca6020836129f0565b9150613ed582613e94565b602082019050919050565b60006020820190508181036000830152613ef981613ebd565b9050919050565b7f4552433732313a20746f6b656e20616c7265616479206d696e74656400000000600082015250565b6000613f36601c836129f0565b9150613f4182613f00565b602082019050919050565b60006020820190508181036000830152613f6581613f29565b905091905056fea2646970667358221220f7d64dac8aaf825e34bf82c9b823c72b0a91aa2df76b7cd4cf3838e659dccaed64736f6c634300080a0033",
  "immutableReferences": {},
  "source": "// SPDX-License-Identifier: GPL-3.0\r\npragma solidity >=0.8.0 <0.9.0;\r\n\r\nimport \"@openzeppelin/contracts/token/ERC721/ERC721.sol\";\r\nimport \"@openzeppelin/contracts/utils/Counters.sol\";\r\nimport \"@openzeppelin/contracts/access/Ownable.sol\";\r\n\r\ncontract PaperMastersNFI is ERC721, Ownable  {\r\n\r\n    using Counters for Counters.Counter;\r\n    Counters.Counter private _tokenIndexCounter;\r\n\r\n    struct identity\r\n    {\r\n        string name;\r\n        string email;\r\n        string profession;\r\n        string organization;\r\n        string slogan;\r\n        string website;\r\n        string uniqueYou;\r\n        string backGroundRGB;\r\n        uint originDate;\r\n        string compiledAvatarSVG;\r\n    }\r\n\r\n    mapping(address => identity) public _ownerNFI;\r\n\r\n    constructor() ERC721(\"PaperMastersNFI\", \"NFI\") {}\r\n\r\n\r\n    function addressToIdentity(address walletAddress) public view returns(identity memory ident) {\r\n        ident = _ownerNFI[walletAddress];\r\n    }\r\n\r\n\r\n    function _baseURI() internal pure override returns (string memory) {\r\n        return \"www.papermasters.io/identity/\";\r\n    }\r\n\r\n    function tokenURI(uint256 tokenId) public view virtual override returns (string memory) {\r\n        require(_exists(tokenId), \"ERC721Metadata: URI query for nonexistent token\");\r\n\r\n        address owner = ownerOf(tokenId);\r\n\r\n        string memory baseURI = _baseURI();\r\n\r\n        return bytes(baseURI).length > 0 ? string(abi.encodePacked(baseURI, owner)) : \"\";\r\n    }\r\n\r\n    event Log(uint gas);\r\n\r\n    // Fallback function must be declared as external.\r\n    fallback() external payable {\r\n        // send / transfer (forwards 2300 gas to this fallback function)\r\n        // call (forwards all of the gas)\r\n        emit Log(gasleft());\r\n    }\r\n\r\n    receive() external payable {}\r\n\r\n    function deposit() public payable {}\r\n\r\n    function getBalance() public view returns (uint) {\r\n        return address(this).balance;\r\n    }\r\n    function withdraw() external onlyOwner{\r\n        // This forwards all available gas. Be sure to check the return value!\r\n        uint amount = address(this).balance;\r\n        (bool success, ) = msg.sender.call{value: amount}(\"\");\r\n        require(success, \"Transfer failed.\");\r\n    }\r\n\r\n\r\n    // function sendViaCall(address payable _to) public payable {\r\n    //     // Call returns a boolean value indicating success or failure.\r\n    //     // This is the current recommended method to use.\r\n    //     (bool sent, bytes memory data) = _to.call{value: msg.value}('');\r\n    //     require(sent, \"Failed to send Ether\");\r\n    // }\r\n\r\n\r\n\r\n    function mintNFI (\r\n        string memory name,\r\n        string memory email,\r\n        string memory profession,\r\n        string memory organization,\r\n        string memory slogan,\r\n        string memory website,\r\n        string memory uniqueYou,\r\n        string memory backGroundRGB,\r\n        uint originDate,\r\n        string memory compiledAvatarSVG\r\n    ) public payable {\r\n        _ownerNFI[msg.sender] = identity(\r\n            name,\r\n            email,\r\n            profession,\r\n            organization,\r\n            slogan,\r\n            website,\r\n            uniqueYou,\r\n            backGroundRGB,\r\n            originDate,\r\n            compiledAvatarSVG\r\n        );\r\n\r\n        _safeMint(msg.sender, _tokenIndexCounter.current());\r\n\r\n        emit NFIMinted(msg.sender, _tokenIndexCounter.current());\r\n\r\n        _tokenIndexCounter.increment;\r\n\r\n    }\r\n\r\n    event NFIMinted(address indexed _from, uint256 tokenId);\r\n\r\n\r\n\r\n    //disable so no transfer\r\n    // setApprovalForAll(operator, approved)\r\n    // isApprovedForAll(owner, operator)\r\n    // transferFrom(from, to, tokenId)\r\n    // safeTransferFrom(from, to, tokenId)\r\n    // safeTransferFrom(from, to, tokenId, _data)\r\n    // _safeTransfer(from, to, tokenId, _data)\r\n}",
  "sourcePath": "/home/ramona/gitrepos/MintIdentityTPM/truffle/contracts/MintIdentity.sol",
  "compiler": {
    "name": "solc",
    "version": "0.8.10+commit.fc410830.Emscripten.clang"
  },
  "schemaVersion": "3.4.4",
  "updatedAt": "2022-02-16T05:04:04.768Z",
  "networkType": "ethereum",
  "devdoc": {
    "kind": "dev",
    "methods": {
      "approve(address,uint256)": {
        "details": "See {IERC721-approve}."
      },
      "balanceOf(address)": {
        "details": "See {IERC721-balanceOf}."
      },
      "getApproved(uint256)": {
        "details": "See {IERC721-getApproved}."
      },
      "isApprovedForAll(address,address)": {
        "details": "See {IERC721-isApprovedForAll}."
      },
      "name()": {
        "details": "See {IERC721Metadata-name}."
      },
      "owner()": {
        "details": "Returns the address of the current owner."
      },
      "ownerOf(uint256)": {
        "details": "See {IERC721-ownerOf}."
      },
      "renounceOwnership()": {
        "details": "Leaves the contract without owner. It will not be possible to call `onlyOwner` functions anymore. Can only be called by the current owner. NOTE: Renouncing ownership will leave the contract without an owner, thereby removing any functionality that is only available to the owner."
      },
      "safeTransferFrom(address,address,uint256)": {
        "details": "See {IERC721-safeTransferFrom}."
      },
      "safeTransferFrom(address,address,uint256,bytes)": {
        "details": "See {IERC721-safeTransferFrom}."
      },
      "setApprovalForAll(address,bool)": {
        "details": "See {IERC721-setApprovalForAll}."
      },
      "supportsInterface(bytes4)": {
        "details": "See {IERC165-supportsInterface}."
      },
      "symbol()": {
        "details": "See {IERC721Metadata-symbol}."
      },
      "tokenURI(uint256)": {
        "details": "See {IERC721Metadata-tokenURI}."
      },
      "transferFrom(address,address,uint256)": {
        "details": "See {IERC721-transferFrom}."
      },
      "transferOwnership(address)": {
        "details": "Transfers ownership of the contract to a new account (`newOwner`). Can only be called by the current owner."
      }
    },
    "version": 1
  },
  "userdoc": {
    "kind": "user",
    "methods": {},
    "version": 1
  }
}