{
  "contractName": "MintIdentity",
  "abi": [
    {
      "inputs": [],
      "stateMutability": "nonpayable",
      "type": "constructor"
    },
    {
      "anonymous": false,
      "inputs": [
        {
          "indexed": true,
          "internalType": "address",
          "name": "owner",
          "type": "address"
        },
        {
          "indexed": true,
          "internalType": "address",
          "name": "approved",
          "type": "address"
        },
        {
          "indexed": true,
          "internalType": "uint256",
          "name": "tokenId",
          "type": "uint256"
        }
      ],
      "name": "Approval",
      "type": "event"
    },
    {
      "anonymous": false,
      "inputs": [
        {
          "indexed": true,
          "internalType": "address",
          "name": "owner",
          "type": "address"
        },
        {
          "indexed": true,
          "internalType": "address",
          "name": "operator",
          "type": "address"
        },
        {
          "indexed": false,
          "internalType": "bool",
          "name": "approved",
          "type": "bool"
        }
      ],
      "name": "ApprovalForAll",
      "type": "event"
    },
    {
      "anonymous": false,
      "inputs": [
        {
          "indexed": true,
          "internalType": "address",
          "name": "previousOwner",
          "type": "address"
        },
        {
          "indexed": true,
          "internalType": "address",
          "name": "newOwner",
          "type": "address"
        }
      ],
      "name": "OwnershipTransferred",
      "type": "event"
    },
    {
      "anonymous": false,
      "inputs": [
        {
          "indexed": true,
          "internalType": "address",
          "name": "from",
          "type": "address"
        },
        {
          "indexed": true,
          "internalType": "address",
          "name": "to",
          "type": "address"
        },
        {
          "indexed": true,
          "internalType": "uint256",
          "name": "tokenId",
          "type": "uint256"
        }
      ],
      "name": "Transfer",
      "type": "event"
    },
    {
      "inputs": [
        {
          "internalType": "address",
          "name": "to",
          "type": "address"
        },
        {
          "internalType": "uint256",
          "name": "tokenId",
          "type": "uint256"
        }
      ],
      "name": "approve",
      "outputs": [],
      "stateMutability": "nonpayable",
      "type": "function"
    },
    {
      "inputs": [
        {
          "internalType": "address",
          "name": "owner",
          "type": "address"
        }
      ],
      "name": "balanceOf",
      "outputs": [
        {
          "internalType": "uint256",
          "name": "",
          "type": "uint256"
        }
      ],
      "stateMutability": "view",
      "type": "function"
    },
    {
      "inputs": [
        {
          "internalType": "uint256",
          "name": "tokenId",
          "type": "uint256"
        }
      ],
      "name": "getApproved",
      "outputs": [
        {
          "internalType": "address",
          "name": "",
          "type": "address"
        }
      ],
      "stateMutability": "view",
      "type": "function"
    },
    {
      "inputs": [
        {
          "internalType": "address",
          "name": "owner",
          "type": "address"
        },
        {
          "internalType": "address",
          "name": "operator",
          "type": "address"
        }
      ],
      "name": "isApprovedForAll",
      "outputs": [
        {
          "internalType": "bool",
          "name": "",
          "type": "bool"
        }
      ],
      "stateMutability": "view",
      "type": "function"
    },
    {
      "inputs": [],
      "name": "name",
      "outputs": [
        {
          "internalType": "string",
          "name": "",
          "type": "string"
        }
      ],
      "stateMutability": "view",
      "type": "function"
    },
    {
      "inputs": [],
      "name": "owner",
      "outputs": [
        {
          "internalType": "address",
          "name": "",
          "type": "address"
        }
      ],
      "stateMutability": "view",
      "type": "function"
    },
    {
      "inputs": [
        {
          "internalType": "uint256",
          "name": "tokenId",
          "type": "uint256"
        }
      ],
      "name": "ownerOf",
      "outputs": [
        {
          "internalType": "address",
          "name": "",
          "type": "address"
        }
      ],
      "stateMutability": "view",
      "type": "function"
    },
    {
      "inputs": [],
      "name": "renounceOwnership",
      "outputs": [],
      "stateMutability": "nonpayable",
      "type": "function"
    },
    {
      "inputs": [
        {
          "internalType": "address",
          "name": "from",
          "type": "address"
        },
        {
          "internalType": "address",
          "name": "to",
          "type": "address"
        },
        {
          "internalType": "uint256",
          "name": "tokenId",
          "type": "uint256"
        }
      ],
      "name": "safeTransferFrom",
      "outputs": [],
      "stateMutability": "nonpayable",
      "type": "function"
    },
    {
      "inputs": [
        {
          "internalType": "address",
          "name": "from",
          "type": "address"
        },
        {
          "internalType": "address",
          "name": "to",
          "type": "address"
        },
        {
          "internalType": "uint256",
          "name": "tokenId",
          "type": "uint256"
        },
        {
          "internalType": "bytes",
          "name": "_data",
          "type": "bytes"
        }
      ],
      "name": "safeTransferFrom",
      "outputs": [],
      "stateMutability": "nonpayable",
      "type": "function"
    },
    {
      "inputs": [
        {
          "internalType": "address",
          "name": "operator",
          "type": "address"
        },
        {
          "internalType": "bool",
          "name": "approved",
          "type": "bool"
        }
      ],
      "name": "setApprovalForAll",
      "outputs": [],
      "stateMutability": "nonpayable",
      "type": "function"
    },
    {
      "inputs": [
        {
          "internalType": "bytes4",
          "name": "interfaceId",
          "type": "bytes4"
        }
      ],
      "name": "supportsInterface",
      "outputs": [
        {
          "internalType": "bool",
          "name": "",
          "type": "bool"
        }
      ],
      "stateMutability": "view",
      "type": "function"
    },
    {
      "inputs": [],
      "name": "symbol",
      "outputs": [
        {
          "internalType": "string",
          "name": "",
          "type": "string"
        }
      ],
      "stateMutability": "view",
      "type": "function"
    },
    {
      "inputs": [
        {
          "internalType": "uint256",
          "name": "index",
          "type": "uint256"
        }
      ],
      "name": "tokenByIndex",
      "outputs": [
        {
          "internalType": "uint256",
          "name": "",
          "type": "uint256"
        }
      ],
      "stateMutability": "view",
      "type": "function"
    },
    {
      "inputs": [
        {
          "internalType": "address",
          "name": "owner",
          "type": "address"
        },
        {
          "internalType": "uint256",
          "name": "index",
          "type": "uint256"
        }
      ],
      "name": "tokenOfOwnerByIndex",
      "outputs": [
        {
          "internalType": "uint256",
          "name": "",
          "type": "uint256"
        }
      ],
      "stateMutability": "view",
      "type": "function"
    },
    {
      "inputs": [
        {
          "internalType": "uint256",
          "name": "tokenId",
          "type": "uint256"
        }
      ],
      "name": "tokenURI",
      "outputs": [
        {
          "internalType": "string",
          "name": "",
          "type": "string"
        }
      ],
      "stateMutability": "view",
      "type": "function"
    },
    {
      "inputs": [],
      "name": "totalSupply",
      "outputs": [
        {
          "internalType": "uint256",
          "name": "",
          "type": "uint256"
        }
      ],
      "stateMutability": "view",
      "type": "function"
    },
    {
      "inputs": [
        {
          "internalType": "address",
          "name": "from",
          "type": "address"
        },
        {
          "internalType": "address",
          "name": "to",
          "type": "address"
        },
        {
          "internalType": "uint256",
          "name": "tokenId",
          "type": "uint256"
        }
      ],
      "name": "transferFrom",
      "outputs": [],
      "stateMutability": "nonpayable",
      "type": "function"
    },
    {
      "inputs": [
        {
          "internalType": "address",
          "name": "newOwner",
          "type": "address"
        }
      ],
      "name": "transferOwnership",
      "outputs": [],
      "stateMutability": "nonpayable",
      "type": "function"
    },
    {
      "inputs": [
        {
          "internalType": "string",
          "name": "baseURI",
          "type": "string"
        }
      ],
      "name": "setBaseURI",
      "outputs": [],
      "stateMutability": "nonpayable",
      "type": "function"
    },
    {
      "inputs": [
        {
          "internalType": "uint256",
          "name": "fee",
          "type": "uint256"
        }
      ],
      "name": "setIdentityFee",
      "outputs": [],
      "stateMutability": "nonpayable",
      "type": "function"
    },
    {
      "inputs": [],
      "name": "getIdentityFee",
      "outputs": [
        {
          "internalType": "uint256",
          "name": "",
          "type": "uint256"
        }
      ],
      "stateMutability": "view",
      "type": "function"
    },
    {
      "inputs": [
        {
          "internalType": "uint256",
          "name": "tokenId",
          "type": "uint256"
        }
      ],
      "name": "getTokenIdentity",
      "outputs": [
        {
          "components": [
            {
              "internalType": "bytes32",
              "name": "uniqueid",
              "type": "bytes32"
            },
            {
              "internalType": "string",
              "name": "name",
              "type": "string"
            },
            {
              "internalType": "string",
              "name": "aka",
              "type": "string"
            },
            {
              "internalType": "string",
              "name": "organization",
              "type": "string"
            },
            {
              "internalType": "string",
              "name": "slogan",
              "type": "string"
            },
            {
              "internalType": "string",
              "name": "description",
              "type": "string"
            },
            {
              "internalType": "string",
              "name": "url",
              "type": "string"
            },
            {
              "internalType": "uint256",
              "name": "created",
              "type": "uint256"
            },
            {
              "internalType": "uint256",
              "name": "lastupdated",
              "type": "uint256"
            },
            {
              "internalType": "bool",
              "name": "valid",
              "type": "bool"
            },
            {
              "internalType": "uint256",
              "name": "validdate",
              "type": "uint256"
            },
            {
              "internalType": "uint256",
              "name": "validationscore",
              "type": "uint256"
            }
          ],
          "internalType": "struct MintIdentity.Identity",
          "name": "ident",
          "type": "tuple"
        }
      ],
      "stateMutability": "view",
      "type": "function"
    },
    {
      "inputs": [
        {
          "internalType": "string",
          "name": "name",
          "type": "string"
        },
        {
          "internalType": "string",
          "name": "aka",
          "type": "string"
        },
        {
          "internalType": "string",
          "name": "org",
          "type": "string"
        },
        {
          "internalType": "string",
          "name": "slogan",
          "type": "string"
        },
        {
          "internalType": "string",
          "name": "description",
          "type": "string"
        },
        {
          "internalType": "string",
          "name": "url",
          "type": "string"
        }
      ],
      "name": "claimIdentity",
      "outputs": [],
      "stateMutability": "payable",
      "type": "function"
    },
    {
      "inputs": [
        {
          "internalType": "uint256",
          "name": "tokenId",
          "type": "uint256"
        },
        {
          "internalType": "string",
          "name": "newName",
          "type": "string"
        }
      ],
      "name": "changeName",
      "outputs": [],
      "stateMutability": "nonpayable",
      "type": "function"
    },
    {
      "inputs": [
        {
          "internalType": "uint256",
          "name": "tokenId",
          "type": "uint256"
        },
        {
          "internalType": "string",
          "name": "newAKA",
          "type": "string"
        }
      ],
      "name": "changeAKA",
      "outputs": [],
      "stateMutability": "nonpayable",
      "type": "function"
    },
    {
      "inputs": [
        {
          "internalType": "uint256",
          "name": "tokenId",
          "type": "uint256"
        },
        {
          "internalType": "string",
          "name": "newSlogan",
          "type": "string"
        }
      ],
      "name": "changeSlogan",
      "outputs": [],
      "stateMutability": "nonpayable",
      "type": "function"
    },
    {
      "inputs": [
        {
          "internalType": "uint256",
          "name": "tokenId",
          "type": "uint256"
        },
        {
          "internalType": "string",
          "name": "newDescription",
          "type": "string"
        }
      ],
      "name": "changeDescription",
      "outputs": [],
      "stateMutability": "nonpayable",
      "type": "function"
    },
    {
      "inputs": [
        {
          "internalType": "uint256",
          "name": "tokenId",
          "type": "uint256"
        },
        {
          "internalType": "string",
          "name": "newURL",
          "type": "string"
        }
      ],
      "name": "changeURL",
      "outputs": [],
      "stateMutability": "nonpayable",
      "type": "function"
    }
  ],
  "bytecode": "0x60806040523480156200001157600080fd5b506040518060400160405280600c81526020017f4d696e744964656e7469747900000000000000000000000000000000000000008152506040518060400160405280600581526020017f4944454e5400000000000000000000000000000000000000000000000000000081525081600090805190602001906200009692919062001152565b508060019080519060200190620000af92919062001152565b505050620000d2620000c66200037160201b60201c565b6200037960201b60201c565b620000fc604051806060016040528060258152602001620062f3602591396200043f60201b60201c565b6200010f6101f4620004ea60201b60201c565b6200023d6040518060400160405280600981526020017f416e64726577204e2e00000000000000000000000000000000000000000000008152506040518060400160405280600881526020017f482d7374726565740000000000000000000000000000000000000000000000008152506040518060400160405280600c81526020017f50617065724d61737465727300000000000000000000000000000000000000008152506040518060400160405280600881526020017f4f68205965616821000000000000000000000000000000000000000000000000815250604051806020016040528060008152506040518060400160405280601681526020017f687474703a2f2f72616d6f6e616a656e6e792e636f6d00000000000000000000815250620004f460201b60201c565b6200036b6040518060400160405280600681526020017f52616d6f6e6100000000000000000000000000000000000000000000000000008152506040518060400160405280600b81526020017f72616d6f6e616a656e6e790000000000000000000000000000000000000000008152506040518060400160405280600c81526020017f50617065724d61737465727300000000000000000000000000000000000000008152506040518060400160405280600f81526020017f416c6c207468696e677320576176650000000000000000000000000000000000815250604051806020016040528060008152506040518060400160405280601681526020017f687474703a2f2f72616d6f6e616a656e6e792e636f6d00000000000000000000815250620004f460201b60201c565b620018f8565b600033905090565b6000600a60009054906101000a900473ffffffffffffffffffffffffffffffffffffffff16905081600a60006101000a81548173ffffffffffffffffffffffffffffffffffffffff021916908373ffffffffffffffffffffffffffffffffffffffff1602179055508173ffffffffffffffffffffffffffffffffffffffff168173ffffffffffffffffffffffffffffffffffffffff167f8be0079c531659141344cd1fd0a4f28419497f9722a3daafe3b4186f6b6457e060405160405180910390a35050565b6200044f6200037160201b60201c565b73ffffffffffffffffffffffffffffffffffffffff1662000475620006e960201b60201c565b73ffffffffffffffffffffffffffffffffffffffff1614620004ce576040517f08c379a0000000000000000000000000000000000000000000000000000000008152600401620004c59062001263565b60405180910390fd5b80600d9080519060200190620004e692919062001152565b5050565b80600e8190555050565b60006200050c8787878787876200071360201b60201c565b9050604051806101800160405280828152602001888152602001878152602001868152602001858152602001848152602001838152602001428152602001428152602001600015158152602001600081526020016000815250600c600062000580600b6200075660201b62001aa21760201c565b8152602001908152602001600020600082015181600001556020820151816001019080519060200190620005b692919062001152565b506040820151816002019080519060200190620005d592919062001152565b506060820151816003019080519060200190620005f492919062001152565b5060808201518160040190805190602001906200061392919062001152565b5060a08201518160050190805190602001906200063292919062001152565b5060c08201518160060190805190602001906200065192919062001152565b5060e0820151816007015561010082015181600801556101208201518160090160006101000a81548160ff02191690831515021790555061014082015181600a015561016082015181600b0155905050620006c933620006bd600b6200075660201b62001aa21760201c565b6200076460201b60201c565b620006e0600b6200078a60201b62001ab01760201c565b50505050505050565b6000600a60009054906101000a900473ffffffffffffffffffffffffffffffffffffffff16905090565b60008686868686864260405160200162000734979695949392919062001337565b6040516020818303038152906040528051906020012090509695505050505050565b600081600001549050919050565b62000786828260405180602001604052806000815250620007a060201b60201c565b5050565b6001816000016000828254019250508190555050565b620007b283836200080e60201b60201c565b620007c76000848484620009f460201b60201c565b62000809576040517f08c379a0000000000000000000000000000000000000000000000000000000008152600401620008009062001424565b60405180910390fd5b505050565b600073ffffffffffffffffffffffffffffffffffffffff168273ffffffffffffffffffffffffffffffffffffffff16141562000881576040517f08c379a0000000000000000000000000000000000000000000000000000000008152600401620008789062001496565b60405180910390fd5b620008928162000b9e60201b60201c565b15620008d5576040517f08c379a0000000000000000000000000000000000000000000000000000000008152600401620008cc9062001508565b60405180910390fd5b620008e96000838362000c0a60201b60201c565b6001600360008473ffffffffffffffffffffffffffffffffffffffff1673ffffffffffffffffffffffffffffffffffffffff16815260200190815260200160002060008282546200093b919062001559565b92505081905550816002600083815260200190815260200160002060006101000a81548173ffffffffffffffffffffffffffffffffffffffff021916908373ffffffffffffffffffffffffffffffffffffffff160217905550808273ffffffffffffffffffffffffffffffffffffffff16600073ffffffffffffffffffffffffffffffffffffffff167fddf252ad1be2c89b69c2b068fc378daa952ba7f163c4a11628f55a4df523b3ef60405160405180910390a45050565b600062000a228473ffffffffffffffffffffffffffffffffffffffff1662000d5160201b62001ac61760201c565b1562000b91578373ffffffffffffffffffffffffffffffffffffffff1663150b7a0262000a546200037160201b60201c565b8786866040518563ffffffff1660e01b815260040162000a7894939291906200167a565b6020604051808303816000875af192505050801562000ab757506040513d601f19601f8201168201806040525081019062000ab4919062001730565b60015b62000b40573d806000811462000aea576040519150601f19603f3d011682016040523d82523d6000602084013e62000aef565b606091505b5060008151141562000b38576040517f08c379a000000000000000000000000000000000000000000000000000000000815260040162000b2f9062001424565b60405180910390fd5b805181602001fd5b63150b7a0260e01b7bffffffffffffffffffffffffffffffffffffffffffffffffffffffff1916817bffffffffffffffffffffffffffffffffffffffffffffffffffffffff19161491505062000b96565b600190505b949350505050565b60008073ffffffffffffffffffffffffffffffffffffffff166002600084815260200190815260200160002060009054906101000a900473ffffffffffffffffffffffffffffffffffffffff1673ffffffffffffffffffffffffffffffffffffffff1614159050919050565b62000c2283838362000d6460201b62001ad91760201c565b600073ffffffffffffffffffffffffffffffffffffffff168373ffffffffffffffffffffffffffffffffffffffff16141562000c6f5762000c698162000d6960201b60201c565b62000cb7565b8173ffffffffffffffffffffffffffffffffffffffff168373ffffffffffffffffffffffffffffffffffffffff161462000cb65762000cb5838262000db260201b60201c565b5b5b600073ffffffffffffffffffffffffffffffffffffffff168273ffffffffffffffffffffffffffffffffffffffff16141562000d045762000cfe8162000f2f60201b60201c565b62000d4c565b8273ffffffffffffffffffffffffffffffffffffffff168273ffffffffffffffffffffffffffffffffffffffff161462000d4b5762000d4a82826200100b60201b60201c565b5b5b505050565b600080823b905060008111915050919050565b505050565b6008805490506009600083815260200190815260200160002081905550600881908060018154018082558091505060019003906000526020600020016000909190919091505550565b6000600162000dcc846200109760201b62000d8c1760201c565b62000dd8919062001762565b905060006007600084815260200190815260200160002054905081811462000ebe576000600660008673ffffffffffffffffffffffffffffffffffffffff1673ffffffffffffffffffffffffffffffffffffffff168152602001908152602001600020600084815260200190815260200160002054905080600660008773ffffffffffffffffffffffffffffffffffffffff1673ffffffffffffffffffffffffffffffffffffffff168152602001908152602001600020600084815260200190815260200160002081905550816007600083815260200190815260200160002081905550505b6007600084815260200190815260200160002060009055600660008573ffffffffffffffffffffffffffffffffffffffff1673ffffffffffffffffffffffffffffffffffffffff16815260200190815260200160002060008381526020019081526020016000206000905550505050565b6000600160088054905062000f45919062001762565b905060006009600084815260200190815260200160002054905060006008838154811062000f785762000f776200179d565b5b90600052602060002001549050806008838154811062000f9d5762000f9c6200179d565b5b90600052602060002001819055508160096000838152602001908152602001600020819055506009600085815260200190815260200160002060009055600880548062000fef5762000fee620017cc565b5b6001900381819060005260206000200160009055905550505050565b600062001023836200109760201b62000d8c1760201c565b905081600660008573ffffffffffffffffffffffffffffffffffffffff1673ffffffffffffffffffffffffffffffffffffffff168152602001908152602001600020600083815260200190815260200160002081905550806007600084815260200190815260200160002081905550505050565b60008073ffffffffffffffffffffffffffffffffffffffff168273ffffffffffffffffffffffffffffffffffffffff1614156200110b576040517f08c379a0000000000000000000000000000000000000000000000000000000008152600401620011029062001871565b60405180910390fd5b600360008373ffffffffffffffffffffffffffffffffffffffff1673ffffffffffffffffffffffffffffffffffffffff168152602001908152602001600020549050919050565b8280546200116090620018c2565b90600052602060002090601f016020900481019282620011845760008555620011d0565b82601f106200119f57805160ff1916838001178555620011d0565b82800160010185558215620011d0579182015b82811115620011cf578251825591602001919060010190620011b2565b5b509050620011df9190620011e3565b5090565b5b80821115620011fe576000816000905550600101620011e4565b5090565b600082825260208201905092915050565b7f4f776e61626c653a2063616c6c6572206973206e6f7420746865206f776e6572600082015250565b60006200124b60208362001202565b9150620012588262001213565b602082019050919050565b600060208201905081810360008301526200127e816200123c565b9050919050565b600081519050919050565b600081905092915050565b60005b83811015620012bb5780820151818401526020810190506200129e565b83811115620012cb576000848401525b50505050565b6000620012de8262001285565b620012ea818562001290565b9350620012fc8185602086016200129b565b80840191505092915050565b6000819050919050565b6000819050919050565b620013316200132b8262001308565b62001312565b82525050565b600062001345828a620012d1565b9150620013538289620012d1565b9150620013618288620012d1565b91506200136f8287620012d1565b91506200137d8286620012d1565b91506200138b8285620012d1565b91506200139982846200131c565b60208201915081905098975050505050505050565b7f4552433732313a207472616e7366657220746f206e6f6e20455243373231526560008201527f63656976657220696d706c656d656e7465720000000000000000000000000000602082015250565b60006200140c60328362001202565b91506200141982620013ae565b604082019050919050565b600060208201905081810360008301526200143f81620013fd565b9050919050565b7f4552433732313a206d696e7420746f20746865207a65726f2061646472657373600082015250565b60006200147e60208362001202565b91506200148b8262001446565b602082019050919050565b60006020820190508181036000830152620014b1816200146f565b9050919050565b7f4552433732313a20746f6b656e20616c7265616479206d696e74656400000000600082015250565b6000620014f0601c8362001202565b9150620014fd82620014b8565b602082019050919050565b600060208201905081810360008301526200152381620014e1565b9050919050565b7f4e487b7100000000000000000000000000000000000000000000000000000000600052601160045260246000fd5b6000620015668262001308565b9150620015738362001308565b9250827fffffffffffffffffffffffffffffffffffffffffffffffffffffffffffffffff03821115620015ab57620015aa6200152a565b5b828201905092915050565b600073ffffffffffffffffffffffffffffffffffffffff82169050919050565b6000620015e382620015b6565b9050919050565b620015f581620015d6565b82525050565b620016068162001308565b82525050565b600081519050919050565b600082825260208201905092915050565b6000601f19601f8301169050919050565b600062001646826200160c565b62001652818562001617565b9350620016648185602086016200129b565b6200166f8162001628565b840191505092915050565b6000608082019050620016916000830187620015ea565b620016a06020830186620015ea565b620016af6040830185620015fb565b8181036060830152620016c3818462001639565b905095945050505050565b600080fd5b60007fffffffff0000000000000000000000000000000000000000000000000000000082169050919050565b6200170a81620016d3565b81146200171657600080fd5b50565b6000815190506200172a81620016ff565b92915050565b600060208284031215620017495762001748620016ce565b5b6000620017598482850162001719565b91505092915050565b60006200176f8262001308565b91506200177c8362001308565b9250828210156200179257620017916200152a565b5b828203905092915050565b7f4e487b7100000000000000000000000000000000000000000000000000000000600052603260045260246000fd5b7f4e487b7100000000000000000000000000000000000000000000000000000000600052603160045260246000fd5b7f4552433732313a2062616c616e636520717565727920666f7220746865207a6560008201527f726f206164647265737300000000000000000000000000000000000000000000602082015250565b600062001859602a8362001202565b91506200186682620017fb565b604082019050919050565b600060208201905081810360008301526200188c816200184a565b9050919050565b7f4e487b7100000000000000000000000000000000000000000000000000000000600052602260045260246000fd5b60006002820490506001821680620018db57607f821691505b60208210811415620018f257620018f162001893565b5b50919050565b6149eb80620019086000396000f3fe6080604052600436106101c25760003560e01c80637272bf7d116100f7578063c39cbef111610095578063e985e9c511610064578063e985e9c514610653578063ec048b7814610690578063f2fde38b146106b9578063f9c1f36f146106e2576101c2565b8063c39cbef1146105a8578063c87b56dd146105d1578063da8b44bf1461060e578063de6a06ed1461062a576101c2565b80638da5cb5b116100d15780638da5cb5b1461050057806395d89b411461052b578063a22cb46514610556578063b88d4fde1461057f576101c2565b80637272bf7d1461046f57806373b286bb146104ac5780638ae23730146104d5576101c2565b806342842e0e116101645780636352211e1161013e5780636352211e146103b557806365bd71f4146103f257806370a082311461041b578063715018a614610458576101c2565b806342842e0e146103265780634f6ccce71461034f57806355f804b31461038c576101c2565b8063095ea7b3116101a0578063095ea7b31461026c57806318160ddd1461029557806323b872dd146102c05780632f745c59146102e9576101c2565b806301ffc9a7146101c757806306fdde0314610204578063081812fc1461022f575b600080fd5b3480156101d357600080fd5b506101ee60048036038101906101e99190613064565b61070b565b6040516101fb91906130ac565b60405180910390f35b34801561021057600080fd5b50610219610785565b6040516102269190613160565b60405180910390f35b34801561023b57600080fd5b50610256600480360381019061025191906131b8565b610817565b6040516102639190613226565b60405180910390f35b34801561027857600080fd5b50610293600480360381019061028e919061326d565b61089c565b005b3480156102a157600080fd5b506102aa6109b4565b6040516102b791906132bc565b60405180910390f35b3480156102cc57600080fd5b506102e760048036038101906102e291906132d7565b6109c1565b005b3480156102f557600080fd5b50610310600480360381019061030b919061326d565b610a21565b60405161031d91906132bc565b60405180910390f35b34801561033257600080fd5b5061034d600480360381019061034891906132d7565b610ac6565b005b34801561035b57600080fd5b50610376600480360381019061037191906131b8565b610ae6565b60405161038391906132bc565b60405180910390f35b34801561039857600080fd5b506103b360048036038101906103ae919061345f565b610b57565b005b3480156103c157600080fd5b506103dc60048036038101906103d791906131b8565b610bed565b6040516103e99190613226565b60405180910390f35b3480156103fe57600080fd5b50610419600480360381019061041491906134a8565b610c9f565b005b34801561042757600080fd5b50610442600480360381019061043d9190613504565b610d8c565b60405161044f91906132bc565b60405180910390f35b34801561046457600080fd5b5061046d610e44565b005b34801561047b57600080fd5b50610496600480360381019061049191906131b8565b610ecc565b6040516104a391906136d9565b60405180910390f35b3480156104b857600080fd5b506104d360048036038101906104ce91906134a8565b6112b3565b005b3480156104e157600080fd5b506104ea6113a0565b6040516104f791906132bc565b60405180910390f35b34801561050c57600080fd5b506105156113aa565b6040516105229190613226565b60405180910390f35b34801561053757600080fd5b506105406113d4565b60405161054d9190613160565b60405180910390f35b34801561056257600080fd5b5061057d60048036038101906105789190613727565b611466565b005b34801561058b57600080fd5b506105a660048036038101906105a19190613808565b61147c565b005b3480156105b457600080fd5b506105cf60048036038101906105ca91906134a8565b6114de565b005b3480156105dd57600080fd5b506105f860048036038101906105f391906131b8565b6115cb565b6040516106059190613160565b60405180910390f35b6106286004803603810190610623919061388b565b611672565b005b34801561063657600080fd5b50610651600480360381019061064c91906134a8565b611732565b005b34801561065f57600080fd5b5061067a600480360381019061067591906139c0565b61181f565b60405161068791906130ac565b60405180910390f35b34801561069c57600080fd5b506106b760048036038101906106b291906134a8565b6118b3565b005b3480156106c557600080fd5b506106e060048036038101906106db9190613504565b6119a0565b005b3480156106ee57600080fd5b50610709600480360381019061070491906131b8565b611a98565b005b60007f780e9d63000000000000000000000000000000000000000000000000000000007bffffffffffffffffffffffffffffffffffffffffffffffffffffffff1916827bffffffffffffffffffffffffffffffffffffffffffffffffffffffff1916148061077e575061077d82611ade565b5b9050919050565b60606000805461079490613a2f565b80601f01602080910402602001604051908101604052809291908181526020018280546107c090613a2f565b801561080d5780601f106107e25761010080835404028352916020019161080d565b820191906000526020600020905b8154815290600101906020018083116107f057829003601f168201915b5050505050905090565b600061082282611bc0565b610861576040517f08c379a000000000000000000000000000000000000000000000000000000000815260040161085890613ad3565b60405180910390fd5b6004600083815260200190815260200160002060009054906101000a900473ffffffffffffffffffffffffffffffffffffffff169050919050565b60006108a782610bed565b90508073ffffffffffffffffffffffffffffffffffffffff168373ffffffffffffffffffffffffffffffffffffffff161415610918576040517f08c379a000000000000000000000000000000000000000000000000000000000815260040161090f90613b65565b60405180910390fd5b8073ffffffffffffffffffffffffffffffffffffffff16610937611c2c565b73ffffffffffffffffffffffffffffffffffffffff161480610966575061096581610960611c2c565b61181f565b5b6109a5576040517f08c379a000000000000000000000000000000000000000000000000000000000815260040161099c90613bf7565b60405180910390fd5b6109af8383611c34565b505050565b6000600880549050905090565b6109d26109cc611c2c565b82611ced565b610a11576040517f08c379a0000000000000000000000000000000000000000000000000000000008152600401610a0890613c89565b60405180910390fd5b610a1c838383611dcb565b505050565b6000610a2c83610d8c565b8210610a6d576040517f08c379a0000000000000000000000000000000000000000000000000000000008152600401610a6490613d1b565b60405180910390fd5b600660008473ffffffffffffffffffffffffffffffffffffffff1673ffffffffffffffffffffffffffffffffffffffff168152602001908152602001600020600083815260200190815260200160002054905092915050565b610ae18383836040518060200160405280600081525061147c565b505050565b6000610af06109b4565b8210610b31576040517f08c379a0000000000000000000000000000000000000000000000000000000008152600401610b2890613dad565b60405180910390fd5b60088281548110610b4557610b44613dcd565b5b90600052602060002001549050919050565b610b5f611c2c565b73ffffffffffffffffffffffffffffffffffffffff16610b7d6113aa565b73ffffffffffffffffffffffffffffffffffffffff1614610bd3576040517f08c379a0000000000000000000000000000000000000000000000000000000008152600401610bca90613e48565b60405180910390fd5b80600d9080519060200190610be9929190612eef565b5050565b6000806002600084815260200190815260200160002060009054906101000a900473ffffffffffffffffffffffffffffffffffffffff169050600073ffffffffffffffffffffffffffffffffffffffff168173ffffffffffffffffffffffffffffffffffffffff161415610c96576040517f08c379a0000000000000000000000000000000000000000000000000000000008152600401610c8d90613eda565b60405180910390fd5b80915050919050565b610ca882611bc0565b610ce7576040517f08c379a0000000000000000000000000000000000000000000000000000000008152600401610cde90613f46565b60405180910390fd5b3373ffffffffffffffffffffffffffffffffffffffff16610d0783610bed565b73ffffffffffffffffffffffffffffffffffffffff1614610d5d576040517f08c379a0000000000000000000000000000000000000000000000000000000008152600401610d5490613fd8565b60405180910390fd5b80600c60008481526020019081526020016000206002019080519060200190610d87929190612eef565b505050565b60008073ffffffffffffffffffffffffffffffffffffffff168273ffffffffffffffffffffffffffffffffffffffff161415610dfd576040517f08c379a0000000000000000000000000000000000000000000000000000000008152600401610df49061406a565b60405180910390fd5b600360008373ffffffffffffffffffffffffffffffffffffffff1673ffffffffffffffffffffffffffffffffffffffff168152602001908152602001600020549050919050565b610e4c611c2c565b73ffffffffffffffffffffffffffffffffffffffff16610e6a6113aa565b73ffffffffffffffffffffffffffffffffffffffff1614610ec0576040517f08c379a0000000000000000000000000000000000000000000000000000000008152600401610eb790613e48565b60405180910390fd5b610eca6000612027565b565b610ed4612f75565b600c60008381526020019081526020016000206040518061018001604052908160008201548152602001600182018054610f0d90613a2f565b80601f0160208091040260200160405190810160405280929190818152602001828054610f3990613a2f565b8015610f865780601f10610f5b57610100808354040283529160200191610f86565b820191906000526020600020905b815481529060010190602001808311610f6957829003601f168201915b50505050508152602001600282018054610f9f90613a2f565b80601f0160208091040260200160405190810160405280929190818152602001828054610fcb90613a2f565b80156110185780601f10610fed57610100808354040283529160200191611018565b820191906000526020600020905b815481529060010190602001808311610ffb57829003601f168201915b5050505050815260200160038201805461103190613a2f565b80601f016020809104026020016040519081016040528092919081815260200182805461105d90613a2f565b80156110aa5780601f1061107f576101008083540402835291602001916110aa565b820191906000526020600020905b81548152906001019060200180831161108d57829003601f168201915b505050505081526020016004820180546110c390613a2f565b80601f01602080910402602001604051908101604052809291908181526020018280546110ef90613a2f565b801561113c5780601f106111115761010080835404028352916020019161113c565b820191906000526020600020905b81548152906001019060200180831161111f57829003601f168201915b5050505050815260200160058201805461115590613a2f565b80601f016020809104026020016040519081016040528092919081815260200182805461118190613a2f565b80156111ce5780601f106111a3576101008083540402835291602001916111ce565b820191906000526020600020905b8154815290600101906020018083116111b157829003601f168201915b505050505081526020016006820180546111e790613a2f565b80601f016020809104026020016040519081016040528092919081815260200182805461121390613a2f565b80156112605780601f1061123557610100808354040283529160200191611260565b820191906000526020600020905b81548152906001019060200180831161124357829003601f168201915b5050505050815260200160078201548152602001600882015481526020016009820160009054906101000a900460ff16151515158152602001600a8201548152602001600b820154815250509050919050565b6112bc82611bc0565b6112fb576040517f08c379a00000000000000000000000000000000000000000000000000000000081526004016112f290613f46565b60405180910390fd5b3373ffffffffffffffffffffffffffffffffffffffff1661131b83610bed565b73ffffffffffffffffffffffffffffffffffffffff1614611371576040517f08c379a000000000000000000000000000000000000000000000000000000000815260040161136890613fd8565b60405180910390fd5b80600c6000848152602001908152602001600020600601908051906020019061139b929190612eef565b505050565b6000600e54905090565b6000600a60009054906101000a900473ffffffffffffffffffffffffffffffffffffffff16905090565b6060600180546113e390613a2f565b80601f016020809104026020016040519081016040528092919081815260200182805461140f90613a2f565b801561145c5780601f106114315761010080835404028352916020019161145c565b820191906000526020600020905b81548152906001019060200180831161143f57829003601f168201915b5050505050905090565b611478611471611c2c565b83836120ed565b5050565b61148d611487611c2c565b83611ced565b6114cc576040517f08c379a00000000000000000000000000000000000000000000000000000000081526004016114c390613c89565b60405180910390fd5b6114d88484848461225a565b50505050565b6114e782611bc0565b611526576040517f08c379a000000000000000000000000000000000000000000000000000000000815260040161151d90613f46565b60405180910390fd5b3373ffffffffffffffffffffffffffffffffffffffff1661154683610bed565b73ffffffffffffffffffffffffffffffffffffffff161461159c576040517f08c379a000000000000000000000000000000000000000000000000000000000815260040161159390613fd8565b60405180910390fd5b80600c600084815260200190815260200160002060010190805190602001906115c6929190612eef565b505050565b60606115d682611bc0565b611615576040517f08c379a000000000000000000000000000000000000000000000000000000000815260040161160c906140fc565b60405180910390fd5b600061161f6122b6565b9050600081511161163f576040518060200160405280600081525061166a565b8061164984612348565b60405160200161165a929190614158565b6040516020818303038152906040525b915050919050565b600066038d7ea4c68000600e5461168991906141ab565b90508034146116cd576040517f08c379a00000000000000000000000000000000000000000000000000000000081526004016116c490614277565b60405180910390fd5b6116db8787878787876124a9565b6116e36113aa565b73ffffffffffffffffffffffffffffffffffffffff166108fc829081150290604051600060405180830381858888f19350505050158015611728573d6000803e3d6000fd5b5050505050505050565b61173b82611bc0565b61177a576040517f08c379a000000000000000000000000000000000000000000000000000000000815260040161177190613f46565b60405180910390fd5b3373ffffffffffffffffffffffffffffffffffffffff1661179a83610bed565b73ffffffffffffffffffffffffffffffffffffffff16146117f0576040517f08c379a00000000000000000000000000000000000000000000000000000000081526004016117e790613fd8565b60405180910390fd5b80600c6000848152602001908152602001600020600501908051906020019061181a929190612eef565b505050565b6000600560008473ffffffffffffffffffffffffffffffffffffffff1673ffffffffffffffffffffffffffffffffffffffff16815260200190815260200160002060008373ffffffffffffffffffffffffffffffffffffffff1673ffffffffffffffffffffffffffffffffffffffff16815260200190815260200160002060009054906101000a900460ff16905092915050565b6118bc82611bc0565b6118fb576040517f08c379a00000000000000000000000000000000000000000000000000000000081526004016118f290613f46565b60405180910390fd5b3373ffffffffffffffffffffffffffffffffffffffff1661191b83610bed565b73ffffffffffffffffffffffffffffffffffffffff1614611971576040517f08c379a000000000000000000000000000000000000000000000000000000000815260040161196890613fd8565b60405180910390fd5b80600c6000848152602001908152602001600020600401908051906020019061199b929190612eef565b505050565b6119a8611c2c565b73ffffffffffffffffffffffffffffffffffffffff166119c66113aa565b73ffffffffffffffffffffffffffffffffffffffff1614611a1c576040517f08c379a0000000000000000000000000000000000000000000000000000000008152600401611a1390613e48565b60405180910390fd5b600073ffffffffffffffffffffffffffffffffffffffff168173ffffffffffffffffffffffffffffffffffffffff161415611a8c576040517f08c379a0000000000000000000000000000000000000000000000000000000008152600401611a8390614309565b60405180910390fd5b611a9581612027565b50565b80600e8190555050565b600081600001549050919050565b6001816000016000828254019250508190555050565b600080823b905060008111915050919050565b505050565b60007f80ac58cd000000000000000000000000000000000000000000000000000000007bffffffffffffffffffffffffffffffffffffffffffffffffffffffff1916827bffffffffffffffffffffffffffffffffffffffffffffffffffffffff19161480611ba957507f5b5e139f000000000000000000000000000000000000000000000000000000007bffffffffffffffffffffffffffffffffffffffffffffffffffffffff1916827bffffffffffffffffffffffffffffffffffffffffffffffffffffffff1916145b80611bb95750611bb88261265b565b5b9050919050565b60008073ffffffffffffffffffffffffffffffffffffffff166002600084815260200190815260200160002060009054906101000a900473ffffffffffffffffffffffffffffffffffffffff1673ffffffffffffffffffffffffffffffffffffffff1614159050919050565b600033905090565b816004600083815260200190815260200160002060006101000a81548173ffffffffffffffffffffffffffffffffffffffff021916908373ffffffffffffffffffffffffffffffffffffffff160217905550808273ffffffffffffffffffffffffffffffffffffffff16611ca783610bed565b73ffffffffffffffffffffffffffffffffffffffff167f8c5be1e5ebec7d5bd14f71427d1e84f3dd0314c0f7b2291e5b200ac8c7c3b92560405160405180910390a45050565b6000611cf882611bc0565b611d37576040517f08c379a0000000000000000000000000000000000000000000000000000000008152600401611d2e9061439b565b60405180910390fd5b6000611d4283610bed565b90508073ffffffffffffffffffffffffffffffffffffffff168473ffffffffffffffffffffffffffffffffffffffff161480611db157508373ffffffffffffffffffffffffffffffffffffffff16611d9984610817565b73ffffffffffffffffffffffffffffffffffffffff16145b80611dc25750611dc1818561181f565b5b91505092915050565b8273ffffffffffffffffffffffffffffffffffffffff16611deb82610bed565b73ffffffffffffffffffffffffffffffffffffffff1614611e41576040517f08c379a0000000000000000000000000000000000000000000000000000000008152600401611e389061442d565b60405180910390fd5b600073ffffffffffffffffffffffffffffffffffffffff168273ffffffffffffffffffffffffffffffffffffffff161415611eb1576040517f08c379a0000000000000000000000000000000000000000000000000000000008152600401611ea8906144bf565b60405180910390fd5b611ebc8383836126c5565b611ec7600082611c34565b6001600360008573ffffffffffffffffffffffffffffffffffffffff1673ffffffffffffffffffffffffffffffffffffffff1681526020019081526020016000206000828254611f1791906144df565b925050819055506001600360008473ffffffffffffffffffffffffffffffffffffffff1673ffffffffffffffffffffffffffffffffffffffff1681526020019081526020016000206000828254611f6e9190614513565b92505081905550816002600083815260200190815260200160002060006101000a81548173ffffffffffffffffffffffffffffffffffffffff021916908373ffffffffffffffffffffffffffffffffffffffff160217905550808273ffffffffffffffffffffffffffffffffffffffff168473ffffffffffffffffffffffffffffffffffffffff167fddf252ad1be2c89b69c2b068fc378daa952ba7f163c4a11628f55a4df523b3ef60405160405180910390a4505050565b6000600a60009054906101000a900473ffffffffffffffffffffffffffffffffffffffff16905081600a60006101000a81548173ffffffffffffffffffffffffffffffffffffffff021916908373ffffffffffffffffffffffffffffffffffffffff1602179055508173ffffffffffffffffffffffffffffffffffffffff168173ffffffffffffffffffffffffffffffffffffffff167f8be0079c531659141344cd1fd0a4f28419497f9722a3daafe3b4186f6b6457e060405160405180910390a35050565b8173ffffffffffffffffffffffffffffffffffffffff168373ffffffffffffffffffffffffffffffffffffffff16141561215c576040517f08c379a0000000000000000000000000000000000000000000000000000000008152600401612153906145b5565b60405180910390fd5b80600560008573ffffffffffffffffffffffffffffffffffffffff1673ffffffffffffffffffffffffffffffffffffffff16815260200190815260200160002060008473ffffffffffffffffffffffffffffffffffffffff1673ffffffffffffffffffffffffffffffffffffffff16815260200190815260200160002060006101000a81548160ff0219169083151502179055508173ffffffffffffffffffffffffffffffffffffffff168373ffffffffffffffffffffffffffffffffffffffff167f17307eab39ab6107e8899845ad3d59bd9653f200f220920489ca2b5937696c318360405161224d91906130ac565b60405180910390a3505050565b612265848484611dcb565b612271848484846127d9565b6122b0576040517f08c379a00000000000000000000000000000000000000000000000000000000081526004016122a790614647565b60405180910390fd5b50505050565b6060600d80546122c590613a2f565b80601f01602080910402602001604051908101604052809291908181526020018280546122f190613a2f565b801561233e5780601f106123135761010080835404028352916020019161233e565b820191906000526020600020905b81548152906001019060200180831161232157829003601f168201915b5050505050905090565b60606000821415612390576040518060400160405280600181526020017f300000000000000000000000000000000000000000000000000000000000000081525090506124a4565b600082905060005b600082146123c25780806123ab90614667565b915050600a826123bb91906146df565b9150612398565b60008167ffffffffffffffff8111156123de576123dd613334565b5b6040519080825280601f01601f1916602001820160405280156124105781602001600182028036833780820191505090505b5090505b6000851461249d5760018261242991906144df565b9150600a856124389190614710565b60306124449190614513565b60f81b81838151811061245a57612459613dcd565b5b60200101907effffffffffffffffffffffffffffffffffffffffffffffffffffffffffffff1916908160001a905350600a8561249691906146df565b9450612414565b8093505050505b919050565b60006124b9878787878787612961565b9050604051806101800160405280828152602001888152602001878152602001868152602001858152602001848152602001838152602001428152602001428152602001600015158152602001600081526020016000815250600c6000612520600b611aa2565b8152602001908152602001600020600082015181600001556020820151816001019080519060200190612554929190612eef565b506040820151816002019080519060200190612571929190612eef565b50606082015181600301908051906020019061258e929190612eef565b5060808201518160040190805190602001906125ab929190612eef565b5060a08201518160050190805190602001906125c8929190612eef565b5060c08201518160060190805190602001906125e5929190612eef565b5060e0820151816007015561010082015181600801556101208201518160090160006101000a81548160ff02191690831515021790555061014082015181600a015561016082015181600b015590505061264833612643600b611aa2565b6129a2565b612652600b611ab0565b50505050505050565b60007f01ffc9a7000000000000000000000000000000000000000000000000000000007bffffffffffffffffffffffffffffffffffffffffffffffffffffffff1916827bffffffffffffffffffffffffffffffffffffffffffffffffffffffff1916149050919050565b6126d0838383611ad9565b600073ffffffffffffffffffffffffffffffffffffffff168373ffffffffffffffffffffffffffffffffffffffff1614156127135761270e816129c0565b612752565b8173ffffffffffffffffffffffffffffffffffffffff168373ffffffffffffffffffffffffffffffffffffffff1614612751576127508382612a09565b5b5b600073ffffffffffffffffffffffffffffffffffffffff168273ffffffffffffffffffffffffffffffffffffffff1614156127955761279081612b76565b6127d4565b8273ffffffffffffffffffffffffffffffffffffffff168273ffffffffffffffffffffffffffffffffffffffff16146127d3576127d28282612c47565b5b5b505050565b60006127fa8473ffffffffffffffffffffffffffffffffffffffff16611ac6565b15612954578373ffffffffffffffffffffffffffffffffffffffff1663150b7a02612823611c2c565b8786866040518563ffffffff1660e01b81526004016128459493929190614796565b6020604051808303816000875af192505050801561288157506040513d601f19601f8201168201806040525081019061287e91906147f7565b60015b612904573d80600081146128b1576040519150601f19603f3d011682016040523d82523d6000602084013e6128b6565b606091505b506000815114156128fc576040517f08c379a00000000000000000000000000000000000000000000000000000000081526004016128f390614647565b60405180910390fd5b805181602001fd5b63150b7a0260e01b7bffffffffffffffffffffffffffffffffffffffffffffffffffffffff1916817bffffffffffffffffffffffffffffffffffffffffffffffffffffffff191614915050612959565b600190505b949350505050565b6000868686868686426040516020016129809796959493929190614845565b6040516020818303038152906040528051906020012090509695505050505050565b6129bc828260405180602001604052806000815250612cc6565b5050565b6008805490506009600083815260200190815260200160002081905550600881908060018154018082558091505060019003906000526020600020016000909190919091505550565b60006001612a1684610d8c565b612a2091906144df565b9050600060076000848152602001908152602001600020549050818114612b05576000600660008673ffffffffffffffffffffffffffffffffffffffff1673ffffffffffffffffffffffffffffffffffffffff168152602001908152602001600020600084815260200190815260200160002054905080600660008773ffffffffffffffffffffffffffffffffffffffff1673ffffffffffffffffffffffffffffffffffffffff168152602001908152602001600020600084815260200190815260200160002081905550816007600083815260200190815260200160002081905550505b6007600084815260200190815260200160002060009055600660008573ffffffffffffffffffffffffffffffffffffffff1673ffffffffffffffffffffffffffffffffffffffff16815260200190815260200160002060008381526020019081526020016000206000905550505050565b60006001600880549050612b8a91906144df565b9050600060096000848152602001908152602001600020549050600060088381548110612bba57612bb9613dcd565b5b906000526020600020015490508060088381548110612bdc57612bdb613dcd565b5b906000526020600020018190555081600960008381526020019081526020016000208190555060096000858152602001908152602001600020600090556008805480612c2b57612c2a6148ae565b5b6001900381819060005260206000200160009055905550505050565b6000612c5283610d8c565b905081600660008573ffffffffffffffffffffffffffffffffffffffff1673ffffffffffffffffffffffffffffffffffffffff168152602001908152602001600020600083815260200190815260200160002081905550806007600084815260200190815260200160002081905550505050565b612cd08383612d21565b612cdd60008484846127d9565b612d1c576040517f08c379a0000000000000000000000000000000000000000000000000000000008152600401612d1390614647565b60405180910390fd5b505050565b600073ffffffffffffffffffffffffffffffffffffffff168273ffffffffffffffffffffffffffffffffffffffff161415612d91576040517f08c379a0000000000000000000000000000000000000000000000000000000008152600401612d8890614929565b60405180910390fd5b612d9a81611bc0565b15612dda576040517f08c379a0000000000000000000000000000000000000000000000000000000008152600401612dd190614995565b60405180910390fd5b612de6600083836126c5565b6001600360008473ffffffffffffffffffffffffffffffffffffffff1673ffffffffffffffffffffffffffffffffffffffff1681526020019081526020016000206000828254612e369190614513565b92505081905550816002600083815260200190815260200160002060006101000a81548173ffffffffffffffffffffffffffffffffffffffff021916908373ffffffffffffffffffffffffffffffffffffffff160217905550808273ffffffffffffffffffffffffffffffffffffffff16600073ffffffffffffffffffffffffffffffffffffffff167fddf252ad1be2c89b69c2b068fc378daa952ba7f163c4a11628f55a4df523b3ef60405160405180910390a45050565b828054612efb90613a2f565b90600052602060002090601f016020900481019282612f1d5760008555612f64565b82601f10612f3657805160ff1916838001178555612f64565b82800160010185558215612f64579182015b82811115612f63578251825591602001919060010190612f48565b5b509050612f719190612fdb565b5090565b60405180610180016040528060008019168152602001606081526020016060815260200160608152602001606081526020016060815260200160608152602001600081526020016000815260200160001515815260200160008152602001600081525090565b5b80821115612ff4576000816000905550600101612fdc565b5090565b6000604051905090565b600080fd5b600080fd5b60007fffffffff0000000000000000000000000000000000000000000000000000000082169050919050565b6130418161300c565b811461304c57600080fd5b50565b60008135905061305e81613038565b92915050565b60006020828403121561307a57613079613002565b5b60006130888482850161304f565b91505092915050565b60008115159050919050565b6130a681613091565b82525050565b60006020820190506130c1600083018461309d565b92915050565b600081519050919050565b600082825260208201905092915050565b60005b838110156131015780820151818401526020810190506130e6565b83811115613110576000848401525b50505050565b6000601f19601f8301169050919050565b6000613132826130c7565b61313c81856130d2565b935061314c8185602086016130e3565b61315581613116565b840191505092915050565b6000602082019050818103600083015261317a8184613127565b905092915050565b6000819050919050565b61319581613182565b81146131a057600080fd5b50565b6000813590506131b28161318c565b92915050565b6000602082840312156131ce576131cd613002565b5b60006131dc848285016131a3565b91505092915050565b600073ffffffffffffffffffffffffffffffffffffffff82169050919050565b6000613210826131e5565b9050919050565b61322081613205565b82525050565b600060208201905061323b6000830184613217565b92915050565b61324a81613205565b811461325557600080fd5b50565b60008135905061326781613241565b92915050565b6000806040838503121561328457613283613002565b5b600061329285828601613258565b92505060206132a3858286016131a3565b9150509250929050565b6132b681613182565b82525050565b60006020820190506132d160008301846132ad565b92915050565b6000806000606084860312156132f0576132ef613002565b5b60006132fe86828701613258565b935050602061330f86828701613258565b9250506040613320868287016131a3565b9150509250925092565b600080fd5b600080fd5b7f4e487b7100000000000000000000000000000000000000000000000000000000600052604160045260246000fd5b61336c82613116565b810181811067ffffffffffffffff8211171561338b5761338a613334565b5b80604052505050565b600061339e612ff8565b90506133aa8282613363565b919050565b600067ffffffffffffffff8211156133ca576133c9613334565b5b6133d382613116565b9050602081019050919050565b82818337600083830152505050565b60006134026133fd846133af565b613394565b90508281526020810184848401111561341e5761341d61332f565b5b6134298482856133e0565b509392505050565b600082601f8301126134465761344561332a565b5b81356134568482602086016133ef565b91505092915050565b60006020828403121561347557613474613002565b5b600082013567ffffffffffffffff81111561349357613492613007565b5b61349f84828501613431565b91505092915050565b600080604083850312156134bf576134be613002565b5b60006134cd858286016131a3565b925050602083013567ffffffffffffffff8111156134ee576134ed613007565b5b6134fa85828601613431565b9150509250929050565b60006020828403121561351a57613519613002565b5b600061352884828501613258565b91505092915050565b6000819050919050565b61354481613531565b82525050565b600082825260208201905092915050565b6000613566826130c7565b613570818561354a565b93506135808185602086016130e3565b61358981613116565b840191505092915050565b61359d81613182565b82525050565b6135ac81613091565b82525050565b6000610180830160008301516135cb600086018261353b565b50602083015184820360208601526135e3828261355b565b915050604083015184820360408601526135fd828261355b565b91505060608301518482036060860152613617828261355b565b91505060808301518482036080860152613631828261355b565b91505060a083015184820360a086015261364b828261355b565b91505060c083015184820360c0860152613665828261355b565b91505060e083015161367a60e0860182613594565b5061010083015161368f610100860182613594565b506101208301516136a46101208601826135a3565b506101408301516136b9610140860182613594565b506101608301516136ce610160860182613594565b508091505092915050565b600060208201905081810360008301526136f381846135b2565b905092915050565b61370481613091565b811461370f57600080fd5b50565b600081359050613721816136fb565b92915050565b6000806040838503121561373e5761373d613002565b5b600061374c85828601613258565b925050602061375d85828601613712565b9150509250929050565b600067ffffffffffffffff82111561378257613781613334565b5b61378b82613116565b9050602081019050919050565b60006137ab6137a684613767565b613394565b9050828152602081018484840111156137c7576137c661332f565b5b6137d28482856133e0565b509392505050565b600082601f8301126137ef576137ee61332a565b5b81356137ff848260208601613798565b91505092915050565b6000806000806080858703121561382257613821613002565b5b600061383087828801613258565b945050602061384187828801613258565b9350506040613852878288016131a3565b925050606085013567ffffffffffffffff81111561387357613872613007565b5b61387f878288016137da565b91505092959194509250565b60008060008060008060c087890312156138a8576138a7613002565b5b600087013567ffffffffffffffff8111156138c6576138c5613007565b5b6138d289828a01613431565b965050602087013567ffffffffffffffff8111156138f3576138f2613007565b5b6138ff89828a01613431565b955050604087013567ffffffffffffffff8111156139205761391f613007565b5b61392c89828a01613431565b945050606087013567ffffffffffffffff81111561394d5761394c613007565b5b61395989828a01613431565b935050608087013567ffffffffffffffff81111561397a57613979613007565b5b61398689828a01613431565b92505060a087013567ffffffffffffffff8111156139a7576139a6613007565b5b6139b389828a01613431565b9150509295509295509295565b600080604083850312156139d7576139d6613002565b5b60006139e585828601613258565b92505060206139f685828601613258565b9150509250929050565b7f4e487b7100000000000000000000000000000000000000000000000000000000600052602260045260246000fd5b60006002820490506001821680613a4757607f821691505b60208210811415613a5b57613a5a613a00565b5b50919050565b7f4552433732313a20617070726f76656420717565727920666f72206e6f6e657860008201527f697374656e7420746f6b656e0000000000000000000000000000000000000000602082015250565b6000613abd602c836130d2565b9150613ac882613a61565b604082019050919050565b60006020820190508181036000830152613aec81613ab0565b9050919050565b7f4552433732313a20617070726f76616c20746f2063757272656e74206f776e6560008201527f7200000000000000000000000000000000000000000000000000000000000000602082015250565b6000613b4f6021836130d2565b9150613b5a82613af3565b604082019050919050565b60006020820190508181036000830152613b7e81613b42565b9050919050565b7f4552433732313a20617070726f76652063616c6c6572206973206e6f74206f7760008201527f6e6572206e6f7220617070726f76656420666f7220616c6c0000000000000000602082015250565b6000613be16038836130d2565b9150613bec82613b85565b604082019050919050565b60006020820190508181036000830152613c1081613bd4565b9050919050565b7f4552433732313a207472616e736665722063616c6c6572206973206e6f74206f60008201527f776e6572206e6f7220617070726f766564000000000000000000000000000000602082015250565b6000613c736031836130d2565b9150613c7e82613c17565b604082019050919050565b60006020820190508181036000830152613ca281613c66565b9050919050565b7f455243373231456e756d657261626c653a206f776e657220696e646578206f7560008201527f74206f6620626f756e6473000000000000000000000000000000000000000000602082015250565b6000613d05602b836130d2565b9150613d1082613ca9565b604082019050919050565b60006020820190508181036000830152613d3481613cf8565b9050919050565b7f455243373231456e756d657261626c653a20676c6f62616c20696e646578206f60008201527f7574206f6620626f756e64730000000000000000000000000000000000000000602082015250565b6000613d97602c836130d2565b9150613da282613d3b565b604082019050919050565b60006020820190508181036000830152613dc681613d8a565b9050919050565b7f4e487b7100000000000000000000000000000000000000000000000000000000600052603260045260246000fd5b7f4f776e61626c653a2063616c6c6572206973206e6f7420746865206f776e6572600082015250565b6000613e326020836130d2565b9150613e3d82613dfc565b602082019050919050565b60006020820190508181036000830152613e6181613e25565b9050919050565b7f4552433732313a206f776e657220717565727920666f72206e6f6e657869737460008201527f656e7420746f6b656e0000000000000000000000000000000000000000000000602082015250565b6000613ec46029836130d2565b9150613ecf82613e68565b604082019050919050565b60006020820190508181036000830152613ef381613eb7565b9050919050565b7f746f6b656e206e6f74206d696e74656400000000000000000000000000000000600082015250565b6000613f306010836130d2565b9150613f3b82613efa565b602082019050919050565b60006020820190508181036000830152613f5f81613f23565b9050919050565b7f6f6e6c7920746865206f776e6572206f66207468697320756e6971756520494460008201527f2063616e206368616e676520697473207469746c650000000000000000000000602082015250565b6000613fc26035836130d2565b9150613fcd82613f66565b604082019050919050565b60006020820190508181036000830152613ff181613fb5565b9050919050565b7f4552433732313a2062616c616e636520717565727920666f7220746865207a6560008201527f726f206164647265737300000000000000000000000000000000000000000000602082015250565b6000614054602a836130d2565b915061405f82613ff8565b604082019050919050565b6000602082019050818103600083015261408381614047565b9050919050565b7f4552433732314d657461646174613a2055524920717565727920666f72206e6f60008201527f6e6578697374656e7420746f6b656e0000000000000000000000000000000000602082015250565b60006140e6602f836130d2565b91506140f18261408a565b604082019050919050565b60006020820190508181036000830152614115816140d9565b9050919050565b600081905092915050565b6000614132826130c7565b61413c818561411c565b935061414c8185602086016130e3565b80840191505092915050565b60006141648285614127565b91506141708284614127565b91508190509392505050565b7f4e487b7100000000000000000000000000000000000000000000000000000000600052601160045260246000fd5b60006141b682613182565b91506141c183613182565b9250817fffffffffffffffffffffffffffffffffffffffffffffffffffffffffffffffff04831182151516156141fa576141f961417c565b5b828202905092915050565b7f636c61696d696e6720616e206964656e7469747920636f7374732066696e6e6560008201527f7900000000000000000000000000000000000000000000000000000000000000602082015250565b60006142616021836130d2565b915061426c82614205565b604082019050919050565b6000602082019050818103600083015261429081614254565b9050919050565b7f4f776e61626c653a206e6577206f776e657220697320746865207a65726f206160008201527f6464726573730000000000000000000000000000000000000000000000000000602082015250565b60006142f36026836130d2565b91506142fe82614297565b604082019050919050565b60006020820190508181036000830152614322816142e6565b9050919050565b7f4552433732313a206f70657261746f7220717565727920666f72206e6f6e657860008201527f697374656e7420746f6b656e0000000000000000000000000000000000000000602082015250565b6000614385602c836130d2565b915061439082614329565b604082019050919050565b600060208201905081810360008301526143b481614378565b9050919050565b7f4552433732313a207472616e73666572206f6620746f6b656e2074686174206960008201527f73206e6f74206f776e0000000000000000000000000000000000000000000000602082015250565b60006144176029836130d2565b9150614422826143bb565b604082019050919050565b600060208201905081810360008301526144468161440a565b9050919050565b7f4552433732313a207472616e7366657220746f20746865207a65726f2061646460008201527f7265737300000000000000000000000000000000000000000000000000000000602082015250565b60006144a96024836130d2565b91506144b48261444d565b604082019050919050565b600060208201905081810360008301526144d88161449c565b9050919050565b60006144ea82613182565b91506144f583613182565b9250828210156145085761450761417c565b5b828203905092915050565b600061451e82613182565b915061452983613182565b9250827fffffffffffffffffffffffffffffffffffffffffffffffffffffffffffffffff0382111561455e5761455d61417c565b5b828201905092915050565b7f4552433732313a20617070726f766520746f2063616c6c657200000000000000600082015250565b600061459f6019836130d2565b91506145aa82614569565b602082019050919050565b600060208201905081810360008301526145ce81614592565b9050919050565b7f4552433732313a207472616e7366657220746f206e6f6e20455243373231526560008201527f63656976657220696d706c656d656e7465720000000000000000000000000000602082015250565b60006146316032836130d2565b915061463c826145d5565b604082019050919050565b6000602082019050818103600083015261466081614624565b9050919050565b600061467282613182565b91507fffffffffffffffffffffffffffffffffffffffffffffffffffffffffffffffff8214156146a5576146a461417c565b5b600182019050919050565b7f4e487b7100000000000000000000000000000000000000000000000000000000600052601260045260246000fd5b60006146ea82613182565b91506146f583613182565b925082614705576147046146b0565b5b828204905092915050565b600061471b82613182565b915061472683613182565b925082614736576147356146b0565b5b828206905092915050565b600081519050919050565b600082825260208201905092915050565b600061476882614741565b614772818561474c565b93506147828185602086016130e3565b61478b81613116565b840191505092915050565b60006080820190506147ab6000830187613217565b6147b86020830186613217565b6147c560408301856132ad565b81810360608301526147d7818461475d565b905095945050505050565b6000815190506147f181613038565b92915050565b60006020828403121561480d5761480c613002565b5b600061481b848285016147e2565b91505092915050565b6000819050919050565b61483f61483a82613182565b614824565b82525050565b6000614851828a614127565b915061485d8289614127565b91506148698288614127565b91506148758287614127565b91506148818286614127565b915061488d8285614127565b9150614899828461482e565b60208201915081905098975050505050505050565b7f4e487b7100000000000000000000000000000000000000000000000000000000600052603160045260246000fd5b7f4552433732313a206d696e7420746f20746865207a65726f2061646472657373600082015250565b60006149136020836130d2565b915061491e826148dd565b602082019050919050565b6000602082019050818103600083015261494281614906565b9050919050565b7f4552433732313a20746f6b656e20616c7265616479206d696e74656400000000600082015250565b600061497f601c836130d2565b915061498a82614949565b602082019050919050565b600060208201905081810360008301526149ae81614972565b905091905056fea26469706673582212207a149a3fa6eabc473261092bb65ff17ece825fa9e0ac57fa68289c7a07668e3564736f6c634300080a003368747470733a2f2f70617065726d6173746572732e696f2f6d696e746964656e746974792f",
  "immutableReferences": {},
  "source": "// SPDX-License-Identifier: MIT\r\npragma solidity >=0.4.22 <0.9.0;\r\n\r\nimport \"@openzeppelin/contracts/access/Ownable.sol\";\r\nimport \"@openzeppelin/contracts/token/ERC721/ERC721.sol\";\r\nimport \"@openzeppelin/contracts/token/ERC721/extensions/ERC721Enumerable.sol\";\r\nimport \"@openzeppelin/contracts/access/AccessControl.sol\";\r\nimport \"@openzeppelin/contracts/utils/Counters.sol\";\r\n\r\ncontract MintIdentity is ERC721Enumerable, Ownable {\r\n    using Counters for Counters.Counter;\r\n    Counters.Counter private _tokenIds;\r\n\r\n    struct Identity {\r\n        bytes32 uniqueid;\r\n        string name;\r\n        string aka;\r\n        string organization;\r\n        string slogan;\r\n        string description;\r\n        string url;\r\n        uint created;\r\n        uint lastupdated;\r\n        bool valid;\r\n        uint validdate;\r\n        uint validationscore;\r\n    }\r\n\r\n    mapping(uint256=> Identity) id_to_identity;\r\n\r\n    string private _currentBaseURI;\r\n    uint private identityFee; // In Finney\r\n    constructor() ERC721(\"MintIdentity\", \"IDENT\") {\r\n        setBaseURI(\"https://papermasters.io/mintidentity/\");\r\n        setIdentityFee(500);\r\n        mintIdentity(\"Andrew N.\",\r\n            \"H-street\",\r\n            \"PaperMasters\",\r\n            \"Oh Yeah!\",\r\n            \"\",\r\n            \"http://ramonajenny.com\");\r\n\r\n        mintIdentity(\"Ramona\",\r\n            \"ramonajenny\",\r\n            \"PaperMasters\",\r\n            \"All things Wave\",\r\n            \"\",\r\n            \"http://ramonajenny.com\");\r\n    }\r\n\r\n    function setBaseURI(string memory baseURI) public onlyOwner() {\r\n        _currentBaseURI = baseURI;\r\n    }\r\n\r\n    function _baseURI() internal view virtual override returns (string memory) {\r\n        return _currentBaseURI;\r\n    }\r\n\r\n    function setIdentityFee(uint fee) public {\r\n        identityFee = fee;\r\n    }\r\n\r\n    function getIdentityFee() public view returns (uint) {\r\n        return identityFee;\r\n    }\r\n\r\n    function createUniqueId(\r\n        string memory name,\r\n        string memory aka,\r\n        string memory org,\r\n        string memory slogan,\r\n        string memory description,\r\n        string memory url) private view returns(bytes32) {\r\n        return keccak256(abi.encodePacked(name, aka, org, slogan, description, url, block.timestamp));\r\n    }\r\n\r\n    function getTokenIdentity(uint256 tokenId) public view returns(Identity memory ident) {\r\n        ident = id_to_identity[tokenId];\r\n    }\r\n\r\n    function mintIdentity (\r\n        string memory name,\r\n        string memory aka,\r\n        string memory org,\r\n        string memory slogan,\r\n        string memory description,\r\n        string memory url) internal {\r\n            bytes32 uniqueId = createUniqueId(name, aka, org, slogan, description, url);\r\n            id_to_identity[_tokenIds.current()] = Identity(uniqueId,name, aka, org, slogan, description,\r\n                url, block.timestamp, block.timestamp, false, 0, 0);\r\n            _safeMint(msg.sender,_tokenIds.current());\r\n            _tokenIds.increment();\r\n    }\r\n\r\n\r\n    function claimIdentity(\r\n        string memory name,\r\n        string memory aka,\r\n        string memory org,\r\n        string memory slogan,\r\n        string memory description,\r\n        string memory url) external payable {\r\n        uint fee = identityFee * 0.001 ether;\r\n        require(msg.value ==  fee, \"claiming an identity costs finney\");\r\n        mintIdentity(name, aka, org, slogan, description, url);\r\n        payable(owner()).transfer(fee);\r\n    }\r\n\r\n    function changeName(uint256 tokenId, string memory newName)  public {\r\n        require(_exists(tokenId), \"token not minted\");\r\n        require(ownerOf(tokenId) == msg.sender, \"only the owner of this unique ID can change its title\");\r\n        id_to_identity[tokenId].name = newName;\r\n\r\n    }\r\n\r\n    function changeAKA(uint256 tokenId, string memory newAKA)  public {\r\n        require(_exists(tokenId), \"token not minted\");\r\n        require(ownerOf(tokenId) == msg.sender, \"only the owner of this unique ID can change its title\");\r\n        id_to_identity[tokenId].aka = newAKA;\r\n\r\n    }\r\n\r\n    function changeSlogan(uint256 tokenId, string memory newSlogan)  public {\r\n        require(_exists(tokenId), \"token not minted\");\r\n        require(ownerOf(tokenId) == msg.sender, \"only the owner of this unique ID can change its title\");\r\n        id_to_identity[tokenId].slogan = newSlogan;\r\n\r\n    }\r\n\r\n    function changeDescription(uint256 tokenId, string memory newDescription)  public {\r\n        require(_exists(tokenId), \"token not minted\");\r\n        require(ownerOf(tokenId) == msg.sender, \"only the owner of this unique ID can change its title\");\r\n        id_to_identity[tokenId].description = newDescription;\r\n\r\n    }\r\n\r\n    function changeURL(uint256 tokenId, string memory newURL)  public {\r\n        require(_exists(tokenId), \"token not minted\");\r\n        require(ownerOf(tokenId) == msg.sender, \"only the owner of this unique ID can change its title\");\r\n        id_to_identity[tokenId].url = newURL;\r\n\r\n        }\r\n\r\n\r\n//changeLastUpdated(tokenId);\r\n    //we need transfer ownership for companies\r\n    //id_to_identity[tokenId].lastupdated = block.timestamp;\r\n\r\n}",
  "sourcePath": "/home/ramona/gitrepos/MintIdentityTPM/truffle/contracts/MintIdentity.sol",
  "compiler": {
    "name": "solc",
    "version": "0.8.10+commit.fc410830.Emscripten.clang"
  },
  "schemaVersion": "3.4.4",
  "updatedAt": "2022-01-12T15:34:46.062Z",
  "devdoc": {
    "kind": "dev",
    "methods": {
      "approve(address,uint256)": {
        "details": "See {IERC721-approve}."
      },
      "balanceOf(address)": {
        "details": "See {IERC721-balanceOf}."
      },
      "getApproved(uint256)": {
        "details": "See {IERC721-getApproved}."
      },
      "isApprovedForAll(address,address)": {
        "details": "See {IERC721-isApprovedForAll}."
      },
      "name()": {
        "details": "See {IERC721Metadata-name}."
      },
      "owner()": {
        "details": "Returns the address of the current owner."
      },
      "ownerOf(uint256)": {
        "details": "See {IERC721-ownerOf}."
      },
      "renounceOwnership()": {
        "details": "Leaves the contract without owner. It will not be possible to call `onlyOwner` functions anymore. Can only be called by the current owner. NOTE: Renouncing ownership will leave the contract without an owner, thereby removing any functionality that is only available to the owner."
      },
      "safeTransferFrom(address,address,uint256)": {
        "details": "See {IERC721-safeTransferFrom}."
      },
      "safeTransferFrom(address,address,uint256,bytes)": {
        "details": "See {IERC721-safeTransferFrom}."
      },
      "setApprovalForAll(address,bool)": {
        "details": "See {IERC721-setApprovalForAll}."
      },
      "supportsInterface(bytes4)": {
        "details": "See {IERC165-supportsInterface}."
      },
      "symbol()": {
        "details": "See {IERC721Metadata-symbol}."
      },
      "tokenByIndex(uint256)": {
        "details": "See {IERC721Enumerable-tokenByIndex}."
      },
      "tokenOfOwnerByIndex(address,uint256)": {
        "details": "See {IERC721Enumerable-tokenOfOwnerByIndex}."
      },
      "tokenURI(uint256)": {
        "details": "See {IERC721Metadata-tokenURI}."
      },
      "totalSupply()": {
        "details": "See {IERC721Enumerable-totalSupply}."
      },
      "transferFrom(address,address,uint256)": {
        "details": "See {IERC721-transferFrom}."
      },
      "transferOwnership(address)": {
        "details": "Transfers ownership of the contract to a new account (`newOwner`). Can only be called by the current owner."
      }
    },
    "version": 1
  },
  "userdoc": {
    "kind": "user",
    "methods": {},
    "version": 1
  }
}