{
  "contractName": "MintIdentity",
  "abi": [
    {
      "inputs": [],
      "stateMutability": "nonpayable",
      "type": "constructor"
    },
    {
      "anonymous": false,
      "inputs": [
        {
          "indexed": true,
          "internalType": "address",
          "name": "owner",
          "type": "address"
        },
        {
          "indexed": true,
          "internalType": "address",
          "name": "approved",
          "type": "address"
        },
        {
          "indexed": true,
          "internalType": "uint256",
          "name": "tokenId",
          "type": "uint256"
        }
      ],
      "name": "Approval",
      "type": "event"
    },
    {
      "anonymous": false,
      "inputs": [
        {
          "indexed": true,
          "internalType": "address",
          "name": "owner",
          "type": "address"
        },
        {
          "indexed": true,
          "internalType": "address",
          "name": "operator",
          "type": "address"
        },
        {
          "indexed": false,
          "internalType": "bool",
          "name": "approved",
          "type": "bool"
        }
      ],
      "name": "ApprovalForAll",
      "type": "event"
    },
    {
      "anonymous": false,
      "inputs": [
        {
          "indexed": true,
          "internalType": "address",
          "name": "previousOwner",
          "type": "address"
        },
        {
          "indexed": true,
          "internalType": "address",
          "name": "newOwner",
          "type": "address"
        }
      ],
      "name": "OwnershipTransferred",
      "type": "event"
    },
    {
      "anonymous": false,
      "inputs": [
        {
          "indexed": true,
          "internalType": "address",
          "name": "from",
          "type": "address"
        },
        {
          "indexed": true,
          "internalType": "address",
          "name": "to",
          "type": "address"
        },
        {
          "indexed": true,
          "internalType": "uint256",
          "name": "tokenId",
          "type": "uint256"
        }
      ],
      "name": "Transfer",
      "type": "event"
    },
    {
      "inputs": [
        {
          "internalType": "address",
          "name": "to",
          "type": "address"
        },
        {
          "internalType": "uint256",
          "name": "tokenId",
          "type": "uint256"
        }
      ],
      "name": "approve",
      "outputs": [],
      "stateMutability": "nonpayable",
      "type": "function"
    },
    {
      "inputs": [
        {
          "internalType": "address",
          "name": "owner",
          "type": "address"
        }
      ],
      "name": "balanceOf",
      "outputs": [
        {
          "internalType": "uint256",
          "name": "",
          "type": "uint256"
        }
      ],
      "stateMutability": "view",
      "type": "function",
      "constant": true
    },
    {
      "inputs": [
        {
          "internalType": "uint256",
          "name": "tokenId",
          "type": "uint256"
        }
      ],
      "name": "getApproved",
      "outputs": [
        {
          "internalType": "address",
          "name": "",
          "type": "address"
        }
      ],
      "stateMutability": "view",
      "type": "function",
      "constant": true
    },
    {
      "inputs": [
        {
          "internalType": "address",
          "name": "owner",
          "type": "address"
        },
        {
          "internalType": "address",
          "name": "operator",
          "type": "address"
        }
      ],
      "name": "isApprovedForAll",
      "outputs": [
        {
          "internalType": "bool",
          "name": "",
          "type": "bool"
        }
      ],
      "stateMutability": "view",
      "type": "function",
      "constant": true
    },
    {
      "inputs": [],
      "name": "name",
      "outputs": [
        {
          "internalType": "string",
          "name": "",
          "type": "string"
        }
      ],
      "stateMutability": "view",
      "type": "function",
      "constant": true
    },
    {
      "inputs": [],
      "name": "owner",
      "outputs": [
        {
          "internalType": "address",
          "name": "",
          "type": "address"
        }
      ],
      "stateMutability": "view",
      "type": "function",
      "constant": true
    },
    {
      "inputs": [
        {
          "internalType": "uint256",
          "name": "tokenId",
          "type": "uint256"
        }
      ],
      "name": "ownerOf",
      "outputs": [
        {
          "internalType": "address",
          "name": "",
          "type": "address"
        }
      ],
      "stateMutability": "view",
      "type": "function",
      "constant": true
    },
    {
      "inputs": [],
      "name": "renounceOwnership",
      "outputs": [],
      "stateMutability": "nonpayable",
      "type": "function"
    },
    {
      "inputs": [
        {
          "internalType": "address",
          "name": "from",
          "type": "address"
        },
        {
          "internalType": "address",
          "name": "to",
          "type": "address"
        },
        {
          "internalType": "uint256",
          "name": "tokenId",
          "type": "uint256"
        }
      ],
      "name": "safeTransferFrom",
      "outputs": [],
      "stateMutability": "nonpayable",
      "type": "function"
    },
    {
      "inputs": [
        {
          "internalType": "address",
          "name": "from",
          "type": "address"
        },
        {
          "internalType": "address",
          "name": "to",
          "type": "address"
        },
        {
          "internalType": "uint256",
          "name": "tokenId",
          "type": "uint256"
        },
        {
          "internalType": "bytes",
          "name": "_data",
          "type": "bytes"
        }
      ],
      "name": "safeTransferFrom",
      "outputs": [],
      "stateMutability": "nonpayable",
      "type": "function"
    },
    {
      "inputs": [
        {
          "internalType": "address",
          "name": "operator",
          "type": "address"
        },
        {
          "internalType": "bool",
          "name": "approved",
          "type": "bool"
        }
      ],
      "name": "setApprovalForAll",
      "outputs": [],
      "stateMutability": "nonpayable",
      "type": "function"
    },
    {
      "inputs": [
        {
          "internalType": "bytes4",
          "name": "interfaceId",
          "type": "bytes4"
        }
      ],
      "name": "supportsInterface",
      "outputs": [
        {
          "internalType": "bool",
          "name": "",
          "type": "bool"
        }
      ],
      "stateMutability": "view",
      "type": "function",
      "constant": true
    },
    {
      "inputs": [],
      "name": "symbol",
      "outputs": [
        {
          "internalType": "string",
          "name": "",
          "type": "string"
        }
      ],
      "stateMutability": "view",
      "type": "function",
      "constant": true
    },
    {
      "inputs": [
        {
          "internalType": "uint256",
          "name": "index",
          "type": "uint256"
        }
      ],
      "name": "tokenByIndex",
      "outputs": [
        {
          "internalType": "uint256",
          "name": "",
          "type": "uint256"
        }
      ],
      "stateMutability": "view",
      "type": "function",
      "constant": true
    },
    {
      "inputs": [
        {
          "internalType": "address",
          "name": "owner",
          "type": "address"
        },
        {
          "internalType": "uint256",
          "name": "index",
          "type": "uint256"
        }
      ],
      "name": "tokenOfOwnerByIndex",
      "outputs": [
        {
          "internalType": "uint256",
          "name": "",
          "type": "uint256"
        }
      ],
      "stateMutability": "view",
      "type": "function",
      "constant": true
    },
    {
      "inputs": [
        {
          "internalType": "uint256",
          "name": "tokenId",
          "type": "uint256"
        }
      ],
      "name": "tokenURI",
      "outputs": [
        {
          "internalType": "string",
          "name": "",
          "type": "string"
        }
      ],
      "stateMutability": "view",
      "type": "function",
      "constant": true
    },
    {
      "inputs": [],
      "name": "totalSupply",
      "outputs": [
        {
          "internalType": "uint256",
          "name": "",
          "type": "uint256"
        }
      ],
      "stateMutability": "view",
      "type": "function",
      "constant": true
    },
    {
      "inputs": [
        {
          "internalType": "address",
          "name": "from",
          "type": "address"
        },
        {
          "internalType": "address",
          "name": "to",
          "type": "address"
        },
        {
          "internalType": "uint256",
          "name": "tokenId",
          "type": "uint256"
        }
      ],
      "name": "transferFrom",
      "outputs": [],
      "stateMutability": "nonpayable",
      "type": "function"
    },
    {
      "inputs": [
        {
          "internalType": "address",
          "name": "newOwner",
          "type": "address"
        }
      ],
      "name": "transferOwnership",
      "outputs": [],
      "stateMutability": "nonpayable",
      "type": "function"
    },
    {
      "inputs": [
        {
          "internalType": "string",
          "name": "baseURI",
          "type": "string"
        }
      ],
      "name": "setBaseURI",
      "outputs": [],
      "stateMutability": "nonpayable",
      "type": "function"
    },
    {
      "inputs": [
        {
          "internalType": "uint256",
          "name": "tokenId",
          "type": "uint256"
        }
      ],
      "name": "getTokenIdentity",
      "outputs": [
        {
          "components": [
            {
              "internalType": "bytes32",
              "name": "uniqueid",
              "type": "bytes32"
            },
            {
              "internalType": "string",
              "name": "name",
              "type": "string"
            },
            {
              "internalType": "string",
              "name": "aka",
              "type": "string"
            },
            {
              "internalType": "string",
              "name": "organization",
              "type": "string"
            },
            {
              "internalType": "string",
              "name": "slogan",
              "type": "string"
            },
            {
              "internalType": "string",
              "name": "description",
              "type": "string"
            },
            {
              "internalType": "string",
              "name": "url",
              "type": "string"
            },
            {
              "internalType": "string",
              "name": "bio",
              "type": "string"
            },
            {
              "internalType": "uint256",
              "name": "create",
              "type": "uint256"
            },
            {
              "internalType": "uint256",
              "name": "lastupdated",
              "type": "uint256"
            },
            {
              "internalType": "bool",
              "name": "valid",
              "type": "bool"
            },
            {
              "internalType": "uint256",
              "name": "validdate",
              "type": "uint256"
            },
            {
              "internalType": "uint256",
              "name": "validationscore",
              "type": "uint256"
            }
          ],
          "internalType": "struct MintIdentity.Identity",
          "name": "ident",
          "type": "tuple"
        }
      ],
      "stateMutability": "view",
      "type": "function",
      "constant": true
    },
    {
      "inputs": [
        {
          "internalType": "uint256",
          "name": "tokenId",
          "type": "uint256"
        },
        {
          "internalType": "string",
          "name": "newName",
          "type": "string"
        }
      ],
      "name": "changeFirstName",
      "outputs": [],
      "stateMutability": "nonpayable",
      "type": "function"
    }
  ],
  "bytecode": "0x60806040523480156200001157600080fd5b506040518060400160405280600c81526020017f4d696e744964656e7469747900000000000000000000000000000000000000008152506040518060400160405280600581526020017f4944454e5400000000000000000000000000000000000000000000000000000081525081600090805190602001906200009692919062001494565b508060019080519060200190620000af92919062001494565b505050620000d2620000c66200069260201b60201c565b6200069a60201b60201c565b620000fc604051806060016040528060258152602001620058e7602591396200076060201b60201c565b620002866040518060400160405280600681526020017f52616d6f6e6100000000000000000000000000000000000000000000000000008152506040518060400160405280600b81526020017f416b6120417765736f6d650000000000000000000000000000000000000000008152506040518060400160405280600781526020017f417765736f6d65000000000000000000000000000000000000000000000000008152506040518060400160405280600f81526020017f416c6c205468696e6773205761766500000000000000000000000000000000008152506040518060400160405280600381526020017f43454f00000000000000000000000000000000000000000000000000000000008152506040518060400160405280600281526020017f706d0000000000000000000000000000000000000000000000000000000000008152506040518060400160405280600881526020017f456e67696e6565720000000000000000000000000000000000000000000000008152506200080b60201b60201c565b620004106040518060400160405280600681526020017f416e6472657700000000000000000000000000000000000000000000000000008152506040518060400160405280600981526020017f416b6120537570657200000000000000000000000000000000000000000000008152506040518060400160405280600581526020017f53757065720000000000000000000000000000000000000000000000000000008152506040518060400160405280600f81526020017f416c6c205468696e6773205761766500000000000000000000000000000000008152506040518060400160405280600381526020017f43544f00000000000000000000000000000000000000000000000000000000008152506040518060400160405280600281526020017f706d0000000000000000000000000000000000000000000000000000000000008152506040518060400160405280600881526020017f536f6674776172650000000000000000000000000000000000000000000000008152506200080b60201b60201c565b6200054e6040518060400160405280600781526020017f4e617574696361000000000000000000000000000000000000000000000000008152506040518060400160405280600b81526020017f416b61204e6f7468696e670000000000000000000000000000000000000000008152506040518060400160405280600681526020017f6c6974746c6500000000000000000000000000000000000000000000000000008152506040518060400160405280600a81526020017f4769726c20506f7765720000000000000000000000000000000000000000000081525060405180602001604052806000815250604051806020016040528060008152506040518060400160405280600881526020017f456e67696e6565720000000000000000000000000000000000000000000000008152506200080b60201b60201c565b6200068c6040518060400160405280600581526020017f416d6d6f6e0000000000000000000000000000000000000000000000000000008152506040518060400160405280600b81526020017f41726d2043686f707065720000000000000000000000000000000000000000008152506040518060400160405280600381526020017f626f7900000000000000000000000000000000000000000000000000000000008152506040518060400160405280600781526020017f506f6b656d6f6e0000000000000000000000000000000000000000000000000081525060405180602001604052806000815250604051806020016040528060008152506040518060400160405280600781526020017f547261696e6572000000000000000000000000000000000000000000000000008152506200080b60201b60201c565b62001c49565b600033905090565b6000600a60009054906101000a900473ffffffffffffffffffffffffffffffffffffffff16905081600a60006101000a81548173ffffffffffffffffffffffffffffffffffffffff021916908373ffffffffffffffffffffffffffffffffffffffff1602179055508173ffffffffffffffffffffffffffffffffffffffff168173ffffffffffffffffffffffffffffffffffffffff167f8be0079c531659141344cd1fd0a4f28419497f9722a3daafe3b4186f6b6457e060405160405180910390a35050565b620007706200069260201b60201c565b73ffffffffffffffffffffffffffffffffffffffff166200079662000a2860201b60201c565b73ffffffffffffffffffffffffffffffffffffffff1614620007ef576040517f08c379a0000000000000000000000000000000000000000000000000000000008152600401620007e690620015a5565b60405180910390fd5b80600d90805190602001906200080792919062001494565b5050565b6000620008248888888888888862000a5260201b60201c565b9050604051806101a00160405280828152602001898152602001888152602001878152602001868152602001858152602001848152602001838152602001428152602001428152602001600015158152602001600081526020016000815250600c60006200089e600b62000a9860201b620014031760201c565b8152602001908152602001600020600082015181600001556020820151816001019080519060200190620008d492919062001494565b506040820151816002019080519060200190620008f392919062001494565b5060608201518160030190805190602001906200091292919062001494565b5060808201518160040190805190602001906200093192919062001494565b5060a08201518160050190805190602001906200095092919062001494565b5060c08201518160060190805190602001906200096f92919062001494565b5060e08201518160070190805190602001906200098e92919062001494565b506101008201518160080155610120820151816009015561014082015181600a0160006101000a81548160ff02191690831515021790555061016082015181600b015561018082015181600c015590505062000a0733620009fb600b62000a9860201b620014031760201c565b62000aa660201b60201c565b62000a1e600b62000acc60201b620014111760201c565b5050505050505050565b6000600a60009054906101000a900473ffffffffffffffffffffffffffffffffffffffff16905090565b6000878787878787874260405160200162000a7598979695949392919062001679565b604051602081830303815290604052805190602001209050979650505050505050565b600081600001549050919050565b62000ac882826040518060200160405280600081525062000ae260201b60201c565b5050565b6001816000016000828254019250508190555050565b62000af4838362000b5060201b60201c565b62000b09600084848462000d3660201b60201c565b62000b4b576040517f08c379a000000000000000000000000000000000000000000000000000000000815260040162000b429062001775565b60405180910390fd5b505050565b600073ffffffffffffffffffffffffffffffffffffffff168273ffffffffffffffffffffffffffffffffffffffff16141562000bc3576040517f08c379a000000000000000000000000000000000000000000000000000000000815260040162000bba90620017e7565b60405180910390fd5b62000bd48162000ee060201b60201c565b1562000c17576040517f08c379a000000000000000000000000000000000000000000000000000000000815260040162000c0e9062001859565b60405180910390fd5b62000c2b6000838362000f4c60201b60201c565b6001600360008473ffffffffffffffffffffffffffffffffffffffff1673ffffffffffffffffffffffffffffffffffffffff168152602001908152602001600020600082825462000c7d9190620018aa565b92505081905550816002600083815260200190815260200160002060006101000a81548173ffffffffffffffffffffffffffffffffffffffff021916908373ffffffffffffffffffffffffffffffffffffffff160217905550808273ffffffffffffffffffffffffffffffffffffffff16600073ffffffffffffffffffffffffffffffffffffffff167fddf252ad1be2c89b69c2b068fc378daa952ba7f163c4a11628f55a4df523b3ef60405160405180910390a45050565b600062000d648473ffffffffffffffffffffffffffffffffffffffff166200109360201b620014271760201c565b1562000ed3578373ffffffffffffffffffffffffffffffffffffffff1663150b7a0262000d966200069260201b60201c565b8786866040518563ffffffff1660e01b815260040162000dba9493929190620019cb565b6020604051808303816000875af192505050801562000df957506040513d601f19601f8201168201806040525081019062000df6919062001a81565b60015b62000e82573d806000811462000e2c576040519150601f19603f3d011682016040523d82523d6000602084013e62000e31565b606091505b5060008151141562000e7a576040517f08c379a000000000000000000000000000000000000000000000000000000000815260040162000e719062001775565b60405180910390fd5b805181602001fd5b63150b7a0260e01b7bffffffffffffffffffffffffffffffffffffffffffffffffffffffff1916817bffffffffffffffffffffffffffffffffffffffffffffffffffffffff19161491505062000ed8565b600190505b949350505050565b60008073ffffffffffffffffffffffffffffffffffffffff166002600084815260200190815260200160002060009054906101000a900473ffffffffffffffffffffffffffffffffffffffff1673ffffffffffffffffffffffffffffffffffffffff1614159050919050565b62000f64838383620010a660201b6200143a1760201c565b600073ffffffffffffffffffffffffffffffffffffffff168373ffffffffffffffffffffffffffffffffffffffff16141562000fb15762000fab81620010ab60201b60201c565b62000ff9565b8173ffffffffffffffffffffffffffffffffffffffff168373ffffffffffffffffffffffffffffffffffffffff161462000ff85762000ff78382620010f460201b60201c565b5b5b600073ffffffffffffffffffffffffffffffffffffffff168273ffffffffffffffffffffffffffffffffffffffff161415620010465762001040816200127160201b60201c565b6200108e565b8273ffffffffffffffffffffffffffffffffffffffff168273ffffffffffffffffffffffffffffffffffffffff16146200108d576200108c82826200134d60201b60201c565b5b5b505050565b600080823b905060008111915050919050565b505050565b6008805490506009600083815260200190815260200160002081905550600881908060018154018082558091505060019003906000526020600020016000909190919091505550565b600060016200110e84620013d960201b620009ed1760201c565b6200111a919062001ab3565b905060006007600084815260200190815260200160002054905081811462001200576000600660008673ffffffffffffffffffffffffffffffffffffffff1673ffffffffffffffffffffffffffffffffffffffff168152602001908152602001600020600084815260200190815260200160002054905080600660008773ffffffffffffffffffffffffffffffffffffffff1673ffffffffffffffffffffffffffffffffffffffff168152602001908152602001600020600084815260200190815260200160002081905550816007600083815260200190815260200160002081905550505b6007600084815260200190815260200160002060009055600660008573ffffffffffffffffffffffffffffffffffffffff1673ffffffffffffffffffffffffffffffffffffffff16815260200190815260200160002060008381526020019081526020016000206000905550505050565b6000600160088054905062001287919062001ab3565b9050600060096000848152602001908152602001600020549050600060088381548110620012ba57620012b962001aee565b5b906000526020600020015490508060088381548110620012df57620012de62001aee565b5b90600052602060002001819055508160096000838152602001908152602001600020819055506009600085815260200190815260200160002060009055600880548062001331576200133062001b1d565b5b6001900381819060005260206000200160009055905550505050565b60006200136583620013d960201b620009ed1760201c565b905081600660008573ffffffffffffffffffffffffffffffffffffffff1673ffffffffffffffffffffffffffffffffffffffff168152602001908152602001600020600083815260200190815260200160002081905550806007600084815260200190815260200160002081905550505050565b60008073ffffffffffffffffffffffffffffffffffffffff168273ffffffffffffffffffffffffffffffffffffffff1614156200144d576040517f08c379a0000000000000000000000000000000000000000000000000000000008152600401620014449062001bc2565b60405180910390fd5b600360008373ffffffffffffffffffffffffffffffffffffffff1673ffffffffffffffffffffffffffffffffffffffff168152602001908152602001600020549050919050565b828054620014a29062001c13565b90600052602060002090601f016020900481019282620014c6576000855562001512565b82601f10620014e157805160ff191683800117855562001512565b8280016001018555821562001512579182015b8281111562001511578251825591602001919060010190620014f4565b5b50905062001521919062001525565b5090565b5b808211156200154057600081600090555060010162001526565b5090565b600082825260208201905092915050565b7f4f776e61626c653a2063616c6c6572206973206e6f7420746865206f776e6572600082015250565b60006200158d60208362001544565b91506200159a8262001555565b602082019050919050565b60006020820190508181036000830152620015c0816200157e565b9050919050565b600081519050919050565b600081905092915050565b60005b83811015620015fd578082015181840152602081019050620015e0565b838111156200160d576000848401525b50505050565b60006200162082620015c7565b6200162c8185620015d2565b93506200163e818560208601620015dd565b80840191505092915050565b6000819050919050565b6000819050919050565b620016736200166d826200164a565b62001654565b82525050565b600062001687828b62001613565b915062001695828a62001613565b9150620016a3828962001613565b9150620016b1828862001613565b9150620016bf828762001613565b9150620016cd828662001613565b9150620016db828562001613565b9150620016e982846200165e565b6020820191508190509998505050505050505050565b7f4552433732313a207472616e7366657220746f206e6f6e20455243373231526560008201527f63656976657220696d706c656d656e7465720000000000000000000000000000602082015250565b60006200175d60328362001544565b91506200176a82620016ff565b604082019050919050565b6000602082019050818103600083015262001790816200174e565b9050919050565b7f4552433732313a206d696e7420746f20746865207a65726f2061646472657373600082015250565b6000620017cf60208362001544565b9150620017dc8262001797565b602082019050919050565b600060208201905081810360008301526200180281620017c0565b9050919050565b7f4552433732313a20746f6b656e20616c7265616479206d696e74656400000000600082015250565b600062001841601c8362001544565b91506200184e8262001809565b602082019050919050565b60006020820190508181036000830152620018748162001832565b9050919050565b7f4e487b7100000000000000000000000000000000000000000000000000000000600052601160045260246000fd5b6000620018b7826200164a565b9150620018c4836200164a565b9250827fffffffffffffffffffffffffffffffffffffffffffffffffffffffffffffffff03821115620018fc57620018fb6200187b565b5b828201905092915050565b600073ffffffffffffffffffffffffffffffffffffffff82169050919050565b6000620019348262001907565b9050919050565b620019468162001927565b82525050565b62001957816200164a565b82525050565b600081519050919050565b600082825260208201905092915050565b6000601f19601f8301169050919050565b600062001997826200195d565b620019a3818562001968565b9350620019b5818560208601620015dd565b620019c08162001979565b840191505092915050565b6000608082019050620019e260008301876200193b565b620019f160208301866200193b565b62001a0060408301856200194c565b818103606083015262001a1481846200198a565b905095945050505050565b600080fd5b60007fffffffff0000000000000000000000000000000000000000000000000000000082169050919050565b62001a5b8162001a24565b811462001a6757600080fd5b50565b60008151905062001a7b8162001a50565b92915050565b60006020828403121562001a9a5762001a9962001a1f565b5b600062001aaa8482850162001a6a565b91505092915050565b600062001ac0826200164a565b915062001acd836200164a565b92508282101562001ae35762001ae26200187b565b5b828203905092915050565b7f4e487b7100000000000000000000000000000000000000000000000000000000600052603260045260246000fd5b7f4e487b7100000000000000000000000000000000000000000000000000000000600052603160045260246000fd5b7f4552433732313a2062616c616e636520717565727920666f7220746865207a6560008201527f726f206164647265737300000000000000000000000000000000000000000000602082015250565b600062001baa602a8362001544565b915062001bb78262001b4c565b604082019050919050565b6000602082019050818103600083015262001bdd8162001b9b565b9050919050565b7f4e487b7100000000000000000000000000000000000000000000000000000000600052602260045260246000fd5b6000600282049050600182168062001c2c57607f821691505b6020821081141562001c435762001c4262001be4565b5b50919050565b613c8e8062001c596000396000f3fe608060405234801561001057600080fd5b50600436106101425760003560e01c806370a08231116100b857806395d89b411161007c57806395d89b4114610387578063a22cb465146103a5578063b88d4fde146103c1578063c87b56dd146103dd578063e985e9c51461040d578063f2fde38b1461043d57610142565b806370a08231146102e3578063715018a6146103135780637272bf7d1461031d5780638c74b1e81461034d5780638da5cb5b1461036957610142565b806323b872dd1161010a57806323b872dd146101ff5780632f745c591461021b57806342842e0e1461024b5780634f6ccce71461026757806355f804b3146102975780636352211e146102b357610142565b806301ffc9a71461014757806306fdde0314610177578063081812fc14610195578063095ea7b3146101c557806318160ddd146101e1575b600080fd5b610161600480360381019061015c919061266e565b610459565b60405161016e91906126b6565b60405180910390f35b61017f6104d3565b60405161018c919061276a565b60405180910390f35b6101af60048036038101906101aa91906127c2565b610565565b6040516101bc9190612830565b60405180910390f35b6101df60048036038101906101da9190612877565b6105ea565b005b6101e9610702565b6040516101f691906128c6565b60405180910390f35b610219600480360381019061021491906128e1565b61070f565b005b61023560048036038101906102309190612877565b61076f565b60405161024291906128c6565b60405180910390f35b610265600480360381019061026091906128e1565b610814565b005b610281600480360381019061027c91906127c2565b610834565b60405161028e91906128c6565b60405180910390f35b6102b160048036038101906102ac9190612a69565b6108a5565b005b6102cd60048036038101906102c891906127c2565b61093b565b6040516102da9190612830565b60405180910390f35b6102fd60048036038101906102f89190612ab2565b6109ed565b60405161030a91906128c6565b60405180910390f35b61031b610aa5565b005b610337600480360381019061033291906127c2565b610b2d565b6040516103449190612ca3565b60405180910390f35b61036760048036038101906103629190612cc5565b610fa6565b005b61037161109c565b60405161037e9190612830565b60405180910390f35b61038f6110c6565b60405161039c919061276a565b60405180910390f35b6103bf60048036038101906103ba9190612d4d565b611158565b005b6103db60048036038101906103d69190612e2e565b61116e565b005b6103f760048036038101906103f291906127c2565b6111d0565b604051610404919061276a565b60405180910390f35b61042760048036038101906104229190612eb1565b611277565b60405161043491906126b6565b60405180910390f35b61045760048036038101906104529190612ab2565b61130b565b005b60007f780e9d63000000000000000000000000000000000000000000000000000000007bffffffffffffffffffffffffffffffffffffffffffffffffffffffff1916827bffffffffffffffffffffffffffffffffffffffffffffffffffffffff191614806104cc57506104cb8261143f565b5b9050919050565b6060600080546104e290612f20565b80601f016020809104026020016040519081016040528092919081815260200182805461050e90612f20565b801561055b5780601f106105305761010080835404028352916020019161055b565b820191906000526020600020905b81548152906001019060200180831161053e57829003601f168201915b5050505050905090565b600061057082611521565b6105af576040517f08c379a00000000000000000000000000000000000000000000000000000000081526004016105a690612fc4565b60405180910390fd5b6004600083815260200190815260200160002060009054906101000a900473ffffffffffffffffffffffffffffffffffffffff169050919050565b60006105f58261093b565b90508073ffffffffffffffffffffffffffffffffffffffff168373ffffffffffffffffffffffffffffffffffffffff161415610666576040517f08c379a000000000000000000000000000000000000000000000000000000000815260040161065d90613056565b60405180910390fd5b8073ffffffffffffffffffffffffffffffffffffffff1661068561158d565b73ffffffffffffffffffffffffffffffffffffffff1614806106b457506106b3816106ae61158d565b611277565b5b6106f3576040517f08c379a00000000000000000000000000000000000000000000000000000000081526004016106ea906130e8565b60405180910390fd5b6106fd8383611595565b505050565b6000600880549050905090565b61072061071a61158d565b8261164e565b61075f576040517f08c379a00000000000000000000000000000000000000000000000000000000081526004016107569061317a565b60405180910390fd5b61076a83838361172c565b505050565b600061077a836109ed565b82106107bb576040517f08c379a00000000000000000000000000000000000000000000000000000000081526004016107b29061320c565b60405180910390fd5b600660008473ffffffffffffffffffffffffffffffffffffffff1673ffffffffffffffffffffffffffffffffffffffff168152602001908152602001600020600083815260200190815260200160002054905092915050565b61082f8383836040518060200160405280600081525061116e565b505050565b600061083e610702565b821061087f576040517f08c379a00000000000000000000000000000000000000000000000000000000081526004016108769061329e565b60405180910390fd5b60088281548110610893576108926132be565b5b90600052602060002001549050919050565b6108ad61158d565b73ffffffffffffffffffffffffffffffffffffffff166108cb61109c565b73ffffffffffffffffffffffffffffffffffffffff1614610921576040517f08c379a000000000000000000000000000000000000000000000000000000000815260040161091890613339565b60405180910390fd5b80600d90805190602001906109379291906124f2565b5050565b6000806002600084815260200190815260200160002060009054906101000a900473ffffffffffffffffffffffffffffffffffffffff169050600073ffffffffffffffffffffffffffffffffffffffff168173ffffffffffffffffffffffffffffffffffffffff1614156109e4576040517f08c379a00000000000000000000000000000000000000000000000000000000081526004016109db906133cb565b60405180910390fd5b80915050919050565b60008073ffffffffffffffffffffffffffffffffffffffff168273ffffffffffffffffffffffffffffffffffffffff161415610a5e576040517f08c379a0000000000000000000000000000000000000000000000000000000008152600401610a559061345d565b60405180910390fd5b600360008373ffffffffffffffffffffffffffffffffffffffff1673ffffffffffffffffffffffffffffffffffffffff168152602001908152602001600020549050919050565b610aad61158d565b73ffffffffffffffffffffffffffffffffffffffff16610acb61109c565b73ffffffffffffffffffffffffffffffffffffffff1614610b21576040517f08c379a0000000000000000000000000000000000000000000000000000000008152600401610b1890613339565b60405180910390fd5b610b2b6000611988565b565b610b35612578565b600c6000838152602001908152602001600020604051806101a001604052908160008201548152602001600182018054610b6e90612f20565b80601f0160208091040260200160405190810160405280929190818152602001828054610b9a90612f20565b8015610be75780601f10610bbc57610100808354040283529160200191610be7565b820191906000526020600020905b815481529060010190602001808311610bca57829003601f168201915b50505050508152602001600282018054610c0090612f20565b80601f0160208091040260200160405190810160405280929190818152602001828054610c2c90612f20565b8015610c795780601f10610c4e57610100808354040283529160200191610c79565b820191906000526020600020905b815481529060010190602001808311610c5c57829003601f168201915b50505050508152602001600382018054610c9290612f20565b80601f0160208091040260200160405190810160405280929190818152602001828054610cbe90612f20565b8015610d0b5780601f10610ce057610100808354040283529160200191610d0b565b820191906000526020600020905b815481529060010190602001808311610cee57829003601f168201915b50505050508152602001600482018054610d2490612f20565b80601f0160208091040260200160405190810160405280929190818152602001828054610d5090612f20565b8015610d9d5780601f10610d7257610100808354040283529160200191610d9d565b820191906000526020600020905b815481529060010190602001808311610d8057829003601f168201915b50505050508152602001600582018054610db690612f20565b80601f0160208091040260200160405190810160405280929190818152602001828054610de290612f20565b8015610e2f5780601f10610e0457610100808354040283529160200191610e2f565b820191906000526020600020905b815481529060010190602001808311610e1257829003601f168201915b50505050508152602001600682018054610e4890612f20565b80601f0160208091040260200160405190810160405280929190818152602001828054610e7490612f20565b8015610ec15780601f10610e9657610100808354040283529160200191610ec1565b820191906000526020600020905b815481529060010190602001808311610ea457829003601f168201915b50505050508152602001600782018054610eda90612f20565b80601f0160208091040260200160405190810160405280929190818152602001828054610f0690612f20565b8015610f535780601f10610f2857610100808354040283529160200191610f53565b820191906000526020600020905b815481529060010190602001808311610f3657829003601f168201915b505050505081526020016008820154815260200160098201548152602001600a820160009054906101000a900460ff16151515158152602001600b8201548152602001600c820154815250509050919050565b610faf82611521565b610fee576040517f08c379a0000000000000000000000000000000000000000000000000000000008152600401610fe5906134c9565b60405180910390fd5b3373ffffffffffffffffffffffffffffffffffffffff1661100e8361093b565b73ffffffffffffffffffffffffffffffffffffffff1614611064576040517f08c379a000000000000000000000000000000000000000000000000000000000815260040161105b9061355b565b60405180910390fd5b80600c6000848152602001908152602001600020600101908051906020019061108e9291906124f2565b5061109882611a4e565b5050565b6000600a60009054906101000a900473ffffffffffffffffffffffffffffffffffffffff16905090565b6060600180546110d590612f20565b80601f016020809104026020016040519081016040528092919081815260200182805461110190612f20565b801561114e5780601f106111235761010080835404028352916020019161114e565b820191906000526020600020905b81548152906001019060200180831161113157829003601f168201915b5050505050905090565b61116a61116361158d565b8383611b2a565b5050565b61117f61117961158d565b8361164e565b6111be576040517f08c379a00000000000000000000000000000000000000000000000000000000081526004016111b59061317a565b60405180910390fd5b6111ca84848484611c97565b50505050565b60606111db82611521565b61121a576040517f08c379a0000000000000000000000000000000000000000000000000000000008152600401611211906135ed565b60405180910390fd5b6000611224611cf3565b90506000815111611244576040518060200160405280600081525061126f565b8061124e84611d85565b60405160200161125f929190613649565b6040516020818303038152906040525b915050919050565b6000600560008473ffffffffffffffffffffffffffffffffffffffff1673ffffffffffffffffffffffffffffffffffffffff16815260200190815260200160002060008373ffffffffffffffffffffffffffffffffffffffff1673ffffffffffffffffffffffffffffffffffffffff16815260200190815260200160002060009054906101000a900460ff16905092915050565b61131361158d565b73ffffffffffffffffffffffffffffffffffffffff1661133161109c565b73ffffffffffffffffffffffffffffffffffffffff1614611387576040517f08c379a000000000000000000000000000000000000000000000000000000000815260040161137e90613339565b60405180910390fd5b600073ffffffffffffffffffffffffffffffffffffffff168173ffffffffffffffffffffffffffffffffffffffff1614156113f7576040517f08c379a00000000000000000000000000000000000000000000000000000000081526004016113ee906136df565b60405180910390fd5b61140081611988565b50565b600081600001549050919050565b6001816000016000828254019250508190555050565b600080823b905060008111915050919050565b505050565b60007f80ac58cd000000000000000000000000000000000000000000000000000000007bffffffffffffffffffffffffffffffffffffffffffffffffffffffff1916827bffffffffffffffffffffffffffffffffffffffffffffffffffffffff1916148061150a57507f5b5e139f000000000000000000000000000000000000000000000000000000007bffffffffffffffffffffffffffffffffffffffffffffffffffffffff1916827bffffffffffffffffffffffffffffffffffffffffffffffffffffffff1916145b8061151a575061151982611ee6565b5b9050919050565b60008073ffffffffffffffffffffffffffffffffffffffff166002600084815260200190815260200160002060009054906101000a900473ffffffffffffffffffffffffffffffffffffffff1673ffffffffffffffffffffffffffffffffffffffff1614159050919050565b600033905090565b816004600083815260200190815260200160002060006101000a81548173ffffffffffffffffffffffffffffffffffffffff021916908373ffffffffffffffffffffffffffffffffffffffff160217905550808273ffffffffffffffffffffffffffffffffffffffff166116088361093b565b73ffffffffffffffffffffffffffffffffffffffff167f8c5be1e5ebec7d5bd14f71427d1e84f3dd0314c0f7b2291e5b200ac8c7c3b92560405160405180910390a45050565b600061165982611521565b611698576040517f08c379a000000000000000000000000000000000000000000000000000000000815260040161168f90613771565b60405180910390fd5b60006116a38361093b565b90508073ffffffffffffffffffffffffffffffffffffffff168473ffffffffffffffffffffffffffffffffffffffff16148061171257508373ffffffffffffffffffffffffffffffffffffffff166116fa84610565565b73ffffffffffffffffffffffffffffffffffffffff16145b8061172357506117228185611277565b5b91505092915050565b8273ffffffffffffffffffffffffffffffffffffffff1661174c8261093b565b73ffffffffffffffffffffffffffffffffffffffff16146117a2576040517f08c379a000000000000000000000000000000000000000000000000000000000815260040161179990613803565b60405180910390fd5b600073ffffffffffffffffffffffffffffffffffffffff168273ffffffffffffffffffffffffffffffffffffffff161415611812576040517f08c379a000000000000000000000000000000000000000000000000000000000815260040161180990613895565b60405180910390fd5b61181d838383611f50565b611828600082611595565b6001600360008573ffffffffffffffffffffffffffffffffffffffff1673ffffffffffffffffffffffffffffffffffffffff168152602001908152602001600020600082825461187891906138e4565b925050819055506001600360008473ffffffffffffffffffffffffffffffffffffffff1673ffffffffffffffffffffffffffffffffffffffff16815260200190815260200160002060008282546118cf9190613918565b92505081905550816002600083815260200190815260200160002060006101000a81548173ffffffffffffffffffffffffffffffffffffffff021916908373ffffffffffffffffffffffffffffffffffffffff160217905550808273ffffffffffffffffffffffffffffffffffffffff168473ffffffffffffffffffffffffffffffffffffffff167fddf252ad1be2c89b69c2b068fc378daa952ba7f163c4a11628f55a4df523b3ef60405160405180910390a4505050565b6000600a60009054906101000a900473ffffffffffffffffffffffffffffffffffffffff16905081600a60006101000a81548173ffffffffffffffffffffffffffffffffffffffff021916908373ffffffffffffffffffffffffffffffffffffffff1602179055508173ffffffffffffffffffffffffffffffffffffffff168173ffffffffffffffffffffffffffffffffffffffff167f8be0079c531659141344cd1fd0a4f28419497f9722a3daafe3b4186f6b6457e060405160405180910390a35050565b611a5781611521565b611a96576040517f08c379a0000000000000000000000000000000000000000000000000000000008152600401611a8d906134c9565b60405180910390fd5b3373ffffffffffffffffffffffffffffffffffffffff16611ab68261093b565b73ffffffffffffffffffffffffffffffffffffffff1614611b0c576040517f08c379a0000000000000000000000000000000000000000000000000000000008152600401611b039061355b565b60405180910390fd5b42600c60008381526020019081526020016000206009018190555050565b8173ffffffffffffffffffffffffffffffffffffffff168373ffffffffffffffffffffffffffffffffffffffff161415611b99576040517f08c379a0000000000000000000000000000000000000000000000000000000008152600401611b90906139ba565b60405180910390fd5b80600560008573ffffffffffffffffffffffffffffffffffffffff1673ffffffffffffffffffffffffffffffffffffffff16815260200190815260200160002060008473ffffffffffffffffffffffffffffffffffffffff1673ffffffffffffffffffffffffffffffffffffffff16815260200190815260200160002060006101000a81548160ff0219169083151502179055508173ffffffffffffffffffffffffffffffffffffffff168373ffffffffffffffffffffffffffffffffffffffff167f17307eab39ab6107e8899845ad3d59bd9653f200f220920489ca2b5937696c3183604051611c8a91906126b6565b60405180910390a3505050565b611ca284848461172c565b611cae84848484612064565b611ced576040517f08c379a0000000000000000000000000000000000000000000000000000000008152600401611ce490613a4c565b60405180910390fd5b50505050565b6060600d8054611d0290612f20565b80601f0160208091040260200160405190810160405280929190818152602001828054611d2e90612f20565b8015611d7b5780601f10611d5057610100808354040283529160200191611d7b565b820191906000526020600020905b815481529060010190602001808311611d5e57829003601f168201915b5050505050905090565b60606000821415611dcd576040518060400160405280600181526020017f30000000000000000000000000000000000000000000000000000000000000008152509050611ee1565b600082905060005b60008214611dff578080611de890613a6c565b915050600a82611df89190613ae4565b9150611dd5565b60008167ffffffffffffffff811115611e1b57611e1a61293e565b5b6040519080825280601f01601f191660200182016040528015611e4d5781602001600182028036833780820191505090505b5090505b60008514611eda57600182611e6691906138e4565b9150600a85611e759190613b15565b6030611e819190613918565b60f81b818381518110611e9757611e966132be565b5b60200101907effffffffffffffffffffffffffffffffffffffffffffffffffffffffffffff1916908160001a905350600a85611ed39190613ae4565b9450611e51565b8093505050505b919050565b60007f01ffc9a7000000000000000000000000000000000000000000000000000000007bffffffffffffffffffffffffffffffffffffffffffffffffffffffff1916827bffffffffffffffffffffffffffffffffffffffffffffffffffffffff1916149050919050565b611f5b83838361143a565b600073ffffffffffffffffffffffffffffffffffffffff168373ffffffffffffffffffffffffffffffffffffffff161415611f9e57611f99816121ec565b611fdd565b8173ffffffffffffffffffffffffffffffffffffffff168373ffffffffffffffffffffffffffffffffffffffff1614611fdc57611fdb8382612235565b5b5b600073ffffffffffffffffffffffffffffffffffffffff168273ffffffffffffffffffffffffffffffffffffffff1614156120205761201b816123a2565b61205f565b8273ffffffffffffffffffffffffffffffffffffffff168273ffffffffffffffffffffffffffffffffffffffff161461205e5761205d8282612473565b5b5b505050565b60006120858473ffffffffffffffffffffffffffffffffffffffff16611427565b156121df578373ffffffffffffffffffffffffffffffffffffffff1663150b7a026120ae61158d565b8786866040518563ffffffff1660e01b81526004016120d09493929190613b9b565b6020604051808303816000875af192505050801561210c57506040513d601f19601f820116820180604052508101906121099190613bfc565b60015b61218f573d806000811461213c576040519150601f19603f3d011682016040523d82523d6000602084013e612141565b606091505b50600081511415612187576040517f08c379a000000000000000000000000000000000000000000000000000000000815260040161217e90613a4c565b60405180910390fd5b805181602001fd5b63150b7a0260e01b7bffffffffffffffffffffffffffffffffffffffffffffffffffffffff1916817bffffffffffffffffffffffffffffffffffffffffffffffffffffffff1916149150506121e4565b600190505b949350505050565b6008805490506009600083815260200190815260200160002081905550600881908060018154018082558091505060019003906000526020600020016000909190919091505550565b60006001612242846109ed565b61224c91906138e4565b9050600060076000848152602001908152602001600020549050818114612331576000600660008673ffffffffffffffffffffffffffffffffffffffff1673ffffffffffffffffffffffffffffffffffffffff168152602001908152602001600020600084815260200190815260200160002054905080600660008773ffffffffffffffffffffffffffffffffffffffff1673ffffffffffffffffffffffffffffffffffffffff168152602001908152602001600020600084815260200190815260200160002081905550816007600083815260200190815260200160002081905550505b6007600084815260200190815260200160002060009055600660008573ffffffffffffffffffffffffffffffffffffffff1673ffffffffffffffffffffffffffffffffffffffff16815260200190815260200160002060008381526020019081526020016000206000905550505050565b600060016008805490506123b691906138e4565b90506000600960008481526020019081526020016000205490506000600883815481106123e6576123e56132be565b5b906000526020600020015490508060088381548110612408576124076132be565b5b90600052602060002001819055508160096000838152602001908152602001600020819055506009600085815260200190815260200160002060009055600880548061245757612456613c29565b5b6001900381819060005260206000200160009055905550505050565b600061247e836109ed565b905081600660008573ffffffffffffffffffffffffffffffffffffffff1673ffffffffffffffffffffffffffffffffffffffff168152602001908152602001600020600083815260200190815260200160002081905550806007600084815260200190815260200160002081905550505050565b8280546124fe90612f20565b90600052602060002090601f0160209004810192826125205760008555612567565b82601f1061253957805160ff1916838001178555612567565b82800160010185558215612567579182015b8281111561256657825182559160200191906001019061254b565b5b50905061257491906125e5565b5090565b604051806101a001604052806000801916815260200160608152602001606081526020016060815260200160608152602001606081526020016060815260200160608152602001600081526020016000815260200160001515815260200160008152602001600081525090565b5b808211156125fe5760008160009055506001016125e6565b5090565b6000604051905090565b600080fd5b600080fd5b60007fffffffff0000000000000000000000000000000000000000000000000000000082169050919050565b61264b81612616565b811461265657600080fd5b50565b60008135905061266881612642565b92915050565b6000602082840312156126845761268361260c565b5b600061269284828501612659565b91505092915050565b60008115159050919050565b6126b08161269b565b82525050565b60006020820190506126cb60008301846126a7565b92915050565b600081519050919050565b600082825260208201905092915050565b60005b8381101561270b5780820151818401526020810190506126f0565b8381111561271a576000848401525b50505050565b6000601f19601f8301169050919050565b600061273c826126d1565b61274681856126dc565b93506127568185602086016126ed565b61275f81612720565b840191505092915050565b600060208201905081810360008301526127848184612731565b905092915050565b6000819050919050565b61279f8161278c565b81146127aa57600080fd5b50565b6000813590506127bc81612796565b92915050565b6000602082840312156127d8576127d761260c565b5b60006127e6848285016127ad565b91505092915050565b600073ffffffffffffffffffffffffffffffffffffffff82169050919050565b600061281a826127ef565b9050919050565b61282a8161280f565b82525050565b60006020820190506128456000830184612821565b92915050565b6128548161280f565b811461285f57600080fd5b50565b6000813590506128718161284b565b92915050565b6000806040838503121561288e5761288d61260c565b5b600061289c85828601612862565b92505060206128ad858286016127ad565b9150509250929050565b6128c08161278c565b82525050565b60006020820190506128db60008301846128b7565b92915050565b6000806000606084860312156128fa576128f961260c565b5b600061290886828701612862565b935050602061291986828701612862565b925050604061292a868287016127ad565b9150509250925092565b600080fd5b600080fd5b7f4e487b7100000000000000000000000000000000000000000000000000000000600052604160045260246000fd5b61297682612720565b810181811067ffffffffffffffff821117156129955761299461293e565b5b80604052505050565b60006129a8612602565b90506129b4828261296d565b919050565b600067ffffffffffffffff8211156129d4576129d361293e565b5b6129dd82612720565b9050602081019050919050565b82818337600083830152505050565b6000612a0c612a07846129b9565b61299e565b905082815260208101848484011115612a2857612a27612939565b5b612a338482856129ea565b509392505050565b600082601f830112612a5057612a4f612934565b5b8135612a608482602086016129f9565b91505092915050565b600060208284031215612a7f57612a7e61260c565b5b600082013567ffffffffffffffff811115612a9d57612a9c612611565b5b612aa984828501612a3b565b91505092915050565b600060208284031215612ac857612ac761260c565b5b6000612ad684828501612862565b91505092915050565b6000819050919050565b612af281612adf565b82525050565b600082825260208201905092915050565b6000612b14826126d1565b612b1e8185612af8565b9350612b2e8185602086016126ed565b612b3781612720565b840191505092915050565b612b4b8161278c565b82525050565b612b5a8161269b565b82525050565b60006101a083016000830151612b796000860182612ae9565b5060208301518482036020860152612b918282612b09565b91505060408301518482036040860152612bab8282612b09565b91505060608301518482036060860152612bc58282612b09565b91505060808301518482036080860152612bdf8282612b09565b91505060a083015184820360a0860152612bf98282612b09565b91505060c083015184820360c0860152612c138282612b09565b91505060e083015184820360e0860152612c2d8282612b09565b915050610100830151612c44610100860182612b42565b50610120830151612c59610120860182612b42565b50610140830151612c6e610140860182612b51565b50610160830151612c83610160860182612b42565b50610180830151612c98610180860182612b42565b508091505092915050565b60006020820190508181036000830152612cbd8184612b60565b905092915050565b60008060408385031215612cdc57612cdb61260c565b5b6000612cea858286016127ad565b925050602083013567ffffffffffffffff811115612d0b57612d0a612611565b5b612d1785828601612a3b565b9150509250929050565b612d2a8161269b565b8114612d3557600080fd5b50565b600081359050612d4781612d21565b92915050565b60008060408385031215612d6457612d6361260c565b5b6000612d7285828601612862565b9250506020612d8385828601612d38565b9150509250929050565b600067ffffffffffffffff821115612da857612da761293e565b5b612db182612720565b9050602081019050919050565b6000612dd1612dcc84612d8d565b61299e565b905082815260208101848484011115612ded57612dec612939565b5b612df88482856129ea565b509392505050565b600082601f830112612e1557612e14612934565b5b8135612e25848260208601612dbe565b91505092915050565b60008060008060808587031215612e4857612e4761260c565b5b6000612e5687828801612862565b9450506020612e6787828801612862565b9350506040612e78878288016127ad565b925050606085013567ffffffffffffffff811115612e9957612e98612611565b5b612ea587828801612e00565b91505092959194509250565b60008060408385031215612ec857612ec761260c565b5b6000612ed685828601612862565b9250506020612ee785828601612862565b9150509250929050565b7f4e487b7100000000000000000000000000000000000000000000000000000000600052602260045260246000fd5b60006002820490506001821680612f3857607f821691505b60208210811415612f4c57612f4b612ef1565b5b50919050565b7f4552433732313a20617070726f76656420717565727920666f72206e6f6e657860008201527f697374656e7420746f6b656e0000000000000000000000000000000000000000602082015250565b6000612fae602c836126dc565b9150612fb982612f52565b604082019050919050565b60006020820190508181036000830152612fdd81612fa1565b9050919050565b7f4552433732313a20617070726f76616c20746f2063757272656e74206f776e6560008201527f7200000000000000000000000000000000000000000000000000000000000000602082015250565b60006130406021836126dc565b915061304b82612fe4565b604082019050919050565b6000602082019050818103600083015261306f81613033565b9050919050565b7f4552433732313a20617070726f76652063616c6c6572206973206e6f74206f7760008201527f6e6572206e6f7220617070726f76656420666f7220616c6c0000000000000000602082015250565b60006130d26038836126dc565b91506130dd82613076565b604082019050919050565b60006020820190508181036000830152613101816130c5565b9050919050565b7f4552433732313a207472616e736665722063616c6c6572206973206e6f74206f60008201527f776e6572206e6f7220617070726f766564000000000000000000000000000000602082015250565b60006131646031836126dc565b915061316f82613108565b604082019050919050565b6000602082019050818103600083015261319381613157565b9050919050565b7f455243373231456e756d657261626c653a206f776e657220696e646578206f7560008201527f74206f6620626f756e6473000000000000000000000000000000000000000000602082015250565b60006131f6602b836126dc565b91506132018261319a565b604082019050919050565b60006020820190508181036000830152613225816131e9565b9050919050565b7f455243373231456e756d657261626c653a20676c6f62616c20696e646578206f60008201527f7574206f6620626f756e64730000000000000000000000000000000000000000602082015250565b6000613288602c836126dc565b91506132938261322c565b604082019050919050565b600060208201905081810360008301526132b78161327b565b9050919050565b7f4e487b7100000000000000000000000000000000000000000000000000000000600052603260045260246000fd5b7f4f776e61626c653a2063616c6c6572206973206e6f7420746865206f776e6572600082015250565b60006133236020836126dc565b915061332e826132ed565b602082019050919050565b6000602082019050818103600083015261335281613316565b9050919050565b7f4552433732313a206f776e657220717565727920666f72206e6f6e657869737460008201527f656e7420746f6b656e0000000000000000000000000000000000000000000000602082015250565b60006133b56029836126dc565b91506133c082613359565b604082019050919050565b600060208201905081810360008301526133e4816133a8565b9050919050565b7f4552433732313a2062616c616e636520717565727920666f7220746865207a6560008201527f726f206164647265737300000000000000000000000000000000000000000000602082015250565b6000613447602a836126dc565b9150613452826133eb565b604082019050919050565b600060208201905081810360008301526134768161343a565b9050919050565b7f746f6b656e206e6f74206d696e74656400000000000000000000000000000000600082015250565b60006134b36010836126dc565b91506134be8261347d565b602082019050919050565b600060208201905081810360008301526134e2816134a6565b9050919050565b7f6f6e6c7920746865206f776e6572206f66207468697320646174652063616e2060008201527f6368616e676520697473207469746c6500000000000000000000000000000000602082015250565b60006135456030836126dc565b9150613550826134e9565b604082019050919050565b6000602082019050818103600083015261357481613538565b9050919050565b7f4552433732314d657461646174613a2055524920717565727920666f72206e6f60008201527f6e6578697374656e7420746f6b656e0000000000000000000000000000000000602082015250565b60006135d7602f836126dc565b91506135e28261357b565b604082019050919050565b60006020820190508181036000830152613606816135ca565b9050919050565b600081905092915050565b6000613623826126d1565b61362d818561360d565b935061363d8185602086016126ed565b80840191505092915050565b60006136558285613618565b91506136618284613618565b91508190509392505050565b7f4f776e61626c653a206e6577206f776e657220697320746865207a65726f206160008201527f6464726573730000000000000000000000000000000000000000000000000000602082015250565b60006136c96026836126dc565b91506136d48261366d565b604082019050919050565b600060208201905081810360008301526136f8816136bc565b9050919050565b7f4552433732313a206f70657261746f7220717565727920666f72206e6f6e657860008201527f697374656e7420746f6b656e0000000000000000000000000000000000000000602082015250565b600061375b602c836126dc565b9150613766826136ff565b604082019050919050565b6000602082019050818103600083015261378a8161374e565b9050919050565b7f4552433732313a207472616e73666572206f6620746f6b656e2074686174206960008201527f73206e6f74206f776e0000000000000000000000000000000000000000000000602082015250565b60006137ed6029836126dc565b91506137f882613791565b604082019050919050565b6000602082019050818103600083015261381c816137e0565b9050919050565b7f4552433732313a207472616e7366657220746f20746865207a65726f2061646460008201527f7265737300000000000000000000000000000000000000000000000000000000602082015250565b600061387f6024836126dc565b915061388a82613823565b604082019050919050565b600060208201905081810360008301526138ae81613872565b9050919050565b7f4e487b7100000000000000000000000000000000000000000000000000000000600052601160045260246000fd5b60006138ef8261278c565b91506138fa8361278c565b92508282101561390d5761390c6138b5565b5b828203905092915050565b60006139238261278c565b915061392e8361278c565b9250827fffffffffffffffffffffffffffffffffffffffffffffffffffffffffffffffff03821115613963576139626138b5565b5b828201905092915050565b7f4552433732313a20617070726f766520746f2063616c6c657200000000000000600082015250565b60006139a46019836126dc565b91506139af8261396e565b602082019050919050565b600060208201905081810360008301526139d381613997565b9050919050565b7f4552433732313a207472616e7366657220746f206e6f6e20455243373231526560008201527f63656976657220696d706c656d656e7465720000000000000000000000000000602082015250565b6000613a366032836126dc565b9150613a41826139da565b604082019050919050565b60006020820190508181036000830152613a6581613a29565b9050919050565b6000613a778261278c565b91507fffffffffffffffffffffffffffffffffffffffffffffffffffffffffffffffff821415613aaa57613aa96138b5565b5b600182019050919050565b7f4e487b7100000000000000000000000000000000000000000000000000000000600052601260045260246000fd5b6000613aef8261278c565b9150613afa8361278c565b925082613b0a57613b09613ab5565b5b828204905092915050565b6000613b208261278c565b9150613b2b8361278c565b925082613b3b57613b3a613ab5565b5b828206905092915050565b600081519050919050565b600082825260208201905092915050565b6000613b6d82613b46565b613b778185613b51565b9350613b878185602086016126ed565b613b9081612720565b840191505092915050565b6000608082019050613bb06000830187612821565b613bbd6020830186612821565b613bca60408301856128b7565b8181036060830152613bdc8184613b62565b905095945050505050565b600081519050613bf681612642565b92915050565b600060208284031215613c1257613c1161260c565b5b6000613c2084828501613be7565b91505092915050565b7f4e487b7100000000000000000000000000000000000000000000000000000000600052603160045260246000fdfea2646970667358221220a9f16a549b374eb35f9ad653bbed4f27adc89885f1e439c32a249fe503a9d83964736f6c634300080a003368747470733a2f2f70617065726d6173746572732e696f2f6d696e746964656e746974792f",
  "immutableReferences": {},
  "source": "// SPDX-License-Identifier: MIT\r\npragma solidity >=0.4.22 <0.9.0;\r\n\r\nimport \"@openzeppelin/contracts/access/Ownable.sol\";\r\nimport \"@openzeppelin/contracts/token/ERC721/ERC721.sol\";\r\nimport \"@openzeppelin/contracts/token/ERC721/extensions/ERC721Enumerable.sol\";\r\nimport \"@openzeppelin/contracts/utils/Counters.sol\";\r\n\r\ncontract MintIdentity is ERC721Enumerable, Ownable {\r\n    using Counters for Counters.Counter;\r\n    Counters.Counter private _tokenIds;\r\n\r\n    struct Identity {\r\n        bytes32 uniqueid;\r\n        string name;\r\n        string aka;\r\n        string organization;\r\n        string slogan;\r\n        string description;\r\n        string url;\r\n        string bio;\r\n        uint create;\r\n        uint lastupdated;\r\n        bool valid;\r\n        uint validdate;\r\n        uint validationscore;\r\n    }\r\n\r\n    mapping(uint256=> Identity) id_to_identity;\r\n\r\n    string private _currentBaseURI;\r\n\r\n    constructor() ERC721(\"MintIdentity\", \"IDENT\") {\r\n        setBaseURI(\"https://papermasters.io/mintidentity/\");\r\n        //mint Ramona Andrew and kids\r\n        mintIdentity(\"Ramona\",\"Aka Awesome\",\"Awesome\", \"All Things Wave\", \"CEO\", \"pm\", \"Engineer\");\r\n        mintIdentity(\"Andrew\",\"Aka Super\",\"Super\", \"All Things Wave\", \"CTO\", \"pm\", \"Software\");\r\n        mintIdentity(\"Nautica\",\"Aka Nothing\",\"little\", \"Girl Power\", \"\", \"\", \"Engineer\");\r\n        mintIdentity(\"Ammon\",\"Arm Chopper\",\"boy\", \"Pokemon\", \"\", \"\", \"Trainer\");\r\n    }\r\n\r\n\r\n    function setBaseURI(string memory baseURI) public onlyOwner() {\r\n        _currentBaseURI = baseURI;\r\n    }\r\n\r\n    function _baseURI() internal view virtual override returns (string memory) {\r\n        return _currentBaseURI;\r\n    }\r\n\r\n    function createUniqueId(\r\n        string memory name,\r\n        string memory aka,\r\n        string memory org,\r\n        string memory slogan,\r\n        string memory description,\r\n        string memory url,\r\n        string memory bio) private view returns(bytes32) {\r\n        return keccak256(abi.encodePacked(name, aka, org, slogan, description, url, bio, block.timestamp));\r\n    }\r\n\r\n    function getTokenIdentity(uint256 tokenId) public view returns (\r\n        Identity memory ident\r\n        ) {\r\n            ident = id_to_identity[tokenId];\r\n    }\r\n\r\n    function mintIdentity (\r\n        string memory name,\r\n        string memory aka,\r\n        string memory org,\r\n        string memory slogan,\r\n        string memory description,\r\n        string memory url,\r\n        string memory bio) internal {\r\n            bytes32 uniqueId = createUniqueId(name, aka, org, slogan, description, url, bio);\r\n            id_to_identity[_tokenIds.current()] = Identity(uniqueId,name, aka, org, slogan, description,\r\n                url, bio, block.timestamp, block.timestamp, false, 0, 0);\r\n            _safeMint(msg.sender,_tokenIds.current());\r\n            _tokenIds.increment();\r\n\r\n    }\r\n\r\n\r\n\r\n\r\n    function changeFirstName(uint256 tokenId, string memory newName)  public {\r\n        require(_exists(tokenId), \"token not minted\");\r\n        require(ownerOf(tokenId) == msg.sender, \"only the owner of this date can change its title\");\r\n        id_to_identity[tokenId].name = newName;\r\n        changeLastUpdated(tokenId);\r\n    }\r\n\r\n    function changeLastUpdated(uint256 tokenId) private {\r\n        require(_exists(tokenId), \"token not minted\");\r\n        require(ownerOf(tokenId) == msg.sender, \"only the owner of this date can change its title\");\r\n        id_to_identity[tokenId].lastupdated = block.timestamp;\r\n    }\r\n}\r\n",
  "sourcePath": "/home/user/MintIdentityTPM/truffle/contracts/MintIdentity.sol",
  "compiler": {
    "name": "solc",
    "version": "0.8.10+commit.fc410830.Emscripten.clang"
  },
  "schemaVersion": "3.4.4",
  "updatedAt": "2021-12-30T01:55:12.512Z",
  "networkType": "ethereum",
  "devdoc": {
    "kind": "dev",
    "methods": {
      "approve(address,uint256)": {
        "details": "See {IERC721-approve}."
      },
      "balanceOf(address)": {
        "details": "See {IERC721-balanceOf}."
      },
      "getApproved(uint256)": {
        "details": "See {IERC721-getApproved}."
      },
      "isApprovedForAll(address,address)": {
        "details": "See {IERC721-isApprovedForAll}."
      },
      "name()": {
        "details": "See {IERC721Metadata-name}."
      },
      "owner()": {
        "details": "Returns the address of the current owner."
      },
      "ownerOf(uint256)": {
        "details": "See {IERC721-ownerOf}."
      },
      "renounceOwnership()": {
        "details": "Leaves the contract without owner. It will not be possible to call `onlyOwner` functions anymore. Can only be called by the current owner. NOTE: Renouncing ownership will leave the contract without an owner, thereby removing any functionality that is only available to the owner."
      },
      "safeTransferFrom(address,address,uint256)": {
        "details": "See {IERC721-safeTransferFrom}."
      },
      "safeTransferFrom(address,address,uint256,bytes)": {
        "details": "See {IERC721-safeTransferFrom}."
      },
      "setApprovalForAll(address,bool)": {
        "details": "See {IERC721-setApprovalForAll}."
      },
      "supportsInterface(bytes4)": {
        "details": "See {IERC165-supportsInterface}."
      },
      "symbol()": {
        "details": "See {IERC721Metadata-symbol}."
      },
      "tokenByIndex(uint256)": {
        "details": "See {IERC721Enumerable-tokenByIndex}."
      },
      "tokenOfOwnerByIndex(address,uint256)": {
        "details": "See {IERC721Enumerable-tokenOfOwnerByIndex}."
      },
      "tokenURI(uint256)": {
        "details": "See {IERC721Metadata-tokenURI}."
      },
      "totalSupply()": {
        "details": "See {IERC721Enumerable-totalSupply}."
      },
      "transferFrom(address,address,uint256)": {
        "details": "See {IERC721-transferFrom}."
      },
      "transferOwnership(address)": {
        "details": "Transfers ownership of the contract to a new account (`newOwner`). Can only be called by the current owner."
      }
    },
    "version": 1
  },
  "userdoc": {
    "kind": "user",
    "methods": {},
    "version": 1
  }
}