{
  "contractName": "MintIdentity",
  "abi": [
    {
      "inputs": [],
      "stateMutability": "nonpayable",
      "type": "constructor"
    },
    {
      "anonymous": false,
      "inputs": [
        {
          "indexed": true,
          "internalType": "address",
          "name": "owner",
          "type": "address"
        },
        {
          "indexed": true,
          "internalType": "address",
          "name": "approved",
          "type": "address"
        },
        {
          "indexed": true,
          "internalType": "uint256",
          "name": "tokenId",
          "type": "uint256"
        }
      ],
      "name": "Approval",
      "type": "event"
    },
    {
      "anonymous": false,
      "inputs": [
        {
          "indexed": true,
          "internalType": "address",
          "name": "owner",
          "type": "address"
        },
        {
          "indexed": true,
          "internalType": "address",
          "name": "operator",
          "type": "address"
        },
        {
          "indexed": false,
          "internalType": "bool",
          "name": "approved",
          "type": "bool"
        }
      ],
      "name": "ApprovalForAll",
      "type": "event"
    },
    {
      "anonymous": false,
      "inputs": [
        {
          "indexed": true,
          "internalType": "address",
          "name": "previousOwner",
          "type": "address"
        },
        {
          "indexed": true,
          "internalType": "address",
          "name": "newOwner",
          "type": "address"
        }
      ],
      "name": "OwnershipTransferred",
      "type": "event"
    },
    {
      "anonymous": false,
      "inputs": [
        {
          "indexed": true,
          "internalType": "address",
          "name": "from",
          "type": "address"
        },
        {
          "indexed": true,
          "internalType": "address",
          "name": "to",
          "type": "address"
        },
        {
          "indexed": true,
          "internalType": "uint256",
          "name": "tokenId",
          "type": "uint256"
        }
      ],
      "name": "Transfer",
      "type": "event"
    },
    {
      "inputs": [
        {
          "internalType": "address",
          "name": "to",
          "type": "address"
        },
        {
          "internalType": "uint256",
          "name": "tokenId",
          "type": "uint256"
        }
      ],
      "name": "approve",
      "outputs": [],
      "stateMutability": "nonpayable",
      "type": "function"
    },
    {
      "inputs": [
        {
          "internalType": "address",
          "name": "owner",
          "type": "address"
        }
      ],
      "name": "balanceOf",
      "outputs": [
        {
          "internalType": "uint256",
          "name": "",
          "type": "uint256"
        }
      ],
      "stateMutability": "view",
      "type": "function",
      "constant": true
    },
    {
      "inputs": [
        {
          "internalType": "uint256",
          "name": "tokenId",
          "type": "uint256"
        }
      ],
      "name": "getApproved",
      "outputs": [
        {
          "internalType": "address",
          "name": "",
          "type": "address"
        }
      ],
      "stateMutability": "view",
      "type": "function",
      "constant": true
    },
    {
      "inputs": [
        {
          "internalType": "address",
          "name": "owner",
          "type": "address"
        },
        {
          "internalType": "address",
          "name": "operator",
          "type": "address"
        }
      ],
      "name": "isApprovedForAll",
      "outputs": [
        {
          "internalType": "bool",
          "name": "",
          "type": "bool"
        }
      ],
      "stateMutability": "view",
      "type": "function",
      "constant": true
    },
    {
      "inputs": [],
      "name": "name",
      "outputs": [
        {
          "internalType": "string",
          "name": "",
          "type": "string"
        }
      ],
      "stateMutability": "view",
      "type": "function",
      "constant": true
    },
    {
      "inputs": [],
      "name": "owner",
      "outputs": [
        {
          "internalType": "address",
          "name": "",
          "type": "address"
        }
      ],
      "stateMutability": "view",
      "type": "function",
      "constant": true
    },
    {
      "inputs": [
        {
          "internalType": "uint256",
          "name": "tokenId",
          "type": "uint256"
        }
      ],
      "name": "ownerOf",
      "outputs": [
        {
          "internalType": "address",
          "name": "",
          "type": "address"
        }
      ],
      "stateMutability": "view",
      "type": "function",
      "constant": true
    },
    {
      "inputs": [],
      "name": "renounceOwnership",
      "outputs": [],
      "stateMutability": "nonpayable",
      "type": "function"
    },
    {
      "inputs": [
        {
          "internalType": "address",
          "name": "from",
          "type": "address"
        },
        {
          "internalType": "address",
          "name": "to",
          "type": "address"
        },
        {
          "internalType": "uint256",
          "name": "tokenId",
          "type": "uint256"
        }
      ],
      "name": "safeTransferFrom",
      "outputs": [],
      "stateMutability": "nonpayable",
      "type": "function"
    },
    {
      "inputs": [
        {
          "internalType": "address",
          "name": "from",
          "type": "address"
        },
        {
          "internalType": "address",
          "name": "to",
          "type": "address"
        },
        {
          "internalType": "uint256",
          "name": "tokenId",
          "type": "uint256"
        },
        {
          "internalType": "bytes",
          "name": "_data",
          "type": "bytes"
        }
      ],
      "name": "safeTransferFrom",
      "outputs": [],
      "stateMutability": "nonpayable",
      "type": "function"
    },
    {
      "inputs": [
        {
          "internalType": "address",
          "name": "operator",
          "type": "address"
        },
        {
          "internalType": "bool",
          "name": "approved",
          "type": "bool"
        }
      ],
      "name": "setApprovalForAll",
      "outputs": [],
      "stateMutability": "nonpayable",
      "type": "function"
    },
    {
      "inputs": [
        {
          "internalType": "bytes4",
          "name": "interfaceId",
          "type": "bytes4"
        }
      ],
      "name": "supportsInterface",
      "outputs": [
        {
          "internalType": "bool",
          "name": "",
          "type": "bool"
        }
      ],
      "stateMutability": "view",
      "type": "function",
      "constant": true
    },
    {
      "inputs": [],
      "name": "symbol",
      "outputs": [
        {
          "internalType": "string",
          "name": "",
          "type": "string"
        }
      ],
      "stateMutability": "view",
      "type": "function",
      "constant": true
    },
    {
      "inputs": [
        {
          "internalType": "uint256",
          "name": "index",
          "type": "uint256"
        }
      ],
      "name": "tokenByIndex",
      "outputs": [
        {
          "internalType": "uint256",
          "name": "",
          "type": "uint256"
        }
      ],
      "stateMutability": "view",
      "type": "function",
      "constant": true
    },
    {
      "inputs": [
        {
          "internalType": "address",
          "name": "owner",
          "type": "address"
        },
        {
          "internalType": "uint256",
          "name": "index",
          "type": "uint256"
        }
      ],
      "name": "tokenOfOwnerByIndex",
      "outputs": [
        {
          "internalType": "uint256",
          "name": "",
          "type": "uint256"
        }
      ],
      "stateMutability": "view",
      "type": "function",
      "constant": true
    },
    {
      "inputs": [
        {
          "internalType": "uint256",
          "name": "tokenId",
          "type": "uint256"
        }
      ],
      "name": "tokenURI",
      "outputs": [
        {
          "internalType": "string",
          "name": "",
          "type": "string"
        }
      ],
      "stateMutability": "view",
      "type": "function",
      "constant": true
    },
    {
      "inputs": [],
      "name": "totalSupply",
      "outputs": [
        {
          "internalType": "uint256",
          "name": "",
          "type": "uint256"
        }
      ],
      "stateMutability": "view",
      "type": "function",
      "constant": true
    },
    {
      "inputs": [
        {
          "internalType": "address",
          "name": "from",
          "type": "address"
        },
        {
          "internalType": "address",
          "name": "to",
          "type": "address"
        },
        {
          "internalType": "uint256",
          "name": "tokenId",
          "type": "uint256"
        }
      ],
      "name": "transferFrom",
      "outputs": [],
      "stateMutability": "nonpayable",
      "type": "function"
    },
    {
      "inputs": [
        {
          "internalType": "address",
          "name": "newOwner",
          "type": "address"
        }
      ],
      "name": "transferOwnership",
      "outputs": [],
      "stateMutability": "nonpayable",
      "type": "function"
    },
    {
      "inputs": [
        {
          "internalType": "string",
          "name": "baseURI",
          "type": "string"
        }
      ],
      "name": "setBaseURI",
      "outputs": [],
      "stateMutability": "nonpayable",
      "type": "function"
    },
    {
      "inputs": [
        {
          "internalType": "uint256",
          "name": "tokenId",
          "type": "uint256"
        }
      ],
      "name": "getTokenIdentity",
      "outputs": [
        {
          "components": [
            {
              "internalType": "bytes32",
              "name": "uniqueid",
              "type": "bytes32"
            },
            {
              "internalType": "string",
              "name": "name",
              "type": "string"
            },
            {
              "internalType": "string",
              "name": "aka",
              "type": "string"
            },
            {
              "internalType": "string",
              "name": "organization",
              "type": "string"
            },
            {
              "internalType": "string",
              "name": "slogan",
              "type": "string"
            },
            {
              "internalType": "string",
              "name": "description",
              "type": "string"
            },
            {
              "internalType": "string",
              "name": "url",
              "type": "string"
            },
            {
              "internalType": "string",
              "name": "bio",
              "type": "string"
            },
            {
              "internalType": "uint256",
              "name": "created",
              "type": "uint256"
            },
            {
              "internalType": "uint256",
              "name": "lastupdated",
              "type": "uint256"
            },
            {
              "internalType": "bool",
              "name": "valid",
              "type": "bool"
            },
            {
              "internalType": "uint256",
              "name": "validdate",
              "type": "uint256"
            },
            {
              "internalType": "uint256",
              "name": "validationscore",
              "type": "uint256"
            }
          ],
          "internalType": "struct MintIdentity.Identity",
          "name": "ident",
          "type": "tuple"
        }
      ],
      "stateMutability": "view",
      "type": "function",
      "constant": true
    },
    {
      "inputs": [
        {
          "internalType": "uint256",
          "name": "tokenId",
          "type": "uint256"
        },
        {
          "internalType": "string",
          "name": "newName",
          "type": "string"
        }
      ],
      "name": "changeName",
      "outputs": [],
      "stateMutability": "nonpayable",
      "type": "function"
    },
    {
      "inputs": [
        {
          "internalType": "uint256",
          "name": "tokenId",
          "type": "uint256"
        },
        {
          "internalType": "string",
          "name": "newAKA",
          "type": "string"
        }
      ],
      "name": "changeAKA",
      "outputs": [],
      "stateMutability": "nonpayable",
      "type": "function"
    },
    {
      "inputs": [
        {
          "internalType": "uint256",
          "name": "tokenId",
          "type": "uint256"
        },
        {
          "internalType": "string",
          "name": "newSlogan",
          "type": "string"
        }
      ],
      "name": "changeSlogan",
      "outputs": [],
      "stateMutability": "nonpayable",
      "type": "function"
    },
    {
      "inputs": [
        {
          "internalType": "uint256",
          "name": "tokenId",
          "type": "uint256"
        },
        {
          "internalType": "string",
          "name": "newDescription",
          "type": "string"
        }
      ],
      "name": "changeDescription",
      "outputs": [],
      "stateMutability": "nonpayable",
      "type": "function"
    },
    {
      "inputs": [
        {
          "internalType": "uint256",
          "name": "tokenId",
          "type": "uint256"
        },
        {
          "internalType": "string",
          "name": "newURL",
          "type": "string"
        }
      ],
      "name": "changeURL",
      "outputs": [],
      "stateMutability": "nonpayable",
      "type": "function"
    },
    {
      "inputs": [
        {
          "internalType": "uint256",
          "name": "tokenId",
          "type": "uint256"
        },
        {
          "internalType": "string",
          "name": "newBio",
          "type": "string"
        }
      ],
      "name": "changeBio",
      "outputs": [],
      "stateMutability": "nonpayable",
      "type": "function"
    }
  ],
  "bytecode": "0x60806040523480156200001157600080fd5b506040518060400160405280600c81526020017f4d696e744964656e7469747900000000000000000000000000000000000000008152506040518060400160405280600581526020017f4944454e5400000000000000000000000000000000000000000000000000000081525081600090805190602001906200009692919062001068565b508060019080519060200190620000af92919062001068565b505050620000d2620000c66200026660201b60201c565b6200026e60201b60201c565b620000fc6040518060600160405280602581526020016200596a602591396200033460201b60201c565b620002606040518060400160405280600681526020017f416e6472657700000000000000000000000000000000000000000000000000008152506040518060400160405280600b81526020017f72616d6f6e616a656e6e790000000000000000000000000000000000000000008152506040518060400160405280600c81526020017f50617065724d61737465727300000000000000000000000000000000000000008152506040518060400160405280600f81526020017f416c6c207468696e677320576176650000000000000000000000000000000000815250604051806020016040528060008152506040518060400160405280601681526020017f687474703a2f2f72616d6f6e616a656e6e792e636f6d000000000000000000008152506040518060400160405280600881526020017f456e67696e656572000000000000000000000000000000000000000000000000815250620003df60201b60201c565b6200181d565b600033905090565b6000600a60009054906101000a900473ffffffffffffffffffffffffffffffffffffffff16905081600a60006101000a81548173ffffffffffffffffffffffffffffffffffffffff021916908373ffffffffffffffffffffffffffffffffffffffff1602179055508173ffffffffffffffffffffffffffffffffffffffff168173ffffffffffffffffffffffffffffffffffffffff167f8be0079c531659141344cd1fd0a4f28419497f9722a3daafe3b4186f6b6457e060405160405180910390a35050565b620003446200026660201b60201c565b73ffffffffffffffffffffffffffffffffffffffff166200036a620005fc60201b60201c565b73ffffffffffffffffffffffffffffffffffffffff1614620003c3576040517f08c379a0000000000000000000000000000000000000000000000000000000008152600401620003ba9062001179565b60405180910390fd5b80600d9080519060200190620003db92919062001068565b5050565b6000620003f8888888888888886200062660201b60201c565b9050604051806101a00160405280828152602001898152602001888152602001878152602001868152602001858152602001848152602001838152602001428152602001428152602001600015158152602001600081526020016000815250600c600062000472600b6200066c60201b6200198e1760201c565b8152602001908152602001600020600082015181600001556020820151816001019080519060200190620004a892919062001068565b506040820151816002019080519060200190620004c792919062001068565b506060820151816003019080519060200190620004e692919062001068565b5060808201518160040190805190602001906200050592919062001068565b5060a08201518160050190805190602001906200052492919062001068565b5060c08201518160060190805190602001906200054392919062001068565b5060e08201518160070190805190602001906200056292919062001068565b506101008201518160080155610120820151816009015561014082015181600a0160006101000a81548160ff02191690831515021790555061016082015181600b015561018082015181600c0155905050620005db33620005cf600b6200066c60201b6200198e1760201c565b6200067a60201b60201c565b620005f2600b620006a060201b6200199c1760201c565b5050505050505050565b6000600a60009054906101000a900473ffffffffffffffffffffffffffffffffffffffff16905090565b60008787878787878742604051602001620006499897969594939291906200124d565b604051602081830303815290604052805190602001209050979650505050505050565b600081600001549050919050565b6200069c828260405180602001604052806000815250620006b660201b60201c565b5050565b6001816000016000828254019250508190555050565b620006c883836200072460201b60201c565b620006dd60008484846200090a60201b60201c565b6200071f576040517f08c379a0000000000000000000000000000000000000000000000000000000008152600401620007169062001349565b60405180910390fd5b505050565b600073ffffffffffffffffffffffffffffffffffffffff168273ffffffffffffffffffffffffffffffffffffffff16141562000797576040517f08c379a00000000000000000000000000000000000000000000000000000000081526004016200078e90620013bb565b60405180910390fd5b620007a88162000ab460201b60201c565b15620007eb576040517f08c379a0000000000000000000000000000000000000000000000000000000008152600401620007e2906200142d565b60405180910390fd5b620007ff6000838362000b2060201b60201c565b6001600360008473ffffffffffffffffffffffffffffffffffffffff1673ffffffffffffffffffffffffffffffffffffffff16815260200190815260200160002060008282546200085191906200147e565b92505081905550816002600083815260200190815260200160002060006101000a81548173ffffffffffffffffffffffffffffffffffffffff021916908373ffffffffffffffffffffffffffffffffffffffff160217905550808273ffffffffffffffffffffffffffffffffffffffff16600073ffffffffffffffffffffffffffffffffffffffff167fddf252ad1be2c89b69c2b068fc378daa952ba7f163c4a11628f55a4df523b3ef60405160405180910390a45050565b6000620009388473ffffffffffffffffffffffffffffffffffffffff1662000c6760201b620019b21760201c565b1562000aa7578373ffffffffffffffffffffffffffffffffffffffff1663150b7a026200096a6200026660201b60201c565b8786866040518563ffffffff1660e01b81526004016200098e94939291906200159f565b6020604051808303816000875af1925050508015620009cd57506040513d601f19601f82011682018060405250810190620009ca919062001655565b60015b62000a56573d806000811462000a00576040519150601f19603f3d011682016040523d82523d6000602084013e62000a05565b606091505b5060008151141562000a4e576040517f08c379a000000000000000000000000000000000000000000000000000000000815260040162000a459062001349565b60405180910390fd5b805181602001fd5b63150b7a0260e01b7bffffffffffffffffffffffffffffffffffffffffffffffffffffffff1916817bffffffffffffffffffffffffffffffffffffffffffffffffffffffff19161491505062000aac565b600190505b949350505050565b60008073ffffffffffffffffffffffffffffffffffffffff166002600084815260200190815260200160002060009054906101000a900473ffffffffffffffffffffffffffffffffffffffff1673ffffffffffffffffffffffffffffffffffffffff1614159050919050565b62000b3883838362000c7a60201b620019c51760201c565b600073ffffffffffffffffffffffffffffffffffffffff168373ffffffffffffffffffffffffffffffffffffffff16141562000b855762000b7f8162000c7f60201b60201c565b62000bcd565b8173ffffffffffffffffffffffffffffffffffffffff168373ffffffffffffffffffffffffffffffffffffffff161462000bcc5762000bcb838262000cc860201b60201c565b5b5b600073ffffffffffffffffffffffffffffffffffffffff168273ffffffffffffffffffffffffffffffffffffffff16141562000c1a5762000c148162000e4560201b60201c565b62000c62565b8273ffffffffffffffffffffffffffffffffffffffff168273ffffffffffffffffffffffffffffffffffffffff161462000c615762000c60828262000f2160201b60201c565b5b5b505050565b600080823b905060008111915050919050565b505050565b6008805490506009600083815260200190815260200160002081905550600881908060018154018082558091505060019003906000526020600020016000909190919091505550565b6000600162000ce28462000fad60201b62000cba1760201c565b62000cee919062001687565b905060006007600084815260200190815260200160002054905081811462000dd4576000600660008673ffffffffffffffffffffffffffffffffffffffff1673ffffffffffffffffffffffffffffffffffffffff168152602001908152602001600020600084815260200190815260200160002054905080600660008773ffffffffffffffffffffffffffffffffffffffff1673ffffffffffffffffffffffffffffffffffffffff168152602001908152602001600020600084815260200190815260200160002081905550816007600083815260200190815260200160002081905550505b6007600084815260200190815260200160002060009055600660008573ffffffffffffffffffffffffffffffffffffffff1673ffffffffffffffffffffffffffffffffffffffff16815260200190815260200160002060008381526020019081526020016000206000905550505050565b6000600160088054905062000e5b919062001687565b905060006009600084815260200190815260200160002054905060006008838154811062000e8e5762000e8d620016c2565b5b90600052602060002001549050806008838154811062000eb35762000eb2620016c2565b5b90600052602060002001819055508160096000838152602001908152602001600020819055506009600085815260200190815260200160002060009055600880548062000f055762000f04620016f1565b5b6001900381819060005260206000200160009055905550505050565b600062000f398362000fad60201b62000cba1760201c565b905081600660008573ffffffffffffffffffffffffffffffffffffffff1673ffffffffffffffffffffffffffffffffffffffff168152602001908152602001600020600083815260200190815260200160002081905550806007600084815260200190815260200160002081905550505050565b60008073ffffffffffffffffffffffffffffffffffffffff168273ffffffffffffffffffffffffffffffffffffffff16141562001021576040517f08c379a0000000000000000000000000000000000000000000000000000000008152600401620010189062001796565b60405180910390fd5b600360008373ffffffffffffffffffffffffffffffffffffffff1673ffffffffffffffffffffffffffffffffffffffff168152602001908152602001600020549050919050565b8280546200107690620017e7565b90600052602060002090601f0160209004810192826200109a5760008555620010e6565b82601f10620010b557805160ff1916838001178555620010e6565b82800160010185558215620010e6579182015b82811115620010e5578251825591602001919060010190620010c8565b5b509050620010f59190620010f9565b5090565b5b8082111562001114576000816000905550600101620010fa565b5090565b600082825260208201905092915050565b7f4f776e61626c653a2063616c6c6572206973206e6f7420746865206f776e6572600082015250565b60006200116160208362001118565b91506200116e8262001129565b602082019050919050565b60006020820190508181036000830152620011948162001152565b9050919050565b600081519050919050565b600081905092915050565b60005b83811015620011d1578082015181840152602081019050620011b4565b83811115620011e1576000848401525b50505050565b6000620011f4826200119b565b620012008185620011a6565b935062001212818560208601620011b1565b80840191505092915050565b6000819050919050565b6000819050919050565b6200124762001241826200121e565b62001228565b82525050565b60006200125b828b620011e7565b915062001269828a620011e7565b9150620012778289620011e7565b9150620012858288620011e7565b9150620012938287620011e7565b9150620012a18286620011e7565b9150620012af8285620011e7565b9150620012bd828462001232565b6020820191508190509998505050505050505050565b7f4552433732313a207472616e7366657220746f206e6f6e20455243373231526560008201527f63656976657220696d706c656d656e7465720000000000000000000000000000602082015250565b60006200133160328362001118565b91506200133e82620012d3565b604082019050919050565b60006020820190508181036000830152620013648162001322565b9050919050565b7f4552433732313a206d696e7420746f20746865207a65726f2061646472657373600082015250565b6000620013a360208362001118565b9150620013b0826200136b565b602082019050919050565b60006020820190508181036000830152620013d68162001394565b9050919050565b7f4552433732313a20746f6b656e20616c7265616479206d696e74656400000000600082015250565b600062001415601c8362001118565b91506200142282620013dd565b602082019050919050565b60006020820190508181036000830152620014488162001406565b9050919050565b7f4e487b7100000000000000000000000000000000000000000000000000000000600052601160045260246000fd5b60006200148b826200121e565b915062001498836200121e565b9250827fffffffffffffffffffffffffffffffffffffffffffffffffffffffffffffffff03821115620014d057620014cf6200144f565b5b828201905092915050565b600073ffffffffffffffffffffffffffffffffffffffff82169050919050565b60006200150882620014db565b9050919050565b6200151a81620014fb565b82525050565b6200152b816200121e565b82525050565b600081519050919050565b600082825260208201905092915050565b6000601f19601f8301169050919050565b60006200156b8262001531565b6200157781856200153c565b935062001589818560208601620011b1565b62001594816200154d565b840191505092915050565b6000608082019050620015b660008301876200150f565b620015c560208301866200150f565b620015d4604083018562001520565b8181036060830152620015e881846200155e565b905095945050505050565b600080fd5b60007fffffffff0000000000000000000000000000000000000000000000000000000082169050919050565b6200162f81620015f8565b81146200163b57600080fd5b50565b6000815190506200164f8162001624565b92915050565b6000602082840312156200166e576200166d620015f3565b5b60006200167e848285016200163e565b91505092915050565b600062001694826200121e565b9150620016a1836200121e565b925082821015620016b757620016b66200144f565b5b828203905092915050565b7f4e487b7100000000000000000000000000000000000000000000000000000000600052603260045260246000fd5b7f4e487b7100000000000000000000000000000000000000000000000000000000600052603160045260246000fd5b7f4552433732313a2062616c616e636520717565727920666f7220746865207a6560008201527f726f206164647265737300000000000000000000000000000000000000000000602082015250565b60006200177e602a8362001118565b91506200178b8262001720565b604082019050919050565b60006020820190508181036000830152620017b1816200176f565b9050919050565b7f4e487b7100000000000000000000000000000000000000000000000000000000600052602260045260246000fd5b600060028204905060018216806200180057607f821691505b60208210811415620018175762001816620017b8565b5b50919050565b61413d806200182d6000396000f3fe608060405234801561001057600080fd5b50600436106101a95760003560e01c806370a08231116100f9578063b88d4fde11610097578063de6a06ed11610071578063de6a06ed146104c8578063e985e9c5146104e4578063ec048b7814610514578063f2fde38b14610530576101a9565b8063b88d4fde14610460578063c39cbef11461047c578063c87b56dd14610498576101a9565b806373b286bb116100d357806373b286bb146103ec5780638da5cb5b1461040857806395d89b4114610426578063a22cb46514610444576101a9565b806370a0823114610382578063715018a6146103b25780637272bf7d146103bc576101a9565b80632f745c59116101665780634f6ccce7116101405780634f6ccce7146102ea57806355f804b31461031a5780636352211e1461033657806365bd71f414610366576101a9565b80632f745c591461028257806342842e0e146102b25780634d426528146102ce576101a9565b806301ffc9a7146101ae57806306fdde03146101de578063081812fc146101fc578063095ea7b31461022c57806318160ddd1461024857806323b872dd14610266575b600080fd5b6101c860048036038101906101c39190612b1d565b61054c565b6040516101d59190612b65565b60405180910390f35b6101e66105c6565b6040516101f39190612c19565b60405180910390f35b61021660048036038101906102119190612c71565b610658565b6040516102239190612cdf565b60405180910390f35b61024660048036038101906102419190612d26565b6106dd565b005b6102506107f5565b60405161025d9190612d75565b60405180910390f35b610280600480360381019061027b9190612d90565b610802565b005b61029c60048036038101906102979190612d26565b610862565b6040516102a99190612d75565b60405180910390f35b6102cc60048036038101906102c79190612d90565b610907565b005b6102e860048036038101906102e39190612f18565b610927565b005b61030460048036038101906102ff9190612c71565b610a14565b6040516103119190612d75565b60405180910390f35b610334600480360381019061032f9190612f74565b610a85565b005b610350600480360381019061034b9190612c71565b610b1b565b60405161035d9190612cdf565b60405180910390f35b610380600480360381019061037b9190612f18565b610bcd565b005b61039c60048036038101906103979190612fbd565b610cba565b6040516103a99190612d75565b60405180910390f35b6103ba610d72565b005b6103d660048036038101906103d19190612c71565b610dfa565b6040516103e391906131ae565b60405180910390f35b61040660048036038101906104019190612f18565b611273565b005b610410611360565b60405161041d9190612cdf565b60405180910390f35b61042e61138a565b60405161043b9190612c19565b60405180910390f35b61045e600480360381019061045991906131fc565b61141c565b005b61047a600480360381019061047591906132dd565b611432565b005b61049660048036038101906104919190612f18565b611494565b005b6104b260048036038101906104ad9190612c71565b611581565b6040516104bf9190612c19565b60405180910390f35b6104e260048036038101906104dd9190612f18565b611628565b005b6104fe60048036038101906104f99190613360565b611715565b60405161050b9190612b65565b60405180910390f35b61052e60048036038101906105299190612f18565b6117a9565b005b61054a60048036038101906105459190612fbd565b611896565b005b60007f780e9d63000000000000000000000000000000000000000000000000000000007bffffffffffffffffffffffffffffffffffffffffffffffffffffffff1916827bffffffffffffffffffffffffffffffffffffffffffffffffffffffff191614806105bf57506105be826119ca565b5b9050919050565b6060600080546105d5906133cf565b80601f0160208091040260200160405190810160405280929190818152602001828054610601906133cf565b801561064e5780601f106106235761010080835404028352916020019161064e565b820191906000526020600020905b81548152906001019060200180831161063157829003601f168201915b5050505050905090565b600061066382611aac565b6106a2576040517f08c379a000000000000000000000000000000000000000000000000000000000815260040161069990613473565b60405180910390fd5b6004600083815260200190815260200160002060009054906101000a900473ffffffffffffffffffffffffffffffffffffffff169050919050565b60006106e882610b1b565b90508073ffffffffffffffffffffffffffffffffffffffff168373ffffffffffffffffffffffffffffffffffffffff161415610759576040517f08c379a000000000000000000000000000000000000000000000000000000000815260040161075090613505565b60405180910390fd5b8073ffffffffffffffffffffffffffffffffffffffff16610778611b18565b73ffffffffffffffffffffffffffffffffffffffff1614806107a757506107a6816107a1611b18565b611715565b5b6107e6576040517f08c379a00000000000000000000000000000000000000000000000000000000081526004016107dd90613597565b60405180910390fd5b6107f08383611b20565b505050565b6000600880549050905090565b61081361080d611b18565b82611bd9565b610852576040517f08c379a000000000000000000000000000000000000000000000000000000000815260040161084990613629565b60405180910390fd5b61085d838383611cb7565b505050565b600061086d83610cba565b82106108ae576040517f08c379a00000000000000000000000000000000000000000000000000000000081526004016108a5906136bb565b60405180910390fd5b600660008473ffffffffffffffffffffffffffffffffffffffff1673ffffffffffffffffffffffffffffffffffffffff168152602001908152602001600020600083815260200190815260200160002054905092915050565b61092283838360405180602001604052806000815250611432565b505050565b61093082611aac565b61096f576040517f08c379a000000000000000000000000000000000000000000000000000000000815260040161096690613727565b60405180910390fd5b3373ffffffffffffffffffffffffffffffffffffffff1661098f83610b1b565b73ffffffffffffffffffffffffffffffffffffffff16146109e5576040517f08c379a00000000000000000000000000000000000000000000000000000000081526004016109dc906137b9565b60405180910390fd5b80600c60008481526020019081526020016000206007019080519060200190610a0f9291906129a1565b505050565b6000610a1e6107f5565b8210610a5f576040517f08c379a0000000000000000000000000000000000000000000000000000000008152600401610a569061384b565b60405180910390fd5b60088281548110610a7357610a7261386b565b5b90600052602060002001549050919050565b610a8d611b18565b73ffffffffffffffffffffffffffffffffffffffff16610aab611360565b73ffffffffffffffffffffffffffffffffffffffff1614610b01576040517f08c379a0000000000000000000000000000000000000000000000000000000008152600401610af8906138e6565b60405180910390fd5b80600d9080519060200190610b179291906129a1565b5050565b6000806002600084815260200190815260200160002060009054906101000a900473ffffffffffffffffffffffffffffffffffffffff169050600073ffffffffffffffffffffffffffffffffffffffff168173ffffffffffffffffffffffffffffffffffffffff161415610bc4576040517f08c379a0000000000000000000000000000000000000000000000000000000008152600401610bbb90613978565b60405180910390fd5b80915050919050565b610bd682611aac565b610c15576040517f08c379a0000000000000000000000000000000000000000000000000000000008152600401610c0c90613727565b60405180910390fd5b3373ffffffffffffffffffffffffffffffffffffffff16610c3583610b1b565b73ffffffffffffffffffffffffffffffffffffffff1614610c8b576040517f08c379a0000000000000000000000000000000000000000000000000000000008152600401610c82906137b9565b60405180910390fd5b80600c60008481526020019081526020016000206002019080519060200190610cb59291906129a1565b505050565b60008073ffffffffffffffffffffffffffffffffffffffff168273ffffffffffffffffffffffffffffffffffffffff161415610d2b576040517f08c379a0000000000000000000000000000000000000000000000000000000008152600401610d2290613a0a565b60405180910390fd5b600360008373ffffffffffffffffffffffffffffffffffffffff1673ffffffffffffffffffffffffffffffffffffffff168152602001908152602001600020549050919050565b610d7a611b18565b73ffffffffffffffffffffffffffffffffffffffff16610d98611360565b73ffffffffffffffffffffffffffffffffffffffff1614610dee576040517f08c379a0000000000000000000000000000000000000000000000000000000008152600401610de5906138e6565b60405180910390fd5b610df86000611f13565b565b610e02612a27565b600c6000838152602001908152602001600020604051806101a001604052908160008201548152602001600182018054610e3b906133cf565b80601f0160208091040260200160405190810160405280929190818152602001828054610e67906133cf565b8015610eb45780601f10610e8957610100808354040283529160200191610eb4565b820191906000526020600020905b815481529060010190602001808311610e9757829003601f168201915b50505050508152602001600282018054610ecd906133cf565b80601f0160208091040260200160405190810160405280929190818152602001828054610ef9906133cf565b8015610f465780601f10610f1b57610100808354040283529160200191610f46565b820191906000526020600020905b815481529060010190602001808311610f2957829003601f168201915b50505050508152602001600382018054610f5f906133cf565b80601f0160208091040260200160405190810160405280929190818152602001828054610f8b906133cf565b8015610fd85780601f10610fad57610100808354040283529160200191610fd8565b820191906000526020600020905b815481529060010190602001808311610fbb57829003601f168201915b50505050508152602001600482018054610ff1906133cf565b80601f016020809104026020016040519081016040528092919081815260200182805461101d906133cf565b801561106a5780601f1061103f5761010080835404028352916020019161106a565b820191906000526020600020905b81548152906001019060200180831161104d57829003601f168201915b50505050508152602001600582018054611083906133cf565b80601f01602080910402602001604051908101604052809291908181526020018280546110af906133cf565b80156110fc5780601f106110d1576101008083540402835291602001916110fc565b820191906000526020600020905b8154815290600101906020018083116110df57829003601f168201915b50505050508152602001600682018054611115906133cf565b80601f0160208091040260200160405190810160405280929190818152602001828054611141906133cf565b801561118e5780601f106111635761010080835404028352916020019161118e565b820191906000526020600020905b81548152906001019060200180831161117157829003601f168201915b505050505081526020016007820180546111a7906133cf565b80601f01602080910402602001604051908101604052809291908181526020018280546111d3906133cf565b80156112205780601f106111f557610100808354040283529160200191611220565b820191906000526020600020905b81548152906001019060200180831161120357829003601f168201915b505050505081526020016008820154815260200160098201548152602001600a820160009054906101000a900460ff16151515158152602001600b8201548152602001600c820154815250509050919050565b61127c82611aac565b6112bb576040517f08c379a00000000000000000000000000000000000000000000000000000000081526004016112b290613727565b60405180910390fd5b3373ffffffffffffffffffffffffffffffffffffffff166112db83610b1b565b73ffffffffffffffffffffffffffffffffffffffff1614611331576040517f08c379a0000000000000000000000000000000000000000000000000000000008152600401611328906137b9565b60405180910390fd5b80600c6000848152602001908152602001600020600601908051906020019061135b9291906129a1565b505050565b6000600a60009054906101000a900473ffffffffffffffffffffffffffffffffffffffff16905090565b606060018054611399906133cf565b80601f01602080910402602001604051908101604052809291908181526020018280546113c5906133cf565b80156114125780601f106113e757610100808354040283529160200191611412565b820191906000526020600020905b8154815290600101906020018083116113f557829003601f168201915b5050505050905090565b61142e611427611b18565b8383611fd9565b5050565b61144361143d611b18565b83611bd9565b611482576040517f08c379a000000000000000000000000000000000000000000000000000000000815260040161147990613629565b60405180910390fd5b61148e84848484612146565b50505050565b61149d82611aac565b6114dc576040517f08c379a00000000000000000000000000000000000000000000000000000000081526004016114d390613727565b60405180910390fd5b3373ffffffffffffffffffffffffffffffffffffffff166114fc83610b1b565b73ffffffffffffffffffffffffffffffffffffffff1614611552576040517f08c379a0000000000000000000000000000000000000000000000000000000008152600401611549906137b9565b60405180910390fd5b80600c6000848152602001908152602001600020600101908051906020019061157c9291906129a1565b505050565b606061158c82611aac565b6115cb576040517f08c379a00000000000000000000000000000000000000000000000000000000081526004016115c290613a9c565b60405180910390fd5b60006115d56121a2565b905060008151116115f55760405180602001604052806000815250611620565b806115ff84612234565b604051602001611610929190613af8565b6040516020818303038152906040525b915050919050565b61163182611aac565b611670576040517f08c379a000000000000000000000000000000000000000000000000000000000815260040161166790613727565b60405180910390fd5b3373ffffffffffffffffffffffffffffffffffffffff1661169083610b1b565b73ffffffffffffffffffffffffffffffffffffffff16146116e6576040517f08c379a00000000000000000000000000000000000000000000000000000000081526004016116dd906137b9565b60405180910390fd5b80600c600084815260200190815260200160002060050190805190602001906117109291906129a1565b505050565b6000600560008473ffffffffffffffffffffffffffffffffffffffff1673ffffffffffffffffffffffffffffffffffffffff16815260200190815260200160002060008373ffffffffffffffffffffffffffffffffffffffff1673ffffffffffffffffffffffffffffffffffffffff16815260200190815260200160002060009054906101000a900460ff16905092915050565b6117b282611aac565b6117f1576040517f08c379a00000000000000000000000000000000000000000000000000000000081526004016117e890613727565b60405180910390fd5b3373ffffffffffffffffffffffffffffffffffffffff1661181183610b1b565b73ffffffffffffffffffffffffffffffffffffffff1614611867576040517f08c379a000000000000000000000000000000000000000000000000000000000815260040161185e906137b9565b60405180910390fd5b80600c600084815260200190815260200160002060040190805190602001906118919291906129a1565b505050565b61189e611b18565b73ffffffffffffffffffffffffffffffffffffffff166118bc611360565b73ffffffffffffffffffffffffffffffffffffffff1614611912576040517f08c379a0000000000000000000000000000000000000000000000000000000008152600401611909906138e6565b60405180910390fd5b600073ffffffffffffffffffffffffffffffffffffffff168173ffffffffffffffffffffffffffffffffffffffff161415611982576040517f08c379a000000000000000000000000000000000000000000000000000000000815260040161197990613b8e565b60405180910390fd5b61198b81611f13565b50565b600081600001549050919050565b6001816000016000828254019250508190555050565b600080823b905060008111915050919050565b505050565b60007f80ac58cd000000000000000000000000000000000000000000000000000000007bffffffffffffffffffffffffffffffffffffffffffffffffffffffff1916827bffffffffffffffffffffffffffffffffffffffffffffffffffffffff19161480611a9557507f5b5e139f000000000000000000000000000000000000000000000000000000007bffffffffffffffffffffffffffffffffffffffffffffffffffffffff1916827bffffffffffffffffffffffffffffffffffffffffffffffffffffffff1916145b80611aa55750611aa482612395565b5b9050919050565b60008073ffffffffffffffffffffffffffffffffffffffff166002600084815260200190815260200160002060009054906101000a900473ffffffffffffffffffffffffffffffffffffffff1673ffffffffffffffffffffffffffffffffffffffff1614159050919050565b600033905090565b816004600083815260200190815260200160002060006101000a81548173ffffffffffffffffffffffffffffffffffffffff021916908373ffffffffffffffffffffffffffffffffffffffff160217905550808273ffffffffffffffffffffffffffffffffffffffff16611b9383610b1b565b73ffffffffffffffffffffffffffffffffffffffff167f8c5be1e5ebec7d5bd14f71427d1e84f3dd0314c0f7b2291e5b200ac8c7c3b92560405160405180910390a45050565b6000611be482611aac565b611c23576040517f08c379a0000000000000000000000000000000000000000000000000000000008152600401611c1a90613c20565b60405180910390fd5b6000611c2e83610b1b565b90508073ffffffffffffffffffffffffffffffffffffffff168473ffffffffffffffffffffffffffffffffffffffff161480611c9d57508373ffffffffffffffffffffffffffffffffffffffff16611c8584610658565b73ffffffffffffffffffffffffffffffffffffffff16145b80611cae5750611cad8185611715565b5b91505092915050565b8273ffffffffffffffffffffffffffffffffffffffff16611cd782610b1b565b73ffffffffffffffffffffffffffffffffffffffff1614611d2d576040517f08c379a0000000000000000000000000000000000000000000000000000000008152600401611d2490613cb2565b60405180910390fd5b600073ffffffffffffffffffffffffffffffffffffffff168273ffffffffffffffffffffffffffffffffffffffff161415611d9d576040517f08c379a0000000000000000000000000000000000000000000000000000000008152600401611d9490613d44565b60405180910390fd5b611da88383836123ff565b611db3600082611b20565b6001600360008573ffffffffffffffffffffffffffffffffffffffff1673ffffffffffffffffffffffffffffffffffffffff1681526020019081526020016000206000828254611e039190613d93565b925050819055506001600360008473ffffffffffffffffffffffffffffffffffffffff1673ffffffffffffffffffffffffffffffffffffffff1681526020019081526020016000206000828254611e5a9190613dc7565b92505081905550816002600083815260200190815260200160002060006101000a81548173ffffffffffffffffffffffffffffffffffffffff021916908373ffffffffffffffffffffffffffffffffffffffff160217905550808273ffffffffffffffffffffffffffffffffffffffff168473ffffffffffffffffffffffffffffffffffffffff167fddf252ad1be2c89b69c2b068fc378daa952ba7f163c4a11628f55a4df523b3ef60405160405180910390a4505050565b6000600a60009054906101000a900473ffffffffffffffffffffffffffffffffffffffff16905081600a60006101000a81548173ffffffffffffffffffffffffffffffffffffffff021916908373ffffffffffffffffffffffffffffffffffffffff1602179055508173ffffffffffffffffffffffffffffffffffffffff168173ffffffffffffffffffffffffffffffffffffffff167f8be0079c531659141344cd1fd0a4f28419497f9722a3daafe3b4186f6b6457e060405160405180910390a35050565b8173ffffffffffffffffffffffffffffffffffffffff168373ffffffffffffffffffffffffffffffffffffffff161415612048576040517f08c379a000000000000000000000000000000000000000000000000000000000815260040161203f90613e69565b60405180910390fd5b80600560008573ffffffffffffffffffffffffffffffffffffffff1673ffffffffffffffffffffffffffffffffffffffff16815260200190815260200160002060008473ffffffffffffffffffffffffffffffffffffffff1673ffffffffffffffffffffffffffffffffffffffff16815260200190815260200160002060006101000a81548160ff0219169083151502179055508173ffffffffffffffffffffffffffffffffffffffff168373ffffffffffffffffffffffffffffffffffffffff167f17307eab39ab6107e8899845ad3d59bd9653f200f220920489ca2b5937696c31836040516121399190612b65565b60405180910390a3505050565b612151848484611cb7565b61215d84848484612513565b61219c576040517f08c379a000000000000000000000000000000000000000000000000000000000815260040161219390613efb565b60405180910390fd5b50505050565b6060600d80546121b1906133cf565b80601f01602080910402602001604051908101604052809291908181526020018280546121dd906133cf565b801561222a5780601f106121ff5761010080835404028352916020019161222a565b820191906000526020600020905b81548152906001019060200180831161220d57829003601f168201915b5050505050905090565b6060600082141561227c576040518060400160405280600181526020017f30000000000000000000000000000000000000000000000000000000000000008152509050612390565b600082905060005b600082146122ae57808061229790613f1b565b915050600a826122a79190613f93565b9150612284565b60008167ffffffffffffffff8111156122ca576122c9612ded565b5b6040519080825280601f01601f1916602001820160405280156122fc5781602001600182028036833780820191505090505b5090505b60008514612389576001826123159190613d93565b9150600a856123249190613fc4565b60306123309190613dc7565b60f81b8183815181106123465761234561386b565b5b60200101907effffffffffffffffffffffffffffffffffffffffffffffffffffffffffffff1916908160001a905350600a856123829190613f93565b9450612300565b8093505050505b919050565b60007f01ffc9a7000000000000000000000000000000000000000000000000000000007bffffffffffffffffffffffffffffffffffffffffffffffffffffffff1916827bffffffffffffffffffffffffffffffffffffffffffffffffffffffff1916149050919050565b61240a8383836119c5565b600073ffffffffffffffffffffffffffffffffffffffff168373ffffffffffffffffffffffffffffffffffffffff16141561244d576124488161269b565b61248c565b8173ffffffffffffffffffffffffffffffffffffffff168373ffffffffffffffffffffffffffffffffffffffff161461248b5761248a83826126e4565b5b5b600073ffffffffffffffffffffffffffffffffffffffff168273ffffffffffffffffffffffffffffffffffffffff1614156124cf576124ca81612851565b61250e565b8273ffffffffffffffffffffffffffffffffffffffff168273ffffffffffffffffffffffffffffffffffffffff161461250d5761250c8282612922565b5b5b505050565b60006125348473ffffffffffffffffffffffffffffffffffffffff166119b2565b1561268e578373ffffffffffffffffffffffffffffffffffffffff1663150b7a0261255d611b18565b8786866040518563ffffffff1660e01b815260040161257f949392919061404a565b6020604051808303816000875af19250505080156125bb57506040513d601f19601f820116820180604052508101906125b891906140ab565b60015b61263e573d80600081146125eb576040519150601f19603f3d011682016040523d82523d6000602084013e6125f0565b606091505b50600081511415612636576040517f08c379a000000000000000000000000000000000000000000000000000000000815260040161262d90613efb565b60405180910390fd5b805181602001fd5b63150b7a0260e01b7bffffffffffffffffffffffffffffffffffffffffffffffffffffffff1916817bffffffffffffffffffffffffffffffffffffffffffffffffffffffff191614915050612693565b600190505b949350505050565b6008805490506009600083815260200190815260200160002081905550600881908060018154018082558091505060019003906000526020600020016000909190919091505550565b600060016126f184610cba565b6126fb9190613d93565b90506000600760008481526020019081526020016000205490508181146127e0576000600660008673ffffffffffffffffffffffffffffffffffffffff1673ffffffffffffffffffffffffffffffffffffffff168152602001908152602001600020600084815260200190815260200160002054905080600660008773ffffffffffffffffffffffffffffffffffffffff1673ffffffffffffffffffffffffffffffffffffffff168152602001908152602001600020600084815260200190815260200160002081905550816007600083815260200190815260200160002081905550505b6007600084815260200190815260200160002060009055600660008573ffffffffffffffffffffffffffffffffffffffff1673ffffffffffffffffffffffffffffffffffffffff16815260200190815260200160002060008381526020019081526020016000206000905550505050565b600060016008805490506128659190613d93565b90506000600960008481526020019081526020016000205490506000600883815481106128955761289461386b565b5b9060005260206000200154905080600883815481106128b7576128b661386b565b5b906000526020600020018190555081600960008381526020019081526020016000208190555060096000858152602001908152602001600020600090556008805480612906576129056140d8565b5b6001900381819060005260206000200160009055905550505050565b600061292d83610cba565b905081600660008573ffffffffffffffffffffffffffffffffffffffff1673ffffffffffffffffffffffffffffffffffffffff168152602001908152602001600020600083815260200190815260200160002081905550806007600084815260200190815260200160002081905550505050565b8280546129ad906133cf565b90600052602060002090601f0160209004810192826129cf5760008555612a16565b82601f106129e857805160ff1916838001178555612a16565b82800160010185558215612a16579182015b82811115612a155782518255916020019190600101906129fa565b5b509050612a239190612a94565b5090565b604051806101a001604052806000801916815260200160608152602001606081526020016060815260200160608152602001606081526020016060815260200160608152602001600081526020016000815260200160001515815260200160008152602001600081525090565b5b80821115612aad576000816000905550600101612a95565b5090565b6000604051905090565b600080fd5b600080fd5b60007fffffffff0000000000000000000000000000000000000000000000000000000082169050919050565b612afa81612ac5565b8114612b0557600080fd5b50565b600081359050612b1781612af1565b92915050565b600060208284031215612b3357612b32612abb565b5b6000612b4184828501612b08565b91505092915050565b60008115159050919050565b612b5f81612b4a565b82525050565b6000602082019050612b7a6000830184612b56565b92915050565b600081519050919050565b600082825260208201905092915050565b60005b83811015612bba578082015181840152602081019050612b9f565b83811115612bc9576000848401525b50505050565b6000601f19601f8301169050919050565b6000612beb82612b80565b612bf58185612b8b565b9350612c05818560208601612b9c565b612c0e81612bcf565b840191505092915050565b60006020820190508181036000830152612c338184612be0565b905092915050565b6000819050919050565b612c4e81612c3b565b8114612c5957600080fd5b50565b600081359050612c6b81612c45565b92915050565b600060208284031215612c8757612c86612abb565b5b6000612c9584828501612c5c565b91505092915050565b600073ffffffffffffffffffffffffffffffffffffffff82169050919050565b6000612cc982612c9e565b9050919050565b612cd981612cbe565b82525050565b6000602082019050612cf46000830184612cd0565b92915050565b612d0381612cbe565b8114612d0e57600080fd5b50565b600081359050612d2081612cfa565b92915050565b60008060408385031215612d3d57612d3c612abb565b5b6000612d4b85828601612d11565b9250506020612d5c85828601612c5c565b9150509250929050565b612d6f81612c3b565b82525050565b6000602082019050612d8a6000830184612d66565b92915050565b600080600060608486031215612da957612da8612abb565b5b6000612db786828701612d11565b9350506020612dc886828701612d11565b9250506040612dd986828701612c5c565b9150509250925092565b600080fd5b600080fd5b7f4e487b7100000000000000000000000000000000000000000000000000000000600052604160045260246000fd5b612e2582612bcf565b810181811067ffffffffffffffff82111715612e4457612e43612ded565b5b80604052505050565b6000612e57612ab1565b9050612e638282612e1c565b919050565b600067ffffffffffffffff821115612e8357612e82612ded565b5b612e8c82612bcf565b9050602081019050919050565b82818337600083830152505050565b6000612ebb612eb684612e68565b612e4d565b905082815260208101848484011115612ed757612ed6612de8565b5b612ee2848285612e99565b509392505050565b600082601f830112612eff57612efe612de3565b5b8135612f0f848260208601612ea8565b91505092915050565b60008060408385031215612f2f57612f2e612abb565b5b6000612f3d85828601612c5c565b925050602083013567ffffffffffffffff811115612f5e57612f5d612ac0565b5b612f6a85828601612eea565b9150509250929050565b600060208284031215612f8a57612f89612abb565b5b600082013567ffffffffffffffff811115612fa857612fa7612ac0565b5b612fb484828501612eea565b91505092915050565b600060208284031215612fd357612fd2612abb565b5b6000612fe184828501612d11565b91505092915050565b6000819050919050565b612ffd81612fea565b82525050565b600082825260208201905092915050565b600061301f82612b80565b6130298185613003565b9350613039818560208601612b9c565b61304281612bcf565b840191505092915050565b61305681612c3b565b82525050565b61306581612b4a565b82525050565b60006101a0830160008301516130846000860182612ff4565b506020830151848203602086015261309c8282613014565b915050604083015184820360408601526130b68282613014565b915050606083015184820360608601526130d08282613014565b915050608083015184820360808601526130ea8282613014565b91505060a083015184820360a08601526131048282613014565b91505060c083015184820360c086015261311e8282613014565b91505060e083015184820360e08601526131388282613014565b91505061010083015161314f61010086018261304d565b5061012083015161316461012086018261304d565b5061014083015161317961014086018261305c565b5061016083015161318e61016086018261304d565b506101808301516131a361018086018261304d565b508091505092915050565b600060208201905081810360008301526131c8818461306b565b905092915050565b6131d981612b4a565b81146131e457600080fd5b50565b6000813590506131f6816131d0565b92915050565b6000806040838503121561321357613212612abb565b5b600061322185828601612d11565b9250506020613232858286016131e7565b9150509250929050565b600067ffffffffffffffff82111561325757613256612ded565b5b61326082612bcf565b9050602081019050919050565b600061328061327b8461323c565b612e4d565b90508281526020810184848401111561329c5761329b612de8565b5b6132a7848285612e99565b509392505050565b600082601f8301126132c4576132c3612de3565b5b81356132d484826020860161326d565b91505092915050565b600080600080608085870312156132f7576132f6612abb565b5b600061330587828801612d11565b945050602061331687828801612d11565b935050604061332787828801612c5c565b925050606085013567ffffffffffffffff81111561334857613347612ac0565b5b613354878288016132af565b91505092959194509250565b6000806040838503121561337757613376612abb565b5b600061338585828601612d11565b925050602061339685828601612d11565b9150509250929050565b7f4e487b7100000000000000000000000000000000000000000000000000000000600052602260045260246000fd5b600060028204905060018216806133e757607f821691505b602082108114156133fb576133fa6133a0565b5b50919050565b7f4552433732313a20617070726f76656420717565727920666f72206e6f6e657860008201527f697374656e7420746f6b656e0000000000000000000000000000000000000000602082015250565b600061345d602c83612b8b565b915061346882613401565b604082019050919050565b6000602082019050818103600083015261348c81613450565b9050919050565b7f4552433732313a20617070726f76616c20746f2063757272656e74206f776e6560008201527f7200000000000000000000000000000000000000000000000000000000000000602082015250565b60006134ef602183612b8b565b91506134fa82613493565b604082019050919050565b6000602082019050818103600083015261351e816134e2565b9050919050565b7f4552433732313a20617070726f76652063616c6c6572206973206e6f74206f7760008201527f6e6572206e6f7220617070726f76656420666f7220616c6c0000000000000000602082015250565b6000613581603883612b8b565b915061358c82613525565b604082019050919050565b600060208201905081810360008301526135b081613574565b9050919050565b7f4552433732313a207472616e736665722063616c6c6572206973206e6f74206f60008201527f776e6572206e6f7220617070726f766564000000000000000000000000000000602082015250565b6000613613603183612b8b565b915061361e826135b7565b604082019050919050565b6000602082019050818103600083015261364281613606565b9050919050565b7f455243373231456e756d657261626c653a206f776e657220696e646578206f7560008201527f74206f6620626f756e6473000000000000000000000000000000000000000000602082015250565b60006136a5602b83612b8b565b91506136b082613649565b604082019050919050565b600060208201905081810360008301526136d481613698565b9050919050565b7f746f6b656e206e6f74206d696e74656400000000000000000000000000000000600082015250565b6000613711601083612b8b565b915061371c826136db565b602082019050919050565b6000602082019050818103600083015261374081613704565b9050919050565b7f6f6e6c7920746865206f776e6572206f66207468697320756e6971756520494460008201527f2063616e206368616e676520697473207469746c650000000000000000000000602082015250565b60006137a3603583612b8b565b91506137ae82613747565b604082019050919050565b600060208201905081810360008301526137d281613796565b9050919050565b7f455243373231456e756d657261626c653a20676c6f62616c20696e646578206f60008201527f7574206f6620626f756e64730000000000000000000000000000000000000000602082015250565b6000613835602c83612b8b565b9150613840826137d9565b604082019050919050565b6000602082019050818103600083015261386481613828565b9050919050565b7f4e487b7100000000000000000000000000000000000000000000000000000000600052603260045260246000fd5b7f4f776e61626c653a2063616c6c6572206973206e6f7420746865206f776e6572600082015250565b60006138d0602083612b8b565b91506138db8261389a565b602082019050919050565b600060208201905081810360008301526138ff816138c3565b9050919050565b7f4552433732313a206f776e657220717565727920666f72206e6f6e657869737460008201527f656e7420746f6b656e0000000000000000000000000000000000000000000000602082015250565b6000613962602983612b8b565b915061396d82613906565b604082019050919050565b6000602082019050818103600083015261399181613955565b9050919050565b7f4552433732313a2062616c616e636520717565727920666f7220746865207a6560008201527f726f206164647265737300000000000000000000000000000000000000000000602082015250565b60006139f4602a83612b8b565b91506139ff82613998565b604082019050919050565b60006020820190508181036000830152613a23816139e7565b9050919050565b7f4552433732314d657461646174613a2055524920717565727920666f72206e6f60008201527f6e6578697374656e7420746f6b656e0000000000000000000000000000000000602082015250565b6000613a86602f83612b8b565b9150613a9182613a2a565b604082019050919050565b60006020820190508181036000830152613ab581613a79565b9050919050565b600081905092915050565b6000613ad282612b80565b613adc8185613abc565b9350613aec818560208601612b9c565b80840191505092915050565b6000613b048285613ac7565b9150613b108284613ac7565b91508190509392505050565b7f4f776e61626c653a206e6577206f776e657220697320746865207a65726f206160008201527f6464726573730000000000000000000000000000000000000000000000000000602082015250565b6000613b78602683612b8b565b9150613b8382613b1c565b604082019050919050565b60006020820190508181036000830152613ba781613b6b565b9050919050565b7f4552433732313a206f70657261746f7220717565727920666f72206e6f6e657860008201527f697374656e7420746f6b656e0000000000000000000000000000000000000000602082015250565b6000613c0a602c83612b8b565b9150613c1582613bae565b604082019050919050565b60006020820190508181036000830152613c3981613bfd565b9050919050565b7f4552433732313a207472616e73666572206f6620746f6b656e2074686174206960008201527f73206e6f74206f776e0000000000000000000000000000000000000000000000602082015250565b6000613c9c602983612b8b565b9150613ca782613c40565b604082019050919050565b60006020820190508181036000830152613ccb81613c8f565b9050919050565b7f4552433732313a207472616e7366657220746f20746865207a65726f2061646460008201527f7265737300000000000000000000000000000000000000000000000000000000602082015250565b6000613d2e602483612b8b565b9150613d3982613cd2565b604082019050919050565b60006020820190508181036000830152613d5d81613d21565b9050919050565b7f4e487b7100000000000000000000000000000000000000000000000000000000600052601160045260246000fd5b6000613d9e82612c3b565b9150613da983612c3b565b925082821015613dbc57613dbb613d64565b5b828203905092915050565b6000613dd282612c3b565b9150613ddd83612c3b565b9250827fffffffffffffffffffffffffffffffffffffffffffffffffffffffffffffffff03821115613e1257613e11613d64565b5b828201905092915050565b7f4552433732313a20617070726f766520746f2063616c6c657200000000000000600082015250565b6000613e53601983612b8b565b9150613e5e82613e1d565b602082019050919050565b60006020820190508181036000830152613e8281613e46565b9050919050565b7f4552433732313a207472616e7366657220746f206e6f6e20455243373231526560008201527f63656976657220696d706c656d656e7465720000000000000000000000000000602082015250565b6000613ee5603283612b8b565b9150613ef082613e89565b604082019050919050565b60006020820190508181036000830152613f1481613ed8565b9050919050565b6000613f2682612c3b565b91507fffffffffffffffffffffffffffffffffffffffffffffffffffffffffffffffff821415613f5957613f58613d64565b5b600182019050919050565b7f4e487b7100000000000000000000000000000000000000000000000000000000600052601260045260246000fd5b6000613f9e82612c3b565b9150613fa983612c3b565b925082613fb957613fb8613f64565b5b828204905092915050565b6000613fcf82612c3b565b9150613fda83612c3b565b925082613fea57613fe9613f64565b5b828206905092915050565b600081519050919050565b600082825260208201905092915050565b600061401c82613ff5565b6140268185614000565b9350614036818560208601612b9c565b61403f81612bcf565b840191505092915050565b600060808201905061405f6000830187612cd0565b61406c6020830186612cd0565b6140796040830185612d66565b818103606083015261408b8184614011565b905095945050505050565b6000815190506140a581612af1565b92915050565b6000602082840312156140c1576140c0612abb565b5b60006140cf84828501614096565b91505092915050565b7f4e487b7100000000000000000000000000000000000000000000000000000000600052603160045260246000fdfea26469706673582212200c7ecf33bd7d8e6cf6020d86845ac70fb98bb50cfb3789fb9e2c3e799bac63bf64736f6c634300080a003368747470733a2f2f70617065726d6173746572732e696f2f6d696e746964656e746974792f",
  "immutableReferences": {},
  "source": "// SPDX-License-Identifier: MIT\r\npragma solidity >=0.4.22 <0.9.0;\r\n\r\nimport \"@openzeppelin/contracts/access/Ownable.sol\";\r\nimport \"@openzeppelin/contracts/token/ERC721/ERC721.sol\";\r\nimport \"@openzeppelin/contracts/token/ERC721/extensions/ERC721Enumerable.sol\";\r\nimport \"@openzeppelin/contracts/utils/Counters.sol\";\r\n\r\ncontract MintIdentity is ERC721Enumerable, Ownable {\r\n    using Counters for Counters.Counter;\r\n    Counters.Counter private _tokenIds;\r\n\r\n    struct Identity {\r\n        bytes32 uniqueid;\r\n        string name;\r\n        string aka;\r\n        string organization;\r\n        string slogan;\r\n        string description;\r\n        string url;\r\n        string bio;\r\n        uint created;\r\n        uint lastupdated;\r\n        bool valid;\r\n        uint validdate;\r\n        uint validationscore;\r\n    }\r\n\r\n    mapping(uint256=> Identity) id_to_identity;\r\n\r\n    string private _currentBaseURI;\r\n\r\n    constructor() ERC721(\"MintIdentity\", \"IDENT\") {\r\n        setBaseURI(\"https://papermasters.io/mintidentity/\");\r\n\r\n        mintIdentity(\"Andrew\",\r\n            \"ramonajenny\",\r\n            \"PaperMasters\",\r\n            \"All things Wave\",\r\n            \"\",\r\n            \"http://ramonajenny.com\",\r\n            \"Engineer\");\r\n\r\n    }\r\n\r\n    function setBaseURI(string memory baseURI) public onlyOwner() {\r\n        _currentBaseURI = baseURI;\r\n    }\r\n\r\n    function _baseURI() internal view virtual override returns (string memory) {\r\n        return _currentBaseURI;\r\n    }\r\n\r\n    function createUniqueId(\r\n        string memory name,\r\n        string memory aka,\r\n        string memory org,\r\n        string memory slogan,\r\n        string memory description,\r\n        string memory url,\r\n        string memory bio) private view returns(bytes32) {\r\n        return keccak256(abi.encodePacked(name, aka, org, slogan, description, url, bio, block.timestamp));\r\n    }\r\n\r\n    function getTokenIdentity(uint256 tokenId) public view returns(Identity memory ident) {\r\n        ident = id_to_identity[tokenId];\r\n    }\r\n\r\n    function mintIdentity (\r\n        string memory name,\r\n        string memory aka,\r\n        string memory org,\r\n        string memory slogan,\r\n        string memory description,\r\n        string memory url,\r\n        string memory bio) internal {\r\n            bytes32 uniqueId = createUniqueId(name, aka, org, slogan, description, url, bio);\r\n            id_to_identity[_tokenIds.current()] = Identity(uniqueId,name, aka, org, slogan, description,\r\n                url, bio, block.timestamp, block.timestamp, false, 0, 0);\r\n            _safeMint(msg.sender,_tokenIds.current());\r\n            _tokenIds.increment();\r\n    }\r\n\r\n    function changeName(uint256 tokenId, string memory newName)  public {\r\n        require(_exists(tokenId), \"token not minted\");\r\n        require(ownerOf(tokenId) == msg.sender, \"only the owner of this unique ID can change its title\");\r\n        id_to_identity[tokenId].name = newName;\r\n\r\n    }\r\n\r\n    function changeAKA(uint256 tokenId, string memory newAKA)  public {\r\n        require(_exists(tokenId), \"token not minted\");\r\n        require(ownerOf(tokenId) == msg.sender, \"only the owner of this unique ID can change its title\");\r\n        id_to_identity[tokenId].aka = newAKA;\r\n\r\n    }\r\n\r\n    function changeSlogan(uint256 tokenId, string memory newSlogan)  public {\r\n        require(_exists(tokenId), \"token not minted\");\r\n        require(ownerOf(tokenId) == msg.sender, \"only the owner of this unique ID can change its title\");\r\n        id_to_identity[tokenId].slogan = newSlogan;\r\n\r\n    }\r\n\r\n    function changeDescription(uint256 tokenId, string memory newDescription)  public {\r\n        require(_exists(tokenId), \"token not minted\");\r\n        require(ownerOf(tokenId) == msg.sender, \"only the owner of this unique ID can change its title\");\r\n        id_to_identity[tokenId].description = newDescription;\r\n\r\n    }\r\n\r\n    function changeURL(uint256 tokenId, string memory newURL)  public {\r\n        require(_exists(tokenId), \"token not minted\");\r\n        require(ownerOf(tokenId) == msg.sender, \"only the owner of this unique ID can change its title\");\r\n        id_to_identity[tokenId].url = newURL;\r\n\r\n        }\r\n\r\n    function changeBio(uint256 tokenId, string memory newBio)  public {\r\n        require(_exists(tokenId), \"token not minted\");\r\n        require(ownerOf(tokenId) == msg.sender, \"only the owner of this unique ID can change its title\");\r\n        id_to_identity[tokenId].bio = newBio;\r\n\r\n    }\r\n\r\n\r\n//changeLastUpdated(tokenId);\r\n    //we need transfer ownership for companies\r\n    //id_to_identity[tokenId].lastupdated = block.timestamp;\r\n\r\n}",
  "sourcePath": "/home/user/MintIdentityTPM/truffle/contracts/MintIdentity.sol",
  "compiler": {
    "name": "solc",
    "version": "0.8.10+commit.fc410830.Emscripten.clang"
  },
  "schemaVersion": "3.4.4",
  "updatedAt": "2022-01-01T07:34:49.842Z",
  "networkType": "ethereum",
  "devdoc": {
    "kind": "dev",
    "methods": {
      "approve(address,uint256)": {
        "details": "See {IERC721-approve}."
      },
      "balanceOf(address)": {
        "details": "See {IERC721-balanceOf}."
      },
      "getApproved(uint256)": {
        "details": "See {IERC721-getApproved}."
      },
      "isApprovedForAll(address,address)": {
        "details": "See {IERC721-isApprovedForAll}."
      },
      "name()": {
        "details": "See {IERC721Metadata-name}."
      },
      "owner()": {
        "details": "Returns the address of the current owner."
      },
      "ownerOf(uint256)": {
        "details": "See {IERC721-ownerOf}."
      },
      "renounceOwnership()": {
        "details": "Leaves the contract without owner. It will not be possible to call `onlyOwner` functions anymore. Can only be called by the current owner. NOTE: Renouncing ownership will leave the contract without an owner, thereby removing any functionality that is only available to the owner."
      },
      "safeTransferFrom(address,address,uint256)": {
        "details": "See {IERC721-safeTransferFrom}."
      },
      "safeTransferFrom(address,address,uint256,bytes)": {
        "details": "See {IERC721-safeTransferFrom}."
      },
      "setApprovalForAll(address,bool)": {
        "details": "See {IERC721-setApprovalForAll}."
      },
      "supportsInterface(bytes4)": {
        "details": "See {IERC165-supportsInterface}."
      },
      "symbol()": {
        "details": "See {IERC721Metadata-symbol}."
      },
      "tokenByIndex(uint256)": {
        "details": "See {IERC721Enumerable-tokenByIndex}."
      },
      "tokenOfOwnerByIndex(address,uint256)": {
        "details": "See {IERC721Enumerable-tokenOfOwnerByIndex}."
      },
      "tokenURI(uint256)": {
        "details": "See {IERC721Metadata-tokenURI}."
      },
      "totalSupply()": {
        "details": "See {IERC721Enumerable-totalSupply}."
      },
      "transferFrom(address,address,uint256)": {
        "details": "See {IERC721-transferFrom}."
      },
      "transferOwnership(address)": {
        "details": "Transfers ownership of the contract to a new account (`newOwner`). Can only be called by the current owner."
      }
    },
    "version": 1
  },
  "userdoc": {
    "kind": "user",
    "methods": {},
    "version": 1
  }
}